{
	"data": {
		"bytecode": {
			"linkReferences": {},
			"object": "60c060405266b1a2bc2ec50000600e55666a94d74f430000600f556103e860105560016011556000601260006101000a81548160ff0219169083151502179055503480156200004d57600080fd5b5060405162006c4738038062006c478339818101604052810190620000739190620004e8565b848484828282806200009a6200008e6200012f60201b60201c565b6200013760201b60201c565b8073ffffffffffffffffffffffffffffffffffffffff1660808173ffffffffffffffffffffffffffffffffffffffff168152505050508160039080519060200190620000e8929190620001fb565b50806004908051906020019062000101929190620001fb565b50505050505081600a819055508060a0818152505081600b8190555080600c81905550505050505062000613565b600033905090565b60008060009054906101000a900473ffffffffffffffffffffffffffffffffffffffff169050816000806101000a81548173ffffffffffffffffffffffffffffffffffffffff021916908373ffffffffffffffffffffffffffffffffffffffff1602179055508173ffffffffffffffffffffffffffffffffffffffff168173ffffffffffffffffffffffffffffffffffffffff167f8be0079c531659141344cd1fd0a4f28419497f9722a3daafe3b4186f6b6457e060405160405180910390a35050565b8280546200020990620005dd565b90600052602060002090601f0160209004810192826200022d576000855562000279565b82601f106200024857805160ff191683800117855562000279565b8280016001018555821562000279579182015b82811115620002785782518255916020019190600101906200025b565b5b5090506200028891906200028c565b5090565b5b80821115620002a75760008160009055506001016200028d565b5090565b6000604051905090565b600080fd5b600080fd5b600080fd5b600080fd5b6000601f19601f8301169050919050565b7f4e487b7100000000000000000000000000000000000000000000000000000000600052604160045260246000fd5b6200031482620002c9565b810181811067ffffffffffffffff82111715620003365762000335620002da565b5b80604052505050565b60006200034b620002ab565b905062000359828262000309565b919050565b600067ffffffffffffffff8211156200037c576200037b620002da565b5b6200038782620002c9565b9050602081019050919050565b60005b83811015620003b457808201518184015260208101905062000397565b83811115620003c4576000848401525b50505050565b6000620003e1620003db846200035e565b6200033f565b9050828152602081018484840111156200040057620003ff620002c4565b5b6200040d84828562000394565b509392505050565b600082601f8301126200042d576200042c620002bf565b5b81516200043f848260208601620003ca565b91505092915050565b600073ffffffffffffffffffffffffffffffffffffffff82169050919050565b6000620004758262000448565b9050919050565b620004878162000468565b81146200049357600080fd5b50565b600081519050620004a7816200047c565b92915050565b6000819050919050565b620004c281620004ad565b8114620004ce57600080fd5b50565b600081519050620004e281620004b7565b92915050565b600080600080600060a08688031215620005075762000506620002b5565b5b600086015167ffffffffffffffff811115620005285762000527620002ba565b5b620005368882890162000415565b955050602086015167ffffffffffffffff8111156200055a5762000559620002ba565b5b620005688882890162000415565b94505060406200057b8882890162000496565b93505060606200058e88828901620004d1565b9250506080620005a188828901620004d1565b9150509295509295909350565b7f4e487b7100000000000000000000000000000000000000000000000000000000600052602260045260246000fd5b60006002820490506001821680620005f657607f821691505b602082108114156200060d576200060c620005ae565b5b50919050565b60805160a0516165cf62000678600039600061253d015260008181610d22015281816110c70152818161136e01528181611843015281816124a3015281816127e201528181612bbf01528181612bfb015281816134090152613b1801526165cf6000f3fe6080604052600436106103755760003560e01c806366ad5c8a116101d1578063c91c046211610102578063dacbcbe2116100a0578063ed931e171161006f578063ed931e1714610c75578063eed33cef14610c9e578063f2fde38b14610cba578063f5ecbdbc14610ce357610375565b8063dacbcbe214610bb9578063e1d4c87014610be4578063e985e9c514610c0f578063eb8d72b714610c4c57610375565b8063d1deba1f116100dc578063d1deba1f14610b0a578063d547cfb714610b26578063d5abeb0114610b51578063d936547e14610b7c57610375565b8063c91c046214610a9f578063cbed8b9c14610ab6578063d0f62e1b14610adf57610375565b80638ee749121161016f578063a22cb46511610149578063a22cb465146109e7578063b2f3e85e14610a10578063b88d4fde14610a39578063c87b56dd14610a6257610375565b80638ee74912146109565780638fdcf9421461099357806395d89b41146109bc57610375565b806370a08231116101ab57806370a08231146108ae578063715018a6146108eb5780637f00c7a6146109025780638da5cb5b1461092b57610375565b806366ad5c8a1461081d57806369b41f95146108465780636aa99da31461088357610375565b806330cc7ae0116102ab5780634a4c560d1161024957806355f804b31161022357806355f804b3146107615780635b92ac0d1461078a5780635c975abb146107b55780636352211e146107e057610375565b80634a4c560d146106f3578063519056361461071c578063546857c71461073857610375565b80633d8b38f6116102855780633d8b38f61461063b57806342842e0e1461067857806342d65a8d146106a157806344a0d68a146106ca57610375565b806330cc7ae0146105dd57806336ecd177146106065780633ccfd60b1461063157610375565b806310ddb13711610318578063239c70ae116102f2578063239c70ae1461052157806323b872dd1461054c5780632a23d07d1461057557806330b2264e146105a057610375565b806310ddb137146104c35780631249c58b146104ec57806313faede6146104f657610375565b806306fdde031161035457806306fdde031461040957806307e0db1714610434578063081812fc1461045d578063095ea7b31461049a57610375565b80621d35671461037a57806301ffc9a7146103a357806302329a29146103e0575b600080fd5b34801561038657600080fd5b506103a1600480360381019061039c9190614395565b610d20565b005b3480156103af57600080fd5b506103ca60048036038101906103c5919061448c565b610e3c565b6040516103d791906144d4565b60405180910390f35b3480156103ec57600080fd5b506104076004803603810190610402919061451b565b610f1e565b005b34801561041557600080fd5b5061041e610fb7565b60405161042b91906145d0565b60405180910390f35b34801561044057600080fd5b5061045b600480360381019061045691906145f2565b611049565b005b34801561046957600080fd5b50610484600480360381019061047f9190614655565b611153565b60405161049191906146c3565b60405180910390f35b3480156104a657600080fd5b506104c160048036038101906104bc919061470a565b6111d8565b005b3480156104cf57600080fd5b506104ea60048036038101906104e591906145f2565b6112f0565b005b6104f46113fa565b005b34801561050257600080fd5b5061050b61146d565b6040516105189190614759565b60405180910390f35b34801561052d57600080fd5b50610536611473565b6040516105439190614759565b60405180910390f35b34801561055857600080fd5b50610573600480360381019061056e9190614774565b611479565b005b34801561058157600080fd5b5061058a6114d9565b6040516105979190614759565b60405180910390f35b3480156105ac57600080fd5b506105c760048036038101906105c291906147c7565b6114df565b6040516105d491906144d4565b60405180910390f35b3480156105e957600080fd5b5061060460048036038101906105ff91906147c7565b6114ff565b005b34801561061257600080fd5b5061061b6115d6565b6040516106289190614759565b60405180910390f35b6106396115dc565b005b34801561064757600080fd5b50610662600480360381019061065d9190614854565b6116d1565b60405161066f91906144d4565b60405180910390f35b34801561068457600080fd5b5061069f600480360381019061069a9190614774565b6117a5565b005b3480156106ad57600080fd5b506106c860048036038101906106c39190614854565b6117c5565b005b3480156106d657600080fd5b506106f160048036038101906106ec9190614655565b6118d5565b005b3480156106ff57600080fd5b5061071a600480360381019061071591906147c7565b61195b565b005b610736600480360381019061073191906148f2565b611a32565b005b34801561074457600080fd5b5061075f600480360381019061075a9190614a85565b611a91565b005b34801561076d57600080fd5b5061078860048036038101906107839190614b54565b611b9f565b005b34801561079657600080fd5b5061079f611c35565b6040516107ac91906144d4565b60405180910390f35b3480156107c157600080fd5b506107ca611c48565b6040516107d791906144d4565b60405180910390f35b3480156107ec57600080fd5b5061080760048036038101906108029190614655565b611c5b565b60405161081491906146c3565b60405180910390f35b34801561082957600080fd5b50610844600480360381019061083f9190614395565b611d0d565b005b34801561085257600080fd5b5061086d600480360381019061086891906145f2565b611d94565b60405161087a9190614bf2565b60405180910390f35b34801561088f57600080fd5b50610898611e41565b6040516108a59190614759565b60405180910390f35b3480156108ba57600080fd5b506108d560048036038101906108d091906147c7565b611e47565b6040516108e29190614759565b60405180910390f35b3480156108f757600080fd5b50610900611eff565b005b34801561090e57600080fd5b5061092960048036038101906109249190614655565b611f87565b005b34801561093757600080fd5b5061094061200d565b60405161094d91906146c3565b60405180910390f35b34801561096257600080fd5b5061097d60048036038101906109789190614c14565b612036565b60405161098a9190614c9c565b60405180910390f35b34801561099f57600080fd5b506109ba60048036038101906109b59190614655565b61207e565b005b3480156109c857600080fd5b506109d1612104565b6040516109de91906145d0565b60405180910390f35b3480156109f357600080fd5b50610a0e6004803603810190610a099190614cb7565b612196565b005b348015610a1c57600080fd5b50610a376004803603810190610a3291906147c7565b6121ac565b005b348015610a4557600080fd5b50610a606004803603810190610a5b9190614cf7565b612283565b005b348015610a6e57600080fd5b50610a896004803603810190610a849190614655565b6122e5565b604051610a9691906145d0565b60405180910390f35b348015610aab57600080fd5b50610ab461238c565b005b348015610ac257600080fd5b50610add6004803603810190610ad89190614d7a565b612425565b005b348015610aeb57600080fd5b50610af461253b565b604051610b019190614759565b60405180910390f35b610b246004803603810190610b1f9190614e02565b61255f565b005b348015610b3257600080fd5b50610b3b61272a565b604051610b4891906145d0565b60405180910390f35b348015610b5d57600080fd5b50610b666127b8565b604051610b739190614759565b60405180910390f35b348015610b8857600080fd5b50610ba36004803603810190610b9e91906147c7565b6127be565b604051610bb091906144d4565b60405180910390f35b348015610bc557600080fd5b50610bce6127de565b604051610bdb91906146c3565b60405180910390f35b348015610bf057600080fd5b50610bf9612806565b604051610c069190614759565b60405180910390f35b348015610c1b57600080fd5b50610c366004803603810190610c319190614ea6565b61280c565b604051610c4391906144d4565b60405180910390f35b348015610c5857600080fd5b50610c736004803603810190610c6e9190614854565b6128a0565b005b348015610c8157600080fd5b50610c9c6004803603810190610c9791906147c7565b612987565b005b610cb86004803603810190610cb39190614ee6565b612a5e565b005b348015610cc657600080fd5b50610ce16004803603810190610cdc91906147c7565b612ac3565b005b348015610cef57600080fd5b50610d0a6004803603810190610d059190614fb5565b612bbb565b604051610d179190614bf2565b60405180910390f35b7f000000000000000000000000000000000000000000000000000000000000000073ffffffffffffffffffffffffffffffffffffffff16610d5f612d23565b73ffffffffffffffffffffffffffffffffffffffff1614610d7f57600080fd5b600160008561ffff1661ffff1681526020019081526020016000208054610da59061504b565b90508351148015610deb5750600160008561ffff1661ffff168152602001908152602001600020604051610dd9919061511c565b60405180910390208380519060200120145b610e2a576040517f08c379a0000000000000000000000000000000000000000000000000000000008152600401610e21906151a5565b60405180910390fd5b610e3684848484612d2b565b50505050565b60007f80ac58cd000000000000000000000000000000000000000000000000000000007bffffffffffffffffffffffffffffffffffffffffffffffffffffffff1916827bffffffffffffffffffffffffffffffffffffffffffffffffffffffff19161480610f0757507f5b5e139f000000000000000000000000000000000000000000000000000000007bffffffffffffffffffffffffffffffffffffffffffffffffffffffff1916827bffffffffffffffffffffffffffffffffffffffffffffffffffffffff1916145b80610f175750610f1682612e40565b5b9050919050565b610f26612d23565b73ffffffffffffffffffffffffffffffffffffffff16610f4461200d565b73ffffffffffffffffffffffffffffffffffffffff1614610f9a576040517f08c379a0000000000000000000000000000000000000000000000000000000008152600401610f9190615211565b60405180910390fd5b80601260006101000a81548160ff02191690831515021790555050565b606060038054610fc69061504b565b80601f0160208091040260200160405190810160405280929190818152602001828054610ff29061504b565b801561103f5780601f106110145761010080835404028352916020019161103f565b820191906000526020600020905b81548152906001019060200180831161102257829003601f168201915b5050505050905090565b611051612d23565b73ffffffffffffffffffffffffffffffffffffffff1661106f61200d565b73ffffffffffffffffffffffffffffffffffffffff16146110c5576040517f08c379a00000000000000000000000000000000000000000000000000000000081526004016110bc90615211565b60405180910390fd5b7f000000000000000000000000000000000000000000000000000000000000000073ffffffffffffffffffffffffffffffffffffffff166307e0db17826040518263ffffffff1660e01b815260040161111e9190615240565b600060405180830381600087803b15801561113857600080fd5b505af115801561114c573d6000803e3d6000fd5b5050505050565b600061115e82612eaa565b61119d576040517f08c379a0000000000000000000000000000000000000000000000000000000008152600401611194906152cd565b60405180910390fd5b6007600083815260200190815260200160002060009054906101000a900473ffffffffffffffffffffffffffffffffffffffff169050919050565b60006111e382611c5b565b90508073ffffffffffffffffffffffffffffffffffffffff168373ffffffffffffffffffffffffffffffffffffffff161415611254576040517f08c379a000000000000000000000000000000000000000000000000000000000815260040161124b9061535f565b60405180910390fd5b8073ffffffffffffffffffffffffffffffffffffffff16611273612d23565b73ffffffffffffffffffffffffffffffffffffffff1614806112a257506112a18161129c612d23565b61280c565b5b6112e1576040517f08c379a00000000000000000000000000000000000000000000000000000000081526004016112d8906153f1565b60405180910390fd5b6112eb8383612f16565b505050565b6112f8612d23565b73ffffffffffffffffffffffffffffffffffffffff1661131661200d565b73ffffffffffffffffffffffffffffffffffffffff161461136c576040517f08c379a000000000000000000000000000000000000000000000000000000000815260040161136390615211565b60405180910390fd5b7f000000000000000000000000000000000000000000000000000000000000000073ffffffffffffffffffffffffffffffffffffffff166310ddb137826040518263ffffffff1660e01b81526004016113c59190615240565b600060405180830381600087803b1580156113df57600080fd5b505af11580156113f3573d6000803e3d6000fd5b5050505050565b600c54600b541115611441576040517f08c379a000000000000000000000000000000000000000000000000000000000815260040161143890615483565b60405180910390fd5b6000600b549050600b600081548092919061145b906154d2565b919050555061146a3382612fcf565b50565b600e5481565b60115481565b61148a611484612d23565b82612fed565b6114c9576040517f08c379a00000000000000000000000000000000000000000000000000000000081526004016114c09061558d565b60405180910390fd5b6114d48383836130cb565b505050565b600f5481565b60146020528060005260406000206000915054906101000a900460ff1681565b611507612d23565b73ffffffffffffffffffffffffffffffffffffffff1661152561200d565b73ffffffffffffffffffffffffffffffffffffffff161461157b576040517f08c379a000000000000000000000000000000000000000000000000000000000815260040161157290615211565b60405180910390fd5b6000601360008373ffffffffffffffffffffffffffffffffffffffff1673ffffffffffffffffffffffffffffffffffffffff16815260200190815260200160002060006101000a81548160ff02191690831515021790555050565b600a5481565b6115e4612d23565b73ffffffffffffffffffffffffffffffffffffffff1661160261200d565b73ffffffffffffffffffffffffffffffffffffffff1614611658576040517f08c379a000000000000000000000000000000000000000000000000000000000815260040161164f90615211565b60405180910390fd5b60003373ffffffffffffffffffffffffffffffffffffffff164760405161167e906155d3565b60006040518083038185875af1925050503d80600081146116bb576040519150601f19603f3d011682016040523d82523d6000602084013e6116c0565b606091505b50509050806116ce57600080fd5b50565b600080600160008661ffff1661ffff16815260200190815260200160002080546116fa9061504b565b80601f01602080910402602001604051908101604052809291908181526020018280546117269061504b565b80156117735780601f1061174857610100808354040283529160200191611773565b820191906000526020600020905b81548152906001019060200180831161175657829003601f168201915b50505050509050838360405161178a92919061560d565b60405180910390208180519060200120149150509392505050565b6117c083838360405180602001604052806000815250612283565b505050565b6117cd612d23565b73ffffffffffffffffffffffffffffffffffffffff166117eb61200d565b73ffffffffffffffffffffffffffffffffffffffff1614611841576040517f08c379a000000000000000000000000000000000000000000000000000000000815260040161183890615211565b60405180910390fd5b7f000000000000000000000000000000000000000000000000000000000000000073ffffffffffffffffffffffffffffffffffffffff166342d65a8d8484846040518463ffffffff1660e01b815260040161189e93929190615653565b600060405180830381600087803b1580156118b857600080fd5b505af11580156118cc573d6000803e3d6000fd5b50505050505050565b6118dd612d23565b73ffffffffffffffffffffffffffffffffffffffff166118fb61200d565b73ffffffffffffffffffffffffffffffffffffffff1614611951576040517f08c379a000000000000000000000000000000000000000000000000000000000815260040161194890615211565b60405180910390fd5b80600e8190555050565b611963612d23565b73ffffffffffffffffffffffffffffffffffffffff1661198161200d565b73ffffffffffffffffffffffffffffffffffffffff16146119d7576040517f08c379a00000000000000000000000000000000000000000000000000000000081526004016119ce90615211565b60405180910390fd5b6001601360008373ffffffffffffffffffffffffffffffffffffffff1673ffffffffffffffffffffffffffffffffffffffff16815260200190815260200160002060006101000a81548160ff02191690831515021790555050565b611a86898989898080601f016020809104026020016040519081016040528093929190818152602001838380828437600081840152601f19601f820116905080830192505050505050508888888888613332565b505050505050505050565b611a99612d23565b73ffffffffffffffffffffffffffffffffffffffff16611ab761200d565b73ffffffffffffffffffffffffffffffffffffffff1614611b0d576040517f08c379a0000000000000000000000000000000000000000000000000000000008152600401611b0490615211565b60405180910390fd5b60005b6002811015611b9b57600160146000848460648110611b3257611b31615685565b5b602002015173ffffffffffffffffffffffffffffffffffffffff1673ffffffffffffffffffffffffffffffffffffffff16815260200190815260200160002060006101000a81548160ff0219169083151502179055508080611b93906154d2565b915050611b10565b5050565b611ba7612d23565b73ffffffffffffffffffffffffffffffffffffffff16611bc561200d565b73ffffffffffffffffffffffffffffffffffffffff1614611c1b576040517f08c379a0000000000000000000000000000000000000000000000000000000008152600401611c1290615211565b60405180910390fd5b8060099080519060200190611c31929190614098565b5050565b600d60009054906101000a900460ff1681565b601260009054906101000a900460ff1681565b6000806005600084815260200190815260200160002060009054906101000a900473ffffffffffffffffffffffffffffffffffffffff169050600073ffffffffffffffffffffffffffffffffffffffff168173ffffffffffffffffffffffffffffffffffffffff161415611d04576040517f08c379a0000000000000000000000000000000000000000000000000000000008152600401611cfb90615726565b60405180910390fd5b80915050919050565b3073ffffffffffffffffffffffffffffffffffffffff16611d2c612d23565b73ffffffffffffffffffffffffffffffffffffffff1614611d82576040517f08c379a0000000000000000000000000000000000000000000000000000000008152600401611d79906157b8565b60405180910390fd5b611d8e84848484613537565b50505050565b6060600160008361ffff1661ffff1681526020019081526020016000208054611dbc9061504b565b80601f0160208091040260200160405190810160405280929190818152602001828054611de89061504b565b8015611e355780601f10611e0a57610100808354040283529160200191611e35565b820191906000526020600020905b815481529060010190602001808311611e1857829003601f168201915b50505050509050919050565b600b5481565b60008073ffffffffffffffffffffffffffffffffffffffff168273ffffffffffffffffffffffffffffffffffffffff161415611eb8576040517f08c379a0000000000000000000000000000000000000000000000000000000008152600401611eaf9061584a565b60405180910390fd5b600660008373ffffffffffffffffffffffffffffffffffffffff1673ffffffffffffffffffffffffffffffffffffffff168152602001908152602001600020549050919050565b611f07612d23565b73ffffffffffffffffffffffffffffffffffffffff16611f2561200d565b73ffffffffffffffffffffffffffffffffffffffff1614611f7b576040517f08c379a0000000000000000000000000000000000000000000000000000000008152600401611f7290615211565b60405180910390fd5b611f8560006135b7565b565b611f8f612d23565b73ffffffffffffffffffffffffffffffffffffffff16611fad61200d565b73ffffffffffffffffffffffffffffffffffffffff1614612003576040517f08c379a0000000000000000000000000000000000000000000000000000000008152600401611ffa90615211565b60405180910390fd5b8060118190555050565b60008060009054906101000a900473ffffffffffffffffffffffffffffffffffffffff16905090565b60026020528260005260406000208280516020810182018051848252602083016020850120818352809550505050505060205280600052604060002060009250925050505481565b612086612d23565b73ffffffffffffffffffffffffffffffffffffffff166120a461200d565b73ffffffffffffffffffffffffffffffffffffffff16146120fa576040517f08c379a00000000000000000000000000000000000000000000000000000000081526004016120f190615211565b60405180910390fd5b80600f8190555050565b6060600480546121139061504b565b80601f016020809104026020016040519081016040528092919081815260200182805461213f9061504b565b801561218c5780601f106121615761010080835404028352916020019161218c565b820191906000526020600020905b81548152906001019060200180831161216f57829003601f168201915b5050505050905090565b6121a86121a1612d23565b838361367b565b5050565b6121b4612d23565b73ffffffffffffffffffffffffffffffffffffffff166121d261200d565b73ffffffffffffffffffffffffffffffffffffffff1614612228576040517f08c379a000000000000000000000000000000000000000000000000000000000815260040161221f90615211565b60405180910390fd5b6001601460008373ffffffffffffffffffffffffffffffffffffffff1673ffffffffffffffffffffffffffffffffffffffff16815260200190815260200160002060006101000a81548160ff02191690831515021790555050565b61229461228e612d23565b83612fed565b6122d3576040517f08c379a00000000000000000000000000000000000000000000000000000000081526004016122ca9061558d565b60405180910390fd5b6122df848484846137e8565b50505050565b60606122f082612eaa565b61232f576040517f08c379a0000000000000000000000000000000000000000000000000000000008152600401612326906158dc565b60405180910390fd5b6000612339613844565b905060008151116123595760405180602001604052806000815250612384565b80612363846138d6565b604051602001612374929190615938565b6040516020818303038152906040525b915050919050565b612394612d23565b73ffffffffffffffffffffffffffffffffffffffff166123b261200d565b73ffffffffffffffffffffffffffffffffffffffff1614612408576040517f08c379a00000000000000000000000000000000000000000000000000000000081526004016123ff90615211565b60405180910390fd5b6001600d60006101000a81548160ff021916908315150217905550565b61242d612d23565b73ffffffffffffffffffffffffffffffffffffffff1661244b61200d565b73ffffffffffffffffffffffffffffffffffffffff16146124a1576040517f08c379a000000000000000000000000000000000000000000000000000000000815260040161249890615211565b60405180910390fd5b7f000000000000000000000000000000000000000000000000000000000000000073ffffffffffffffffffffffffffffffffffffffff1663cbed8b9c86868686866040518663ffffffff1660e01b815260040161250295949392919061595c565b600060405180830381600087803b15801561251c57600080fd5b505af1158015612530573d6000803e3d6000fd5b505050505050505050565b7f000000000000000000000000000000000000000000000000000000000000000081565b6000600260008761ffff1661ffff1681526020019081526020016000208560405161258a91906159db565b908152602001604051809103902060008567ffffffffffffffff1681526020019081526020016000205490506000801b8114156125fc576040517f08c379a00000000000000000000000000000000000000000000000000000000081526004016125f390615a3e565b60405180910390fd5b80838360405161260d92919061560d565b604051809103902014612655576040517f08c379a000000000000000000000000000000000000000000000000000000000815260040161264c90615aaa565b60405180910390fd5b6000801b600260008861ffff1661ffff1681526020019081526020016000208660405161268291906159db565b908152602001604051809103902060008667ffffffffffffffff168152602001908152602001600020819055503073ffffffffffffffffffffffffffffffffffffffff166366ad5c8a87878787876040518663ffffffff1660e01b81526004016126f0959493929190615ad9565b600060405180830381600087803b15801561270a57600080fd5b505af115801561271e573d6000803e3d6000fd5b50505050505050505050565b600980546127379061504b565b80601f01602080910402602001604051908101604052809291908181526020018280546127639061504b565b80156127b05780601f10612785576101008083540402835291602001916127b0565b820191906000526020600020905b81548152906001019060200180831161279357829003601f168201915b505050505081565b60105481565b60136020528060005260406000206000915054906101000a900460ff1681565b60007f0000000000000000000000000000000000000000000000000000000000000000905090565b600c5481565b6000600860008473ffffffffffffffffffffffffffffffffffffffff1673ffffffffffffffffffffffffffffffffffffffff16815260200190815260200160002060008373ffffffffffffffffffffffffffffffffffffffff1673ffffffffffffffffffffffffffffffffffffffff16815260200190815260200160002060009054906101000a900460ff16905092915050565b6128a8612d23565b73ffffffffffffffffffffffffffffffffffffffff166128c661200d565b73ffffffffffffffffffffffffffffffffffffffff161461291c576040517f08c379a000000000000000000000000000000000000000000000000000000000815260040161291390615211565b60405180910390fd5b8181600160008661ffff1661ffff168152602001908152602001600020919061294692919061411e565b507ffa41487ad5d6728f0b19276fa1eddc16558578f5109fc39d2dc33c3230470dab83838360405161297a93929190615653565b60405180910390a1505050565b61298f612d23565b73ffffffffffffffffffffffffffffffffffffffff166129ad61200d565b73ffffffffffffffffffffffffffffffffffffffff1614612a03576040517f08c379a00000000000000000000000000000000000000000000000000000000081526004016129fa90615211565b60405180910390fd5b6000601460008373ffffffffffffffffffffffffffffffffffffffff1673ffffffffffffffffffffffffffffffffffffffff16815260200190815260200160002060006101000a81548160ff02191690831515021790555050565b612ab9612a69612d23565b8989898080601f016020809104026020016040519081016040528093929190818152602001838380828437600081840152601f19601f820116905080830192505050505050508888888888613332565b5050505050505050565b612acb612d23565b73ffffffffffffffffffffffffffffffffffffffff16612ae961200d565b73ffffffffffffffffffffffffffffffffffffffff1614612b3f576040517f08c379a0000000000000000000000000000000000000000000000000000000008152600401612b3690615211565b60405180910390fd5b600073ffffffffffffffffffffffffffffffffffffffff168173ffffffffffffffffffffffffffffffffffffffff161415612baf576040517f08c379a0000000000000000000000000000000000000000000000000000000008152600401612ba690615ba0565b60405180910390fd5b612bb8816135b7565b50565b60607f000000000000000000000000000000000000000000000000000000000000000073ffffffffffffffffffffffffffffffffffffffff1663f5ecbdbc7f000000000000000000000000000000000000000000000000000000000000000073ffffffffffffffffffffffffffffffffffffffff1663096568f6306040518263ffffffff1660e01b8152600401612c5291906146c3565b60206040518083038186803b158015612c6a57600080fd5b505afa158015612c7e573d6000803e3d6000fd5b505050506040513d601f19601f82011682018060405250810190612ca29190615bd5565b8630866040518563ffffffff1660e01b8152600401612cc49493929190615c02565b60006040518083038186803b158015612cdc57600080fd5b505afa158015612cf0573d6000803e3d6000fd5b505050506040513d6000823e3d601f19601f82011682018060405250810190612d199190615cb7565b9050949350505050565b600033905090565b3073ffffffffffffffffffffffffffffffffffffffff166366ad5c8a858585856040518563ffffffff1660e01b8152600401612d6a9493929190615d00565b600060405180830381600087803b158015612d8457600080fd5b505af1925050508015612d95575060015b612e39578080519060200120600260008661ffff1661ffff16815260200190815260200160002084604051612dca91906159db565b908152602001604051809103902060008467ffffffffffffffff168152602001908152602001600020819055507fe6f254030bcb01ffd20558175c13fcaed6d1520be7becee4c961b65f79243b0d84848484604051612e2c9493929190615d00565b60405180910390a1612e3a565b5b50505050565b60007f01ffc9a7000000000000000000000000000000000000000000000000000000007bffffffffffffffffffffffffffffffffffffffffffffffffffffffff1916827bffffffffffffffffffffffffffffffffffffffffffffffffffffffff1916149050919050565b60008073ffffffffffffffffffffffffffffffffffffffff166005600084815260200190815260200160002060009054906101000a900473ffffffffffffffffffffffffffffffffffffffff1673ffffffffffffffffffffffffffffffffffffffff1614159050919050565b816007600083815260200190815260200160002060006101000a81548173ffffffffffffffffffffffffffffffffffffffff021916908373ffffffffffffffffffffffffffffffffffffffff160217905550808273ffffffffffffffffffffffffffffffffffffffff16612f8983611c5b565b73ffffffffffffffffffffffffffffffffffffffff167f8c5be1e5ebec7d5bd14f71427d1e84f3dd0314c0f7b2291e5b200ac8c7c3b92560405160405180910390a45050565b612fe9828260405180602001604052806000815250613a37565b5050565b6000612ff882612eaa565b613037576040517f08c379a000000000000000000000000000000000000000000000000000000000815260040161302e90615dc5565b60405180910390fd5b600061304283611c5b565b90508073ffffffffffffffffffffffffffffffffffffffff168473ffffffffffffffffffffffffffffffffffffffff1614806130b157508373ffffffffffffffffffffffffffffffffffffffff1661309984611153565b73ffffffffffffffffffffffffffffffffffffffff16145b806130c257506130c1818561280c565b5b91505092915050565b8273ffffffffffffffffffffffffffffffffffffffff166130eb82611c5b565b73ffffffffffffffffffffffffffffffffffffffff1614613141576040517f08c379a000000000000000000000000000000000000000000000000000000000815260040161313890615e57565b60405180910390fd5b600073ffffffffffffffffffffffffffffffffffffffff168273ffffffffffffffffffffffffffffffffffffffff1614156131b1576040517f08c379a00000000000000000000000000000000000000000000000000000000081526004016131a890615ee9565b60405180910390fd5b6131bc838383613a92565b6131c7600082612f16565b6001600660008573ffffffffffffffffffffffffffffffffffffffff1673ffffffffffffffffffffffffffffffffffffffff16815260200190815260200160002060008282546132179190615f09565b925050819055506001600660008473ffffffffffffffffffffffffffffffffffffffff1673ffffffffffffffffffffffffffffffffffffffff168152602001908152602001600020600082825461326e9190615f3d565b92505081905550816005600083815260200190815260200160002060006101000a81548173ffffffffffffffffffffffffffffffffffffffff021916908373ffffffffffffffffffffffffffffffffffffffff160217905550808273ffffffffffffffffffffffffffffffffffffffff168473ffffffffffffffffffffffffffffffffffffffff167fddf252ad1be2c89b69c2b068fc378daa952ba7f163c4a11628f55a4df523b3ef60405160405180910390a461332d838383613a97565b505050565b61334361333d612d23565b86612fed565b613382576040517f08c379a00000000000000000000000000000000000000000000000000000000081526004016133799061558d565b60405180910390fd5b61338e88888888613a9c565b600086866040516020016133a3929190615f93565b60405160208183030381529060405290506134058882878787878080601f016020809104026020016040519081016040528093929190818152602001838380828437600081840152601f19601f82011690508083019250505050505050613aab565b60007f000000000000000000000000000000000000000000000000000000000000000073ffffffffffffffffffffffffffffffffffffffff16637a1457488a306040518363ffffffff1660e01b8152600401613462929190615fc3565b60206040518083038186803b15801561347a57600080fd5b505afa15801561348e573d6000803e3d6000fd5b505050506040513d601f19601f820116820180604052508101906134b29190616001565b9050876040516134c291906159db565b60405180910390208961ffff168b73ffffffffffffffffffffffffffffffffffffffff167f024797cc77ce15dc717112d54fb1df125fdfd8c81344fb046c5e074427ce15438a8560405161351792919061602e565b60405180910390a461352b8a8a8a8a613bcd565b50505050505050505050565b613542848483613bd3565b60008082806020019051810190613559919061606c565b91509150600060148301519050613571878284613bd8565b7fd4d39d20f72eabd06c301e516d54653dfc9116de62c1d54bf1cb48cf3b42a7db878284886040516135a694939291906160c8565b60405180910390a150505050505050565b60008060009054906101000a900473ffffffffffffffffffffffffffffffffffffffff169050816000806101000a81548173ffffffffffffffffffffffffffffffffffffffff021916908373ffffffffffffffffffffffffffffffffffffffff1602179055508173ffffffffffffffffffffffffffffffffffffffff168173ffffffffffffffffffffffffffffffffffffffff167f8be0079c531659141344cd1fd0a4f28419497f9722a3daafe3b4186f6b6457e060405160405180910390a35050565b8173ffffffffffffffffffffffffffffffffffffffff168373ffffffffffffffffffffffffffffffffffffffff1614156136ea576040517f08c379a00000000000000000000000000000000000000000000000000000000081526004016136e190616159565b60405180910390fd5b80600860008573ffffffffffffffffffffffffffffffffffffffff1673ffffffffffffffffffffffffffffffffffffffff16815260200190815260200160002060008473ffffffffffffffffffffffffffffffffffffffff1673ffffffffffffffffffffffffffffffffffffffff16815260200190815260200160002060006101000a81548160ff0219169083151502179055508173ffffffffffffffffffffffffffffffffffffffff168373ffffffffffffffffffffffffffffffffffffffff167f17307eab39ab6107e8899845ad3d59bd9653f200f220920489ca2b5937696c31836040516137db91906144d4565b60405180910390a3505050565b6137f38484846130cb565b6137ff84848484613be7565b61383e576040517f08c379a0000000000000000000000000000000000000000000000000000000008152600401613835906161eb565b60405180910390fd5b50505050565b6060600980546138539061504b565b80601f016020809104026020016040519081016040528092919081815260200182805461387f9061504b565b80156138cc5780601f106138a1576101008083540402835291602001916138cc565b820191906000526020600020905b8154815290600101906020018083116138af57829003601f168201915b5050505050905090565b6060600082141561391e576040518060400160405280600181526020017f30000000000000000000000000000000000000000000000000000000000000008152509050613a32565b600082905060005b60008214613950578080613939906154d2565b915050600a82613949919061623a565b9150613926565b60008167ffffffffffffffff81111561396c5761396b61422a565b5b6040519080825280601f01601f19166020018201604052801561399e5781602001600182028036833780820191505090505b5090505b60008514613a2b576001826139b79190615f09565b9150600a856139c6919061626b565b60306139d29190615f3d565b60f81b8183815181106139e8576139e7615685565b5b60200101907effffffffffffffffffffffffffffffffffffffffffffffffffffffffffffff1916908160001a905350600a85613a24919061623a565b94506139a2565b8093505050505b919050565b613a418383613d7e565b613a4e6000848484613be7565b613a8d576040517f08c379a0000000000000000000000000000000000000000000000000000000008152600401613a84906161eb565b60405180910390fd5b505050565b505050565b505050565b613aa581613f58565b50505050565b6000600160008761ffff1661ffff1681526020019081526020016000208054613ad39061504b565b90501415613b16576040517f08c379a0000000000000000000000000000000000000000000000000000000008152600401613b0d9061630e565b60405180910390fd5b7f000000000000000000000000000000000000000000000000000000000000000073ffffffffffffffffffffffffffffffffffffffff1663c58031003487600160008a61ffff1661ffff168152602001908152602001600020888888886040518863ffffffff1660e01b8152600401613b94969594939291906163bd565b6000604051808303818588803b158015613bad57600080fd5b505af1158015613bc1573d6000803e3d6000fd5b50505050505050505050565b50505050565b505050565b613be28282612fcf565b505050565b6000613c088473ffffffffffffffffffffffffffffffffffffffff16614075565b15613d71578373ffffffffffffffffffffffffffffffffffffffff1663150b7a02613c31612d23565b8786866040518563ffffffff1660e01b8152600401613c539493929190616433565b602060405180830381600087803b158015613c6d57600080fd5b505af1925050508015613c9e57506040513d601f19601f82011682018060405250810190613c9b9190616494565b60015b613d21573d8060008114613cce576040519150601f19603f3d011682016040523d82523d6000602084013e613cd3565b606091505b50600081511415613d19576040517f08c379a0000000000000000000000000000000000000000000000000000000008152600401613d10906161eb565b60405180910390fd5b805181602001fd5b63150b7a0260e01b7bffffffffffffffffffffffffffffffffffffffffffffffffffffffff1916817bffffffffffffffffffffffffffffffffffffffffffffffffffffffff191614915050613d76565b600190505b949350505050565b600073ffffffffffffffffffffffffffffffffffffffff168273ffffffffffffffffffffffffffffffffffffffff161415613dee576040517f08c379a0000000000000000000000000000000000000000000000000000000008152600401613de59061650d565b60405180910390fd5b613df781612eaa565b15613e37576040517f08c379a0000000000000000000000000000000000000000000000000000000008152600401613e2e90616579565b60405180910390fd5b613e4360008383613a92565b6001600660008473ffffffffffffffffffffffffffffffffffffffff1673ffffffffffffffffffffffffffffffffffffffff1681526020019081526020016000206000828254613e939190615f3d565b92505081905550816005600083815260200190815260200160002060006101000a81548173ffffffffffffffffffffffffffffffffffffffff021916908373ffffffffffffffffffffffffffffffffffffffff160217905550808273ffffffffffffffffffffffffffffffffffffffff16600073ffffffffffffffffffffffffffffffffffffffff167fddf252ad1be2c89b69c2b068fc378daa952ba7f163c4a11628f55a4df523b3ef60405160405180910390a4613f5460008383613a97565b5050565b6000613f6382611c5b565b9050613f7181600084613a92565b613f7c600083612f16565b6001600660008373ffffffffffffffffffffffffffffffffffffffff1673ffffffffffffffffffffffffffffffffffffffff1681526020019081526020016000206000828254613fcc9190615f09565b925050819055506005600083815260200190815260200160002060006101000a81549073ffffffffffffffffffffffffffffffffffffffff021916905581600073ffffffffffffffffffffffffffffffffffffffff168273ffffffffffffffffffffffffffffffffffffffff167fddf252ad1be2c89b69c2b068fc378daa952ba7f163c4a11628f55a4df523b3ef60405160405180910390a461407181600084613a97565b5050565b6000808273ffffffffffffffffffffffffffffffffffffffff163b119050919050565b8280546140a49061504b565b90600052602060002090601f0160209004810192826140c6576000855561410d565b82601f106140df57805160ff191683800117855561410d565b8280016001018555821561410d579182015b8281111561410c5782518255916020019190600101906140f1565b5b50905061411a91906141a4565b5090565b82805461412a9061504b565b90600052602060002090601f01602090048101928261414c5760008555614193565b82601f1061416557803560ff1916838001178555614193565b82800160010185558215614193579182015b82811115614192578235825591602001919060010190614177565b5b5090506141a091906141a4565b5090565b5b808211156141bd5760008160009055506001016141a5565b5090565b6000604051905090565b600080fd5b600080fd5b600061ffff82169050919050565b6141ec816141d5565b81146141f757600080fd5b50565b600081359050614209816141e3565b92915050565b600080fd5b600080fd5b6000601f19601f8301169050919050565b7f4e487b7100000000000000000000000000000000000000000000000000000000600052604160045260246000fd5b61426282614219565b810181811067ffffffffffffffff821117156142815761428061422a565b5b80604052505050565b60006142946141c1565b90506142a08282614259565b919050565b600067ffffffffffffffff8211156142c0576142bf61422a565b5b6142c982614219565b9050602081019050919050565b82818337600083830152505050565b60006142f86142f3846142a5565b61428a565b90508281526020810184848401111561431457614313614214565b5b61431f8482856142d6565b509392505050565b600082601f83011261433c5761433b61420f565b5b813561434c8482602086016142e5565b91505092915050565b600067ffffffffffffffff82169050919050565b61437281614355565b811461437d57600080fd5b50565b60008135905061438f81614369565b92915050565b600080600080608085870312156143af576143ae6141cb565b5b60006143bd878288016141fa565b945050602085013567ffffffffffffffff8111156143de576143dd6141d0565b5b6143ea87828801614327565b93505060406143fb87828801614380565b925050606085013567ffffffffffffffff81111561441c5761441b6141d0565b5b61442887828801614327565b91505092959194509250565b60007fffffffff0000000000000000000000000000000000000000000000000000000082169050919050565b61446981614434565b811461447457600080fd5b50565b60008135905061448681614460565b92915050565b6000602082840312156144a2576144a16141cb565b5b60006144b084828501614477565b91505092915050565b60008115159050919050565b6144ce816144b9565b82525050565b60006020820190506144e960008301846144c5565b92915050565b6144f8816144b9565b811461450357600080fd5b50565b600081359050614515816144ef565b92915050565b600060208284031215614531576145306141cb565b5b600061453f84828501614506565b91505092915050565b600081519050919050565b600082825260208201905092915050565b60005b83811015614582578082015181840152602081019050614567565b83811115614591576000848401525b50505050565b60006145a282614548565b6145ac8185614553565b93506145bc818560208601614564565b6145c581614219565b840191505092915050565b600060208201905081810360008301526145ea8184614597565b905092915050565b600060208284031215614608576146076141cb565b5b6000614616848285016141fa565b91505092915050565b6000819050919050565b6146328161461f565b811461463d57600080fd5b50565b60008135905061464f81614629565b92915050565b60006020828403121561466b5761466a6141cb565b5b600061467984828501614640565b91505092915050565b600073ffffffffffffffffffffffffffffffffffffffff82169050919050565b60006146ad82614682565b9050919050565b6146bd816146a2565b82525050565b60006020820190506146d860008301846146b4565b92915050565b6146e7816146a2565b81146146f257600080fd5b50565b600081359050614704816146de565b92915050565b60008060408385031215614721576147206141cb565b5b600061472f858286016146f5565b925050602061474085828601614640565b9150509250929050565b6147538161461f565b82525050565b600060208201905061476e600083018461474a565b92915050565b60008060006060848603121561478d5761478c6141cb565b5b600061479b868287016146f5565b93505060206147ac868287016146f5565b92505060406147bd86828701614640565b9150509250925092565b6000602082840312156147dd576147dc6141cb565b5b60006147eb848285016146f5565b91505092915050565b600080fd5b600080fd5b60008083601f8401126148145761481361420f565b5b8235905067ffffffffffffffff811115614831576148306147f4565b5b60208301915083600182028301111561484d5761484c6147f9565b5b9250929050565b60008060006040848603121561486d5761486c6141cb565b5b600061487b868287016141fa565b935050602084013567ffffffffffffffff81111561489c5761489b6141d0565b5b6148a8868287016147fe565b92509250509250925092565b60006148bf82614682565b9050919050565b6148cf816148b4565b81146148da57600080fd5b50565b6000813590506148ec816148c6565b92915050565b600080600080600080600080600060e08a8c031215614914576149136141cb565b5b60006149228c828d016146f5565b99505060206149338c828d016141fa565b98505060408a013567ffffffffffffffff811115614954576149536141d0565b5b6149608c828d016147fe565b975097505060606149738c828d01614640565b95505060806149848c828d016148dd565b94505060a06149958c828d016146f5565b93505060c08a013567ffffffffffffffff8111156149b6576149b56141d0565b5b6149c28c828d016147fe565b92509250509295985092959850929598565b600067ffffffffffffffff8211156149ef576149ee61422a565b5b602082029050919050565b6000614a0d614a08846149d4565b61428a565b90508060208402830185811115614a2757614a266147f9565b5b835b81811015614a505780614a3c88826146f5565b845260208401935050602081019050614a29565b5050509392505050565b600082601f830112614a6f57614a6e61420f565b5b6064614a7c8482856149fa565b91505092915050565b6000610c808284031215614a9c57614a9b6141cb565b5b6000614aaa84828501614a5a565b91505092915050565b600067ffffffffffffffff821115614ace57614acd61422a565b5b614ad782614219565b9050602081019050919050565b6000614af7614af284614ab3565b61428a565b905082815260208101848484011115614b1357614b12614214565b5b614b1e8482856142d6565b509392505050565b600082601f830112614b3b57614b3a61420f565b5b8135614b4b848260208601614ae4565b91505092915050565b600060208284031215614b6a57614b696141cb565b5b600082013567ffffffffffffffff811115614b8857614b876141d0565b5b614b9484828501614b26565b91505092915050565b600081519050919050565b600082825260208201905092915050565b6000614bc482614b9d565b614bce8185614ba8565b9350614bde818560208601614564565b614be781614219565b840191505092915050565b60006020820190508181036000830152614c0c8184614bb9565b905092915050565b600080600060608486031215614c2d57614c2c6141cb565b5b6000614c3b868287016141fa565b935050602084013567ffffffffffffffff811115614c5c57614c5b6141d0565b5b614c6886828701614327565b9250506040614c7986828701614640565b9150509250925092565b6000819050919050565b614c9681614c83565b82525050565b6000602082019050614cb16000830184614c8d565b92915050565b60008060408385031215614cce57614ccd6141cb565b5b6000614cdc858286016146f5565b9250506020614ced85828601614506565b9150509250929050565b60008060008060808587031215614d1157614d106141cb565b5b6000614d1f878288016146f5565b9450506020614d30878288016146f5565b9350506040614d4187828801614640565b925050606085013567ffffffffffffffff811115614d6257614d616141d0565b5b614d6e87828801614327565b91505092959194509250565b600080600080600060808688031215614d9657614d956141cb565b5b6000614da4888289016141fa565b9550506020614db5888289016141fa565b9450506040614dc688828901614640565b935050606086013567ffffffffffffffff811115614de757614de66141d0565b5b614df3888289016147fe565b92509250509295509295909350565b600080600080600060808688031215614e1e57614e1d6141cb565b5b6000614e2c888289016141fa565b955050602086013567ffffffffffffffff811115614e4d57614e4c6141d0565b5b614e5988828901614327565b9450506040614e6a88828901614380565b935050606086013567ffffffffffffffff811115614e8b57614e8a6141d0565b5b614e97888289016147fe565b92509250509295509295909350565b60008060408385031215614ebd57614ebc6141cb565b5b6000614ecb858286016146f5565b9250506020614edc858286016146f5565b9150509250929050565b60008060008060008060008060c0898b031215614f0657614f056141cb565b5b6000614f148b828c016141fa565b985050602089013567ffffffffffffffff811115614f3557614f346141d0565b5b614f418b828c016147fe565b97509750506040614f548b828c01614640565b9550506060614f658b828c016148dd565b9450506080614f768b828c016146f5565b93505060a089013567ffffffffffffffff811115614f9757614f966141d0565b5b614fa38b828c016147fe565b92509250509295985092959890939650565b60008060008060808587031215614fcf57614fce6141cb565b5b6000614fdd878288016141fa565b9450506020614fee878288016141fa565b9350506040614fff878288016146f5565b925050606061501087828801614640565b91505092959194509250565b7f4e487b7100000000000000000000000000000000000000000000000000000000600052602260045260246000fd5b6000600282049050600182168061506357607f821691505b602082108114156150775761507661501c565b5b50919050565b600081905092915050565b60008190508160005260206000209050919050565b600081546150aa8161504b565b6150b4818661507d565b945060018216600081146150cf57600181146150e057615113565b60ff19831686528186019350615113565b6150e985615088565b60005b8381101561510b578154818901526001820191506020810190506150ec565b838801955050505b50505092915050565b6000615128828461509d565b915081905092915050565b7f4c7a52656365697665723a20696e76616c696420736f757263652073656e646960008201527f6e6720636f6e7472616374000000000000000000000000000000000000000000602082015250565b600061518f602b83614553565b915061519a82615133565b604082019050919050565b600060208201905081810360008301526151be81615182565b9050919050565b7f4f776e61626c653a2063616c6c6572206973206e6f7420746865206f776e6572600082015250565b60006151fb602083614553565b9150615206826151c5565b602082019050919050565b6000602082019050818103600083015261522a816151ee565b9050919050565b61523a816141d5565b82525050565b60006020820190506152556000830184615231565b92915050565b7f4552433732313a20617070726f76656420717565727920666f72206e6f6e657860008201527f697374656e7420746f6b656e0000000000000000000000000000000000000000602082015250565b60006152b7602c83614553565b91506152c28261525b565b604082019050919050565b600060208201905081810360008301526152e6816152aa565b9050919050565b7f4552433732313a20617070726f76616c20746f2063757272656e74206f776e6560008201527f7200000000000000000000000000000000000000000000000000000000000000602082015250565b6000615349602183614553565b9150615354826152ed565b604082019050919050565b600060208201905081810360008301526153788161533c565b9050919050565b7f4552433732313a20617070726f76652063616c6c6572206973206e6f74206f7760008201527f6e6572206e6f7220617070726f76656420666f7220616c6c0000000000000000602082015250565b60006153db603883614553565b91506153e68261537f565b604082019050919050565b6000602082019050818103600083015261540a816153ce565b9050919050565b7f47656e746c6520446f67676965733a204d6178204d696e74206c696d6974207260008201527f6561636865640000000000000000000000000000000000000000000000000000602082015250565b600061546d602683614553565b915061547882615411565b604082019050919050565b6000602082019050818103600083015261549c81615460565b9050919050565b7f4e487b7100000000000000000000000000000000000000000000000000000000600052601160045260246000fd5b60006154dd8261461f565b91507fffffffffffffffffffffffffffffffffffffffffffffffffffffffffffffffff8214156155105761550f6154a3565b5b600182019050919050565b7f4552433732313a207472616e736665722063616c6c6572206973206e6f74206f60008201527f776e6572206e6f7220617070726f766564000000000000000000000000000000602082015250565b6000615577603183614553565b91506155828261551b565b604082019050919050565b600060208201905081810360008301526155a68161556a565b9050919050565b50565b60006155bd60008361507d565b91506155c8826155ad565b600082019050919050565b60006155de826155b0565b9150819050919050565b60006155f4838561507d565b93506156018385846142d6565b82840190509392505050565b600061561a8284866155e8565b91508190509392505050565b60006156328385614ba8565b935061563f8385846142d6565b61564883614219565b840190509392505050565b60006040820190506156686000830186615231565b818103602083015261567b818486615626565b9050949350505050565b7f4e487b7100000000000000000000000000000000000000000000000000000000600052603260045260246000fd5b7f4552433732313a206f776e657220717565727920666f72206e6f6e657869737460008201527f656e7420746f6b656e0000000000000000000000000000000000000000000000602082015250565b6000615710602983614553565b915061571b826156b4565b604082019050919050565b6000602082019050818103600083015261573f81615703565b9050919050565b7f4c7a52656365697665723a2063616c6c6572206d75737420626520427269646760008201527f652e000000000000000000000000000000000000000000000000000000000000602082015250565b60006157a2602283614553565b91506157ad82615746565b604082019050919050565b600060208201905081810360008301526157d181615795565b9050919050565b7f4552433732313a2062616c616e636520717565727920666f7220746865207a6560008201527f726f206164647265737300000000000000000000000000000000000000000000602082015250565b6000615834602a83614553565b915061583f826157d8565b604082019050919050565b6000602082019050818103600083015261586381615827565b9050919050565b7f4552433732314d657461646174613a2055524920717565727920666f72206e6f60008201527f6e6578697374656e7420746f6b656e0000000000000000000000000000000000602082015250565b60006158c6602f83614553565b91506158d18261586a565b604082019050919050565b600060208201905081810360008301526158f5816158b9565b9050919050565b600081905092915050565b600061591282614548565b61591c81856158fc565b935061592c818560208601614564565b80840191505092915050565b60006159448285615907565b91506159508284615907565b91508190509392505050565b60006080820190506159716000830188615231565b61597e6020830187615231565b61598b604083018661474a565b818103606083015261599e818486615626565b90509695505050505050565b60006159b582614b9d565b6159bf818561507d565b93506159cf818560208601614564565b80840191505092915050565b60006159e782846159aa565b915081905092915050565b7f4c7a52656365697665723a206e6f2073746f726564206d657373616765000000600082015250565b6000615a28601d83614553565b9150615a33826159f2565b602082019050919050565b60006020820190508181036000830152615a5781615a1b565b9050919050565b7f4c7a52656365697665723a20696e76616c6964207061796c6f61640000000000600082015250565b6000615a94601b83614553565b9150615a9f82615a5e565b602082019050919050565b60006020820190508181036000830152615ac381615a87565b9050919050565b615ad381614355565b82525050565b6000608082019050615aee6000830188615231565b8181036020830152615b008187614bb9565b9050615b0f6040830186615aca565b8181036060830152615b22818486615626565b90509695505050505050565b7f4f776e61626c653a206e6577206f776e657220697320746865207a65726f206160008201527f6464726573730000000000000000000000000000000000000000000000000000602082015250565b6000615b8a602683614553565b9150615b9582615b2e565b604082019050919050565b60006020820190508181036000830152615bb981615b7d565b9050919050565b600081519050615bcf816141e3565b92915050565b600060208284031215615beb57615bea6141cb565b5b6000615bf984828501615bc0565b91505092915050565b6000608082019050615c176000830187615231565b615c246020830186615231565b615c3160408301856146b4565b615c3e606083018461474a565b95945050505050565b6000615c5a615c55846142a5565b61428a565b905082815260208101848484011115615c7657615c75614214565b5b615c81848285614564565b509392505050565b600082601f830112615c9e57615c9d61420f565b5b8151615cae848260208601615c47565b91505092915050565b600060208284031215615ccd57615ccc6141cb565b5b600082015167ffffffffffffffff811115615ceb57615cea6141d0565b5b615cf784828501615c89565b91505092915050565b6000608082019050615d156000830187615231565b8181036020830152615d278186614bb9565b9050615d366040830185615aca565b8181036060830152615d488184614bb9565b905095945050505050565b7f4552433732313a206f70657261746f7220717565727920666f72206e6f6e657860008201527f697374656e7420746f6b656e0000000000000000000000000000000000000000602082015250565b6000615daf602c83614553565b9150615dba82615d53565b604082019050919050565b60006020820190508181036000830152615dde81615da2565b9050919050565b7f4552433732313a207472616e736665722066726f6d20696e636f72726563742060008201527f6f776e6572000000000000000000000000000000000000000000000000000000602082015250565b6000615e41602583614553565b9150615e4c82615de5565b604082019050919050565b60006020820190508181036000830152615e7081615e34565b9050919050565b7f4552433732313a207472616e7366657220746f20746865207a65726f2061646460008201527f7265737300000000000000000000000000000000000000000000000000000000602082015250565b6000615ed3602483614553565b9150615ede82615e77565b604082019050919050565b60006020820190508181036000830152615f0281615ec6565b9050919050565b6000615f148261461f565b9150615f1f8361461f565b925082821015615f3257615f316154a3565b5b828203905092915050565b6000615f488261461f565b9150615f538361461f565b9250827fffffffffffffffffffffffffffffffffffffffffffffffffffffffffffffffff03821115615f8857615f876154a3565b5b828201905092915050565b60006040820190508181036000830152615fad8185614bb9565b9050615fbc602083018461474a565b9392505050565b6000604082019050615fd86000830185615231565b615fe560208301846146b4565b9392505050565b600081519050615ffb81614369565b92915050565b600060208284031215616017576160166141cb565b5b600061602584828501615fec565b91505092915050565b6000604082019050616043600083018561474a565b6160506020830184615aca565b9392505050565b60008151905061606681614629565b92915050565b60008060408385031215616083576160826141cb565b5b600083015167ffffffffffffffff8111156160a1576160a06141d0565b5b6160ad85828601615c89565b92505060206160be85828601616057565b9150509250929050565b60006080820190506160dd6000830187615231565b6160ea60208301866146b4565b6160f7604083018561474a565b6161046060830184615aca565b95945050505050565b7f4552433732313a20617070726f766520746f2063616c6c657200000000000000600082015250565b6000616143601983614553565b915061614e8261610d565b602082019050919050565b6000602082019050818103600083015261617281616136565b9050919050565b7f4552433732313a207472616e7366657220746f206e6f6e20455243373231526560008201527f63656976657220696d706c656d656e7465720000000000000000000000000000602082015250565b60006161d5603283614553565b91506161e082616179565b604082019050919050565b60006020820190508181036000830152616204816161c8565b9050919050565b7f4e487b7100000000000000000000000000000000000000000000000000000000600052601260045260246000fd5b60006162458261461f565b91506162508361461f565b9250826162605761625f61620b565b5b828204905092915050565b60006162768261461f565b91506162818361461f565b9250826162915761629061620b565b5b828206905092915050565b7f4c7a53656e643a2064657374696e6174696f6e20636861696e206973206e6f7460008201527f2061207472757374656420736f757263652e0000000000000000000000000000602082015250565b60006162f8603283614553565b91506163038261629c565b604082019050919050565b60006020820190508181036000830152616327816162eb565b9050919050565b6000815461633b8161504b565b6163458186614ba8565b945060018216600081146163605760018114616372576163a5565b60ff19831686526020860193506163a5565b61637b85615088565b60005b8381101561639d5781548189015260018201915060208101905061637e565b808801955050505b50505092915050565b6163b7816148b4565b82525050565b600060c0820190506163d26000830189615231565b81810360208301526163e4818861632e565b905081810360408301526163f88187614bb9565b905061640760608301866163ae565b61641460808301856146b4565b81810360a08301526164268184614bb9565b9050979650505050505050565b600060808201905061644860008301876146b4565b61645560208301866146b4565b616462604083018561474a565b81810360608301526164748184614bb9565b905095945050505050565b60008151905061648e81614460565b92915050565b6000602082840312156164aa576164a96141cb565b5b60006164b88482850161647f565b91505092915050565b7f4552433732313a206d696e7420746f20746865207a65726f2061646472657373600082015250565b60006164f7602083614553565b9150616502826164c1565b602082019050919050565b60006020820190508181036000830152616526816164ea565b9050919050565b7f4552433732313a20746f6b656e20616c7265616479206d696e74656400000000600082015250565b6000616563601c83614553565b915061656e8261652d565b602082019050919050565b6000602082019050818103600083015261659281616556565b905091905056fea26469706673582212204e4fd2edbb465be434e2242c5e4532834e71383930ee20a7508fb77958b4bcc164736f6c63430008090033",
			"opcodes": "PUSH1 0xC0 PUSH1 0x40 MSTORE PUSH7 0xB1A2BC2EC50000 PUSH1 0xE SSTORE PUSH7 0x6A94D74F430000 PUSH1 0xF SSTORE PUSH2 0x3E8 PUSH1 0x10 SSTORE PUSH1 0x1 PUSH1 0x11 SSTORE PUSH1 0x0 PUSH1 0x12 PUSH1 0x0 PUSH2 0x100 EXP DUP2 SLOAD DUP2 PUSH1 0xFF MUL NOT AND SWAP1 DUP4 ISZERO ISZERO MUL OR SWAP1 SSTORE POP CALLVALUE DUP1 ISZERO PUSH3 0x4D JUMPI PUSH1 0x0 DUP1 REVERT JUMPDEST POP PUSH1 0x40 MLOAD PUSH3 0x6C47 CODESIZE SUB DUP1 PUSH3 0x6C47 DUP4 CODECOPY DUP2 DUP2 ADD PUSH1 0x40 MSTORE DUP2 ADD SWAP1 PUSH3 0x73 SWAP2 SWAP1 PUSH3 0x4E8 JUMP JUMPDEST DUP5 DUP5 DUP5 DUP3 DUP3 DUP3 DUP1 PUSH3 0x9A PUSH3 0x8E PUSH3 0x12F PUSH1 0x20 SHL PUSH1 0x20 SHR JUMP JUMPDEST PUSH3 0x137 PUSH1 0x20 SHL PUSH1 0x20 SHR JUMP JUMPDEST DUP1 PUSH20 0xFFFFFFFFFFFFFFFFFFFFFFFFFFFFFFFFFFFFFFFF AND PUSH1 0x80 DUP2 PUSH20 0xFFFFFFFFFFFFFFFFFFFFFFFFFFFFFFFFFFFFFFFF AND DUP2 MSTORE POP POP POP POP DUP2 PUSH1 0x3 SWAP1 DUP1 MLOAD SWAP1 PUSH1 0x20 ADD SWAP1 PUSH3 0xE8 SWAP3 SWAP2 SWAP1 PUSH3 0x1FB JUMP JUMPDEST POP DUP1 PUSH1 0x4 SWAP1 DUP1 MLOAD SWAP1 PUSH1 0x20 ADD SWAP1 PUSH3 0x101 SWAP3 SWAP2 SWAP1 PUSH3 0x1FB JUMP JUMPDEST POP POP POP POP POP POP DUP2 PUSH1 0xA DUP2 SWAP1 SSTORE POP DUP1 PUSH1 0xA0 DUP2 DUP2 MSTORE POP POP DUP2 PUSH1 0xB DUP2 SWAP1 SSTORE POP DUP1 PUSH1 0xC DUP2 SWAP1 SSTORE POP POP POP POP POP POP PUSH3 0x613 JUMP JUMPDEST PUSH1 0x0 CALLER SWAP1 POP SWAP1 JUMP JUMPDEST PUSH1 0x0 DUP1 PUSH1 0x0 SWAP1 SLOAD SWAP1 PUSH2 0x100 EXP SWAP1 DIV PUSH20 0xFFFFFFFFFFFFFFFFFFFFFFFFFFFFFFFFFFFFFFFF AND SWAP1 POP DUP2 PUSH1 0x0 DUP1 PUSH2 0x100 EXP DUP2 SLOAD DUP2 PUSH20 0xFFFFFFFFFFFFFFFFFFFFFFFFFFFFFFFFFFFFFFFF MUL NOT AND SWAP1 DUP4 PUSH20 0xFFFFFFFFFFFFFFFFFFFFFFFFFFFFFFFFFFFFFFFF AND MUL OR SWAP1 SSTORE POP DUP2 PUSH20 0xFFFFFFFFFFFFFFFFFFFFFFFFFFFFFFFFFFFFFFFF AND DUP2 PUSH20 0xFFFFFFFFFFFFFFFFFFFFFFFFFFFFFFFFFFFFFFFF AND PUSH32 0x8BE0079C531659141344CD1FD0A4F28419497F9722A3DAAFE3B4186F6B6457E0 PUSH1 0x40 MLOAD PUSH1 0x40 MLOAD DUP1 SWAP2 SUB SWAP1 LOG3 POP POP JUMP JUMPDEST DUP3 DUP1 SLOAD PUSH3 0x209 SWAP1 PUSH3 0x5DD JUMP JUMPDEST SWAP1 PUSH1 0x0 MSTORE PUSH1 0x20 PUSH1 0x0 KECCAK256 SWAP1 PUSH1 0x1F ADD PUSH1 0x20 SWAP1 DIV DUP2 ADD SWAP3 DUP3 PUSH3 0x22D JUMPI PUSH1 0x0 DUP6 SSTORE PUSH3 0x279 JUMP JUMPDEST DUP3 PUSH1 0x1F LT PUSH3 0x248 JUMPI DUP1 MLOAD PUSH1 0xFF NOT AND DUP4 DUP1 ADD OR DUP6 SSTORE PUSH3 0x279 JUMP JUMPDEST DUP3 DUP1 ADD PUSH1 0x1 ADD DUP6 SSTORE DUP3 ISZERO PUSH3 0x279 JUMPI SWAP2 DUP3 ADD JUMPDEST DUP3 DUP2 GT ISZERO PUSH3 0x278 JUMPI DUP3 MLOAD DUP3 SSTORE SWAP2 PUSH1 0x20 ADD SWAP2 SWAP1 PUSH1 0x1 ADD SWAP1 PUSH3 0x25B JUMP JUMPDEST JUMPDEST POP SWAP1 POP PUSH3 0x288 SWAP2 SWAP1 PUSH3 0x28C JUMP JUMPDEST POP SWAP1 JUMP JUMPDEST JUMPDEST DUP1 DUP3 GT ISZERO PUSH3 0x2A7 JUMPI PUSH1 0x0 DUP2 PUSH1 0x0 SWAP1 SSTORE POP PUSH1 0x1 ADD PUSH3 0x28D JUMP JUMPDEST POP SWAP1 JUMP JUMPDEST PUSH1 0x0 PUSH1 0x40 MLOAD SWAP1 POP SWAP1 JUMP JUMPDEST PUSH1 0x0 DUP1 REVERT JUMPDEST PUSH1 0x0 DUP1 REVERT JUMPDEST PUSH1 0x0 DUP1 REVERT JUMPDEST PUSH1 0x0 DUP1 REVERT JUMPDEST PUSH1 0x0 PUSH1 0x1F NOT PUSH1 0x1F DUP4 ADD AND SWAP1 POP SWAP2 SWAP1 POP JUMP JUMPDEST PUSH32 0x4E487B7100000000000000000000000000000000000000000000000000000000 PUSH1 0x0 MSTORE PUSH1 0x41 PUSH1 0x4 MSTORE PUSH1 0x24 PUSH1 0x0 REVERT JUMPDEST PUSH3 0x314 DUP3 PUSH3 0x2C9 JUMP JUMPDEST DUP2 ADD DUP2 DUP2 LT PUSH8 0xFFFFFFFFFFFFFFFF DUP3 GT OR ISZERO PUSH3 0x336 JUMPI PUSH3 0x335 PUSH3 0x2DA JUMP JUMPDEST JUMPDEST DUP1 PUSH1 0x40 MSTORE POP POP POP JUMP JUMPDEST PUSH1 0x0 PUSH3 0x34B PUSH3 0x2AB JUMP JUMPDEST SWAP1 POP PUSH3 0x359 DUP3 DUP3 PUSH3 0x309 JUMP JUMPDEST SWAP2 SWAP1 POP JUMP JUMPDEST PUSH1 0x0 PUSH8 0xFFFFFFFFFFFFFFFF DUP3 GT ISZERO PUSH3 0x37C JUMPI PUSH3 0x37B PUSH3 0x2DA JUMP JUMPDEST JUMPDEST PUSH3 0x387 DUP3 PUSH3 0x2C9 JUMP JUMPDEST SWAP1 POP PUSH1 0x20 DUP2 ADD SWAP1 POP SWAP2 SWAP1 POP JUMP JUMPDEST PUSH1 0x0 JUMPDEST DUP4 DUP2 LT ISZERO PUSH3 0x3B4 JUMPI DUP1 DUP3 ADD MLOAD DUP2 DUP5 ADD MSTORE PUSH1 0x20 DUP2 ADD SWAP1 POP PUSH3 0x397 JUMP JUMPDEST DUP4 DUP2 GT ISZERO PUSH3 0x3C4 JUMPI PUSH1 0x0 DUP5 DUP5 ADD MSTORE JUMPDEST POP POP POP POP JUMP JUMPDEST PUSH1 0x0 PUSH3 0x3E1 PUSH3 0x3DB DUP5 PUSH3 0x35E JUMP JUMPDEST PUSH3 0x33F JUMP JUMPDEST SWAP1 POP DUP3 DUP2 MSTORE PUSH1 0x20 DUP2 ADD DUP5 DUP5 DUP5 ADD GT ISZERO PUSH3 0x400 JUMPI PUSH3 0x3FF PUSH3 0x2C4 JUMP JUMPDEST JUMPDEST PUSH3 0x40D DUP5 DUP3 DUP6 PUSH3 0x394 JUMP JUMPDEST POP SWAP4 SWAP3 POP POP POP JUMP JUMPDEST PUSH1 0x0 DUP3 PUSH1 0x1F DUP4 ADD SLT PUSH3 0x42D JUMPI PUSH3 0x42C PUSH3 0x2BF JUMP JUMPDEST JUMPDEST DUP2 MLOAD PUSH3 0x43F DUP5 DUP3 PUSH1 0x20 DUP7 ADD PUSH3 0x3CA JUMP JUMPDEST SWAP2 POP POP SWAP3 SWAP2 POP POP JUMP JUMPDEST PUSH1 0x0 PUSH20 0xFFFFFFFFFFFFFFFFFFFFFFFFFFFFFFFFFFFFFFFF DUP3 AND SWAP1 POP SWAP2 SWAP1 POP JUMP JUMPDEST PUSH1 0x0 PUSH3 0x475 DUP3 PUSH3 0x448 JUMP JUMPDEST SWAP1 POP SWAP2 SWAP1 POP JUMP JUMPDEST PUSH3 0x487 DUP2 PUSH3 0x468 JUMP JUMPDEST DUP2 EQ PUSH3 0x493 JUMPI PUSH1 0x0 DUP1 REVERT JUMPDEST POP JUMP JUMPDEST PUSH1 0x0 DUP2 MLOAD SWAP1 POP PUSH3 0x4A7 DUP2 PUSH3 0x47C JUMP JUMPDEST SWAP3 SWAP2 POP POP JUMP JUMPDEST PUSH1 0x0 DUP2 SWAP1 POP SWAP2 SWAP1 POP JUMP JUMPDEST PUSH3 0x4C2 DUP2 PUSH3 0x4AD JUMP JUMPDEST DUP2 EQ PUSH3 0x4CE JUMPI PUSH1 0x0 DUP1 REVERT JUMPDEST POP JUMP JUMPDEST PUSH1 0x0 DUP2 MLOAD SWAP1 POP PUSH3 0x4E2 DUP2 PUSH3 0x4B7 JUMP JUMPDEST SWAP3 SWAP2 POP POP JUMP JUMPDEST PUSH1 0x0 DUP1 PUSH1 0x0 DUP1 PUSH1 0x0 PUSH1 0xA0 DUP7 DUP9 SUB SLT ISZERO PUSH3 0x507 JUMPI PUSH3 0x506 PUSH3 0x2B5 JUMP JUMPDEST JUMPDEST PUSH1 0x0 DUP7 ADD MLOAD PUSH8 0xFFFFFFFFFFFFFFFF DUP2 GT ISZERO PUSH3 0x528 JUMPI PUSH3 0x527 PUSH3 0x2BA JUMP JUMPDEST JUMPDEST PUSH3 0x536 DUP9 DUP3 DUP10 ADD PUSH3 0x415 JUMP JUMPDEST SWAP6 POP POP PUSH1 0x20 DUP7 ADD MLOAD PUSH8 0xFFFFFFFFFFFFFFFF DUP2 GT ISZERO PUSH3 0x55A JUMPI PUSH3 0x559 PUSH3 0x2BA JUMP JUMPDEST JUMPDEST PUSH3 0x568 DUP9 DUP3 DUP10 ADD PUSH3 0x415 JUMP JUMPDEST SWAP5 POP POP PUSH1 0x40 PUSH3 0x57B DUP9 DUP3 DUP10 ADD PUSH3 0x496 JUMP JUMPDEST SWAP4 POP POP PUSH1 0x60 PUSH3 0x58E DUP9 DUP3 DUP10 ADD PUSH3 0x4D1 JUMP JUMPDEST SWAP3 POP POP PUSH1 0x80 PUSH3 0x5A1 DUP9 DUP3 DUP10 ADD PUSH3 0x4D1 JUMP JUMPDEST SWAP2 POP POP SWAP3 SWAP6 POP SWAP3 SWAP6 SWAP1 SWAP4 POP JUMP JUMPDEST PUSH32 0x4E487B7100000000000000000000000000000000000000000000000000000000 PUSH1 0x0 MSTORE PUSH1 0x22 PUSH1 0x4 MSTORE PUSH1 0x24 PUSH1 0x0 REVERT JUMPDEST PUSH1 0x0 PUSH1 0x2 DUP3 DIV SWAP1 POP PUSH1 0x1 DUP3 AND DUP1 PUSH3 0x5F6 JUMPI PUSH1 0x7F DUP3 AND SWAP2 POP JUMPDEST PUSH1 0x20 DUP3 LT DUP2 EQ ISZERO PUSH3 0x60D JUMPI PUSH3 0x60C PUSH3 0x5AE JUMP JUMPDEST JUMPDEST POP SWAP2 SWAP1 POP JUMP JUMPDEST PUSH1 0x80 MLOAD PUSH1 0xA0 MLOAD PUSH2 0x65CF PUSH3 0x678 PUSH1 0x0 CODECOPY PUSH1 0x0 PUSH2 0x253D ADD MSTORE PUSH1 0x0 DUP2 DUP2 PUSH2 0xD22 ADD MSTORE DUP2 DUP2 PUSH2 0x10C7 ADD MSTORE DUP2 DUP2 PUSH2 0x136E ADD MSTORE DUP2 DUP2 PUSH2 0x1843 ADD MSTORE DUP2 DUP2 PUSH2 0x24A3 ADD MSTORE DUP2 DUP2 PUSH2 0x27E2 ADD MSTORE DUP2 DUP2 PUSH2 0x2BBF ADD MSTORE DUP2 DUP2 PUSH2 0x2BFB ADD MSTORE DUP2 DUP2 PUSH2 0x3409 ADD MSTORE PUSH2 0x3B18 ADD MSTORE PUSH2 0x65CF PUSH1 0x0 RETURN INVALID PUSH1 0x80 PUSH1 0x40 MSTORE PUSH1 0x4 CALLDATASIZE LT PUSH2 0x375 JUMPI PUSH1 0x0 CALLDATALOAD PUSH1 0xE0 SHR DUP1 PUSH4 0x66AD5C8A GT PUSH2 0x1D1 JUMPI DUP1 PUSH4 0xC91C0462 GT PUSH2 0x102 JUMPI DUP1 PUSH4 0xDACBCBE2 GT PUSH2 0xA0 JUMPI DUP1 PUSH4 0xED931E17 GT PUSH2 0x6F JUMPI DUP1 PUSH4 0xED931E17 EQ PUSH2 0xC75 JUMPI DUP1 PUSH4 0xEED33CEF EQ PUSH2 0xC9E JUMPI DUP1 PUSH4 0xF2FDE38B EQ PUSH2 0xCBA JUMPI DUP1 PUSH4 0xF5ECBDBC EQ PUSH2 0xCE3 JUMPI PUSH2 0x375 JUMP JUMPDEST DUP1 PUSH4 0xDACBCBE2 EQ PUSH2 0xBB9 JUMPI DUP1 PUSH4 0xE1D4C870 EQ PUSH2 0xBE4 JUMPI DUP1 PUSH4 0xE985E9C5 EQ PUSH2 0xC0F JUMPI DUP1 PUSH4 0xEB8D72B7 EQ PUSH2 0xC4C JUMPI PUSH2 0x375 JUMP JUMPDEST DUP1 PUSH4 0xD1DEBA1F GT PUSH2 0xDC JUMPI DUP1 PUSH4 0xD1DEBA1F EQ PUSH2 0xB0A JUMPI DUP1 PUSH4 0xD547CFB7 EQ PUSH2 0xB26 JUMPI DUP1 PUSH4 0xD5ABEB01 EQ PUSH2 0xB51 JUMPI DUP1 PUSH4 0xD936547E EQ PUSH2 0xB7C JUMPI PUSH2 0x375 JUMP JUMPDEST DUP1 PUSH4 0xC91C0462 EQ PUSH2 0xA9F JUMPI DUP1 PUSH4 0xCBED8B9C EQ PUSH2 0xAB6 JUMPI DUP1 PUSH4 0xD0F62E1B EQ PUSH2 0xADF JUMPI PUSH2 0x375 JUMP JUMPDEST DUP1 PUSH4 0x8EE74912 GT PUSH2 0x16F JUMPI DUP1 PUSH4 0xA22CB465 GT PUSH2 0x149 JUMPI DUP1 PUSH4 0xA22CB465 EQ PUSH2 0x9E7 JUMPI DUP1 PUSH4 0xB2F3E85E EQ PUSH2 0xA10 JUMPI DUP1 PUSH4 0xB88D4FDE EQ PUSH2 0xA39 JUMPI DUP1 PUSH4 0xC87B56DD EQ PUSH2 0xA62 JUMPI PUSH2 0x375 JUMP JUMPDEST DUP1 PUSH4 0x8EE74912 EQ PUSH2 0x956 JUMPI DUP1 PUSH4 0x8FDCF942 EQ PUSH2 0x993 JUMPI DUP1 PUSH4 0x95D89B41 EQ PUSH2 0x9BC JUMPI PUSH2 0x375 JUMP JUMPDEST DUP1 PUSH4 0x70A08231 GT PUSH2 0x1AB JUMPI DUP1 PUSH4 0x70A08231 EQ PUSH2 0x8AE JUMPI DUP1 PUSH4 0x715018A6 EQ PUSH2 0x8EB JUMPI DUP1 PUSH4 0x7F00C7A6 EQ PUSH2 0x902 JUMPI DUP1 PUSH4 0x8DA5CB5B EQ PUSH2 0x92B JUMPI PUSH2 0x375 JUMP JUMPDEST DUP1 PUSH4 0x66AD5C8A EQ PUSH2 0x81D JUMPI DUP1 PUSH4 0x69B41F95 EQ PUSH2 0x846 JUMPI DUP1 PUSH4 0x6AA99DA3 EQ PUSH2 0x883 JUMPI PUSH2 0x375 JUMP JUMPDEST DUP1 PUSH4 0x30CC7AE0 GT PUSH2 0x2AB JUMPI DUP1 PUSH4 0x4A4C560D GT PUSH2 0x249 JUMPI DUP1 PUSH4 0x55F804B3 GT PUSH2 0x223 JUMPI DUP1 PUSH4 0x55F804B3 EQ PUSH2 0x761 JUMPI DUP1 PUSH4 0x5B92AC0D EQ PUSH2 0x78A JUMPI DUP1 PUSH4 0x5C975ABB EQ PUSH2 0x7B5 JUMPI DUP1 PUSH4 0x6352211E EQ PUSH2 0x7E0 JUMPI PUSH2 0x375 JUMP JUMPDEST DUP1 PUSH4 0x4A4C560D EQ PUSH2 0x6F3 JUMPI DUP1 PUSH4 0x51905636 EQ PUSH2 0x71C JUMPI DUP1 PUSH4 0x546857C7 EQ PUSH2 0x738 JUMPI PUSH2 0x375 JUMP JUMPDEST DUP1 PUSH4 0x3D8B38F6 GT PUSH2 0x285 JUMPI DUP1 PUSH4 0x3D8B38F6 EQ PUSH2 0x63B JUMPI DUP1 PUSH4 0x42842E0E EQ PUSH2 0x678 JUMPI DUP1 PUSH4 0x42D65A8D EQ PUSH2 0x6A1 JUMPI DUP1 PUSH4 0x44A0D68A EQ PUSH2 0x6CA JUMPI PUSH2 0x375 JUMP JUMPDEST DUP1 PUSH4 0x30CC7AE0 EQ PUSH2 0x5DD JUMPI DUP1 PUSH4 0x36ECD177 EQ PUSH2 0x606 JUMPI DUP1 PUSH4 0x3CCFD60B EQ PUSH2 0x631 JUMPI PUSH2 0x375 JUMP JUMPDEST DUP1 PUSH4 0x10DDB137 GT PUSH2 0x318 JUMPI DUP1 PUSH4 0x239C70AE GT PUSH2 0x2F2 JUMPI DUP1 PUSH4 0x239C70AE EQ PUSH2 0x521 JUMPI DUP1 PUSH4 0x23B872DD EQ PUSH2 0x54C JUMPI DUP1 PUSH4 0x2A23D07D EQ PUSH2 0x575 JUMPI DUP1 PUSH4 0x30B2264E EQ PUSH2 0x5A0 JUMPI PUSH2 0x375 JUMP JUMPDEST DUP1 PUSH4 0x10DDB137 EQ PUSH2 0x4C3 JUMPI DUP1 PUSH4 0x1249C58B EQ PUSH2 0x4EC JUMPI DUP1 PUSH4 0x13FAEDE6 EQ PUSH2 0x4F6 JUMPI PUSH2 0x375 JUMP JUMPDEST DUP1 PUSH4 0x6FDDE03 GT PUSH2 0x354 JUMPI DUP1 PUSH4 0x6FDDE03 EQ PUSH2 0x409 JUMPI DUP1 PUSH4 0x7E0DB17 EQ PUSH2 0x434 JUMPI DUP1 PUSH4 0x81812FC EQ PUSH2 0x45D JUMPI DUP1 PUSH4 0x95EA7B3 EQ PUSH2 0x49A JUMPI PUSH2 0x375 JUMP JUMPDEST DUP1 PUSH3 0x1D3567 EQ PUSH2 0x37A JUMPI DUP1 PUSH4 0x1FFC9A7 EQ PUSH2 0x3A3 JUMPI DUP1 PUSH4 0x2329A29 EQ PUSH2 0x3E0 JUMPI JUMPDEST PUSH1 0x0 DUP1 REVERT JUMPDEST CALLVALUE DUP1 ISZERO PUSH2 0x386 JUMPI PUSH1 0x0 DUP1 REVERT JUMPDEST POP PUSH2 0x3A1 PUSH1 0x4 DUP1 CALLDATASIZE SUB DUP2 ADD SWAP1 PUSH2 0x39C SWAP2 SWAP1 PUSH2 0x4395 JUMP JUMPDEST PUSH2 0xD20 JUMP JUMPDEST STOP JUMPDEST CALLVALUE DUP1 ISZERO PUSH2 0x3AF JUMPI PUSH1 0x0 DUP1 REVERT JUMPDEST POP PUSH2 0x3CA PUSH1 0x4 DUP1 CALLDATASIZE SUB DUP2 ADD SWAP1 PUSH2 0x3C5 SWAP2 SWAP1 PUSH2 0x448C JUMP JUMPDEST PUSH2 0xE3C JUMP JUMPDEST PUSH1 0x40 MLOAD PUSH2 0x3D7 SWAP2 SWAP1 PUSH2 0x44D4 JUMP JUMPDEST PUSH1 0x40 MLOAD DUP1 SWAP2 SUB SWAP1 RETURN JUMPDEST CALLVALUE DUP1 ISZERO PUSH2 0x3EC JUMPI PUSH1 0x0 DUP1 REVERT JUMPDEST POP PUSH2 0x407 PUSH1 0x4 DUP1 CALLDATASIZE SUB DUP2 ADD SWAP1 PUSH2 0x402 SWAP2 SWAP1 PUSH2 0x451B JUMP JUMPDEST PUSH2 0xF1E JUMP JUMPDEST STOP JUMPDEST CALLVALUE DUP1 ISZERO PUSH2 0x415 JUMPI PUSH1 0x0 DUP1 REVERT JUMPDEST POP PUSH2 0x41E PUSH2 0xFB7 JUMP JUMPDEST PUSH1 0x40 MLOAD PUSH2 0x42B SWAP2 SWAP1 PUSH2 0x45D0 JUMP JUMPDEST PUSH1 0x40 MLOAD DUP1 SWAP2 SUB SWAP1 RETURN JUMPDEST CALLVALUE DUP1 ISZERO PUSH2 0x440 JUMPI PUSH1 0x0 DUP1 REVERT JUMPDEST POP PUSH2 0x45B PUSH1 0x4 DUP1 CALLDATASIZE SUB DUP2 ADD SWAP1 PUSH2 0x456 SWAP2 SWAP1 PUSH2 0x45F2 JUMP JUMPDEST PUSH2 0x1049 JUMP JUMPDEST STOP JUMPDEST CALLVALUE DUP1 ISZERO PUSH2 0x469 JUMPI PUSH1 0x0 DUP1 REVERT JUMPDEST POP PUSH2 0x484 PUSH1 0x4 DUP1 CALLDATASIZE SUB DUP2 ADD SWAP1 PUSH2 0x47F SWAP2 SWAP1 PUSH2 0x4655 JUMP JUMPDEST PUSH2 0x1153 JUMP JUMPDEST PUSH1 0x40 MLOAD PUSH2 0x491 SWAP2 SWAP1 PUSH2 0x46C3 JUMP JUMPDEST PUSH1 0x40 MLOAD DUP1 SWAP2 SUB SWAP1 RETURN JUMPDEST CALLVALUE DUP1 ISZERO PUSH2 0x4A6 JUMPI PUSH1 0x0 DUP1 REVERT JUMPDEST POP PUSH2 0x4C1 PUSH1 0x4 DUP1 CALLDATASIZE SUB DUP2 ADD SWAP1 PUSH2 0x4BC SWAP2 SWAP1 PUSH2 0x470A JUMP JUMPDEST PUSH2 0x11D8 JUMP JUMPDEST STOP JUMPDEST CALLVALUE DUP1 ISZERO PUSH2 0x4CF JUMPI PUSH1 0x0 DUP1 REVERT JUMPDEST POP PUSH2 0x4EA PUSH1 0x4 DUP1 CALLDATASIZE SUB DUP2 ADD SWAP1 PUSH2 0x4E5 SWAP2 SWAP1 PUSH2 0x45F2 JUMP JUMPDEST PUSH2 0x12F0 JUMP JUMPDEST STOP JUMPDEST PUSH2 0x4F4 PUSH2 0x13FA JUMP JUMPDEST STOP JUMPDEST CALLVALUE DUP1 ISZERO PUSH2 0x502 JUMPI PUSH1 0x0 DUP1 REVERT JUMPDEST POP PUSH2 0x50B PUSH2 0x146D JUMP JUMPDEST PUSH1 0x40 MLOAD PUSH2 0x518 SWAP2 SWAP1 PUSH2 0x4759 JUMP JUMPDEST PUSH1 0x40 MLOAD DUP1 SWAP2 SUB SWAP1 RETURN JUMPDEST CALLVALUE DUP1 ISZERO PUSH2 0x52D JUMPI PUSH1 0x0 DUP1 REVERT JUMPDEST POP PUSH2 0x536 PUSH2 0x1473 JUMP JUMPDEST PUSH1 0x40 MLOAD PUSH2 0x543 SWAP2 SWAP1 PUSH2 0x4759 JUMP JUMPDEST PUSH1 0x40 MLOAD DUP1 SWAP2 SUB SWAP1 RETURN JUMPDEST CALLVALUE DUP1 ISZERO PUSH2 0x558 JUMPI PUSH1 0x0 DUP1 REVERT JUMPDEST POP PUSH2 0x573 PUSH1 0x4 DUP1 CALLDATASIZE SUB DUP2 ADD SWAP1 PUSH2 0x56E SWAP2 SWAP1 PUSH2 0x4774 JUMP JUMPDEST PUSH2 0x1479 JUMP JUMPDEST STOP JUMPDEST CALLVALUE DUP1 ISZERO PUSH2 0x581 JUMPI PUSH1 0x0 DUP1 REVERT JUMPDEST POP PUSH2 0x58A PUSH2 0x14D9 JUMP JUMPDEST PUSH1 0x40 MLOAD PUSH2 0x597 SWAP2 SWAP1 PUSH2 0x4759 JUMP JUMPDEST PUSH1 0x40 MLOAD DUP1 SWAP2 SUB SWAP1 RETURN JUMPDEST CALLVALUE DUP1 ISZERO PUSH2 0x5AC JUMPI PUSH1 0x0 DUP1 REVERT JUMPDEST POP PUSH2 0x5C7 PUSH1 0x4 DUP1 CALLDATASIZE SUB DUP2 ADD SWAP1 PUSH2 0x5C2 SWAP2 SWAP1 PUSH2 0x47C7 JUMP JUMPDEST PUSH2 0x14DF JUMP JUMPDEST PUSH1 0x40 MLOAD PUSH2 0x5D4 SWAP2 SWAP1 PUSH2 0x44D4 JUMP JUMPDEST PUSH1 0x40 MLOAD DUP1 SWAP2 SUB SWAP1 RETURN JUMPDEST CALLVALUE DUP1 ISZERO PUSH2 0x5E9 JUMPI PUSH1 0x0 DUP1 REVERT JUMPDEST POP PUSH2 0x604 PUSH1 0x4 DUP1 CALLDATASIZE SUB DUP2 ADD SWAP1 PUSH2 0x5FF SWAP2 SWAP1 PUSH2 0x47C7 JUMP JUMPDEST PUSH2 0x14FF JUMP JUMPDEST STOP JUMPDEST CALLVALUE DUP1 ISZERO PUSH2 0x612 JUMPI PUSH1 0x0 DUP1 REVERT JUMPDEST POP PUSH2 0x61B PUSH2 0x15D6 JUMP JUMPDEST PUSH1 0x40 MLOAD PUSH2 0x628 SWAP2 SWAP1 PUSH2 0x4759 JUMP JUMPDEST PUSH1 0x40 MLOAD DUP1 SWAP2 SUB SWAP1 RETURN JUMPDEST PUSH2 0x639 PUSH2 0x15DC JUMP JUMPDEST STOP JUMPDEST CALLVALUE DUP1 ISZERO PUSH2 0x647 JUMPI PUSH1 0x0 DUP1 REVERT JUMPDEST POP PUSH2 0x662 PUSH1 0x4 DUP1 CALLDATASIZE SUB DUP2 ADD SWAP1 PUSH2 0x65D SWAP2 SWAP1 PUSH2 0x4854 JUMP JUMPDEST PUSH2 0x16D1 JUMP JUMPDEST PUSH1 0x40 MLOAD PUSH2 0x66F SWAP2 SWAP1 PUSH2 0x44D4 JUMP JUMPDEST PUSH1 0x40 MLOAD DUP1 SWAP2 SUB SWAP1 RETURN JUMPDEST CALLVALUE DUP1 ISZERO PUSH2 0x684 JUMPI PUSH1 0x0 DUP1 REVERT JUMPDEST POP PUSH2 0x69F PUSH1 0x4 DUP1 CALLDATASIZE SUB DUP2 ADD SWAP1 PUSH2 0x69A SWAP2 SWAP1 PUSH2 0x4774 JUMP JUMPDEST PUSH2 0x17A5 JUMP JUMPDEST STOP JUMPDEST CALLVALUE DUP1 ISZERO PUSH2 0x6AD JUMPI PUSH1 0x0 DUP1 REVERT JUMPDEST POP PUSH2 0x6C8 PUSH1 0x4 DUP1 CALLDATASIZE SUB DUP2 ADD SWAP1 PUSH2 0x6C3 SWAP2 SWAP1 PUSH2 0x4854 JUMP JUMPDEST PUSH2 0x17C5 JUMP JUMPDEST STOP JUMPDEST CALLVALUE DUP1 ISZERO PUSH2 0x6D6 JUMPI PUSH1 0x0 DUP1 REVERT JUMPDEST POP PUSH2 0x6F1 PUSH1 0x4 DUP1 CALLDATASIZE SUB DUP2 ADD SWAP1 PUSH2 0x6EC SWAP2 SWAP1 PUSH2 0x4655 JUMP JUMPDEST PUSH2 0x18D5 JUMP JUMPDEST STOP JUMPDEST CALLVALUE DUP1 ISZERO PUSH2 0x6FF JUMPI PUSH1 0x0 DUP1 REVERT JUMPDEST POP PUSH2 0x71A PUSH1 0x4 DUP1 CALLDATASIZE SUB DUP2 ADD SWAP1 PUSH2 0x715 SWAP2 SWAP1 PUSH2 0x47C7 JUMP JUMPDEST PUSH2 0x195B JUMP JUMPDEST STOP JUMPDEST PUSH2 0x736 PUSH1 0x4 DUP1 CALLDATASIZE SUB DUP2 ADD SWAP1 PUSH2 0x731 SWAP2 SWAP1 PUSH2 0x48F2 JUMP JUMPDEST PUSH2 0x1A32 JUMP JUMPDEST STOP JUMPDEST CALLVALUE DUP1 ISZERO PUSH2 0x744 JUMPI PUSH1 0x0 DUP1 REVERT JUMPDEST POP PUSH2 0x75F PUSH1 0x4 DUP1 CALLDATASIZE SUB DUP2 ADD SWAP1 PUSH2 0x75A SWAP2 SWAP1 PUSH2 0x4A85 JUMP JUMPDEST PUSH2 0x1A91 JUMP JUMPDEST STOP JUMPDEST CALLVALUE DUP1 ISZERO PUSH2 0x76D JUMPI PUSH1 0x0 DUP1 REVERT JUMPDEST POP PUSH2 0x788 PUSH1 0x4 DUP1 CALLDATASIZE SUB DUP2 ADD SWAP1 PUSH2 0x783 SWAP2 SWAP1 PUSH2 0x4B54 JUMP JUMPDEST PUSH2 0x1B9F JUMP JUMPDEST STOP JUMPDEST CALLVALUE DUP1 ISZERO PUSH2 0x796 JUMPI PUSH1 0x0 DUP1 REVERT JUMPDEST POP PUSH2 0x79F PUSH2 0x1C35 JUMP JUMPDEST PUSH1 0x40 MLOAD PUSH2 0x7AC SWAP2 SWAP1 PUSH2 0x44D4 JUMP JUMPDEST PUSH1 0x40 MLOAD DUP1 SWAP2 SUB SWAP1 RETURN JUMPDEST CALLVALUE DUP1 ISZERO PUSH2 0x7C1 JUMPI PUSH1 0x0 DUP1 REVERT JUMPDEST POP PUSH2 0x7CA PUSH2 0x1C48 JUMP JUMPDEST PUSH1 0x40 MLOAD PUSH2 0x7D7 SWAP2 SWAP1 PUSH2 0x44D4 JUMP JUMPDEST PUSH1 0x40 MLOAD DUP1 SWAP2 SUB SWAP1 RETURN JUMPDEST CALLVALUE DUP1 ISZERO PUSH2 0x7EC JUMPI PUSH1 0x0 DUP1 REVERT JUMPDEST POP PUSH2 0x807 PUSH1 0x4 DUP1 CALLDATASIZE SUB DUP2 ADD SWAP1 PUSH2 0x802 SWAP2 SWAP1 PUSH2 0x4655 JUMP JUMPDEST PUSH2 0x1C5B JUMP JUMPDEST PUSH1 0x40 MLOAD PUSH2 0x814 SWAP2 SWAP1 PUSH2 0x46C3 JUMP JUMPDEST PUSH1 0x40 MLOAD DUP1 SWAP2 SUB SWAP1 RETURN JUMPDEST CALLVALUE DUP1 ISZERO PUSH2 0x829 JUMPI PUSH1 0x0 DUP1 REVERT JUMPDEST POP PUSH2 0x844 PUSH1 0x4 DUP1 CALLDATASIZE SUB DUP2 ADD SWAP1 PUSH2 0x83F SWAP2 SWAP1 PUSH2 0x4395 JUMP JUMPDEST PUSH2 0x1D0D JUMP JUMPDEST STOP JUMPDEST CALLVALUE DUP1 ISZERO PUSH2 0x852 JUMPI PUSH1 0x0 DUP1 REVERT JUMPDEST POP PUSH2 0x86D PUSH1 0x4 DUP1 CALLDATASIZE SUB DUP2 ADD SWAP1 PUSH2 0x868 SWAP2 SWAP1 PUSH2 0x45F2 JUMP JUMPDEST PUSH2 0x1D94 JUMP JUMPDEST PUSH1 0x40 MLOAD PUSH2 0x87A SWAP2 SWAP1 PUSH2 0x4BF2 JUMP JUMPDEST PUSH1 0x40 MLOAD DUP1 SWAP2 SUB SWAP1 RETURN JUMPDEST CALLVALUE DUP1 ISZERO PUSH2 0x88F JUMPI PUSH1 0x0 DUP1 REVERT JUMPDEST POP PUSH2 0x898 PUSH2 0x1E41 JUMP JUMPDEST PUSH1 0x40 MLOAD PUSH2 0x8A5 SWAP2 SWAP1 PUSH2 0x4759 JUMP JUMPDEST PUSH1 0x40 MLOAD DUP1 SWAP2 SUB SWAP1 RETURN JUMPDEST CALLVALUE DUP1 ISZERO PUSH2 0x8BA JUMPI PUSH1 0x0 DUP1 REVERT JUMPDEST POP PUSH2 0x8D5 PUSH1 0x4 DUP1 CALLDATASIZE SUB DUP2 ADD SWAP1 PUSH2 0x8D0 SWAP2 SWAP1 PUSH2 0x47C7 JUMP JUMPDEST PUSH2 0x1E47 JUMP JUMPDEST PUSH1 0x40 MLOAD PUSH2 0x8E2 SWAP2 SWAP1 PUSH2 0x4759 JUMP JUMPDEST PUSH1 0x40 MLOAD DUP1 SWAP2 SUB SWAP1 RETURN JUMPDEST CALLVALUE DUP1 ISZERO PUSH2 0x8F7 JUMPI PUSH1 0x0 DUP1 REVERT JUMPDEST POP PUSH2 0x900 PUSH2 0x1EFF JUMP JUMPDEST STOP JUMPDEST CALLVALUE DUP1 ISZERO PUSH2 0x90E JUMPI PUSH1 0x0 DUP1 REVERT JUMPDEST POP PUSH2 0x929 PUSH1 0x4 DUP1 CALLDATASIZE SUB DUP2 ADD SWAP1 PUSH2 0x924 SWAP2 SWAP1 PUSH2 0x4655 JUMP JUMPDEST PUSH2 0x1F87 JUMP JUMPDEST STOP JUMPDEST CALLVALUE DUP1 ISZERO PUSH2 0x937 JUMPI PUSH1 0x0 DUP1 REVERT JUMPDEST POP PUSH2 0x940 PUSH2 0x200D JUMP JUMPDEST PUSH1 0x40 MLOAD PUSH2 0x94D SWAP2 SWAP1 PUSH2 0x46C3 JUMP JUMPDEST PUSH1 0x40 MLOAD DUP1 SWAP2 SUB SWAP1 RETURN JUMPDEST CALLVALUE DUP1 ISZERO PUSH2 0x962 JUMPI PUSH1 0x0 DUP1 REVERT JUMPDEST POP PUSH2 0x97D PUSH1 0x4 DUP1 CALLDATASIZE SUB DUP2 ADD SWAP1 PUSH2 0x978 SWAP2 SWAP1 PUSH2 0x4C14 JUMP JUMPDEST PUSH2 0x2036 JUMP JUMPDEST PUSH1 0x40 MLOAD PUSH2 0x98A SWAP2 SWAP1 PUSH2 0x4C9C JUMP JUMPDEST PUSH1 0x40 MLOAD DUP1 SWAP2 SUB SWAP1 RETURN JUMPDEST CALLVALUE DUP1 ISZERO PUSH2 0x99F JUMPI PUSH1 0x0 DUP1 REVERT JUMPDEST POP PUSH2 0x9BA PUSH1 0x4 DUP1 CALLDATASIZE SUB DUP2 ADD SWAP1 PUSH2 0x9B5 SWAP2 SWAP1 PUSH2 0x4655 JUMP JUMPDEST PUSH2 0x207E JUMP JUMPDEST STOP JUMPDEST CALLVALUE DUP1 ISZERO PUSH2 0x9C8 JUMPI PUSH1 0x0 DUP1 REVERT JUMPDEST POP PUSH2 0x9D1 PUSH2 0x2104 JUMP JUMPDEST PUSH1 0x40 MLOAD PUSH2 0x9DE SWAP2 SWAP1 PUSH2 0x45D0 JUMP JUMPDEST PUSH1 0x40 MLOAD DUP1 SWAP2 SUB SWAP1 RETURN JUMPDEST CALLVALUE DUP1 ISZERO PUSH2 0x9F3 JUMPI PUSH1 0x0 DUP1 REVERT JUMPDEST POP PUSH2 0xA0E PUSH1 0x4 DUP1 CALLDATASIZE SUB DUP2 ADD SWAP1 PUSH2 0xA09 SWAP2 SWAP1 PUSH2 0x4CB7 JUMP JUMPDEST PUSH2 0x2196 JUMP JUMPDEST STOP JUMPDEST CALLVALUE DUP1 ISZERO PUSH2 0xA1C JUMPI PUSH1 0x0 DUP1 REVERT JUMPDEST POP PUSH2 0xA37 PUSH1 0x4 DUP1 CALLDATASIZE SUB DUP2 ADD SWAP1 PUSH2 0xA32 SWAP2 SWAP1 PUSH2 0x47C7 JUMP JUMPDEST PUSH2 0x21AC JUMP JUMPDEST STOP JUMPDEST CALLVALUE DUP1 ISZERO PUSH2 0xA45 JUMPI PUSH1 0x0 DUP1 REVERT JUMPDEST POP PUSH2 0xA60 PUSH1 0x4 DUP1 CALLDATASIZE SUB DUP2 ADD SWAP1 PUSH2 0xA5B SWAP2 SWAP1 PUSH2 0x4CF7 JUMP JUMPDEST PUSH2 0x2283 JUMP JUMPDEST STOP JUMPDEST CALLVALUE DUP1 ISZERO PUSH2 0xA6E JUMPI PUSH1 0x0 DUP1 REVERT JUMPDEST POP PUSH2 0xA89 PUSH1 0x4 DUP1 CALLDATASIZE SUB DUP2 ADD SWAP1 PUSH2 0xA84 SWAP2 SWAP1 PUSH2 0x4655 JUMP JUMPDEST PUSH2 0x22E5 JUMP JUMPDEST PUSH1 0x40 MLOAD PUSH2 0xA96 SWAP2 SWAP1 PUSH2 0x45D0 JUMP JUMPDEST PUSH1 0x40 MLOAD DUP1 SWAP2 SUB SWAP1 RETURN JUMPDEST CALLVALUE DUP1 ISZERO PUSH2 0xAAB JUMPI PUSH1 0x0 DUP1 REVERT JUMPDEST POP PUSH2 0xAB4 PUSH2 0x238C JUMP JUMPDEST STOP JUMPDEST CALLVALUE DUP1 ISZERO PUSH2 0xAC2 JUMPI PUSH1 0x0 DUP1 REVERT JUMPDEST POP PUSH2 0xADD PUSH1 0x4 DUP1 CALLDATASIZE SUB DUP2 ADD SWAP1 PUSH2 0xAD8 SWAP2 SWAP1 PUSH2 0x4D7A JUMP JUMPDEST PUSH2 0x2425 JUMP JUMPDEST STOP JUMPDEST CALLVALUE DUP1 ISZERO PUSH2 0xAEB JUMPI PUSH1 0x0 DUP1 REVERT JUMPDEST POP PUSH2 0xAF4 PUSH2 0x253B JUMP JUMPDEST PUSH1 0x40 MLOAD PUSH2 0xB01 SWAP2 SWAP1 PUSH2 0x4759 JUMP JUMPDEST PUSH1 0x40 MLOAD DUP1 SWAP2 SUB SWAP1 RETURN JUMPDEST PUSH2 0xB24 PUSH1 0x4 DUP1 CALLDATASIZE SUB DUP2 ADD SWAP1 PUSH2 0xB1F SWAP2 SWAP1 PUSH2 0x4E02 JUMP JUMPDEST PUSH2 0x255F JUMP JUMPDEST STOP JUMPDEST CALLVALUE DUP1 ISZERO PUSH2 0xB32 JUMPI PUSH1 0x0 DUP1 REVERT JUMPDEST POP PUSH2 0xB3B PUSH2 0x272A JUMP JUMPDEST PUSH1 0x40 MLOAD PUSH2 0xB48 SWAP2 SWAP1 PUSH2 0x45D0 JUMP JUMPDEST PUSH1 0x40 MLOAD DUP1 SWAP2 SUB SWAP1 RETURN JUMPDEST CALLVALUE DUP1 ISZERO PUSH2 0xB5D JUMPI PUSH1 0x0 DUP1 REVERT JUMPDEST POP PUSH2 0xB66 PUSH2 0x27B8 JUMP JUMPDEST PUSH1 0x40 MLOAD PUSH2 0xB73 SWAP2 SWAP1 PUSH2 0x4759 JUMP JUMPDEST PUSH1 0x40 MLOAD DUP1 SWAP2 SUB SWAP1 RETURN JUMPDEST CALLVALUE DUP1 ISZERO PUSH2 0xB88 JUMPI PUSH1 0x0 DUP1 REVERT JUMPDEST POP PUSH2 0xBA3 PUSH1 0x4 DUP1 CALLDATASIZE SUB DUP2 ADD SWAP1 PUSH2 0xB9E SWAP2 SWAP1 PUSH2 0x47C7 JUMP JUMPDEST PUSH2 0x27BE JUMP JUMPDEST PUSH1 0x40 MLOAD PUSH2 0xBB0 SWAP2 SWAP1 PUSH2 0x44D4 JUMP JUMPDEST PUSH1 0x40 MLOAD DUP1 SWAP2 SUB SWAP1 RETURN JUMPDEST CALLVALUE DUP1 ISZERO PUSH2 0xBC5 JUMPI PUSH1 0x0 DUP1 REVERT JUMPDEST POP PUSH2 0xBCE PUSH2 0x27DE JUMP JUMPDEST PUSH1 0x40 MLOAD PUSH2 0xBDB SWAP2 SWAP1 PUSH2 0x46C3 JUMP JUMPDEST PUSH1 0x40 MLOAD DUP1 SWAP2 SUB SWAP1 RETURN JUMPDEST CALLVALUE DUP1 ISZERO PUSH2 0xBF0 JUMPI PUSH1 0x0 DUP1 REVERT JUMPDEST POP PUSH2 0xBF9 PUSH2 0x2806 JUMP JUMPDEST PUSH1 0x40 MLOAD PUSH2 0xC06 SWAP2 SWAP1 PUSH2 0x4759 JUMP JUMPDEST PUSH1 0x40 MLOAD DUP1 SWAP2 SUB SWAP1 RETURN JUMPDEST CALLVALUE DUP1 ISZERO PUSH2 0xC1B JUMPI PUSH1 0x0 DUP1 REVERT JUMPDEST POP PUSH2 0xC36 PUSH1 0x4 DUP1 CALLDATASIZE SUB DUP2 ADD SWAP1 PUSH2 0xC31 SWAP2 SWAP1 PUSH2 0x4EA6 JUMP JUMPDEST PUSH2 0x280C JUMP JUMPDEST PUSH1 0x40 MLOAD PUSH2 0xC43 SWAP2 SWAP1 PUSH2 0x44D4 JUMP JUMPDEST PUSH1 0x40 MLOAD DUP1 SWAP2 SUB SWAP1 RETURN JUMPDEST CALLVALUE DUP1 ISZERO PUSH2 0xC58 JUMPI PUSH1 0x0 DUP1 REVERT JUMPDEST POP PUSH2 0xC73 PUSH1 0x4 DUP1 CALLDATASIZE SUB DUP2 ADD SWAP1 PUSH2 0xC6E SWAP2 SWAP1 PUSH2 0x4854 JUMP JUMPDEST PUSH2 0x28A0 JUMP JUMPDEST STOP JUMPDEST CALLVALUE DUP1 ISZERO PUSH2 0xC81 JUMPI PUSH1 0x0 DUP1 REVERT JUMPDEST POP PUSH2 0xC9C PUSH1 0x4 DUP1 CALLDATASIZE SUB DUP2 ADD SWAP1 PUSH2 0xC97 SWAP2 SWAP1 PUSH2 0x47C7 JUMP JUMPDEST PUSH2 0x2987 JUMP JUMPDEST STOP JUMPDEST PUSH2 0xCB8 PUSH1 0x4 DUP1 CALLDATASIZE SUB DUP2 ADD SWAP1 PUSH2 0xCB3 SWAP2 SWAP1 PUSH2 0x4EE6 JUMP JUMPDEST PUSH2 0x2A5E JUMP JUMPDEST STOP JUMPDEST CALLVALUE DUP1 ISZERO PUSH2 0xCC6 JUMPI PUSH1 0x0 DUP1 REVERT JUMPDEST POP PUSH2 0xCE1 PUSH1 0x4 DUP1 CALLDATASIZE SUB DUP2 ADD SWAP1 PUSH2 0xCDC SWAP2 SWAP1 PUSH2 0x47C7 JUMP JUMPDEST PUSH2 0x2AC3 JUMP JUMPDEST STOP JUMPDEST CALLVALUE DUP1 ISZERO PUSH2 0xCEF JUMPI PUSH1 0x0 DUP1 REVERT JUMPDEST POP PUSH2 0xD0A PUSH1 0x4 DUP1 CALLDATASIZE SUB DUP2 ADD SWAP1 PUSH2 0xD05 SWAP2 SWAP1 PUSH2 0x4FB5 JUMP JUMPDEST PUSH2 0x2BBB JUMP JUMPDEST PUSH1 0x40 MLOAD PUSH2 0xD17 SWAP2 SWAP1 PUSH2 0x4BF2 JUMP JUMPDEST PUSH1 0x40 MLOAD DUP1 SWAP2 SUB SWAP1 RETURN JUMPDEST PUSH32 0x0 PUSH20 0xFFFFFFFFFFFFFFFFFFFFFFFFFFFFFFFFFFFFFFFF AND PUSH2 0xD5F PUSH2 0x2D23 JUMP JUMPDEST PUSH20 0xFFFFFFFFFFFFFFFFFFFFFFFFFFFFFFFFFFFFFFFF AND EQ PUSH2 0xD7F JUMPI PUSH1 0x0 DUP1 REVERT JUMPDEST PUSH1 0x1 PUSH1 0x0 DUP6 PUSH2 0xFFFF AND PUSH2 0xFFFF AND DUP2 MSTORE PUSH1 0x20 ADD SWAP1 DUP2 MSTORE PUSH1 0x20 ADD PUSH1 0x0 KECCAK256 DUP1 SLOAD PUSH2 0xDA5 SWAP1 PUSH2 0x504B JUMP JUMPDEST SWAP1 POP DUP4 MLOAD EQ DUP1 ISZERO PUSH2 0xDEB JUMPI POP PUSH1 0x1 PUSH1 0x0 DUP6 PUSH2 0xFFFF AND PUSH2 0xFFFF AND DUP2 MSTORE PUSH1 0x20 ADD SWAP1 DUP2 MSTORE PUSH1 0x20 ADD PUSH1 0x0 KECCAK256 PUSH1 0x40 MLOAD PUSH2 0xDD9 SWAP2 SWAP1 PUSH2 0x511C JUMP JUMPDEST PUSH1 0x40 MLOAD DUP1 SWAP2 SUB SWAP1 KECCAK256 DUP4 DUP1 MLOAD SWAP1 PUSH1 0x20 ADD KECCAK256 EQ JUMPDEST PUSH2 0xE2A JUMPI PUSH1 0x40 MLOAD PUSH32 0x8C379A000000000000000000000000000000000000000000000000000000000 DUP2 MSTORE PUSH1 0x4 ADD PUSH2 0xE21 SWAP1 PUSH2 0x51A5 JUMP JUMPDEST PUSH1 0x40 MLOAD DUP1 SWAP2 SUB SWAP1 REVERT JUMPDEST PUSH2 0xE36 DUP5 DUP5 DUP5 DUP5 PUSH2 0x2D2B JUMP JUMPDEST POP POP POP POP JUMP JUMPDEST PUSH1 0x0 PUSH32 0x80AC58CD00000000000000000000000000000000000000000000000000000000 PUSH28 0xFFFFFFFFFFFFFFFFFFFFFFFFFFFFFFFFFFFFFFFFFFFFFFFFFFFFFFFF NOT AND DUP3 PUSH28 0xFFFFFFFFFFFFFFFFFFFFFFFFFFFFFFFFFFFFFFFFFFFFFFFFFFFFFFFF NOT AND EQ DUP1 PUSH2 0xF07 JUMPI POP PUSH32 0x5B5E139F00000000000000000000000000000000000000000000000000000000 PUSH28 0xFFFFFFFFFFFFFFFFFFFFFFFFFFFFFFFFFFFFFFFFFFFFFFFFFFFFFFFF NOT AND DUP3 PUSH28 0xFFFFFFFFFFFFFFFFFFFFFFFFFFFFFFFFFFFFFFFFFFFFFFFFFFFFFFFF NOT AND EQ JUMPDEST DUP1 PUSH2 0xF17 JUMPI POP PUSH2 0xF16 DUP3 PUSH2 0x2E40 JUMP JUMPDEST JUMPDEST SWAP1 POP SWAP2 SWAP1 POP JUMP JUMPDEST PUSH2 0xF26 PUSH2 0x2D23 JUMP JUMPDEST PUSH20 0xFFFFFFFFFFFFFFFFFFFFFFFFFFFFFFFFFFFFFFFF AND PUSH2 0xF44 PUSH2 0x200D JUMP JUMPDEST PUSH20 0xFFFFFFFFFFFFFFFFFFFFFFFFFFFFFFFFFFFFFFFF AND EQ PUSH2 0xF9A JUMPI PUSH1 0x40 MLOAD PUSH32 0x8C379A000000000000000000000000000000000000000000000000000000000 DUP2 MSTORE PUSH1 0x4 ADD PUSH2 0xF91 SWAP1 PUSH2 0x5211 JUMP JUMPDEST PUSH1 0x40 MLOAD DUP1 SWAP2 SUB SWAP1 REVERT JUMPDEST DUP1 PUSH1 0x12 PUSH1 0x0 PUSH2 0x100 EXP DUP2 SLOAD DUP2 PUSH1 0xFF MUL NOT AND SWAP1 DUP4 ISZERO ISZERO MUL OR SWAP1 SSTORE POP POP JUMP JUMPDEST PUSH1 0x60 PUSH1 0x3 DUP1 SLOAD PUSH2 0xFC6 SWAP1 PUSH2 0x504B JUMP JUMPDEST DUP1 PUSH1 0x1F ADD PUSH1 0x20 DUP1 SWAP2 DIV MUL PUSH1 0x20 ADD PUSH1 0x40 MLOAD SWAP1 DUP2 ADD PUSH1 0x40 MSTORE DUP1 SWAP3 SWAP2 SWAP1 DUP2 DUP2 MSTORE PUSH1 0x20 ADD DUP3 DUP1 SLOAD PUSH2 0xFF2 SWAP1 PUSH2 0x504B JUMP JUMPDEST DUP1 ISZERO PUSH2 0x103F JUMPI DUP1 PUSH1 0x1F LT PUSH2 0x1014 JUMPI PUSH2 0x100 DUP1 DUP4 SLOAD DIV MUL DUP4 MSTORE SWAP2 PUSH1 0x20 ADD SWAP2 PUSH2 0x103F JUMP JUMPDEST DUP3 ADD SWAP2 SWAP1 PUSH1 0x0 MSTORE PUSH1 0x20 PUSH1 0x0 KECCAK256 SWAP1 JUMPDEST DUP2 SLOAD DUP2 MSTORE SWAP1 PUSH1 0x1 ADD SWAP1 PUSH1 0x20 ADD DUP1 DUP4 GT PUSH2 0x1022 JUMPI DUP3 SWAP1 SUB PUSH1 0x1F AND DUP3 ADD SWAP2 JUMPDEST POP POP POP POP POP SWAP1 POP SWAP1 JUMP JUMPDEST PUSH2 0x1051 PUSH2 0x2D23 JUMP JUMPDEST PUSH20 0xFFFFFFFFFFFFFFFFFFFFFFFFFFFFFFFFFFFFFFFF AND PUSH2 0x106F PUSH2 0x200D JUMP JUMPDEST PUSH20 0xFFFFFFFFFFFFFFFFFFFFFFFFFFFFFFFFFFFFFFFF AND EQ PUSH2 0x10C5 JUMPI PUSH1 0x40 MLOAD PUSH32 0x8C379A000000000000000000000000000000000000000000000000000000000 DUP2 MSTORE PUSH1 0x4 ADD PUSH2 0x10BC SWAP1 PUSH2 0x5211 JUMP JUMPDEST PUSH1 0x40 MLOAD DUP1 SWAP2 SUB SWAP1 REVERT JUMPDEST PUSH32 0x0 PUSH20 0xFFFFFFFFFFFFFFFFFFFFFFFFFFFFFFFFFFFFFFFF AND PUSH4 0x7E0DB17 DUP3 PUSH1 0x40 MLOAD DUP3 PUSH4 0xFFFFFFFF AND PUSH1 0xE0 SHL DUP2 MSTORE PUSH1 0x4 ADD PUSH2 0x111E SWAP2 SWAP1 PUSH2 0x5240 JUMP JUMPDEST PUSH1 0x0 PUSH1 0x40 MLOAD DUP1 DUP4 SUB DUP2 PUSH1 0x0 DUP8 DUP1 EXTCODESIZE ISZERO DUP1 ISZERO PUSH2 0x1138 JUMPI PUSH1 0x0 DUP1 REVERT JUMPDEST POP GAS CALL ISZERO DUP1 ISZERO PUSH2 0x114C JUMPI RETURNDATASIZE PUSH1 0x0 DUP1 RETURNDATACOPY RETURNDATASIZE PUSH1 0x0 REVERT JUMPDEST POP POP POP POP POP JUMP JUMPDEST PUSH1 0x0 PUSH2 0x115E DUP3 PUSH2 0x2EAA JUMP JUMPDEST PUSH2 0x119D JUMPI PUSH1 0x40 MLOAD PUSH32 0x8C379A000000000000000000000000000000000000000000000000000000000 DUP2 MSTORE PUSH1 0x4 ADD PUSH2 0x1194 SWAP1 PUSH2 0x52CD JUMP JUMPDEST PUSH1 0x40 MLOAD DUP1 SWAP2 SUB SWAP1 REVERT JUMPDEST PUSH1 0x7 PUSH1 0x0 DUP4 DUP2 MSTORE PUSH1 0x20 ADD SWAP1 DUP2 MSTORE PUSH1 0x20 ADD PUSH1 0x0 KECCAK256 PUSH1 0x0 SWAP1 SLOAD SWAP1 PUSH2 0x100 EXP SWAP1 DIV PUSH20 0xFFFFFFFFFFFFFFFFFFFFFFFFFFFFFFFFFFFFFFFF AND SWAP1 POP SWAP2 SWAP1 POP JUMP JUMPDEST PUSH1 0x0 PUSH2 0x11E3 DUP3 PUSH2 0x1C5B JUMP JUMPDEST SWAP1 POP DUP1 PUSH20 0xFFFFFFFFFFFFFFFFFFFFFFFFFFFFFFFFFFFFFFFF AND DUP4 PUSH20 0xFFFFFFFFFFFFFFFFFFFFFFFFFFFFFFFFFFFFFFFF AND EQ ISZERO PUSH2 0x1254 JUMPI PUSH1 0x40 MLOAD PUSH32 0x8C379A000000000000000000000000000000000000000000000000000000000 DUP2 MSTORE PUSH1 0x4 ADD PUSH2 0x124B SWAP1 PUSH2 0x535F JUMP JUMPDEST PUSH1 0x40 MLOAD DUP1 SWAP2 SUB SWAP1 REVERT JUMPDEST DUP1 PUSH20 0xFFFFFFFFFFFFFFFFFFFFFFFFFFFFFFFFFFFFFFFF AND PUSH2 0x1273 PUSH2 0x2D23 JUMP JUMPDEST PUSH20 0xFFFFFFFFFFFFFFFFFFFFFFFFFFFFFFFFFFFFFFFF AND EQ DUP1 PUSH2 0x12A2 JUMPI POP PUSH2 0x12A1 DUP2 PUSH2 0x129C PUSH2 0x2D23 JUMP JUMPDEST PUSH2 0x280C JUMP JUMPDEST JUMPDEST PUSH2 0x12E1 JUMPI PUSH1 0x40 MLOAD PUSH32 0x8C379A000000000000000000000000000000000000000000000000000000000 DUP2 MSTORE PUSH1 0x4 ADD PUSH2 0x12D8 SWAP1 PUSH2 0x53F1 JUMP JUMPDEST PUSH1 0x40 MLOAD DUP1 SWAP2 SUB SWAP1 REVERT JUMPDEST PUSH2 0x12EB DUP4 DUP4 PUSH2 0x2F16 JUMP JUMPDEST POP POP POP JUMP JUMPDEST PUSH2 0x12F8 PUSH2 0x2D23 JUMP JUMPDEST PUSH20 0xFFFFFFFFFFFFFFFFFFFFFFFFFFFFFFFFFFFFFFFF AND PUSH2 0x1316 PUSH2 0x200D JUMP JUMPDEST PUSH20 0xFFFFFFFFFFFFFFFFFFFFFFFFFFFFFFFFFFFFFFFF AND EQ PUSH2 0x136C JUMPI PUSH1 0x40 MLOAD PUSH32 0x8C379A000000000000000000000000000000000000000000000000000000000 DUP2 MSTORE PUSH1 0x4 ADD PUSH2 0x1363 SWAP1 PUSH2 0x5211 JUMP JUMPDEST PUSH1 0x40 MLOAD DUP1 SWAP2 SUB SWAP1 REVERT JUMPDEST PUSH32 0x0 PUSH20 0xFFFFFFFFFFFFFFFFFFFFFFFFFFFFFFFFFFFFFFFF AND PUSH4 0x10DDB137 DUP3 PUSH1 0x40 MLOAD DUP3 PUSH4 0xFFFFFFFF AND PUSH1 0xE0 SHL DUP2 MSTORE PUSH1 0x4 ADD PUSH2 0x13C5 SWAP2 SWAP1 PUSH2 0x5240 JUMP JUMPDEST PUSH1 0x0 PUSH1 0x40 MLOAD DUP1 DUP4 SUB DUP2 PUSH1 0x0 DUP8 DUP1 EXTCODESIZE ISZERO DUP1 ISZERO PUSH2 0x13DF JUMPI PUSH1 0x0 DUP1 REVERT JUMPDEST POP GAS CALL ISZERO DUP1 ISZERO PUSH2 0x13F3 JUMPI RETURNDATASIZE PUSH1 0x0 DUP1 RETURNDATACOPY RETURNDATASIZE PUSH1 0x0 REVERT JUMPDEST POP POP POP POP POP JUMP JUMPDEST PUSH1 0xC SLOAD PUSH1 0xB SLOAD GT ISZERO PUSH2 0x1441 JUMPI PUSH1 0x40 MLOAD PUSH32 0x8C379A000000000000000000000000000000000000000000000000000000000 DUP2 MSTORE PUSH1 0x4 ADD PUSH2 0x1438 SWAP1 PUSH2 0x5483 JUMP JUMPDEST PUSH1 0x40 MLOAD DUP1 SWAP2 SUB SWAP1 REVERT JUMPDEST PUSH1 0x0 PUSH1 0xB SLOAD SWAP1 POP PUSH1 0xB PUSH1 0x0 DUP2 SLOAD DUP1 SWAP3 SWAP2 SWAP1 PUSH2 0x145B SWAP1 PUSH2 0x54D2 JUMP JUMPDEST SWAP2 SWAP1 POP SSTORE POP PUSH2 0x146A CALLER DUP3 PUSH2 0x2FCF JUMP JUMPDEST POP JUMP JUMPDEST PUSH1 0xE SLOAD DUP2 JUMP JUMPDEST PUSH1 0x11 SLOAD DUP2 JUMP JUMPDEST PUSH2 0x148A PUSH2 0x1484 PUSH2 0x2D23 JUMP JUMPDEST DUP3 PUSH2 0x2FED JUMP JUMPDEST PUSH2 0x14C9 JUMPI PUSH1 0x40 MLOAD PUSH32 0x8C379A000000000000000000000000000000000000000000000000000000000 DUP2 MSTORE PUSH1 0x4 ADD PUSH2 0x14C0 SWAP1 PUSH2 0x558D JUMP JUMPDEST PUSH1 0x40 MLOAD DUP1 SWAP2 SUB SWAP1 REVERT JUMPDEST PUSH2 0x14D4 DUP4 DUP4 DUP4 PUSH2 0x30CB JUMP JUMPDEST POP POP POP JUMP JUMPDEST PUSH1 0xF SLOAD DUP2 JUMP JUMPDEST PUSH1 0x14 PUSH1 0x20 MSTORE DUP1 PUSH1 0x0 MSTORE PUSH1 0x40 PUSH1 0x0 KECCAK256 PUSH1 0x0 SWAP2 POP SLOAD SWAP1 PUSH2 0x100 EXP SWAP1 DIV PUSH1 0xFF AND DUP2 JUMP JUMPDEST PUSH2 0x1507 PUSH2 0x2D23 JUMP JUMPDEST PUSH20 0xFFFFFFFFFFFFFFFFFFFFFFFFFFFFFFFFFFFFFFFF AND PUSH2 0x1525 PUSH2 0x200D JUMP JUMPDEST PUSH20 0xFFFFFFFFFFFFFFFFFFFFFFFFFFFFFFFFFFFFFFFF AND EQ PUSH2 0x157B JUMPI PUSH1 0x40 MLOAD PUSH32 0x8C379A000000000000000000000000000000000000000000000000000000000 DUP2 MSTORE PUSH1 0x4 ADD PUSH2 0x1572 SWAP1 PUSH2 0x5211 JUMP JUMPDEST PUSH1 0x40 MLOAD DUP1 SWAP2 SUB SWAP1 REVERT JUMPDEST PUSH1 0x0 PUSH1 0x13 PUSH1 0x0 DUP4 PUSH20 0xFFFFFFFFFFFFFFFFFFFFFFFFFFFFFFFFFFFFFFFF AND PUSH20 0xFFFFFFFFFFFFFFFFFFFFFFFFFFFFFFFFFFFFFFFF AND DUP2 MSTORE PUSH1 0x20 ADD SWAP1 DUP2 MSTORE PUSH1 0x20 ADD PUSH1 0x0 KECCAK256 PUSH1 0x0 PUSH2 0x100 EXP DUP2 SLOAD DUP2 PUSH1 0xFF MUL NOT AND SWAP1 DUP4 ISZERO ISZERO MUL OR SWAP1 SSTORE POP POP JUMP JUMPDEST PUSH1 0xA SLOAD DUP2 JUMP JUMPDEST PUSH2 0x15E4 PUSH2 0x2D23 JUMP JUMPDEST PUSH20 0xFFFFFFFFFFFFFFFFFFFFFFFFFFFFFFFFFFFFFFFF AND PUSH2 0x1602 PUSH2 0x200D JUMP JUMPDEST PUSH20 0xFFFFFFFFFFFFFFFFFFFFFFFFFFFFFFFFFFFFFFFF AND EQ PUSH2 0x1658 JUMPI PUSH1 0x40 MLOAD PUSH32 0x8C379A000000000000000000000000000000000000000000000000000000000 DUP2 MSTORE PUSH1 0x4 ADD PUSH2 0x164F SWAP1 PUSH2 0x5211 JUMP JUMPDEST PUSH1 0x40 MLOAD DUP1 SWAP2 SUB SWAP1 REVERT JUMPDEST PUSH1 0x0 CALLER PUSH20 0xFFFFFFFFFFFFFFFFFFFFFFFFFFFFFFFFFFFFFFFF AND SELFBALANCE PUSH1 0x40 MLOAD PUSH2 0x167E SWAP1 PUSH2 0x55D3 JUMP JUMPDEST PUSH1 0x0 PUSH1 0x40 MLOAD DUP1 DUP4 SUB DUP2 DUP6 DUP8 GAS CALL SWAP3 POP POP POP RETURNDATASIZE DUP1 PUSH1 0x0 DUP2 EQ PUSH2 0x16BB JUMPI PUSH1 0x40 MLOAD SWAP2 POP PUSH1 0x1F NOT PUSH1 0x3F RETURNDATASIZE ADD AND DUP3 ADD PUSH1 0x40 MSTORE RETURNDATASIZE DUP3 MSTORE RETURNDATASIZE PUSH1 0x0 PUSH1 0x20 DUP5 ADD RETURNDATACOPY PUSH2 0x16C0 JUMP JUMPDEST PUSH1 0x60 SWAP2 POP JUMPDEST POP POP SWAP1 POP DUP1 PUSH2 0x16CE JUMPI PUSH1 0x0 DUP1 REVERT JUMPDEST POP JUMP JUMPDEST PUSH1 0x0 DUP1 PUSH1 0x1 PUSH1 0x0 DUP7 PUSH2 0xFFFF AND PUSH2 0xFFFF AND DUP2 MSTORE PUSH1 0x20 ADD SWAP1 DUP2 MSTORE PUSH1 0x20 ADD PUSH1 0x0 KECCAK256 DUP1 SLOAD PUSH2 0x16FA SWAP1 PUSH2 0x504B JUMP JUMPDEST DUP1 PUSH1 0x1F ADD PUSH1 0x20 DUP1 SWAP2 DIV MUL PUSH1 0x20 ADD PUSH1 0x40 MLOAD SWAP1 DUP2 ADD PUSH1 0x40 MSTORE DUP1 SWAP3 SWAP2 SWAP1 DUP2 DUP2 MSTORE PUSH1 0x20 ADD DUP3 DUP1 SLOAD PUSH2 0x1726 SWAP1 PUSH2 0x504B JUMP JUMPDEST DUP1 ISZERO PUSH2 0x1773 JUMPI DUP1 PUSH1 0x1F LT PUSH2 0x1748 JUMPI PUSH2 0x100 DUP1 DUP4 SLOAD DIV MUL DUP4 MSTORE SWAP2 PUSH1 0x20 ADD SWAP2 PUSH2 0x1773 JUMP JUMPDEST DUP3 ADD SWAP2 SWAP1 PUSH1 0x0 MSTORE PUSH1 0x20 PUSH1 0x0 KECCAK256 SWAP1 JUMPDEST DUP2 SLOAD DUP2 MSTORE SWAP1 PUSH1 0x1 ADD SWAP1 PUSH1 0x20 ADD DUP1 DUP4 GT PUSH2 0x1756 JUMPI DUP3 SWAP1 SUB PUSH1 0x1F AND DUP3 ADD SWAP2 JUMPDEST POP POP POP POP POP SWAP1 POP DUP4 DUP4 PUSH1 0x40 MLOAD PUSH2 0x178A SWAP3 SWAP2 SWAP1 PUSH2 0x560D JUMP JUMPDEST PUSH1 0x40 MLOAD DUP1 SWAP2 SUB SWAP1 KECCAK256 DUP2 DUP1 MLOAD SWAP1 PUSH1 0x20 ADD KECCAK256 EQ SWAP2 POP POP SWAP4 SWAP3 POP POP POP JUMP JUMPDEST PUSH2 0x17C0 DUP4 DUP4 DUP4 PUSH1 0x40 MLOAD DUP1 PUSH1 0x20 ADD PUSH1 0x40 MSTORE DUP1 PUSH1 0x0 DUP2 MSTORE POP PUSH2 0x2283 JUMP JUMPDEST POP POP POP JUMP JUMPDEST PUSH2 0x17CD PUSH2 0x2D23 JUMP JUMPDEST PUSH20 0xFFFFFFFFFFFFFFFFFFFFFFFFFFFFFFFFFFFFFFFF AND PUSH2 0x17EB PUSH2 0x200D JUMP JUMPDEST PUSH20 0xFFFFFFFFFFFFFFFFFFFFFFFFFFFFFFFFFFFFFFFF AND EQ PUSH2 0x1841 JUMPI PUSH1 0x40 MLOAD PUSH32 0x8C379A000000000000000000000000000000000000000000000000000000000 DUP2 MSTORE PUSH1 0x4 ADD PUSH2 0x1838 SWAP1 PUSH2 0x5211 JUMP JUMPDEST PUSH1 0x40 MLOAD DUP1 SWAP2 SUB SWAP1 REVERT JUMPDEST PUSH32 0x0 PUSH20 0xFFFFFFFFFFFFFFFFFFFFFFFFFFFFFFFFFFFFFFFF AND PUSH4 0x42D65A8D DUP5 DUP5 DUP5 PUSH1 0x40 MLOAD DUP5 PUSH4 0xFFFFFFFF AND PUSH1 0xE0 SHL DUP2 MSTORE PUSH1 0x4 ADD PUSH2 0x189E SWAP4 SWAP3 SWAP2 SWAP1 PUSH2 0x5653 JUMP JUMPDEST PUSH1 0x0 PUSH1 0x40 MLOAD DUP1 DUP4 SUB DUP2 PUSH1 0x0 DUP8 DUP1 EXTCODESIZE ISZERO DUP1 ISZERO PUSH2 0x18B8 JUMPI PUSH1 0x0 DUP1 REVERT JUMPDEST POP GAS CALL ISZERO DUP1 ISZERO PUSH2 0x18CC JUMPI RETURNDATASIZE PUSH1 0x0 DUP1 RETURNDATACOPY RETURNDATASIZE PUSH1 0x0 REVERT JUMPDEST POP POP POP POP POP POP POP JUMP JUMPDEST PUSH2 0x18DD PUSH2 0x2D23 JUMP JUMPDEST PUSH20 0xFFFFFFFFFFFFFFFFFFFFFFFFFFFFFFFFFFFFFFFF AND PUSH2 0x18FB PUSH2 0x200D JUMP JUMPDEST PUSH20 0xFFFFFFFFFFFFFFFFFFFFFFFFFFFFFFFFFFFFFFFF AND EQ PUSH2 0x1951 JUMPI PUSH1 0x40 MLOAD PUSH32 0x8C379A000000000000000000000000000000000000000000000000000000000 DUP2 MSTORE PUSH1 0x4 ADD PUSH2 0x1948 SWAP1 PUSH2 0x5211 JUMP JUMPDEST PUSH1 0x40 MLOAD DUP1 SWAP2 SUB SWAP1 REVERT JUMPDEST DUP1 PUSH1 0xE DUP2 SWAP1 SSTORE POP POP JUMP JUMPDEST PUSH2 0x1963 PUSH2 0x2D23 JUMP JUMPDEST PUSH20 0xFFFFFFFFFFFFFFFFFFFFFFFFFFFFFFFFFFFFFFFF AND PUSH2 0x1981 PUSH2 0x200D JUMP JUMPDEST PUSH20 0xFFFFFFFFFFFFFFFFFFFFFFFFFFFFFFFFFFFFFFFF AND EQ PUSH2 0x19D7 JUMPI PUSH1 0x40 MLOAD PUSH32 0x8C379A000000000000000000000000000000000000000000000000000000000 DUP2 MSTORE PUSH1 0x4 ADD PUSH2 0x19CE SWAP1 PUSH2 0x5211 JUMP JUMPDEST PUSH1 0x40 MLOAD DUP1 SWAP2 SUB SWAP1 REVERT JUMPDEST PUSH1 0x1 PUSH1 0x13 PUSH1 0x0 DUP4 PUSH20 0xFFFFFFFFFFFFFFFFFFFFFFFFFFFFFFFFFFFFFFFF AND PUSH20 0xFFFFFFFFFFFFFFFFFFFFFFFFFFFFFFFFFFFFFFFF AND DUP2 MSTORE PUSH1 0x20 ADD SWAP1 DUP2 MSTORE PUSH1 0x20 ADD PUSH1 0x0 KECCAK256 PUSH1 0x0 PUSH2 0x100 EXP DUP2 SLOAD DUP2 PUSH1 0xFF MUL NOT AND SWAP1 DUP4 ISZERO ISZERO MUL OR SWAP1 SSTORE POP POP JUMP JUMPDEST PUSH2 0x1A86 DUP10 DUP10 DUP10 DUP10 DUP1 DUP1 PUSH1 0x1F ADD PUSH1 0x20 DUP1 SWAP2 DIV MUL PUSH1 0x20 ADD PUSH1 0x40 MLOAD SWAP1 DUP2 ADD PUSH1 0x40 MSTORE DUP1 SWAP4 SWAP3 SWAP2 SWAP1 DUP2 DUP2 MSTORE PUSH1 0x20 ADD DUP4 DUP4 DUP1 DUP3 DUP5 CALLDATACOPY PUSH1 0x0 DUP2 DUP5 ADD MSTORE PUSH1 0x1F NOT PUSH1 0x1F DUP3 ADD AND SWAP1 POP DUP1 DUP4 ADD SWAP3 POP POP POP POP POP POP POP DUP9 DUP9 DUP9 DUP9 DUP9 PUSH2 0x3332 JUMP JUMPDEST POP POP POP POP POP POP POP POP POP JUMP JUMPDEST PUSH2 0x1A99 PUSH2 0x2D23 JUMP JUMPDEST PUSH20 0xFFFFFFFFFFFFFFFFFFFFFFFFFFFFFFFFFFFFFFFF AND PUSH2 0x1AB7 PUSH2 0x200D JUMP JUMPDEST PUSH20 0xFFFFFFFFFFFFFFFFFFFFFFFFFFFFFFFFFFFFFFFF AND EQ PUSH2 0x1B0D JUMPI PUSH1 0x40 MLOAD PUSH32 0x8C379A000000000000000000000000000000000000000000000000000000000 DUP2 MSTORE PUSH1 0x4 ADD PUSH2 0x1B04 SWAP1 PUSH2 0x5211 JUMP JUMPDEST PUSH1 0x40 MLOAD DUP1 SWAP2 SUB SWAP1 REVERT JUMPDEST PUSH1 0x0 JUMPDEST PUSH1 0x2 DUP2 LT ISZERO PUSH2 0x1B9B JUMPI PUSH1 0x1 PUSH1 0x14 PUSH1 0x0 DUP5 DUP5 PUSH1 0x64 DUP2 LT PUSH2 0x1B32 JUMPI PUSH2 0x1B31 PUSH2 0x5685 JUMP JUMPDEST JUMPDEST PUSH1 0x20 MUL ADD MLOAD PUSH20 0xFFFFFFFFFFFFFFFFFFFFFFFFFFFFFFFFFFFFFFFF AND PUSH20 0xFFFFFFFFFFFFFFFFFFFFFFFFFFFFFFFFFFFFFFFF AND DUP2 MSTORE PUSH1 0x20 ADD SWAP1 DUP2 MSTORE PUSH1 0x20 ADD PUSH1 0x0 KECCAK256 PUSH1 0x0 PUSH2 0x100 EXP DUP2 SLOAD DUP2 PUSH1 0xFF MUL NOT AND SWAP1 DUP4 ISZERO ISZERO MUL OR SWAP1 SSTORE POP DUP1 DUP1 PUSH2 0x1B93 SWAP1 PUSH2 0x54D2 JUMP JUMPDEST SWAP2 POP POP PUSH2 0x1B10 JUMP JUMPDEST POP POP JUMP JUMPDEST PUSH2 0x1BA7 PUSH2 0x2D23 JUMP JUMPDEST PUSH20 0xFFFFFFFFFFFFFFFFFFFFFFFFFFFFFFFFFFFFFFFF AND PUSH2 0x1BC5 PUSH2 0x200D JUMP JUMPDEST PUSH20 0xFFFFFFFFFFFFFFFFFFFFFFFFFFFFFFFFFFFFFFFF AND EQ PUSH2 0x1C1B JUMPI PUSH1 0x40 MLOAD PUSH32 0x8C379A000000000000000000000000000000000000000000000000000000000 DUP2 MSTORE PUSH1 0x4 ADD PUSH2 0x1C12 SWAP1 PUSH2 0x5211 JUMP JUMPDEST PUSH1 0x40 MLOAD DUP1 SWAP2 SUB SWAP1 REVERT JUMPDEST DUP1 PUSH1 0x9 SWAP1 DUP1 MLOAD SWAP1 PUSH1 0x20 ADD SWAP1 PUSH2 0x1C31 SWAP3 SWAP2 SWAP1 PUSH2 0x4098 JUMP JUMPDEST POP POP JUMP JUMPDEST PUSH1 0xD PUSH1 0x0 SWAP1 SLOAD SWAP1 PUSH2 0x100 EXP SWAP1 DIV PUSH1 0xFF AND DUP2 JUMP JUMPDEST PUSH1 0x12 PUSH1 0x0 SWAP1 SLOAD SWAP1 PUSH2 0x100 EXP SWAP1 DIV PUSH1 0xFF AND DUP2 JUMP JUMPDEST PUSH1 0x0 DUP1 PUSH1 0x5 PUSH1 0x0 DUP5 DUP2 MSTORE PUSH1 0x20 ADD SWAP1 DUP2 MSTORE PUSH1 0x20 ADD PUSH1 0x0 KECCAK256 PUSH1 0x0 SWAP1 SLOAD SWAP1 PUSH2 0x100 EXP SWAP1 DIV PUSH20 0xFFFFFFFFFFFFFFFFFFFFFFFFFFFFFFFFFFFFFFFF AND SWAP1 POP PUSH1 0x0 PUSH20 0xFFFFFFFFFFFFFFFFFFFFFFFFFFFFFFFFFFFFFFFF AND DUP2 PUSH20 0xFFFFFFFFFFFFFFFFFFFFFFFFFFFFFFFFFFFFFFFF AND EQ ISZERO PUSH2 0x1D04 JUMPI PUSH1 0x40 MLOAD PUSH32 0x8C379A000000000000000000000000000000000000000000000000000000000 DUP2 MSTORE PUSH1 0x4 ADD PUSH2 0x1CFB SWAP1 PUSH2 0x5726 JUMP JUMPDEST PUSH1 0x40 MLOAD DUP1 SWAP2 SUB SWAP1 REVERT JUMPDEST DUP1 SWAP2 POP POP SWAP2 SWAP1 POP JUMP JUMPDEST ADDRESS PUSH20 0xFFFFFFFFFFFFFFFFFFFFFFFFFFFFFFFFFFFFFFFF AND PUSH2 0x1D2C PUSH2 0x2D23 JUMP JUMPDEST PUSH20 0xFFFFFFFFFFFFFFFFFFFFFFFFFFFFFFFFFFFFFFFF AND EQ PUSH2 0x1D82 JUMPI PUSH1 0x40 MLOAD PUSH32 0x8C379A000000000000000000000000000000000000000000000000000000000 DUP2 MSTORE PUSH1 0x4 ADD PUSH2 0x1D79 SWAP1 PUSH2 0x57B8 JUMP JUMPDEST PUSH1 0x40 MLOAD DUP1 SWAP2 SUB SWAP1 REVERT JUMPDEST PUSH2 0x1D8E DUP5 DUP5 DUP5 DUP5 PUSH2 0x3537 JUMP JUMPDEST POP POP POP POP JUMP JUMPDEST PUSH1 0x60 PUSH1 0x1 PUSH1 0x0 DUP4 PUSH2 0xFFFF AND PUSH2 0xFFFF AND DUP2 MSTORE PUSH1 0x20 ADD SWAP1 DUP2 MSTORE PUSH1 0x20 ADD PUSH1 0x0 KECCAK256 DUP1 SLOAD PUSH2 0x1DBC SWAP1 PUSH2 0x504B JUMP JUMPDEST DUP1 PUSH1 0x1F ADD PUSH1 0x20 DUP1 SWAP2 DIV MUL PUSH1 0x20 ADD PUSH1 0x40 MLOAD SWAP1 DUP2 ADD PUSH1 0x40 MSTORE DUP1 SWAP3 SWAP2 SWAP1 DUP2 DUP2 MSTORE PUSH1 0x20 ADD DUP3 DUP1 SLOAD PUSH2 0x1DE8 SWAP1 PUSH2 0x504B JUMP JUMPDEST DUP1 ISZERO PUSH2 0x1E35 JUMPI DUP1 PUSH1 0x1F LT PUSH2 0x1E0A JUMPI PUSH2 0x100 DUP1 DUP4 SLOAD DIV MUL DUP4 MSTORE SWAP2 PUSH1 0x20 ADD SWAP2 PUSH2 0x1E35 JUMP JUMPDEST DUP3 ADD SWAP2 SWAP1 PUSH1 0x0 MSTORE PUSH1 0x20 PUSH1 0x0 KECCAK256 SWAP1 JUMPDEST DUP2 SLOAD DUP2 MSTORE SWAP1 PUSH1 0x1 ADD SWAP1 PUSH1 0x20 ADD DUP1 DUP4 GT PUSH2 0x1E18 JUMPI DUP3 SWAP1 SUB PUSH1 0x1F AND DUP3 ADD SWAP2 JUMPDEST POP POP POP POP POP SWAP1 POP SWAP2 SWAP1 POP JUMP JUMPDEST PUSH1 0xB SLOAD DUP2 JUMP JUMPDEST PUSH1 0x0 DUP1 PUSH20 0xFFFFFFFFFFFFFFFFFFFFFFFFFFFFFFFFFFFFFFFF AND DUP3 PUSH20 0xFFFFFFFFFFFFFFFFFFFFFFFFFFFFFFFFFFFFFFFF AND EQ ISZERO PUSH2 0x1EB8 JUMPI PUSH1 0x40 MLOAD PUSH32 0x8C379A000000000000000000000000000000000000000000000000000000000 DUP2 MSTORE PUSH1 0x4 ADD PUSH2 0x1EAF SWAP1 PUSH2 0x584A JUMP JUMPDEST PUSH1 0x40 MLOAD DUP1 SWAP2 SUB SWAP1 REVERT JUMPDEST PUSH1 0x6 PUSH1 0x0 DUP4 PUSH20 0xFFFFFFFFFFFFFFFFFFFFFFFFFFFFFFFFFFFFFFFF AND PUSH20 0xFFFFFFFFFFFFFFFFFFFFFFFFFFFFFFFFFFFFFFFF AND DUP2 MSTORE PUSH1 0x20 ADD SWAP1 DUP2 MSTORE PUSH1 0x20 ADD PUSH1 0x0 KECCAK256 SLOAD SWAP1 POP SWAP2 SWAP1 POP JUMP JUMPDEST PUSH2 0x1F07 PUSH2 0x2D23 JUMP JUMPDEST PUSH20 0xFFFFFFFFFFFFFFFFFFFFFFFFFFFFFFFFFFFFFFFF AND PUSH2 0x1F25 PUSH2 0x200D JUMP JUMPDEST PUSH20 0xFFFFFFFFFFFFFFFFFFFFFFFFFFFFFFFFFFFFFFFF AND EQ PUSH2 0x1F7B JUMPI PUSH1 0x40 MLOAD PUSH32 0x8C379A000000000000000000000000000000000000000000000000000000000 DUP2 MSTORE PUSH1 0x4 ADD PUSH2 0x1F72 SWAP1 PUSH2 0x5211 JUMP JUMPDEST PUSH1 0x40 MLOAD DUP1 SWAP2 SUB SWAP1 REVERT JUMPDEST PUSH2 0x1F85 PUSH1 0x0 PUSH2 0x35B7 JUMP JUMPDEST JUMP JUMPDEST PUSH2 0x1F8F PUSH2 0x2D23 JUMP JUMPDEST PUSH20 0xFFFFFFFFFFFFFFFFFFFFFFFFFFFFFFFFFFFFFFFF AND PUSH2 0x1FAD PUSH2 0x200D JUMP JUMPDEST PUSH20 0xFFFFFFFFFFFFFFFFFFFFFFFFFFFFFFFFFFFFFFFF AND EQ PUSH2 0x2003 JUMPI PUSH1 0x40 MLOAD PUSH32 0x8C379A000000000000000000000000000000000000000000000000000000000 DUP2 MSTORE PUSH1 0x4 ADD PUSH2 0x1FFA SWAP1 PUSH2 0x5211 JUMP JUMPDEST PUSH1 0x40 MLOAD DUP1 SWAP2 SUB SWAP1 REVERT JUMPDEST DUP1 PUSH1 0x11 DUP2 SWAP1 SSTORE POP POP JUMP JUMPDEST PUSH1 0x0 DUP1 PUSH1 0x0 SWAP1 SLOAD SWAP1 PUSH2 0x100 EXP SWAP1 DIV PUSH20 0xFFFFFFFFFFFFFFFFFFFFFFFFFFFFFFFFFFFFFFFF AND SWAP1 POP SWAP1 JUMP JUMPDEST PUSH1 0x2 PUSH1 0x20 MSTORE DUP3 PUSH1 0x0 MSTORE PUSH1 0x40 PUSH1 0x0 KECCAK256 DUP3 DUP1 MLOAD PUSH1 0x20 DUP2 ADD DUP3 ADD DUP1 MLOAD DUP5 DUP3 MSTORE PUSH1 0x20 DUP4 ADD PUSH1 0x20 DUP6 ADD KECCAK256 DUP2 DUP4 MSTORE DUP1 SWAP6 POP POP POP POP POP POP PUSH1 0x20 MSTORE DUP1 PUSH1 0x0 MSTORE PUSH1 0x40 PUSH1 0x0 KECCAK256 PUSH1 0x0 SWAP3 POP SWAP3 POP POP POP SLOAD DUP2 JUMP JUMPDEST PUSH2 0x2086 PUSH2 0x2D23 JUMP JUMPDEST PUSH20 0xFFFFFFFFFFFFFFFFFFFFFFFFFFFFFFFFFFFFFFFF AND PUSH2 0x20A4 PUSH2 0x200D JUMP JUMPDEST PUSH20 0xFFFFFFFFFFFFFFFFFFFFFFFFFFFFFFFFFFFFFFFF AND EQ PUSH2 0x20FA JUMPI PUSH1 0x40 MLOAD PUSH32 0x8C379A000000000000000000000000000000000000000000000000000000000 DUP2 MSTORE PUSH1 0x4 ADD PUSH2 0x20F1 SWAP1 PUSH2 0x5211 JUMP JUMPDEST PUSH1 0x40 MLOAD DUP1 SWAP2 SUB SWAP1 REVERT JUMPDEST DUP1 PUSH1 0xF DUP2 SWAP1 SSTORE POP POP JUMP JUMPDEST PUSH1 0x60 PUSH1 0x4 DUP1 SLOAD PUSH2 0x2113 SWAP1 PUSH2 0x504B JUMP JUMPDEST DUP1 PUSH1 0x1F ADD PUSH1 0x20 DUP1 SWAP2 DIV MUL PUSH1 0x20 ADD PUSH1 0x40 MLOAD SWAP1 DUP2 ADD PUSH1 0x40 MSTORE DUP1 SWAP3 SWAP2 SWAP1 DUP2 DUP2 MSTORE PUSH1 0x20 ADD DUP3 DUP1 SLOAD PUSH2 0x213F SWAP1 PUSH2 0x504B JUMP JUMPDEST DUP1 ISZERO PUSH2 0x218C JUMPI DUP1 PUSH1 0x1F LT PUSH2 0x2161 JUMPI PUSH2 0x100 DUP1 DUP4 SLOAD DIV MUL DUP4 MSTORE SWAP2 PUSH1 0x20 ADD SWAP2 PUSH2 0x218C JUMP JUMPDEST DUP3 ADD SWAP2 SWAP1 PUSH1 0x0 MSTORE PUSH1 0x20 PUSH1 0x0 KECCAK256 SWAP1 JUMPDEST DUP2 SLOAD DUP2 MSTORE SWAP1 PUSH1 0x1 ADD SWAP1 PUSH1 0x20 ADD DUP1 DUP4 GT PUSH2 0x216F JUMPI DUP3 SWAP1 SUB PUSH1 0x1F AND DUP3 ADD SWAP2 JUMPDEST POP POP POP POP POP SWAP1 POP SWAP1 JUMP JUMPDEST PUSH2 0x21A8 PUSH2 0x21A1 PUSH2 0x2D23 JUMP JUMPDEST DUP4 DUP4 PUSH2 0x367B JUMP JUMPDEST POP POP JUMP JUMPDEST PUSH2 0x21B4 PUSH2 0x2D23 JUMP JUMPDEST PUSH20 0xFFFFFFFFFFFFFFFFFFFFFFFFFFFFFFFFFFFFFFFF AND PUSH2 0x21D2 PUSH2 0x200D JUMP JUMPDEST PUSH20 0xFFFFFFFFFFFFFFFFFFFFFFFFFFFFFFFFFFFFFFFF AND EQ PUSH2 0x2228 JUMPI PUSH1 0x40 MLOAD PUSH32 0x8C379A000000000000000000000000000000000000000000000000000000000 DUP2 MSTORE PUSH1 0x4 ADD PUSH2 0x221F SWAP1 PUSH2 0x5211 JUMP JUMPDEST PUSH1 0x40 MLOAD DUP1 SWAP2 SUB SWAP1 REVERT JUMPDEST PUSH1 0x1 PUSH1 0x14 PUSH1 0x0 DUP4 PUSH20 0xFFFFFFFFFFFFFFFFFFFFFFFFFFFFFFFFFFFFFFFF AND PUSH20 0xFFFFFFFFFFFFFFFFFFFFFFFFFFFFFFFFFFFFFFFF AND DUP2 MSTORE PUSH1 0x20 ADD SWAP1 DUP2 MSTORE PUSH1 0x20 ADD PUSH1 0x0 KECCAK256 PUSH1 0x0 PUSH2 0x100 EXP DUP2 SLOAD DUP2 PUSH1 0xFF MUL NOT AND SWAP1 DUP4 ISZERO ISZERO MUL OR SWAP1 SSTORE POP POP JUMP JUMPDEST PUSH2 0x2294 PUSH2 0x228E PUSH2 0x2D23 JUMP JUMPDEST DUP4 PUSH2 0x2FED JUMP JUMPDEST PUSH2 0x22D3 JUMPI PUSH1 0x40 MLOAD PUSH32 0x8C379A000000000000000000000000000000000000000000000000000000000 DUP2 MSTORE PUSH1 0x4 ADD PUSH2 0x22CA SWAP1 PUSH2 0x558D JUMP JUMPDEST PUSH1 0x40 MLOAD DUP1 SWAP2 SUB SWAP1 REVERT JUMPDEST PUSH2 0x22DF DUP5 DUP5 DUP5 DUP5 PUSH2 0x37E8 JUMP JUMPDEST POP POP POP POP JUMP JUMPDEST PUSH1 0x60 PUSH2 0x22F0 DUP3 PUSH2 0x2EAA JUMP JUMPDEST PUSH2 0x232F JUMPI PUSH1 0x40 MLOAD PUSH32 0x8C379A000000000000000000000000000000000000000000000000000000000 DUP2 MSTORE PUSH1 0x4 ADD PUSH2 0x2326 SWAP1 PUSH2 0x58DC JUMP JUMPDEST PUSH1 0x40 MLOAD DUP1 SWAP2 SUB SWAP1 REVERT JUMPDEST PUSH1 0x0 PUSH2 0x2339 PUSH2 0x3844 JUMP JUMPDEST SWAP1 POP PUSH1 0x0 DUP2 MLOAD GT PUSH2 0x2359 JUMPI PUSH1 0x40 MLOAD DUP1 PUSH1 0x20 ADD PUSH1 0x40 MSTORE DUP1 PUSH1 0x0 DUP2 MSTORE POP PUSH2 0x2384 JUMP JUMPDEST DUP1 PUSH2 0x2363 DUP5 PUSH2 0x38D6 JUMP JUMPDEST PUSH1 0x40 MLOAD PUSH1 0x20 ADD PUSH2 0x2374 SWAP3 SWAP2 SWAP1 PUSH2 0x5938 JUMP JUMPDEST PUSH1 0x40 MLOAD PUSH1 0x20 DUP2 DUP4 SUB SUB DUP2 MSTORE SWAP1 PUSH1 0x40 MSTORE JUMPDEST SWAP2 POP POP SWAP2 SWAP1 POP JUMP JUMPDEST PUSH2 0x2394 PUSH2 0x2D23 JUMP JUMPDEST PUSH20 0xFFFFFFFFFFFFFFFFFFFFFFFFFFFFFFFFFFFFFFFF AND PUSH2 0x23B2 PUSH2 0x200D JUMP JUMPDEST PUSH20 0xFFFFFFFFFFFFFFFFFFFFFFFFFFFFFFFFFFFFFFFF AND EQ PUSH2 0x2408 JUMPI PUSH1 0x40 MLOAD PUSH32 0x8C379A000000000000000000000000000000000000000000000000000000000 DUP2 MSTORE PUSH1 0x4 ADD PUSH2 0x23FF SWAP1 PUSH2 0x5211 JUMP JUMPDEST PUSH1 0x40 MLOAD DUP1 SWAP2 SUB SWAP1 REVERT JUMPDEST PUSH1 0x1 PUSH1 0xD PUSH1 0x0 PUSH2 0x100 EXP DUP2 SLOAD DUP2 PUSH1 0xFF MUL NOT AND SWAP1 DUP4 ISZERO ISZERO MUL OR SWAP1 SSTORE POP JUMP JUMPDEST PUSH2 0x242D PUSH2 0x2D23 JUMP JUMPDEST PUSH20 0xFFFFFFFFFFFFFFFFFFFFFFFFFFFFFFFFFFFFFFFF AND PUSH2 0x244B PUSH2 0x200D JUMP JUMPDEST PUSH20 0xFFFFFFFFFFFFFFFFFFFFFFFFFFFFFFFFFFFFFFFF AND EQ PUSH2 0x24A1 JUMPI PUSH1 0x40 MLOAD PUSH32 0x8C379A000000000000000000000000000000000000000000000000000000000 DUP2 MSTORE PUSH1 0x4 ADD PUSH2 0x2498 SWAP1 PUSH2 0x5211 JUMP JUMPDEST PUSH1 0x40 MLOAD DUP1 SWAP2 SUB SWAP1 REVERT JUMPDEST PUSH32 0x0 PUSH20 0xFFFFFFFFFFFFFFFFFFFFFFFFFFFFFFFFFFFFFFFF AND PUSH4 0xCBED8B9C DUP7 DUP7 DUP7 DUP7 DUP7 PUSH1 0x40 MLOAD DUP7 PUSH4 0xFFFFFFFF AND PUSH1 0xE0 SHL DUP2 MSTORE PUSH1 0x4 ADD PUSH2 0x2502 SWAP6 SWAP5 SWAP4 SWAP3 SWAP2 SWAP1 PUSH2 0x595C JUMP JUMPDEST PUSH1 0x0 PUSH1 0x40 MLOAD DUP1 DUP4 SUB DUP2 PUSH1 0x0 DUP8 DUP1 EXTCODESIZE ISZERO DUP1 ISZERO PUSH2 0x251C JUMPI PUSH1 0x0 DUP1 REVERT JUMPDEST POP GAS CALL ISZERO DUP1 ISZERO PUSH2 0x2530 JUMPI RETURNDATASIZE PUSH1 0x0 DUP1 RETURNDATACOPY RETURNDATASIZE PUSH1 0x0 REVERT JUMPDEST POP POP POP POP POP POP POP POP POP JUMP JUMPDEST PUSH32 0x0 DUP2 JUMP JUMPDEST PUSH1 0x0 PUSH1 0x2 PUSH1 0x0 DUP8 PUSH2 0xFFFF AND PUSH2 0xFFFF AND DUP2 MSTORE PUSH1 0x20 ADD SWAP1 DUP2 MSTORE PUSH1 0x20 ADD PUSH1 0x0 KECCAK256 DUP6 PUSH1 0x40 MLOAD PUSH2 0x258A SWAP2 SWAP1 PUSH2 0x59DB JUMP JUMPDEST SWAP1 DUP2 MSTORE PUSH1 0x20 ADD PUSH1 0x40 MLOAD DUP1 SWAP2 SUB SWAP1 KECCAK256 PUSH1 0x0 DUP6 PUSH8 0xFFFFFFFFFFFFFFFF AND DUP2 MSTORE PUSH1 0x20 ADD SWAP1 DUP2 MSTORE PUSH1 0x20 ADD PUSH1 0x0 KECCAK256 SLOAD SWAP1 POP PUSH1 0x0 DUP1 SHL DUP2 EQ ISZERO PUSH2 0x25FC JUMPI PUSH1 0x40 MLOAD PUSH32 0x8C379A000000000000000000000000000000000000000000000000000000000 DUP2 MSTORE PUSH1 0x4 ADD PUSH2 0x25F3 SWAP1 PUSH2 0x5A3E JUMP JUMPDEST PUSH1 0x40 MLOAD DUP1 SWAP2 SUB SWAP1 REVERT JUMPDEST DUP1 DUP4 DUP4 PUSH1 0x40 MLOAD PUSH2 0x260D SWAP3 SWAP2 SWAP1 PUSH2 0x560D JUMP JUMPDEST PUSH1 0x40 MLOAD DUP1 SWAP2 SUB SWAP1 KECCAK256 EQ PUSH2 0x2655 JUMPI PUSH1 0x40 MLOAD PUSH32 0x8C379A000000000000000000000000000000000000000000000000000000000 DUP2 MSTORE PUSH1 0x4 ADD PUSH2 0x264C SWAP1 PUSH2 0x5AAA JUMP JUMPDEST PUSH1 0x40 MLOAD DUP1 SWAP2 SUB SWAP1 REVERT JUMPDEST PUSH1 0x0 DUP1 SHL PUSH1 0x2 PUSH1 0x0 DUP9 PUSH2 0xFFFF AND PUSH2 0xFFFF AND DUP2 MSTORE PUSH1 0x20 ADD SWAP1 DUP2 MSTORE PUSH1 0x20 ADD PUSH1 0x0 KECCAK256 DUP7 PUSH1 0x40 MLOAD PUSH2 0x2682 SWAP2 SWAP1 PUSH2 0x59DB JUMP JUMPDEST SWAP1 DUP2 MSTORE PUSH1 0x20 ADD PUSH1 0x40 MLOAD DUP1 SWAP2 SUB SWAP1 KECCAK256 PUSH1 0x0 DUP7 PUSH8 0xFFFFFFFFFFFFFFFF AND DUP2 MSTORE PUSH1 0x20 ADD SWAP1 DUP2 MSTORE PUSH1 0x20 ADD PUSH1 0x0 KECCAK256 DUP2 SWAP1 SSTORE POP ADDRESS PUSH20 0xFFFFFFFFFFFFFFFFFFFFFFFFFFFFFFFFFFFFFFFF AND PUSH4 0x66AD5C8A DUP8 DUP8 DUP8 DUP8 DUP8 PUSH1 0x40 MLOAD DUP7 PUSH4 0xFFFFFFFF AND PUSH1 0xE0 SHL DUP2 MSTORE PUSH1 0x4 ADD PUSH2 0x26F0 SWAP6 SWAP5 SWAP4 SWAP3 SWAP2 SWAP1 PUSH2 0x5AD9 JUMP JUMPDEST PUSH1 0x0 PUSH1 0x40 MLOAD DUP1 DUP4 SUB DUP2 PUSH1 0x0 DUP8 DUP1 EXTCODESIZE ISZERO DUP1 ISZERO PUSH2 0x270A JUMPI PUSH1 0x0 DUP1 REVERT JUMPDEST POP GAS CALL ISZERO DUP1 ISZERO PUSH2 0x271E JUMPI RETURNDATASIZE PUSH1 0x0 DUP1 RETURNDATACOPY RETURNDATASIZE PUSH1 0x0 REVERT JUMPDEST POP POP POP POP POP POP POP POP POP POP JUMP JUMPDEST PUSH1 0x9 DUP1 SLOAD PUSH2 0x2737 SWAP1 PUSH2 0x504B JUMP JUMPDEST DUP1 PUSH1 0x1F ADD PUSH1 0x20 DUP1 SWAP2 DIV MUL PUSH1 0x20 ADD PUSH1 0x40 MLOAD SWAP1 DUP2 ADD PUSH1 0x40 MSTORE DUP1 SWAP3 SWAP2 SWAP1 DUP2 DUP2 MSTORE PUSH1 0x20 ADD DUP3 DUP1 SLOAD PUSH2 0x2763 SWAP1 PUSH2 0x504B JUMP JUMPDEST DUP1 ISZERO PUSH2 0x27B0 JUMPI DUP1 PUSH1 0x1F LT PUSH2 0x2785 JUMPI PUSH2 0x100 DUP1 DUP4 SLOAD DIV MUL DUP4 MSTORE SWAP2 PUSH1 0x20 ADD SWAP2 PUSH2 0x27B0 JUMP JUMPDEST DUP3 ADD SWAP2 SWAP1 PUSH1 0x0 MSTORE PUSH1 0x20 PUSH1 0x0 KECCAK256 SWAP1 JUMPDEST DUP2 SLOAD DUP2 MSTORE SWAP1 PUSH1 0x1 ADD SWAP1 PUSH1 0x20 ADD DUP1 DUP4 GT PUSH2 0x2793 JUMPI DUP3 SWAP1 SUB PUSH1 0x1F AND DUP3 ADD SWAP2 JUMPDEST POP POP POP POP POP DUP2 JUMP JUMPDEST PUSH1 0x10 SLOAD DUP2 JUMP JUMPDEST PUSH1 0x13 PUSH1 0x20 MSTORE DUP1 PUSH1 0x0 MSTORE PUSH1 0x40 PUSH1 0x0 KECCAK256 PUSH1 0x0 SWAP2 POP SLOAD SWAP1 PUSH2 0x100 EXP SWAP1 DIV PUSH1 0xFF AND DUP2 JUMP JUMPDEST PUSH1 0x0 PUSH32 0x0 SWAP1 POP SWAP1 JUMP JUMPDEST PUSH1 0xC SLOAD DUP2 JUMP JUMPDEST PUSH1 0x0 PUSH1 0x8 PUSH1 0x0 DUP5 PUSH20 0xFFFFFFFFFFFFFFFFFFFFFFFFFFFFFFFFFFFFFFFF AND PUSH20 0xFFFFFFFFFFFFFFFFFFFFFFFFFFFFFFFFFFFFFFFF AND DUP2 MSTORE PUSH1 0x20 ADD SWAP1 DUP2 MSTORE PUSH1 0x20 ADD PUSH1 0x0 KECCAK256 PUSH1 0x0 DUP4 PUSH20 0xFFFFFFFFFFFFFFFFFFFFFFFFFFFFFFFFFFFFFFFF AND PUSH20 0xFFFFFFFFFFFFFFFFFFFFFFFFFFFFFFFFFFFFFFFF AND DUP2 MSTORE PUSH1 0x20 ADD SWAP1 DUP2 MSTORE PUSH1 0x20 ADD PUSH1 0x0 KECCAK256 PUSH1 0x0 SWAP1 SLOAD SWAP1 PUSH2 0x100 EXP SWAP1 DIV PUSH1 0xFF AND SWAP1 POP SWAP3 SWAP2 POP POP JUMP JUMPDEST PUSH2 0x28A8 PUSH2 0x2D23 JUMP JUMPDEST PUSH20 0xFFFFFFFFFFFFFFFFFFFFFFFFFFFFFFFFFFFFFFFF AND PUSH2 0x28C6 PUSH2 0x200D JUMP JUMPDEST PUSH20 0xFFFFFFFFFFFFFFFFFFFFFFFFFFFFFFFFFFFFFFFF AND EQ PUSH2 0x291C JUMPI PUSH1 0x40 MLOAD PUSH32 0x8C379A000000000000000000000000000000000000000000000000000000000 DUP2 MSTORE PUSH1 0x4 ADD PUSH2 0x2913 SWAP1 PUSH2 0x5211 JUMP JUMPDEST PUSH1 0x40 MLOAD DUP1 SWAP2 SUB SWAP1 REVERT JUMPDEST DUP2 DUP2 PUSH1 0x1 PUSH1 0x0 DUP7 PUSH2 0xFFFF AND PUSH2 0xFFFF AND DUP2 MSTORE PUSH1 0x20 ADD SWAP1 DUP2 MSTORE PUSH1 0x20 ADD PUSH1 0x0 KECCAK256 SWAP2 SWAP1 PUSH2 0x2946 SWAP3 SWAP2 SWAP1 PUSH2 0x411E JUMP JUMPDEST POP PUSH32 0xFA41487AD5D6728F0B19276FA1EDDC16558578F5109FC39D2DC33C3230470DAB DUP4 DUP4 DUP4 PUSH1 0x40 MLOAD PUSH2 0x297A SWAP4 SWAP3 SWAP2 SWAP1 PUSH2 0x5653 JUMP JUMPDEST PUSH1 0x40 MLOAD DUP1 SWAP2 SUB SWAP1 LOG1 POP POP POP JUMP JUMPDEST PUSH2 0x298F PUSH2 0x2D23 JUMP JUMPDEST PUSH20 0xFFFFFFFFFFFFFFFFFFFFFFFFFFFFFFFFFFFFFFFF AND PUSH2 0x29AD PUSH2 0x200D JUMP JUMPDEST PUSH20 0xFFFFFFFFFFFFFFFFFFFFFFFFFFFFFFFFFFFFFFFF AND EQ PUSH2 0x2A03 JUMPI PUSH1 0x40 MLOAD PUSH32 0x8C379A000000000000000000000000000000000000000000000000000000000 DUP2 MSTORE PUSH1 0x4 ADD PUSH2 0x29FA SWAP1 PUSH2 0x5211 JUMP JUMPDEST PUSH1 0x40 MLOAD DUP1 SWAP2 SUB SWAP1 REVERT JUMPDEST PUSH1 0x0 PUSH1 0x14 PUSH1 0x0 DUP4 PUSH20 0xFFFFFFFFFFFFFFFFFFFFFFFFFFFFFFFFFFFFFFFF AND PUSH20 0xFFFFFFFFFFFFFFFFFFFFFFFFFFFFFFFFFFFFFFFF AND DUP2 MSTORE PUSH1 0x20 ADD SWAP1 DUP2 MSTORE PUSH1 0x20 ADD PUSH1 0x0 KECCAK256 PUSH1 0x0 PUSH2 0x100 EXP DUP2 SLOAD DUP2 PUSH1 0xFF MUL NOT AND SWAP1 DUP4 ISZERO ISZERO MUL OR SWAP1 SSTORE POP POP JUMP JUMPDEST PUSH2 0x2AB9 PUSH2 0x2A69 PUSH2 0x2D23 JUMP JUMPDEST DUP10 DUP10 DUP10 DUP1 DUP1 PUSH1 0x1F ADD PUSH1 0x20 DUP1 SWAP2 DIV MUL PUSH1 0x20 ADD PUSH1 0x40 MLOAD SWAP1 DUP2 ADD PUSH1 0x40 MSTORE DUP1 SWAP4 SWAP3 SWAP2 SWAP1 DUP2 DUP2 MSTORE PUSH1 0x20 ADD DUP4 DUP4 DUP1 DUP3 DUP5 CALLDATACOPY PUSH1 0x0 DUP2 DUP5 ADD MSTORE PUSH1 0x1F NOT PUSH1 0x1F DUP3 ADD AND SWAP1 POP DUP1 DUP4 ADD SWAP3 POP POP POP POP POP POP POP DUP9 DUP9 DUP9 DUP9 DUP9 PUSH2 0x3332 JUMP JUMPDEST POP POP POP POP POP POP POP POP JUMP JUMPDEST PUSH2 0x2ACB PUSH2 0x2D23 JUMP JUMPDEST PUSH20 0xFFFFFFFFFFFFFFFFFFFFFFFFFFFFFFFFFFFFFFFF AND PUSH2 0x2AE9 PUSH2 0x200D JUMP JUMPDEST PUSH20 0xFFFFFFFFFFFFFFFFFFFFFFFFFFFFFFFFFFFFFFFF AND EQ PUSH2 0x2B3F JUMPI PUSH1 0x40 MLOAD PUSH32 0x8C379A000000000000000000000000000000000000000000000000000000000 DUP2 MSTORE PUSH1 0x4 ADD PUSH2 0x2B36 SWAP1 PUSH2 0x5211 JUMP JUMPDEST PUSH1 0x40 MLOAD DUP1 SWAP2 SUB SWAP1 REVERT JUMPDEST PUSH1 0x0 PUSH20 0xFFFFFFFFFFFFFFFFFFFFFFFFFFFFFFFFFFFFFFFF AND DUP2 PUSH20 0xFFFFFFFFFFFFFFFFFFFFFFFFFFFFFFFFFFFFFFFF AND EQ ISZERO PUSH2 0x2BAF JUMPI PUSH1 0x40 MLOAD PUSH32 0x8C379A000000000000000000000000000000000000000000000000000000000 DUP2 MSTORE PUSH1 0x4 ADD PUSH2 0x2BA6 SWAP1 PUSH2 0x5BA0 JUMP JUMPDEST PUSH1 0x40 MLOAD DUP1 SWAP2 SUB SWAP1 REVERT JUMPDEST PUSH2 0x2BB8 DUP2 PUSH2 0x35B7 JUMP JUMPDEST POP JUMP JUMPDEST PUSH1 0x60 PUSH32 0x0 PUSH20 0xFFFFFFFFFFFFFFFFFFFFFFFFFFFFFFFFFFFFFFFF AND PUSH4 0xF5ECBDBC PUSH32 0x0 PUSH20 0xFFFFFFFFFFFFFFFFFFFFFFFFFFFFFFFFFFFFFFFF AND PUSH4 0x96568F6 ADDRESS PUSH1 0x40 MLOAD DUP3 PUSH4 0xFFFFFFFF AND PUSH1 0xE0 SHL DUP2 MSTORE PUSH1 0x4 ADD PUSH2 0x2C52 SWAP2 SWAP1 PUSH2 0x46C3 JUMP JUMPDEST PUSH1 0x20 PUSH1 0x40 MLOAD DUP1 DUP4 SUB DUP2 DUP7 DUP1 EXTCODESIZE ISZERO DUP1 ISZERO PUSH2 0x2C6A JUMPI PUSH1 0x0 DUP1 REVERT JUMPDEST POP GAS STATICCALL ISZERO DUP1 ISZERO PUSH2 0x2C7E JUMPI RETURNDATASIZE PUSH1 0x0 DUP1 RETURNDATACOPY RETURNDATASIZE PUSH1 0x0 REVERT JUMPDEST POP POP POP POP PUSH1 0x40 MLOAD RETURNDATASIZE PUSH1 0x1F NOT PUSH1 0x1F DUP3 ADD AND DUP3 ADD DUP1 PUSH1 0x40 MSTORE POP DUP2 ADD SWAP1 PUSH2 0x2CA2 SWAP2 SWAP1 PUSH2 0x5BD5 JUMP JUMPDEST DUP7 ADDRESS DUP7 PUSH1 0x40 MLOAD DUP6 PUSH4 0xFFFFFFFF AND PUSH1 0xE0 SHL DUP2 MSTORE PUSH1 0x4 ADD PUSH2 0x2CC4 SWAP5 SWAP4 SWAP3 SWAP2 SWAP1 PUSH2 0x5C02 JUMP JUMPDEST PUSH1 0x0 PUSH1 0x40 MLOAD DUP1 DUP4 SUB DUP2 DUP7 DUP1 EXTCODESIZE ISZERO DUP1 ISZERO PUSH2 0x2CDC JUMPI PUSH1 0x0 DUP1 REVERT JUMPDEST POP GAS STATICCALL ISZERO DUP1 ISZERO PUSH2 0x2CF0 JUMPI RETURNDATASIZE PUSH1 0x0 DUP1 RETURNDATACOPY RETURNDATASIZE PUSH1 0x0 REVERT JUMPDEST POP POP POP POP PUSH1 0x40 MLOAD RETURNDATASIZE PUSH1 0x0 DUP3 RETURNDATACOPY RETURNDATASIZE PUSH1 0x1F NOT PUSH1 0x1F DUP3 ADD AND DUP3 ADD DUP1 PUSH1 0x40 MSTORE POP DUP2 ADD SWAP1 PUSH2 0x2D19 SWAP2 SWAP1 PUSH2 0x5CB7 JUMP JUMPDEST SWAP1 POP SWAP5 SWAP4 POP POP POP POP JUMP JUMPDEST PUSH1 0x0 CALLER SWAP1 POP SWAP1 JUMP JUMPDEST ADDRESS PUSH20 0xFFFFFFFFFFFFFFFFFFFFFFFFFFFFFFFFFFFFFFFF AND PUSH4 0x66AD5C8A DUP6 DUP6 DUP6 DUP6 PUSH1 0x40 MLOAD DUP6 PUSH4 0xFFFFFFFF AND PUSH1 0xE0 SHL DUP2 MSTORE PUSH1 0x4 ADD PUSH2 0x2D6A SWAP5 SWAP4 SWAP3 SWAP2 SWAP1 PUSH2 0x5D00 JUMP JUMPDEST PUSH1 0x0 PUSH1 0x40 MLOAD DUP1 DUP4 SUB DUP2 PUSH1 0x0 DUP8 DUP1 EXTCODESIZE ISZERO DUP1 ISZERO PUSH2 0x2D84 JUMPI PUSH1 0x0 DUP1 REVERT JUMPDEST POP GAS CALL SWAP3 POP POP POP DUP1 ISZERO PUSH2 0x2D95 JUMPI POP PUSH1 0x1 JUMPDEST PUSH2 0x2E39 JUMPI DUP1 DUP1 MLOAD SWAP1 PUSH1 0x20 ADD KECCAK256 PUSH1 0x2 PUSH1 0x0 DUP7 PUSH2 0xFFFF AND PUSH2 0xFFFF AND DUP2 MSTORE PUSH1 0x20 ADD SWAP1 DUP2 MSTORE PUSH1 0x20 ADD PUSH1 0x0 KECCAK256 DUP5 PUSH1 0x40 MLOAD PUSH2 0x2DCA SWAP2 SWAP1 PUSH2 0x59DB JUMP JUMPDEST SWAP1 DUP2 MSTORE PUSH1 0x20 ADD PUSH1 0x40 MLOAD DUP1 SWAP2 SUB SWAP1 KECCAK256 PUSH1 0x0 DUP5 PUSH8 0xFFFFFFFFFFFFFFFF AND DUP2 MSTORE PUSH1 0x20 ADD SWAP1 DUP2 MSTORE PUSH1 0x20 ADD PUSH1 0x0 KECCAK256 DUP2 SWAP1 SSTORE POP PUSH32 0xE6F254030BCB01FFD20558175C13FCAED6D1520BE7BECEE4C961B65F79243B0D DUP5 DUP5 DUP5 DUP5 PUSH1 0x40 MLOAD PUSH2 0x2E2C SWAP5 SWAP4 SWAP3 SWAP2 SWAP1 PUSH2 0x5D00 JUMP JUMPDEST PUSH1 0x40 MLOAD DUP1 SWAP2 SUB SWAP1 LOG1 PUSH2 0x2E3A JUMP JUMPDEST JUMPDEST POP POP POP POP JUMP JUMPDEST PUSH1 0x0 PUSH32 0x1FFC9A700000000000000000000000000000000000000000000000000000000 PUSH28 0xFFFFFFFFFFFFFFFFFFFFFFFFFFFFFFFFFFFFFFFFFFFFFFFFFFFFFFFF NOT AND DUP3 PUSH28 0xFFFFFFFFFFFFFFFFFFFFFFFFFFFFFFFFFFFFFFFFFFFFFFFFFFFFFFFF NOT AND EQ SWAP1 POP SWAP2 SWAP1 POP JUMP JUMPDEST PUSH1 0x0 DUP1 PUSH20 0xFFFFFFFFFFFFFFFFFFFFFFFFFFFFFFFFFFFFFFFF AND PUSH1 0x5 PUSH1 0x0 DUP5 DUP2 MSTORE PUSH1 0x20 ADD SWAP1 DUP2 MSTORE PUSH1 0x20 ADD PUSH1 0x0 KECCAK256 PUSH1 0x0 SWAP1 SLOAD SWAP1 PUSH2 0x100 EXP SWAP1 DIV PUSH20 0xFFFFFFFFFFFFFFFFFFFFFFFFFFFFFFFFFFFFFFFF AND PUSH20 0xFFFFFFFFFFFFFFFFFFFFFFFFFFFFFFFFFFFFFFFF AND EQ ISZERO SWAP1 POP SWAP2 SWAP1 POP JUMP JUMPDEST DUP2 PUSH1 0x7 PUSH1 0x0 DUP4 DUP2 MSTORE PUSH1 0x20 ADD SWAP1 DUP2 MSTORE PUSH1 0x20 ADD PUSH1 0x0 KECCAK256 PUSH1 0x0 PUSH2 0x100 EXP DUP2 SLOAD DUP2 PUSH20 0xFFFFFFFFFFFFFFFFFFFFFFFFFFFFFFFFFFFFFFFF MUL NOT AND SWAP1 DUP4 PUSH20 0xFFFFFFFFFFFFFFFFFFFFFFFFFFFFFFFFFFFFFFFF AND MUL OR SWAP1 SSTORE POP DUP1 DUP3 PUSH20 0xFFFFFFFFFFFFFFFFFFFFFFFFFFFFFFFFFFFFFFFF AND PUSH2 0x2F89 DUP4 PUSH2 0x1C5B JUMP JUMPDEST PUSH20 0xFFFFFFFFFFFFFFFFFFFFFFFFFFFFFFFFFFFFFFFF AND PUSH32 0x8C5BE1E5EBEC7D5BD14F71427D1E84F3DD0314C0F7B2291E5B200AC8C7C3B925 PUSH1 0x40 MLOAD PUSH1 0x40 MLOAD DUP1 SWAP2 SUB SWAP1 LOG4 POP POP JUMP JUMPDEST PUSH2 0x2FE9 DUP3 DUP3 PUSH1 0x40 MLOAD DUP1 PUSH1 0x20 ADD PUSH1 0x40 MSTORE DUP1 PUSH1 0x0 DUP2 MSTORE POP PUSH2 0x3A37 JUMP JUMPDEST POP POP JUMP JUMPDEST PUSH1 0x0 PUSH2 0x2FF8 DUP3 PUSH2 0x2EAA JUMP JUMPDEST PUSH2 0x3037 JUMPI PUSH1 0x40 MLOAD PUSH32 0x8C379A000000000000000000000000000000000000000000000000000000000 DUP2 MSTORE PUSH1 0x4 ADD PUSH2 0x302E SWAP1 PUSH2 0x5DC5 JUMP JUMPDEST PUSH1 0x40 MLOAD DUP1 SWAP2 SUB SWAP1 REVERT JUMPDEST PUSH1 0x0 PUSH2 0x3042 DUP4 PUSH2 0x1C5B JUMP JUMPDEST SWAP1 POP DUP1 PUSH20 0xFFFFFFFFFFFFFFFFFFFFFFFFFFFFFFFFFFFFFFFF AND DUP5 PUSH20 0xFFFFFFFFFFFFFFFFFFFFFFFFFFFFFFFFFFFFFFFF AND EQ DUP1 PUSH2 0x30B1 JUMPI POP DUP4 PUSH20 0xFFFFFFFFFFFFFFFFFFFFFFFFFFFFFFFFFFFFFFFF AND PUSH2 0x3099 DUP5 PUSH2 0x1153 JUMP JUMPDEST PUSH20 0xFFFFFFFFFFFFFFFFFFFFFFFFFFFFFFFFFFFFFFFF AND EQ JUMPDEST DUP1 PUSH2 0x30C2 JUMPI POP PUSH2 0x30C1 DUP2 DUP6 PUSH2 0x280C JUMP JUMPDEST JUMPDEST SWAP2 POP POP SWAP3 SWAP2 POP POP JUMP JUMPDEST DUP3 PUSH20 0xFFFFFFFFFFFFFFFFFFFFFFFFFFFFFFFFFFFFFFFF AND PUSH2 0x30EB DUP3 PUSH2 0x1C5B JUMP JUMPDEST PUSH20 0xFFFFFFFFFFFFFFFFFFFFFFFFFFFFFFFFFFFFFFFF AND EQ PUSH2 0x3141 JUMPI PUSH1 0x40 MLOAD PUSH32 0x8C379A000000000000000000000000000000000000000000000000000000000 DUP2 MSTORE PUSH1 0x4 ADD PUSH2 0x3138 SWAP1 PUSH2 0x5E57 JUMP JUMPDEST PUSH1 0x40 MLOAD DUP1 SWAP2 SUB SWAP1 REVERT JUMPDEST PUSH1 0x0 PUSH20 0xFFFFFFFFFFFFFFFFFFFFFFFFFFFFFFFFFFFFFFFF AND DUP3 PUSH20 0xFFFFFFFFFFFFFFFFFFFFFFFFFFFFFFFFFFFFFFFF AND EQ ISZERO PUSH2 0x31B1 JUMPI PUSH1 0x40 MLOAD PUSH32 0x8C379A000000000000000000000000000000000000000000000000000000000 DUP2 MSTORE PUSH1 0x4 ADD PUSH2 0x31A8 SWAP1 PUSH2 0x5EE9 JUMP JUMPDEST PUSH1 0x40 MLOAD DUP1 SWAP2 SUB SWAP1 REVERT JUMPDEST PUSH2 0x31BC DUP4 DUP4 DUP4 PUSH2 0x3A92 JUMP JUMPDEST PUSH2 0x31C7 PUSH1 0x0 DUP3 PUSH2 0x2F16 JUMP JUMPDEST PUSH1 0x1 PUSH1 0x6 PUSH1 0x0 DUP6 PUSH20 0xFFFFFFFFFFFFFFFFFFFFFFFFFFFFFFFFFFFFFFFF AND PUSH20 0xFFFFFFFFFFFFFFFFFFFFFFFFFFFFFFFFFFFFFFFF AND DUP2 MSTORE PUSH1 0x20 ADD SWAP1 DUP2 MSTORE PUSH1 0x20 ADD PUSH1 0x0 KECCAK256 PUSH1 0x0 DUP3 DUP3 SLOAD PUSH2 0x3217 SWAP2 SWAP1 PUSH2 0x5F09 JUMP JUMPDEST SWAP3 POP POP DUP2 SWAP1 SSTORE POP PUSH1 0x1 PUSH1 0x6 PUSH1 0x0 DUP5 PUSH20 0xFFFFFFFFFFFFFFFFFFFFFFFFFFFFFFFFFFFFFFFF AND PUSH20 0xFFFFFFFFFFFFFFFFFFFFFFFFFFFFFFFFFFFFFFFF AND DUP2 MSTORE PUSH1 0x20 ADD SWAP1 DUP2 MSTORE PUSH1 0x20 ADD PUSH1 0x0 KECCAK256 PUSH1 0x0 DUP3 DUP3 SLOAD PUSH2 0x326E SWAP2 SWAP1 PUSH2 0x5F3D JUMP JUMPDEST SWAP3 POP POP DUP2 SWAP1 SSTORE POP DUP2 PUSH1 0x5 PUSH1 0x0 DUP4 DUP2 MSTORE PUSH1 0x20 ADD SWAP1 DUP2 MSTORE PUSH1 0x20 ADD PUSH1 0x0 KECCAK256 PUSH1 0x0 PUSH2 0x100 EXP DUP2 SLOAD DUP2 PUSH20 0xFFFFFFFFFFFFFFFFFFFFFFFFFFFFFFFFFFFFFFFF MUL NOT AND SWAP1 DUP4 PUSH20 0xFFFFFFFFFFFFFFFFFFFFFFFFFFFFFFFFFFFFFFFF AND MUL OR SWAP1 SSTORE POP DUP1 DUP3 PUSH20 0xFFFFFFFFFFFFFFFFFFFFFFFFFFFFFFFFFFFFFFFF AND DUP5 PUSH20 0xFFFFFFFFFFFFFFFFFFFFFFFFFFFFFFFFFFFFFFFF AND PUSH32 0xDDF252AD1BE2C89B69C2B068FC378DAA952BA7F163C4A11628F55A4DF523B3EF PUSH1 0x40 MLOAD PUSH1 0x40 MLOAD DUP1 SWAP2 SUB SWAP1 LOG4 PUSH2 0x332D DUP4 DUP4 DUP4 PUSH2 0x3A97 JUMP JUMPDEST POP POP POP JUMP JUMPDEST PUSH2 0x3343 PUSH2 0x333D PUSH2 0x2D23 JUMP JUMPDEST DUP7 PUSH2 0x2FED JUMP JUMPDEST PUSH2 0x3382 JUMPI PUSH1 0x40 MLOAD PUSH32 0x8C379A000000000000000000000000000000000000000000000000000000000 DUP2 MSTORE PUSH1 0x4 ADD PUSH2 0x3379 SWAP1 PUSH2 0x558D JUMP JUMPDEST PUSH1 0x40 MLOAD DUP1 SWAP2 SUB SWAP1 REVERT JUMPDEST PUSH2 0x338E DUP9 DUP9 DUP9 DUP9 PUSH2 0x3A9C JUMP JUMPDEST PUSH1 0x0 DUP7 DUP7 PUSH1 0x40 MLOAD PUSH1 0x20 ADD PUSH2 0x33A3 SWAP3 SWAP2 SWAP1 PUSH2 0x5F93 JUMP JUMPDEST PUSH1 0x40 MLOAD PUSH1 0x20 DUP2 DUP4 SUB SUB DUP2 MSTORE SWAP1 PUSH1 0x40 MSTORE SWAP1 POP PUSH2 0x3405 DUP9 DUP3 DUP8 DUP8 DUP8 DUP8 DUP1 DUP1 PUSH1 0x1F ADD PUSH1 0x20 DUP1 SWAP2 DIV MUL PUSH1 0x20 ADD PUSH1 0x40 MLOAD SWAP1 DUP2 ADD PUSH1 0x40 MSTORE DUP1 SWAP4 SWAP3 SWAP2 SWAP1 DUP2 DUP2 MSTORE PUSH1 0x20 ADD DUP4 DUP4 DUP1 DUP3 DUP5 CALLDATACOPY PUSH1 0x0 DUP2 DUP5 ADD MSTORE PUSH1 0x1F NOT PUSH1 0x1F DUP3 ADD AND SWAP1 POP DUP1 DUP4 ADD SWAP3 POP POP POP POP POP POP POP PUSH2 0x3AAB JUMP JUMPDEST PUSH1 0x0 PUSH32 0x0 PUSH20 0xFFFFFFFFFFFFFFFFFFFFFFFFFFFFFFFFFFFFFFFF AND PUSH4 0x7A145748 DUP11 ADDRESS PUSH1 0x40 MLOAD DUP4 PUSH4 0xFFFFFFFF AND PUSH1 0xE0 SHL DUP2 MSTORE PUSH1 0x4 ADD PUSH2 0x3462 SWAP3 SWAP2 SWAP1 PUSH2 0x5FC3 JUMP JUMPDEST PUSH1 0x20 PUSH1 0x40 MLOAD DUP1 DUP4 SUB DUP2 DUP7 DUP1 EXTCODESIZE ISZERO DUP1 ISZERO PUSH2 0x347A JUMPI PUSH1 0x0 DUP1 REVERT JUMPDEST POP GAS STATICCALL ISZERO DUP1 ISZERO PUSH2 0x348E JUMPI RETURNDATASIZE PUSH1 0x0 DUP1 RETURNDATACOPY RETURNDATASIZE PUSH1 0x0 REVERT JUMPDEST POP POP POP POP PUSH1 0x40 MLOAD RETURNDATASIZE PUSH1 0x1F NOT PUSH1 0x1F DUP3 ADD AND DUP3 ADD DUP1 PUSH1 0x40 MSTORE POP DUP2 ADD SWAP1 PUSH2 0x34B2 SWAP2 SWAP1 PUSH2 0x6001 JUMP JUMPDEST SWAP1 POP DUP8 PUSH1 0x40 MLOAD PUSH2 0x34C2 SWAP2 SWAP1 PUSH2 0x59DB JUMP JUMPDEST PUSH1 0x40 MLOAD DUP1 SWAP2 SUB SWAP1 KECCAK256 DUP10 PUSH2 0xFFFF AND DUP12 PUSH20 0xFFFFFFFFFFFFFFFFFFFFFFFFFFFFFFFFFFFFFFFF AND PUSH32 0x24797CC77CE15DC717112D54FB1DF125FDFD8C81344FB046C5E074427CE1543 DUP11 DUP6 PUSH1 0x40 MLOAD PUSH2 0x3517 SWAP3 SWAP2 SWAP1 PUSH2 0x602E JUMP JUMPDEST PUSH1 0x40 MLOAD DUP1 SWAP2 SUB SWAP1 LOG4 PUSH2 0x352B DUP11 DUP11 DUP11 DUP11 PUSH2 0x3BCD JUMP JUMPDEST POP POP POP POP POP POP POP POP POP POP JUMP JUMPDEST PUSH2 0x3542 DUP5 DUP5 DUP4 PUSH2 0x3BD3 JUMP JUMPDEST PUSH1 0x0 DUP1 DUP3 DUP1 PUSH1 0x20 ADD SWAP1 MLOAD DUP2 ADD SWAP1 PUSH2 0x3559 SWAP2 SWAP1 PUSH2 0x606C JUMP JUMPDEST SWAP2 POP SWAP2 POP PUSH1 0x0 PUSH1 0x14 DUP4 ADD MLOAD SWAP1 POP PUSH2 0x3571 DUP8 DUP3 DUP5 PUSH2 0x3BD8 JUMP JUMPDEST PUSH32 0xD4D39D20F72EABD06C301E516D54653DFC9116DE62C1D54BF1CB48CF3B42A7DB DUP8 DUP3 DUP5 DUP9 PUSH1 0x40 MLOAD PUSH2 0x35A6 SWAP5 SWAP4 SWAP3 SWAP2 SWAP1 PUSH2 0x60C8 JUMP JUMPDEST PUSH1 0x40 MLOAD DUP1 SWAP2 SUB SWAP1 LOG1 POP POP POP POP POP POP POP JUMP JUMPDEST PUSH1 0x0 DUP1 PUSH1 0x0 SWAP1 SLOAD SWAP1 PUSH2 0x100 EXP SWAP1 DIV PUSH20 0xFFFFFFFFFFFFFFFFFFFFFFFFFFFFFFFFFFFFFFFF AND SWAP1 POP DUP2 PUSH1 0x0 DUP1 PUSH2 0x100 EXP DUP2 SLOAD DUP2 PUSH20 0xFFFFFFFFFFFFFFFFFFFFFFFFFFFFFFFFFFFFFFFF MUL NOT AND SWAP1 DUP4 PUSH20 0xFFFFFFFFFFFFFFFFFFFFFFFFFFFFFFFFFFFFFFFF AND MUL OR SWAP1 SSTORE POP DUP2 PUSH20 0xFFFFFFFFFFFFFFFFFFFFFFFFFFFFFFFFFFFFFFFF AND DUP2 PUSH20 0xFFFFFFFFFFFFFFFFFFFFFFFFFFFFFFFFFFFFFFFF AND PUSH32 0x8BE0079C531659141344CD1FD0A4F28419497F9722A3DAAFE3B4186F6B6457E0 PUSH1 0x40 MLOAD PUSH1 0x40 MLOAD DUP1 SWAP2 SUB SWAP1 LOG3 POP POP JUMP JUMPDEST DUP2 PUSH20 0xFFFFFFFFFFFFFFFFFFFFFFFFFFFFFFFFFFFFFFFF AND DUP4 PUSH20 0xFFFFFFFFFFFFFFFFFFFFFFFFFFFFFFFFFFFFFFFF AND EQ ISZERO PUSH2 0x36EA JUMPI PUSH1 0x40 MLOAD PUSH32 0x8C379A000000000000000000000000000000000000000000000000000000000 DUP2 MSTORE PUSH1 0x4 ADD PUSH2 0x36E1 SWAP1 PUSH2 0x6159 JUMP JUMPDEST PUSH1 0x40 MLOAD DUP1 SWAP2 SUB SWAP1 REVERT JUMPDEST DUP1 PUSH1 0x8 PUSH1 0x0 DUP6 PUSH20 0xFFFFFFFFFFFFFFFFFFFFFFFFFFFFFFFFFFFFFFFF AND PUSH20 0xFFFFFFFFFFFFFFFFFFFFFFFFFFFFFFFFFFFFFFFF AND DUP2 MSTORE PUSH1 0x20 ADD SWAP1 DUP2 MSTORE PUSH1 0x20 ADD PUSH1 0x0 KECCAK256 PUSH1 0x0 DUP5 PUSH20 0xFFFFFFFFFFFFFFFFFFFFFFFFFFFFFFFFFFFFFFFF AND PUSH20 0xFFFFFFFFFFFFFFFFFFFFFFFFFFFFFFFFFFFFFFFF AND DUP2 MSTORE PUSH1 0x20 ADD SWAP1 DUP2 MSTORE PUSH1 0x20 ADD PUSH1 0x0 KECCAK256 PUSH1 0x0 PUSH2 0x100 EXP DUP2 SLOAD DUP2 PUSH1 0xFF MUL NOT AND SWAP1 DUP4 ISZERO ISZERO MUL OR SWAP1 SSTORE POP DUP2 PUSH20 0xFFFFFFFFFFFFFFFFFFFFFFFFFFFFFFFFFFFFFFFF AND DUP4 PUSH20 0xFFFFFFFFFFFFFFFFFFFFFFFFFFFFFFFFFFFFFFFF AND PUSH32 0x17307EAB39AB6107E8899845AD3D59BD9653F200F220920489CA2B5937696C31 DUP4 PUSH1 0x40 MLOAD PUSH2 0x37DB SWAP2 SWAP1 PUSH2 0x44D4 JUMP JUMPDEST PUSH1 0x40 MLOAD DUP1 SWAP2 SUB SWAP1 LOG3 POP POP POP JUMP JUMPDEST PUSH2 0x37F3 DUP5 DUP5 DUP5 PUSH2 0x30CB JUMP JUMPDEST PUSH2 0x37FF DUP5 DUP5 DUP5 DUP5 PUSH2 0x3BE7 JUMP JUMPDEST PUSH2 0x383E JUMPI PUSH1 0x40 MLOAD PUSH32 0x8C379A000000000000000000000000000000000000000000000000000000000 DUP2 MSTORE PUSH1 0x4 ADD PUSH2 0x3835 SWAP1 PUSH2 0x61EB JUMP JUMPDEST PUSH1 0x40 MLOAD DUP1 SWAP2 SUB SWAP1 REVERT JUMPDEST POP POP POP POP JUMP JUMPDEST PUSH1 0x60 PUSH1 0x9 DUP1 SLOAD PUSH2 0x3853 SWAP1 PUSH2 0x504B JUMP JUMPDEST DUP1 PUSH1 0x1F ADD PUSH1 0x20 DUP1 SWAP2 DIV MUL PUSH1 0x20 ADD PUSH1 0x40 MLOAD SWAP1 DUP2 ADD PUSH1 0x40 MSTORE DUP1 SWAP3 SWAP2 SWAP1 DUP2 DUP2 MSTORE PUSH1 0x20 ADD DUP3 DUP1 SLOAD PUSH2 0x387F SWAP1 PUSH2 0x504B JUMP JUMPDEST DUP1 ISZERO PUSH2 0x38CC JUMPI DUP1 PUSH1 0x1F LT PUSH2 0x38A1 JUMPI PUSH2 0x100 DUP1 DUP4 SLOAD DIV MUL DUP4 MSTORE SWAP2 PUSH1 0x20 ADD SWAP2 PUSH2 0x38CC JUMP JUMPDEST DUP3 ADD SWAP2 SWAP1 PUSH1 0x0 MSTORE PUSH1 0x20 PUSH1 0x0 KECCAK256 SWAP1 JUMPDEST DUP2 SLOAD DUP2 MSTORE SWAP1 PUSH1 0x1 ADD SWAP1 PUSH1 0x20 ADD DUP1 DUP4 GT PUSH2 0x38AF JUMPI DUP3 SWAP1 SUB PUSH1 0x1F AND DUP3 ADD SWAP2 JUMPDEST POP POP POP POP POP SWAP1 POP SWAP1 JUMP JUMPDEST PUSH1 0x60 PUSH1 0x0 DUP3 EQ ISZERO PUSH2 0x391E JUMPI PUSH1 0x40 MLOAD DUP1 PUSH1 0x40 ADD PUSH1 0x40 MSTORE DUP1 PUSH1 0x1 DUP2 MSTORE PUSH1 0x20 ADD PUSH32 0x3000000000000000000000000000000000000000000000000000000000000000 DUP2 MSTORE POP SWAP1 POP PUSH2 0x3A32 JUMP JUMPDEST PUSH1 0x0 DUP3 SWAP1 POP PUSH1 0x0 JUMPDEST PUSH1 0x0 DUP3 EQ PUSH2 0x3950 JUMPI DUP1 DUP1 PUSH2 0x3939 SWAP1 PUSH2 0x54D2 JUMP JUMPDEST SWAP2 POP POP PUSH1 0xA DUP3 PUSH2 0x3949 SWAP2 SWAP1 PUSH2 0x623A JUMP JUMPDEST SWAP2 POP PUSH2 0x3926 JUMP JUMPDEST PUSH1 0x0 DUP2 PUSH8 0xFFFFFFFFFFFFFFFF DUP2 GT ISZERO PUSH2 0x396C JUMPI PUSH2 0x396B PUSH2 0x422A JUMP JUMPDEST JUMPDEST PUSH1 0x40 MLOAD SWAP1 DUP1 DUP3 MSTORE DUP1 PUSH1 0x1F ADD PUSH1 0x1F NOT AND PUSH1 0x20 ADD DUP3 ADD PUSH1 0x40 MSTORE DUP1 ISZERO PUSH2 0x399E JUMPI DUP2 PUSH1 0x20 ADD PUSH1 0x1 DUP3 MUL DUP1 CALLDATASIZE DUP4 CALLDATACOPY DUP1 DUP3 ADD SWAP2 POP POP SWAP1 POP JUMPDEST POP SWAP1 POP JUMPDEST PUSH1 0x0 DUP6 EQ PUSH2 0x3A2B JUMPI PUSH1 0x1 DUP3 PUSH2 0x39B7 SWAP2 SWAP1 PUSH2 0x5F09 JUMP JUMPDEST SWAP2 POP PUSH1 0xA DUP6 PUSH2 0x39C6 SWAP2 SWAP1 PUSH2 0x626B JUMP JUMPDEST PUSH1 0x30 PUSH2 0x39D2 SWAP2 SWAP1 PUSH2 0x5F3D JUMP JUMPDEST PUSH1 0xF8 SHL DUP2 DUP4 DUP2 MLOAD DUP2 LT PUSH2 0x39E8 JUMPI PUSH2 0x39E7 PUSH2 0x5685 JUMP JUMPDEST JUMPDEST PUSH1 0x20 ADD ADD SWAP1 PUSH31 0xFFFFFFFFFFFFFFFFFFFFFFFFFFFFFFFFFFFFFFFFFFFFFFFFFFFFFFFFFFFFFF NOT AND SWAP1 DUP2 PUSH1 0x0 BYTE SWAP1 MSTORE8 POP PUSH1 0xA DUP6 PUSH2 0x3A24 SWAP2 SWAP1 PUSH2 0x623A JUMP JUMPDEST SWAP5 POP PUSH2 0x39A2 JUMP JUMPDEST DUP1 SWAP4 POP POP POP POP JUMPDEST SWAP2 SWAP1 POP JUMP JUMPDEST PUSH2 0x3A41 DUP4 DUP4 PUSH2 0x3D7E JUMP JUMPDEST PUSH2 0x3A4E PUSH1 0x0 DUP5 DUP5 DUP5 PUSH2 0x3BE7 JUMP JUMPDEST PUSH2 0x3A8D JUMPI PUSH1 0x40 MLOAD PUSH32 0x8C379A000000000000000000000000000000000000000000000000000000000 DUP2 MSTORE PUSH1 0x4 ADD PUSH2 0x3A84 SWAP1 PUSH2 0x61EB JUMP JUMPDEST PUSH1 0x40 MLOAD DUP1 SWAP2 SUB SWAP1 REVERT JUMPDEST POP POP POP JUMP JUMPDEST POP POP POP JUMP JUMPDEST POP POP POP JUMP JUMPDEST PUSH2 0x3AA5 DUP2 PUSH2 0x3F58 JUMP JUMPDEST POP POP POP POP JUMP JUMPDEST PUSH1 0x0 PUSH1 0x1 PUSH1 0x0 DUP8 PUSH2 0xFFFF AND PUSH2 0xFFFF AND DUP2 MSTORE PUSH1 0x20 ADD SWAP1 DUP2 MSTORE PUSH1 0x20 ADD PUSH1 0x0 KECCAK256 DUP1 SLOAD PUSH2 0x3AD3 SWAP1 PUSH2 0x504B JUMP JUMPDEST SWAP1 POP EQ ISZERO PUSH2 0x3B16 JUMPI PUSH1 0x40 MLOAD PUSH32 0x8C379A000000000000000000000000000000000000000000000000000000000 DUP2 MSTORE PUSH1 0x4 ADD PUSH2 0x3B0D SWAP1 PUSH2 0x630E JUMP JUMPDEST PUSH1 0x40 MLOAD DUP1 SWAP2 SUB SWAP1 REVERT JUMPDEST PUSH32 0x0 PUSH20 0xFFFFFFFFFFFFFFFFFFFFFFFFFFFFFFFFFFFFFFFF AND PUSH4 0xC5803100 CALLVALUE DUP8 PUSH1 0x1 PUSH1 0x0 DUP11 PUSH2 0xFFFF AND PUSH2 0xFFFF AND DUP2 MSTORE PUSH1 0x20 ADD SWAP1 DUP2 MSTORE PUSH1 0x20 ADD PUSH1 0x0 KECCAK256 DUP9 DUP9 DUP9 DUP9 PUSH1 0x40 MLOAD DUP9 PUSH4 0xFFFFFFFF AND PUSH1 0xE0 SHL DUP2 MSTORE PUSH1 0x4 ADD PUSH2 0x3B94 SWAP7 SWAP6 SWAP5 SWAP4 SWAP3 SWAP2 SWAP1 PUSH2 0x63BD JUMP JUMPDEST PUSH1 0x0 PUSH1 0x40 MLOAD DUP1 DUP4 SUB DUP2 DUP6 DUP9 DUP1 EXTCODESIZE ISZERO DUP1 ISZERO PUSH2 0x3BAD JUMPI PUSH1 0x0 DUP1 REVERT JUMPDEST POP GAS CALL ISZERO DUP1 ISZERO PUSH2 0x3BC1 JUMPI RETURNDATASIZE PUSH1 0x0 DUP1 RETURNDATACOPY RETURNDATASIZE PUSH1 0x0 REVERT JUMPDEST POP POP POP POP POP POP POP POP POP POP JUMP JUMPDEST POP POP POP POP JUMP JUMPDEST POP POP POP JUMP JUMPDEST PUSH2 0x3BE2 DUP3 DUP3 PUSH2 0x2FCF JUMP JUMPDEST POP POP POP JUMP JUMPDEST PUSH1 0x0 PUSH2 0x3C08 DUP5 PUSH20 0xFFFFFFFFFFFFFFFFFFFFFFFFFFFFFFFFFFFFFFFF AND PUSH2 0x4075 JUMP JUMPDEST ISZERO PUSH2 0x3D71 JUMPI DUP4 PUSH20 0xFFFFFFFFFFFFFFFFFFFFFFFFFFFFFFFFFFFFFFFF AND PUSH4 0x150B7A02 PUSH2 0x3C31 PUSH2 0x2D23 JUMP JUMPDEST DUP8 DUP7 DUP7 PUSH1 0x40 MLOAD DUP6 PUSH4 0xFFFFFFFF AND PUSH1 0xE0 SHL DUP2 MSTORE PUSH1 0x4 ADD PUSH2 0x3C53 SWAP5 SWAP4 SWAP3 SWAP2 SWAP1 PUSH2 0x6433 JUMP JUMPDEST PUSH1 0x20 PUSH1 0x40 MLOAD DUP1 DUP4 SUB DUP2 PUSH1 0x0 DUP8 DUP1 EXTCODESIZE ISZERO DUP1 ISZERO PUSH2 0x3C6D JUMPI PUSH1 0x0 DUP1 REVERT JUMPDEST POP GAS CALL SWAP3 POP POP POP DUP1 ISZERO PUSH2 0x3C9E JUMPI POP PUSH1 0x40 MLOAD RETURNDATASIZE PUSH1 0x1F NOT PUSH1 0x1F DUP3 ADD AND DUP3 ADD DUP1 PUSH1 0x40 MSTORE POP DUP2 ADD SWAP1 PUSH2 0x3C9B SWAP2 SWAP1 PUSH2 0x6494 JUMP JUMPDEST PUSH1 0x1 JUMPDEST PUSH2 0x3D21 JUMPI RETURNDATASIZE DUP1 PUSH1 0x0 DUP2 EQ PUSH2 0x3CCE JUMPI PUSH1 0x40 MLOAD SWAP2 POP PUSH1 0x1F NOT PUSH1 0x3F RETURNDATASIZE ADD AND DUP3 ADD PUSH1 0x40 MSTORE RETURNDATASIZE DUP3 MSTORE RETURNDATASIZE PUSH1 0x0 PUSH1 0x20 DUP5 ADD RETURNDATACOPY PUSH2 0x3CD3 JUMP JUMPDEST PUSH1 0x60 SWAP2 POP JUMPDEST POP PUSH1 0x0 DUP2 MLOAD EQ ISZERO PUSH2 0x3D19 JUMPI PUSH1 0x40 MLOAD PUSH32 0x8C379A000000000000000000000000000000000000000000000000000000000 DUP2 MSTORE PUSH1 0x4 ADD PUSH2 0x3D10 SWAP1 PUSH2 0x61EB JUMP JUMPDEST PUSH1 0x40 MLOAD DUP1 SWAP2 SUB SWAP1 REVERT JUMPDEST DUP1 MLOAD DUP2 PUSH1 0x20 ADD REVERT JUMPDEST PUSH4 0x150B7A02 PUSH1 0xE0 SHL PUSH28 0xFFFFFFFFFFFFFFFFFFFFFFFFFFFFFFFFFFFFFFFFFFFFFFFFFFFFFFFF NOT AND DUP2 PUSH28 0xFFFFFFFFFFFFFFFFFFFFFFFFFFFFFFFFFFFFFFFFFFFFFFFFFFFFFFFF NOT AND EQ SWAP2 POP POP PUSH2 0x3D76 JUMP JUMPDEST PUSH1 0x1 SWAP1 POP JUMPDEST SWAP5 SWAP4 POP POP POP POP JUMP JUMPDEST PUSH1 0x0 PUSH20 0xFFFFFFFFFFFFFFFFFFFFFFFFFFFFFFFFFFFFFFFF AND DUP3 PUSH20 0xFFFFFFFFFFFFFFFFFFFFFFFFFFFFFFFFFFFFFFFF AND EQ ISZERO PUSH2 0x3DEE JUMPI PUSH1 0x40 MLOAD PUSH32 0x8C379A000000000000000000000000000000000000000000000000000000000 DUP2 MSTORE PUSH1 0x4 ADD PUSH2 0x3DE5 SWAP1 PUSH2 0x650D JUMP JUMPDEST PUSH1 0x40 MLOAD DUP1 SWAP2 SUB SWAP1 REVERT JUMPDEST PUSH2 0x3DF7 DUP2 PUSH2 0x2EAA JUMP JUMPDEST ISZERO PUSH2 0x3E37 JUMPI PUSH1 0x40 MLOAD PUSH32 0x8C379A000000000000000000000000000000000000000000000000000000000 DUP2 MSTORE PUSH1 0x4 ADD PUSH2 0x3E2E SWAP1 PUSH2 0x6579 JUMP JUMPDEST PUSH1 0x40 MLOAD DUP1 SWAP2 SUB SWAP1 REVERT JUMPDEST PUSH2 0x3E43 PUSH1 0x0 DUP4 DUP4 PUSH2 0x3A92 JUMP JUMPDEST PUSH1 0x1 PUSH1 0x6 PUSH1 0x0 DUP5 PUSH20 0xFFFFFFFFFFFFFFFFFFFFFFFFFFFFFFFFFFFFFFFF AND PUSH20 0xFFFFFFFFFFFFFFFFFFFFFFFFFFFFFFFFFFFFFFFF AND DUP2 MSTORE PUSH1 0x20 ADD SWAP1 DUP2 MSTORE PUSH1 0x20 ADD PUSH1 0x0 KECCAK256 PUSH1 0x0 DUP3 DUP3 SLOAD PUSH2 0x3E93 SWAP2 SWAP1 PUSH2 0x5F3D JUMP JUMPDEST SWAP3 POP POP DUP2 SWAP1 SSTORE POP DUP2 PUSH1 0x5 PUSH1 0x0 DUP4 DUP2 MSTORE PUSH1 0x20 ADD SWAP1 DUP2 MSTORE PUSH1 0x20 ADD PUSH1 0x0 KECCAK256 PUSH1 0x0 PUSH2 0x100 EXP DUP2 SLOAD DUP2 PUSH20 0xFFFFFFFFFFFFFFFFFFFFFFFFFFFFFFFFFFFFFFFF MUL NOT AND SWAP1 DUP4 PUSH20 0xFFFFFFFFFFFFFFFFFFFFFFFFFFFFFFFFFFFFFFFF AND MUL OR SWAP1 SSTORE POP DUP1 DUP3 PUSH20 0xFFFFFFFFFFFFFFFFFFFFFFFFFFFFFFFFFFFFFFFF AND PUSH1 0x0 PUSH20 0xFFFFFFFFFFFFFFFFFFFFFFFFFFFFFFFFFFFFFFFF AND PUSH32 0xDDF252AD1BE2C89B69C2B068FC378DAA952BA7F163C4A11628F55A4DF523B3EF PUSH1 0x40 MLOAD PUSH1 0x40 MLOAD DUP1 SWAP2 SUB SWAP1 LOG4 PUSH2 0x3F54 PUSH1 0x0 DUP4 DUP4 PUSH2 0x3A97 JUMP JUMPDEST POP POP JUMP JUMPDEST PUSH1 0x0 PUSH2 0x3F63 DUP3 PUSH2 0x1C5B JUMP JUMPDEST SWAP1 POP PUSH2 0x3F71 DUP2 PUSH1 0x0 DUP5 PUSH2 0x3A92 JUMP JUMPDEST PUSH2 0x3F7C PUSH1 0x0 DUP4 PUSH2 0x2F16 JUMP JUMPDEST PUSH1 0x1 PUSH1 0x6 PUSH1 0x0 DUP4 PUSH20 0xFFFFFFFFFFFFFFFFFFFFFFFFFFFFFFFFFFFFFFFF AND PUSH20 0xFFFFFFFFFFFFFFFFFFFFFFFFFFFFFFFFFFFFFFFF AND DUP2 MSTORE PUSH1 0x20 ADD SWAP1 DUP2 MSTORE PUSH1 0x20 ADD PUSH1 0x0 KECCAK256 PUSH1 0x0 DUP3 DUP3 SLOAD PUSH2 0x3FCC SWAP2 SWAP1 PUSH2 0x5F09 JUMP JUMPDEST SWAP3 POP POP DUP2 SWAP1 SSTORE POP PUSH1 0x5 PUSH1 0x0 DUP4 DUP2 MSTORE PUSH1 0x20 ADD SWAP1 DUP2 MSTORE PUSH1 0x20 ADD PUSH1 0x0 KECCAK256 PUSH1 0x0 PUSH2 0x100 EXP DUP2 SLOAD SWAP1 PUSH20 0xFFFFFFFFFFFFFFFFFFFFFFFFFFFFFFFFFFFFFFFF MUL NOT AND SWAP1 SSTORE DUP2 PUSH1 0x0 PUSH20 0xFFFFFFFFFFFFFFFFFFFFFFFFFFFFFFFFFFFFFFFF AND DUP3 PUSH20 0xFFFFFFFFFFFFFFFFFFFFFFFFFFFFFFFFFFFFFFFF AND PUSH32 0xDDF252AD1BE2C89B69C2B068FC378DAA952BA7F163C4A11628F55A4DF523B3EF PUSH1 0x40 MLOAD PUSH1 0x40 MLOAD DUP1 SWAP2 SUB SWAP1 LOG4 PUSH2 0x4071 DUP2 PUSH1 0x0 DUP5 PUSH2 0x3A97 JUMP JUMPDEST POP POP JUMP JUMPDEST PUSH1 0x0 DUP1 DUP3 PUSH20 0xFFFFFFFFFFFFFFFFFFFFFFFFFFFFFFFFFFFFFFFF AND EXTCODESIZE GT SWAP1 POP SWAP2 SWAP1 POP JUMP JUMPDEST DUP3 DUP1 SLOAD PUSH2 0x40A4 SWAP1 PUSH2 0x504B JUMP JUMPDEST SWAP1 PUSH1 0x0 MSTORE PUSH1 0x20 PUSH1 0x0 KECCAK256 SWAP1 PUSH1 0x1F ADD PUSH1 0x20 SWAP1 DIV DUP2 ADD SWAP3 DUP3 PUSH2 0x40C6 JUMPI PUSH1 0x0 DUP6 SSTORE PUSH2 0x410D JUMP JUMPDEST DUP3 PUSH1 0x1F LT PUSH2 0x40DF JUMPI DUP1 MLOAD PUSH1 0xFF NOT AND DUP4 DUP1 ADD OR DUP6 SSTORE PUSH2 0x410D JUMP JUMPDEST DUP3 DUP1 ADD PUSH1 0x1 ADD DUP6 SSTORE DUP3 ISZERO PUSH2 0x410D JUMPI SWAP2 DUP3 ADD JUMPDEST DUP3 DUP2 GT ISZERO PUSH2 0x410C JUMPI DUP3 MLOAD DUP3 SSTORE SWAP2 PUSH1 0x20 ADD SWAP2 SWAP1 PUSH1 0x1 ADD SWAP1 PUSH2 0x40F1 JUMP JUMPDEST JUMPDEST POP SWAP1 POP PUSH2 0x411A SWAP2 SWAP1 PUSH2 0x41A4 JUMP JUMPDEST POP SWAP1 JUMP JUMPDEST DUP3 DUP1 SLOAD PUSH2 0x412A SWAP1 PUSH2 0x504B JUMP JUMPDEST SWAP1 PUSH1 0x0 MSTORE PUSH1 0x20 PUSH1 0x0 KECCAK256 SWAP1 PUSH1 0x1F ADD PUSH1 0x20 SWAP1 DIV DUP2 ADD SWAP3 DUP3 PUSH2 0x414C JUMPI PUSH1 0x0 DUP6 SSTORE PUSH2 0x4193 JUMP JUMPDEST DUP3 PUSH1 0x1F LT PUSH2 0x4165 JUMPI DUP1 CALLDATALOAD PUSH1 0xFF NOT AND DUP4 DUP1 ADD OR DUP6 SSTORE PUSH2 0x4193 JUMP JUMPDEST DUP3 DUP1 ADD PUSH1 0x1 ADD DUP6 SSTORE DUP3 ISZERO PUSH2 0x4193 JUMPI SWAP2 DUP3 ADD JUMPDEST DUP3 DUP2 GT ISZERO PUSH2 0x4192 JUMPI DUP3 CALLDATALOAD DUP3 SSTORE SWAP2 PUSH1 0x20 ADD SWAP2 SWAP1 PUSH1 0x1 ADD SWAP1 PUSH2 0x4177 JUMP JUMPDEST JUMPDEST POP SWAP1 POP PUSH2 0x41A0 SWAP2 SWAP1 PUSH2 0x41A4 JUMP JUMPDEST POP SWAP1 JUMP JUMPDEST JUMPDEST DUP1 DUP3 GT ISZERO PUSH2 0x41BD JUMPI PUSH1 0x0 DUP2 PUSH1 0x0 SWAP1 SSTORE POP PUSH1 0x1 ADD PUSH2 0x41A5 JUMP JUMPDEST POP SWAP1 JUMP JUMPDEST PUSH1 0x0 PUSH1 0x40 MLOAD SWAP1 POP SWAP1 JUMP JUMPDEST PUSH1 0x0 DUP1 REVERT JUMPDEST PUSH1 0x0 DUP1 REVERT JUMPDEST PUSH1 0x0 PUSH2 0xFFFF DUP3 AND SWAP1 POP SWAP2 SWAP1 POP JUMP JUMPDEST PUSH2 0x41EC DUP2 PUSH2 0x41D5 JUMP JUMPDEST DUP2 EQ PUSH2 0x41F7 JUMPI PUSH1 0x0 DUP1 REVERT JUMPDEST POP JUMP JUMPDEST PUSH1 0x0 DUP2 CALLDATALOAD SWAP1 POP PUSH2 0x4209 DUP2 PUSH2 0x41E3 JUMP JUMPDEST SWAP3 SWAP2 POP POP JUMP JUMPDEST PUSH1 0x0 DUP1 REVERT JUMPDEST PUSH1 0x0 DUP1 REVERT JUMPDEST PUSH1 0x0 PUSH1 0x1F NOT PUSH1 0x1F DUP4 ADD AND SWAP1 POP SWAP2 SWAP1 POP JUMP JUMPDEST PUSH32 0x4E487B7100000000000000000000000000000000000000000000000000000000 PUSH1 0x0 MSTORE PUSH1 0x41 PUSH1 0x4 MSTORE PUSH1 0x24 PUSH1 0x0 REVERT JUMPDEST PUSH2 0x4262 DUP3 PUSH2 0x4219 JUMP JUMPDEST DUP2 ADD DUP2 DUP2 LT PUSH8 0xFFFFFFFFFFFFFFFF DUP3 GT OR ISZERO PUSH2 0x4281 JUMPI PUSH2 0x4280 PUSH2 0x422A JUMP JUMPDEST JUMPDEST DUP1 PUSH1 0x40 MSTORE POP POP POP JUMP JUMPDEST PUSH1 0x0 PUSH2 0x4294 PUSH2 0x41C1 JUMP JUMPDEST SWAP1 POP PUSH2 0x42A0 DUP3 DUP3 PUSH2 0x4259 JUMP JUMPDEST SWAP2 SWAP1 POP JUMP JUMPDEST PUSH1 0x0 PUSH8 0xFFFFFFFFFFFFFFFF DUP3 GT ISZERO PUSH2 0x42C0 JUMPI PUSH2 0x42BF PUSH2 0x422A JUMP JUMPDEST JUMPDEST PUSH2 0x42C9 DUP3 PUSH2 0x4219 JUMP JUMPDEST SWAP1 POP PUSH1 0x20 DUP2 ADD SWAP1 POP SWAP2 SWAP1 POP JUMP JUMPDEST DUP3 DUP2 DUP4 CALLDATACOPY PUSH1 0x0 DUP4 DUP4 ADD MSTORE POP POP POP JUMP JUMPDEST PUSH1 0x0 PUSH2 0x42F8 PUSH2 0x42F3 DUP5 PUSH2 0x42A5 JUMP JUMPDEST PUSH2 0x428A JUMP JUMPDEST SWAP1 POP DUP3 DUP2 MSTORE PUSH1 0x20 DUP2 ADD DUP5 DUP5 DUP5 ADD GT ISZERO PUSH2 0x4314 JUMPI PUSH2 0x4313 PUSH2 0x4214 JUMP JUMPDEST JUMPDEST PUSH2 0x431F DUP5 DUP3 DUP6 PUSH2 0x42D6 JUMP JUMPDEST POP SWAP4 SWAP3 POP POP POP JUMP JUMPDEST PUSH1 0x0 DUP3 PUSH1 0x1F DUP4 ADD SLT PUSH2 0x433C JUMPI PUSH2 0x433B PUSH2 0x420F JUMP JUMPDEST JUMPDEST DUP2 CALLDATALOAD PUSH2 0x434C DUP5 DUP3 PUSH1 0x20 DUP7 ADD PUSH2 0x42E5 JUMP JUMPDEST SWAP2 POP POP SWAP3 SWAP2 POP POP JUMP JUMPDEST PUSH1 0x0 PUSH8 0xFFFFFFFFFFFFFFFF DUP3 AND SWAP1 POP SWAP2 SWAP1 POP JUMP JUMPDEST PUSH2 0x4372 DUP2 PUSH2 0x4355 JUMP JUMPDEST DUP2 EQ PUSH2 0x437D JUMPI PUSH1 0x0 DUP1 REVERT JUMPDEST POP JUMP JUMPDEST PUSH1 0x0 DUP2 CALLDATALOAD SWAP1 POP PUSH2 0x438F DUP2 PUSH2 0x4369 JUMP JUMPDEST SWAP3 SWAP2 POP POP JUMP JUMPDEST PUSH1 0x0 DUP1 PUSH1 0x0 DUP1 PUSH1 0x80 DUP6 DUP8 SUB SLT ISZERO PUSH2 0x43AF JUMPI PUSH2 0x43AE PUSH2 0x41CB JUMP JUMPDEST JUMPDEST PUSH1 0x0 PUSH2 0x43BD DUP8 DUP3 DUP9 ADD PUSH2 0x41FA JUMP JUMPDEST SWAP5 POP POP PUSH1 0x20 DUP6 ADD CALLDATALOAD PUSH8 0xFFFFFFFFFFFFFFFF DUP2 GT ISZERO PUSH2 0x43DE JUMPI PUSH2 0x43DD PUSH2 0x41D0 JUMP JUMPDEST JUMPDEST PUSH2 0x43EA DUP8 DUP3 DUP9 ADD PUSH2 0x4327 JUMP JUMPDEST SWAP4 POP POP PUSH1 0x40 PUSH2 0x43FB DUP8 DUP3 DUP9 ADD PUSH2 0x4380 JUMP JUMPDEST SWAP3 POP POP PUSH1 0x60 DUP6 ADD CALLDATALOAD PUSH8 0xFFFFFFFFFFFFFFFF DUP2 GT ISZERO PUSH2 0x441C JUMPI PUSH2 0x441B PUSH2 0x41D0 JUMP JUMPDEST JUMPDEST PUSH2 0x4428 DUP8 DUP3 DUP9 ADD PUSH2 0x4327 JUMP JUMPDEST SWAP2 POP POP SWAP3 SWAP6 SWAP2 SWAP5 POP SWAP3 POP JUMP JUMPDEST PUSH1 0x0 PUSH32 0xFFFFFFFF00000000000000000000000000000000000000000000000000000000 DUP3 AND SWAP1 POP SWAP2 SWAP1 POP JUMP JUMPDEST PUSH2 0x4469 DUP2 PUSH2 0x4434 JUMP JUMPDEST DUP2 EQ PUSH2 0x4474 JUMPI PUSH1 0x0 DUP1 REVERT JUMPDEST POP JUMP JUMPDEST PUSH1 0x0 DUP2 CALLDATALOAD SWAP1 POP PUSH2 0x4486 DUP2 PUSH2 0x4460 JUMP JUMPDEST SWAP3 SWAP2 POP POP JUMP JUMPDEST PUSH1 0x0 PUSH1 0x20 DUP3 DUP5 SUB SLT ISZERO PUSH2 0x44A2 JUMPI PUSH2 0x44A1 PUSH2 0x41CB JUMP JUMPDEST JUMPDEST PUSH1 0x0 PUSH2 0x44B0 DUP5 DUP3 DUP6 ADD PUSH2 0x4477 JUMP JUMPDEST SWAP2 POP POP SWAP3 SWAP2 POP POP JUMP JUMPDEST PUSH1 0x0 DUP2 ISZERO ISZERO SWAP1 POP SWAP2 SWAP1 POP JUMP JUMPDEST PUSH2 0x44CE DUP2 PUSH2 0x44B9 JUMP JUMPDEST DUP3 MSTORE POP POP JUMP JUMPDEST PUSH1 0x0 PUSH1 0x20 DUP3 ADD SWAP1 POP PUSH2 0x44E9 PUSH1 0x0 DUP4 ADD DUP5 PUSH2 0x44C5 JUMP JUMPDEST SWAP3 SWAP2 POP POP JUMP JUMPDEST PUSH2 0x44F8 DUP2 PUSH2 0x44B9 JUMP JUMPDEST DUP2 EQ PUSH2 0x4503 JUMPI PUSH1 0x0 DUP1 REVERT JUMPDEST POP JUMP JUMPDEST PUSH1 0x0 DUP2 CALLDATALOAD SWAP1 POP PUSH2 0x4515 DUP2 PUSH2 0x44EF JUMP JUMPDEST SWAP3 SWAP2 POP POP JUMP JUMPDEST PUSH1 0x0 PUSH1 0x20 DUP3 DUP5 SUB SLT ISZERO PUSH2 0x4531 JUMPI PUSH2 0x4530 PUSH2 0x41CB JUMP JUMPDEST JUMPDEST PUSH1 0x0 PUSH2 0x453F DUP5 DUP3 DUP6 ADD PUSH2 0x4506 JUMP JUMPDEST SWAP2 POP POP SWAP3 SWAP2 POP POP JUMP JUMPDEST PUSH1 0x0 DUP2 MLOAD SWAP1 POP SWAP2 SWAP1 POP JUMP JUMPDEST PUSH1 0x0 DUP3 DUP3 MSTORE PUSH1 0x20 DUP3 ADD SWAP1 POP SWAP3 SWAP2 POP POP JUMP JUMPDEST PUSH1 0x0 JUMPDEST DUP4 DUP2 LT ISZERO PUSH2 0x4582 JUMPI DUP1 DUP3 ADD MLOAD DUP2 DUP5 ADD MSTORE PUSH1 0x20 DUP2 ADD SWAP1 POP PUSH2 0x4567 JUMP JUMPDEST DUP4 DUP2 GT ISZERO PUSH2 0x4591 JUMPI PUSH1 0x0 DUP5 DUP5 ADD MSTORE JUMPDEST POP POP POP POP JUMP JUMPDEST PUSH1 0x0 PUSH2 0x45A2 DUP3 PUSH2 0x4548 JUMP JUMPDEST PUSH2 0x45AC DUP2 DUP6 PUSH2 0x4553 JUMP JUMPDEST SWAP4 POP PUSH2 0x45BC DUP2 DUP6 PUSH1 0x20 DUP7 ADD PUSH2 0x4564 JUMP JUMPDEST PUSH2 0x45C5 DUP2 PUSH2 0x4219 JUMP JUMPDEST DUP5 ADD SWAP2 POP POP SWAP3 SWAP2 POP POP JUMP JUMPDEST PUSH1 0x0 PUSH1 0x20 DUP3 ADD SWAP1 POP DUP2 DUP2 SUB PUSH1 0x0 DUP4 ADD MSTORE PUSH2 0x45EA DUP2 DUP5 PUSH2 0x4597 JUMP JUMPDEST SWAP1 POP SWAP3 SWAP2 POP POP JUMP JUMPDEST PUSH1 0x0 PUSH1 0x20 DUP3 DUP5 SUB SLT ISZERO PUSH2 0x4608 JUMPI PUSH2 0x4607 PUSH2 0x41CB JUMP JUMPDEST JUMPDEST PUSH1 0x0 PUSH2 0x4616 DUP5 DUP3 DUP6 ADD PUSH2 0x41FA JUMP JUMPDEST SWAP2 POP POP SWAP3 SWAP2 POP POP JUMP JUMPDEST PUSH1 0x0 DUP2 SWAP1 POP SWAP2 SWAP1 POP JUMP JUMPDEST PUSH2 0x4632 DUP2 PUSH2 0x461F JUMP JUMPDEST DUP2 EQ PUSH2 0x463D JUMPI PUSH1 0x0 DUP1 REVERT JUMPDEST POP JUMP JUMPDEST PUSH1 0x0 DUP2 CALLDATALOAD SWAP1 POP PUSH2 0x464F DUP2 PUSH2 0x4629 JUMP JUMPDEST SWAP3 SWAP2 POP POP JUMP JUMPDEST PUSH1 0x0 PUSH1 0x20 DUP3 DUP5 SUB SLT ISZERO PUSH2 0x466B JUMPI PUSH2 0x466A PUSH2 0x41CB JUMP JUMPDEST JUMPDEST PUSH1 0x0 PUSH2 0x4679 DUP5 DUP3 DUP6 ADD PUSH2 0x4640 JUMP JUMPDEST SWAP2 POP POP SWAP3 SWAP2 POP POP JUMP JUMPDEST PUSH1 0x0 PUSH20 0xFFFFFFFFFFFFFFFFFFFFFFFFFFFFFFFFFFFFFFFF DUP3 AND SWAP1 POP SWAP2 SWAP1 POP JUMP JUMPDEST PUSH1 0x0 PUSH2 0x46AD DUP3 PUSH2 0x4682 JUMP JUMPDEST SWAP1 POP SWAP2 SWAP1 POP JUMP JUMPDEST PUSH2 0x46BD DUP2 PUSH2 0x46A2 JUMP JUMPDEST DUP3 MSTORE POP POP JUMP JUMPDEST PUSH1 0x0 PUSH1 0x20 DUP3 ADD SWAP1 POP PUSH2 0x46D8 PUSH1 0x0 DUP4 ADD DUP5 PUSH2 0x46B4 JUMP JUMPDEST SWAP3 SWAP2 POP POP JUMP JUMPDEST PUSH2 0x46E7 DUP2 PUSH2 0x46A2 JUMP JUMPDEST DUP2 EQ PUSH2 0x46F2 JUMPI PUSH1 0x0 DUP1 REVERT JUMPDEST POP JUMP JUMPDEST PUSH1 0x0 DUP2 CALLDATALOAD SWAP1 POP PUSH2 0x4704 DUP2 PUSH2 0x46DE JUMP JUMPDEST SWAP3 SWAP2 POP POP JUMP JUMPDEST PUSH1 0x0 DUP1 PUSH1 0x40 DUP4 DUP6 SUB SLT ISZERO PUSH2 0x4721 JUMPI PUSH2 0x4720 PUSH2 0x41CB JUMP JUMPDEST JUMPDEST PUSH1 0x0 PUSH2 0x472F DUP6 DUP3 DUP7 ADD PUSH2 0x46F5 JUMP JUMPDEST SWAP3 POP POP PUSH1 0x20 PUSH2 0x4740 DUP6 DUP3 DUP7 ADD PUSH2 0x4640 JUMP JUMPDEST SWAP2 POP POP SWAP3 POP SWAP3 SWAP1 POP JUMP JUMPDEST PUSH2 0x4753 DUP2 PUSH2 0x461F JUMP JUMPDEST DUP3 MSTORE POP POP JUMP JUMPDEST PUSH1 0x0 PUSH1 0x20 DUP3 ADD SWAP1 POP PUSH2 0x476E PUSH1 0x0 DUP4 ADD DUP5 PUSH2 0x474A JUMP JUMPDEST SWAP3 SWAP2 POP POP JUMP JUMPDEST PUSH1 0x0 DUP1 PUSH1 0x0 PUSH1 0x60 DUP5 DUP7 SUB SLT ISZERO PUSH2 0x478D JUMPI PUSH2 0x478C PUSH2 0x41CB JUMP JUMPDEST JUMPDEST PUSH1 0x0 PUSH2 0x479B DUP7 DUP3 DUP8 ADD PUSH2 0x46F5 JUMP JUMPDEST SWAP4 POP POP PUSH1 0x20 PUSH2 0x47AC DUP7 DUP3 DUP8 ADD PUSH2 0x46F5 JUMP JUMPDEST SWAP3 POP POP PUSH1 0x40 PUSH2 0x47BD DUP7 DUP3 DUP8 ADD PUSH2 0x4640 JUMP JUMPDEST SWAP2 POP POP SWAP3 POP SWAP3 POP SWAP3 JUMP JUMPDEST PUSH1 0x0 PUSH1 0x20 DUP3 DUP5 SUB SLT ISZERO PUSH2 0x47DD JUMPI PUSH2 0x47DC PUSH2 0x41CB JUMP JUMPDEST JUMPDEST PUSH1 0x0 PUSH2 0x47EB DUP5 DUP3 DUP6 ADD PUSH2 0x46F5 JUMP JUMPDEST SWAP2 POP POP SWAP3 SWAP2 POP POP JUMP JUMPDEST PUSH1 0x0 DUP1 REVERT JUMPDEST PUSH1 0x0 DUP1 REVERT JUMPDEST PUSH1 0x0 DUP1 DUP4 PUSH1 0x1F DUP5 ADD SLT PUSH2 0x4814 JUMPI PUSH2 0x4813 PUSH2 0x420F JUMP JUMPDEST JUMPDEST DUP3 CALLDATALOAD SWAP1 POP PUSH8 0xFFFFFFFFFFFFFFFF DUP2 GT ISZERO PUSH2 0x4831 JUMPI PUSH2 0x4830 PUSH2 0x47F4 JUMP JUMPDEST JUMPDEST PUSH1 0x20 DUP4 ADD SWAP2 POP DUP4 PUSH1 0x1 DUP3 MUL DUP4 ADD GT ISZERO PUSH2 0x484D JUMPI PUSH2 0x484C PUSH2 0x47F9 JUMP JUMPDEST JUMPDEST SWAP3 POP SWAP3 SWAP1 POP JUMP JUMPDEST PUSH1 0x0 DUP1 PUSH1 0x0 PUSH1 0x40 DUP5 DUP7 SUB SLT ISZERO PUSH2 0x486D JUMPI PUSH2 0x486C PUSH2 0x41CB JUMP JUMPDEST JUMPDEST PUSH1 0x0 PUSH2 0x487B DUP7 DUP3 DUP8 ADD PUSH2 0x41FA JUMP JUMPDEST SWAP4 POP POP PUSH1 0x20 DUP5 ADD CALLDATALOAD PUSH8 0xFFFFFFFFFFFFFFFF DUP2 GT ISZERO PUSH2 0x489C JUMPI PUSH2 0x489B PUSH2 0x41D0 JUMP JUMPDEST JUMPDEST PUSH2 0x48A8 DUP7 DUP3 DUP8 ADD PUSH2 0x47FE JUMP JUMPDEST SWAP3 POP SWAP3 POP POP SWAP3 POP SWAP3 POP SWAP3 JUMP JUMPDEST PUSH1 0x0 PUSH2 0x48BF DUP3 PUSH2 0x4682 JUMP JUMPDEST SWAP1 POP SWAP2 SWAP1 POP JUMP JUMPDEST PUSH2 0x48CF DUP2 PUSH2 0x48B4 JUMP JUMPDEST DUP2 EQ PUSH2 0x48DA JUMPI PUSH1 0x0 DUP1 REVERT JUMPDEST POP JUMP JUMPDEST PUSH1 0x0 DUP2 CALLDATALOAD SWAP1 POP PUSH2 0x48EC DUP2 PUSH2 0x48C6 JUMP JUMPDEST SWAP3 SWAP2 POP POP JUMP JUMPDEST PUSH1 0x0 DUP1 PUSH1 0x0 DUP1 PUSH1 0x0 DUP1 PUSH1 0x0 DUP1 PUSH1 0x0 PUSH1 0xE0 DUP11 DUP13 SUB SLT ISZERO PUSH2 0x4914 JUMPI PUSH2 0x4913 PUSH2 0x41CB JUMP JUMPDEST JUMPDEST PUSH1 0x0 PUSH2 0x4922 DUP13 DUP3 DUP14 ADD PUSH2 0x46F5 JUMP JUMPDEST SWAP10 POP POP PUSH1 0x20 PUSH2 0x4933 DUP13 DUP3 DUP14 ADD PUSH2 0x41FA JUMP JUMPDEST SWAP9 POP POP PUSH1 0x40 DUP11 ADD CALLDATALOAD PUSH8 0xFFFFFFFFFFFFFFFF DUP2 GT ISZERO PUSH2 0x4954 JUMPI PUSH2 0x4953 PUSH2 0x41D0 JUMP JUMPDEST JUMPDEST PUSH2 0x4960 DUP13 DUP3 DUP14 ADD PUSH2 0x47FE JUMP JUMPDEST SWAP8 POP SWAP8 POP POP PUSH1 0x60 PUSH2 0x4973 DUP13 DUP3 DUP14 ADD PUSH2 0x4640 JUMP JUMPDEST SWAP6 POP POP PUSH1 0x80 PUSH2 0x4984 DUP13 DUP3 DUP14 ADD PUSH2 0x48DD JUMP JUMPDEST SWAP5 POP POP PUSH1 0xA0 PUSH2 0x4995 DUP13 DUP3 DUP14 ADD PUSH2 0x46F5 JUMP JUMPDEST SWAP4 POP POP PUSH1 0xC0 DUP11 ADD CALLDATALOAD PUSH8 0xFFFFFFFFFFFFFFFF DUP2 GT ISZERO PUSH2 0x49B6 JUMPI PUSH2 0x49B5 PUSH2 0x41D0 JUMP JUMPDEST JUMPDEST PUSH2 0x49C2 DUP13 DUP3 DUP14 ADD PUSH2 0x47FE JUMP JUMPDEST SWAP3 POP SWAP3 POP POP SWAP3 SWAP6 SWAP9 POP SWAP3 SWAP6 SWAP9 POP SWAP3 SWAP6 SWAP9 JUMP JUMPDEST PUSH1 0x0 PUSH8 0xFFFFFFFFFFFFFFFF DUP3 GT ISZERO PUSH2 0x49EF JUMPI PUSH2 0x49EE PUSH2 0x422A JUMP JUMPDEST JUMPDEST PUSH1 0x20 DUP3 MUL SWAP1 POP SWAP2 SWAP1 POP JUMP JUMPDEST PUSH1 0x0 PUSH2 0x4A0D PUSH2 0x4A08 DUP5 PUSH2 0x49D4 JUMP JUMPDEST PUSH2 0x428A JUMP JUMPDEST SWAP1 POP DUP1 PUSH1 0x20 DUP5 MUL DUP4 ADD DUP6 DUP2 GT ISZERO PUSH2 0x4A27 JUMPI PUSH2 0x4A26 PUSH2 0x47F9 JUMP JUMPDEST JUMPDEST DUP4 JUMPDEST DUP2 DUP2 LT ISZERO PUSH2 0x4A50 JUMPI DUP1 PUSH2 0x4A3C DUP9 DUP3 PUSH2 0x46F5 JUMP JUMPDEST DUP5 MSTORE PUSH1 0x20 DUP5 ADD SWAP4 POP POP PUSH1 0x20 DUP2 ADD SWAP1 POP PUSH2 0x4A29 JUMP JUMPDEST POP POP POP SWAP4 SWAP3 POP POP POP JUMP JUMPDEST PUSH1 0x0 DUP3 PUSH1 0x1F DUP4 ADD SLT PUSH2 0x4A6F JUMPI PUSH2 0x4A6E PUSH2 0x420F JUMP JUMPDEST JUMPDEST PUSH1 0x64 PUSH2 0x4A7C DUP5 DUP3 DUP6 PUSH2 0x49FA JUMP JUMPDEST SWAP2 POP POP SWAP3 SWAP2 POP POP JUMP JUMPDEST PUSH1 0x0 PUSH2 0xC80 DUP3 DUP5 SUB SLT ISZERO PUSH2 0x4A9C JUMPI PUSH2 0x4A9B PUSH2 0x41CB JUMP JUMPDEST JUMPDEST PUSH1 0x0 PUSH2 0x4AAA DUP5 DUP3 DUP6 ADD PUSH2 0x4A5A JUMP JUMPDEST SWAP2 POP POP SWAP3 SWAP2 POP POP JUMP JUMPDEST PUSH1 0x0 PUSH8 0xFFFFFFFFFFFFFFFF DUP3 GT ISZERO PUSH2 0x4ACE JUMPI PUSH2 0x4ACD PUSH2 0x422A JUMP JUMPDEST JUMPDEST PUSH2 0x4AD7 DUP3 PUSH2 0x4219 JUMP JUMPDEST SWAP1 POP PUSH1 0x20 DUP2 ADD SWAP1 POP SWAP2 SWAP1 POP JUMP JUMPDEST PUSH1 0x0 PUSH2 0x4AF7 PUSH2 0x4AF2 DUP5 PUSH2 0x4AB3 JUMP JUMPDEST PUSH2 0x428A JUMP JUMPDEST SWAP1 POP DUP3 DUP2 MSTORE PUSH1 0x20 DUP2 ADD DUP5 DUP5 DUP5 ADD GT ISZERO PUSH2 0x4B13 JUMPI PUSH2 0x4B12 PUSH2 0x4214 JUMP JUMPDEST JUMPDEST PUSH2 0x4B1E DUP5 DUP3 DUP6 PUSH2 0x42D6 JUMP JUMPDEST POP SWAP4 SWAP3 POP POP POP JUMP JUMPDEST PUSH1 0x0 DUP3 PUSH1 0x1F DUP4 ADD SLT PUSH2 0x4B3B JUMPI PUSH2 0x4B3A PUSH2 0x420F JUMP JUMPDEST JUMPDEST DUP2 CALLDATALOAD PUSH2 0x4B4B DUP5 DUP3 PUSH1 0x20 DUP7 ADD PUSH2 0x4AE4 JUMP JUMPDEST SWAP2 POP POP SWAP3 SWAP2 POP POP JUMP JUMPDEST PUSH1 0x0 PUSH1 0x20 DUP3 DUP5 SUB SLT ISZERO PUSH2 0x4B6A JUMPI PUSH2 0x4B69 PUSH2 0x41CB JUMP JUMPDEST JUMPDEST PUSH1 0x0 DUP3 ADD CALLDATALOAD PUSH8 0xFFFFFFFFFFFFFFFF DUP2 GT ISZERO PUSH2 0x4B88 JUMPI PUSH2 0x4B87 PUSH2 0x41D0 JUMP JUMPDEST JUMPDEST PUSH2 0x4B94 DUP5 DUP3 DUP6 ADD PUSH2 0x4B26 JUMP JUMPDEST SWAP2 POP POP SWAP3 SWAP2 POP POP JUMP JUMPDEST PUSH1 0x0 DUP2 MLOAD SWAP1 POP SWAP2 SWAP1 POP JUMP JUMPDEST PUSH1 0x0 DUP3 DUP3 MSTORE PUSH1 0x20 DUP3 ADD SWAP1 POP SWAP3 SWAP2 POP POP JUMP JUMPDEST PUSH1 0x0 PUSH2 0x4BC4 DUP3 PUSH2 0x4B9D JUMP JUMPDEST PUSH2 0x4BCE DUP2 DUP6 PUSH2 0x4BA8 JUMP JUMPDEST SWAP4 POP PUSH2 0x4BDE DUP2 DUP6 PUSH1 0x20 DUP7 ADD PUSH2 0x4564 JUMP JUMPDEST PUSH2 0x4BE7 DUP2 PUSH2 0x4219 JUMP JUMPDEST DUP5 ADD SWAP2 POP POP SWAP3 SWAP2 POP POP JUMP JUMPDEST PUSH1 0x0 PUSH1 0x20 DUP3 ADD SWAP1 POP DUP2 DUP2 SUB PUSH1 0x0 DUP4 ADD MSTORE PUSH2 0x4C0C DUP2 DUP5 PUSH2 0x4BB9 JUMP JUMPDEST SWAP1 POP SWAP3 SWAP2 POP POP JUMP JUMPDEST PUSH1 0x0 DUP1 PUSH1 0x0 PUSH1 0x60 DUP5 DUP7 SUB SLT ISZERO PUSH2 0x4C2D JUMPI PUSH2 0x4C2C PUSH2 0x41CB JUMP JUMPDEST JUMPDEST PUSH1 0x0 PUSH2 0x4C3B DUP7 DUP3 DUP8 ADD PUSH2 0x41FA JUMP JUMPDEST SWAP4 POP POP PUSH1 0x20 DUP5 ADD CALLDATALOAD PUSH8 0xFFFFFFFFFFFFFFFF DUP2 GT ISZERO PUSH2 0x4C5C JUMPI PUSH2 0x4C5B PUSH2 0x41D0 JUMP JUMPDEST JUMPDEST PUSH2 0x4C68 DUP7 DUP3 DUP8 ADD PUSH2 0x4327 JUMP JUMPDEST SWAP3 POP POP PUSH1 0x40 PUSH2 0x4C79 DUP7 DUP3 DUP8 ADD PUSH2 0x4640 JUMP JUMPDEST SWAP2 POP POP SWAP3 POP SWAP3 POP SWAP3 JUMP JUMPDEST PUSH1 0x0 DUP2 SWAP1 POP SWAP2 SWAP1 POP JUMP JUMPDEST PUSH2 0x4C96 DUP2 PUSH2 0x4C83 JUMP JUMPDEST DUP3 MSTORE POP POP JUMP JUMPDEST PUSH1 0x0 PUSH1 0x20 DUP3 ADD SWAP1 POP PUSH2 0x4CB1 PUSH1 0x0 DUP4 ADD DUP5 PUSH2 0x4C8D JUMP JUMPDEST SWAP3 SWAP2 POP POP JUMP JUMPDEST PUSH1 0x0 DUP1 PUSH1 0x40 DUP4 DUP6 SUB SLT ISZERO PUSH2 0x4CCE JUMPI PUSH2 0x4CCD PUSH2 0x41CB JUMP JUMPDEST JUMPDEST PUSH1 0x0 PUSH2 0x4CDC DUP6 DUP3 DUP7 ADD PUSH2 0x46F5 JUMP JUMPDEST SWAP3 POP POP PUSH1 0x20 PUSH2 0x4CED DUP6 DUP3 DUP7 ADD PUSH2 0x4506 JUMP JUMPDEST SWAP2 POP POP SWAP3 POP SWAP3 SWAP1 POP JUMP JUMPDEST PUSH1 0x0 DUP1 PUSH1 0x0 DUP1 PUSH1 0x80 DUP6 DUP8 SUB SLT ISZERO PUSH2 0x4D11 JUMPI PUSH2 0x4D10 PUSH2 0x41CB JUMP JUMPDEST JUMPDEST PUSH1 0x0 PUSH2 0x4D1F DUP8 DUP3 DUP9 ADD PUSH2 0x46F5 JUMP JUMPDEST SWAP5 POP POP PUSH1 0x20 PUSH2 0x4D30 DUP8 DUP3 DUP9 ADD PUSH2 0x46F5 JUMP JUMPDEST SWAP4 POP POP PUSH1 0x40 PUSH2 0x4D41 DUP8 DUP3 DUP9 ADD PUSH2 0x4640 JUMP JUMPDEST SWAP3 POP POP PUSH1 0x60 DUP6 ADD CALLDATALOAD PUSH8 0xFFFFFFFFFFFFFFFF DUP2 GT ISZERO PUSH2 0x4D62 JUMPI PUSH2 0x4D61 PUSH2 0x41D0 JUMP JUMPDEST JUMPDEST PUSH2 0x4D6E DUP8 DUP3 DUP9 ADD PUSH2 0x4327 JUMP JUMPDEST SWAP2 POP POP SWAP3 SWAP6 SWAP2 SWAP5 POP SWAP3 POP JUMP JUMPDEST PUSH1 0x0 DUP1 PUSH1 0x0 DUP1 PUSH1 0x0 PUSH1 0x80 DUP7 DUP9 SUB SLT ISZERO PUSH2 0x4D96 JUMPI PUSH2 0x4D95 PUSH2 0x41CB JUMP JUMPDEST JUMPDEST PUSH1 0x0 PUSH2 0x4DA4 DUP9 DUP3 DUP10 ADD PUSH2 0x41FA JUMP JUMPDEST SWAP6 POP POP PUSH1 0x20 PUSH2 0x4DB5 DUP9 DUP3 DUP10 ADD PUSH2 0x41FA JUMP JUMPDEST SWAP5 POP POP PUSH1 0x40 PUSH2 0x4DC6 DUP9 DUP3 DUP10 ADD PUSH2 0x4640 JUMP JUMPDEST SWAP4 POP POP PUSH1 0x60 DUP7 ADD CALLDATALOAD PUSH8 0xFFFFFFFFFFFFFFFF DUP2 GT ISZERO PUSH2 0x4DE7 JUMPI PUSH2 0x4DE6 PUSH2 0x41D0 JUMP JUMPDEST JUMPDEST PUSH2 0x4DF3 DUP9 DUP3 DUP10 ADD PUSH2 0x47FE JUMP JUMPDEST SWAP3 POP SWAP3 POP POP SWAP3 SWAP6 POP SWAP3 SWAP6 SWAP1 SWAP4 POP JUMP JUMPDEST PUSH1 0x0 DUP1 PUSH1 0x0 DUP1 PUSH1 0x0 PUSH1 0x80 DUP7 DUP9 SUB SLT ISZERO PUSH2 0x4E1E JUMPI PUSH2 0x4E1D PUSH2 0x41CB JUMP JUMPDEST JUMPDEST PUSH1 0x0 PUSH2 0x4E2C DUP9 DUP3 DUP10 ADD PUSH2 0x41FA JUMP JUMPDEST SWAP6 POP POP PUSH1 0x20 DUP7 ADD CALLDATALOAD PUSH8 0xFFFFFFFFFFFFFFFF DUP2 GT ISZERO PUSH2 0x4E4D JUMPI PUSH2 0x4E4C PUSH2 0x41D0 JUMP JUMPDEST JUMPDEST PUSH2 0x4E59 DUP9 DUP3 DUP10 ADD PUSH2 0x4327 JUMP JUMPDEST SWAP5 POP POP PUSH1 0x40 PUSH2 0x4E6A DUP9 DUP3 DUP10 ADD PUSH2 0x4380 JUMP JUMPDEST SWAP4 POP POP PUSH1 0x60 DUP7 ADD CALLDATALOAD PUSH8 0xFFFFFFFFFFFFFFFF DUP2 GT ISZERO PUSH2 0x4E8B JUMPI PUSH2 0x4E8A PUSH2 0x41D0 JUMP JUMPDEST JUMPDEST PUSH2 0x4E97 DUP9 DUP3 DUP10 ADD PUSH2 0x47FE JUMP JUMPDEST SWAP3 POP SWAP3 POP POP SWAP3 SWAP6 POP SWAP3 SWAP6 SWAP1 SWAP4 POP JUMP JUMPDEST PUSH1 0x0 DUP1 PUSH1 0x40 DUP4 DUP6 SUB SLT ISZERO PUSH2 0x4EBD JUMPI PUSH2 0x4EBC PUSH2 0x41CB JUMP JUMPDEST JUMPDEST PUSH1 0x0 PUSH2 0x4ECB DUP6 DUP3 DUP7 ADD PUSH2 0x46F5 JUMP JUMPDEST SWAP3 POP POP PUSH1 0x20 PUSH2 0x4EDC DUP6 DUP3 DUP7 ADD PUSH2 0x46F5 JUMP JUMPDEST SWAP2 POP POP SWAP3 POP SWAP3 SWAP1 POP JUMP JUMPDEST PUSH1 0x0 DUP1 PUSH1 0x0 DUP1 PUSH1 0x0 DUP1 PUSH1 0x0 DUP1 PUSH1 0xC0 DUP10 DUP12 SUB SLT ISZERO PUSH2 0x4F06 JUMPI PUSH2 0x4F05 PUSH2 0x41CB JUMP JUMPDEST JUMPDEST PUSH1 0x0 PUSH2 0x4F14 DUP12 DUP3 DUP13 ADD PUSH2 0x41FA JUMP JUMPDEST SWAP9 POP POP PUSH1 0x20 DUP10 ADD CALLDATALOAD PUSH8 0xFFFFFFFFFFFFFFFF DUP2 GT ISZERO PUSH2 0x4F35 JUMPI PUSH2 0x4F34 PUSH2 0x41D0 JUMP JUMPDEST JUMPDEST PUSH2 0x4F41 DUP12 DUP3 DUP13 ADD PUSH2 0x47FE JUMP JUMPDEST SWAP8 POP SWAP8 POP POP PUSH1 0x40 PUSH2 0x4F54 DUP12 DUP3 DUP13 ADD PUSH2 0x4640 JUMP JUMPDEST SWAP6 POP POP PUSH1 0x60 PUSH2 0x4F65 DUP12 DUP3 DUP13 ADD PUSH2 0x48DD JUMP JUMPDEST SWAP5 POP POP PUSH1 0x80 PUSH2 0x4F76 DUP12 DUP3 DUP13 ADD PUSH2 0x46F5 JUMP JUMPDEST SWAP4 POP POP PUSH1 0xA0 DUP10 ADD CALLDATALOAD PUSH8 0xFFFFFFFFFFFFFFFF DUP2 GT ISZERO PUSH2 0x4F97 JUMPI PUSH2 0x4F96 PUSH2 0x41D0 JUMP JUMPDEST JUMPDEST PUSH2 0x4FA3 DUP12 DUP3 DUP13 ADD PUSH2 0x47FE JUMP JUMPDEST SWAP3 POP SWAP3 POP POP SWAP3 SWAP6 SWAP9 POP SWAP3 SWAP6 SWAP9 SWAP1 SWAP4 SWAP7 POP JUMP JUMPDEST PUSH1 0x0 DUP1 PUSH1 0x0 DUP1 PUSH1 0x80 DUP6 DUP8 SUB SLT ISZERO PUSH2 0x4FCF JUMPI PUSH2 0x4FCE PUSH2 0x41CB JUMP JUMPDEST JUMPDEST PUSH1 0x0 PUSH2 0x4FDD DUP8 DUP3 DUP9 ADD PUSH2 0x41FA JUMP JUMPDEST SWAP5 POP POP PUSH1 0x20 PUSH2 0x4FEE DUP8 DUP3 DUP9 ADD PUSH2 0x41FA JUMP JUMPDEST SWAP4 POP POP PUSH1 0x40 PUSH2 0x4FFF DUP8 DUP3 DUP9 ADD PUSH2 0x46F5 JUMP JUMPDEST SWAP3 POP POP PUSH1 0x60 PUSH2 0x5010 DUP8 DUP3 DUP9 ADD PUSH2 0x4640 JUMP JUMPDEST SWAP2 POP POP SWAP3 SWAP6 SWAP2 SWAP5 POP SWAP3 POP JUMP JUMPDEST PUSH32 0x4E487B7100000000000000000000000000000000000000000000000000000000 PUSH1 0x0 MSTORE PUSH1 0x22 PUSH1 0x4 MSTORE PUSH1 0x24 PUSH1 0x0 REVERT JUMPDEST PUSH1 0x0 PUSH1 0x2 DUP3 DIV SWAP1 POP PUSH1 0x1 DUP3 AND DUP1 PUSH2 0x5063 JUMPI PUSH1 0x7F DUP3 AND SWAP2 POP JUMPDEST PUSH1 0x20 DUP3 LT DUP2 EQ ISZERO PUSH2 0x5077 JUMPI PUSH2 0x5076 PUSH2 0x501C JUMP JUMPDEST JUMPDEST POP SWAP2 SWAP1 POP JUMP JUMPDEST PUSH1 0x0 DUP2 SWAP1 POP SWAP3 SWAP2 POP POP JUMP JUMPDEST PUSH1 0x0 DUP2 SWAP1 POP DUP2 PUSH1 0x0 MSTORE PUSH1 0x20 PUSH1 0x0 KECCAK256 SWAP1 POP SWAP2 SWAP1 POP JUMP JUMPDEST PUSH1 0x0 DUP2 SLOAD PUSH2 0x50AA DUP2 PUSH2 0x504B JUMP JUMPDEST PUSH2 0x50B4 DUP2 DUP7 PUSH2 0x507D JUMP JUMPDEST SWAP5 POP PUSH1 0x1 DUP3 AND PUSH1 0x0 DUP2 EQ PUSH2 0x50CF JUMPI PUSH1 0x1 DUP2 EQ PUSH2 0x50E0 JUMPI PUSH2 0x5113 JUMP JUMPDEST PUSH1 0xFF NOT DUP4 AND DUP7 MSTORE DUP2 DUP7 ADD SWAP4 POP PUSH2 0x5113 JUMP JUMPDEST PUSH2 0x50E9 DUP6 PUSH2 0x5088 JUMP JUMPDEST PUSH1 0x0 JUMPDEST DUP4 DUP2 LT ISZERO PUSH2 0x510B JUMPI DUP2 SLOAD DUP2 DUP10 ADD MSTORE PUSH1 0x1 DUP3 ADD SWAP2 POP PUSH1 0x20 DUP2 ADD SWAP1 POP PUSH2 0x50EC JUMP JUMPDEST DUP4 DUP9 ADD SWAP6 POP POP POP JUMPDEST POP POP POP SWAP3 SWAP2 POP POP JUMP JUMPDEST PUSH1 0x0 PUSH2 0x5128 DUP3 DUP5 PUSH2 0x509D JUMP JUMPDEST SWAP2 POP DUP2 SWAP1 POP SWAP3 SWAP2 POP POP JUMP JUMPDEST PUSH32 0x4C7A52656365697665723A20696E76616C696420736F757263652073656E6469 PUSH1 0x0 DUP3 ADD MSTORE PUSH32 0x6E6720636F6E7472616374000000000000000000000000000000000000000000 PUSH1 0x20 DUP3 ADD MSTORE POP JUMP JUMPDEST PUSH1 0x0 PUSH2 0x518F PUSH1 0x2B DUP4 PUSH2 0x4553 JUMP JUMPDEST SWAP2 POP PUSH2 0x519A DUP3 PUSH2 0x5133 JUMP JUMPDEST PUSH1 0x40 DUP3 ADD SWAP1 POP SWAP2 SWAP1 POP JUMP JUMPDEST PUSH1 0x0 PUSH1 0x20 DUP3 ADD SWAP1 POP DUP2 DUP2 SUB PUSH1 0x0 DUP4 ADD MSTORE PUSH2 0x51BE DUP2 PUSH2 0x5182 JUMP JUMPDEST SWAP1 POP SWAP2 SWAP1 POP JUMP JUMPDEST PUSH32 0x4F776E61626C653A2063616C6C6572206973206E6F7420746865206F776E6572 PUSH1 0x0 DUP3 ADD MSTORE POP JUMP JUMPDEST PUSH1 0x0 PUSH2 0x51FB PUSH1 0x20 DUP4 PUSH2 0x4553 JUMP JUMPDEST SWAP2 POP PUSH2 0x5206 DUP3 PUSH2 0x51C5 JUMP JUMPDEST PUSH1 0x20 DUP3 ADD SWAP1 POP SWAP2 SWAP1 POP JUMP JUMPDEST PUSH1 0x0 PUSH1 0x20 DUP3 ADD SWAP1 POP DUP2 DUP2 SUB PUSH1 0x0 DUP4 ADD MSTORE PUSH2 0x522A DUP2 PUSH2 0x51EE JUMP JUMPDEST SWAP1 POP SWAP2 SWAP1 POP JUMP JUMPDEST PUSH2 0x523A DUP2 PUSH2 0x41D5 JUMP JUMPDEST DUP3 MSTORE POP POP JUMP JUMPDEST PUSH1 0x0 PUSH1 0x20 DUP3 ADD SWAP1 POP PUSH2 0x5255 PUSH1 0x0 DUP4 ADD DUP5 PUSH2 0x5231 JUMP JUMPDEST SWAP3 SWAP2 POP POP JUMP JUMPDEST PUSH32 0x4552433732313A20617070726F76656420717565727920666F72206E6F6E6578 PUSH1 0x0 DUP3 ADD MSTORE PUSH32 0x697374656E7420746F6B656E0000000000000000000000000000000000000000 PUSH1 0x20 DUP3 ADD MSTORE POP JUMP JUMPDEST PUSH1 0x0 PUSH2 0x52B7 PUSH1 0x2C DUP4 PUSH2 0x4553 JUMP JUMPDEST SWAP2 POP PUSH2 0x52C2 DUP3 PUSH2 0x525B JUMP JUMPDEST PUSH1 0x40 DUP3 ADD SWAP1 POP SWAP2 SWAP1 POP JUMP JUMPDEST PUSH1 0x0 PUSH1 0x20 DUP3 ADD SWAP1 POP DUP2 DUP2 SUB PUSH1 0x0 DUP4 ADD MSTORE PUSH2 0x52E6 DUP2 PUSH2 0x52AA JUMP JUMPDEST SWAP1 POP SWAP2 SWAP1 POP JUMP JUMPDEST PUSH32 0x4552433732313A20617070726F76616C20746F2063757272656E74206F776E65 PUSH1 0x0 DUP3 ADD MSTORE PUSH32 0x7200000000000000000000000000000000000000000000000000000000000000 PUSH1 0x20 DUP3 ADD MSTORE POP JUMP JUMPDEST PUSH1 0x0 PUSH2 0x5349 PUSH1 0x21 DUP4 PUSH2 0x4553 JUMP JUMPDEST SWAP2 POP PUSH2 0x5354 DUP3 PUSH2 0x52ED JUMP JUMPDEST PUSH1 0x40 DUP3 ADD SWAP1 POP SWAP2 SWAP1 POP JUMP JUMPDEST PUSH1 0x0 PUSH1 0x20 DUP3 ADD SWAP1 POP DUP2 DUP2 SUB PUSH1 0x0 DUP4 ADD MSTORE PUSH2 0x5378 DUP2 PUSH2 0x533C JUMP JUMPDEST SWAP1 POP SWAP2 SWAP1 POP JUMP JUMPDEST PUSH32 0x4552433732313A20617070726F76652063616C6C6572206973206E6F74206F77 PUSH1 0x0 DUP3 ADD MSTORE PUSH32 0x6E6572206E6F7220617070726F76656420666F7220616C6C0000000000000000 PUSH1 0x20 DUP3 ADD MSTORE POP JUMP JUMPDEST PUSH1 0x0 PUSH2 0x53DB PUSH1 0x38 DUP4 PUSH2 0x4553 JUMP JUMPDEST SWAP2 POP PUSH2 0x53E6 DUP3 PUSH2 0x537F JUMP JUMPDEST PUSH1 0x40 DUP3 ADD SWAP1 POP SWAP2 SWAP1 POP JUMP JUMPDEST PUSH1 0x0 PUSH1 0x20 DUP3 ADD SWAP1 POP DUP2 DUP2 SUB PUSH1 0x0 DUP4 ADD MSTORE PUSH2 0x540A DUP2 PUSH2 0x53CE JUMP JUMPDEST SWAP1 POP SWAP2 SWAP1 POP JUMP JUMPDEST PUSH32 0x47656E746C6520446F67676965733A204D6178204D696E74206C696D69742072 PUSH1 0x0 DUP3 ADD MSTORE PUSH32 0x6561636865640000000000000000000000000000000000000000000000000000 PUSH1 0x20 DUP3 ADD MSTORE POP JUMP JUMPDEST PUSH1 0x0 PUSH2 0x546D PUSH1 0x26 DUP4 PUSH2 0x4553 JUMP JUMPDEST SWAP2 POP PUSH2 0x5478 DUP3 PUSH2 0x5411 JUMP JUMPDEST PUSH1 0x40 DUP3 ADD SWAP1 POP SWAP2 SWAP1 POP JUMP JUMPDEST PUSH1 0x0 PUSH1 0x20 DUP3 ADD SWAP1 POP DUP2 DUP2 SUB PUSH1 0x0 DUP4 ADD MSTORE PUSH2 0x549C DUP2 PUSH2 0x5460 JUMP JUMPDEST SWAP1 POP SWAP2 SWAP1 POP JUMP JUMPDEST PUSH32 0x4E487B7100000000000000000000000000000000000000000000000000000000 PUSH1 0x0 MSTORE PUSH1 0x11 PUSH1 0x4 MSTORE PUSH1 0x24 PUSH1 0x0 REVERT JUMPDEST PUSH1 0x0 PUSH2 0x54DD DUP3 PUSH2 0x461F JUMP JUMPDEST SWAP2 POP PUSH32 0xFFFFFFFFFFFFFFFFFFFFFFFFFFFFFFFFFFFFFFFFFFFFFFFFFFFFFFFFFFFFFFFF DUP3 EQ ISZERO PUSH2 0x5510 JUMPI PUSH2 0x550F PUSH2 0x54A3 JUMP JUMPDEST JUMPDEST PUSH1 0x1 DUP3 ADD SWAP1 POP SWAP2 SWAP1 POP JUMP JUMPDEST PUSH32 0x4552433732313A207472616E736665722063616C6C6572206973206E6F74206F PUSH1 0x0 DUP3 ADD MSTORE PUSH32 0x776E6572206E6F7220617070726F766564000000000000000000000000000000 PUSH1 0x20 DUP3 ADD MSTORE POP JUMP JUMPDEST PUSH1 0x0 PUSH2 0x5577 PUSH1 0x31 DUP4 PUSH2 0x4553 JUMP JUMPDEST SWAP2 POP PUSH2 0x5582 DUP3 PUSH2 0x551B JUMP JUMPDEST PUSH1 0x40 DUP3 ADD SWAP1 POP SWAP2 SWAP1 POP JUMP JUMPDEST PUSH1 0x0 PUSH1 0x20 DUP3 ADD SWAP1 POP DUP2 DUP2 SUB PUSH1 0x0 DUP4 ADD MSTORE PUSH2 0x55A6 DUP2 PUSH2 0x556A JUMP JUMPDEST SWAP1 POP SWAP2 SWAP1 POP JUMP JUMPDEST POP JUMP JUMPDEST PUSH1 0x0 PUSH2 0x55BD PUSH1 0x0 DUP4 PUSH2 0x507D JUMP JUMPDEST SWAP2 POP PUSH2 0x55C8 DUP3 PUSH2 0x55AD JUMP JUMPDEST PUSH1 0x0 DUP3 ADD SWAP1 POP SWAP2 SWAP1 POP JUMP JUMPDEST PUSH1 0x0 PUSH2 0x55DE DUP3 PUSH2 0x55B0 JUMP JUMPDEST SWAP2 POP DUP2 SWAP1 POP SWAP2 SWAP1 POP JUMP JUMPDEST PUSH1 0x0 PUSH2 0x55F4 DUP4 DUP6 PUSH2 0x507D JUMP JUMPDEST SWAP4 POP PUSH2 0x5601 DUP4 DUP6 DUP5 PUSH2 0x42D6 JUMP JUMPDEST DUP3 DUP5 ADD SWAP1 POP SWAP4 SWAP3 POP POP POP JUMP JUMPDEST PUSH1 0x0 PUSH2 0x561A DUP3 DUP5 DUP7 PUSH2 0x55E8 JUMP JUMPDEST SWAP2 POP DUP2 SWAP1 POP SWAP4 SWAP3 POP POP POP JUMP JUMPDEST PUSH1 0x0 PUSH2 0x5632 DUP4 DUP6 PUSH2 0x4BA8 JUMP JUMPDEST SWAP4 POP PUSH2 0x563F DUP4 DUP6 DUP5 PUSH2 0x42D6 JUMP JUMPDEST PUSH2 0x5648 DUP4 PUSH2 0x4219 JUMP JUMPDEST DUP5 ADD SWAP1 POP SWAP4 SWAP3 POP POP POP JUMP JUMPDEST PUSH1 0x0 PUSH1 0x40 DUP3 ADD SWAP1 POP PUSH2 0x5668 PUSH1 0x0 DUP4 ADD DUP7 PUSH2 0x5231 JUMP JUMPDEST DUP2 DUP2 SUB PUSH1 0x20 DUP4 ADD MSTORE PUSH2 0x567B DUP2 DUP5 DUP7 PUSH2 0x5626 JUMP JUMPDEST SWAP1 POP SWAP5 SWAP4 POP POP POP POP JUMP JUMPDEST PUSH32 0x4E487B7100000000000000000000000000000000000000000000000000000000 PUSH1 0x0 MSTORE PUSH1 0x32 PUSH1 0x4 MSTORE PUSH1 0x24 PUSH1 0x0 REVERT JUMPDEST PUSH32 0x4552433732313A206F776E657220717565727920666F72206E6F6E6578697374 PUSH1 0x0 DUP3 ADD MSTORE PUSH32 0x656E7420746F6B656E0000000000000000000000000000000000000000000000 PUSH1 0x20 DUP3 ADD MSTORE POP JUMP JUMPDEST PUSH1 0x0 PUSH2 0x5710 PUSH1 0x29 DUP4 PUSH2 0x4553 JUMP JUMPDEST SWAP2 POP PUSH2 0x571B DUP3 PUSH2 0x56B4 JUMP JUMPDEST PUSH1 0x40 DUP3 ADD SWAP1 POP SWAP2 SWAP1 POP JUMP JUMPDEST PUSH1 0x0 PUSH1 0x20 DUP3 ADD SWAP1 POP DUP2 DUP2 SUB PUSH1 0x0 DUP4 ADD MSTORE PUSH2 0x573F DUP2 PUSH2 0x5703 JUMP JUMPDEST SWAP1 POP SWAP2 SWAP1 POP JUMP JUMPDEST PUSH32 0x4C7A52656365697665723A2063616C6C6572206D757374206265204272696467 PUSH1 0x0 DUP3 ADD MSTORE PUSH32 0x652E000000000000000000000000000000000000000000000000000000000000 PUSH1 0x20 DUP3 ADD MSTORE POP JUMP JUMPDEST PUSH1 0x0 PUSH2 0x57A2 PUSH1 0x22 DUP4 PUSH2 0x4553 JUMP JUMPDEST SWAP2 POP PUSH2 0x57AD DUP3 PUSH2 0x5746 JUMP JUMPDEST PUSH1 0x40 DUP3 ADD SWAP1 POP SWAP2 SWAP1 POP JUMP JUMPDEST PUSH1 0x0 PUSH1 0x20 DUP3 ADD SWAP1 POP DUP2 DUP2 SUB PUSH1 0x0 DUP4 ADD MSTORE PUSH2 0x57D1 DUP2 PUSH2 0x5795 JUMP JUMPDEST SWAP1 POP SWAP2 SWAP1 POP JUMP JUMPDEST PUSH32 0x4552433732313A2062616C616E636520717565727920666F7220746865207A65 PUSH1 0x0 DUP3 ADD MSTORE PUSH32 0x726F206164647265737300000000000000000000000000000000000000000000 PUSH1 0x20 DUP3 ADD MSTORE POP JUMP JUMPDEST PUSH1 0x0 PUSH2 0x5834 PUSH1 0x2A DUP4 PUSH2 0x4553 JUMP JUMPDEST SWAP2 POP PUSH2 0x583F DUP3 PUSH2 0x57D8 JUMP JUMPDEST PUSH1 0x40 DUP3 ADD SWAP1 POP SWAP2 SWAP1 POP JUMP JUMPDEST PUSH1 0x0 PUSH1 0x20 DUP3 ADD SWAP1 POP DUP2 DUP2 SUB PUSH1 0x0 DUP4 ADD MSTORE PUSH2 0x5863 DUP2 PUSH2 0x5827 JUMP JUMPDEST SWAP1 POP SWAP2 SWAP1 POP JUMP JUMPDEST PUSH32 0x4552433732314D657461646174613A2055524920717565727920666F72206E6F PUSH1 0x0 DUP3 ADD MSTORE PUSH32 0x6E6578697374656E7420746F6B656E0000000000000000000000000000000000 PUSH1 0x20 DUP3 ADD MSTORE POP JUMP JUMPDEST PUSH1 0x0 PUSH2 0x58C6 PUSH1 0x2F DUP4 PUSH2 0x4553 JUMP JUMPDEST SWAP2 POP PUSH2 0x58D1 DUP3 PUSH2 0x586A JUMP JUMPDEST PUSH1 0x40 DUP3 ADD SWAP1 POP SWAP2 SWAP1 POP JUMP JUMPDEST PUSH1 0x0 PUSH1 0x20 DUP3 ADD SWAP1 POP DUP2 DUP2 SUB PUSH1 0x0 DUP4 ADD MSTORE PUSH2 0x58F5 DUP2 PUSH2 0x58B9 JUMP JUMPDEST SWAP1 POP SWAP2 SWAP1 POP JUMP JUMPDEST PUSH1 0x0 DUP2 SWAP1 POP SWAP3 SWAP2 POP POP JUMP JUMPDEST PUSH1 0x0 PUSH2 0x5912 DUP3 PUSH2 0x4548 JUMP JUMPDEST PUSH2 0x591C DUP2 DUP6 PUSH2 0x58FC JUMP JUMPDEST SWAP4 POP PUSH2 0x592C DUP2 DUP6 PUSH1 0x20 DUP7 ADD PUSH2 0x4564 JUMP JUMPDEST DUP1 DUP5 ADD SWAP2 POP POP SWAP3 SWAP2 POP POP JUMP JUMPDEST PUSH1 0x0 PUSH2 0x5944 DUP3 DUP6 PUSH2 0x5907 JUMP JUMPDEST SWAP2 POP PUSH2 0x5950 DUP3 DUP5 PUSH2 0x5907 JUMP JUMPDEST SWAP2 POP DUP2 SWAP1 POP SWAP4 SWAP3 POP POP POP JUMP JUMPDEST PUSH1 0x0 PUSH1 0x80 DUP3 ADD SWAP1 POP PUSH2 0x5971 PUSH1 0x0 DUP4 ADD DUP9 PUSH2 0x5231 JUMP JUMPDEST PUSH2 0x597E PUSH1 0x20 DUP4 ADD DUP8 PUSH2 0x5231 JUMP JUMPDEST PUSH2 0x598B PUSH1 0x40 DUP4 ADD DUP7 PUSH2 0x474A JUMP JUMPDEST DUP2 DUP2 SUB PUSH1 0x60 DUP4 ADD MSTORE PUSH2 0x599E DUP2 DUP5 DUP7 PUSH2 0x5626 JUMP JUMPDEST SWAP1 POP SWAP7 SWAP6 POP POP POP POP POP POP JUMP JUMPDEST PUSH1 0x0 PUSH2 0x59B5 DUP3 PUSH2 0x4B9D JUMP JUMPDEST PUSH2 0x59BF DUP2 DUP6 PUSH2 0x507D JUMP JUMPDEST SWAP4 POP PUSH2 0x59CF DUP2 DUP6 PUSH1 0x20 DUP7 ADD PUSH2 0x4564 JUMP JUMPDEST DUP1 DUP5 ADD SWAP2 POP POP SWAP3 SWAP2 POP POP JUMP JUMPDEST PUSH1 0x0 PUSH2 0x59E7 DUP3 DUP5 PUSH2 0x59AA JUMP JUMPDEST SWAP2 POP DUP2 SWAP1 POP SWAP3 SWAP2 POP POP JUMP JUMPDEST PUSH32 0x4C7A52656365697665723A206E6F2073746F726564206D657373616765000000 PUSH1 0x0 DUP3 ADD MSTORE POP JUMP JUMPDEST PUSH1 0x0 PUSH2 0x5A28 PUSH1 0x1D DUP4 PUSH2 0x4553 JUMP JUMPDEST SWAP2 POP PUSH2 0x5A33 DUP3 PUSH2 0x59F2 JUMP JUMPDEST PUSH1 0x20 DUP3 ADD SWAP1 POP SWAP2 SWAP1 POP JUMP JUMPDEST PUSH1 0x0 PUSH1 0x20 DUP3 ADD SWAP1 POP DUP2 DUP2 SUB PUSH1 0x0 DUP4 ADD MSTORE PUSH2 0x5A57 DUP2 PUSH2 0x5A1B JUMP JUMPDEST SWAP1 POP SWAP2 SWAP1 POP JUMP JUMPDEST PUSH32 0x4C7A52656365697665723A20696E76616C6964207061796C6F61640000000000 PUSH1 0x0 DUP3 ADD MSTORE POP JUMP JUMPDEST PUSH1 0x0 PUSH2 0x5A94 PUSH1 0x1B DUP4 PUSH2 0x4553 JUMP JUMPDEST SWAP2 POP PUSH2 0x5A9F DUP3 PUSH2 0x5A5E JUMP JUMPDEST PUSH1 0x20 DUP3 ADD SWAP1 POP SWAP2 SWAP1 POP JUMP JUMPDEST PUSH1 0x0 PUSH1 0x20 DUP3 ADD SWAP1 POP DUP2 DUP2 SUB PUSH1 0x0 DUP4 ADD MSTORE PUSH2 0x5AC3 DUP2 PUSH2 0x5A87 JUMP JUMPDEST SWAP1 POP SWAP2 SWAP1 POP JUMP JUMPDEST PUSH2 0x5AD3 DUP2 PUSH2 0x4355 JUMP JUMPDEST DUP3 MSTORE POP POP JUMP JUMPDEST PUSH1 0x0 PUSH1 0x80 DUP3 ADD SWAP1 POP PUSH2 0x5AEE PUSH1 0x0 DUP4 ADD DUP9 PUSH2 0x5231 JUMP JUMPDEST DUP2 DUP2 SUB PUSH1 0x20 DUP4 ADD MSTORE PUSH2 0x5B00 DUP2 DUP8 PUSH2 0x4BB9 JUMP JUMPDEST SWAP1 POP PUSH2 0x5B0F PUSH1 0x40 DUP4 ADD DUP7 PUSH2 0x5ACA JUMP JUMPDEST DUP2 DUP2 SUB PUSH1 0x60 DUP4 ADD MSTORE PUSH2 0x5B22 DUP2 DUP5 DUP7 PUSH2 0x5626 JUMP JUMPDEST SWAP1 POP SWAP7 SWAP6 POP POP POP POP POP POP JUMP JUMPDEST PUSH32 0x4F776E61626C653A206E6577206F776E657220697320746865207A65726F2061 PUSH1 0x0 DUP3 ADD MSTORE PUSH32 0x6464726573730000000000000000000000000000000000000000000000000000 PUSH1 0x20 DUP3 ADD MSTORE POP JUMP JUMPDEST PUSH1 0x0 PUSH2 0x5B8A PUSH1 0x26 DUP4 PUSH2 0x4553 JUMP JUMPDEST SWAP2 POP PUSH2 0x5B95 DUP3 PUSH2 0x5B2E JUMP JUMPDEST PUSH1 0x40 DUP3 ADD SWAP1 POP SWAP2 SWAP1 POP JUMP JUMPDEST PUSH1 0x0 PUSH1 0x20 DUP3 ADD SWAP1 POP DUP2 DUP2 SUB PUSH1 0x0 DUP4 ADD MSTORE PUSH2 0x5BB9 DUP2 PUSH2 0x5B7D JUMP JUMPDEST SWAP1 POP SWAP2 SWAP1 POP JUMP JUMPDEST PUSH1 0x0 DUP2 MLOAD SWAP1 POP PUSH2 0x5BCF DUP2 PUSH2 0x41E3 JUMP JUMPDEST SWAP3 SWAP2 POP POP JUMP JUMPDEST PUSH1 0x0 PUSH1 0x20 DUP3 DUP5 SUB SLT ISZERO PUSH2 0x5BEB JUMPI PUSH2 0x5BEA PUSH2 0x41CB JUMP JUMPDEST JUMPDEST PUSH1 0x0 PUSH2 0x5BF9 DUP5 DUP3 DUP6 ADD PUSH2 0x5BC0 JUMP JUMPDEST SWAP2 POP POP SWAP3 SWAP2 POP POP JUMP JUMPDEST PUSH1 0x0 PUSH1 0x80 DUP3 ADD SWAP1 POP PUSH2 0x5C17 PUSH1 0x0 DUP4 ADD DUP8 PUSH2 0x5231 JUMP JUMPDEST PUSH2 0x5C24 PUSH1 0x20 DUP4 ADD DUP7 PUSH2 0x5231 JUMP JUMPDEST PUSH2 0x5C31 PUSH1 0x40 DUP4 ADD DUP6 PUSH2 0x46B4 JUMP JUMPDEST PUSH2 0x5C3E PUSH1 0x60 DUP4 ADD DUP5 PUSH2 0x474A JUMP JUMPDEST SWAP6 SWAP5 POP POP POP POP POP JUMP JUMPDEST PUSH1 0x0 PUSH2 0x5C5A PUSH2 0x5C55 DUP5 PUSH2 0x42A5 JUMP JUMPDEST PUSH2 0x428A JUMP JUMPDEST SWAP1 POP DUP3 DUP2 MSTORE PUSH1 0x20 DUP2 ADD DUP5 DUP5 DUP5 ADD GT ISZERO PUSH2 0x5C76 JUMPI PUSH2 0x5C75 PUSH2 0x4214 JUMP JUMPDEST JUMPDEST PUSH2 0x5C81 DUP5 DUP3 DUP6 PUSH2 0x4564 JUMP JUMPDEST POP SWAP4 SWAP3 POP POP POP JUMP JUMPDEST PUSH1 0x0 DUP3 PUSH1 0x1F DUP4 ADD SLT PUSH2 0x5C9E JUMPI PUSH2 0x5C9D PUSH2 0x420F JUMP JUMPDEST JUMPDEST DUP2 MLOAD PUSH2 0x5CAE DUP5 DUP3 PUSH1 0x20 DUP7 ADD PUSH2 0x5C47 JUMP JUMPDEST SWAP2 POP POP SWAP3 SWAP2 POP POP JUMP JUMPDEST PUSH1 0x0 PUSH1 0x20 DUP3 DUP5 SUB SLT ISZERO PUSH2 0x5CCD JUMPI PUSH2 0x5CCC PUSH2 0x41CB JUMP JUMPDEST JUMPDEST PUSH1 0x0 DUP3 ADD MLOAD PUSH8 0xFFFFFFFFFFFFFFFF DUP2 GT ISZERO PUSH2 0x5CEB JUMPI PUSH2 0x5CEA PUSH2 0x41D0 JUMP JUMPDEST JUMPDEST PUSH2 0x5CF7 DUP5 DUP3 DUP6 ADD PUSH2 0x5C89 JUMP JUMPDEST SWAP2 POP POP SWAP3 SWAP2 POP POP JUMP JUMPDEST PUSH1 0x0 PUSH1 0x80 DUP3 ADD SWAP1 POP PUSH2 0x5D15 PUSH1 0x0 DUP4 ADD DUP8 PUSH2 0x5231 JUMP JUMPDEST DUP2 DUP2 SUB PUSH1 0x20 DUP4 ADD MSTORE PUSH2 0x5D27 DUP2 DUP7 PUSH2 0x4BB9 JUMP JUMPDEST SWAP1 POP PUSH2 0x5D36 PUSH1 0x40 DUP4 ADD DUP6 PUSH2 0x5ACA JUMP JUMPDEST DUP2 DUP2 SUB PUSH1 0x60 DUP4 ADD MSTORE PUSH2 0x5D48 DUP2 DUP5 PUSH2 0x4BB9 JUMP JUMPDEST SWAP1 POP SWAP6 SWAP5 POP POP POP POP POP JUMP JUMPDEST PUSH32 0x4552433732313A206F70657261746F7220717565727920666F72206E6F6E6578 PUSH1 0x0 DUP3 ADD MSTORE PUSH32 0x697374656E7420746F6B656E0000000000000000000000000000000000000000 PUSH1 0x20 DUP3 ADD MSTORE POP JUMP JUMPDEST PUSH1 0x0 PUSH2 0x5DAF PUSH1 0x2C DUP4 PUSH2 0x4553 JUMP JUMPDEST SWAP2 POP PUSH2 0x5DBA DUP3 PUSH2 0x5D53 JUMP JUMPDEST PUSH1 0x40 DUP3 ADD SWAP1 POP SWAP2 SWAP1 POP JUMP JUMPDEST PUSH1 0x0 PUSH1 0x20 DUP3 ADD SWAP1 POP DUP2 DUP2 SUB PUSH1 0x0 DUP4 ADD MSTORE PUSH2 0x5DDE DUP2 PUSH2 0x5DA2 JUMP JUMPDEST SWAP1 POP SWAP2 SWAP1 POP JUMP JUMPDEST PUSH32 0x4552433732313A207472616E736665722066726F6D20696E636F727265637420 PUSH1 0x0 DUP3 ADD MSTORE PUSH32 0x6F776E6572000000000000000000000000000000000000000000000000000000 PUSH1 0x20 DUP3 ADD MSTORE POP JUMP JUMPDEST PUSH1 0x0 PUSH2 0x5E41 PUSH1 0x25 DUP4 PUSH2 0x4553 JUMP JUMPDEST SWAP2 POP PUSH2 0x5E4C DUP3 PUSH2 0x5DE5 JUMP JUMPDEST PUSH1 0x40 DUP3 ADD SWAP1 POP SWAP2 SWAP1 POP JUMP JUMPDEST PUSH1 0x0 PUSH1 0x20 DUP3 ADD SWAP1 POP DUP2 DUP2 SUB PUSH1 0x0 DUP4 ADD MSTORE PUSH2 0x5E70 DUP2 PUSH2 0x5E34 JUMP JUMPDEST SWAP1 POP SWAP2 SWAP1 POP JUMP JUMPDEST PUSH32 0x4552433732313A207472616E7366657220746F20746865207A65726F20616464 PUSH1 0x0 DUP3 ADD MSTORE PUSH32 0x7265737300000000000000000000000000000000000000000000000000000000 PUSH1 0x20 DUP3 ADD MSTORE POP JUMP JUMPDEST PUSH1 0x0 PUSH2 0x5ED3 PUSH1 0x24 DUP4 PUSH2 0x4553 JUMP JUMPDEST SWAP2 POP PUSH2 0x5EDE DUP3 PUSH2 0x5E77 JUMP JUMPDEST PUSH1 0x40 DUP3 ADD SWAP1 POP SWAP2 SWAP1 POP JUMP JUMPDEST PUSH1 0x0 PUSH1 0x20 DUP3 ADD SWAP1 POP DUP2 DUP2 SUB PUSH1 0x0 DUP4 ADD MSTORE PUSH2 0x5F02 DUP2 PUSH2 0x5EC6 JUMP JUMPDEST SWAP1 POP SWAP2 SWAP1 POP JUMP JUMPDEST PUSH1 0x0 PUSH2 0x5F14 DUP3 PUSH2 0x461F JUMP JUMPDEST SWAP2 POP PUSH2 0x5F1F DUP4 PUSH2 0x461F JUMP JUMPDEST SWAP3 POP DUP3 DUP3 LT ISZERO PUSH2 0x5F32 JUMPI PUSH2 0x5F31 PUSH2 0x54A3 JUMP JUMPDEST JUMPDEST DUP3 DUP3 SUB SWAP1 POP SWAP3 SWAP2 POP POP JUMP JUMPDEST PUSH1 0x0 PUSH2 0x5F48 DUP3 PUSH2 0x461F JUMP JUMPDEST SWAP2 POP PUSH2 0x5F53 DUP4 PUSH2 0x461F JUMP JUMPDEST SWAP3 POP DUP3 PUSH32 0xFFFFFFFFFFFFFFFFFFFFFFFFFFFFFFFFFFFFFFFFFFFFFFFFFFFFFFFFFFFFFFFF SUB DUP3 GT ISZERO PUSH2 0x5F88 JUMPI PUSH2 0x5F87 PUSH2 0x54A3 JUMP JUMPDEST JUMPDEST DUP3 DUP3 ADD SWAP1 POP SWAP3 SWAP2 POP POP JUMP JUMPDEST PUSH1 0x0 PUSH1 0x40 DUP3 ADD SWAP1 POP DUP2 DUP2 SUB PUSH1 0x0 DUP4 ADD MSTORE PUSH2 0x5FAD DUP2 DUP6 PUSH2 0x4BB9 JUMP JUMPDEST SWAP1 POP PUSH2 0x5FBC PUSH1 0x20 DUP4 ADD DUP5 PUSH2 0x474A JUMP JUMPDEST SWAP4 SWAP3 POP POP POP JUMP JUMPDEST PUSH1 0x0 PUSH1 0x40 DUP3 ADD SWAP1 POP PUSH2 0x5FD8 PUSH1 0x0 DUP4 ADD DUP6 PUSH2 0x5231 JUMP JUMPDEST PUSH2 0x5FE5 PUSH1 0x20 DUP4 ADD DUP5 PUSH2 0x46B4 JUMP JUMPDEST SWAP4 SWAP3 POP POP POP JUMP JUMPDEST PUSH1 0x0 DUP2 MLOAD SWAP1 POP PUSH2 0x5FFB DUP2 PUSH2 0x4369 JUMP JUMPDEST SWAP3 SWAP2 POP POP JUMP JUMPDEST PUSH1 0x0 PUSH1 0x20 DUP3 DUP5 SUB SLT ISZERO PUSH2 0x6017 JUMPI PUSH2 0x6016 PUSH2 0x41CB JUMP JUMPDEST JUMPDEST PUSH1 0x0 PUSH2 0x6025 DUP5 DUP3 DUP6 ADD PUSH2 0x5FEC JUMP JUMPDEST SWAP2 POP POP SWAP3 SWAP2 POP POP JUMP JUMPDEST PUSH1 0x0 PUSH1 0x40 DUP3 ADD SWAP1 POP PUSH2 0x6043 PUSH1 0x0 DUP4 ADD DUP6 PUSH2 0x474A JUMP JUMPDEST PUSH2 0x6050 PUSH1 0x20 DUP4 ADD DUP5 PUSH2 0x5ACA JUMP JUMPDEST SWAP4 SWAP3 POP POP POP JUMP JUMPDEST PUSH1 0x0 DUP2 MLOAD SWAP1 POP PUSH2 0x6066 DUP2 PUSH2 0x4629 JUMP JUMPDEST SWAP3 SWAP2 POP POP JUMP JUMPDEST PUSH1 0x0 DUP1 PUSH1 0x40 DUP4 DUP6 SUB SLT ISZERO PUSH2 0x6083 JUMPI PUSH2 0x6082 PUSH2 0x41CB JUMP JUMPDEST JUMPDEST PUSH1 0x0 DUP4 ADD MLOAD PUSH8 0xFFFFFFFFFFFFFFFF DUP2 GT ISZERO PUSH2 0x60A1 JUMPI PUSH2 0x60A0 PUSH2 0x41D0 JUMP JUMPDEST JUMPDEST PUSH2 0x60AD DUP6 DUP3 DUP7 ADD PUSH2 0x5C89 JUMP JUMPDEST SWAP3 POP POP PUSH1 0x20 PUSH2 0x60BE DUP6 DUP3 DUP7 ADD PUSH2 0x6057 JUMP JUMPDEST SWAP2 POP POP SWAP3 POP SWAP3 SWAP1 POP JUMP JUMPDEST PUSH1 0x0 PUSH1 0x80 DUP3 ADD SWAP1 POP PUSH2 0x60DD PUSH1 0x0 DUP4 ADD DUP8 PUSH2 0x5231 JUMP JUMPDEST PUSH2 0x60EA PUSH1 0x20 DUP4 ADD DUP7 PUSH2 0x46B4 JUMP JUMPDEST PUSH2 0x60F7 PUSH1 0x40 DUP4 ADD DUP6 PUSH2 0x474A JUMP JUMPDEST PUSH2 0x6104 PUSH1 0x60 DUP4 ADD DUP5 PUSH2 0x5ACA JUMP JUMPDEST SWAP6 SWAP5 POP POP POP POP POP JUMP JUMPDEST PUSH32 0x4552433732313A20617070726F766520746F2063616C6C657200000000000000 PUSH1 0x0 DUP3 ADD MSTORE POP JUMP JUMPDEST PUSH1 0x0 PUSH2 0x6143 PUSH1 0x19 DUP4 PUSH2 0x4553 JUMP JUMPDEST SWAP2 POP PUSH2 0x614E DUP3 PUSH2 0x610D JUMP JUMPDEST PUSH1 0x20 DUP3 ADD SWAP1 POP SWAP2 SWAP1 POP JUMP JUMPDEST PUSH1 0x0 PUSH1 0x20 DUP3 ADD SWAP1 POP DUP2 DUP2 SUB PUSH1 0x0 DUP4 ADD MSTORE PUSH2 0x6172 DUP2 PUSH2 0x6136 JUMP JUMPDEST SWAP1 POP SWAP2 SWAP1 POP JUMP JUMPDEST PUSH32 0x4552433732313A207472616E7366657220746F206E6F6E204552433732315265 PUSH1 0x0 DUP3 ADD MSTORE PUSH32 0x63656976657220696D706C656D656E7465720000000000000000000000000000 PUSH1 0x20 DUP3 ADD MSTORE POP JUMP JUMPDEST PUSH1 0x0 PUSH2 0x61D5 PUSH1 0x32 DUP4 PUSH2 0x4553 JUMP JUMPDEST SWAP2 POP PUSH2 0x61E0 DUP3 PUSH2 0x6179 JUMP JUMPDEST PUSH1 0x40 DUP3 ADD SWAP1 POP SWAP2 SWAP1 POP JUMP JUMPDEST PUSH1 0x0 PUSH1 0x20 DUP3 ADD SWAP1 POP DUP2 DUP2 SUB PUSH1 0x0 DUP4 ADD MSTORE PUSH2 0x6204 DUP2 PUSH2 0x61C8 JUMP JUMPDEST SWAP1 POP SWAP2 SWAP1 POP JUMP JUMPDEST PUSH32 0x4E487B7100000000000000000000000000000000000000000000000000000000 PUSH1 0x0 MSTORE PUSH1 0x12 PUSH1 0x4 MSTORE PUSH1 0x24 PUSH1 0x0 REVERT JUMPDEST PUSH1 0x0 PUSH2 0x6245 DUP3 PUSH2 0x461F JUMP JUMPDEST SWAP2 POP PUSH2 0x6250 DUP4 PUSH2 0x461F JUMP JUMPDEST SWAP3 POP DUP3 PUSH2 0x6260 JUMPI PUSH2 0x625F PUSH2 0x620B JUMP JUMPDEST JUMPDEST DUP3 DUP3 DIV SWAP1 POP SWAP3 SWAP2 POP POP JUMP JUMPDEST PUSH1 0x0 PUSH2 0x6276 DUP3 PUSH2 0x461F JUMP JUMPDEST SWAP2 POP PUSH2 0x6281 DUP4 PUSH2 0x461F JUMP JUMPDEST SWAP3 POP DUP3 PUSH2 0x6291 JUMPI PUSH2 0x6290 PUSH2 0x620B JUMP JUMPDEST JUMPDEST DUP3 DUP3 MOD SWAP1 POP SWAP3 SWAP2 POP POP JUMP JUMPDEST PUSH32 0x4C7A53656E643A2064657374696E6174696F6E20636861696E206973206E6F74 PUSH1 0x0 DUP3 ADD MSTORE PUSH32 0x2061207472757374656420736F757263652E0000000000000000000000000000 PUSH1 0x20 DUP3 ADD MSTORE POP JUMP JUMPDEST PUSH1 0x0 PUSH2 0x62F8 PUSH1 0x32 DUP4 PUSH2 0x4553 JUMP JUMPDEST SWAP2 POP PUSH2 0x6303 DUP3 PUSH2 0x629C JUMP JUMPDEST PUSH1 0x40 DUP3 ADD SWAP1 POP SWAP2 SWAP1 POP JUMP JUMPDEST PUSH1 0x0 PUSH1 0x20 DUP3 ADD SWAP1 POP DUP2 DUP2 SUB PUSH1 0x0 DUP4 ADD MSTORE PUSH2 0x6327 DUP2 PUSH2 0x62EB JUMP JUMPDEST SWAP1 POP SWAP2 SWAP1 POP JUMP JUMPDEST PUSH1 0x0 DUP2 SLOAD PUSH2 0x633B DUP2 PUSH2 0x504B JUMP JUMPDEST PUSH2 0x6345 DUP2 DUP7 PUSH2 0x4BA8 JUMP JUMPDEST SWAP5 POP PUSH1 0x1 DUP3 AND PUSH1 0x0 DUP2 EQ PUSH2 0x6360 JUMPI PUSH1 0x1 DUP2 EQ PUSH2 0x6372 JUMPI PUSH2 0x63A5 JUMP JUMPDEST PUSH1 0xFF NOT DUP4 AND DUP7 MSTORE PUSH1 0x20 DUP7 ADD SWAP4 POP PUSH2 0x63A5 JUMP JUMPDEST PUSH2 0x637B DUP6 PUSH2 0x5088 JUMP JUMPDEST PUSH1 0x0 JUMPDEST DUP4 DUP2 LT ISZERO PUSH2 0x639D JUMPI DUP2 SLOAD DUP2 DUP10 ADD MSTORE PUSH1 0x1 DUP3 ADD SWAP2 POP PUSH1 0x20 DUP2 ADD SWAP1 POP PUSH2 0x637E JUMP JUMPDEST DUP1 DUP9 ADD SWAP6 POP POP POP JUMPDEST POP POP POP SWAP3 SWAP2 POP POP JUMP JUMPDEST PUSH2 0x63B7 DUP2 PUSH2 0x48B4 JUMP JUMPDEST DUP3 MSTORE POP POP JUMP JUMPDEST PUSH1 0x0 PUSH1 0xC0 DUP3 ADD SWAP1 POP PUSH2 0x63D2 PUSH1 0x0 DUP4 ADD DUP10 PUSH2 0x5231 JUMP JUMPDEST DUP2 DUP2 SUB PUSH1 0x20 DUP4 ADD MSTORE PUSH2 0x63E4 DUP2 DUP9 PUSH2 0x632E JUMP JUMPDEST SWAP1 POP DUP2 DUP2 SUB PUSH1 0x40 DUP4 ADD MSTORE PUSH2 0x63F8 DUP2 DUP8 PUSH2 0x4BB9 JUMP JUMPDEST SWAP1 POP PUSH2 0x6407 PUSH1 0x60 DUP4 ADD DUP7 PUSH2 0x63AE JUMP JUMPDEST PUSH2 0x6414 PUSH1 0x80 DUP4 ADD DUP6 PUSH2 0x46B4 JUMP JUMPDEST DUP2 DUP2 SUB PUSH1 0xA0 DUP4 ADD MSTORE PUSH2 0x6426 DUP2 DUP5 PUSH2 0x4BB9 JUMP JUMPDEST SWAP1 POP SWAP8 SWAP7 POP POP POP POP POP POP POP JUMP JUMPDEST PUSH1 0x0 PUSH1 0x80 DUP3 ADD SWAP1 POP PUSH2 0x6448 PUSH1 0x0 DUP4 ADD DUP8 PUSH2 0x46B4 JUMP JUMPDEST PUSH2 0x6455 PUSH1 0x20 DUP4 ADD DUP7 PUSH2 0x46B4 JUMP JUMPDEST PUSH2 0x6462 PUSH1 0x40 DUP4 ADD DUP6 PUSH2 0x474A JUMP JUMPDEST DUP2 DUP2 SUB PUSH1 0x60 DUP4 ADD MSTORE PUSH2 0x6474 DUP2 DUP5 PUSH2 0x4BB9 JUMP JUMPDEST SWAP1 POP SWAP6 SWAP5 POP POP POP POP POP JUMP JUMPDEST PUSH1 0x0 DUP2 MLOAD SWAP1 POP PUSH2 0x648E DUP2 PUSH2 0x4460 JUMP JUMPDEST SWAP3 SWAP2 POP POP JUMP JUMPDEST PUSH1 0x0 PUSH1 0x20 DUP3 DUP5 SUB SLT ISZERO PUSH2 0x64AA JUMPI PUSH2 0x64A9 PUSH2 0x41CB JUMP JUMPDEST JUMPDEST PUSH1 0x0 PUSH2 0x64B8 DUP5 DUP3 DUP6 ADD PUSH2 0x647F JUMP JUMPDEST SWAP2 POP POP SWAP3 SWAP2 POP POP JUMP JUMPDEST PUSH32 0x4552433732313A206D696E7420746F20746865207A65726F2061646472657373 PUSH1 0x0 DUP3 ADD MSTORE POP JUMP JUMPDEST PUSH1 0x0 PUSH2 0x64F7 PUSH1 0x20 DUP4 PUSH2 0x4553 JUMP JUMPDEST SWAP2 POP PUSH2 0x6502 DUP3 PUSH2 0x64C1 JUMP JUMPDEST PUSH1 0x20 DUP3 ADD SWAP1 POP SWAP2 SWAP1 POP JUMP JUMPDEST PUSH1 0x0 PUSH1 0x20 DUP3 ADD SWAP1 POP DUP2 DUP2 SUB PUSH1 0x0 DUP4 ADD MSTORE PUSH2 0x6526 DUP2 PUSH2 0x64EA JUMP JUMPDEST SWAP1 POP SWAP2 SWAP1 POP JUMP JUMPDEST PUSH32 0x4552433732313A20746F6B656E20616C7265616479206D696E74656400000000 PUSH1 0x0 DUP3 ADD MSTORE POP JUMP JUMPDEST PUSH1 0x0 PUSH2 0x6563 PUSH1 0x1C DUP4 PUSH2 0x4553 JUMP JUMPDEST SWAP2 POP PUSH2 0x656E DUP3 PUSH2 0x652D JUMP JUMPDEST PUSH1 0x20 DUP3 ADD SWAP1 POP SWAP2 SWAP1 POP JUMP JUMPDEST PUSH1 0x0 PUSH1 0x20 DUP3 ADD SWAP1 POP DUP2 DUP2 SUB PUSH1 0x0 DUP4 ADD MSTORE PUSH2 0x6592 DUP2 PUSH2 0x6556 JUMP JUMPDEST SWAP1 POP SWAP2 SWAP1 POP JUMP INVALID LOG2 PUSH5 0x6970667358 0x22 SLT KECCAK256 0x4E 0x4F 0xD2 0xED 0xBB CHAINID JUMPDEST 0xE4 CALLVALUE 0xE2 0x24 0x2C 0x5E GASLIMIT ORIGIN DUP4 0x4E PUSH18 0x383930EE20A7508FB77958B4BCC164736F6C PUSH4 0x43000809 STOP CALLER "
		},
		"gasEstimates": {
			"creation": {
				"codeDepositCost": "5212600",
				"executionCost": "infinite",
				"totalCost": "infinite"
			},
			"external": {
				"activateMint()": "26719",
				"add100PresaleUsers(address[100])": "infinite",
				"addPresaleUser(address)": "27141",
				"approve(address,uint256)": "infinite",
				"balanceOf(address)": "2947",
				"baseTokenURI()": "infinite",
				"cost()": "2542",
				"endMintId()": "infinite",
				"failedMessages(uint16,bytes,uint256)": "infinite",
				"forceResumeReceive(uint16,bytes)": "infinite",
				"getApproved(uint256)": "5273",
				"getConfig(uint16,uint16,address,uint256)": "infinite",
				"getLzEndpoint()": "infinite",
				"getTrustedRemote(uint16)": "infinite",
				"isApprovedForAll(address,address)": "infinite",
				"isMintActive()": "2560",
				"isTrustedRemote(uint16,bytes)": "infinite",
				"lzReceive(uint16,bytes,uint64,bytes)": "infinite",
				"maxMintAmount()": "2497",
				"maxMintId()": "2518",
				"maxSupply()": "2540",
				"mint()": "infinite",
				"name()": "infinite",
				"nextMintId()": "2542",
				"nonblockingLzReceive(uint16,bytes,uint64,bytes)": "infinite",
				"owner()": "2656",
				"ownerOf(uint256)": "3110",
				"pause(bool)": "27033",
				"paused()": "2582",
				"presaleCost()": "2541",
				"presaleWallets(address)": "2979",
				"removePresaleUser(address)": "27118",
				"removeWhitelistUser(address)": "27121",
				"renounceOwnership()": "30464",
				"retryMessage(uint16,bytes,uint64,bytes)": "infinite",
				"safeTransferFrom(address,address,uint256)": "infinite",
				"safeTransferFrom(address,address,uint256,bytes)": "infinite",
				"send(uint16,bytes,uint256,address,address,bytes)": "infinite",
				"sendFrom(address,uint16,bytes,uint256,address,address,bytes)": "infinite",
				"setApprovalForAll(address,bool)": "infinite",
				"setBaseURI(string)": "infinite",
				"setConfig(uint16,uint16,uint256,bytes)": "infinite",
				"setCost(uint256)": "24894",
				"setPresaleCost(uint256)": "24850",
				"setReceiveVersion(uint16)": "infinite",
				"setSendVersion(uint16)": "infinite",
				"setTrustedRemote(uint16,bytes)": "infinite",
				"setmaxMintAmount(uint256)": "24872",
				"startMintId()": "2520",
				"supportsInterface(bytes4)": "865",
				"symbol()": "infinite",
				"tokenURI(uint256)": "infinite",
				"transferFrom(address,address,uint256)": "infinite",
				"transferOwnership(address)": "30833",
				"whitelistUser(address)": "27120",
				"whitelisted(address)": "2978",
				"withdraw()": "infinite"
			}
		},
		"methodIdentifiers": {
			"activateMint()": "c91c0462",
			"add100PresaleUsers(address[100])": "546857c7",
			"addPresaleUser(address)": "b2f3e85e",
			"approve(address,uint256)": "095ea7b3",
			"balanceOf(address)": "70a08231",
			"baseTokenURI()": "d547cfb7",
			"cost()": "13faede6",
			"endMintId()": "d0f62e1b",
			"failedMessages(uint16,bytes,uint256)": "8ee74912",
			"forceResumeReceive(uint16,bytes)": "42d65a8d",
			"getApproved(uint256)": "081812fc",
			"getConfig(uint16,uint16,address,uint256)": "f5ecbdbc",
			"getLzEndpoint()": "dacbcbe2",
			"getTrustedRemote(uint16)": "69b41f95",
			"isApprovedForAll(address,address)": "e985e9c5",
			"isMintActive()": "5b92ac0d",
			"isTrustedRemote(uint16,bytes)": "3d8b38f6",
			"lzReceive(uint16,bytes,uint64,bytes)": "001d3567",
			"maxMintAmount()": "239c70ae",
			"maxMintId()": "e1d4c870",
			"maxSupply()": "d5abeb01",
			"mint()": "1249c58b",
			"name()": "06fdde03",
			"nextMintId()": "6aa99da3",
			"nonblockingLzReceive(uint16,bytes,uint64,bytes)": "66ad5c8a",
			"owner()": "8da5cb5b",
			"ownerOf(uint256)": "6352211e",
			"pause(bool)": "02329a29",
			"paused()": "5c975abb",
			"presaleCost()": "2a23d07d",
			"presaleWallets(address)": "30b2264e",
			"removePresaleUser(address)": "ed931e17",
			"removeWhitelistUser(address)": "30cc7ae0",
			"renounceOwnership()": "715018a6",
			"retryMessage(uint16,bytes,uint64,bytes)": "d1deba1f",
			"safeTransferFrom(address,address,uint256)": "42842e0e",
			"safeTransferFrom(address,address,uint256,bytes)": "b88d4fde",
			"send(uint16,bytes,uint256,address,address,bytes)": "eed33cef",
			"sendFrom(address,uint16,bytes,uint256,address,address,bytes)": "51905636",
			"setApprovalForAll(address,bool)": "a22cb465",
			"setBaseURI(string)": "55f804b3",
			"setConfig(uint16,uint16,uint256,bytes)": "cbed8b9c",
			"setCost(uint256)": "44a0d68a",
			"setPresaleCost(uint256)": "8fdcf942",
			"setReceiveVersion(uint16)": "10ddb137",
			"setSendVersion(uint16)": "07e0db17",
			"setTrustedRemote(uint16,bytes)": "eb8d72b7",
			"setmaxMintAmount(uint256)": "7f00c7a6",
			"startMintId()": "36ecd177",
			"supportsInterface(bytes4)": "01ffc9a7",
			"symbol()": "95d89b41",
			"tokenURI(uint256)": "c87b56dd",
			"transferFrom(address,address,uint256)": "23b872dd",
			"transferOwnership(address)": "f2fde38b",
			"whitelistUser(address)": "4a4c560d",
			"whitelisted(address)": "d936547e",
			"withdraw()": "3ccfd60b"
		}
	},
	"abi": [
		{
			"inputs": [
				{
					"internalType": "string",
					"name": "_name",
					"type": "string"
				},
				{
					"internalType": "string",
					"name": "_symbol",
					"type": "string"
				},
				{
					"internalType": "address",
					"name": "_layerZeroEndpoint",
					"type": "address"
				},
				{
					"internalType": "uint256",
					"name": "_startMintId",
					"type": "uint256"
				},
				{
					"internalType": "uint256",
					"name": "_endMintId",
					"type": "uint256"
				}
			],
			"stateMutability": "nonpayable",
			"type": "constructor"
		},
		{
			"anonymous": false,
			"inputs": [
				{
					"indexed": true,
					"internalType": "address",
					"name": "owner",
					"type": "address"
				},
				{
					"indexed": true,
					"internalType": "address",
					"name": "approved",
					"type": "address"
				},
				{
					"indexed": true,
					"internalType": "uint256",
					"name": "tokenId",
					"type": "uint256"
				}
			],
			"name": "Approval",
			"type": "event"
		},
		{
			"anonymous": false,
			"inputs": [
				{
					"indexed": true,
					"internalType": "address",
					"name": "owner",
					"type": "address"
				},
				{
					"indexed": true,
					"internalType": "address",
					"name": "operator",
					"type": "address"
				},
				{
					"indexed": false,
					"internalType": "bool",
					"name": "approved",
					"type": "bool"
				}
			],
			"name": "ApprovalForAll",
			"type": "event"
		},
		{
			"anonymous": false,
			"inputs": [
				{
					"indexed": false,
					"internalType": "uint16",
					"name": "_srcChainId",
					"type": "uint16"
				},
				{
					"indexed": false,
					"internalType": "bytes",
					"name": "_srcAddress",
					"type": "bytes"
				},
				{
					"indexed": false,
					"internalType": "uint64",
					"name": "_nonce",
					"type": "uint64"
				},
				{
					"indexed": false,
					"internalType": "bytes",
					"name": "_payload",
					"type": "bytes"
				}
			],
			"name": "MessageFailed",
			"type": "event"
		},
		{
			"anonymous": false,
			"inputs": [
				{
					"indexed": true,
					"internalType": "address",
					"name": "previousOwner",
					"type": "address"
				},
				{
					"indexed": true,
					"internalType": "address",
					"name": "newOwner",
					"type": "address"
				}
			],
			"name": "OwnershipTransferred",
			"type": "event"
		},
		{
			"anonymous": false,
			"inputs": [
				{
					"indexed": false,
					"internalType": "uint16",
					"name": "_srcChainId",
					"type": "uint16"
				},
				{
					"indexed": false,
					"internalType": "address",
					"name": "_toAddress",
					"type": "address"
				},
				{
					"indexed": false,
					"internalType": "uint256",
					"name": "_tokenId",
					"type": "uint256"
				},
				{
					"indexed": false,
					"internalType": "uint64",
					"name": "_nonce",
					"type": "uint64"
				}
			],
			"name": "ReceiveFromChain",
			"type": "event"
		},
		{
			"anonymous": false,
			"inputs": [
				{
					"indexed": true,
					"internalType": "address",
					"name": "_sender",
					"type": "address"
				},
				{
					"indexed": true,
					"internalType": "uint16",
					"name": "_dstChainId",
					"type": "uint16"
				},
				{
					"indexed": true,
					"internalType": "bytes",
					"name": "_toAddress",
					"type": "bytes"
				},
				{
					"indexed": false,
					"internalType": "uint256",
					"name": "_tokenId",
					"type": "uint256"
				},
				{
					"indexed": false,
					"internalType": "uint64",
					"name": "_nonce",
					"type": "uint64"
				}
			],
			"name": "SendToChain",
			"type": "event"
		},
		{
			"anonymous": false,
			"inputs": [
				{
					"indexed": false,
					"internalType": "uint16",
					"name": "_srcChainId",
					"type": "uint16"
				},
				{
					"indexed": false,
					"internalType": "bytes",
					"name": "_srcAddress",
					"type": "bytes"
				}
			],
			"name": "SetTrustedRemote",
			"type": "event"
		},
		{
			"anonymous": false,
			"inputs": [
				{
					"indexed": true,
					"internalType": "address",
					"name": "from",
					"type": "address"
				},
				{
					"indexed": true,
					"internalType": "address",
					"name": "to",
					"type": "address"
				},
				{
					"indexed": true,
					"internalType": "uint256",
					"name": "tokenId",
					"type": "uint256"
				}
			],
			"name": "Transfer",
			"type": "event"
		},
		{
			"inputs": [],
			"name": "activateMint",
			"outputs": [],
			"stateMutability": "nonpayable",
			"type": "function"
		},
		{
			"inputs": [
				{
					"internalType": "address[100]",
					"name": "_users",
					"type": "address[100]"
				}
			],
			"name": "add100PresaleUsers",
			"outputs": [],
			"stateMutability": "nonpayable",
			"type": "function"
		},
		{
			"inputs": [
				{
					"internalType": "address",
					"name": "_user",
					"type": "address"
				}
			],
			"name": "addPresaleUser",
			"outputs": [],
			"stateMutability": "nonpayable",
			"type": "function"
		},
		{
			"inputs": [
				{
					"internalType": "address",
					"name": "to",
					"type": "address"
				},
				{
					"internalType": "uint256",
					"name": "tokenId",
					"type": "uint256"
				}
			],
			"name": "approve",
			"outputs": [],
			"stateMutability": "nonpayable",
			"type": "function"
		},
		{
			"inputs": [
				{
					"internalType": "address",
					"name": "owner",
					"type": "address"
				}
			],
			"name": "balanceOf",
			"outputs": [
				{
					"internalType": "uint256",
					"name": "",
					"type": "uint256"
				}
			],
			"stateMutability": "view",
			"type": "function"
		},
		{
			"inputs": [],
			"name": "baseTokenURI",
			"outputs": [
				{
					"internalType": "string",
					"name": "",
					"type": "string"
				}
			],
			"stateMutability": "view",
			"type": "function"
		},
		{
			"inputs": [],
			"name": "cost",
			"outputs": [
				{
					"internalType": "uint256",
					"name": "",
					"type": "uint256"
				}
			],
			"stateMutability": "view",
			"type": "function"
		},
		{
			"inputs": [],
			"name": "endMintId",
			"outputs": [
				{
					"internalType": "uint256",
					"name": "",
					"type": "uint256"
				}
			],
			"stateMutability": "view",
			"type": "function"
		},
		{
			"inputs": [
				{
					"internalType": "uint16",
					"name": "",
					"type": "uint16"
				},
				{
					"internalType": "bytes",
					"name": "",
					"type": "bytes"
				},
				{
					"internalType": "uint256",
					"name": "",
					"type": "uint256"
				}
			],
			"name": "failedMessages",
			"outputs": [
				{
					"internalType": "bytes32",
					"name": "",
					"type": "bytes32"
				}
			],
			"stateMutability": "view",
			"type": "function"
		},
		{
			"inputs": [
				{
					"internalType": "uint16",
					"name": "_srcChainId",
					"type": "uint16"
				},
				{
					"internalType": "bytes",
					"name": "_srcAddress",
					"type": "bytes"
				}
			],
			"name": "forceResumeReceive",
			"outputs": [],
			"stateMutability": "nonpayable",
			"type": "function"
		},
		{
			"inputs": [
				{
					"internalType": "uint256",
					"name": "tokenId",
					"type": "uint256"
				}
			],
			"name": "getApproved",
			"outputs": [
				{
					"internalType": "address",
					"name": "",
					"type": "address"
				}
			],
			"stateMutability": "view",
			"type": "function"
		},
		{
			"inputs": [
				{
					"internalType": "uint16",
					"name": "",
					"type": "uint16"
				},
				{
					"internalType": "uint16",
					"name": "_chainId",
					"type": "uint16"
				},
				{
					"internalType": "address",
					"name": "",
					"type": "address"
				},
				{
					"internalType": "uint256",
					"name": "_configType",
					"type": "uint256"
				}
			],
			"name": "getConfig",
			"outputs": [
				{
					"internalType": "bytes",
					"name": "",
					"type": "bytes"
				}
			],
			"stateMutability": "view",
			"type": "function"
		},
		{
			"inputs": [],
			"name": "getLzEndpoint",
			"outputs": [
				{
					"internalType": "address",
					"name": "",
					"type": "address"
				}
			],
			"stateMutability": "view",
			"type": "function"
		},
		{
			"inputs": [
				{
					"internalType": "uint16",
					"name": "_chainId",
					"type": "uint16"
				}
			],
			"name": "getTrustedRemote",
			"outputs": [
				{
					"internalType": "bytes",
					"name": "",
					"type": "bytes"
				}
			],
			"stateMutability": "view",
			"type": "function"
		},
		{
			"inputs": [
				{
					"internalType": "address",
					"name": "owner",
					"type": "address"
				},
				{
					"internalType": "address",
					"name": "operator",
					"type": "address"
				}
			],
			"name": "isApprovedForAll",
			"outputs": [
				{
					"internalType": "bool",
					"name": "",
					"type": "bool"
				}
			],
			"stateMutability": "view",
			"type": "function"
		},
		{
			"inputs": [],
			"name": "isMintActive",
			"outputs": [
				{
					"internalType": "bool",
					"name": "",
					"type": "bool"
				}
			],
			"stateMutability": "view",
			"type": "function"
		},
		{
			"inputs": [
				{
					"internalType": "uint16",
					"name": "_srcChainId",
					"type": "uint16"
				},
				{
					"internalType": "bytes",
					"name": "_srcAddress",
					"type": "bytes"
				}
			],
			"name": "isTrustedRemote",
			"outputs": [
				{
					"internalType": "bool",
					"name": "",
					"type": "bool"
				}
			],
			"stateMutability": "view",
			"type": "function"
		},
		{
			"inputs": [
				{
					"internalType": "uint16",
					"name": "_srcChainId",
					"type": "uint16"
				},
				{
					"internalType": "bytes",
					"name": "_srcAddress",
					"type": "bytes"
				},
				{
					"internalType": "uint64",
					"name": "_nonce",
					"type": "uint64"
				},
				{
					"internalType": "bytes",
					"name": "_payload",
					"type": "bytes"
				}
			],
			"name": "lzReceive",
			"outputs": [],
			"stateMutability": "nonpayable",
			"type": "function"
		},
		{
			"inputs": [],
			"name": "maxMintAmount",
			"outputs": [
				{
					"internalType": "uint256",
					"name": "",
					"type": "uint256"
				}
			],
			"stateMutability": "view",
			"type": "function"
		},
		{
			"inputs": [],
			"name": "maxMintId",
			"outputs": [
				{
					"internalType": "uint256",
					"name": "",
					"type": "uint256"
				}
			],
			"stateMutability": "view",
			"type": "function"
		},
		{
			"inputs": [],
			"name": "maxSupply",
			"outputs": [
				{
					"internalType": "uint256",
					"name": "",
					"type": "uint256"
				}
			],
			"stateMutability": "view",
			"type": "function"
		},
		{
			"inputs": [],
			"name": "mint",
			"outputs": [],
			"stateMutability": "payable",
			"type": "function"
		},
		{
			"inputs": [],
			"name": "name",
			"outputs": [
				{
					"internalType": "string",
					"name": "",
					"type": "string"
				}
			],
			"stateMutability": "view",
			"type": "function"
		},
		{
			"inputs": [],
			"name": "nextMintId",
			"outputs": [
				{
					"internalType": "uint256",
					"name": "",
					"type": "uint256"
				}
			],
			"stateMutability": "view",
			"type": "function"
		},
		{
			"inputs": [
				{
					"internalType": "uint16",
					"name": "_srcChainId",
					"type": "uint16"
				},
				{
					"internalType": "bytes",
					"name": "_srcAddress",
					"type": "bytes"
				},
				{
					"internalType": "uint64",
					"name": "_nonce",
					"type": "uint64"
				},
				{
					"internalType": "bytes",
					"name": "_payload",
					"type": "bytes"
				}
			],
			"name": "nonblockingLzReceive",
			"outputs": [],
			"stateMutability": "nonpayable",
			"type": "function"
		},
		{
			"inputs": [],
			"name": "owner",
			"outputs": [
				{
					"internalType": "address",
					"name": "",
					"type": "address"
				}
			],
			"stateMutability": "view",
			"type": "function"
		},
		{
			"inputs": [
				{
					"internalType": "uint256",
					"name": "tokenId",
					"type": "uint256"
				}
			],
			"name": "ownerOf",
			"outputs": [
				{
					"internalType": "address",
					"name": "",
					"type": "address"
				}
			],
			"stateMutability": "view",
			"type": "function"
		},
		{
			"inputs": [
				{
					"internalType": "bool",
					"name": "_state",
					"type": "bool"
				}
			],
			"name": "pause",
			"outputs": [],
			"stateMutability": "nonpayable",
			"type": "function"
		},
		{
			"inputs": [],
			"name": "paused",
			"outputs": [
				{
					"internalType": "bool",
					"name": "",
					"type": "bool"
				}
			],
			"stateMutability": "view",
			"type": "function"
		},
		{
			"inputs": [],
			"name": "presaleCost",
			"outputs": [
				{
					"internalType": "uint256",
					"name": "",
					"type": "uint256"
				}
			],
			"stateMutability": "view",
			"type": "function"
		},
		{
			"inputs": [
				{
					"internalType": "address",
					"name": "",
					"type": "address"
				}
			],
			"name": "presaleWallets",
			"outputs": [
				{
					"internalType": "bool",
					"name": "",
					"type": "bool"
				}
			],
			"stateMutability": "view",
			"type": "function"
		},
		{
			"inputs": [
				{
					"internalType": "address",
					"name": "_user",
					"type": "address"
				}
			],
			"name": "removePresaleUser",
			"outputs": [],
			"stateMutability": "nonpayable",
			"type": "function"
		},
		{
			"inputs": [
				{
					"internalType": "address",
					"name": "_user",
					"type": "address"
				}
			],
			"name": "removeWhitelistUser",
			"outputs": [],
			"stateMutability": "nonpayable",
			"type": "function"
		},
		{
			"inputs": [],
			"name": "renounceOwnership",
			"outputs": [],
			"stateMutability": "nonpayable",
			"type": "function"
		},
		{
			"inputs": [
				{
					"internalType": "uint16",
					"name": "_srcChainId",
					"type": "uint16"
				},
				{
					"internalType": "bytes",
					"name": "_srcAddress",
					"type": "bytes"
				},
				{
					"internalType": "uint64",
					"name": "_nonce",
					"type": "uint64"
				},
				{
					"internalType": "bytes",
					"name": "_payload",
					"type": "bytes"
				}
			],
			"name": "retryMessage",
			"outputs": [],
			"stateMutability": "payable",
			"type": "function"
		},
		{
			"inputs": [
				{
					"internalType": "address",
					"name": "from",
					"type": "address"
				},
				{
					"internalType": "address",
					"name": "to",
					"type": "address"
				},
				{
					"internalType": "uint256",
					"name": "tokenId",
					"type": "uint256"
				}
			],
			"name": "safeTransferFrom",
			"outputs": [],
			"stateMutability": "nonpayable",
			"type": "function"
		},
		{
			"inputs": [
				{
					"internalType": "address",
					"name": "from",
					"type": "address"
				},
				{
					"internalType": "address",
					"name": "to",
					"type": "address"
				},
				{
					"internalType": "uint256",
					"name": "tokenId",
					"type": "uint256"
				},
				{
					"internalType": "bytes",
					"name": "_data",
					"type": "bytes"
				}
			],
			"name": "safeTransferFrom",
			"outputs": [],
			"stateMutability": "nonpayable",
			"type": "function"
		},
		{
			"inputs": [
				{
					"internalType": "uint16",
					"name": "_dstChainId",
					"type": "uint16"
				},
				{
					"internalType": "bytes",
					"name": "_toAddress",
					"type": "bytes"
				},
				{
					"internalType": "uint256",
					"name": "_tokenId",
					"type": "uint256"
				},
				{
					"internalType": "address payable",
					"name": "_refundAddress",
					"type": "address"
				},
				{
					"internalType": "address",
					"name": "_zroPaymentAddress",
					"type": "address"
				},
				{
					"internalType": "bytes",
					"name": "_adapterParam",
					"type": "bytes"
				}
			],
			"name": "send",
			"outputs": [],
			"stateMutability": "payable",
			"type": "function"
		},
		{
			"inputs": [
				{
					"internalType": "address",
					"name": "_from",
					"type": "address"
				},
				{
					"internalType": "uint16",
					"name": "_dstChainId",
					"type": "uint16"
				},
				{
					"internalType": "bytes",
					"name": "_toAddress",
					"type": "bytes"
				},
				{
					"internalType": "uint256",
					"name": "_tokenId",
					"type": "uint256"
				},
				{
					"internalType": "address payable",
					"name": "_refundAddress",
					"type": "address"
				},
				{
					"internalType": "address",
					"name": "_zroPaymentAddress",
					"type": "address"
				},
				{
					"internalType": "bytes",
					"name": "_adapterParam",
					"type": "bytes"
				}
			],
			"name": "sendFrom",
			"outputs": [],
			"stateMutability": "payable",
			"type": "function"
		},
		{
			"inputs": [
				{
					"internalType": "address",
					"name": "operator",
					"type": "address"
				},
				{
					"internalType": "bool",
					"name": "approved",
					"type": "bool"
				}
			],
			"name": "setApprovalForAll",
			"outputs": [],
			"stateMutability": "nonpayable",
			"type": "function"
		},
		{
			"inputs": [
				{
					"internalType": "string",
					"name": "_baseTokenURI",
					"type": "string"
				}
			],
			"name": "setBaseURI",
			"outputs": [],
			"stateMutability": "nonpayable",
			"type": "function"
		},
		{
			"inputs": [
				{
					"internalType": "uint16",
					"name": "_version",
					"type": "uint16"
				},
				{
					"internalType": "uint16",
					"name": "_chainId",
					"type": "uint16"
				},
				{
					"internalType": "uint256",
					"name": "_configType",
					"type": "uint256"
				},
				{
					"internalType": "bytes",
					"name": "_config",
					"type": "bytes"
				}
			],
			"name": "setConfig",
			"outputs": [],
			"stateMutability": "nonpayable",
			"type": "function"
		},
		{
			"inputs": [
				{
					"internalType": "uint256",
					"name": "_newCost",
					"type": "uint256"
				}
			],
			"name": "setCost",
			"outputs": [],
			"stateMutability": "nonpayable",
			"type": "function"
		},
		{
			"inputs": [
				{
					"internalType": "uint256",
					"name": "_newCost",
					"type": "uint256"
				}
			],
			"name": "setPresaleCost",
			"outputs": [],
			"stateMutability": "nonpayable",
			"type": "function"
		},
		{
			"inputs": [
				{
					"internalType": "uint16",
					"name": "_version",
					"type": "uint16"
				}
			],
			"name": "setReceiveVersion",
			"outputs": [],
			"stateMutability": "nonpayable",
			"type": "function"
		},
		{
			"inputs": [
				{
					"internalType": "uint16",
					"name": "_version",
					"type": "uint16"
				}
			],
			"name": "setSendVersion",
			"outputs": [],
			"stateMutability": "nonpayable",
			"type": "function"
		},
		{
			"inputs": [
				{
					"internalType": "uint16",
					"name": "_srcChainId",
					"type": "uint16"
				},
				{
					"internalType": "bytes",
					"name": "_srcAddress",
					"type": "bytes"
				}
			],
			"name": "setTrustedRemote",
			"outputs": [],
			"stateMutability": "nonpayable",
			"type": "function"
		},
		{
			"inputs": [
				{
					"internalType": "uint256",
					"name": "_newmaxMintAmount",
					"type": "uint256"
				}
			],
			"name": "setmaxMintAmount",
			"outputs": [],
			"stateMutability": "nonpayable",
			"type": "function"
		},
		{
			"inputs": [],
			"name": "startMintId",
			"outputs": [
				{
					"internalType": "uint256",
					"name": "",
					"type": "uint256"
				}
			],
			"stateMutability": "view",
			"type": "function"
		},
		{
			"inputs": [
				{
					"internalType": "bytes4",
					"name": "interfaceId",
					"type": "bytes4"
				}
			],
			"name": "supportsInterface",
			"outputs": [
				{
					"internalType": "bool",
					"name": "",
					"type": "bool"
				}
			],
			"stateMutability": "view",
			"type": "function"
		},
		{
			"inputs": [],
			"name": "symbol",
			"outputs": [
				{
					"internalType": "string",
					"name": "",
					"type": "string"
				}
			],
			"stateMutability": "view",
			"type": "function"
		},
		{
			"inputs": [
				{
					"internalType": "uint256",
					"name": "tokenId",
					"type": "uint256"
				}
			],
			"name": "tokenURI",
			"outputs": [
				{
					"internalType": "string",
					"name": "",
					"type": "string"
				}
			],
			"stateMutability": "view",
			"type": "function"
		},
		{
			"inputs": [
				{
					"internalType": "address",
					"name": "from",
					"type": "address"
				},
				{
					"internalType": "address",
					"name": "to",
					"type": "address"
				},
				{
					"internalType": "uint256",
					"name": "tokenId",
					"type": "uint256"
				}
			],
			"name": "transferFrom",
			"outputs": [],
			"stateMutability": "nonpayable",
			"type": "function"
		},
		{
			"inputs": [
				{
					"internalType": "address",
					"name": "newOwner",
					"type": "address"
				}
			],
			"name": "transferOwnership",
			"outputs": [],
			"stateMutability": "nonpayable",
			"type": "function"
		},
		{
			"inputs": [
				{
					"internalType": "address",
					"name": "_user",
					"type": "address"
				}
			],
			"name": "whitelistUser",
			"outputs": [],
			"stateMutability": "nonpayable",
			"type": "function"
		},
		{
			"inputs": [
				{
					"internalType": "address",
					"name": "",
					"type": "address"
				}
			],
			"name": "whitelisted",
			"outputs": [
				{
					"internalType": "bool",
					"name": "",
					"type": "bool"
				}
			],
			"stateMutability": "view",
			"type": "function"
		},
		{
			"inputs": [],
			"name": "withdraw",
			"outputs": [],
			"stateMutability": "payable",
			"type": "function"
		}
	]
}