{
	"data": {
		"bytecode": {
			"linkReferences": {},
			"object": "60806040526040518060400160405280600581526020017f2e6a736f6e000000000000000000000000000000000000000000000000000000815250600c90805190602001906200005192919062000ec8565b5066b1a2bc2ec50000600d55666a94d74f430000600e556103e0600f5560146010556000601160006101000a81548160ff0219169083151502179055503480156200009b57600080fd5b506040516200629f3803806200629f8339818101604052810190620000c1919062001115565b82828160009080519060200190620000db92919062000ec8565b508060019080519060200190620000f492919062000ec8565b505050620001176200010b6200014460201b60201c565b6200014c60201b60201c565b62000128816200021260201b60201c565b6200013b336014620002bd60201b60201c565b5050506200183e565b600033905090565b6000600a60009054906101000a900473ffffffffffffffffffffffffffffffffffffffff16905081600a60006101000a81548173ffffffffffffffffffffffffffffffffffffffff021916908373ffffffffffffffffffffffffffffffffffffffff1602179055508173ffffffffffffffffffffffffffffffffffffffff168173ffffffffffffffffffffffffffffffffffffffff167f8be0079c531659141344cd1fd0a4f28419497f9722a3daafe3b4186f6b6457e060405160405180910390a35050565b620002226200014460201b60201c565b73ffffffffffffffffffffffffffffffffffffffff1662000248620004a960201b60201c565b73ffffffffffffffffffffffffffffffffffffffff1614620002a1576040517f08c379a000000000000000000000000000000000000000000000000000000000815260040162000298906200122f565b60405180910390fd5b80600b9080519060200190620002b992919062000ec8565b5050565b6000620002cf620004d360201b60201c565b9050601160009054906101000a900460ff1615620002ec57600080fd5b60008211620002fa57600080fd5b6010548211156200030a57600080fd5b600f5482826200031b91906200128a565b11156200032757600080fd5b62000337620004a960201b60201c565b73ffffffffffffffffffffffffffffffffffffffff163373ffffffffffffffffffffffffffffffffffffffff16146200045f5760011515601260003373ffffffffffffffffffffffffffffffffffffffff1673ffffffffffffffffffffffffffffffffffffffff16815260200190815260200160002060009054906101000a900460ff161515146200045e5760011515601360003373ffffffffffffffffffffffffffffffffffffffff1673ffffffffffffffffffffffffffffffffffffffff16815260200190815260200160002060009054906101000a900460ff161515146200043f5781600d546200042c9190620012e7565b3410156200043957600080fd5b6200045d565b81600e546200044f9190620012e7565b3410156200045c57600080fd5b5b5b5b6000600190505b828111620004a3576200048d8482846200048191906200128a565b620004e060201b60201c565b80806200049a9062001348565b91505062000466565b50505050565b6000600a60009054906101000a900473ffffffffffffffffffffffffffffffffffffffff16905090565b6000600880549050905090565b620005028282604051806020016040528060008152506200050660201b60201c565b5050565b6200051883836200057460201b60201c565b6200052d60008484846200075a60201b60201c565b6200056f576040517f08c379a000000000000000000000000000000000000000000000000000000000815260040162000566906200140c565b60405180910390fd5b505050565b600073ffffffffffffffffffffffffffffffffffffffff168273ffffffffffffffffffffffffffffffffffffffff161415620005e7576040517f08c379a0000000000000000000000000000000000000000000000000000000008152600401620005de906200147e565b60405180910390fd5b620005f8816200091460201b60201c565b156200063b576040517f08c379a00000000000000000000000000000000000000000000000000000000081526004016200063290620014f0565b60405180910390fd5b6200064f600083836200098060201b60201c565b6001600360008473ffffffffffffffffffffffffffffffffffffffff1673ffffffffffffffffffffffffffffffffffffffff1681526020019081526020016000206000828254620006a191906200128a565b92505081905550816002600083815260200190815260200160002060006101000a81548173ffffffffffffffffffffffffffffffffffffffff021916908373ffffffffffffffffffffffffffffffffffffffff160217905550808273ffffffffffffffffffffffffffffffffffffffff16600073ffffffffffffffffffffffffffffffffffffffff167fddf252ad1be2c89b69c2b068fc378daa952ba7f163c4a11628f55a4df523b3ef60405160405180910390a45050565b6000620007888473ffffffffffffffffffffffffffffffffffffffff1662000ac760201b620021801760201c565b1562000907578373ffffffffffffffffffffffffffffffffffffffff1663150b7a02620007ba6200014460201b60201c565b8786866040518563ffffffff1660e01b8152600401620007de9493929190620015c5565b602060405180830381600087803b158015620007f957600080fd5b505af19250505080156200082d57506040513d601f19601f820116820180604052508101906200082a919062001676565b60015b620008b6573d806000811462000860576040519150601f19603f3d011682016040523d82523d6000602084013e62000865565b606091505b50600081511415620008ae576040517f08c379a0000000000000000000000000000000000000000000000000000000008152600401620008a5906200140c565b60405180910390fd5b805181602001fd5b63150b7a0260e01b7bffffffffffffffffffffffffffffffffffffffffffffffffffffffff1916817bffffffffffffffffffffffffffffffffffffffffffffffffffffffff1916149150506200090c565b600190505b949350505050565b60008073ffffffffffffffffffffffffffffffffffffffff166002600084815260200190815260200160002060009054906101000a900473ffffffffffffffffffffffffffffffffffffffff1673ffffffffffffffffffffffffffffffffffffffff1614159050919050565b6200099883838362000ada60201b620021931760201c565b600073ffffffffffffffffffffffffffffffffffffffff168373ffffffffffffffffffffffffffffffffffffffff161415620009e557620009df8162000adf60201b60201c565b62000a2d565b8173ffffffffffffffffffffffffffffffffffffffff168373ffffffffffffffffffffffffffffffffffffffff161462000a2c5762000a2b838262000b2860201b60201c565b5b5b600073ffffffffffffffffffffffffffffffffffffffff168273ffffffffffffffffffffffffffffffffffffffff16141562000a7a5762000a748162000ca560201b60201c565b62000ac2565b8273ffffffffffffffffffffffffffffffffffffffff168273ffffffffffffffffffffffffffffffffffffffff161462000ac15762000ac0828262000d8160201b60201c565b5b5b505050565b600080823b905060008111915050919050565b505050565b6008805490506009600083815260200190815260200160002081905550600881908060018154018082558091505060019003906000526020600020016000909190919091505550565b6000600162000b428462000e0d60201b620017671760201c565b62000b4e9190620016a8565b905060006007600084815260200190815260200160002054905081811462000c34576000600660008673ffffffffffffffffffffffffffffffffffffffff1673ffffffffffffffffffffffffffffffffffffffff168152602001908152602001600020600084815260200190815260200160002054905080600660008773ffffffffffffffffffffffffffffffffffffffff1673ffffffffffffffffffffffffffffffffffffffff168152602001908152602001600020600084815260200190815260200160002081905550816007600083815260200190815260200160002081905550505b6007600084815260200190815260200160002060009055600660008573ffffffffffffffffffffffffffffffffffffffff1673ffffffffffffffffffffffffffffffffffffffff16815260200190815260200160002060008381526020019081526020016000206000905550505050565b6000600160088054905062000cbb9190620016a8565b905060006009600084815260200190815260200160002054905060006008838154811062000cee5762000ced620016e3565b5b90600052602060002001549050806008838154811062000d135762000d12620016e3565b5b90600052602060002001819055508160096000838152602001908152602001600020819055506009600085815260200190815260200160002060009055600880548062000d655762000d6462001712565b5b6001900381819060005260206000200160009055905550505050565b600062000d998362000e0d60201b620017671760201c565b905081600660008573ffffffffffffffffffffffffffffffffffffffff1673ffffffffffffffffffffffffffffffffffffffff168152602001908152602001600020600083815260200190815260200160002081905550806007600084815260200190815260200160002081905550505050565b60008073ffffffffffffffffffffffffffffffffffffffff168273ffffffffffffffffffffffffffffffffffffffff16141562000e81576040517f08c379a000000000000000000000000000000000000000000000000000000000815260040162000e7890620017b7565b60405180910390fd5b600360008373ffffffffffffffffffffffffffffffffffffffff1673ffffffffffffffffffffffffffffffffffffffff168152602001908152602001600020549050919050565b82805462000ed69062001808565b90600052602060002090601f01602090048101928262000efa576000855562000f46565b82601f1062000f1557805160ff191683800117855562000f46565b8280016001018555821562000f46579182015b8281111562000f4557825182559160200191906001019062000f28565b5b50905062000f55919062000f59565b5090565b5b8082111562000f7457600081600090555060010162000f5a565b5090565b6000604051905090565b600080fd5b600080fd5b600080fd5b600080fd5b6000601f19601f8301169050919050565b7f4e487b7100000000000000000000000000000000000000000000000000000000600052604160045260246000fd5b62000fe18262000f96565b810181811067ffffffffffffffff8211171562001003576200100262000fa7565b5b80604052505050565b60006200101862000f78565b905062001026828262000fd6565b919050565b600067ffffffffffffffff82111562001049576200104862000fa7565b5b620010548262000f96565b9050602081019050919050565b60005b838110156200108157808201518184015260208101905062001064565b8381111562001091576000848401525b50505050565b6000620010ae620010a8846200102b565b6200100c565b905082815260208101848484011115620010cd57620010cc62000f91565b5b620010da84828562001061565b509392505050565b600082601f830112620010fa57620010f962000f8c565b5b81516200110c84826020860162001097565b91505092915050565b60008060006060848603121562001131576200113062000f82565b5b600084015167ffffffffffffffff81111562001152576200115162000f87565b5b6200116086828701620010e2565b935050602084015167ffffffffffffffff81111562001184576200118362000f87565b5b6200119286828701620010e2565b925050604084015167ffffffffffffffff811115620011b657620011b562000f87565b5b620011c486828701620010e2565b9150509250925092565b600082825260208201905092915050565b7f4f776e61626c653a2063616c6c6572206973206e6f7420746865206f776e6572600082015250565b600062001217602083620011ce565b91506200122482620011df565b602082019050919050565b600060208201905081810360008301526200124a8162001208565b9050919050565b6000819050919050565b7f4e487b7100000000000000000000000000000000000000000000000000000000600052601160045260246000fd5b6000620012978262001251565b9150620012a48362001251565b9250827fffffffffffffffffffffffffffffffffffffffffffffffffffffffffffffffff03821115620012dc57620012db6200125b565b5b828201905092915050565b6000620012f48262001251565b9150620013018362001251565b9250817fffffffffffffffffffffffffffffffffffffffffffffffffffffffffffffffff04831182151516156200133d576200133c6200125b565b5b828202905092915050565b6000620013558262001251565b91507fffffffffffffffffffffffffffffffffffffffffffffffffffffffffffffffff8214156200138b576200138a6200125b565b5b600182019050919050565b7f4552433732313a207472616e7366657220746f206e6f6e20455243373231526560008201527f63656976657220696d706c656d656e7465720000000000000000000000000000602082015250565b6000620013f4603283620011ce565b9150620014018262001396565b604082019050919050565b600060208201905081810360008301526200142781620013e5565b9050919050565b7f4552433732313a206d696e7420746f20746865207a65726f2061646472657373600082015250565b600062001466602083620011ce565b915062001473826200142e565b602082019050919050565b60006020820190508181036000830152620014998162001457565b9050919050565b7f4552433732313a20746f6b656e20616c7265616479206d696e74656400000000600082015250565b6000620014d8601c83620011ce565b9150620014e582620014a0565b602082019050919050565b600060208201905081810360008301526200150b81620014c9565b9050919050565b600073ffffffffffffffffffffffffffffffffffffffff82169050919050565b60006200153f8262001512565b9050919050565b620015518162001532565b82525050565b620015628162001251565b82525050565b600081519050919050565b600082825260208201905092915050565b6000620015918262001568565b6200159d818562001573565b9350620015af81856020860162001061565b620015ba8162000f96565b840191505092915050565b6000608082019050620015dc600083018762001546565b620015eb602083018662001546565b620015fa604083018562001557565b81810360608301526200160e818462001584565b905095945050505050565b60007fffffffff0000000000000000000000000000000000000000000000000000000082169050919050565b620016508162001619565b81146200165c57600080fd5b50565b600081519050620016708162001645565b92915050565b6000602082840312156200168f576200168e62000f82565b5b60006200169f848285016200165f565b91505092915050565b6000620016b58262001251565b9150620016c28362001251565b925082821015620016d857620016d76200125b565b5b828203905092915050565b7f4e487b7100000000000000000000000000000000000000000000000000000000600052603260045260246000fd5b7f4e487b7100000000000000000000000000000000000000000000000000000000600052603160045260246000fd5b7f4552433732313a2062616c616e636520717565727920666f7220746865207a6560008201527f726f206164647265737300000000000000000000000000000000000000000000602082015250565b60006200179f602a83620011ce565b9150620017ac8262001741565b604082019050919050565b60006020820190508181036000830152620017d28162001790565b9050919050565b7f4e487b7100000000000000000000000000000000000000000000000000000000600052602260045260246000fd5b600060028204905060018216806200182157607f821691505b60208210811415620018385762001837620017d9565b5b50919050565b614a51806200184e6000396000f3fe6080604052600436106102515760003560e01c806355f804b311610139578063a22cb465116100b6578063d5abeb011161007a578063d5abeb01146108a4578063d936547e146108cf578063da3ef23f1461090c578063e985e9c514610935578063ed931e1714610972578063f2fde38b1461099b57610251565b8063a22cb465146107c1578063b2f3e85e146107ea578063b88d4fde14610813578063c66828621461083c578063c87b56dd1461086757610251565b8063715018a6116100fd578063715018a6146107025780637f00c7a6146107195780638da5cb5b146107425780638fdcf9421461076d57806395d89b411461079657610251565b806355f804b3146106095780635c975abb146106325780636352211e1461065d5780636c0360eb1461069a57806370a08231146106c557610251565b80632f745c59116101d257806342842e0e1161019657806342842e0e146104eb578063438b63001461051457806344a0d68a146105515780634a4c560d1461057a5780634f6ccce7146105a3578063546857c7146105e057610251565b80632f745c591461042257806330b2264e1461045f57806330cc7ae01461049c5780633ccfd60b146104c557806340c10f19146104cf57610251565b806313faede61161021957806313faede61461034d57806318160ddd14610378578063239c70ae146103a357806323b872dd146103ce5780632a23d07d146103f757610251565b806301ffc9a71461025657806302329a291461029357806306fdde03146102bc578063081812fc146102e7578063095ea7b314610324575b600080fd5b34801561026257600080fd5b5061027d60048036038101906102789190613367565b6109c4565b60405161028a91906133af565b60405180910390f35b34801561029f57600080fd5b506102ba60048036038101906102b591906133f6565b610a3e565b005b3480156102c857600080fd5b506102d1610ad7565b6040516102de91906134bc565b60405180910390f35b3480156102f357600080fd5b5061030e60048036038101906103099190613514565b610b69565b60405161031b9190613582565b60405180910390f35b34801561033057600080fd5b5061034b600480360381019061034691906135c9565b610bee565b005b34801561035957600080fd5b50610362610d06565b60405161036f9190613618565b60405180910390f35b34801561038457600080fd5b5061038d610d0c565b60405161039a9190613618565b60405180910390f35b3480156103af57600080fd5b506103b8610d19565b6040516103c59190613618565b60405180910390f35b3480156103da57600080fd5b506103f560048036038101906103f09190613633565b610d1f565b005b34801561040357600080fd5b5061040c610d7f565b6040516104199190613618565b60405180910390f35b34801561042e57600080fd5b50610449600480360381019061044491906135c9565b610d85565b6040516104569190613618565b60405180910390f35b34801561046b57600080fd5b5061048660048036038101906104819190613686565b610e2a565b60405161049391906133af565b60405180910390f35b3480156104a857600080fd5b506104c360048036038101906104be9190613686565b610e4a565b005b6104cd610f21565b005b6104e960048036038101906104e491906135c9565b611016565b005b3480156104f757600080fd5b50610512600480360381019061050d9190613633565b6111d4565b005b34801561052057600080fd5b5061053b60048036038101906105369190613686565b6111f4565b6040516105489190613771565b60405180910390f35b34801561055d57600080fd5b5061057860048036038101906105739190613514565b6112a2565b005b34801561058657600080fd5b506105a1600480360381019061059c9190613686565b611328565b005b3480156105af57600080fd5b506105ca60048036038101906105c59190613514565b6113ff565b6040516105d79190613618565b60405180910390f35b3480156105ec57600080fd5b50610607600480360381019061060291906138c9565b611470565b005b34801561061557600080fd5b50610630600480360381019061062b91906139ac565b61157e565b005b34801561063e57600080fd5b50610647611614565b60405161065491906133af565b60405180910390f35b34801561066957600080fd5b50610684600480360381019061067f9190613514565b611627565b6040516106919190613582565b60405180910390f35b3480156106a657600080fd5b506106af6116d9565b6040516106bc91906134bc565b60405180910390f35b3480156106d157600080fd5b506106ec60048036038101906106e79190613686565b611767565b6040516106f99190613618565b60405180910390f35b34801561070e57600080fd5b5061071761181f565b005b34801561072557600080fd5b50610740600480360381019061073b9190613514565b6118a7565b005b34801561074e57600080fd5b5061075761192d565b6040516107649190613582565b60405180910390f35b34801561077957600080fd5b50610794600480360381019061078f9190613514565b611957565b005b3480156107a257600080fd5b506107ab6119dd565b6040516107b891906134bc565b60405180910390f35b3480156107cd57600080fd5b506107e860048036038101906107e391906139f5565b611a6f565b005b3480156107f657600080fd5b50610811600480360381019061080c9190613686565b611bf0565b005b34801561081f57600080fd5b5061083a60048036038101906108359190613ad6565b611cc7565b005b34801561084857600080fd5b50610851611d29565b60405161085e91906134bc565b60405180910390f35b34801561087357600080fd5b5061088e60048036038101906108899190613514565b611db7565b60405161089b91906134bc565b60405180910390f35b3480156108b057600080fd5b506108b9611e61565b6040516108c69190613618565b60405180910390f35b3480156108db57600080fd5b506108f660048036038101906108f19190613686565b611e67565b60405161090391906133af565b60405180910390f35b34801561091857600080fd5b50610933600480360381019061092e91906139ac565b611e87565b005b34801561094157600080fd5b5061095c60048036038101906109579190613b59565b611f1d565b60405161096991906133af565b60405180910390f35b34801561097e57600080fd5b5061099960048036038101906109949190613686565b611fb1565b005b3480156109a757600080fd5b506109c260048036038101906109bd9190613686565b612088565b005b60007f780e9d63000000000000000000000000000000000000000000000000000000007bffffffffffffffffffffffffffffffffffffffffffffffffffffffff1916827bffffffffffffffffffffffffffffffffffffffffffffffffffffffff19161480610a375750610a3682612198565b5b9050919050565b610a4661227a565b73ffffffffffffffffffffffffffffffffffffffff16610a6461192d565b73ffffffffffffffffffffffffffffffffffffffff1614610aba576040517f08c379a0000000000000000000000000000000000000000000000000000000008152600401610ab190613be5565b60405180910390fd5b80601160006101000a81548160ff02191690831515021790555050565b606060008054610ae690613c34565b80601f0160208091040260200160405190810160405280929190818152602001828054610b1290613c34565b8015610b5f5780601f10610b3457610100808354040283529160200191610b5f565b820191906000526020600020905b815481529060010190602001808311610b4257829003601f168201915b5050505050905090565b6000610b7482612282565b610bb3576040517f08c379a0000000000000000000000000000000000000000000000000000000008152600401610baa90613cd8565b60405180910390fd5b6004600083815260200190815260200160002060009054906101000a900473ffffffffffffffffffffffffffffffffffffffff169050919050565b6000610bf982611627565b90508073ffffffffffffffffffffffffffffffffffffffff168373ffffffffffffffffffffffffffffffffffffffff161415610c6a576040517f08c379a0000000000000000000000000000000000000000000000000000000008152600401610c6190613d6a565b60405180910390fd5b8073ffffffffffffffffffffffffffffffffffffffff16610c8961227a565b73ffffffffffffffffffffffffffffffffffffffff161480610cb85750610cb781610cb261227a565b611f1d565b5b610cf7576040517f08c379a0000000000000000000000000000000000000000000000000000000008152600401610cee90613dfc565b60405180910390fd5b610d0183836122ee565b505050565b600d5481565b6000600880549050905090565b60105481565b610d30610d2a61227a565b826123a7565b610d6f576040517f08c379a0000000000000000000000000000000000000000000000000000000008152600401610d6690613e8e565b60405180910390fd5b610d7a838383612485565b505050565b600e5481565b6000610d9083611767565b8210610dd1576040517f08c379a0000000000000000000000000000000000000000000000000000000008152600401610dc890613f20565b60405180910390fd5b600660008473ffffffffffffffffffffffffffffffffffffffff1673ffffffffffffffffffffffffffffffffffffffff168152602001908152602001600020600083815260200190815260200160002054905092915050565b60136020528060005260406000206000915054906101000a900460ff1681565b610e5261227a565b73ffffffffffffffffffffffffffffffffffffffff16610e7061192d565b73ffffffffffffffffffffffffffffffffffffffff1614610ec6576040517f08c379a0000000000000000000000000000000000000000000000000000000008152600401610ebd90613be5565b60405180910390fd5b6000601260008373ffffffffffffffffffffffffffffffffffffffff1673ffffffffffffffffffffffffffffffffffffffff16815260200190815260200160002060006101000a81548160ff02191690831515021790555050565b610f2961227a565b73ffffffffffffffffffffffffffffffffffffffff16610f4761192d565b73ffffffffffffffffffffffffffffffffffffffff1614610f9d576040517f08c379a0000000000000000000000000000000000000000000000000000000008152600401610f9490613be5565b60405180910390fd5b60003373ffffffffffffffffffffffffffffffffffffffff1647604051610fc390613f71565b60006040518083038185875af1925050503d8060008114611000576040519150601f19603f3d011682016040523d82523d6000602084013e611005565b606091505b505090508061101357600080fd5b50565b6000611020610d0c565b9050601160009054906101000a900460ff161561103c57600080fd5b6000821161104957600080fd5b60105482111561105857600080fd5b600f5482826110679190613fb5565b111561107257600080fd5b61107a61192d565b73ffffffffffffffffffffffffffffffffffffffff163373ffffffffffffffffffffffffffffffffffffffff16146111985760011515601260003373ffffffffffffffffffffffffffffffffffffffff1673ffffffffffffffffffffffffffffffffffffffff16815260200190815260200160002060009054906101000a900460ff161515146111975760011515601360003373ffffffffffffffffffffffffffffffffffffffff1673ffffffffffffffffffffffffffffffffffffffff16815260200190815260200160002060009054906101000a900460ff1615151461117b5781600d5461116a919061400b565b34101561117657600080fd5b611196565b81600e54611189919061400b565b34101561119557600080fd5b5b5b5b6000600190505b8281116111ce576111bb8482846111b69190613fb5565b6126e1565b80806111c690614065565b91505061119f565b50505050565b6111ef83838360405180602001604052806000815250611cc7565b505050565b6060600061120183611767565b905060008167ffffffffffffffff81111561121f5761121e613798565b5b60405190808252806020026020018201604052801561124d5781602001602082028036833780820191505090505b50905060005b82811015611297576112658582610d85565b828281518110611278576112776140ae565b5b602002602001018181525050808061128f90614065565b915050611253565b508092505050919050565b6112aa61227a565b73ffffffffffffffffffffffffffffffffffffffff166112c861192d565b73ffffffffffffffffffffffffffffffffffffffff161461131e576040517f08c379a000000000000000000000000000000000000000000000000000000000815260040161131590613be5565b60405180910390fd5b80600d8190555050565b61133061227a565b73ffffffffffffffffffffffffffffffffffffffff1661134e61192d565b73ffffffffffffffffffffffffffffffffffffffff16146113a4576040517f08c379a000000000000000000000000000000000000000000000000000000000815260040161139b90613be5565b60405180910390fd5b6001601260008373ffffffffffffffffffffffffffffffffffffffff1673ffffffffffffffffffffffffffffffffffffffff16815260200190815260200160002060006101000a81548160ff02191690831515021790555050565b6000611409610d0c565b821061144a576040517f08c379a00000000000000000000000000000000000000000000000000000000081526004016114419061414f565b60405180910390fd5b6008828154811061145e5761145d6140ae565b5b90600052602060002001549050919050565b61147861227a565b73ffffffffffffffffffffffffffffffffffffffff1661149661192d565b73ffffffffffffffffffffffffffffffffffffffff16146114ec576040517f08c379a00000000000000000000000000000000000000000000000000000000081526004016114e390613be5565b60405180910390fd5b60005b600281101561157a57600160136000848460648110611511576115106140ae565b5b602002015173ffffffffffffffffffffffffffffffffffffffff1673ffffffffffffffffffffffffffffffffffffffff16815260200190815260200160002060006101000a81548160ff021916908315150217905550808061157290614065565b9150506114ef565b5050565b61158661227a565b73ffffffffffffffffffffffffffffffffffffffff166115a461192d565b73ffffffffffffffffffffffffffffffffffffffff16146115fa576040517f08c379a00000000000000000000000000000000000000000000000000000000081526004016115f190613be5565b60405180910390fd5b80600b9080519060200190611610929190613258565b5050565b601160009054906101000a900460ff1681565b6000806002600084815260200190815260200160002060009054906101000a900473ffffffffffffffffffffffffffffffffffffffff169050600073ffffffffffffffffffffffffffffffffffffffff168173ffffffffffffffffffffffffffffffffffffffff1614156116d0576040517f08c379a00000000000000000000000000000000000000000000000000000000081526004016116c7906141e1565b60405180910390fd5b80915050919050565b600b80546116e690613c34565b80601f016020809104026020016040519081016040528092919081815260200182805461171290613c34565b801561175f5780601f106117345761010080835404028352916020019161175f565b820191906000526020600020905b81548152906001019060200180831161174257829003601f168201915b505050505081565b60008073ffffffffffffffffffffffffffffffffffffffff168273ffffffffffffffffffffffffffffffffffffffff1614156117d8576040517f08c379a00000000000000000000000000000000000000000000000000000000081526004016117cf90614273565b60405180910390fd5b600360008373ffffffffffffffffffffffffffffffffffffffff1673ffffffffffffffffffffffffffffffffffffffff168152602001908152602001600020549050919050565b61182761227a565b73ffffffffffffffffffffffffffffffffffffffff1661184561192d565b73ffffffffffffffffffffffffffffffffffffffff161461189b576040517f08c379a000000000000000000000000000000000000000000000000000000000815260040161189290613be5565b60405180910390fd5b6118a560006126ff565b565b6118af61227a565b73ffffffffffffffffffffffffffffffffffffffff166118cd61192d565b73ffffffffffffffffffffffffffffffffffffffff1614611923576040517f08c379a000000000000000000000000000000000000000000000000000000000815260040161191a90613be5565b60405180910390fd5b8060108190555050565b6000600a60009054906101000a900473ffffffffffffffffffffffffffffffffffffffff16905090565b61195f61227a565b73ffffffffffffffffffffffffffffffffffffffff1661197d61192d565b73ffffffffffffffffffffffffffffffffffffffff16146119d3576040517f08c379a00000000000000000000000000000000000000000000000000000000081526004016119ca90613be5565b60405180910390fd5b80600e8190555050565b6060600180546119ec90613c34565b80601f0160208091040260200160405190810160405280929190818152602001828054611a1890613c34565b8015611a655780601f10611a3a57610100808354040283529160200191611a65565b820191906000526020600020905b815481529060010190602001808311611a4857829003601f168201915b5050505050905090565b611a7761227a565b73ffffffffffffffffffffffffffffffffffffffff168273ffffffffffffffffffffffffffffffffffffffff161415611ae5576040517f08c379a0000000000000000000000000000000000000000000000000000000008152600401611adc906142df565b60405180910390fd5b8060056000611af261227a565b73ffffffffffffffffffffffffffffffffffffffff1673ffffffffffffffffffffffffffffffffffffffff16815260200190815260200160002060008473ffffffffffffffffffffffffffffffffffffffff1673ffffffffffffffffffffffffffffffffffffffff16815260200190815260200160002060006101000a81548160ff0219169083151502179055508173ffffffffffffffffffffffffffffffffffffffff16611b9f61227a565b73ffffffffffffffffffffffffffffffffffffffff167f17307eab39ab6107e8899845ad3d59bd9653f200f220920489ca2b5937696c3183604051611be491906133af565b60405180910390a35050565b611bf861227a565b73ffffffffffffffffffffffffffffffffffffffff16611c1661192d565b73ffffffffffffffffffffffffffffffffffffffff1614611c6c576040517f08c379a0000000000000000000000000000000000000000000000000000000008152600401611c6390613be5565b60405180910390fd5b6001601360008373ffffffffffffffffffffffffffffffffffffffff1673ffffffffffffffffffffffffffffffffffffffff16815260200190815260200160002060006101000a81548160ff02191690831515021790555050565b611cd8611cd261227a565b836123a7565b611d17576040517f08c379a0000000000000000000000000000000000000000000000000000000008152600401611d0e90613e8e565b60405180910390fd5b611d23848484846127c5565b50505050565b600c8054611d3690613c34565b80601f0160208091040260200160405190810160405280929190818152602001828054611d6290613c34565b8015611daf5780601f10611d8457610100808354040283529160200191611daf565b820191906000526020600020905b815481529060010190602001808311611d9257829003601f168201915b505050505081565b6060611dc282612282565b611e01576040517f08c379a0000000000000000000000000000000000000000000000000000000008152600401611df890614371565b60405180910390fd5b6000611e0b612821565b90506000815111611e2b5760405180602001604052806000815250611e59565b80611e35846128b3565b600c604051602001611e4993929190614461565b6040516020818303038152906040525b915050919050565b600f5481565b60126020528060005260406000206000915054906101000a900460ff1681565b611e8f61227a565b73ffffffffffffffffffffffffffffffffffffffff16611ead61192d565b73ffffffffffffffffffffffffffffffffffffffff1614611f03576040517f08c379a0000000000000000000000000000000000000000000000000000000008152600401611efa90613be5565b60405180910390fd5b80600c9080519060200190611f19929190613258565b5050565b6000600560008473ffffffffffffffffffffffffffffffffffffffff1673ffffffffffffffffffffffffffffffffffffffff16815260200190815260200160002060008373ffffffffffffffffffffffffffffffffffffffff1673ffffffffffffffffffffffffffffffffffffffff16815260200190815260200160002060009054906101000a900460ff16905092915050565b611fb961227a565b73ffffffffffffffffffffffffffffffffffffffff16611fd761192d565b73ffffffffffffffffffffffffffffffffffffffff161461202d576040517f08c379a000000000000000000000000000000000000000000000000000000000815260040161202490613be5565b60405180910390fd5b6000601360008373ffffffffffffffffffffffffffffffffffffffff1673ffffffffffffffffffffffffffffffffffffffff16815260200190815260200160002060006101000a81548160ff02191690831515021790555050565b61209061227a565b73ffffffffffffffffffffffffffffffffffffffff166120ae61192d565b73ffffffffffffffffffffffffffffffffffffffff1614612104576040517f08c379a00000000000000000000000000000000000000000000000000000000081526004016120fb90613be5565b60405180910390fd5b600073ffffffffffffffffffffffffffffffffffffffff168173ffffffffffffffffffffffffffffffffffffffff161415612174576040517f08c379a000000000000000000000000000000000000000000000000000000000815260040161216b90614504565b60405180910390fd5b61217d816126ff565b50565b600080823b905060008111915050919050565b505050565b60007f80ac58cd000000000000000000000000000000000000000000000000000000007bffffffffffffffffffffffffffffffffffffffffffffffffffffffff1916827bffffffffffffffffffffffffffffffffffffffffffffffffffffffff1916148061226357507f5b5e139f000000000000000000000000000000000000000000000000000000007bffffffffffffffffffffffffffffffffffffffffffffffffffffffff1916827bffffffffffffffffffffffffffffffffffffffffffffffffffffffff1916145b80612273575061227282612a14565b5b9050919050565b600033905090565b60008073ffffffffffffffffffffffffffffffffffffffff166002600084815260200190815260200160002060009054906101000a900473ffffffffffffffffffffffffffffffffffffffff1673ffffffffffffffffffffffffffffffffffffffff1614159050919050565b816004600083815260200190815260200160002060006101000a81548173ffffffffffffffffffffffffffffffffffffffff021916908373ffffffffffffffffffffffffffffffffffffffff160217905550808273ffffffffffffffffffffffffffffffffffffffff1661236183611627565b73ffffffffffffffffffffffffffffffffffffffff167f8c5be1e5ebec7d5bd14f71427d1e84f3dd0314c0f7b2291e5b200ac8c7c3b92560405160405180910390a45050565b60006123b282612282565b6123f1576040517f08c379a00000000000000000000000000000000000000000000000000000000081526004016123e890614596565b60405180910390fd5b60006123fc83611627565b90508073ffffffffffffffffffffffffffffffffffffffff168473ffffffffffffffffffffffffffffffffffffffff16148061246b57508373ffffffffffffffffffffffffffffffffffffffff1661245384610b69565b73ffffffffffffffffffffffffffffffffffffffff16145b8061247c575061247b8185611f1d565b5b91505092915050565b8273ffffffffffffffffffffffffffffffffffffffff166124a582611627565b73ffffffffffffffffffffffffffffffffffffffff16146124fb576040517f08c379a00000000000000000000000000000000000000000000000000000000081526004016124f290614628565b60405180910390fd5b600073ffffffffffffffffffffffffffffffffffffffff168273ffffffffffffffffffffffffffffffffffffffff16141561256b576040517f08c379a0000000000000000000000000000000000000000000000000000000008152600401612562906146ba565b60405180910390fd5b612576838383612a7e565b6125816000826122ee565b6001600360008573ffffffffffffffffffffffffffffffffffffffff1673ffffffffffffffffffffffffffffffffffffffff16815260200190815260200160002060008282546125d191906146da565b925050819055506001600360008473ffffffffffffffffffffffffffffffffffffffff1673ffffffffffffffffffffffffffffffffffffffff16815260200190815260200160002060008282546126289190613fb5565b92505081905550816002600083815260200190815260200160002060006101000a81548173ffffffffffffffffffffffffffffffffffffffff021916908373ffffffffffffffffffffffffffffffffffffffff160217905550808273ffffffffffffffffffffffffffffffffffffffff168473ffffffffffffffffffffffffffffffffffffffff167fddf252ad1be2c89b69c2b068fc378daa952ba7f163c4a11628f55a4df523b3ef60405160405180910390a4505050565b6126fb828260405180602001604052806000815250612b92565b5050565b6000600a60009054906101000a900473ffffffffffffffffffffffffffffffffffffffff16905081600a60006101000a81548173ffffffffffffffffffffffffffffffffffffffff021916908373ffffffffffffffffffffffffffffffffffffffff1602179055508173ffffffffffffffffffffffffffffffffffffffff168173ffffffffffffffffffffffffffffffffffffffff167f8be0079c531659141344cd1fd0a4f28419497f9722a3daafe3b4186f6b6457e060405160405180910390a35050565b6127d0848484612485565b6127dc84848484612bed565b61281b576040517f08c379a000000000000000000000000000000000000000000000000000000000815260040161281290614780565b60405180910390fd5b50505050565b6060600b805461283090613c34565b80601f016020809104026020016040519081016040528092919081815260200182805461285c90613c34565b80156128a95780601f1061287e576101008083540402835291602001916128a9565b820191906000526020600020905b81548152906001019060200180831161288c57829003601f168201915b5050505050905090565b606060008214156128fb576040518060400160405280600181526020017f30000000000000000000000000000000000000000000000000000000000000008152509050612a0f565b600082905060005b6000821461292d57808061291690614065565b915050600a8261292691906147cf565b9150612903565b60008167ffffffffffffffff81111561294957612948613798565b5b6040519080825280601f01601f19166020018201604052801561297b5781602001600182028036833780820191505090505b5090505b60008514612a085760018261299491906146da565b9150600a856129a39190614800565b60306129af9190613fb5565b60f81b8183815181106129c5576129c46140ae565b5b60200101907effffffffffffffffffffffffffffffffffffffffffffffffffffffffffffff1916908160001a905350600a85612a0191906147cf565b945061297f565b8093505050505b919050565b60007f01ffc9a7000000000000000000000000000000000000000000000000000000007bffffffffffffffffffffffffffffffffffffffffffffffffffffffff1916827bffffffffffffffffffffffffffffffffffffffffffffffffffffffff1916149050919050565b612a89838383612193565b600073ffffffffffffffffffffffffffffffffffffffff168373ffffffffffffffffffffffffffffffffffffffff161415612acc57612ac781612d84565b612b0b565b8173ffffffffffffffffffffffffffffffffffffffff168373ffffffffffffffffffffffffffffffffffffffff1614612b0a57612b098382612dcd565b5b5b600073ffffffffffffffffffffffffffffffffffffffff168273ffffffffffffffffffffffffffffffffffffffff161415612b4e57612b4981612f3a565b612b8d565b8273ffffffffffffffffffffffffffffffffffffffff168273ffffffffffffffffffffffffffffffffffffffff1614612b8c57612b8b828261300b565b5b5b505050565b612b9c838361308a565b612ba96000848484612bed565b612be8576040517f08c379a0000000000000000000000000000000000000000000000000000000008152600401612bdf90614780565b60405180910390fd5b505050565b6000612c0e8473ffffffffffffffffffffffffffffffffffffffff16612180565b15612d77578373ffffffffffffffffffffffffffffffffffffffff1663150b7a02612c3761227a565b8786866040518563ffffffff1660e01b8152600401612c599493929190614886565b602060405180830381600087803b158015612c7357600080fd5b505af1925050508015612ca457506040513d601f19601f82011682018060405250810190612ca191906148e7565b60015b612d27573d8060008114612cd4576040519150601f19603f3d011682016040523d82523d6000602084013e612cd9565b606091505b50600081511415612d1f576040517f08c379a0000000000000000000000000000000000000000000000000000000008152600401612d1690614780565b60405180910390fd5b805181602001fd5b63150b7a0260e01b7bffffffffffffffffffffffffffffffffffffffffffffffffffffffff1916817bffffffffffffffffffffffffffffffffffffffffffffffffffffffff191614915050612d7c565b600190505b949350505050565b6008805490506009600083815260200190815260200160002081905550600881908060018154018082558091505060019003906000526020600020016000909190919091505550565b60006001612dda84611767565b612de491906146da565b9050600060076000848152602001908152602001600020549050818114612ec9576000600660008673ffffffffffffffffffffffffffffffffffffffff1673ffffffffffffffffffffffffffffffffffffffff168152602001908152602001600020600084815260200190815260200160002054905080600660008773ffffffffffffffffffffffffffffffffffffffff1673ffffffffffffffffffffffffffffffffffffffff168152602001908152602001600020600084815260200190815260200160002081905550816007600083815260200190815260200160002081905550505b6007600084815260200190815260200160002060009055600660008573ffffffffffffffffffffffffffffffffffffffff1673ffffffffffffffffffffffffffffffffffffffff16815260200190815260200160002060008381526020019081526020016000206000905550505050565b60006001600880549050612f4e91906146da565b9050600060096000848152602001908152602001600020549050600060088381548110612f7e57612f7d6140ae565b5b906000526020600020015490508060088381548110612fa057612f9f6140ae565b5b906000526020600020018190555081600960008381526020019081526020016000208190555060096000858152602001908152602001600020600090556008805480612fef57612fee614914565b5b6001900381819060005260206000200160009055905550505050565b600061301683611767565b905081600660008573ffffffffffffffffffffffffffffffffffffffff1673ffffffffffffffffffffffffffffffffffffffff168152602001908152602001600020600083815260200190815260200160002081905550806007600084815260200190815260200160002081905550505050565b600073ffffffffffffffffffffffffffffffffffffffff168273ffffffffffffffffffffffffffffffffffffffff1614156130fa576040517f08c379a00000000000000000000000000000000000000000000000000000000081526004016130f19061498f565b60405180910390fd5b61310381612282565b15613143576040517f08c379a000000000000000000000000000000000000000000000000000000000815260040161313a906149fb565b60405180910390fd5b61314f60008383612a7e565b6001600360008473ffffffffffffffffffffffffffffffffffffffff1673ffffffffffffffffffffffffffffffffffffffff168152602001908152602001600020600082825461319f9190613fb5565b92505081905550816002600083815260200190815260200160002060006101000a81548173ffffffffffffffffffffffffffffffffffffffff021916908373ffffffffffffffffffffffffffffffffffffffff160217905550808273ffffffffffffffffffffffffffffffffffffffff16600073ffffffffffffffffffffffffffffffffffffffff167fddf252ad1be2c89b69c2b068fc378daa952ba7f163c4a11628f55a4df523b3ef60405160405180910390a45050565b82805461326490613c34565b90600052602060002090601f01602090048101928261328657600085556132cd565b82601f1061329f57805160ff19168380011785556132cd565b828001600101855582156132cd579182015b828111156132cc5782518255916020019190600101906132b1565b5b5090506132da91906132de565b5090565b5b808211156132f75760008160009055506001016132df565b5090565b6000604051905090565b600080fd5b600080fd5b60007fffffffff0000000000000000000000000000000000000000000000000000000082169050919050565b6133448161330f565b811461334f57600080fd5b50565b6000813590506133618161333b565b92915050565b60006020828403121561337d5761337c613305565b5b600061338b84828501613352565b91505092915050565b60008115159050919050565b6133a981613394565b82525050565b60006020820190506133c460008301846133a0565b92915050565b6133d381613394565b81146133de57600080fd5b50565b6000813590506133f0816133ca565b92915050565b60006020828403121561340c5761340b613305565b5b600061341a848285016133e1565b91505092915050565b600081519050919050565b600082825260208201905092915050565b60005b8381101561345d578082015181840152602081019050613442565b8381111561346c576000848401525b50505050565b6000601f19601f8301169050919050565b600061348e82613423565b613498818561342e565b93506134a881856020860161343f565b6134b181613472565b840191505092915050565b600060208201905081810360008301526134d68184613483565b905092915050565b6000819050919050565b6134f1816134de565b81146134fc57600080fd5b50565b60008135905061350e816134e8565b92915050565b60006020828403121561352a57613529613305565b5b6000613538848285016134ff565b91505092915050565b600073ffffffffffffffffffffffffffffffffffffffff82169050919050565b600061356c82613541565b9050919050565b61357c81613561565b82525050565b60006020820190506135976000830184613573565b92915050565b6135a681613561565b81146135b157600080fd5b50565b6000813590506135c38161359d565b92915050565b600080604083850312156135e0576135df613305565b5b60006135ee858286016135b4565b92505060206135ff858286016134ff565b9150509250929050565b613612816134de565b82525050565b600060208201905061362d6000830184613609565b92915050565b60008060006060848603121561364c5761364b613305565b5b600061365a868287016135b4565b935050602061366b868287016135b4565b925050604061367c868287016134ff565b9150509250925092565b60006020828403121561369c5761369b613305565b5b60006136aa848285016135b4565b91505092915050565b600081519050919050565b600082825260208201905092915050565b6000819050602082019050919050565b6136e8816134de565b82525050565b60006136fa83836136df565b60208301905092915050565b6000602082019050919050565b600061371e826136b3565b61372881856136be565b9350613733836136cf565b8060005b8381101561376457815161374b88826136ee565b975061375683613706565b925050600181019050613737565b5085935050505092915050565b6000602082019050818103600083015261378b8184613713565b905092915050565b600080fd5b7f4e487b7100000000000000000000000000000000000000000000000000000000600052604160045260246000fd5b6137d082613472565b810181811067ffffffffffffffff821117156137ef576137ee613798565b5b80604052505050565b60006138026132fb565b905061380e82826137c7565b919050565b600067ffffffffffffffff82111561382e5761382d613798565b5b602082029050919050565b600080fd5b600061385161384c84613813565b6137f8565b9050806020840283018581111561386b5761386a613839565b5b835b81811015613894578061388088826135b4565b84526020840193505060208101905061386d565b5050509392505050565b600082601f8301126138b3576138b2613793565b5b60646138c084828561383e565b91505092915050565b6000610c8082840312156138e0576138df613305565b5b60006138ee8482850161389e565b91505092915050565b600080fd5b600067ffffffffffffffff82111561391757613916613798565b5b61392082613472565b9050602081019050919050565b82818337600083830152505050565b600061394f61394a846138fc565b6137f8565b90508281526020810184848401111561396b5761396a6138f7565b5b61397684828561392d565b509392505050565b600082601f83011261399357613992613793565b5b81356139a384826020860161393c565b91505092915050565b6000602082840312156139c2576139c1613305565b5b600082013567ffffffffffffffff8111156139e0576139df61330a565b5b6139ec8482850161397e565b91505092915050565b60008060408385031215613a0c57613a0b613305565b5b6000613a1a858286016135b4565b9250506020613a2b858286016133e1565b9150509250929050565b600067ffffffffffffffff821115613a5057613a4f613798565b5b613a5982613472565b9050602081019050919050565b6000613a79613a7484613a35565b6137f8565b905082815260208101848484011115613a9557613a946138f7565b5b613aa084828561392d565b509392505050565b600082601f830112613abd57613abc613793565b5b8135613acd848260208601613a66565b91505092915050565b60008060008060808587031215613af057613aef613305565b5b6000613afe878288016135b4565b9450506020613b0f878288016135b4565b9350506040613b20878288016134ff565b925050606085013567ffffffffffffffff811115613b4157613b4061330a565b5b613b4d87828801613aa8565b91505092959194509250565b60008060408385031215613b7057613b6f613305565b5b6000613b7e858286016135b4565b9250506020613b8f858286016135b4565b9150509250929050565b7f4f776e61626c653a2063616c6c6572206973206e6f7420746865206f776e6572600082015250565b6000613bcf60208361342e565b9150613bda82613b99565b602082019050919050565b60006020820190508181036000830152613bfe81613bc2565b9050919050565b7f4e487b7100000000000000000000000000000000000000000000000000000000600052602260045260246000fd5b60006002820490506001821680613c4c57607f821691505b60208210811415613c6057613c5f613c05565b5b50919050565b7f4552433732313a20617070726f76656420717565727920666f72206e6f6e657860008201527f697374656e7420746f6b656e0000000000000000000000000000000000000000602082015250565b6000613cc2602c8361342e565b9150613ccd82613c66565b604082019050919050565b60006020820190508181036000830152613cf181613cb5565b9050919050565b7f4552433732313a20617070726f76616c20746f2063757272656e74206f776e6560008201527f7200000000000000000000000000000000000000000000000000000000000000602082015250565b6000613d5460218361342e565b9150613d5f82613cf8565b604082019050919050565b60006020820190508181036000830152613d8381613d47565b9050919050565b7f4552433732313a20617070726f76652063616c6c6572206973206e6f74206f7760008201527f6e6572206e6f7220617070726f76656420666f7220616c6c0000000000000000602082015250565b6000613de660388361342e565b9150613df182613d8a565b604082019050919050565b60006020820190508181036000830152613e1581613dd9565b9050919050565b7f4552433732313a207472616e736665722063616c6c6572206973206e6f74206f60008201527f776e6572206e6f7220617070726f766564000000000000000000000000000000602082015250565b6000613e7860318361342e565b9150613e8382613e1c565b604082019050919050565b60006020820190508181036000830152613ea781613e6b565b9050919050565b7f455243373231456e756d657261626c653a206f776e657220696e646578206f7560008201527f74206f6620626f756e6473000000000000000000000000000000000000000000602082015250565b6000613f0a602b8361342e565b9150613f1582613eae565b604082019050919050565b60006020820190508181036000830152613f3981613efd565b9050919050565b600081905092915050565b50565b6000613f5b600083613f40565b9150613f6682613f4b565b600082019050919050565b6000613f7c82613f4e565b9150819050919050565b7f4e487b7100000000000000000000000000000000000000000000000000000000600052601160045260246000fd5b6000613fc0826134de565b9150613fcb836134de565b9250827fffffffffffffffffffffffffffffffffffffffffffffffffffffffffffffffff0382111561400057613fff613f86565b5b828201905092915050565b6000614016826134de565b9150614021836134de565b9250817fffffffffffffffffffffffffffffffffffffffffffffffffffffffffffffffff048311821515161561405a57614059613f86565b5b828202905092915050565b6000614070826134de565b91507fffffffffffffffffffffffffffffffffffffffffffffffffffffffffffffffff8214156140a3576140a2613f86565b5b600182019050919050565b7f4e487b7100000000000000000000000000000000000000000000000000000000600052603260045260246000fd5b7f455243373231456e756d657261626c653a20676c6f62616c20696e646578206f60008201527f7574206f6620626f756e64730000000000000000000000000000000000000000602082015250565b6000614139602c8361342e565b9150614144826140dd565b604082019050919050565b600060208201905081810360008301526141688161412c565b9050919050565b7f4552433732313a206f776e657220717565727920666f72206e6f6e657869737460008201527f656e7420746f6b656e0000000000000000000000000000000000000000000000602082015250565b60006141cb60298361342e565b91506141d68261416f565b604082019050919050565b600060208201905081810360008301526141fa816141be565b9050919050565b7f4552433732313a2062616c616e636520717565727920666f7220746865207a6560008201527f726f206164647265737300000000000000000000000000000000000000000000602082015250565b600061425d602a8361342e565b915061426882614201565b604082019050919050565b6000602082019050818103600083015261428c81614250565b9050919050565b7f4552433732313a20617070726f766520746f2063616c6c657200000000000000600082015250565b60006142c960198361342e565b91506142d482614293565b602082019050919050565b600060208201905081810360008301526142f8816142bc565b9050919050565b7f4552433732314d657461646174613a2055524920717565727920666f72206e6f60008201527f6e6578697374656e7420746f6b656e0000000000000000000000000000000000602082015250565b600061435b602f8361342e565b9150614366826142ff565b604082019050919050565b6000602082019050818103600083015261438a8161434e565b9050919050565b600081905092915050565b60006143a782613423565b6143b18185614391565b93506143c181856020860161343f565b80840191505092915050565b60008190508160005260206000209050919050565b600081546143ef81613c34565b6143f98186614391565b94506001821660008114614414576001811461442557614458565b60ff19831686528186019350614458565b61442e856143cd565b60005b8381101561445057815481890152600182019150602081019050614431565b838801955050505b50505092915050565b600061446d828661439c565b9150614479828561439c565b915061448582846143e2565b9150819050949350505050565b7f4f776e61626c653a206e6577206f776e657220697320746865207a65726f206160008201527f6464726573730000000000000000000000000000000000000000000000000000602082015250565b60006144ee60268361342e565b91506144f982614492565b604082019050919050565b6000602082019050818103600083015261451d816144e1565b9050919050565b7f4552433732313a206f70657261746f7220717565727920666f72206e6f6e657860008201527f697374656e7420746f6b656e0000000000000000000000000000000000000000602082015250565b6000614580602c8361342e565b915061458b82614524565b604082019050919050565b600060208201905081810360008301526145af81614573565b9050919050565b7f4552433732313a207472616e73666572206f6620746f6b656e2074686174206960008201527f73206e6f74206f776e0000000000000000000000000000000000000000000000602082015250565b600061461260298361342e565b915061461d826145b6565b604082019050919050565b6000602082019050818103600083015261464181614605565b9050919050565b7f4552433732313a207472616e7366657220746f20746865207a65726f2061646460008201527f7265737300000000000000000000000000000000000000000000000000000000602082015250565b60006146a460248361342e565b91506146af82614648565b604082019050919050565b600060208201905081810360008301526146d381614697565b9050919050565b60006146e5826134de565b91506146f0836134de565b92508282101561470357614702613f86565b5b828203905092915050565b7f4552433732313a207472616e7366657220746f206e6f6e20455243373231526560008201527f63656976657220696d706c656d656e7465720000000000000000000000000000602082015250565b600061476a60328361342e565b91506147758261470e565b604082019050919050565b600060208201905081810360008301526147998161475d565b9050919050565b7f4e487b7100000000000000000000000000000000000000000000000000000000600052601260045260246000fd5b60006147da826134de565b91506147e5836134de565b9250826147f5576147f46147a0565b5b828204905092915050565b600061480b826134de565b9150614816836134de565b925082614826576148256147a0565b5b828206905092915050565b600081519050919050565b600082825260208201905092915050565b600061485882614831565b614862818561483c565b935061487281856020860161343f565b61487b81613472565b840191505092915050565b600060808201905061489b6000830187613573565b6148a86020830186613573565b6148b56040830185613609565b81810360608301526148c7818461484d565b905095945050505050565b6000815190506148e18161333b565b92915050565b6000602082840312156148fd576148fc613305565b5b600061490b848285016148d2565b91505092915050565b7f4e487b7100000000000000000000000000000000000000000000000000000000600052603160045260246000fd5b7f4552433732313a206d696e7420746f20746865207a65726f2061646472657373600082015250565b600061497960208361342e565b915061498482614943565b602082019050919050565b600060208201905081810360008301526149a88161496c565b9050919050565b7f4552433732313a20746f6b656e20616c7265616479206d696e74656400000000600082015250565b60006149e5601c8361342e565b91506149f0826149af565b602082019050919050565b60006020820190508181036000830152614a14816149d8565b905091905056fea264697066735822122071d815f6ace86a17992b355357706655ed363a4584735244a1bb292095da8e3564736f6c63430008090033",
			"opcodes": "PUSH1 0x80 PUSH1 0x40 MSTORE PUSH1 0x40 MLOAD DUP1 PUSH1 0x40 ADD PUSH1 0x40 MSTORE DUP1 PUSH1 0x5 DUP2 MSTORE PUSH1 0x20 ADD PUSH32 0x2E6A736F6E000000000000000000000000000000000000000000000000000000 DUP2 MSTORE POP PUSH1 0xC SWAP1 DUP1 MLOAD SWAP1 PUSH1 0x20 ADD SWAP1 PUSH3 0x51 SWAP3 SWAP2 SWAP1 PUSH3 0xEC8 JUMP JUMPDEST POP PUSH7 0xB1A2BC2EC50000 PUSH1 0xD SSTORE PUSH7 0x6A94D74F430000 PUSH1 0xE SSTORE PUSH2 0x3E0 PUSH1 0xF SSTORE PUSH1 0x14 PUSH1 0x10 SSTORE PUSH1 0x0 PUSH1 0x11 PUSH1 0x0 PUSH2 0x100 EXP DUP2 SLOAD DUP2 PUSH1 0xFF MUL NOT AND SWAP1 DUP4 ISZERO ISZERO MUL OR SWAP1 SSTORE POP CALLVALUE DUP1 ISZERO PUSH3 0x9B JUMPI PUSH1 0x0 DUP1 REVERT JUMPDEST POP PUSH1 0x40 MLOAD PUSH3 0x629F CODESIZE SUB DUP1 PUSH3 0x629F DUP4 CODECOPY DUP2 DUP2 ADD PUSH1 0x40 MSTORE DUP2 ADD SWAP1 PUSH3 0xC1 SWAP2 SWAP1 PUSH3 0x1115 JUMP JUMPDEST DUP3 DUP3 DUP2 PUSH1 0x0 SWAP1 DUP1 MLOAD SWAP1 PUSH1 0x20 ADD SWAP1 PUSH3 0xDB SWAP3 SWAP2 SWAP1 PUSH3 0xEC8 JUMP JUMPDEST POP DUP1 PUSH1 0x1 SWAP1 DUP1 MLOAD SWAP1 PUSH1 0x20 ADD SWAP1 PUSH3 0xF4 SWAP3 SWAP2 SWAP1 PUSH3 0xEC8 JUMP JUMPDEST POP POP POP PUSH3 0x117 PUSH3 0x10B PUSH3 0x144 PUSH1 0x20 SHL PUSH1 0x20 SHR JUMP JUMPDEST PUSH3 0x14C PUSH1 0x20 SHL PUSH1 0x20 SHR JUMP JUMPDEST PUSH3 0x128 DUP2 PUSH3 0x212 PUSH1 0x20 SHL PUSH1 0x20 SHR JUMP JUMPDEST PUSH3 0x13B CALLER PUSH1 0x14 PUSH3 0x2BD PUSH1 0x20 SHL PUSH1 0x20 SHR JUMP JUMPDEST POP POP POP PUSH3 0x183E JUMP JUMPDEST PUSH1 0x0 CALLER SWAP1 POP SWAP1 JUMP JUMPDEST PUSH1 0x0 PUSH1 0xA PUSH1 0x0 SWAP1 SLOAD SWAP1 PUSH2 0x100 EXP SWAP1 DIV PUSH20 0xFFFFFFFFFFFFFFFFFFFFFFFFFFFFFFFFFFFFFFFF AND SWAP1 POP DUP2 PUSH1 0xA PUSH1 0x0 PUSH2 0x100 EXP DUP2 SLOAD DUP2 PUSH20 0xFFFFFFFFFFFFFFFFFFFFFFFFFFFFFFFFFFFFFFFF MUL NOT AND SWAP1 DUP4 PUSH20 0xFFFFFFFFFFFFFFFFFFFFFFFFFFFFFFFFFFFFFFFF AND MUL OR SWAP1 SSTORE POP DUP2 PUSH20 0xFFFFFFFFFFFFFFFFFFFFFFFFFFFFFFFFFFFFFFFF AND DUP2 PUSH20 0xFFFFFFFFFFFFFFFFFFFFFFFFFFFFFFFFFFFFFFFF AND PUSH32 0x8BE0079C531659141344CD1FD0A4F28419497F9722A3DAAFE3B4186F6B6457E0 PUSH1 0x40 MLOAD PUSH1 0x40 MLOAD DUP1 SWAP2 SUB SWAP1 LOG3 POP POP JUMP JUMPDEST PUSH3 0x222 PUSH3 0x144 PUSH1 0x20 SHL PUSH1 0x20 SHR JUMP JUMPDEST PUSH20 0xFFFFFFFFFFFFFFFFFFFFFFFFFFFFFFFFFFFFFFFF AND PUSH3 0x248 PUSH3 0x4A9 PUSH1 0x20 SHL PUSH1 0x20 SHR JUMP JUMPDEST PUSH20 0xFFFFFFFFFFFFFFFFFFFFFFFFFFFFFFFFFFFFFFFF AND EQ PUSH3 0x2A1 JUMPI PUSH1 0x40 MLOAD PUSH32 0x8C379A000000000000000000000000000000000000000000000000000000000 DUP2 MSTORE PUSH1 0x4 ADD PUSH3 0x298 SWAP1 PUSH3 0x122F JUMP JUMPDEST PUSH1 0x40 MLOAD DUP1 SWAP2 SUB SWAP1 REVERT JUMPDEST DUP1 PUSH1 0xB SWAP1 DUP1 MLOAD SWAP1 PUSH1 0x20 ADD SWAP1 PUSH3 0x2B9 SWAP3 SWAP2 SWAP1 PUSH3 0xEC8 JUMP JUMPDEST POP POP JUMP JUMPDEST PUSH1 0x0 PUSH3 0x2CF PUSH3 0x4D3 PUSH1 0x20 SHL PUSH1 0x20 SHR JUMP JUMPDEST SWAP1 POP PUSH1 0x11 PUSH1 0x0 SWAP1 SLOAD SWAP1 PUSH2 0x100 EXP SWAP1 DIV PUSH1 0xFF AND ISZERO PUSH3 0x2EC JUMPI PUSH1 0x0 DUP1 REVERT JUMPDEST PUSH1 0x0 DUP3 GT PUSH3 0x2FA JUMPI PUSH1 0x0 DUP1 REVERT JUMPDEST PUSH1 0x10 SLOAD DUP3 GT ISZERO PUSH3 0x30A JUMPI PUSH1 0x0 DUP1 REVERT JUMPDEST PUSH1 0xF SLOAD DUP3 DUP3 PUSH3 0x31B SWAP2 SWAP1 PUSH3 0x128A JUMP JUMPDEST GT ISZERO PUSH3 0x327 JUMPI PUSH1 0x0 DUP1 REVERT JUMPDEST PUSH3 0x337 PUSH3 0x4A9 PUSH1 0x20 SHL PUSH1 0x20 SHR JUMP JUMPDEST PUSH20 0xFFFFFFFFFFFFFFFFFFFFFFFFFFFFFFFFFFFFFFFF AND CALLER PUSH20 0xFFFFFFFFFFFFFFFFFFFFFFFFFFFFFFFFFFFFFFFF AND EQ PUSH3 0x45F JUMPI PUSH1 0x1 ISZERO ISZERO PUSH1 0x12 PUSH1 0x0 CALLER PUSH20 0xFFFFFFFFFFFFFFFFFFFFFFFFFFFFFFFFFFFFFFFF AND PUSH20 0xFFFFFFFFFFFFFFFFFFFFFFFFFFFFFFFFFFFFFFFF AND DUP2 MSTORE PUSH1 0x20 ADD SWAP1 DUP2 MSTORE PUSH1 0x20 ADD PUSH1 0x0 KECCAK256 PUSH1 0x0 SWAP1 SLOAD SWAP1 PUSH2 0x100 EXP SWAP1 DIV PUSH1 0xFF AND ISZERO ISZERO EQ PUSH3 0x45E JUMPI PUSH1 0x1 ISZERO ISZERO PUSH1 0x13 PUSH1 0x0 CALLER PUSH20 0xFFFFFFFFFFFFFFFFFFFFFFFFFFFFFFFFFFFFFFFF AND PUSH20 0xFFFFFFFFFFFFFFFFFFFFFFFFFFFFFFFFFFFFFFFF AND DUP2 MSTORE PUSH1 0x20 ADD SWAP1 DUP2 MSTORE PUSH1 0x20 ADD PUSH1 0x0 KECCAK256 PUSH1 0x0 SWAP1 SLOAD SWAP1 PUSH2 0x100 EXP SWAP1 DIV PUSH1 0xFF AND ISZERO ISZERO EQ PUSH3 0x43F JUMPI DUP2 PUSH1 0xD SLOAD PUSH3 0x42C SWAP2 SWAP1 PUSH3 0x12E7 JUMP JUMPDEST CALLVALUE LT ISZERO PUSH3 0x439 JUMPI PUSH1 0x0 DUP1 REVERT JUMPDEST PUSH3 0x45D JUMP JUMPDEST DUP2 PUSH1 0xE SLOAD PUSH3 0x44F SWAP2 SWAP1 PUSH3 0x12E7 JUMP JUMPDEST CALLVALUE LT ISZERO PUSH3 0x45C JUMPI PUSH1 0x0 DUP1 REVERT JUMPDEST JUMPDEST JUMPDEST JUMPDEST PUSH1 0x0 PUSH1 0x1 SWAP1 POP JUMPDEST DUP3 DUP2 GT PUSH3 0x4A3 JUMPI PUSH3 0x48D DUP5 DUP3 DUP5 PUSH3 0x481 SWAP2 SWAP1 PUSH3 0x128A JUMP JUMPDEST PUSH3 0x4E0 PUSH1 0x20 SHL PUSH1 0x20 SHR JUMP JUMPDEST DUP1 DUP1 PUSH3 0x49A SWAP1 PUSH3 0x1348 JUMP JUMPDEST SWAP2 POP POP PUSH3 0x466 JUMP JUMPDEST POP POP POP POP JUMP JUMPDEST PUSH1 0x0 PUSH1 0xA PUSH1 0x0 SWAP1 SLOAD SWAP1 PUSH2 0x100 EXP SWAP1 DIV PUSH20 0xFFFFFFFFFFFFFFFFFFFFFFFFFFFFFFFFFFFFFFFF AND SWAP1 POP SWAP1 JUMP JUMPDEST PUSH1 0x0 PUSH1 0x8 DUP1 SLOAD SWAP1 POP SWAP1 POP SWAP1 JUMP JUMPDEST PUSH3 0x502 DUP3 DUP3 PUSH1 0x40 MLOAD DUP1 PUSH1 0x20 ADD PUSH1 0x40 MSTORE DUP1 PUSH1 0x0 DUP2 MSTORE POP PUSH3 0x506 PUSH1 0x20 SHL PUSH1 0x20 SHR JUMP JUMPDEST POP POP JUMP JUMPDEST PUSH3 0x518 DUP4 DUP4 PUSH3 0x574 PUSH1 0x20 SHL PUSH1 0x20 SHR JUMP JUMPDEST PUSH3 0x52D PUSH1 0x0 DUP5 DUP5 DUP5 PUSH3 0x75A PUSH1 0x20 SHL PUSH1 0x20 SHR JUMP JUMPDEST PUSH3 0x56F JUMPI PUSH1 0x40 MLOAD PUSH32 0x8C379A000000000000000000000000000000000000000000000000000000000 DUP2 MSTORE PUSH1 0x4 ADD PUSH3 0x566 SWAP1 PUSH3 0x140C JUMP JUMPDEST PUSH1 0x40 MLOAD DUP1 SWAP2 SUB SWAP1 REVERT JUMPDEST POP POP POP JUMP JUMPDEST PUSH1 0x0 PUSH20 0xFFFFFFFFFFFFFFFFFFFFFFFFFFFFFFFFFFFFFFFF AND DUP3 PUSH20 0xFFFFFFFFFFFFFFFFFFFFFFFFFFFFFFFFFFFFFFFF AND EQ ISZERO PUSH3 0x5E7 JUMPI PUSH1 0x40 MLOAD PUSH32 0x8C379A000000000000000000000000000000000000000000000000000000000 DUP2 MSTORE PUSH1 0x4 ADD PUSH3 0x5DE SWAP1 PUSH3 0x147E JUMP JUMPDEST PUSH1 0x40 MLOAD DUP1 SWAP2 SUB SWAP1 REVERT JUMPDEST PUSH3 0x5F8 DUP2 PUSH3 0x914 PUSH1 0x20 SHL PUSH1 0x20 SHR JUMP JUMPDEST ISZERO PUSH3 0x63B JUMPI PUSH1 0x40 MLOAD PUSH32 0x8C379A000000000000000000000000000000000000000000000000000000000 DUP2 MSTORE PUSH1 0x4 ADD PUSH3 0x632 SWAP1 PUSH3 0x14F0 JUMP JUMPDEST PUSH1 0x40 MLOAD DUP1 SWAP2 SUB SWAP1 REVERT JUMPDEST PUSH3 0x64F PUSH1 0x0 DUP4 DUP4 PUSH3 0x980 PUSH1 0x20 SHL PUSH1 0x20 SHR JUMP JUMPDEST PUSH1 0x1 PUSH1 0x3 PUSH1 0x0 DUP5 PUSH20 0xFFFFFFFFFFFFFFFFFFFFFFFFFFFFFFFFFFFFFFFF AND PUSH20 0xFFFFFFFFFFFFFFFFFFFFFFFFFFFFFFFFFFFFFFFF AND DUP2 MSTORE PUSH1 0x20 ADD SWAP1 DUP2 MSTORE PUSH1 0x20 ADD PUSH1 0x0 KECCAK256 PUSH1 0x0 DUP3 DUP3 SLOAD PUSH3 0x6A1 SWAP2 SWAP1 PUSH3 0x128A JUMP JUMPDEST SWAP3 POP POP DUP2 SWAP1 SSTORE POP DUP2 PUSH1 0x2 PUSH1 0x0 DUP4 DUP2 MSTORE PUSH1 0x20 ADD SWAP1 DUP2 MSTORE PUSH1 0x20 ADD PUSH1 0x0 KECCAK256 PUSH1 0x0 PUSH2 0x100 EXP DUP2 SLOAD DUP2 PUSH20 0xFFFFFFFFFFFFFFFFFFFFFFFFFFFFFFFFFFFFFFFF MUL NOT AND SWAP1 DUP4 PUSH20 0xFFFFFFFFFFFFFFFFFFFFFFFFFFFFFFFFFFFFFFFF AND MUL OR SWAP1 SSTORE POP DUP1 DUP3 PUSH20 0xFFFFFFFFFFFFFFFFFFFFFFFFFFFFFFFFFFFFFFFF AND PUSH1 0x0 PUSH20 0xFFFFFFFFFFFFFFFFFFFFFFFFFFFFFFFFFFFFFFFF AND PUSH32 0xDDF252AD1BE2C89B69C2B068FC378DAA952BA7F163C4A11628F55A4DF523B3EF PUSH1 0x40 MLOAD PUSH1 0x40 MLOAD DUP1 SWAP2 SUB SWAP1 LOG4 POP POP JUMP JUMPDEST PUSH1 0x0 PUSH3 0x788 DUP5 PUSH20 0xFFFFFFFFFFFFFFFFFFFFFFFFFFFFFFFFFFFFFFFF AND PUSH3 0xAC7 PUSH1 0x20 SHL PUSH3 0x2180 OR PUSH1 0x20 SHR JUMP JUMPDEST ISZERO PUSH3 0x907 JUMPI DUP4 PUSH20 0xFFFFFFFFFFFFFFFFFFFFFFFFFFFFFFFFFFFFFFFF AND PUSH4 0x150B7A02 PUSH3 0x7BA PUSH3 0x144 PUSH1 0x20 SHL PUSH1 0x20 SHR JUMP JUMPDEST DUP8 DUP7 DUP7 PUSH1 0x40 MLOAD DUP6 PUSH4 0xFFFFFFFF AND PUSH1 0xE0 SHL DUP2 MSTORE PUSH1 0x4 ADD PUSH3 0x7DE SWAP5 SWAP4 SWAP3 SWAP2 SWAP1 PUSH3 0x15C5 JUMP JUMPDEST PUSH1 0x20 PUSH1 0x40 MLOAD DUP1 DUP4 SUB DUP2 PUSH1 0x0 DUP8 DUP1 EXTCODESIZE ISZERO DUP1 ISZERO PUSH3 0x7F9 JUMPI PUSH1 0x0 DUP1 REVERT JUMPDEST POP GAS CALL SWAP3 POP POP POP DUP1 ISZERO PUSH3 0x82D JUMPI POP PUSH1 0x40 MLOAD RETURNDATASIZE PUSH1 0x1F NOT PUSH1 0x1F DUP3 ADD AND DUP3 ADD DUP1 PUSH1 0x40 MSTORE POP DUP2 ADD SWAP1 PUSH3 0x82A SWAP2 SWAP1 PUSH3 0x1676 JUMP JUMPDEST PUSH1 0x1 JUMPDEST PUSH3 0x8B6 JUMPI RETURNDATASIZE DUP1 PUSH1 0x0 DUP2 EQ PUSH3 0x860 JUMPI PUSH1 0x40 MLOAD SWAP2 POP PUSH1 0x1F NOT PUSH1 0x3F RETURNDATASIZE ADD AND DUP3 ADD PUSH1 0x40 MSTORE RETURNDATASIZE DUP3 MSTORE RETURNDATASIZE PUSH1 0x0 PUSH1 0x20 DUP5 ADD RETURNDATACOPY PUSH3 0x865 JUMP JUMPDEST PUSH1 0x60 SWAP2 POP JUMPDEST POP PUSH1 0x0 DUP2 MLOAD EQ ISZERO PUSH3 0x8AE JUMPI PUSH1 0x40 MLOAD PUSH32 0x8C379A000000000000000000000000000000000000000000000000000000000 DUP2 MSTORE PUSH1 0x4 ADD PUSH3 0x8A5 SWAP1 PUSH3 0x140C JUMP JUMPDEST PUSH1 0x40 MLOAD DUP1 SWAP2 SUB SWAP1 REVERT JUMPDEST DUP1 MLOAD DUP2 PUSH1 0x20 ADD REVERT JUMPDEST PUSH4 0x150B7A02 PUSH1 0xE0 SHL PUSH28 0xFFFFFFFFFFFFFFFFFFFFFFFFFFFFFFFFFFFFFFFFFFFFFFFFFFFFFFFF NOT AND DUP2 PUSH28 0xFFFFFFFFFFFFFFFFFFFFFFFFFFFFFFFFFFFFFFFFFFFFFFFFFFFFFFFF NOT AND EQ SWAP2 POP POP PUSH3 0x90C JUMP JUMPDEST PUSH1 0x1 SWAP1 POP JUMPDEST SWAP5 SWAP4 POP POP POP POP JUMP JUMPDEST PUSH1 0x0 DUP1 PUSH20 0xFFFFFFFFFFFFFFFFFFFFFFFFFFFFFFFFFFFFFFFF AND PUSH1 0x2 PUSH1 0x0 DUP5 DUP2 MSTORE PUSH1 0x20 ADD SWAP1 DUP2 MSTORE PUSH1 0x20 ADD PUSH1 0x0 KECCAK256 PUSH1 0x0 SWAP1 SLOAD SWAP1 PUSH2 0x100 EXP SWAP1 DIV PUSH20 0xFFFFFFFFFFFFFFFFFFFFFFFFFFFFFFFFFFFFFFFF AND PUSH20 0xFFFFFFFFFFFFFFFFFFFFFFFFFFFFFFFFFFFFFFFF AND EQ ISZERO SWAP1 POP SWAP2 SWAP1 POP JUMP JUMPDEST PUSH3 0x998 DUP4 DUP4 DUP4 PUSH3 0xADA PUSH1 0x20 SHL PUSH3 0x2193 OR PUSH1 0x20 SHR JUMP JUMPDEST PUSH1 0x0 PUSH20 0xFFFFFFFFFFFFFFFFFFFFFFFFFFFFFFFFFFFFFFFF AND DUP4 PUSH20 0xFFFFFFFFFFFFFFFFFFFFFFFFFFFFFFFFFFFFFFFF AND EQ ISZERO PUSH3 0x9E5 JUMPI PUSH3 0x9DF DUP2 PUSH3 0xADF PUSH1 0x20 SHL PUSH1 0x20 SHR JUMP JUMPDEST PUSH3 0xA2D JUMP JUMPDEST DUP2 PUSH20 0xFFFFFFFFFFFFFFFFFFFFFFFFFFFFFFFFFFFFFFFF AND DUP4 PUSH20 0xFFFFFFFFFFFFFFFFFFFFFFFFFFFFFFFFFFFFFFFF AND EQ PUSH3 0xA2C JUMPI PUSH3 0xA2B DUP4 DUP3 PUSH3 0xB28 PUSH1 0x20 SHL PUSH1 0x20 SHR JUMP JUMPDEST JUMPDEST JUMPDEST PUSH1 0x0 PUSH20 0xFFFFFFFFFFFFFFFFFFFFFFFFFFFFFFFFFFFFFFFF AND DUP3 PUSH20 0xFFFFFFFFFFFFFFFFFFFFFFFFFFFFFFFFFFFFFFFF AND EQ ISZERO PUSH3 0xA7A JUMPI PUSH3 0xA74 DUP2 PUSH3 0xCA5 PUSH1 0x20 SHL PUSH1 0x20 SHR JUMP JUMPDEST PUSH3 0xAC2 JUMP JUMPDEST DUP3 PUSH20 0xFFFFFFFFFFFFFFFFFFFFFFFFFFFFFFFFFFFFFFFF AND DUP3 PUSH20 0xFFFFFFFFFFFFFFFFFFFFFFFFFFFFFFFFFFFFFFFF AND EQ PUSH3 0xAC1 JUMPI PUSH3 0xAC0 DUP3 DUP3 PUSH3 0xD81 PUSH1 0x20 SHL PUSH1 0x20 SHR JUMP JUMPDEST JUMPDEST JUMPDEST POP POP POP JUMP JUMPDEST PUSH1 0x0 DUP1 DUP3 EXTCODESIZE SWAP1 POP PUSH1 0x0 DUP2 GT SWAP2 POP POP SWAP2 SWAP1 POP JUMP JUMPDEST POP POP POP JUMP JUMPDEST PUSH1 0x8 DUP1 SLOAD SWAP1 POP PUSH1 0x9 PUSH1 0x0 DUP4 DUP2 MSTORE PUSH1 0x20 ADD SWAP1 DUP2 MSTORE PUSH1 0x20 ADD PUSH1 0x0 KECCAK256 DUP2 SWAP1 SSTORE POP PUSH1 0x8 DUP2 SWAP1 DUP1 PUSH1 0x1 DUP2 SLOAD ADD DUP1 DUP3 SSTORE DUP1 SWAP2 POP POP PUSH1 0x1 SWAP1 SUB SWAP1 PUSH1 0x0 MSTORE PUSH1 0x20 PUSH1 0x0 KECCAK256 ADD PUSH1 0x0 SWAP1 SWAP2 SWAP1 SWAP2 SWAP1 SWAP2 POP SSTORE POP JUMP JUMPDEST PUSH1 0x0 PUSH1 0x1 PUSH3 0xB42 DUP5 PUSH3 0xE0D PUSH1 0x20 SHL PUSH3 0x1767 OR PUSH1 0x20 SHR JUMP JUMPDEST PUSH3 0xB4E SWAP2 SWAP1 PUSH3 0x16A8 JUMP JUMPDEST SWAP1 POP PUSH1 0x0 PUSH1 0x7 PUSH1 0x0 DUP5 DUP2 MSTORE PUSH1 0x20 ADD SWAP1 DUP2 MSTORE PUSH1 0x20 ADD PUSH1 0x0 KECCAK256 SLOAD SWAP1 POP DUP2 DUP2 EQ PUSH3 0xC34 JUMPI PUSH1 0x0 PUSH1 0x6 PUSH1 0x0 DUP7 PUSH20 0xFFFFFFFFFFFFFFFFFFFFFFFFFFFFFFFFFFFFFFFF AND PUSH20 0xFFFFFFFFFFFFFFFFFFFFFFFFFFFFFFFFFFFFFFFF AND DUP2 MSTORE PUSH1 0x20 ADD SWAP1 DUP2 MSTORE PUSH1 0x20 ADD PUSH1 0x0 KECCAK256 PUSH1 0x0 DUP5 DUP2 MSTORE PUSH1 0x20 ADD SWAP1 DUP2 MSTORE PUSH1 0x20 ADD PUSH1 0x0 KECCAK256 SLOAD SWAP1 POP DUP1 PUSH1 0x6 PUSH1 0x0 DUP8 PUSH20 0xFFFFFFFFFFFFFFFFFFFFFFFFFFFFFFFFFFFFFFFF AND PUSH20 0xFFFFFFFFFFFFFFFFFFFFFFFFFFFFFFFFFFFFFFFF AND DUP2 MSTORE PUSH1 0x20 ADD SWAP1 DUP2 MSTORE PUSH1 0x20 ADD PUSH1 0x0 KECCAK256 PUSH1 0x0 DUP5 DUP2 MSTORE PUSH1 0x20 ADD SWAP1 DUP2 MSTORE PUSH1 0x20 ADD PUSH1 0x0 KECCAK256 DUP2 SWAP1 SSTORE POP DUP2 PUSH1 0x7 PUSH1 0x0 DUP4 DUP2 MSTORE PUSH1 0x20 ADD SWAP1 DUP2 MSTORE PUSH1 0x20 ADD PUSH1 0x0 KECCAK256 DUP2 SWAP1 SSTORE POP POP JUMPDEST PUSH1 0x7 PUSH1 0x0 DUP5 DUP2 MSTORE PUSH1 0x20 ADD SWAP1 DUP2 MSTORE PUSH1 0x20 ADD PUSH1 0x0 KECCAK256 PUSH1 0x0 SWAP1 SSTORE PUSH1 0x6 PUSH1 0x0 DUP6 PUSH20 0xFFFFFFFFFFFFFFFFFFFFFFFFFFFFFFFFFFFFFFFF AND PUSH20 0xFFFFFFFFFFFFFFFFFFFFFFFFFFFFFFFFFFFFFFFF AND DUP2 MSTORE PUSH1 0x20 ADD SWAP1 DUP2 MSTORE PUSH1 0x20 ADD PUSH1 0x0 KECCAK256 PUSH1 0x0 DUP4 DUP2 MSTORE PUSH1 0x20 ADD SWAP1 DUP2 MSTORE PUSH1 0x20 ADD PUSH1 0x0 KECCAK256 PUSH1 0x0 SWAP1 SSTORE POP POP POP POP JUMP JUMPDEST PUSH1 0x0 PUSH1 0x1 PUSH1 0x8 DUP1 SLOAD SWAP1 POP PUSH3 0xCBB SWAP2 SWAP1 PUSH3 0x16A8 JUMP JUMPDEST SWAP1 POP PUSH1 0x0 PUSH1 0x9 PUSH1 0x0 DUP5 DUP2 MSTORE PUSH1 0x20 ADD SWAP1 DUP2 MSTORE PUSH1 0x20 ADD PUSH1 0x0 KECCAK256 SLOAD SWAP1 POP PUSH1 0x0 PUSH1 0x8 DUP4 DUP2 SLOAD DUP2 LT PUSH3 0xCEE JUMPI PUSH3 0xCED PUSH3 0x16E3 JUMP JUMPDEST JUMPDEST SWAP1 PUSH1 0x0 MSTORE PUSH1 0x20 PUSH1 0x0 KECCAK256 ADD SLOAD SWAP1 POP DUP1 PUSH1 0x8 DUP4 DUP2 SLOAD DUP2 LT PUSH3 0xD13 JUMPI PUSH3 0xD12 PUSH3 0x16E3 JUMP JUMPDEST JUMPDEST SWAP1 PUSH1 0x0 MSTORE PUSH1 0x20 PUSH1 0x0 KECCAK256 ADD DUP2 SWAP1 SSTORE POP DUP2 PUSH1 0x9 PUSH1 0x0 DUP4 DUP2 MSTORE PUSH1 0x20 ADD SWAP1 DUP2 MSTORE PUSH1 0x20 ADD PUSH1 0x0 KECCAK256 DUP2 SWAP1 SSTORE POP PUSH1 0x9 PUSH1 0x0 DUP6 DUP2 MSTORE PUSH1 0x20 ADD SWAP1 DUP2 MSTORE PUSH1 0x20 ADD PUSH1 0x0 KECCAK256 PUSH1 0x0 SWAP1 SSTORE PUSH1 0x8 DUP1 SLOAD DUP1 PUSH3 0xD65 JUMPI PUSH3 0xD64 PUSH3 0x1712 JUMP JUMPDEST JUMPDEST PUSH1 0x1 SWAP1 SUB DUP2 DUP2 SWAP1 PUSH1 0x0 MSTORE PUSH1 0x20 PUSH1 0x0 KECCAK256 ADD PUSH1 0x0 SWAP1 SSTORE SWAP1 SSTORE POP POP POP POP JUMP JUMPDEST PUSH1 0x0 PUSH3 0xD99 DUP4 PUSH3 0xE0D PUSH1 0x20 SHL PUSH3 0x1767 OR PUSH1 0x20 SHR JUMP JUMPDEST SWAP1 POP DUP2 PUSH1 0x6 PUSH1 0x0 DUP6 PUSH20 0xFFFFFFFFFFFFFFFFFFFFFFFFFFFFFFFFFFFFFFFF AND PUSH20 0xFFFFFFFFFFFFFFFFFFFFFFFFFFFFFFFFFFFFFFFF AND DUP2 MSTORE PUSH1 0x20 ADD SWAP1 DUP2 MSTORE PUSH1 0x20 ADD PUSH1 0x0 KECCAK256 PUSH1 0x0 DUP4 DUP2 MSTORE PUSH1 0x20 ADD SWAP1 DUP2 MSTORE PUSH1 0x20 ADD PUSH1 0x0 KECCAK256 DUP2 SWAP1 SSTORE POP DUP1 PUSH1 0x7 PUSH1 0x0 DUP5 DUP2 MSTORE PUSH1 0x20 ADD SWAP1 DUP2 MSTORE PUSH1 0x20 ADD PUSH1 0x0 KECCAK256 DUP2 SWAP1 SSTORE POP POP POP POP JUMP JUMPDEST PUSH1 0x0 DUP1 PUSH20 0xFFFFFFFFFFFFFFFFFFFFFFFFFFFFFFFFFFFFFFFF AND DUP3 PUSH20 0xFFFFFFFFFFFFFFFFFFFFFFFFFFFFFFFFFFFFFFFF AND EQ ISZERO PUSH3 0xE81 JUMPI PUSH1 0x40 MLOAD PUSH32 0x8C379A000000000000000000000000000000000000000000000000000000000 DUP2 MSTORE PUSH1 0x4 ADD PUSH3 0xE78 SWAP1 PUSH3 0x17B7 JUMP JUMPDEST PUSH1 0x40 MLOAD DUP1 SWAP2 SUB SWAP1 REVERT JUMPDEST PUSH1 0x3 PUSH1 0x0 DUP4 PUSH20 0xFFFFFFFFFFFFFFFFFFFFFFFFFFFFFFFFFFFFFFFF AND PUSH20 0xFFFFFFFFFFFFFFFFFFFFFFFFFFFFFFFFFFFFFFFF AND DUP2 MSTORE PUSH1 0x20 ADD SWAP1 DUP2 MSTORE PUSH1 0x20 ADD PUSH1 0x0 KECCAK256 SLOAD SWAP1 POP SWAP2 SWAP1 POP JUMP JUMPDEST DUP3 DUP1 SLOAD PUSH3 0xED6 SWAP1 PUSH3 0x1808 JUMP JUMPDEST SWAP1 PUSH1 0x0 MSTORE PUSH1 0x20 PUSH1 0x0 KECCAK256 SWAP1 PUSH1 0x1F ADD PUSH1 0x20 SWAP1 DIV DUP2 ADD SWAP3 DUP3 PUSH3 0xEFA JUMPI PUSH1 0x0 DUP6 SSTORE PUSH3 0xF46 JUMP JUMPDEST DUP3 PUSH1 0x1F LT PUSH3 0xF15 JUMPI DUP1 MLOAD PUSH1 0xFF NOT AND DUP4 DUP1 ADD OR DUP6 SSTORE PUSH3 0xF46 JUMP JUMPDEST DUP3 DUP1 ADD PUSH1 0x1 ADD DUP6 SSTORE DUP3 ISZERO PUSH3 0xF46 JUMPI SWAP2 DUP3 ADD JUMPDEST DUP3 DUP2 GT ISZERO PUSH3 0xF45 JUMPI DUP3 MLOAD DUP3 SSTORE SWAP2 PUSH1 0x20 ADD SWAP2 SWAP1 PUSH1 0x1 ADD SWAP1 PUSH3 0xF28 JUMP JUMPDEST JUMPDEST POP SWAP1 POP PUSH3 0xF55 SWAP2 SWAP1 PUSH3 0xF59 JUMP JUMPDEST POP SWAP1 JUMP JUMPDEST JUMPDEST DUP1 DUP3 GT ISZERO PUSH3 0xF74 JUMPI PUSH1 0x0 DUP2 PUSH1 0x0 SWAP1 SSTORE POP PUSH1 0x1 ADD PUSH3 0xF5A JUMP JUMPDEST POP SWAP1 JUMP JUMPDEST PUSH1 0x0 PUSH1 0x40 MLOAD SWAP1 POP SWAP1 JUMP JUMPDEST PUSH1 0x0 DUP1 REVERT JUMPDEST PUSH1 0x0 DUP1 REVERT JUMPDEST PUSH1 0x0 DUP1 REVERT JUMPDEST PUSH1 0x0 DUP1 REVERT JUMPDEST PUSH1 0x0 PUSH1 0x1F NOT PUSH1 0x1F DUP4 ADD AND SWAP1 POP SWAP2 SWAP1 POP JUMP JUMPDEST PUSH32 0x4E487B7100000000000000000000000000000000000000000000000000000000 PUSH1 0x0 MSTORE PUSH1 0x41 PUSH1 0x4 MSTORE PUSH1 0x24 PUSH1 0x0 REVERT JUMPDEST PUSH3 0xFE1 DUP3 PUSH3 0xF96 JUMP JUMPDEST DUP2 ADD DUP2 DUP2 LT PUSH8 0xFFFFFFFFFFFFFFFF DUP3 GT OR ISZERO PUSH3 0x1003 JUMPI PUSH3 0x1002 PUSH3 0xFA7 JUMP JUMPDEST JUMPDEST DUP1 PUSH1 0x40 MSTORE POP POP POP JUMP JUMPDEST PUSH1 0x0 PUSH3 0x1018 PUSH3 0xF78 JUMP JUMPDEST SWAP1 POP PUSH3 0x1026 DUP3 DUP3 PUSH3 0xFD6 JUMP JUMPDEST SWAP2 SWAP1 POP JUMP JUMPDEST PUSH1 0x0 PUSH8 0xFFFFFFFFFFFFFFFF DUP3 GT ISZERO PUSH3 0x1049 JUMPI PUSH3 0x1048 PUSH3 0xFA7 JUMP JUMPDEST JUMPDEST PUSH3 0x1054 DUP3 PUSH3 0xF96 JUMP JUMPDEST SWAP1 POP PUSH1 0x20 DUP2 ADD SWAP1 POP SWAP2 SWAP1 POP JUMP JUMPDEST PUSH1 0x0 JUMPDEST DUP4 DUP2 LT ISZERO PUSH3 0x1081 JUMPI DUP1 DUP3 ADD MLOAD DUP2 DUP5 ADD MSTORE PUSH1 0x20 DUP2 ADD SWAP1 POP PUSH3 0x1064 JUMP JUMPDEST DUP4 DUP2 GT ISZERO PUSH3 0x1091 JUMPI PUSH1 0x0 DUP5 DUP5 ADD MSTORE JUMPDEST POP POP POP POP JUMP JUMPDEST PUSH1 0x0 PUSH3 0x10AE PUSH3 0x10A8 DUP5 PUSH3 0x102B JUMP JUMPDEST PUSH3 0x100C JUMP JUMPDEST SWAP1 POP DUP3 DUP2 MSTORE PUSH1 0x20 DUP2 ADD DUP5 DUP5 DUP5 ADD GT ISZERO PUSH3 0x10CD JUMPI PUSH3 0x10CC PUSH3 0xF91 JUMP JUMPDEST JUMPDEST PUSH3 0x10DA DUP5 DUP3 DUP6 PUSH3 0x1061 JUMP JUMPDEST POP SWAP4 SWAP3 POP POP POP JUMP JUMPDEST PUSH1 0x0 DUP3 PUSH1 0x1F DUP4 ADD SLT PUSH3 0x10FA JUMPI PUSH3 0x10F9 PUSH3 0xF8C JUMP JUMPDEST JUMPDEST DUP2 MLOAD PUSH3 0x110C DUP5 DUP3 PUSH1 0x20 DUP7 ADD PUSH3 0x1097 JUMP JUMPDEST SWAP2 POP POP SWAP3 SWAP2 POP POP JUMP JUMPDEST PUSH1 0x0 DUP1 PUSH1 0x0 PUSH1 0x60 DUP5 DUP7 SUB SLT ISZERO PUSH3 0x1131 JUMPI PUSH3 0x1130 PUSH3 0xF82 JUMP JUMPDEST JUMPDEST PUSH1 0x0 DUP5 ADD MLOAD PUSH8 0xFFFFFFFFFFFFFFFF DUP2 GT ISZERO PUSH3 0x1152 JUMPI PUSH3 0x1151 PUSH3 0xF87 JUMP JUMPDEST JUMPDEST PUSH3 0x1160 DUP7 DUP3 DUP8 ADD PUSH3 0x10E2 JUMP JUMPDEST SWAP4 POP POP PUSH1 0x20 DUP5 ADD MLOAD PUSH8 0xFFFFFFFFFFFFFFFF DUP2 GT ISZERO PUSH3 0x1184 JUMPI PUSH3 0x1183 PUSH3 0xF87 JUMP JUMPDEST JUMPDEST PUSH3 0x1192 DUP7 DUP3 DUP8 ADD PUSH3 0x10E2 JUMP JUMPDEST SWAP3 POP POP PUSH1 0x40 DUP5 ADD MLOAD PUSH8 0xFFFFFFFFFFFFFFFF DUP2 GT ISZERO PUSH3 0x11B6 JUMPI PUSH3 0x11B5 PUSH3 0xF87 JUMP JUMPDEST JUMPDEST PUSH3 0x11C4 DUP7 DUP3 DUP8 ADD PUSH3 0x10E2 JUMP JUMPDEST SWAP2 POP POP SWAP3 POP SWAP3 POP SWAP3 JUMP JUMPDEST PUSH1 0x0 DUP3 DUP3 MSTORE PUSH1 0x20 DUP3 ADD SWAP1 POP SWAP3 SWAP2 POP POP JUMP JUMPDEST PUSH32 0x4F776E61626C653A2063616C6C6572206973206E6F7420746865206F776E6572 PUSH1 0x0 DUP3 ADD MSTORE POP JUMP JUMPDEST PUSH1 0x0 PUSH3 0x1217 PUSH1 0x20 DUP4 PUSH3 0x11CE JUMP JUMPDEST SWAP2 POP PUSH3 0x1224 DUP3 PUSH3 0x11DF JUMP JUMPDEST PUSH1 0x20 DUP3 ADD SWAP1 POP SWAP2 SWAP1 POP JUMP JUMPDEST PUSH1 0x0 PUSH1 0x20 DUP3 ADD SWAP1 POP DUP2 DUP2 SUB PUSH1 0x0 DUP4 ADD MSTORE PUSH3 0x124A DUP2 PUSH3 0x1208 JUMP JUMPDEST SWAP1 POP SWAP2 SWAP1 POP JUMP JUMPDEST PUSH1 0x0 DUP2 SWAP1 POP SWAP2 SWAP1 POP JUMP JUMPDEST PUSH32 0x4E487B7100000000000000000000000000000000000000000000000000000000 PUSH1 0x0 MSTORE PUSH1 0x11 PUSH1 0x4 MSTORE PUSH1 0x24 PUSH1 0x0 REVERT JUMPDEST PUSH1 0x0 PUSH3 0x1297 DUP3 PUSH3 0x1251 JUMP JUMPDEST SWAP2 POP PUSH3 0x12A4 DUP4 PUSH3 0x1251 JUMP JUMPDEST SWAP3 POP DUP3 PUSH32 0xFFFFFFFFFFFFFFFFFFFFFFFFFFFFFFFFFFFFFFFFFFFFFFFFFFFFFFFFFFFFFFFF SUB DUP3 GT ISZERO PUSH3 0x12DC JUMPI PUSH3 0x12DB PUSH3 0x125B JUMP JUMPDEST JUMPDEST DUP3 DUP3 ADD SWAP1 POP SWAP3 SWAP2 POP POP JUMP JUMPDEST PUSH1 0x0 PUSH3 0x12F4 DUP3 PUSH3 0x1251 JUMP JUMPDEST SWAP2 POP PUSH3 0x1301 DUP4 PUSH3 0x1251 JUMP JUMPDEST SWAP3 POP DUP2 PUSH32 0xFFFFFFFFFFFFFFFFFFFFFFFFFFFFFFFFFFFFFFFFFFFFFFFFFFFFFFFFFFFFFFFF DIV DUP4 GT DUP3 ISZERO ISZERO AND ISZERO PUSH3 0x133D JUMPI PUSH3 0x133C PUSH3 0x125B JUMP JUMPDEST JUMPDEST DUP3 DUP3 MUL SWAP1 POP SWAP3 SWAP2 POP POP JUMP JUMPDEST PUSH1 0x0 PUSH3 0x1355 DUP3 PUSH3 0x1251 JUMP JUMPDEST SWAP2 POP PUSH32 0xFFFFFFFFFFFFFFFFFFFFFFFFFFFFFFFFFFFFFFFFFFFFFFFFFFFFFFFFFFFFFFFF DUP3 EQ ISZERO PUSH3 0x138B JUMPI PUSH3 0x138A PUSH3 0x125B JUMP JUMPDEST JUMPDEST PUSH1 0x1 DUP3 ADD SWAP1 POP SWAP2 SWAP1 POP JUMP JUMPDEST PUSH32 0x4552433732313A207472616E7366657220746F206E6F6E204552433732315265 PUSH1 0x0 DUP3 ADD MSTORE PUSH32 0x63656976657220696D706C656D656E7465720000000000000000000000000000 PUSH1 0x20 DUP3 ADD MSTORE POP JUMP JUMPDEST PUSH1 0x0 PUSH3 0x13F4 PUSH1 0x32 DUP4 PUSH3 0x11CE JUMP JUMPDEST SWAP2 POP PUSH3 0x1401 DUP3 PUSH3 0x1396 JUMP JUMPDEST PUSH1 0x40 DUP3 ADD SWAP1 POP SWAP2 SWAP1 POP JUMP JUMPDEST PUSH1 0x0 PUSH1 0x20 DUP3 ADD SWAP1 POP DUP2 DUP2 SUB PUSH1 0x0 DUP4 ADD MSTORE PUSH3 0x1427 DUP2 PUSH3 0x13E5 JUMP JUMPDEST SWAP1 POP SWAP2 SWAP1 POP JUMP JUMPDEST PUSH32 0x4552433732313A206D696E7420746F20746865207A65726F2061646472657373 PUSH1 0x0 DUP3 ADD MSTORE POP JUMP JUMPDEST PUSH1 0x0 PUSH3 0x1466 PUSH1 0x20 DUP4 PUSH3 0x11CE JUMP JUMPDEST SWAP2 POP PUSH3 0x1473 DUP3 PUSH3 0x142E JUMP JUMPDEST PUSH1 0x20 DUP3 ADD SWAP1 POP SWAP2 SWAP1 POP JUMP JUMPDEST PUSH1 0x0 PUSH1 0x20 DUP3 ADD SWAP1 POP DUP2 DUP2 SUB PUSH1 0x0 DUP4 ADD MSTORE PUSH3 0x1499 DUP2 PUSH3 0x1457 JUMP JUMPDEST SWAP1 POP SWAP2 SWAP1 POP JUMP JUMPDEST PUSH32 0x4552433732313A20746F6B656E20616C7265616479206D696E74656400000000 PUSH1 0x0 DUP3 ADD MSTORE POP JUMP JUMPDEST PUSH1 0x0 PUSH3 0x14D8 PUSH1 0x1C DUP4 PUSH3 0x11CE JUMP JUMPDEST SWAP2 POP PUSH3 0x14E5 DUP3 PUSH3 0x14A0 JUMP JUMPDEST PUSH1 0x20 DUP3 ADD SWAP1 POP SWAP2 SWAP1 POP JUMP JUMPDEST PUSH1 0x0 PUSH1 0x20 DUP3 ADD SWAP1 POP DUP2 DUP2 SUB PUSH1 0x0 DUP4 ADD MSTORE PUSH3 0x150B DUP2 PUSH3 0x14C9 JUMP JUMPDEST SWAP1 POP SWAP2 SWAP1 POP JUMP JUMPDEST PUSH1 0x0 PUSH20 0xFFFFFFFFFFFFFFFFFFFFFFFFFFFFFFFFFFFFFFFF DUP3 AND SWAP1 POP SWAP2 SWAP1 POP JUMP JUMPDEST PUSH1 0x0 PUSH3 0x153F DUP3 PUSH3 0x1512 JUMP JUMPDEST SWAP1 POP SWAP2 SWAP1 POP JUMP JUMPDEST PUSH3 0x1551 DUP2 PUSH3 0x1532 JUMP JUMPDEST DUP3 MSTORE POP POP JUMP JUMPDEST PUSH3 0x1562 DUP2 PUSH3 0x1251 JUMP JUMPDEST DUP3 MSTORE POP POP JUMP JUMPDEST PUSH1 0x0 DUP2 MLOAD SWAP1 POP SWAP2 SWAP1 POP JUMP JUMPDEST PUSH1 0x0 DUP3 DUP3 MSTORE PUSH1 0x20 DUP3 ADD SWAP1 POP SWAP3 SWAP2 POP POP JUMP JUMPDEST PUSH1 0x0 PUSH3 0x1591 DUP3 PUSH3 0x1568 JUMP JUMPDEST PUSH3 0x159D DUP2 DUP6 PUSH3 0x1573 JUMP JUMPDEST SWAP4 POP PUSH3 0x15AF DUP2 DUP6 PUSH1 0x20 DUP7 ADD PUSH3 0x1061 JUMP JUMPDEST PUSH3 0x15BA DUP2 PUSH3 0xF96 JUMP JUMPDEST DUP5 ADD SWAP2 POP POP SWAP3 SWAP2 POP POP JUMP JUMPDEST PUSH1 0x0 PUSH1 0x80 DUP3 ADD SWAP1 POP PUSH3 0x15DC PUSH1 0x0 DUP4 ADD DUP8 PUSH3 0x1546 JUMP JUMPDEST PUSH3 0x15EB PUSH1 0x20 DUP4 ADD DUP7 PUSH3 0x1546 JUMP JUMPDEST PUSH3 0x15FA PUSH1 0x40 DUP4 ADD DUP6 PUSH3 0x1557 JUMP JUMPDEST DUP2 DUP2 SUB PUSH1 0x60 DUP4 ADD MSTORE PUSH3 0x160E DUP2 DUP5 PUSH3 0x1584 JUMP JUMPDEST SWAP1 POP SWAP6 SWAP5 POP POP POP POP POP JUMP JUMPDEST PUSH1 0x0 PUSH32 0xFFFFFFFF00000000000000000000000000000000000000000000000000000000 DUP3 AND SWAP1 POP SWAP2 SWAP1 POP JUMP JUMPDEST PUSH3 0x1650 DUP2 PUSH3 0x1619 JUMP JUMPDEST DUP2 EQ PUSH3 0x165C JUMPI PUSH1 0x0 DUP1 REVERT JUMPDEST POP JUMP JUMPDEST PUSH1 0x0 DUP2 MLOAD SWAP1 POP PUSH3 0x1670 DUP2 PUSH3 0x1645 JUMP JUMPDEST SWAP3 SWAP2 POP POP JUMP JUMPDEST PUSH1 0x0 PUSH1 0x20 DUP3 DUP5 SUB SLT ISZERO PUSH3 0x168F JUMPI PUSH3 0x168E PUSH3 0xF82 JUMP JUMPDEST JUMPDEST PUSH1 0x0 PUSH3 0x169F DUP5 DUP3 DUP6 ADD PUSH3 0x165F JUMP JUMPDEST SWAP2 POP POP SWAP3 SWAP2 POP POP JUMP JUMPDEST PUSH1 0x0 PUSH3 0x16B5 DUP3 PUSH3 0x1251 JUMP JUMPDEST SWAP2 POP PUSH3 0x16C2 DUP4 PUSH3 0x1251 JUMP JUMPDEST SWAP3 POP DUP3 DUP3 LT ISZERO PUSH3 0x16D8 JUMPI PUSH3 0x16D7 PUSH3 0x125B JUMP JUMPDEST JUMPDEST DUP3 DUP3 SUB SWAP1 POP SWAP3 SWAP2 POP POP JUMP JUMPDEST PUSH32 0x4E487B7100000000000000000000000000000000000000000000000000000000 PUSH1 0x0 MSTORE PUSH1 0x32 PUSH1 0x4 MSTORE PUSH1 0x24 PUSH1 0x0 REVERT JUMPDEST PUSH32 0x4E487B7100000000000000000000000000000000000000000000000000000000 PUSH1 0x0 MSTORE PUSH1 0x31 PUSH1 0x4 MSTORE PUSH1 0x24 PUSH1 0x0 REVERT JUMPDEST PUSH32 0x4552433732313A2062616C616E636520717565727920666F7220746865207A65 PUSH1 0x0 DUP3 ADD MSTORE PUSH32 0x726F206164647265737300000000000000000000000000000000000000000000 PUSH1 0x20 DUP3 ADD MSTORE POP JUMP JUMPDEST PUSH1 0x0 PUSH3 0x179F PUSH1 0x2A DUP4 PUSH3 0x11CE JUMP JUMPDEST SWAP2 POP PUSH3 0x17AC DUP3 PUSH3 0x1741 JUMP JUMPDEST PUSH1 0x40 DUP3 ADD SWAP1 POP SWAP2 SWAP1 POP JUMP JUMPDEST PUSH1 0x0 PUSH1 0x20 DUP3 ADD SWAP1 POP DUP2 DUP2 SUB PUSH1 0x0 DUP4 ADD MSTORE PUSH3 0x17D2 DUP2 PUSH3 0x1790 JUMP JUMPDEST SWAP1 POP SWAP2 SWAP1 POP JUMP JUMPDEST PUSH32 0x4E487B7100000000000000000000000000000000000000000000000000000000 PUSH1 0x0 MSTORE PUSH1 0x22 PUSH1 0x4 MSTORE PUSH1 0x24 PUSH1 0x0 REVERT JUMPDEST PUSH1 0x0 PUSH1 0x2 DUP3 DIV SWAP1 POP PUSH1 0x1 DUP3 AND DUP1 PUSH3 0x1821 JUMPI PUSH1 0x7F DUP3 AND SWAP2 POP JUMPDEST PUSH1 0x20 DUP3 LT DUP2 EQ ISZERO PUSH3 0x1838 JUMPI PUSH3 0x1837 PUSH3 0x17D9 JUMP JUMPDEST JUMPDEST POP SWAP2 SWAP1 POP JUMP JUMPDEST PUSH2 0x4A51 DUP1 PUSH3 0x184E PUSH1 0x0 CODECOPY PUSH1 0x0 RETURN INVALID PUSH1 0x80 PUSH1 0x40 MSTORE PUSH1 0x4 CALLDATASIZE LT PUSH2 0x251 JUMPI PUSH1 0x0 CALLDATALOAD PUSH1 0xE0 SHR DUP1 PUSH4 0x55F804B3 GT PUSH2 0x139 JUMPI DUP1 PUSH4 0xA22CB465 GT PUSH2 0xB6 JUMPI DUP1 PUSH4 0xD5ABEB01 GT PUSH2 0x7A JUMPI DUP1 PUSH4 0xD5ABEB01 EQ PUSH2 0x8A4 JUMPI DUP1 PUSH4 0xD936547E EQ PUSH2 0x8CF JUMPI DUP1 PUSH4 0xDA3EF23F EQ PUSH2 0x90C JUMPI DUP1 PUSH4 0xE985E9C5 EQ PUSH2 0x935 JUMPI DUP1 PUSH4 0xED931E17 EQ PUSH2 0x972 JUMPI DUP1 PUSH4 0xF2FDE38B EQ PUSH2 0x99B JUMPI PUSH2 0x251 JUMP JUMPDEST DUP1 PUSH4 0xA22CB465 EQ PUSH2 0x7C1 JUMPI DUP1 PUSH4 0xB2F3E85E EQ PUSH2 0x7EA JUMPI DUP1 PUSH4 0xB88D4FDE EQ PUSH2 0x813 JUMPI DUP1 PUSH4 0xC6682862 EQ PUSH2 0x83C JUMPI DUP1 PUSH4 0xC87B56DD EQ PUSH2 0x867 JUMPI PUSH2 0x251 JUMP JUMPDEST DUP1 PUSH4 0x715018A6 GT PUSH2 0xFD JUMPI DUP1 PUSH4 0x715018A6 EQ PUSH2 0x702 JUMPI DUP1 PUSH4 0x7F00C7A6 EQ PUSH2 0x719 JUMPI DUP1 PUSH4 0x8DA5CB5B EQ PUSH2 0x742 JUMPI DUP1 PUSH4 0x8FDCF942 EQ PUSH2 0x76D JUMPI DUP1 PUSH4 0x95D89B41 EQ PUSH2 0x796 JUMPI PUSH2 0x251 JUMP JUMPDEST DUP1 PUSH4 0x55F804B3 EQ PUSH2 0x609 JUMPI DUP1 PUSH4 0x5C975ABB EQ PUSH2 0x632 JUMPI DUP1 PUSH4 0x6352211E EQ PUSH2 0x65D JUMPI DUP1 PUSH4 0x6C0360EB EQ PUSH2 0x69A JUMPI DUP1 PUSH4 0x70A08231 EQ PUSH2 0x6C5 JUMPI PUSH2 0x251 JUMP JUMPDEST DUP1 PUSH4 0x2F745C59 GT PUSH2 0x1D2 JUMPI DUP1 PUSH4 0x42842E0E GT PUSH2 0x196 JUMPI DUP1 PUSH4 0x42842E0E EQ PUSH2 0x4EB JUMPI DUP1 PUSH4 0x438B6300 EQ PUSH2 0x514 JUMPI DUP1 PUSH4 0x44A0D68A EQ PUSH2 0x551 JUMPI DUP1 PUSH4 0x4A4C560D EQ PUSH2 0x57A JUMPI DUP1 PUSH4 0x4F6CCCE7 EQ PUSH2 0x5A3 JUMPI DUP1 PUSH4 0x546857C7 EQ PUSH2 0x5E0 JUMPI PUSH2 0x251 JUMP JUMPDEST DUP1 PUSH4 0x2F745C59 EQ PUSH2 0x422 JUMPI DUP1 PUSH4 0x30B2264E EQ PUSH2 0x45F JUMPI DUP1 PUSH4 0x30CC7AE0 EQ PUSH2 0x49C JUMPI DUP1 PUSH4 0x3CCFD60B EQ PUSH2 0x4C5 JUMPI DUP1 PUSH4 0x40C10F19 EQ PUSH2 0x4CF JUMPI PUSH2 0x251 JUMP JUMPDEST DUP1 PUSH4 0x13FAEDE6 GT PUSH2 0x219 JUMPI DUP1 PUSH4 0x13FAEDE6 EQ PUSH2 0x34D JUMPI DUP1 PUSH4 0x18160DDD EQ PUSH2 0x378 JUMPI DUP1 PUSH4 0x239C70AE EQ PUSH2 0x3A3 JUMPI DUP1 PUSH4 0x23B872DD EQ PUSH2 0x3CE JUMPI DUP1 PUSH4 0x2A23D07D EQ PUSH2 0x3F7 JUMPI PUSH2 0x251 JUMP JUMPDEST DUP1 PUSH4 0x1FFC9A7 EQ PUSH2 0x256 JUMPI DUP1 PUSH4 0x2329A29 EQ PUSH2 0x293 JUMPI DUP1 PUSH4 0x6FDDE03 EQ PUSH2 0x2BC JUMPI DUP1 PUSH4 0x81812FC EQ PUSH2 0x2E7 JUMPI DUP1 PUSH4 0x95EA7B3 EQ PUSH2 0x324 JUMPI JUMPDEST PUSH1 0x0 DUP1 REVERT JUMPDEST CALLVALUE DUP1 ISZERO PUSH2 0x262 JUMPI PUSH1 0x0 DUP1 REVERT JUMPDEST POP PUSH2 0x27D PUSH1 0x4 DUP1 CALLDATASIZE SUB DUP2 ADD SWAP1 PUSH2 0x278 SWAP2 SWAP1 PUSH2 0x3367 JUMP JUMPDEST PUSH2 0x9C4 JUMP JUMPDEST PUSH1 0x40 MLOAD PUSH2 0x28A SWAP2 SWAP1 PUSH2 0x33AF JUMP JUMPDEST PUSH1 0x40 MLOAD DUP1 SWAP2 SUB SWAP1 RETURN JUMPDEST CALLVALUE DUP1 ISZERO PUSH2 0x29F JUMPI PUSH1 0x0 DUP1 REVERT JUMPDEST POP PUSH2 0x2BA PUSH1 0x4 DUP1 CALLDATASIZE SUB DUP2 ADD SWAP1 PUSH2 0x2B5 SWAP2 SWAP1 PUSH2 0x33F6 JUMP JUMPDEST PUSH2 0xA3E JUMP JUMPDEST STOP JUMPDEST CALLVALUE DUP1 ISZERO PUSH2 0x2C8 JUMPI PUSH1 0x0 DUP1 REVERT JUMPDEST POP PUSH2 0x2D1 PUSH2 0xAD7 JUMP JUMPDEST PUSH1 0x40 MLOAD PUSH2 0x2DE SWAP2 SWAP1 PUSH2 0x34BC JUMP JUMPDEST PUSH1 0x40 MLOAD DUP1 SWAP2 SUB SWAP1 RETURN JUMPDEST CALLVALUE DUP1 ISZERO PUSH2 0x2F3 JUMPI PUSH1 0x0 DUP1 REVERT JUMPDEST POP PUSH2 0x30E PUSH1 0x4 DUP1 CALLDATASIZE SUB DUP2 ADD SWAP1 PUSH2 0x309 SWAP2 SWAP1 PUSH2 0x3514 JUMP JUMPDEST PUSH2 0xB69 JUMP JUMPDEST PUSH1 0x40 MLOAD PUSH2 0x31B SWAP2 SWAP1 PUSH2 0x3582 JUMP JUMPDEST PUSH1 0x40 MLOAD DUP1 SWAP2 SUB SWAP1 RETURN JUMPDEST CALLVALUE DUP1 ISZERO PUSH2 0x330 JUMPI PUSH1 0x0 DUP1 REVERT JUMPDEST POP PUSH2 0x34B PUSH1 0x4 DUP1 CALLDATASIZE SUB DUP2 ADD SWAP1 PUSH2 0x346 SWAP2 SWAP1 PUSH2 0x35C9 JUMP JUMPDEST PUSH2 0xBEE JUMP JUMPDEST STOP JUMPDEST CALLVALUE DUP1 ISZERO PUSH2 0x359 JUMPI PUSH1 0x0 DUP1 REVERT JUMPDEST POP PUSH2 0x362 PUSH2 0xD06 JUMP JUMPDEST PUSH1 0x40 MLOAD PUSH2 0x36F SWAP2 SWAP1 PUSH2 0x3618 JUMP JUMPDEST PUSH1 0x40 MLOAD DUP1 SWAP2 SUB SWAP1 RETURN JUMPDEST CALLVALUE DUP1 ISZERO PUSH2 0x384 JUMPI PUSH1 0x0 DUP1 REVERT JUMPDEST POP PUSH2 0x38D PUSH2 0xD0C JUMP JUMPDEST PUSH1 0x40 MLOAD PUSH2 0x39A SWAP2 SWAP1 PUSH2 0x3618 JUMP JUMPDEST PUSH1 0x40 MLOAD DUP1 SWAP2 SUB SWAP1 RETURN JUMPDEST CALLVALUE DUP1 ISZERO PUSH2 0x3AF JUMPI PUSH1 0x0 DUP1 REVERT JUMPDEST POP PUSH2 0x3B8 PUSH2 0xD19 JUMP JUMPDEST PUSH1 0x40 MLOAD PUSH2 0x3C5 SWAP2 SWAP1 PUSH2 0x3618 JUMP JUMPDEST PUSH1 0x40 MLOAD DUP1 SWAP2 SUB SWAP1 RETURN JUMPDEST CALLVALUE DUP1 ISZERO PUSH2 0x3DA JUMPI PUSH1 0x0 DUP1 REVERT JUMPDEST POP PUSH2 0x3F5 PUSH1 0x4 DUP1 CALLDATASIZE SUB DUP2 ADD SWAP1 PUSH2 0x3F0 SWAP2 SWAP1 PUSH2 0x3633 JUMP JUMPDEST PUSH2 0xD1F JUMP JUMPDEST STOP JUMPDEST CALLVALUE DUP1 ISZERO PUSH2 0x403 JUMPI PUSH1 0x0 DUP1 REVERT JUMPDEST POP PUSH2 0x40C PUSH2 0xD7F JUMP JUMPDEST PUSH1 0x40 MLOAD PUSH2 0x419 SWAP2 SWAP1 PUSH2 0x3618 JUMP JUMPDEST PUSH1 0x40 MLOAD DUP1 SWAP2 SUB SWAP1 RETURN JUMPDEST CALLVALUE DUP1 ISZERO PUSH2 0x42E JUMPI PUSH1 0x0 DUP1 REVERT JUMPDEST POP PUSH2 0x449 PUSH1 0x4 DUP1 CALLDATASIZE SUB DUP2 ADD SWAP1 PUSH2 0x444 SWAP2 SWAP1 PUSH2 0x35C9 JUMP JUMPDEST PUSH2 0xD85 JUMP JUMPDEST PUSH1 0x40 MLOAD PUSH2 0x456 SWAP2 SWAP1 PUSH2 0x3618 JUMP JUMPDEST PUSH1 0x40 MLOAD DUP1 SWAP2 SUB SWAP1 RETURN JUMPDEST CALLVALUE DUP1 ISZERO PUSH2 0x46B JUMPI PUSH1 0x0 DUP1 REVERT JUMPDEST POP PUSH2 0x486 PUSH1 0x4 DUP1 CALLDATASIZE SUB DUP2 ADD SWAP1 PUSH2 0x481 SWAP2 SWAP1 PUSH2 0x3686 JUMP JUMPDEST PUSH2 0xE2A JUMP JUMPDEST PUSH1 0x40 MLOAD PUSH2 0x493 SWAP2 SWAP1 PUSH2 0x33AF JUMP JUMPDEST PUSH1 0x40 MLOAD DUP1 SWAP2 SUB SWAP1 RETURN JUMPDEST CALLVALUE DUP1 ISZERO PUSH2 0x4A8 JUMPI PUSH1 0x0 DUP1 REVERT JUMPDEST POP PUSH2 0x4C3 PUSH1 0x4 DUP1 CALLDATASIZE SUB DUP2 ADD SWAP1 PUSH2 0x4BE SWAP2 SWAP1 PUSH2 0x3686 JUMP JUMPDEST PUSH2 0xE4A JUMP JUMPDEST STOP JUMPDEST PUSH2 0x4CD PUSH2 0xF21 JUMP JUMPDEST STOP JUMPDEST PUSH2 0x4E9 PUSH1 0x4 DUP1 CALLDATASIZE SUB DUP2 ADD SWAP1 PUSH2 0x4E4 SWAP2 SWAP1 PUSH2 0x35C9 JUMP JUMPDEST PUSH2 0x1016 JUMP JUMPDEST STOP JUMPDEST CALLVALUE DUP1 ISZERO PUSH2 0x4F7 JUMPI PUSH1 0x0 DUP1 REVERT JUMPDEST POP PUSH2 0x512 PUSH1 0x4 DUP1 CALLDATASIZE SUB DUP2 ADD SWAP1 PUSH2 0x50D SWAP2 SWAP1 PUSH2 0x3633 JUMP JUMPDEST PUSH2 0x11D4 JUMP JUMPDEST STOP JUMPDEST CALLVALUE DUP1 ISZERO PUSH2 0x520 JUMPI PUSH1 0x0 DUP1 REVERT JUMPDEST POP PUSH2 0x53B PUSH1 0x4 DUP1 CALLDATASIZE SUB DUP2 ADD SWAP1 PUSH2 0x536 SWAP2 SWAP1 PUSH2 0x3686 JUMP JUMPDEST PUSH2 0x11F4 JUMP JUMPDEST PUSH1 0x40 MLOAD PUSH2 0x548 SWAP2 SWAP1 PUSH2 0x3771 JUMP JUMPDEST PUSH1 0x40 MLOAD DUP1 SWAP2 SUB SWAP1 RETURN JUMPDEST CALLVALUE DUP1 ISZERO PUSH2 0x55D JUMPI PUSH1 0x0 DUP1 REVERT JUMPDEST POP PUSH2 0x578 PUSH1 0x4 DUP1 CALLDATASIZE SUB DUP2 ADD SWAP1 PUSH2 0x573 SWAP2 SWAP1 PUSH2 0x3514 JUMP JUMPDEST PUSH2 0x12A2 JUMP JUMPDEST STOP JUMPDEST CALLVALUE DUP1 ISZERO PUSH2 0x586 JUMPI PUSH1 0x0 DUP1 REVERT JUMPDEST POP PUSH2 0x5A1 PUSH1 0x4 DUP1 CALLDATASIZE SUB DUP2 ADD SWAP1 PUSH2 0x59C SWAP2 SWAP1 PUSH2 0x3686 JUMP JUMPDEST PUSH2 0x1328 JUMP JUMPDEST STOP JUMPDEST CALLVALUE DUP1 ISZERO PUSH2 0x5AF JUMPI PUSH1 0x0 DUP1 REVERT JUMPDEST POP PUSH2 0x5CA PUSH1 0x4 DUP1 CALLDATASIZE SUB DUP2 ADD SWAP1 PUSH2 0x5C5 SWAP2 SWAP1 PUSH2 0x3514 JUMP JUMPDEST PUSH2 0x13FF JUMP JUMPDEST PUSH1 0x40 MLOAD PUSH2 0x5D7 SWAP2 SWAP1 PUSH2 0x3618 JUMP JUMPDEST PUSH1 0x40 MLOAD DUP1 SWAP2 SUB SWAP1 RETURN JUMPDEST CALLVALUE DUP1 ISZERO PUSH2 0x5EC JUMPI PUSH1 0x0 DUP1 REVERT JUMPDEST POP PUSH2 0x607 PUSH1 0x4 DUP1 CALLDATASIZE SUB DUP2 ADD SWAP1 PUSH2 0x602 SWAP2 SWAP1 PUSH2 0x38C9 JUMP JUMPDEST PUSH2 0x1470 JUMP JUMPDEST STOP JUMPDEST CALLVALUE DUP1 ISZERO PUSH2 0x615 JUMPI PUSH1 0x0 DUP1 REVERT JUMPDEST POP PUSH2 0x630 PUSH1 0x4 DUP1 CALLDATASIZE SUB DUP2 ADD SWAP1 PUSH2 0x62B SWAP2 SWAP1 PUSH2 0x39AC JUMP JUMPDEST PUSH2 0x157E JUMP JUMPDEST STOP JUMPDEST CALLVALUE DUP1 ISZERO PUSH2 0x63E JUMPI PUSH1 0x0 DUP1 REVERT JUMPDEST POP PUSH2 0x647 PUSH2 0x1614 JUMP JUMPDEST PUSH1 0x40 MLOAD PUSH2 0x654 SWAP2 SWAP1 PUSH2 0x33AF JUMP JUMPDEST PUSH1 0x40 MLOAD DUP1 SWAP2 SUB SWAP1 RETURN JUMPDEST CALLVALUE DUP1 ISZERO PUSH2 0x669 JUMPI PUSH1 0x0 DUP1 REVERT JUMPDEST POP PUSH2 0x684 PUSH1 0x4 DUP1 CALLDATASIZE SUB DUP2 ADD SWAP1 PUSH2 0x67F SWAP2 SWAP1 PUSH2 0x3514 JUMP JUMPDEST PUSH2 0x1627 JUMP JUMPDEST PUSH1 0x40 MLOAD PUSH2 0x691 SWAP2 SWAP1 PUSH2 0x3582 JUMP JUMPDEST PUSH1 0x40 MLOAD DUP1 SWAP2 SUB SWAP1 RETURN JUMPDEST CALLVALUE DUP1 ISZERO PUSH2 0x6A6 JUMPI PUSH1 0x0 DUP1 REVERT JUMPDEST POP PUSH2 0x6AF PUSH2 0x16D9 JUMP JUMPDEST PUSH1 0x40 MLOAD PUSH2 0x6BC SWAP2 SWAP1 PUSH2 0x34BC JUMP JUMPDEST PUSH1 0x40 MLOAD DUP1 SWAP2 SUB SWAP1 RETURN JUMPDEST CALLVALUE DUP1 ISZERO PUSH2 0x6D1 JUMPI PUSH1 0x0 DUP1 REVERT JUMPDEST POP PUSH2 0x6EC PUSH1 0x4 DUP1 CALLDATASIZE SUB DUP2 ADD SWAP1 PUSH2 0x6E7 SWAP2 SWAP1 PUSH2 0x3686 JUMP JUMPDEST PUSH2 0x1767 JUMP JUMPDEST PUSH1 0x40 MLOAD PUSH2 0x6F9 SWAP2 SWAP1 PUSH2 0x3618 JUMP JUMPDEST PUSH1 0x40 MLOAD DUP1 SWAP2 SUB SWAP1 RETURN JUMPDEST CALLVALUE DUP1 ISZERO PUSH2 0x70E JUMPI PUSH1 0x0 DUP1 REVERT JUMPDEST POP PUSH2 0x717 PUSH2 0x181F JUMP JUMPDEST STOP JUMPDEST CALLVALUE DUP1 ISZERO PUSH2 0x725 JUMPI PUSH1 0x0 DUP1 REVERT JUMPDEST POP PUSH2 0x740 PUSH1 0x4 DUP1 CALLDATASIZE SUB DUP2 ADD SWAP1 PUSH2 0x73B SWAP2 SWAP1 PUSH2 0x3514 JUMP JUMPDEST PUSH2 0x18A7 JUMP JUMPDEST STOP JUMPDEST CALLVALUE DUP1 ISZERO PUSH2 0x74E JUMPI PUSH1 0x0 DUP1 REVERT JUMPDEST POP PUSH2 0x757 PUSH2 0x192D JUMP JUMPDEST PUSH1 0x40 MLOAD PUSH2 0x764 SWAP2 SWAP1 PUSH2 0x3582 JUMP JUMPDEST PUSH1 0x40 MLOAD DUP1 SWAP2 SUB SWAP1 RETURN JUMPDEST CALLVALUE DUP1 ISZERO PUSH2 0x779 JUMPI PUSH1 0x0 DUP1 REVERT JUMPDEST POP PUSH2 0x794 PUSH1 0x4 DUP1 CALLDATASIZE SUB DUP2 ADD SWAP1 PUSH2 0x78F SWAP2 SWAP1 PUSH2 0x3514 JUMP JUMPDEST PUSH2 0x1957 JUMP JUMPDEST STOP JUMPDEST CALLVALUE DUP1 ISZERO PUSH2 0x7A2 JUMPI PUSH1 0x0 DUP1 REVERT JUMPDEST POP PUSH2 0x7AB PUSH2 0x19DD JUMP JUMPDEST PUSH1 0x40 MLOAD PUSH2 0x7B8 SWAP2 SWAP1 PUSH2 0x34BC JUMP JUMPDEST PUSH1 0x40 MLOAD DUP1 SWAP2 SUB SWAP1 RETURN JUMPDEST CALLVALUE DUP1 ISZERO PUSH2 0x7CD JUMPI PUSH1 0x0 DUP1 REVERT JUMPDEST POP PUSH2 0x7E8 PUSH1 0x4 DUP1 CALLDATASIZE SUB DUP2 ADD SWAP1 PUSH2 0x7E3 SWAP2 SWAP1 PUSH2 0x39F5 JUMP JUMPDEST PUSH2 0x1A6F JUMP JUMPDEST STOP JUMPDEST CALLVALUE DUP1 ISZERO PUSH2 0x7F6 JUMPI PUSH1 0x0 DUP1 REVERT JUMPDEST POP PUSH2 0x811 PUSH1 0x4 DUP1 CALLDATASIZE SUB DUP2 ADD SWAP1 PUSH2 0x80C SWAP2 SWAP1 PUSH2 0x3686 JUMP JUMPDEST PUSH2 0x1BF0 JUMP JUMPDEST STOP JUMPDEST CALLVALUE DUP1 ISZERO PUSH2 0x81F JUMPI PUSH1 0x0 DUP1 REVERT JUMPDEST POP PUSH2 0x83A PUSH1 0x4 DUP1 CALLDATASIZE SUB DUP2 ADD SWAP1 PUSH2 0x835 SWAP2 SWAP1 PUSH2 0x3AD6 JUMP JUMPDEST PUSH2 0x1CC7 JUMP JUMPDEST STOP JUMPDEST CALLVALUE DUP1 ISZERO PUSH2 0x848 JUMPI PUSH1 0x0 DUP1 REVERT JUMPDEST POP PUSH2 0x851 PUSH2 0x1D29 JUMP JUMPDEST PUSH1 0x40 MLOAD PUSH2 0x85E SWAP2 SWAP1 PUSH2 0x34BC JUMP JUMPDEST PUSH1 0x40 MLOAD DUP1 SWAP2 SUB SWAP1 RETURN JUMPDEST CALLVALUE DUP1 ISZERO PUSH2 0x873 JUMPI PUSH1 0x0 DUP1 REVERT JUMPDEST POP PUSH2 0x88E PUSH1 0x4 DUP1 CALLDATASIZE SUB DUP2 ADD SWAP1 PUSH2 0x889 SWAP2 SWAP1 PUSH2 0x3514 JUMP JUMPDEST PUSH2 0x1DB7 JUMP JUMPDEST PUSH1 0x40 MLOAD PUSH2 0x89B SWAP2 SWAP1 PUSH2 0x34BC JUMP JUMPDEST PUSH1 0x40 MLOAD DUP1 SWAP2 SUB SWAP1 RETURN JUMPDEST CALLVALUE DUP1 ISZERO PUSH2 0x8B0 JUMPI PUSH1 0x0 DUP1 REVERT JUMPDEST POP PUSH2 0x8B9 PUSH2 0x1E61 JUMP JUMPDEST PUSH1 0x40 MLOAD PUSH2 0x8C6 SWAP2 SWAP1 PUSH2 0x3618 JUMP JUMPDEST PUSH1 0x40 MLOAD DUP1 SWAP2 SUB SWAP1 RETURN JUMPDEST CALLVALUE DUP1 ISZERO PUSH2 0x8DB JUMPI PUSH1 0x0 DUP1 REVERT JUMPDEST POP PUSH2 0x8F6 PUSH1 0x4 DUP1 CALLDATASIZE SUB DUP2 ADD SWAP1 PUSH2 0x8F1 SWAP2 SWAP1 PUSH2 0x3686 JUMP JUMPDEST PUSH2 0x1E67 JUMP JUMPDEST PUSH1 0x40 MLOAD PUSH2 0x903 SWAP2 SWAP1 PUSH2 0x33AF JUMP JUMPDEST PUSH1 0x40 MLOAD DUP1 SWAP2 SUB SWAP1 RETURN JUMPDEST CALLVALUE DUP1 ISZERO PUSH2 0x918 JUMPI PUSH1 0x0 DUP1 REVERT JUMPDEST POP PUSH2 0x933 PUSH1 0x4 DUP1 CALLDATASIZE SUB DUP2 ADD SWAP1 PUSH2 0x92E SWAP2 SWAP1 PUSH2 0x39AC JUMP JUMPDEST PUSH2 0x1E87 JUMP JUMPDEST STOP JUMPDEST CALLVALUE DUP1 ISZERO PUSH2 0x941 JUMPI PUSH1 0x0 DUP1 REVERT JUMPDEST POP PUSH2 0x95C PUSH1 0x4 DUP1 CALLDATASIZE SUB DUP2 ADD SWAP1 PUSH2 0x957 SWAP2 SWAP1 PUSH2 0x3B59 JUMP JUMPDEST PUSH2 0x1F1D JUMP JUMPDEST PUSH1 0x40 MLOAD PUSH2 0x969 SWAP2 SWAP1 PUSH2 0x33AF JUMP JUMPDEST PUSH1 0x40 MLOAD DUP1 SWAP2 SUB SWAP1 RETURN JUMPDEST CALLVALUE DUP1 ISZERO PUSH2 0x97E JUMPI PUSH1 0x0 DUP1 REVERT JUMPDEST POP PUSH2 0x999 PUSH1 0x4 DUP1 CALLDATASIZE SUB DUP2 ADD SWAP1 PUSH2 0x994 SWAP2 SWAP1 PUSH2 0x3686 JUMP JUMPDEST PUSH2 0x1FB1 JUMP JUMPDEST STOP JUMPDEST CALLVALUE DUP1 ISZERO PUSH2 0x9A7 JUMPI PUSH1 0x0 DUP1 REVERT JUMPDEST POP PUSH2 0x9C2 PUSH1 0x4 DUP1 CALLDATASIZE SUB DUP2 ADD SWAP1 PUSH2 0x9BD SWAP2 SWAP1 PUSH2 0x3686 JUMP JUMPDEST PUSH2 0x2088 JUMP JUMPDEST STOP JUMPDEST PUSH1 0x0 PUSH32 0x780E9D6300000000000000000000000000000000000000000000000000000000 PUSH28 0xFFFFFFFFFFFFFFFFFFFFFFFFFFFFFFFFFFFFFFFFFFFFFFFFFFFFFFFF NOT AND DUP3 PUSH28 0xFFFFFFFFFFFFFFFFFFFFFFFFFFFFFFFFFFFFFFFFFFFFFFFFFFFFFFFF NOT AND EQ DUP1 PUSH2 0xA37 JUMPI POP PUSH2 0xA36 DUP3 PUSH2 0x2198 JUMP JUMPDEST JUMPDEST SWAP1 POP SWAP2 SWAP1 POP JUMP JUMPDEST PUSH2 0xA46 PUSH2 0x227A JUMP JUMPDEST PUSH20 0xFFFFFFFFFFFFFFFFFFFFFFFFFFFFFFFFFFFFFFFF AND PUSH2 0xA64 PUSH2 0x192D JUMP JUMPDEST PUSH20 0xFFFFFFFFFFFFFFFFFFFFFFFFFFFFFFFFFFFFFFFF AND EQ PUSH2 0xABA JUMPI PUSH1 0x40 MLOAD PUSH32 0x8C379A000000000000000000000000000000000000000000000000000000000 DUP2 MSTORE PUSH1 0x4 ADD PUSH2 0xAB1 SWAP1 PUSH2 0x3BE5 JUMP JUMPDEST PUSH1 0x40 MLOAD DUP1 SWAP2 SUB SWAP1 REVERT JUMPDEST DUP1 PUSH1 0x11 PUSH1 0x0 PUSH2 0x100 EXP DUP2 SLOAD DUP2 PUSH1 0xFF MUL NOT AND SWAP1 DUP4 ISZERO ISZERO MUL OR SWAP1 SSTORE POP POP JUMP JUMPDEST PUSH1 0x60 PUSH1 0x0 DUP1 SLOAD PUSH2 0xAE6 SWAP1 PUSH2 0x3C34 JUMP JUMPDEST DUP1 PUSH1 0x1F ADD PUSH1 0x20 DUP1 SWAP2 DIV MUL PUSH1 0x20 ADD PUSH1 0x40 MLOAD SWAP1 DUP2 ADD PUSH1 0x40 MSTORE DUP1 SWAP3 SWAP2 SWAP1 DUP2 DUP2 MSTORE PUSH1 0x20 ADD DUP3 DUP1 SLOAD PUSH2 0xB12 SWAP1 PUSH2 0x3C34 JUMP JUMPDEST DUP1 ISZERO PUSH2 0xB5F JUMPI DUP1 PUSH1 0x1F LT PUSH2 0xB34 JUMPI PUSH2 0x100 DUP1 DUP4 SLOAD DIV MUL DUP4 MSTORE SWAP2 PUSH1 0x20 ADD SWAP2 PUSH2 0xB5F JUMP JUMPDEST DUP3 ADD SWAP2 SWAP1 PUSH1 0x0 MSTORE PUSH1 0x20 PUSH1 0x0 KECCAK256 SWAP1 JUMPDEST DUP2 SLOAD DUP2 MSTORE SWAP1 PUSH1 0x1 ADD SWAP1 PUSH1 0x20 ADD DUP1 DUP4 GT PUSH2 0xB42 JUMPI DUP3 SWAP1 SUB PUSH1 0x1F AND DUP3 ADD SWAP2 JUMPDEST POP POP POP POP POP SWAP1 POP SWAP1 JUMP JUMPDEST PUSH1 0x0 PUSH2 0xB74 DUP3 PUSH2 0x2282 JUMP JUMPDEST PUSH2 0xBB3 JUMPI PUSH1 0x40 MLOAD PUSH32 0x8C379A000000000000000000000000000000000000000000000000000000000 DUP2 MSTORE PUSH1 0x4 ADD PUSH2 0xBAA SWAP1 PUSH2 0x3CD8 JUMP JUMPDEST PUSH1 0x40 MLOAD DUP1 SWAP2 SUB SWAP1 REVERT JUMPDEST PUSH1 0x4 PUSH1 0x0 DUP4 DUP2 MSTORE PUSH1 0x20 ADD SWAP1 DUP2 MSTORE PUSH1 0x20 ADD PUSH1 0x0 KECCAK256 PUSH1 0x0 SWAP1 SLOAD SWAP1 PUSH2 0x100 EXP SWAP1 DIV PUSH20 0xFFFFFFFFFFFFFFFFFFFFFFFFFFFFFFFFFFFFFFFF AND SWAP1 POP SWAP2 SWAP1 POP JUMP JUMPDEST PUSH1 0x0 PUSH2 0xBF9 DUP3 PUSH2 0x1627 JUMP JUMPDEST SWAP1 POP DUP1 PUSH20 0xFFFFFFFFFFFFFFFFFFFFFFFFFFFFFFFFFFFFFFFF AND DUP4 PUSH20 0xFFFFFFFFFFFFFFFFFFFFFFFFFFFFFFFFFFFFFFFF AND EQ ISZERO PUSH2 0xC6A JUMPI PUSH1 0x40 MLOAD PUSH32 0x8C379A000000000000000000000000000000000000000000000000000000000 DUP2 MSTORE PUSH1 0x4 ADD PUSH2 0xC61 SWAP1 PUSH2 0x3D6A JUMP JUMPDEST PUSH1 0x40 MLOAD DUP1 SWAP2 SUB SWAP1 REVERT JUMPDEST DUP1 PUSH20 0xFFFFFFFFFFFFFFFFFFFFFFFFFFFFFFFFFFFFFFFF AND PUSH2 0xC89 PUSH2 0x227A JUMP JUMPDEST PUSH20 0xFFFFFFFFFFFFFFFFFFFFFFFFFFFFFFFFFFFFFFFF AND EQ DUP1 PUSH2 0xCB8 JUMPI POP PUSH2 0xCB7 DUP2 PUSH2 0xCB2 PUSH2 0x227A JUMP JUMPDEST PUSH2 0x1F1D JUMP JUMPDEST JUMPDEST PUSH2 0xCF7 JUMPI PUSH1 0x40 MLOAD PUSH32 0x8C379A000000000000000000000000000000000000000000000000000000000 DUP2 MSTORE PUSH1 0x4 ADD PUSH2 0xCEE SWAP1 PUSH2 0x3DFC JUMP JUMPDEST PUSH1 0x40 MLOAD DUP1 SWAP2 SUB SWAP1 REVERT JUMPDEST PUSH2 0xD01 DUP4 DUP4 PUSH2 0x22EE JUMP JUMPDEST POP POP POP JUMP JUMPDEST PUSH1 0xD SLOAD DUP2 JUMP JUMPDEST PUSH1 0x0 PUSH1 0x8 DUP1 SLOAD SWAP1 POP SWAP1 POP SWAP1 JUMP JUMPDEST PUSH1 0x10 SLOAD DUP2 JUMP JUMPDEST PUSH2 0xD30 PUSH2 0xD2A PUSH2 0x227A JUMP JUMPDEST DUP3 PUSH2 0x23A7 JUMP JUMPDEST PUSH2 0xD6F JUMPI PUSH1 0x40 MLOAD PUSH32 0x8C379A000000000000000000000000000000000000000000000000000000000 DUP2 MSTORE PUSH1 0x4 ADD PUSH2 0xD66 SWAP1 PUSH2 0x3E8E JUMP JUMPDEST PUSH1 0x40 MLOAD DUP1 SWAP2 SUB SWAP1 REVERT JUMPDEST PUSH2 0xD7A DUP4 DUP4 DUP4 PUSH2 0x2485 JUMP JUMPDEST POP POP POP JUMP JUMPDEST PUSH1 0xE SLOAD DUP2 JUMP JUMPDEST PUSH1 0x0 PUSH2 0xD90 DUP4 PUSH2 0x1767 JUMP JUMPDEST DUP3 LT PUSH2 0xDD1 JUMPI PUSH1 0x40 MLOAD PUSH32 0x8C379A000000000000000000000000000000000000000000000000000000000 DUP2 MSTORE PUSH1 0x4 ADD PUSH2 0xDC8 SWAP1 PUSH2 0x3F20 JUMP JUMPDEST PUSH1 0x40 MLOAD DUP1 SWAP2 SUB SWAP1 REVERT JUMPDEST PUSH1 0x6 PUSH1 0x0 DUP5 PUSH20 0xFFFFFFFFFFFFFFFFFFFFFFFFFFFFFFFFFFFFFFFF AND PUSH20 0xFFFFFFFFFFFFFFFFFFFFFFFFFFFFFFFFFFFFFFFF AND DUP2 MSTORE PUSH1 0x20 ADD SWAP1 DUP2 MSTORE PUSH1 0x20 ADD PUSH1 0x0 KECCAK256 PUSH1 0x0 DUP4 DUP2 MSTORE PUSH1 0x20 ADD SWAP1 DUP2 MSTORE PUSH1 0x20 ADD PUSH1 0x0 KECCAK256 SLOAD SWAP1 POP SWAP3 SWAP2 POP POP JUMP JUMPDEST PUSH1 0x13 PUSH1 0x20 MSTORE DUP1 PUSH1 0x0 MSTORE PUSH1 0x40 PUSH1 0x0 KECCAK256 PUSH1 0x0 SWAP2 POP SLOAD SWAP1 PUSH2 0x100 EXP SWAP1 DIV PUSH1 0xFF AND DUP2 JUMP JUMPDEST PUSH2 0xE52 PUSH2 0x227A JUMP JUMPDEST PUSH20 0xFFFFFFFFFFFFFFFFFFFFFFFFFFFFFFFFFFFFFFFF AND PUSH2 0xE70 PUSH2 0x192D JUMP JUMPDEST PUSH20 0xFFFFFFFFFFFFFFFFFFFFFFFFFFFFFFFFFFFFFFFF AND EQ PUSH2 0xEC6 JUMPI PUSH1 0x40 MLOAD PUSH32 0x8C379A000000000000000000000000000000000000000000000000000000000 DUP2 MSTORE PUSH1 0x4 ADD PUSH2 0xEBD SWAP1 PUSH2 0x3BE5 JUMP JUMPDEST PUSH1 0x40 MLOAD DUP1 SWAP2 SUB SWAP1 REVERT JUMPDEST PUSH1 0x0 PUSH1 0x12 PUSH1 0x0 DUP4 PUSH20 0xFFFFFFFFFFFFFFFFFFFFFFFFFFFFFFFFFFFFFFFF AND PUSH20 0xFFFFFFFFFFFFFFFFFFFFFFFFFFFFFFFFFFFFFFFF AND DUP2 MSTORE PUSH1 0x20 ADD SWAP1 DUP2 MSTORE PUSH1 0x20 ADD PUSH1 0x0 KECCAK256 PUSH1 0x0 PUSH2 0x100 EXP DUP2 SLOAD DUP2 PUSH1 0xFF MUL NOT AND SWAP1 DUP4 ISZERO ISZERO MUL OR SWAP1 SSTORE POP POP JUMP JUMPDEST PUSH2 0xF29 PUSH2 0x227A JUMP JUMPDEST PUSH20 0xFFFFFFFFFFFFFFFFFFFFFFFFFFFFFFFFFFFFFFFF AND PUSH2 0xF47 PUSH2 0x192D JUMP JUMPDEST PUSH20 0xFFFFFFFFFFFFFFFFFFFFFFFFFFFFFFFFFFFFFFFF AND EQ PUSH2 0xF9D JUMPI PUSH1 0x40 MLOAD PUSH32 0x8C379A000000000000000000000000000000000000000000000000000000000 DUP2 MSTORE PUSH1 0x4 ADD PUSH2 0xF94 SWAP1 PUSH2 0x3BE5 JUMP JUMPDEST PUSH1 0x40 MLOAD DUP1 SWAP2 SUB SWAP1 REVERT JUMPDEST PUSH1 0x0 CALLER PUSH20 0xFFFFFFFFFFFFFFFFFFFFFFFFFFFFFFFFFFFFFFFF AND SELFBALANCE PUSH1 0x40 MLOAD PUSH2 0xFC3 SWAP1 PUSH2 0x3F71 JUMP JUMPDEST PUSH1 0x0 PUSH1 0x40 MLOAD DUP1 DUP4 SUB DUP2 DUP6 DUP8 GAS CALL SWAP3 POP POP POP RETURNDATASIZE DUP1 PUSH1 0x0 DUP2 EQ PUSH2 0x1000 JUMPI PUSH1 0x40 MLOAD SWAP2 POP PUSH1 0x1F NOT PUSH1 0x3F RETURNDATASIZE ADD AND DUP3 ADD PUSH1 0x40 MSTORE RETURNDATASIZE DUP3 MSTORE RETURNDATASIZE PUSH1 0x0 PUSH1 0x20 DUP5 ADD RETURNDATACOPY PUSH2 0x1005 JUMP JUMPDEST PUSH1 0x60 SWAP2 POP JUMPDEST POP POP SWAP1 POP DUP1 PUSH2 0x1013 JUMPI PUSH1 0x0 DUP1 REVERT JUMPDEST POP JUMP JUMPDEST PUSH1 0x0 PUSH2 0x1020 PUSH2 0xD0C JUMP JUMPDEST SWAP1 POP PUSH1 0x11 PUSH1 0x0 SWAP1 SLOAD SWAP1 PUSH2 0x100 EXP SWAP1 DIV PUSH1 0xFF AND ISZERO PUSH2 0x103C JUMPI PUSH1 0x0 DUP1 REVERT JUMPDEST PUSH1 0x0 DUP3 GT PUSH2 0x1049 JUMPI PUSH1 0x0 DUP1 REVERT JUMPDEST PUSH1 0x10 SLOAD DUP3 GT ISZERO PUSH2 0x1058 JUMPI PUSH1 0x0 DUP1 REVERT JUMPDEST PUSH1 0xF SLOAD DUP3 DUP3 PUSH2 0x1067 SWAP2 SWAP1 PUSH2 0x3FB5 JUMP JUMPDEST GT ISZERO PUSH2 0x1072 JUMPI PUSH1 0x0 DUP1 REVERT JUMPDEST PUSH2 0x107A PUSH2 0x192D JUMP JUMPDEST PUSH20 0xFFFFFFFFFFFFFFFFFFFFFFFFFFFFFFFFFFFFFFFF AND CALLER PUSH20 0xFFFFFFFFFFFFFFFFFFFFFFFFFFFFFFFFFFFFFFFF AND EQ PUSH2 0x1198 JUMPI PUSH1 0x1 ISZERO ISZERO PUSH1 0x12 PUSH1 0x0 CALLER PUSH20 0xFFFFFFFFFFFFFFFFFFFFFFFFFFFFFFFFFFFFFFFF AND PUSH20 0xFFFFFFFFFFFFFFFFFFFFFFFFFFFFFFFFFFFFFFFF AND DUP2 MSTORE PUSH1 0x20 ADD SWAP1 DUP2 MSTORE PUSH1 0x20 ADD PUSH1 0x0 KECCAK256 PUSH1 0x0 SWAP1 SLOAD SWAP1 PUSH2 0x100 EXP SWAP1 DIV PUSH1 0xFF AND ISZERO ISZERO EQ PUSH2 0x1197 JUMPI PUSH1 0x1 ISZERO ISZERO PUSH1 0x13 PUSH1 0x0 CALLER PUSH20 0xFFFFFFFFFFFFFFFFFFFFFFFFFFFFFFFFFFFFFFFF AND PUSH20 0xFFFFFFFFFFFFFFFFFFFFFFFFFFFFFFFFFFFFFFFF AND DUP2 MSTORE PUSH1 0x20 ADD SWAP1 DUP2 MSTORE PUSH1 0x20 ADD PUSH1 0x0 KECCAK256 PUSH1 0x0 SWAP1 SLOAD SWAP1 PUSH2 0x100 EXP SWAP1 DIV PUSH1 0xFF AND ISZERO ISZERO EQ PUSH2 0x117B JUMPI DUP2 PUSH1 0xD SLOAD PUSH2 0x116A SWAP2 SWAP1 PUSH2 0x400B JUMP JUMPDEST CALLVALUE LT ISZERO PUSH2 0x1176 JUMPI PUSH1 0x0 DUP1 REVERT JUMPDEST PUSH2 0x1196 JUMP JUMPDEST DUP2 PUSH1 0xE SLOAD PUSH2 0x1189 SWAP2 SWAP1 PUSH2 0x400B JUMP JUMPDEST CALLVALUE LT ISZERO PUSH2 0x1195 JUMPI PUSH1 0x0 DUP1 REVERT JUMPDEST JUMPDEST JUMPDEST JUMPDEST PUSH1 0x0 PUSH1 0x1 SWAP1 POP JUMPDEST DUP3 DUP2 GT PUSH2 0x11CE JUMPI PUSH2 0x11BB DUP5 DUP3 DUP5 PUSH2 0x11B6 SWAP2 SWAP1 PUSH2 0x3FB5 JUMP JUMPDEST PUSH2 0x26E1 JUMP JUMPDEST DUP1 DUP1 PUSH2 0x11C6 SWAP1 PUSH2 0x4065 JUMP JUMPDEST SWAP2 POP POP PUSH2 0x119F JUMP JUMPDEST POP POP POP POP JUMP JUMPDEST PUSH2 0x11EF DUP4 DUP4 DUP4 PUSH1 0x40 MLOAD DUP1 PUSH1 0x20 ADD PUSH1 0x40 MSTORE DUP1 PUSH1 0x0 DUP2 MSTORE POP PUSH2 0x1CC7 JUMP JUMPDEST POP POP POP JUMP JUMPDEST PUSH1 0x60 PUSH1 0x0 PUSH2 0x1201 DUP4 PUSH2 0x1767 JUMP JUMPDEST SWAP1 POP PUSH1 0x0 DUP2 PUSH8 0xFFFFFFFFFFFFFFFF DUP2 GT ISZERO PUSH2 0x121F JUMPI PUSH2 0x121E PUSH2 0x3798 JUMP JUMPDEST JUMPDEST PUSH1 0x40 MLOAD SWAP1 DUP1 DUP3 MSTORE DUP1 PUSH1 0x20 MUL PUSH1 0x20 ADD DUP3 ADD PUSH1 0x40 MSTORE DUP1 ISZERO PUSH2 0x124D JUMPI DUP2 PUSH1 0x20 ADD PUSH1 0x20 DUP3 MUL DUP1 CALLDATASIZE DUP4 CALLDATACOPY DUP1 DUP3 ADD SWAP2 POP POP SWAP1 POP JUMPDEST POP SWAP1 POP PUSH1 0x0 JUMPDEST DUP3 DUP2 LT ISZERO PUSH2 0x1297 JUMPI PUSH2 0x1265 DUP6 DUP3 PUSH2 0xD85 JUMP JUMPDEST DUP3 DUP3 DUP2 MLOAD DUP2 LT PUSH2 0x1278 JUMPI PUSH2 0x1277 PUSH2 0x40AE JUMP JUMPDEST JUMPDEST PUSH1 0x20 MUL PUSH1 0x20 ADD ADD DUP2 DUP2 MSTORE POP POP DUP1 DUP1 PUSH2 0x128F SWAP1 PUSH2 0x4065 JUMP JUMPDEST SWAP2 POP POP PUSH2 0x1253 JUMP JUMPDEST POP DUP1 SWAP3 POP POP POP SWAP2 SWAP1 POP JUMP JUMPDEST PUSH2 0x12AA PUSH2 0x227A JUMP JUMPDEST PUSH20 0xFFFFFFFFFFFFFFFFFFFFFFFFFFFFFFFFFFFFFFFF AND PUSH2 0x12C8 PUSH2 0x192D JUMP JUMPDEST PUSH20 0xFFFFFFFFFFFFFFFFFFFFFFFFFFFFFFFFFFFFFFFF AND EQ PUSH2 0x131E JUMPI PUSH1 0x40 MLOAD PUSH32 0x8C379A000000000000000000000000000000000000000000000000000000000 DUP2 MSTORE PUSH1 0x4 ADD PUSH2 0x1315 SWAP1 PUSH2 0x3BE5 JUMP JUMPDEST PUSH1 0x40 MLOAD DUP1 SWAP2 SUB SWAP1 REVERT JUMPDEST DUP1 PUSH1 0xD DUP2 SWAP1 SSTORE POP POP JUMP JUMPDEST PUSH2 0x1330 PUSH2 0x227A JUMP JUMPDEST PUSH20 0xFFFFFFFFFFFFFFFFFFFFFFFFFFFFFFFFFFFFFFFF AND PUSH2 0x134E PUSH2 0x192D JUMP JUMPDEST PUSH20 0xFFFFFFFFFFFFFFFFFFFFFFFFFFFFFFFFFFFFFFFF AND EQ PUSH2 0x13A4 JUMPI PUSH1 0x40 MLOAD PUSH32 0x8C379A000000000000000000000000000000000000000000000000000000000 DUP2 MSTORE PUSH1 0x4 ADD PUSH2 0x139B SWAP1 PUSH2 0x3BE5 JUMP JUMPDEST PUSH1 0x40 MLOAD DUP1 SWAP2 SUB SWAP1 REVERT JUMPDEST PUSH1 0x1 PUSH1 0x12 PUSH1 0x0 DUP4 PUSH20 0xFFFFFFFFFFFFFFFFFFFFFFFFFFFFFFFFFFFFFFFF AND PUSH20 0xFFFFFFFFFFFFFFFFFFFFFFFFFFFFFFFFFFFFFFFF AND DUP2 MSTORE PUSH1 0x20 ADD SWAP1 DUP2 MSTORE PUSH1 0x20 ADD PUSH1 0x0 KECCAK256 PUSH1 0x0 PUSH2 0x100 EXP DUP2 SLOAD DUP2 PUSH1 0xFF MUL NOT AND SWAP1 DUP4 ISZERO ISZERO MUL OR SWAP1 SSTORE POP POP JUMP JUMPDEST PUSH1 0x0 PUSH2 0x1409 PUSH2 0xD0C JUMP JUMPDEST DUP3 LT PUSH2 0x144A JUMPI PUSH1 0x40 MLOAD PUSH32 0x8C379A000000000000000000000000000000000000000000000000000000000 DUP2 MSTORE PUSH1 0x4 ADD PUSH2 0x1441 SWAP1 PUSH2 0x414F JUMP JUMPDEST PUSH1 0x40 MLOAD DUP1 SWAP2 SUB SWAP1 REVERT JUMPDEST PUSH1 0x8 DUP3 DUP2 SLOAD DUP2 LT PUSH2 0x145E JUMPI PUSH2 0x145D PUSH2 0x40AE JUMP JUMPDEST JUMPDEST SWAP1 PUSH1 0x0 MSTORE PUSH1 0x20 PUSH1 0x0 KECCAK256 ADD SLOAD SWAP1 POP SWAP2 SWAP1 POP JUMP JUMPDEST PUSH2 0x1478 PUSH2 0x227A JUMP JUMPDEST PUSH20 0xFFFFFFFFFFFFFFFFFFFFFFFFFFFFFFFFFFFFFFFF AND PUSH2 0x1496 PUSH2 0x192D JUMP JUMPDEST PUSH20 0xFFFFFFFFFFFFFFFFFFFFFFFFFFFFFFFFFFFFFFFF AND EQ PUSH2 0x14EC JUMPI PUSH1 0x40 MLOAD PUSH32 0x8C379A000000000000000000000000000000000000000000000000000000000 DUP2 MSTORE PUSH1 0x4 ADD PUSH2 0x14E3 SWAP1 PUSH2 0x3BE5 JUMP JUMPDEST PUSH1 0x40 MLOAD DUP1 SWAP2 SUB SWAP1 REVERT JUMPDEST PUSH1 0x0 JUMPDEST PUSH1 0x2 DUP2 LT ISZERO PUSH2 0x157A JUMPI PUSH1 0x1 PUSH1 0x13 PUSH1 0x0 DUP5 DUP5 PUSH1 0x64 DUP2 LT PUSH2 0x1511 JUMPI PUSH2 0x1510 PUSH2 0x40AE JUMP JUMPDEST JUMPDEST PUSH1 0x20 MUL ADD MLOAD PUSH20 0xFFFFFFFFFFFFFFFFFFFFFFFFFFFFFFFFFFFFFFFF AND PUSH20 0xFFFFFFFFFFFFFFFFFFFFFFFFFFFFFFFFFFFFFFFF AND DUP2 MSTORE PUSH1 0x20 ADD SWAP1 DUP2 MSTORE PUSH1 0x20 ADD PUSH1 0x0 KECCAK256 PUSH1 0x0 PUSH2 0x100 EXP DUP2 SLOAD DUP2 PUSH1 0xFF MUL NOT AND SWAP1 DUP4 ISZERO ISZERO MUL OR SWAP1 SSTORE POP DUP1 DUP1 PUSH2 0x1572 SWAP1 PUSH2 0x4065 JUMP JUMPDEST SWAP2 POP POP PUSH2 0x14EF JUMP JUMPDEST POP POP JUMP JUMPDEST PUSH2 0x1586 PUSH2 0x227A JUMP JUMPDEST PUSH20 0xFFFFFFFFFFFFFFFFFFFFFFFFFFFFFFFFFFFFFFFF AND PUSH2 0x15A4 PUSH2 0x192D JUMP JUMPDEST PUSH20 0xFFFFFFFFFFFFFFFFFFFFFFFFFFFFFFFFFFFFFFFF AND EQ PUSH2 0x15FA JUMPI PUSH1 0x40 MLOAD PUSH32 0x8C379A000000000000000000000000000000000000000000000000000000000 DUP2 MSTORE PUSH1 0x4 ADD PUSH2 0x15F1 SWAP1 PUSH2 0x3BE5 JUMP JUMPDEST PUSH1 0x40 MLOAD DUP1 SWAP2 SUB SWAP1 REVERT JUMPDEST DUP1 PUSH1 0xB SWAP1 DUP1 MLOAD SWAP1 PUSH1 0x20 ADD SWAP1 PUSH2 0x1610 SWAP3 SWAP2 SWAP1 PUSH2 0x3258 JUMP JUMPDEST POP POP JUMP JUMPDEST PUSH1 0x11 PUSH1 0x0 SWAP1 SLOAD SWAP1 PUSH2 0x100 EXP SWAP1 DIV PUSH1 0xFF AND DUP2 JUMP JUMPDEST PUSH1 0x0 DUP1 PUSH1 0x2 PUSH1 0x0 DUP5 DUP2 MSTORE PUSH1 0x20 ADD SWAP1 DUP2 MSTORE PUSH1 0x20 ADD PUSH1 0x0 KECCAK256 PUSH1 0x0 SWAP1 SLOAD SWAP1 PUSH2 0x100 EXP SWAP1 DIV PUSH20 0xFFFFFFFFFFFFFFFFFFFFFFFFFFFFFFFFFFFFFFFF AND SWAP1 POP PUSH1 0x0 PUSH20 0xFFFFFFFFFFFFFFFFFFFFFFFFFFFFFFFFFFFFFFFF AND DUP2 PUSH20 0xFFFFFFFFFFFFFFFFFFFFFFFFFFFFFFFFFFFFFFFF AND EQ ISZERO PUSH2 0x16D0 JUMPI PUSH1 0x40 MLOAD PUSH32 0x8C379A000000000000000000000000000000000000000000000000000000000 DUP2 MSTORE PUSH1 0x4 ADD PUSH2 0x16C7 SWAP1 PUSH2 0x41E1 JUMP JUMPDEST PUSH1 0x40 MLOAD DUP1 SWAP2 SUB SWAP1 REVERT JUMPDEST DUP1 SWAP2 POP POP SWAP2 SWAP1 POP JUMP JUMPDEST PUSH1 0xB DUP1 SLOAD PUSH2 0x16E6 SWAP1 PUSH2 0x3C34 JUMP JUMPDEST DUP1 PUSH1 0x1F ADD PUSH1 0x20 DUP1 SWAP2 DIV MUL PUSH1 0x20 ADD PUSH1 0x40 MLOAD SWAP1 DUP2 ADD PUSH1 0x40 MSTORE DUP1 SWAP3 SWAP2 SWAP1 DUP2 DUP2 MSTORE PUSH1 0x20 ADD DUP3 DUP1 SLOAD PUSH2 0x1712 SWAP1 PUSH2 0x3C34 JUMP JUMPDEST DUP1 ISZERO PUSH2 0x175F JUMPI DUP1 PUSH1 0x1F LT PUSH2 0x1734 JUMPI PUSH2 0x100 DUP1 DUP4 SLOAD DIV MUL DUP4 MSTORE SWAP2 PUSH1 0x20 ADD SWAP2 PUSH2 0x175F JUMP JUMPDEST DUP3 ADD SWAP2 SWAP1 PUSH1 0x0 MSTORE PUSH1 0x20 PUSH1 0x0 KECCAK256 SWAP1 JUMPDEST DUP2 SLOAD DUP2 MSTORE SWAP1 PUSH1 0x1 ADD SWAP1 PUSH1 0x20 ADD DUP1 DUP4 GT PUSH2 0x1742 JUMPI DUP3 SWAP1 SUB PUSH1 0x1F AND DUP3 ADD SWAP2 JUMPDEST POP POP POP POP POP DUP2 JUMP JUMPDEST PUSH1 0x0 DUP1 PUSH20 0xFFFFFFFFFFFFFFFFFFFFFFFFFFFFFFFFFFFFFFFF AND DUP3 PUSH20 0xFFFFFFFFFFFFFFFFFFFFFFFFFFFFFFFFFFFFFFFF AND EQ ISZERO PUSH2 0x17D8 JUMPI PUSH1 0x40 MLOAD PUSH32 0x8C379A000000000000000000000000000000000000000000000000000000000 DUP2 MSTORE PUSH1 0x4 ADD PUSH2 0x17CF SWAP1 PUSH2 0x4273 JUMP JUMPDEST PUSH1 0x40 MLOAD DUP1 SWAP2 SUB SWAP1 REVERT JUMPDEST PUSH1 0x3 PUSH1 0x0 DUP4 PUSH20 0xFFFFFFFFFFFFFFFFFFFFFFFFFFFFFFFFFFFFFFFF AND PUSH20 0xFFFFFFFFFFFFFFFFFFFFFFFFFFFFFFFFFFFFFFFF AND DUP2 MSTORE PUSH1 0x20 ADD SWAP1 DUP2 MSTORE PUSH1 0x20 ADD PUSH1 0x0 KECCAK256 SLOAD SWAP1 POP SWAP2 SWAP1 POP JUMP JUMPDEST PUSH2 0x1827 PUSH2 0x227A JUMP JUMPDEST PUSH20 0xFFFFFFFFFFFFFFFFFFFFFFFFFFFFFFFFFFFFFFFF AND PUSH2 0x1845 PUSH2 0x192D JUMP JUMPDEST PUSH20 0xFFFFFFFFFFFFFFFFFFFFFFFFFFFFFFFFFFFFFFFF AND EQ PUSH2 0x189B JUMPI PUSH1 0x40 MLOAD PUSH32 0x8C379A000000000000000000000000000000000000000000000000000000000 DUP2 MSTORE PUSH1 0x4 ADD PUSH2 0x1892 SWAP1 PUSH2 0x3BE5 JUMP JUMPDEST PUSH1 0x40 MLOAD DUP1 SWAP2 SUB SWAP1 REVERT JUMPDEST PUSH2 0x18A5 PUSH1 0x0 PUSH2 0x26FF JUMP JUMPDEST JUMP JUMPDEST PUSH2 0x18AF PUSH2 0x227A JUMP JUMPDEST PUSH20 0xFFFFFFFFFFFFFFFFFFFFFFFFFFFFFFFFFFFFFFFF AND PUSH2 0x18CD PUSH2 0x192D JUMP JUMPDEST PUSH20 0xFFFFFFFFFFFFFFFFFFFFFFFFFFFFFFFFFFFFFFFF AND EQ PUSH2 0x1923 JUMPI PUSH1 0x40 MLOAD PUSH32 0x8C379A000000000000000000000000000000000000000000000000000000000 DUP2 MSTORE PUSH1 0x4 ADD PUSH2 0x191A SWAP1 PUSH2 0x3BE5 JUMP JUMPDEST PUSH1 0x40 MLOAD DUP1 SWAP2 SUB SWAP1 REVERT JUMPDEST DUP1 PUSH1 0x10 DUP2 SWAP1 SSTORE POP POP JUMP JUMPDEST PUSH1 0x0 PUSH1 0xA PUSH1 0x0 SWAP1 SLOAD SWAP1 PUSH2 0x100 EXP SWAP1 DIV PUSH20 0xFFFFFFFFFFFFFFFFFFFFFFFFFFFFFFFFFFFFFFFF AND SWAP1 POP SWAP1 JUMP JUMPDEST PUSH2 0x195F PUSH2 0x227A JUMP JUMPDEST PUSH20 0xFFFFFFFFFFFFFFFFFFFFFFFFFFFFFFFFFFFFFFFF AND PUSH2 0x197D PUSH2 0x192D JUMP JUMPDEST PUSH20 0xFFFFFFFFFFFFFFFFFFFFFFFFFFFFFFFFFFFFFFFF AND EQ PUSH2 0x19D3 JUMPI PUSH1 0x40 MLOAD PUSH32 0x8C379A000000000000000000000000000000000000000000000000000000000 DUP2 MSTORE PUSH1 0x4 ADD PUSH2 0x19CA SWAP1 PUSH2 0x3BE5 JUMP JUMPDEST PUSH1 0x40 MLOAD DUP1 SWAP2 SUB SWAP1 REVERT JUMPDEST DUP1 PUSH1 0xE DUP2 SWAP1 SSTORE POP POP JUMP JUMPDEST PUSH1 0x60 PUSH1 0x1 DUP1 SLOAD PUSH2 0x19EC SWAP1 PUSH2 0x3C34 JUMP JUMPDEST DUP1 PUSH1 0x1F ADD PUSH1 0x20 DUP1 SWAP2 DIV MUL PUSH1 0x20 ADD PUSH1 0x40 MLOAD SWAP1 DUP2 ADD PUSH1 0x40 MSTORE DUP1 SWAP3 SWAP2 SWAP1 DUP2 DUP2 MSTORE PUSH1 0x20 ADD DUP3 DUP1 SLOAD PUSH2 0x1A18 SWAP1 PUSH2 0x3C34 JUMP JUMPDEST DUP1 ISZERO PUSH2 0x1A65 JUMPI DUP1 PUSH1 0x1F LT PUSH2 0x1A3A JUMPI PUSH2 0x100 DUP1 DUP4 SLOAD DIV MUL DUP4 MSTORE SWAP2 PUSH1 0x20 ADD SWAP2 PUSH2 0x1A65 JUMP JUMPDEST DUP3 ADD SWAP2 SWAP1 PUSH1 0x0 MSTORE PUSH1 0x20 PUSH1 0x0 KECCAK256 SWAP1 JUMPDEST DUP2 SLOAD DUP2 MSTORE SWAP1 PUSH1 0x1 ADD SWAP1 PUSH1 0x20 ADD DUP1 DUP4 GT PUSH2 0x1A48 JUMPI DUP3 SWAP1 SUB PUSH1 0x1F AND DUP3 ADD SWAP2 JUMPDEST POP POP POP POP POP SWAP1 POP SWAP1 JUMP JUMPDEST PUSH2 0x1A77 PUSH2 0x227A JUMP JUMPDEST PUSH20 0xFFFFFFFFFFFFFFFFFFFFFFFFFFFFFFFFFFFFFFFF AND DUP3 PUSH20 0xFFFFFFFFFFFFFFFFFFFFFFFFFFFFFFFFFFFFFFFF AND EQ ISZERO PUSH2 0x1AE5 JUMPI PUSH1 0x40 MLOAD PUSH32 0x8C379A000000000000000000000000000000000000000000000000000000000 DUP2 MSTORE PUSH1 0x4 ADD PUSH2 0x1ADC SWAP1 PUSH2 0x42DF JUMP JUMPDEST PUSH1 0x40 MLOAD DUP1 SWAP2 SUB SWAP1 REVERT JUMPDEST DUP1 PUSH1 0x5 PUSH1 0x0 PUSH2 0x1AF2 PUSH2 0x227A JUMP JUMPDEST PUSH20 0xFFFFFFFFFFFFFFFFFFFFFFFFFFFFFFFFFFFFFFFF AND PUSH20 0xFFFFFFFFFFFFFFFFFFFFFFFFFFFFFFFFFFFFFFFF AND DUP2 MSTORE PUSH1 0x20 ADD SWAP1 DUP2 MSTORE PUSH1 0x20 ADD PUSH1 0x0 KECCAK256 PUSH1 0x0 DUP5 PUSH20 0xFFFFFFFFFFFFFFFFFFFFFFFFFFFFFFFFFFFFFFFF AND PUSH20 0xFFFFFFFFFFFFFFFFFFFFFFFFFFFFFFFFFFFFFFFF AND DUP2 MSTORE PUSH1 0x20 ADD SWAP1 DUP2 MSTORE PUSH1 0x20 ADD PUSH1 0x0 KECCAK256 PUSH1 0x0 PUSH2 0x100 EXP DUP2 SLOAD DUP2 PUSH1 0xFF MUL NOT AND SWAP1 DUP4 ISZERO ISZERO MUL OR SWAP1 SSTORE POP DUP2 PUSH20 0xFFFFFFFFFFFFFFFFFFFFFFFFFFFFFFFFFFFFFFFF AND PUSH2 0x1B9F PUSH2 0x227A JUMP JUMPDEST PUSH20 0xFFFFFFFFFFFFFFFFFFFFFFFFFFFFFFFFFFFFFFFF AND PUSH32 0x17307EAB39AB6107E8899845AD3D59BD9653F200F220920489CA2B5937696C31 DUP4 PUSH1 0x40 MLOAD PUSH2 0x1BE4 SWAP2 SWAP1 PUSH2 0x33AF JUMP JUMPDEST PUSH1 0x40 MLOAD DUP1 SWAP2 SUB SWAP1 LOG3 POP POP JUMP JUMPDEST PUSH2 0x1BF8 PUSH2 0x227A JUMP JUMPDEST PUSH20 0xFFFFFFFFFFFFFFFFFFFFFFFFFFFFFFFFFFFFFFFF AND PUSH2 0x1C16 PUSH2 0x192D JUMP JUMPDEST PUSH20 0xFFFFFFFFFFFFFFFFFFFFFFFFFFFFFFFFFFFFFFFF AND EQ PUSH2 0x1C6C JUMPI PUSH1 0x40 MLOAD PUSH32 0x8C379A000000000000000000000000000000000000000000000000000000000 DUP2 MSTORE PUSH1 0x4 ADD PUSH2 0x1C63 SWAP1 PUSH2 0x3BE5 JUMP JUMPDEST PUSH1 0x40 MLOAD DUP1 SWAP2 SUB SWAP1 REVERT JUMPDEST PUSH1 0x1 PUSH1 0x13 PUSH1 0x0 DUP4 PUSH20 0xFFFFFFFFFFFFFFFFFFFFFFFFFFFFFFFFFFFFFFFF AND PUSH20 0xFFFFFFFFFFFFFFFFFFFFFFFFFFFFFFFFFFFFFFFF AND DUP2 MSTORE PUSH1 0x20 ADD SWAP1 DUP2 MSTORE PUSH1 0x20 ADD PUSH1 0x0 KECCAK256 PUSH1 0x0 PUSH2 0x100 EXP DUP2 SLOAD DUP2 PUSH1 0xFF MUL NOT AND SWAP1 DUP4 ISZERO ISZERO MUL OR SWAP1 SSTORE POP POP JUMP JUMPDEST PUSH2 0x1CD8 PUSH2 0x1CD2 PUSH2 0x227A JUMP JUMPDEST DUP4 PUSH2 0x23A7 JUMP JUMPDEST PUSH2 0x1D17 JUMPI PUSH1 0x40 MLOAD PUSH32 0x8C379A000000000000000000000000000000000000000000000000000000000 DUP2 MSTORE PUSH1 0x4 ADD PUSH2 0x1D0E SWAP1 PUSH2 0x3E8E JUMP JUMPDEST PUSH1 0x40 MLOAD DUP1 SWAP2 SUB SWAP1 REVERT JUMPDEST PUSH2 0x1D23 DUP5 DUP5 DUP5 DUP5 PUSH2 0x27C5 JUMP JUMPDEST POP POP POP POP JUMP JUMPDEST PUSH1 0xC DUP1 SLOAD PUSH2 0x1D36 SWAP1 PUSH2 0x3C34 JUMP JUMPDEST DUP1 PUSH1 0x1F ADD PUSH1 0x20 DUP1 SWAP2 DIV MUL PUSH1 0x20 ADD PUSH1 0x40 MLOAD SWAP1 DUP2 ADD PUSH1 0x40 MSTORE DUP1 SWAP3 SWAP2 SWAP1 DUP2 DUP2 MSTORE PUSH1 0x20 ADD DUP3 DUP1 SLOAD PUSH2 0x1D62 SWAP1 PUSH2 0x3C34 JUMP JUMPDEST DUP1 ISZERO PUSH2 0x1DAF JUMPI DUP1 PUSH1 0x1F LT PUSH2 0x1D84 JUMPI PUSH2 0x100 DUP1 DUP4 SLOAD DIV MUL DUP4 MSTORE SWAP2 PUSH1 0x20 ADD SWAP2 PUSH2 0x1DAF JUMP JUMPDEST DUP3 ADD SWAP2 SWAP1 PUSH1 0x0 MSTORE PUSH1 0x20 PUSH1 0x0 KECCAK256 SWAP1 JUMPDEST DUP2 SLOAD DUP2 MSTORE SWAP1 PUSH1 0x1 ADD SWAP1 PUSH1 0x20 ADD DUP1 DUP4 GT PUSH2 0x1D92 JUMPI DUP3 SWAP1 SUB PUSH1 0x1F AND DUP3 ADD SWAP2 JUMPDEST POP POP POP POP POP DUP2 JUMP JUMPDEST PUSH1 0x60 PUSH2 0x1DC2 DUP3 PUSH2 0x2282 JUMP JUMPDEST PUSH2 0x1E01 JUMPI PUSH1 0x40 MLOAD PUSH32 0x8C379A000000000000000000000000000000000000000000000000000000000 DUP2 MSTORE PUSH1 0x4 ADD PUSH2 0x1DF8 SWAP1 PUSH2 0x4371 JUMP JUMPDEST PUSH1 0x40 MLOAD DUP1 SWAP2 SUB SWAP1 REVERT JUMPDEST PUSH1 0x0 PUSH2 0x1E0B PUSH2 0x2821 JUMP JUMPDEST SWAP1 POP PUSH1 0x0 DUP2 MLOAD GT PUSH2 0x1E2B JUMPI PUSH1 0x40 MLOAD DUP1 PUSH1 0x20 ADD PUSH1 0x40 MSTORE DUP1 PUSH1 0x0 DUP2 MSTORE POP PUSH2 0x1E59 JUMP JUMPDEST DUP1 PUSH2 0x1E35 DUP5 PUSH2 0x28B3 JUMP JUMPDEST PUSH1 0xC PUSH1 0x40 MLOAD PUSH1 0x20 ADD PUSH2 0x1E49 SWAP4 SWAP3 SWAP2 SWAP1 PUSH2 0x4461 JUMP JUMPDEST PUSH1 0x40 MLOAD PUSH1 0x20 DUP2 DUP4 SUB SUB DUP2 MSTORE SWAP1 PUSH1 0x40 MSTORE JUMPDEST SWAP2 POP POP SWAP2 SWAP1 POP JUMP JUMPDEST PUSH1 0xF SLOAD DUP2 JUMP JUMPDEST PUSH1 0x12 PUSH1 0x20 MSTORE DUP1 PUSH1 0x0 MSTORE PUSH1 0x40 PUSH1 0x0 KECCAK256 PUSH1 0x0 SWAP2 POP SLOAD SWAP1 PUSH2 0x100 EXP SWAP1 DIV PUSH1 0xFF AND DUP2 JUMP JUMPDEST PUSH2 0x1E8F PUSH2 0x227A JUMP JUMPDEST PUSH20 0xFFFFFFFFFFFFFFFFFFFFFFFFFFFFFFFFFFFFFFFF AND PUSH2 0x1EAD PUSH2 0x192D JUMP JUMPDEST PUSH20 0xFFFFFFFFFFFFFFFFFFFFFFFFFFFFFFFFFFFFFFFF AND EQ PUSH2 0x1F03 JUMPI PUSH1 0x40 MLOAD PUSH32 0x8C379A000000000000000000000000000000000000000000000000000000000 DUP2 MSTORE PUSH1 0x4 ADD PUSH2 0x1EFA SWAP1 PUSH2 0x3BE5 JUMP JUMPDEST PUSH1 0x40 MLOAD DUP1 SWAP2 SUB SWAP1 REVERT JUMPDEST DUP1 PUSH1 0xC SWAP1 DUP1 MLOAD SWAP1 PUSH1 0x20 ADD SWAP1 PUSH2 0x1F19 SWAP3 SWAP2 SWAP1 PUSH2 0x3258 JUMP JUMPDEST POP POP JUMP JUMPDEST PUSH1 0x0 PUSH1 0x5 PUSH1 0x0 DUP5 PUSH20 0xFFFFFFFFFFFFFFFFFFFFFFFFFFFFFFFFFFFFFFFF AND PUSH20 0xFFFFFFFFFFFFFFFFFFFFFFFFFFFFFFFFFFFFFFFF AND DUP2 MSTORE PUSH1 0x20 ADD SWAP1 DUP2 MSTORE PUSH1 0x20 ADD PUSH1 0x0 KECCAK256 PUSH1 0x0 DUP4 PUSH20 0xFFFFFFFFFFFFFFFFFFFFFFFFFFFFFFFFFFFFFFFF AND PUSH20 0xFFFFFFFFFFFFFFFFFFFFFFFFFFFFFFFFFFFFFFFF AND DUP2 MSTORE PUSH1 0x20 ADD SWAP1 DUP2 MSTORE PUSH1 0x20 ADD PUSH1 0x0 KECCAK256 PUSH1 0x0 SWAP1 SLOAD SWAP1 PUSH2 0x100 EXP SWAP1 DIV PUSH1 0xFF AND SWAP1 POP SWAP3 SWAP2 POP POP JUMP JUMPDEST PUSH2 0x1FB9 PUSH2 0x227A JUMP JUMPDEST PUSH20 0xFFFFFFFFFFFFFFFFFFFFFFFFFFFFFFFFFFFFFFFF AND PUSH2 0x1FD7 PUSH2 0x192D JUMP JUMPDEST PUSH20 0xFFFFFFFFFFFFFFFFFFFFFFFFFFFFFFFFFFFFFFFF AND EQ PUSH2 0x202D JUMPI PUSH1 0x40 MLOAD PUSH32 0x8C379A000000000000000000000000000000000000000000000000000000000 DUP2 MSTORE PUSH1 0x4 ADD PUSH2 0x2024 SWAP1 PUSH2 0x3BE5 JUMP JUMPDEST PUSH1 0x40 MLOAD DUP1 SWAP2 SUB SWAP1 REVERT JUMPDEST PUSH1 0x0 PUSH1 0x13 PUSH1 0x0 DUP4 PUSH20 0xFFFFFFFFFFFFFFFFFFFFFFFFFFFFFFFFFFFFFFFF AND PUSH20 0xFFFFFFFFFFFFFFFFFFFFFFFFFFFFFFFFFFFFFFFF AND DUP2 MSTORE PUSH1 0x20 ADD SWAP1 DUP2 MSTORE PUSH1 0x20 ADD PUSH1 0x0 KECCAK256 PUSH1 0x0 PUSH2 0x100 EXP DUP2 SLOAD DUP2 PUSH1 0xFF MUL NOT AND SWAP1 DUP4 ISZERO ISZERO MUL OR SWAP1 SSTORE POP POP JUMP JUMPDEST PUSH2 0x2090 PUSH2 0x227A JUMP JUMPDEST PUSH20 0xFFFFFFFFFFFFFFFFFFFFFFFFFFFFFFFFFFFFFFFF AND PUSH2 0x20AE PUSH2 0x192D JUMP JUMPDEST PUSH20 0xFFFFFFFFFFFFFFFFFFFFFFFFFFFFFFFFFFFFFFFF AND EQ PUSH2 0x2104 JUMPI PUSH1 0x40 MLOAD PUSH32 0x8C379A000000000000000000000000000000000000000000000000000000000 DUP2 MSTORE PUSH1 0x4 ADD PUSH2 0x20FB SWAP1 PUSH2 0x3BE5 JUMP JUMPDEST PUSH1 0x40 MLOAD DUP1 SWAP2 SUB SWAP1 REVERT JUMPDEST PUSH1 0x0 PUSH20 0xFFFFFFFFFFFFFFFFFFFFFFFFFFFFFFFFFFFFFFFF AND DUP2 PUSH20 0xFFFFFFFFFFFFFFFFFFFFFFFFFFFFFFFFFFFFFFFF AND EQ ISZERO PUSH2 0x2174 JUMPI PUSH1 0x40 MLOAD PUSH32 0x8C379A000000000000000000000000000000000000000000000000000000000 DUP2 MSTORE PUSH1 0x4 ADD PUSH2 0x216B SWAP1 PUSH2 0x4504 JUMP JUMPDEST PUSH1 0x40 MLOAD DUP1 SWAP2 SUB SWAP1 REVERT JUMPDEST PUSH2 0x217D DUP2 PUSH2 0x26FF JUMP JUMPDEST POP JUMP JUMPDEST PUSH1 0x0 DUP1 DUP3 EXTCODESIZE SWAP1 POP PUSH1 0x0 DUP2 GT SWAP2 POP POP SWAP2 SWAP1 POP JUMP JUMPDEST POP POP POP JUMP JUMPDEST PUSH1 0x0 PUSH32 0x80AC58CD00000000000000000000000000000000000000000000000000000000 PUSH28 0xFFFFFFFFFFFFFFFFFFFFFFFFFFFFFFFFFFFFFFFFFFFFFFFFFFFFFFFF NOT AND DUP3 PUSH28 0xFFFFFFFFFFFFFFFFFFFFFFFFFFFFFFFFFFFFFFFFFFFFFFFFFFFFFFFF NOT AND EQ DUP1 PUSH2 0x2263 JUMPI POP PUSH32 0x5B5E139F00000000000000000000000000000000000000000000000000000000 PUSH28 0xFFFFFFFFFFFFFFFFFFFFFFFFFFFFFFFFFFFFFFFFFFFFFFFFFFFFFFFF NOT AND DUP3 PUSH28 0xFFFFFFFFFFFFFFFFFFFFFFFFFFFFFFFFFFFFFFFFFFFFFFFFFFFFFFFF NOT AND EQ JUMPDEST DUP1 PUSH2 0x2273 JUMPI POP PUSH2 0x2272 DUP3 PUSH2 0x2A14 JUMP JUMPDEST JUMPDEST SWAP1 POP SWAP2 SWAP1 POP JUMP JUMPDEST PUSH1 0x0 CALLER SWAP1 POP SWAP1 JUMP JUMPDEST PUSH1 0x0 DUP1 PUSH20 0xFFFFFFFFFFFFFFFFFFFFFFFFFFFFFFFFFFFFFFFF AND PUSH1 0x2 PUSH1 0x0 DUP5 DUP2 MSTORE PUSH1 0x20 ADD SWAP1 DUP2 MSTORE PUSH1 0x20 ADD PUSH1 0x0 KECCAK256 PUSH1 0x0 SWAP1 SLOAD SWAP1 PUSH2 0x100 EXP SWAP1 DIV PUSH20 0xFFFFFFFFFFFFFFFFFFFFFFFFFFFFFFFFFFFFFFFF AND PUSH20 0xFFFFFFFFFFFFFFFFFFFFFFFFFFFFFFFFFFFFFFFF AND EQ ISZERO SWAP1 POP SWAP2 SWAP1 POP JUMP JUMPDEST DUP2 PUSH1 0x4 PUSH1 0x0 DUP4 DUP2 MSTORE PUSH1 0x20 ADD SWAP1 DUP2 MSTORE PUSH1 0x20 ADD PUSH1 0x0 KECCAK256 PUSH1 0x0 PUSH2 0x100 EXP DUP2 SLOAD DUP2 PUSH20 0xFFFFFFFFFFFFFFFFFFFFFFFFFFFFFFFFFFFFFFFF MUL NOT AND SWAP1 DUP4 PUSH20 0xFFFFFFFFFFFFFFFFFFFFFFFFFFFFFFFFFFFFFFFF AND MUL OR SWAP1 SSTORE POP DUP1 DUP3 PUSH20 0xFFFFFFFFFFFFFFFFFFFFFFFFFFFFFFFFFFFFFFFF AND PUSH2 0x2361 DUP4 PUSH2 0x1627 JUMP JUMPDEST PUSH20 0xFFFFFFFFFFFFFFFFFFFFFFFFFFFFFFFFFFFFFFFF AND PUSH32 0x8C5BE1E5EBEC7D5BD14F71427D1E84F3DD0314C0F7B2291E5B200AC8C7C3B925 PUSH1 0x40 MLOAD PUSH1 0x40 MLOAD DUP1 SWAP2 SUB SWAP1 LOG4 POP POP JUMP JUMPDEST PUSH1 0x0 PUSH2 0x23B2 DUP3 PUSH2 0x2282 JUMP JUMPDEST PUSH2 0x23F1 JUMPI PUSH1 0x40 MLOAD PUSH32 0x8C379A000000000000000000000000000000000000000000000000000000000 DUP2 MSTORE PUSH1 0x4 ADD PUSH2 0x23E8 SWAP1 PUSH2 0x4596 JUMP JUMPDEST PUSH1 0x40 MLOAD DUP1 SWAP2 SUB SWAP1 REVERT JUMPDEST PUSH1 0x0 PUSH2 0x23FC DUP4 PUSH2 0x1627 JUMP JUMPDEST SWAP1 POP DUP1 PUSH20 0xFFFFFFFFFFFFFFFFFFFFFFFFFFFFFFFFFFFFFFFF AND DUP5 PUSH20 0xFFFFFFFFFFFFFFFFFFFFFFFFFFFFFFFFFFFFFFFF AND EQ DUP1 PUSH2 0x246B JUMPI POP DUP4 PUSH20 0xFFFFFFFFFFFFFFFFFFFFFFFFFFFFFFFFFFFFFFFF AND PUSH2 0x2453 DUP5 PUSH2 0xB69 JUMP JUMPDEST PUSH20 0xFFFFFFFFFFFFFFFFFFFFFFFFFFFFFFFFFFFFFFFF AND EQ JUMPDEST DUP1 PUSH2 0x247C JUMPI POP PUSH2 0x247B DUP2 DUP6 PUSH2 0x1F1D JUMP JUMPDEST JUMPDEST SWAP2 POP POP SWAP3 SWAP2 POP POP JUMP JUMPDEST DUP3 PUSH20 0xFFFFFFFFFFFFFFFFFFFFFFFFFFFFFFFFFFFFFFFF AND PUSH2 0x24A5 DUP3 PUSH2 0x1627 JUMP JUMPDEST PUSH20 0xFFFFFFFFFFFFFFFFFFFFFFFFFFFFFFFFFFFFFFFF AND EQ PUSH2 0x24FB JUMPI PUSH1 0x40 MLOAD PUSH32 0x8C379A000000000000000000000000000000000000000000000000000000000 DUP2 MSTORE PUSH1 0x4 ADD PUSH2 0x24F2 SWAP1 PUSH2 0x4628 JUMP JUMPDEST PUSH1 0x40 MLOAD DUP1 SWAP2 SUB SWAP1 REVERT JUMPDEST PUSH1 0x0 PUSH20 0xFFFFFFFFFFFFFFFFFFFFFFFFFFFFFFFFFFFFFFFF AND DUP3 PUSH20 0xFFFFFFFFFFFFFFFFFFFFFFFFFFFFFFFFFFFFFFFF AND EQ ISZERO PUSH2 0x256B JUMPI PUSH1 0x40 MLOAD PUSH32 0x8C379A000000000000000000000000000000000000000000000000000000000 DUP2 MSTORE PUSH1 0x4 ADD PUSH2 0x2562 SWAP1 PUSH2 0x46BA JUMP JUMPDEST PUSH1 0x40 MLOAD DUP1 SWAP2 SUB SWAP1 REVERT JUMPDEST PUSH2 0x2576 DUP4 DUP4 DUP4 PUSH2 0x2A7E JUMP JUMPDEST PUSH2 0x2581 PUSH1 0x0 DUP3 PUSH2 0x22EE JUMP JUMPDEST PUSH1 0x1 PUSH1 0x3 PUSH1 0x0 DUP6 PUSH20 0xFFFFFFFFFFFFFFFFFFFFFFFFFFFFFFFFFFFFFFFF AND PUSH20 0xFFFFFFFFFFFFFFFFFFFFFFFFFFFFFFFFFFFFFFFF AND DUP2 MSTORE PUSH1 0x20 ADD SWAP1 DUP2 MSTORE PUSH1 0x20 ADD PUSH1 0x0 KECCAK256 PUSH1 0x0 DUP3 DUP3 SLOAD PUSH2 0x25D1 SWAP2 SWAP1 PUSH2 0x46DA JUMP JUMPDEST SWAP3 POP POP DUP2 SWAP1 SSTORE POP PUSH1 0x1 PUSH1 0x3 PUSH1 0x0 DUP5 PUSH20 0xFFFFFFFFFFFFFFFFFFFFFFFFFFFFFFFFFFFFFFFF AND PUSH20 0xFFFFFFFFFFFFFFFFFFFFFFFFFFFFFFFFFFFFFFFF AND DUP2 MSTORE PUSH1 0x20 ADD SWAP1 DUP2 MSTORE PUSH1 0x20 ADD PUSH1 0x0 KECCAK256 PUSH1 0x0 DUP3 DUP3 SLOAD PUSH2 0x2628 SWAP2 SWAP1 PUSH2 0x3FB5 JUMP JUMPDEST SWAP3 POP POP DUP2 SWAP1 SSTORE POP DUP2 PUSH1 0x2 PUSH1 0x0 DUP4 DUP2 MSTORE PUSH1 0x20 ADD SWAP1 DUP2 MSTORE PUSH1 0x20 ADD PUSH1 0x0 KECCAK256 PUSH1 0x0 PUSH2 0x100 EXP DUP2 SLOAD DUP2 PUSH20 0xFFFFFFFFFFFFFFFFFFFFFFFFFFFFFFFFFFFFFFFF MUL NOT AND SWAP1 DUP4 PUSH20 0xFFFFFFFFFFFFFFFFFFFFFFFFFFFFFFFFFFFFFFFF AND MUL OR SWAP1 SSTORE POP DUP1 DUP3 PUSH20 0xFFFFFFFFFFFFFFFFFFFFFFFFFFFFFFFFFFFFFFFF AND DUP5 PUSH20 0xFFFFFFFFFFFFFFFFFFFFFFFFFFFFFFFFFFFFFFFF AND PUSH32 0xDDF252AD1BE2C89B69C2B068FC378DAA952BA7F163C4A11628F55A4DF523B3EF PUSH1 0x40 MLOAD PUSH1 0x40 MLOAD DUP1 SWAP2 SUB SWAP1 LOG4 POP POP POP JUMP JUMPDEST PUSH2 0x26FB DUP3 DUP3 PUSH1 0x40 MLOAD DUP1 PUSH1 0x20 ADD PUSH1 0x40 MSTORE DUP1 PUSH1 0x0 DUP2 MSTORE POP PUSH2 0x2B92 JUMP JUMPDEST POP POP JUMP JUMPDEST PUSH1 0x0 PUSH1 0xA PUSH1 0x0 SWAP1 SLOAD SWAP1 PUSH2 0x100 EXP SWAP1 DIV PUSH20 0xFFFFFFFFFFFFFFFFFFFFFFFFFFFFFFFFFFFFFFFF AND SWAP1 POP DUP2 PUSH1 0xA PUSH1 0x0 PUSH2 0x100 EXP DUP2 SLOAD DUP2 PUSH20 0xFFFFFFFFFFFFFFFFFFFFFFFFFFFFFFFFFFFFFFFF MUL NOT AND SWAP1 DUP4 PUSH20 0xFFFFFFFFFFFFFFFFFFFFFFFFFFFFFFFFFFFFFFFF AND MUL OR SWAP1 SSTORE POP DUP2 PUSH20 0xFFFFFFFFFFFFFFFFFFFFFFFFFFFFFFFFFFFFFFFF AND DUP2 PUSH20 0xFFFFFFFFFFFFFFFFFFFFFFFFFFFFFFFFFFFFFFFF AND PUSH32 0x8BE0079C531659141344CD1FD0A4F28419497F9722A3DAAFE3B4186F6B6457E0 PUSH1 0x40 MLOAD PUSH1 0x40 MLOAD DUP1 SWAP2 SUB SWAP1 LOG3 POP POP JUMP JUMPDEST PUSH2 0x27D0 DUP5 DUP5 DUP5 PUSH2 0x2485 JUMP JUMPDEST PUSH2 0x27DC DUP5 DUP5 DUP5 DUP5 PUSH2 0x2BED JUMP JUMPDEST PUSH2 0x281B JUMPI PUSH1 0x40 MLOAD PUSH32 0x8C379A000000000000000000000000000000000000000000000000000000000 DUP2 MSTORE PUSH1 0x4 ADD PUSH2 0x2812 SWAP1 PUSH2 0x4780 JUMP JUMPDEST PUSH1 0x40 MLOAD DUP1 SWAP2 SUB SWAP1 REVERT JUMPDEST POP POP POP POP JUMP JUMPDEST PUSH1 0x60 PUSH1 0xB DUP1 SLOAD PUSH2 0x2830 SWAP1 PUSH2 0x3C34 JUMP JUMPDEST DUP1 PUSH1 0x1F ADD PUSH1 0x20 DUP1 SWAP2 DIV MUL PUSH1 0x20 ADD PUSH1 0x40 MLOAD SWAP1 DUP2 ADD PUSH1 0x40 MSTORE DUP1 SWAP3 SWAP2 SWAP1 DUP2 DUP2 MSTORE PUSH1 0x20 ADD DUP3 DUP1 SLOAD PUSH2 0x285C SWAP1 PUSH2 0x3C34 JUMP JUMPDEST DUP1 ISZERO PUSH2 0x28A9 JUMPI DUP1 PUSH1 0x1F LT PUSH2 0x287E JUMPI PUSH2 0x100 DUP1 DUP4 SLOAD DIV MUL DUP4 MSTORE SWAP2 PUSH1 0x20 ADD SWAP2 PUSH2 0x28A9 JUMP JUMPDEST DUP3 ADD SWAP2 SWAP1 PUSH1 0x0 MSTORE PUSH1 0x20 PUSH1 0x0 KECCAK256 SWAP1 JUMPDEST DUP2 SLOAD DUP2 MSTORE SWAP1 PUSH1 0x1 ADD SWAP1 PUSH1 0x20 ADD DUP1 DUP4 GT PUSH2 0x288C JUMPI DUP3 SWAP1 SUB PUSH1 0x1F AND DUP3 ADD SWAP2 JUMPDEST POP POP POP POP POP SWAP1 POP SWAP1 JUMP JUMPDEST PUSH1 0x60 PUSH1 0x0 DUP3 EQ ISZERO PUSH2 0x28FB JUMPI PUSH1 0x40 MLOAD DUP1 PUSH1 0x40 ADD PUSH1 0x40 MSTORE DUP1 PUSH1 0x1 DUP2 MSTORE PUSH1 0x20 ADD PUSH32 0x3000000000000000000000000000000000000000000000000000000000000000 DUP2 MSTORE POP SWAP1 POP PUSH2 0x2A0F JUMP JUMPDEST PUSH1 0x0 DUP3 SWAP1 POP PUSH1 0x0 JUMPDEST PUSH1 0x0 DUP3 EQ PUSH2 0x292D JUMPI DUP1 DUP1 PUSH2 0x2916 SWAP1 PUSH2 0x4065 JUMP JUMPDEST SWAP2 POP POP PUSH1 0xA DUP3 PUSH2 0x2926 SWAP2 SWAP1 PUSH2 0x47CF JUMP JUMPDEST SWAP2 POP PUSH2 0x2903 JUMP JUMPDEST PUSH1 0x0 DUP2 PUSH8 0xFFFFFFFFFFFFFFFF DUP2 GT ISZERO PUSH2 0x2949 JUMPI PUSH2 0x2948 PUSH2 0x3798 JUMP JUMPDEST JUMPDEST PUSH1 0x40 MLOAD SWAP1 DUP1 DUP3 MSTORE DUP1 PUSH1 0x1F ADD PUSH1 0x1F NOT AND PUSH1 0x20 ADD DUP3 ADD PUSH1 0x40 MSTORE DUP1 ISZERO PUSH2 0x297B JUMPI DUP2 PUSH1 0x20 ADD PUSH1 0x1 DUP3 MUL DUP1 CALLDATASIZE DUP4 CALLDATACOPY DUP1 DUP3 ADD SWAP2 POP POP SWAP1 POP JUMPDEST POP SWAP1 POP JUMPDEST PUSH1 0x0 DUP6 EQ PUSH2 0x2A08 JUMPI PUSH1 0x1 DUP3 PUSH2 0x2994 SWAP2 SWAP1 PUSH2 0x46DA JUMP JUMPDEST SWAP2 POP PUSH1 0xA DUP6 PUSH2 0x29A3 SWAP2 SWAP1 PUSH2 0x4800 JUMP JUMPDEST PUSH1 0x30 PUSH2 0x29AF SWAP2 SWAP1 PUSH2 0x3FB5 JUMP JUMPDEST PUSH1 0xF8 SHL DUP2 DUP4 DUP2 MLOAD DUP2 LT PUSH2 0x29C5 JUMPI PUSH2 0x29C4 PUSH2 0x40AE JUMP JUMPDEST JUMPDEST PUSH1 0x20 ADD ADD SWAP1 PUSH31 0xFFFFFFFFFFFFFFFFFFFFFFFFFFFFFFFFFFFFFFFFFFFFFFFFFFFFFFFFFFFFFF NOT AND SWAP1 DUP2 PUSH1 0x0 BYTE SWAP1 MSTORE8 POP PUSH1 0xA DUP6 PUSH2 0x2A01 SWAP2 SWAP1 PUSH2 0x47CF JUMP JUMPDEST SWAP5 POP PUSH2 0x297F JUMP JUMPDEST DUP1 SWAP4 POP POP POP POP JUMPDEST SWAP2 SWAP1 POP JUMP JUMPDEST PUSH1 0x0 PUSH32 0x1FFC9A700000000000000000000000000000000000000000000000000000000 PUSH28 0xFFFFFFFFFFFFFFFFFFFFFFFFFFFFFFFFFFFFFFFFFFFFFFFFFFFFFFFF NOT AND DUP3 PUSH28 0xFFFFFFFFFFFFFFFFFFFFFFFFFFFFFFFFFFFFFFFFFFFFFFFFFFFFFFFF NOT AND EQ SWAP1 POP SWAP2 SWAP1 POP JUMP JUMPDEST PUSH2 0x2A89 DUP4 DUP4 DUP4 PUSH2 0x2193 JUMP JUMPDEST PUSH1 0x0 PUSH20 0xFFFFFFFFFFFFFFFFFFFFFFFFFFFFFFFFFFFFFFFF AND DUP4 PUSH20 0xFFFFFFFFFFFFFFFFFFFFFFFFFFFFFFFFFFFFFFFF AND EQ ISZERO PUSH2 0x2ACC JUMPI PUSH2 0x2AC7 DUP2 PUSH2 0x2D84 JUMP JUMPDEST PUSH2 0x2B0B JUMP JUMPDEST DUP2 PUSH20 0xFFFFFFFFFFFFFFFFFFFFFFFFFFFFFFFFFFFFFFFF AND DUP4 PUSH20 0xFFFFFFFFFFFFFFFFFFFFFFFFFFFFFFFFFFFFFFFF AND EQ PUSH2 0x2B0A JUMPI PUSH2 0x2B09 DUP4 DUP3 PUSH2 0x2DCD JUMP JUMPDEST JUMPDEST JUMPDEST PUSH1 0x0 PUSH20 0xFFFFFFFFFFFFFFFFFFFFFFFFFFFFFFFFFFFFFFFF AND DUP3 PUSH20 0xFFFFFFFFFFFFFFFFFFFFFFFFFFFFFFFFFFFFFFFF AND EQ ISZERO PUSH2 0x2B4E JUMPI PUSH2 0x2B49 DUP2 PUSH2 0x2F3A JUMP JUMPDEST PUSH2 0x2B8D JUMP JUMPDEST DUP3 PUSH20 0xFFFFFFFFFFFFFFFFFFFFFFFFFFFFFFFFFFFFFFFF AND DUP3 PUSH20 0xFFFFFFFFFFFFFFFFFFFFFFFFFFFFFFFFFFFFFFFF AND EQ PUSH2 0x2B8C JUMPI PUSH2 0x2B8B DUP3 DUP3 PUSH2 0x300B JUMP JUMPDEST JUMPDEST JUMPDEST POP POP POP JUMP JUMPDEST PUSH2 0x2B9C DUP4 DUP4 PUSH2 0x308A JUMP JUMPDEST PUSH2 0x2BA9 PUSH1 0x0 DUP5 DUP5 DUP5 PUSH2 0x2BED JUMP JUMPDEST PUSH2 0x2BE8 JUMPI PUSH1 0x40 MLOAD PUSH32 0x8C379A000000000000000000000000000000000000000000000000000000000 DUP2 MSTORE PUSH1 0x4 ADD PUSH2 0x2BDF SWAP1 PUSH2 0x4780 JUMP JUMPDEST PUSH1 0x40 MLOAD DUP1 SWAP2 SUB SWAP1 REVERT JUMPDEST POP POP POP JUMP JUMPDEST PUSH1 0x0 PUSH2 0x2C0E DUP5 PUSH20 0xFFFFFFFFFFFFFFFFFFFFFFFFFFFFFFFFFFFFFFFF AND PUSH2 0x2180 JUMP JUMPDEST ISZERO PUSH2 0x2D77 JUMPI DUP4 PUSH20 0xFFFFFFFFFFFFFFFFFFFFFFFFFFFFFFFFFFFFFFFF AND PUSH4 0x150B7A02 PUSH2 0x2C37 PUSH2 0x227A JUMP JUMPDEST DUP8 DUP7 DUP7 PUSH1 0x40 MLOAD DUP6 PUSH4 0xFFFFFFFF AND PUSH1 0xE0 SHL DUP2 MSTORE PUSH1 0x4 ADD PUSH2 0x2C59 SWAP5 SWAP4 SWAP3 SWAP2 SWAP1 PUSH2 0x4886 JUMP JUMPDEST PUSH1 0x20 PUSH1 0x40 MLOAD DUP1 DUP4 SUB DUP2 PUSH1 0x0 DUP8 DUP1 EXTCODESIZE ISZERO DUP1 ISZERO PUSH2 0x2C73 JUMPI PUSH1 0x0 DUP1 REVERT JUMPDEST POP GAS CALL SWAP3 POP POP POP DUP1 ISZERO PUSH2 0x2CA4 JUMPI POP PUSH1 0x40 MLOAD RETURNDATASIZE PUSH1 0x1F NOT PUSH1 0x1F DUP3 ADD AND DUP3 ADD DUP1 PUSH1 0x40 MSTORE POP DUP2 ADD SWAP1 PUSH2 0x2CA1 SWAP2 SWAP1 PUSH2 0x48E7 JUMP JUMPDEST PUSH1 0x1 JUMPDEST PUSH2 0x2D27 JUMPI RETURNDATASIZE DUP1 PUSH1 0x0 DUP2 EQ PUSH2 0x2CD4 JUMPI PUSH1 0x40 MLOAD SWAP2 POP PUSH1 0x1F NOT PUSH1 0x3F RETURNDATASIZE ADD AND DUP3 ADD PUSH1 0x40 MSTORE RETURNDATASIZE DUP3 MSTORE RETURNDATASIZE PUSH1 0x0 PUSH1 0x20 DUP5 ADD RETURNDATACOPY PUSH2 0x2CD9 JUMP JUMPDEST PUSH1 0x60 SWAP2 POP JUMPDEST POP PUSH1 0x0 DUP2 MLOAD EQ ISZERO PUSH2 0x2D1F JUMPI PUSH1 0x40 MLOAD PUSH32 0x8C379A000000000000000000000000000000000000000000000000000000000 DUP2 MSTORE PUSH1 0x4 ADD PUSH2 0x2D16 SWAP1 PUSH2 0x4780 JUMP JUMPDEST PUSH1 0x40 MLOAD DUP1 SWAP2 SUB SWAP1 REVERT JUMPDEST DUP1 MLOAD DUP2 PUSH1 0x20 ADD REVERT JUMPDEST PUSH4 0x150B7A02 PUSH1 0xE0 SHL PUSH28 0xFFFFFFFFFFFFFFFFFFFFFFFFFFFFFFFFFFFFFFFFFFFFFFFFFFFFFFFF NOT AND DUP2 PUSH28 0xFFFFFFFFFFFFFFFFFFFFFFFFFFFFFFFFFFFFFFFFFFFFFFFFFFFFFFFF NOT AND EQ SWAP2 POP POP PUSH2 0x2D7C JUMP JUMPDEST PUSH1 0x1 SWAP1 POP JUMPDEST SWAP5 SWAP4 POP POP POP POP JUMP JUMPDEST PUSH1 0x8 DUP1 SLOAD SWAP1 POP PUSH1 0x9 PUSH1 0x0 DUP4 DUP2 MSTORE PUSH1 0x20 ADD SWAP1 DUP2 MSTORE PUSH1 0x20 ADD PUSH1 0x0 KECCAK256 DUP2 SWAP1 SSTORE POP PUSH1 0x8 DUP2 SWAP1 DUP1 PUSH1 0x1 DUP2 SLOAD ADD DUP1 DUP3 SSTORE DUP1 SWAP2 POP POP PUSH1 0x1 SWAP1 SUB SWAP1 PUSH1 0x0 MSTORE PUSH1 0x20 PUSH1 0x0 KECCAK256 ADD PUSH1 0x0 SWAP1 SWAP2 SWAP1 SWAP2 SWAP1 SWAP2 POP SSTORE POP JUMP JUMPDEST PUSH1 0x0 PUSH1 0x1 PUSH2 0x2DDA DUP5 PUSH2 0x1767 JUMP JUMPDEST PUSH2 0x2DE4 SWAP2 SWAP1 PUSH2 0x46DA JUMP JUMPDEST SWAP1 POP PUSH1 0x0 PUSH1 0x7 PUSH1 0x0 DUP5 DUP2 MSTORE PUSH1 0x20 ADD SWAP1 DUP2 MSTORE PUSH1 0x20 ADD PUSH1 0x0 KECCAK256 SLOAD SWAP1 POP DUP2 DUP2 EQ PUSH2 0x2EC9 JUMPI PUSH1 0x0 PUSH1 0x6 PUSH1 0x0 DUP7 PUSH20 0xFFFFFFFFFFFFFFFFFFFFFFFFFFFFFFFFFFFFFFFF AND PUSH20 0xFFFFFFFFFFFFFFFFFFFFFFFFFFFFFFFFFFFFFFFF AND DUP2 MSTORE PUSH1 0x20 ADD SWAP1 DUP2 MSTORE PUSH1 0x20 ADD PUSH1 0x0 KECCAK256 PUSH1 0x0 DUP5 DUP2 MSTORE PUSH1 0x20 ADD SWAP1 DUP2 MSTORE PUSH1 0x20 ADD PUSH1 0x0 KECCAK256 SLOAD SWAP1 POP DUP1 PUSH1 0x6 PUSH1 0x0 DUP8 PUSH20 0xFFFFFFFFFFFFFFFFFFFFFFFFFFFFFFFFFFFFFFFF AND PUSH20 0xFFFFFFFFFFFFFFFFFFFFFFFFFFFFFFFFFFFFFFFF AND DUP2 MSTORE PUSH1 0x20 ADD SWAP1 DUP2 MSTORE PUSH1 0x20 ADD PUSH1 0x0 KECCAK256 PUSH1 0x0 DUP5 DUP2 MSTORE PUSH1 0x20 ADD SWAP1 DUP2 MSTORE PUSH1 0x20 ADD PUSH1 0x0 KECCAK256 DUP2 SWAP1 SSTORE POP DUP2 PUSH1 0x7 PUSH1 0x0 DUP4 DUP2 MSTORE PUSH1 0x20 ADD SWAP1 DUP2 MSTORE PUSH1 0x20 ADD PUSH1 0x0 KECCAK256 DUP2 SWAP1 SSTORE POP POP JUMPDEST PUSH1 0x7 PUSH1 0x0 DUP5 DUP2 MSTORE PUSH1 0x20 ADD SWAP1 DUP2 MSTORE PUSH1 0x20 ADD PUSH1 0x0 KECCAK256 PUSH1 0x0 SWAP1 SSTORE PUSH1 0x6 PUSH1 0x0 DUP6 PUSH20 0xFFFFFFFFFFFFFFFFFFFFFFFFFFFFFFFFFFFFFFFF AND PUSH20 0xFFFFFFFFFFFFFFFFFFFFFFFFFFFFFFFFFFFFFFFF AND DUP2 MSTORE PUSH1 0x20 ADD SWAP1 DUP2 MSTORE PUSH1 0x20 ADD PUSH1 0x0 KECCAK256 PUSH1 0x0 DUP4 DUP2 MSTORE PUSH1 0x20 ADD SWAP1 DUP2 MSTORE PUSH1 0x20 ADD PUSH1 0x0 KECCAK256 PUSH1 0x0 SWAP1 SSTORE POP POP POP POP JUMP JUMPDEST PUSH1 0x0 PUSH1 0x1 PUSH1 0x8 DUP1 SLOAD SWAP1 POP PUSH2 0x2F4E SWAP2 SWAP1 PUSH2 0x46DA JUMP JUMPDEST SWAP1 POP PUSH1 0x0 PUSH1 0x9 PUSH1 0x0 DUP5 DUP2 MSTORE PUSH1 0x20 ADD SWAP1 DUP2 MSTORE PUSH1 0x20 ADD PUSH1 0x0 KECCAK256 SLOAD SWAP1 POP PUSH1 0x0 PUSH1 0x8 DUP4 DUP2 SLOAD DUP2 LT PUSH2 0x2F7E JUMPI PUSH2 0x2F7D PUSH2 0x40AE JUMP JUMPDEST JUMPDEST SWAP1 PUSH1 0x0 MSTORE PUSH1 0x20 PUSH1 0x0 KECCAK256 ADD SLOAD SWAP1 POP DUP1 PUSH1 0x8 DUP4 DUP2 SLOAD DUP2 LT PUSH2 0x2FA0 JUMPI PUSH2 0x2F9F PUSH2 0x40AE JUMP JUMPDEST JUMPDEST SWAP1 PUSH1 0x0 MSTORE PUSH1 0x20 PUSH1 0x0 KECCAK256 ADD DUP2 SWAP1 SSTORE POP DUP2 PUSH1 0x9 PUSH1 0x0 DUP4 DUP2 MSTORE PUSH1 0x20 ADD SWAP1 DUP2 MSTORE PUSH1 0x20 ADD PUSH1 0x0 KECCAK256 DUP2 SWAP1 SSTORE POP PUSH1 0x9 PUSH1 0x0 DUP6 DUP2 MSTORE PUSH1 0x20 ADD SWAP1 DUP2 MSTORE PUSH1 0x20 ADD PUSH1 0x0 KECCAK256 PUSH1 0x0 SWAP1 SSTORE PUSH1 0x8 DUP1 SLOAD DUP1 PUSH2 0x2FEF JUMPI PUSH2 0x2FEE PUSH2 0x4914 JUMP JUMPDEST JUMPDEST PUSH1 0x1 SWAP1 SUB DUP2 DUP2 SWAP1 PUSH1 0x0 MSTORE PUSH1 0x20 PUSH1 0x0 KECCAK256 ADD PUSH1 0x0 SWAP1 SSTORE SWAP1 SSTORE POP POP POP POP JUMP JUMPDEST PUSH1 0x0 PUSH2 0x3016 DUP4 PUSH2 0x1767 JUMP JUMPDEST SWAP1 POP DUP2 PUSH1 0x6 PUSH1 0x0 DUP6 PUSH20 0xFFFFFFFFFFFFFFFFFFFFFFFFFFFFFFFFFFFFFFFF AND PUSH20 0xFFFFFFFFFFFFFFFFFFFFFFFFFFFFFFFFFFFFFFFF AND DUP2 MSTORE PUSH1 0x20 ADD SWAP1 DUP2 MSTORE PUSH1 0x20 ADD PUSH1 0x0 KECCAK256 PUSH1 0x0 DUP4 DUP2 MSTORE PUSH1 0x20 ADD SWAP1 DUP2 MSTORE PUSH1 0x20 ADD PUSH1 0x0 KECCAK256 DUP2 SWAP1 SSTORE POP DUP1 PUSH1 0x7 PUSH1 0x0 DUP5 DUP2 MSTORE PUSH1 0x20 ADD SWAP1 DUP2 MSTORE PUSH1 0x20 ADD PUSH1 0x0 KECCAK256 DUP2 SWAP1 SSTORE POP POP POP POP JUMP JUMPDEST PUSH1 0x0 PUSH20 0xFFFFFFFFFFFFFFFFFFFFFFFFFFFFFFFFFFFFFFFF AND DUP3 PUSH20 0xFFFFFFFFFFFFFFFFFFFFFFFFFFFFFFFFFFFFFFFF AND EQ ISZERO PUSH2 0x30FA JUMPI PUSH1 0x40 MLOAD PUSH32 0x8C379A000000000000000000000000000000000000000000000000000000000 DUP2 MSTORE PUSH1 0x4 ADD PUSH2 0x30F1 SWAP1 PUSH2 0x498F JUMP JUMPDEST PUSH1 0x40 MLOAD DUP1 SWAP2 SUB SWAP1 REVERT JUMPDEST PUSH2 0x3103 DUP2 PUSH2 0x2282 JUMP JUMPDEST ISZERO PUSH2 0x3143 JUMPI PUSH1 0x40 MLOAD PUSH32 0x8C379A000000000000000000000000000000000000000000000000000000000 DUP2 MSTORE PUSH1 0x4 ADD PUSH2 0x313A SWAP1 PUSH2 0x49FB JUMP JUMPDEST PUSH1 0x40 MLOAD DUP1 SWAP2 SUB SWAP1 REVERT JUMPDEST PUSH2 0x314F PUSH1 0x0 DUP4 DUP4 PUSH2 0x2A7E JUMP JUMPDEST PUSH1 0x1 PUSH1 0x3 PUSH1 0x0 DUP5 PUSH20 0xFFFFFFFFFFFFFFFFFFFFFFFFFFFFFFFFFFFFFFFF AND PUSH20 0xFFFFFFFFFFFFFFFFFFFFFFFFFFFFFFFFFFFFFFFF AND DUP2 MSTORE PUSH1 0x20 ADD SWAP1 DUP2 MSTORE PUSH1 0x20 ADD PUSH1 0x0 KECCAK256 PUSH1 0x0 DUP3 DUP3 SLOAD PUSH2 0x319F SWAP2 SWAP1 PUSH2 0x3FB5 JUMP JUMPDEST SWAP3 POP POP DUP2 SWAP1 SSTORE POP DUP2 PUSH1 0x2 PUSH1 0x0 DUP4 DUP2 MSTORE PUSH1 0x20 ADD SWAP1 DUP2 MSTORE PUSH1 0x20 ADD PUSH1 0x0 KECCAK256 PUSH1 0x0 PUSH2 0x100 EXP DUP2 SLOAD DUP2 PUSH20 0xFFFFFFFFFFFFFFFFFFFFFFFFFFFFFFFFFFFFFFFF MUL NOT AND SWAP1 DUP4 PUSH20 0xFFFFFFFFFFFFFFFFFFFFFFFFFFFFFFFFFFFFFFFF AND MUL OR SWAP1 SSTORE POP DUP1 DUP3 PUSH20 0xFFFFFFFFFFFFFFFFFFFFFFFFFFFFFFFFFFFFFFFF AND PUSH1 0x0 PUSH20 0xFFFFFFFFFFFFFFFFFFFFFFFFFFFFFFFFFFFFFFFF AND PUSH32 0xDDF252AD1BE2C89B69C2B068FC378DAA952BA7F163C4A11628F55A4DF523B3EF PUSH1 0x40 MLOAD PUSH1 0x40 MLOAD DUP1 SWAP2 SUB SWAP1 LOG4 POP POP JUMP JUMPDEST DUP3 DUP1 SLOAD PUSH2 0x3264 SWAP1 PUSH2 0x3C34 JUMP JUMPDEST SWAP1 PUSH1 0x0 MSTORE PUSH1 0x20 PUSH1 0x0 KECCAK256 SWAP1 PUSH1 0x1F ADD PUSH1 0x20 SWAP1 DIV DUP2 ADD SWAP3 DUP3 PUSH2 0x3286 JUMPI PUSH1 0x0 DUP6 SSTORE PUSH2 0x32CD JUMP JUMPDEST DUP3 PUSH1 0x1F LT PUSH2 0x329F JUMPI DUP1 MLOAD PUSH1 0xFF NOT AND DUP4 DUP1 ADD OR DUP6 SSTORE PUSH2 0x32CD JUMP JUMPDEST DUP3 DUP1 ADD PUSH1 0x1 ADD DUP6 SSTORE DUP3 ISZERO PUSH2 0x32CD JUMPI SWAP2 DUP3 ADD JUMPDEST DUP3 DUP2 GT ISZERO PUSH2 0x32CC JUMPI DUP3 MLOAD DUP3 SSTORE SWAP2 PUSH1 0x20 ADD SWAP2 SWAP1 PUSH1 0x1 ADD SWAP1 PUSH2 0x32B1 JUMP JUMPDEST JUMPDEST POP SWAP1 POP PUSH2 0x32DA SWAP2 SWAP1 PUSH2 0x32DE JUMP JUMPDEST POP SWAP1 JUMP JUMPDEST JUMPDEST DUP1 DUP3 GT ISZERO PUSH2 0x32F7 JUMPI PUSH1 0x0 DUP2 PUSH1 0x0 SWAP1 SSTORE POP PUSH1 0x1 ADD PUSH2 0x32DF JUMP JUMPDEST POP SWAP1 JUMP JUMPDEST PUSH1 0x0 PUSH1 0x40 MLOAD SWAP1 POP SWAP1 JUMP JUMPDEST PUSH1 0x0 DUP1 REVERT JUMPDEST PUSH1 0x0 DUP1 REVERT JUMPDEST PUSH1 0x0 PUSH32 0xFFFFFFFF00000000000000000000000000000000000000000000000000000000 DUP3 AND SWAP1 POP SWAP2 SWAP1 POP JUMP JUMPDEST PUSH2 0x3344 DUP2 PUSH2 0x330F JUMP JUMPDEST DUP2 EQ PUSH2 0x334F JUMPI PUSH1 0x0 DUP1 REVERT JUMPDEST POP JUMP JUMPDEST PUSH1 0x0 DUP2 CALLDATALOAD SWAP1 POP PUSH2 0x3361 DUP2 PUSH2 0x333B JUMP JUMPDEST SWAP3 SWAP2 POP POP JUMP JUMPDEST PUSH1 0x0 PUSH1 0x20 DUP3 DUP5 SUB SLT ISZERO PUSH2 0x337D JUMPI PUSH2 0x337C PUSH2 0x3305 JUMP JUMPDEST JUMPDEST PUSH1 0x0 PUSH2 0x338B DUP5 DUP3 DUP6 ADD PUSH2 0x3352 JUMP JUMPDEST SWAP2 POP POP SWAP3 SWAP2 POP POP JUMP JUMPDEST PUSH1 0x0 DUP2 ISZERO ISZERO SWAP1 POP SWAP2 SWAP1 POP JUMP JUMPDEST PUSH2 0x33A9 DUP2 PUSH2 0x3394 JUMP JUMPDEST DUP3 MSTORE POP POP JUMP JUMPDEST PUSH1 0x0 PUSH1 0x20 DUP3 ADD SWAP1 POP PUSH2 0x33C4 PUSH1 0x0 DUP4 ADD DUP5 PUSH2 0x33A0 JUMP JUMPDEST SWAP3 SWAP2 POP POP JUMP JUMPDEST PUSH2 0x33D3 DUP2 PUSH2 0x3394 JUMP JUMPDEST DUP2 EQ PUSH2 0x33DE JUMPI PUSH1 0x0 DUP1 REVERT JUMPDEST POP JUMP JUMPDEST PUSH1 0x0 DUP2 CALLDATALOAD SWAP1 POP PUSH2 0x33F0 DUP2 PUSH2 0x33CA JUMP JUMPDEST SWAP3 SWAP2 POP POP JUMP JUMPDEST PUSH1 0x0 PUSH1 0x20 DUP3 DUP5 SUB SLT ISZERO PUSH2 0x340C JUMPI PUSH2 0x340B PUSH2 0x3305 JUMP JUMPDEST JUMPDEST PUSH1 0x0 PUSH2 0x341A DUP5 DUP3 DUP6 ADD PUSH2 0x33E1 JUMP JUMPDEST SWAP2 POP POP SWAP3 SWAP2 POP POP JUMP JUMPDEST PUSH1 0x0 DUP2 MLOAD SWAP1 POP SWAP2 SWAP1 POP JUMP JUMPDEST PUSH1 0x0 DUP3 DUP3 MSTORE PUSH1 0x20 DUP3 ADD SWAP1 POP SWAP3 SWAP2 POP POP JUMP JUMPDEST PUSH1 0x0 JUMPDEST DUP4 DUP2 LT ISZERO PUSH2 0x345D JUMPI DUP1 DUP3 ADD MLOAD DUP2 DUP5 ADD MSTORE PUSH1 0x20 DUP2 ADD SWAP1 POP PUSH2 0x3442 JUMP JUMPDEST DUP4 DUP2 GT ISZERO PUSH2 0x346C JUMPI PUSH1 0x0 DUP5 DUP5 ADD MSTORE JUMPDEST POP POP POP POP JUMP JUMPDEST PUSH1 0x0 PUSH1 0x1F NOT PUSH1 0x1F DUP4 ADD AND SWAP1 POP SWAP2 SWAP1 POP JUMP JUMPDEST PUSH1 0x0 PUSH2 0x348E DUP3 PUSH2 0x3423 JUMP JUMPDEST PUSH2 0x3498 DUP2 DUP6 PUSH2 0x342E JUMP JUMPDEST SWAP4 POP PUSH2 0x34A8 DUP2 DUP6 PUSH1 0x20 DUP7 ADD PUSH2 0x343F JUMP JUMPDEST PUSH2 0x34B1 DUP2 PUSH2 0x3472 JUMP JUMPDEST DUP5 ADD SWAP2 POP POP SWAP3 SWAP2 POP POP JUMP JUMPDEST PUSH1 0x0 PUSH1 0x20 DUP3 ADD SWAP1 POP DUP2 DUP2 SUB PUSH1 0x0 DUP4 ADD MSTORE PUSH2 0x34D6 DUP2 DUP5 PUSH2 0x3483 JUMP JUMPDEST SWAP1 POP SWAP3 SWAP2 POP POP JUMP JUMPDEST PUSH1 0x0 DUP2 SWAP1 POP SWAP2 SWAP1 POP JUMP JUMPDEST PUSH2 0x34F1 DUP2 PUSH2 0x34DE JUMP JUMPDEST DUP2 EQ PUSH2 0x34FC JUMPI PUSH1 0x0 DUP1 REVERT JUMPDEST POP JUMP JUMPDEST PUSH1 0x0 DUP2 CALLDATALOAD SWAP1 POP PUSH2 0x350E DUP2 PUSH2 0x34E8 JUMP JUMPDEST SWAP3 SWAP2 POP POP JUMP JUMPDEST PUSH1 0x0 PUSH1 0x20 DUP3 DUP5 SUB SLT ISZERO PUSH2 0x352A JUMPI PUSH2 0x3529 PUSH2 0x3305 JUMP JUMPDEST JUMPDEST PUSH1 0x0 PUSH2 0x3538 DUP5 DUP3 DUP6 ADD PUSH2 0x34FF JUMP JUMPDEST SWAP2 POP POP SWAP3 SWAP2 POP POP JUMP JUMPDEST PUSH1 0x0 PUSH20 0xFFFFFFFFFFFFFFFFFFFFFFFFFFFFFFFFFFFFFFFF DUP3 AND SWAP1 POP SWAP2 SWAP1 POP JUMP JUMPDEST PUSH1 0x0 PUSH2 0x356C DUP3 PUSH2 0x3541 JUMP JUMPDEST SWAP1 POP SWAP2 SWAP1 POP JUMP JUMPDEST PUSH2 0x357C DUP2 PUSH2 0x3561 JUMP JUMPDEST DUP3 MSTORE POP POP JUMP JUMPDEST PUSH1 0x0 PUSH1 0x20 DUP3 ADD SWAP1 POP PUSH2 0x3597 PUSH1 0x0 DUP4 ADD DUP5 PUSH2 0x3573 JUMP JUMPDEST SWAP3 SWAP2 POP POP JUMP JUMPDEST PUSH2 0x35A6 DUP2 PUSH2 0x3561 JUMP JUMPDEST DUP2 EQ PUSH2 0x35B1 JUMPI PUSH1 0x0 DUP1 REVERT JUMPDEST POP JUMP JUMPDEST PUSH1 0x0 DUP2 CALLDATALOAD SWAP1 POP PUSH2 0x35C3 DUP2 PUSH2 0x359D JUMP JUMPDEST SWAP3 SWAP2 POP POP JUMP JUMPDEST PUSH1 0x0 DUP1 PUSH1 0x40 DUP4 DUP6 SUB SLT ISZERO PUSH2 0x35E0 JUMPI PUSH2 0x35DF PUSH2 0x3305 JUMP JUMPDEST JUMPDEST PUSH1 0x0 PUSH2 0x35EE DUP6 DUP3 DUP7 ADD PUSH2 0x35B4 JUMP JUMPDEST SWAP3 POP POP PUSH1 0x20 PUSH2 0x35FF DUP6 DUP3 DUP7 ADD PUSH2 0x34FF JUMP JUMPDEST SWAP2 POP POP SWAP3 POP SWAP3 SWAP1 POP JUMP JUMPDEST PUSH2 0x3612 DUP2 PUSH2 0x34DE JUMP JUMPDEST DUP3 MSTORE POP POP JUMP JUMPDEST PUSH1 0x0 PUSH1 0x20 DUP3 ADD SWAP1 POP PUSH2 0x362D PUSH1 0x0 DUP4 ADD DUP5 PUSH2 0x3609 JUMP JUMPDEST SWAP3 SWAP2 POP POP JUMP JUMPDEST PUSH1 0x0 DUP1 PUSH1 0x0 PUSH1 0x60 DUP5 DUP7 SUB SLT ISZERO PUSH2 0x364C JUMPI PUSH2 0x364B PUSH2 0x3305 JUMP JUMPDEST JUMPDEST PUSH1 0x0 PUSH2 0x365A DUP7 DUP3 DUP8 ADD PUSH2 0x35B4 JUMP JUMPDEST SWAP4 POP POP PUSH1 0x20 PUSH2 0x366B DUP7 DUP3 DUP8 ADD PUSH2 0x35B4 JUMP JUMPDEST SWAP3 POP POP PUSH1 0x40 PUSH2 0x367C DUP7 DUP3 DUP8 ADD PUSH2 0x34FF JUMP JUMPDEST SWAP2 POP POP SWAP3 POP SWAP3 POP SWAP3 JUMP JUMPDEST PUSH1 0x0 PUSH1 0x20 DUP3 DUP5 SUB SLT ISZERO PUSH2 0x369C JUMPI PUSH2 0x369B PUSH2 0x3305 JUMP JUMPDEST JUMPDEST PUSH1 0x0 PUSH2 0x36AA DUP5 DUP3 DUP6 ADD PUSH2 0x35B4 JUMP JUMPDEST SWAP2 POP POP SWAP3 SWAP2 POP POP JUMP JUMPDEST PUSH1 0x0 DUP2 MLOAD SWAP1 POP SWAP2 SWAP1 POP JUMP JUMPDEST PUSH1 0x0 DUP3 DUP3 MSTORE PUSH1 0x20 DUP3 ADD SWAP1 POP SWAP3 SWAP2 POP POP JUMP JUMPDEST PUSH1 0x0 DUP2 SWAP1 POP PUSH1 0x20 DUP3 ADD SWAP1 POP SWAP2 SWAP1 POP JUMP JUMPDEST PUSH2 0x36E8 DUP2 PUSH2 0x34DE JUMP JUMPDEST DUP3 MSTORE POP POP JUMP JUMPDEST PUSH1 0x0 PUSH2 0x36FA DUP4 DUP4 PUSH2 0x36DF JUMP JUMPDEST PUSH1 0x20 DUP4 ADD SWAP1 POP SWAP3 SWAP2 POP POP JUMP JUMPDEST PUSH1 0x0 PUSH1 0x20 DUP3 ADD SWAP1 POP SWAP2 SWAP1 POP JUMP JUMPDEST PUSH1 0x0 PUSH2 0x371E DUP3 PUSH2 0x36B3 JUMP JUMPDEST PUSH2 0x3728 DUP2 DUP6 PUSH2 0x36BE JUMP JUMPDEST SWAP4 POP PUSH2 0x3733 DUP4 PUSH2 0x36CF JUMP JUMPDEST DUP1 PUSH1 0x0 JUMPDEST DUP4 DUP2 LT ISZERO PUSH2 0x3764 JUMPI DUP2 MLOAD PUSH2 0x374B DUP9 DUP3 PUSH2 0x36EE JUMP JUMPDEST SWAP8 POP PUSH2 0x3756 DUP4 PUSH2 0x3706 JUMP JUMPDEST SWAP3 POP POP PUSH1 0x1 DUP2 ADD SWAP1 POP PUSH2 0x3737 JUMP JUMPDEST POP DUP6 SWAP4 POP POP POP POP SWAP3 SWAP2 POP POP JUMP JUMPDEST PUSH1 0x0 PUSH1 0x20 DUP3 ADD SWAP1 POP DUP2 DUP2 SUB PUSH1 0x0 DUP4 ADD MSTORE PUSH2 0x378B DUP2 DUP5 PUSH2 0x3713 JUMP JUMPDEST SWAP1 POP SWAP3 SWAP2 POP POP JUMP JUMPDEST PUSH1 0x0 DUP1 REVERT JUMPDEST PUSH32 0x4E487B7100000000000000000000000000000000000000000000000000000000 PUSH1 0x0 MSTORE PUSH1 0x41 PUSH1 0x4 MSTORE PUSH1 0x24 PUSH1 0x0 REVERT JUMPDEST PUSH2 0x37D0 DUP3 PUSH2 0x3472 JUMP JUMPDEST DUP2 ADD DUP2 DUP2 LT PUSH8 0xFFFFFFFFFFFFFFFF DUP3 GT OR ISZERO PUSH2 0x37EF JUMPI PUSH2 0x37EE PUSH2 0x3798 JUMP JUMPDEST JUMPDEST DUP1 PUSH1 0x40 MSTORE POP POP POP JUMP JUMPDEST PUSH1 0x0 PUSH2 0x3802 PUSH2 0x32FB JUMP JUMPDEST SWAP1 POP PUSH2 0x380E DUP3 DUP3 PUSH2 0x37C7 JUMP JUMPDEST SWAP2 SWAP1 POP JUMP JUMPDEST PUSH1 0x0 PUSH8 0xFFFFFFFFFFFFFFFF DUP3 GT ISZERO PUSH2 0x382E JUMPI PUSH2 0x382D PUSH2 0x3798 JUMP JUMPDEST JUMPDEST PUSH1 0x20 DUP3 MUL SWAP1 POP SWAP2 SWAP1 POP JUMP JUMPDEST PUSH1 0x0 DUP1 REVERT JUMPDEST PUSH1 0x0 PUSH2 0x3851 PUSH2 0x384C DUP5 PUSH2 0x3813 JUMP JUMPDEST PUSH2 0x37F8 JUMP JUMPDEST SWAP1 POP DUP1 PUSH1 0x20 DUP5 MUL DUP4 ADD DUP6 DUP2 GT ISZERO PUSH2 0x386B JUMPI PUSH2 0x386A PUSH2 0x3839 JUMP JUMPDEST JUMPDEST DUP4 JUMPDEST DUP2 DUP2 LT ISZERO PUSH2 0x3894 JUMPI DUP1 PUSH2 0x3880 DUP9 DUP3 PUSH2 0x35B4 JUMP JUMPDEST DUP5 MSTORE PUSH1 0x20 DUP5 ADD SWAP4 POP POP PUSH1 0x20 DUP2 ADD SWAP1 POP PUSH2 0x386D JUMP JUMPDEST POP POP POP SWAP4 SWAP3 POP POP POP JUMP JUMPDEST PUSH1 0x0 DUP3 PUSH1 0x1F DUP4 ADD SLT PUSH2 0x38B3 JUMPI PUSH2 0x38B2 PUSH2 0x3793 JUMP JUMPDEST JUMPDEST PUSH1 0x64 PUSH2 0x38C0 DUP5 DUP3 DUP6 PUSH2 0x383E JUMP JUMPDEST SWAP2 POP POP SWAP3 SWAP2 POP POP JUMP JUMPDEST PUSH1 0x0 PUSH2 0xC80 DUP3 DUP5 SUB SLT ISZERO PUSH2 0x38E0 JUMPI PUSH2 0x38DF PUSH2 0x3305 JUMP JUMPDEST JUMPDEST PUSH1 0x0 PUSH2 0x38EE DUP5 DUP3 DUP6 ADD PUSH2 0x389E JUMP JUMPDEST SWAP2 POP POP SWAP3 SWAP2 POP POP JUMP JUMPDEST PUSH1 0x0 DUP1 REVERT JUMPDEST PUSH1 0x0 PUSH8 0xFFFFFFFFFFFFFFFF DUP3 GT ISZERO PUSH2 0x3917 JUMPI PUSH2 0x3916 PUSH2 0x3798 JUMP JUMPDEST JUMPDEST PUSH2 0x3920 DUP3 PUSH2 0x3472 JUMP JUMPDEST SWAP1 POP PUSH1 0x20 DUP2 ADD SWAP1 POP SWAP2 SWAP1 POP JUMP JUMPDEST DUP3 DUP2 DUP4 CALLDATACOPY PUSH1 0x0 DUP4 DUP4 ADD MSTORE POP POP POP JUMP JUMPDEST PUSH1 0x0 PUSH2 0x394F PUSH2 0x394A DUP5 PUSH2 0x38FC JUMP JUMPDEST PUSH2 0x37F8 JUMP JUMPDEST SWAP1 POP DUP3 DUP2 MSTORE PUSH1 0x20 DUP2 ADD DUP5 DUP5 DUP5 ADD GT ISZERO PUSH2 0x396B JUMPI PUSH2 0x396A PUSH2 0x38F7 JUMP JUMPDEST JUMPDEST PUSH2 0x3976 DUP5 DUP3 DUP6 PUSH2 0x392D JUMP JUMPDEST POP SWAP4 SWAP3 POP POP POP JUMP JUMPDEST PUSH1 0x0 DUP3 PUSH1 0x1F DUP4 ADD SLT PUSH2 0x3993 JUMPI PUSH2 0x3992 PUSH2 0x3793 JUMP JUMPDEST JUMPDEST DUP2 CALLDATALOAD PUSH2 0x39A3 DUP5 DUP3 PUSH1 0x20 DUP7 ADD PUSH2 0x393C JUMP JUMPDEST SWAP2 POP POP SWAP3 SWAP2 POP POP JUMP JUMPDEST PUSH1 0x0 PUSH1 0x20 DUP3 DUP5 SUB SLT ISZERO PUSH2 0x39C2 JUMPI PUSH2 0x39C1 PUSH2 0x3305 JUMP JUMPDEST JUMPDEST PUSH1 0x0 DUP3 ADD CALLDATALOAD PUSH8 0xFFFFFFFFFFFFFFFF DUP2 GT ISZERO PUSH2 0x39E0 JUMPI PUSH2 0x39DF PUSH2 0x330A JUMP JUMPDEST JUMPDEST PUSH2 0x39EC DUP5 DUP3 DUP6 ADD PUSH2 0x397E JUMP JUMPDEST SWAP2 POP POP SWAP3 SWAP2 POP POP JUMP JUMPDEST PUSH1 0x0 DUP1 PUSH1 0x40 DUP4 DUP6 SUB SLT ISZERO PUSH2 0x3A0C JUMPI PUSH2 0x3A0B PUSH2 0x3305 JUMP JUMPDEST JUMPDEST PUSH1 0x0 PUSH2 0x3A1A DUP6 DUP3 DUP7 ADD PUSH2 0x35B4 JUMP JUMPDEST SWAP3 POP POP PUSH1 0x20 PUSH2 0x3A2B DUP6 DUP3 DUP7 ADD PUSH2 0x33E1 JUMP JUMPDEST SWAP2 POP POP SWAP3 POP SWAP3 SWAP1 POP JUMP JUMPDEST PUSH1 0x0 PUSH8 0xFFFFFFFFFFFFFFFF DUP3 GT ISZERO PUSH2 0x3A50 JUMPI PUSH2 0x3A4F PUSH2 0x3798 JUMP JUMPDEST JUMPDEST PUSH2 0x3A59 DUP3 PUSH2 0x3472 JUMP JUMPDEST SWAP1 POP PUSH1 0x20 DUP2 ADD SWAP1 POP SWAP2 SWAP1 POP JUMP JUMPDEST PUSH1 0x0 PUSH2 0x3A79 PUSH2 0x3A74 DUP5 PUSH2 0x3A35 JUMP JUMPDEST PUSH2 0x37F8 JUMP JUMPDEST SWAP1 POP DUP3 DUP2 MSTORE PUSH1 0x20 DUP2 ADD DUP5 DUP5 DUP5 ADD GT ISZERO PUSH2 0x3A95 JUMPI PUSH2 0x3A94 PUSH2 0x38F7 JUMP JUMPDEST JUMPDEST PUSH2 0x3AA0 DUP5 DUP3 DUP6 PUSH2 0x392D JUMP JUMPDEST POP SWAP4 SWAP3 POP POP POP JUMP JUMPDEST PUSH1 0x0 DUP3 PUSH1 0x1F DUP4 ADD SLT PUSH2 0x3ABD JUMPI PUSH2 0x3ABC PUSH2 0x3793 JUMP JUMPDEST JUMPDEST DUP2 CALLDATALOAD PUSH2 0x3ACD DUP5 DUP3 PUSH1 0x20 DUP7 ADD PUSH2 0x3A66 JUMP JUMPDEST SWAP2 POP POP SWAP3 SWAP2 POP POP JUMP JUMPDEST PUSH1 0x0 DUP1 PUSH1 0x0 DUP1 PUSH1 0x80 DUP6 DUP8 SUB SLT ISZERO PUSH2 0x3AF0 JUMPI PUSH2 0x3AEF PUSH2 0x3305 JUMP JUMPDEST JUMPDEST PUSH1 0x0 PUSH2 0x3AFE DUP8 DUP3 DUP9 ADD PUSH2 0x35B4 JUMP JUMPDEST SWAP5 POP POP PUSH1 0x20 PUSH2 0x3B0F DUP8 DUP3 DUP9 ADD PUSH2 0x35B4 JUMP JUMPDEST SWAP4 POP POP PUSH1 0x40 PUSH2 0x3B20 DUP8 DUP3 DUP9 ADD PUSH2 0x34FF JUMP JUMPDEST SWAP3 POP POP PUSH1 0x60 DUP6 ADD CALLDATALOAD PUSH8 0xFFFFFFFFFFFFFFFF DUP2 GT ISZERO PUSH2 0x3B41 JUMPI PUSH2 0x3B40 PUSH2 0x330A JUMP JUMPDEST JUMPDEST PUSH2 0x3B4D DUP8 DUP3 DUP9 ADD PUSH2 0x3AA8 JUMP JUMPDEST SWAP2 POP POP SWAP3 SWAP6 SWAP2 SWAP5 POP SWAP3 POP JUMP JUMPDEST PUSH1 0x0 DUP1 PUSH1 0x40 DUP4 DUP6 SUB SLT ISZERO PUSH2 0x3B70 JUMPI PUSH2 0x3B6F PUSH2 0x3305 JUMP JUMPDEST JUMPDEST PUSH1 0x0 PUSH2 0x3B7E DUP6 DUP3 DUP7 ADD PUSH2 0x35B4 JUMP JUMPDEST SWAP3 POP POP PUSH1 0x20 PUSH2 0x3B8F DUP6 DUP3 DUP7 ADD PUSH2 0x35B4 JUMP JUMPDEST SWAP2 POP POP SWAP3 POP SWAP3 SWAP1 POP JUMP JUMPDEST PUSH32 0x4F776E61626C653A2063616C6C6572206973206E6F7420746865206F776E6572 PUSH1 0x0 DUP3 ADD MSTORE POP JUMP JUMPDEST PUSH1 0x0 PUSH2 0x3BCF PUSH1 0x20 DUP4 PUSH2 0x342E JUMP JUMPDEST SWAP2 POP PUSH2 0x3BDA DUP3 PUSH2 0x3B99 JUMP JUMPDEST PUSH1 0x20 DUP3 ADD SWAP1 POP SWAP2 SWAP1 POP JUMP JUMPDEST PUSH1 0x0 PUSH1 0x20 DUP3 ADD SWAP1 POP DUP2 DUP2 SUB PUSH1 0x0 DUP4 ADD MSTORE PUSH2 0x3BFE DUP2 PUSH2 0x3BC2 JUMP JUMPDEST SWAP1 POP SWAP2 SWAP1 POP JUMP JUMPDEST PUSH32 0x4E487B7100000000000000000000000000000000000000000000000000000000 PUSH1 0x0 MSTORE PUSH1 0x22 PUSH1 0x4 MSTORE PUSH1 0x24 PUSH1 0x0 REVERT JUMPDEST PUSH1 0x0 PUSH1 0x2 DUP3 DIV SWAP1 POP PUSH1 0x1 DUP3 AND DUP1 PUSH2 0x3C4C JUMPI PUSH1 0x7F DUP3 AND SWAP2 POP JUMPDEST PUSH1 0x20 DUP3 LT DUP2 EQ ISZERO PUSH2 0x3C60 JUMPI PUSH2 0x3C5F PUSH2 0x3C05 JUMP JUMPDEST JUMPDEST POP SWAP2 SWAP1 POP JUMP JUMPDEST PUSH32 0x4552433732313A20617070726F76656420717565727920666F72206E6F6E6578 PUSH1 0x0 DUP3 ADD MSTORE PUSH32 0x697374656E7420746F6B656E0000000000000000000000000000000000000000 PUSH1 0x20 DUP3 ADD MSTORE POP JUMP JUMPDEST PUSH1 0x0 PUSH2 0x3CC2 PUSH1 0x2C DUP4 PUSH2 0x342E JUMP JUMPDEST SWAP2 POP PUSH2 0x3CCD DUP3 PUSH2 0x3C66 JUMP JUMPDEST PUSH1 0x40 DUP3 ADD SWAP1 POP SWAP2 SWAP1 POP JUMP JUMPDEST PUSH1 0x0 PUSH1 0x20 DUP3 ADD SWAP1 POP DUP2 DUP2 SUB PUSH1 0x0 DUP4 ADD MSTORE PUSH2 0x3CF1 DUP2 PUSH2 0x3CB5 JUMP JUMPDEST SWAP1 POP SWAP2 SWAP1 POP JUMP JUMPDEST PUSH32 0x4552433732313A20617070726F76616C20746F2063757272656E74206F776E65 PUSH1 0x0 DUP3 ADD MSTORE PUSH32 0x7200000000000000000000000000000000000000000000000000000000000000 PUSH1 0x20 DUP3 ADD MSTORE POP JUMP JUMPDEST PUSH1 0x0 PUSH2 0x3D54 PUSH1 0x21 DUP4 PUSH2 0x342E JUMP JUMPDEST SWAP2 POP PUSH2 0x3D5F DUP3 PUSH2 0x3CF8 JUMP JUMPDEST PUSH1 0x40 DUP3 ADD SWAP1 POP SWAP2 SWAP1 POP JUMP JUMPDEST PUSH1 0x0 PUSH1 0x20 DUP3 ADD SWAP1 POP DUP2 DUP2 SUB PUSH1 0x0 DUP4 ADD MSTORE PUSH2 0x3D83 DUP2 PUSH2 0x3D47 JUMP JUMPDEST SWAP1 POP SWAP2 SWAP1 POP JUMP JUMPDEST PUSH32 0x4552433732313A20617070726F76652063616C6C6572206973206E6F74206F77 PUSH1 0x0 DUP3 ADD MSTORE PUSH32 0x6E6572206E6F7220617070726F76656420666F7220616C6C0000000000000000 PUSH1 0x20 DUP3 ADD MSTORE POP JUMP JUMPDEST PUSH1 0x0 PUSH2 0x3DE6 PUSH1 0x38 DUP4 PUSH2 0x342E JUMP JUMPDEST SWAP2 POP PUSH2 0x3DF1 DUP3 PUSH2 0x3D8A JUMP JUMPDEST PUSH1 0x40 DUP3 ADD SWAP1 POP SWAP2 SWAP1 POP JUMP JUMPDEST PUSH1 0x0 PUSH1 0x20 DUP3 ADD SWAP1 POP DUP2 DUP2 SUB PUSH1 0x0 DUP4 ADD MSTORE PUSH2 0x3E15 DUP2 PUSH2 0x3DD9 JUMP JUMPDEST SWAP1 POP SWAP2 SWAP1 POP JUMP JUMPDEST PUSH32 0x4552433732313A207472616E736665722063616C6C6572206973206E6F74206F PUSH1 0x0 DUP3 ADD MSTORE PUSH32 0x776E6572206E6F7220617070726F766564000000000000000000000000000000 PUSH1 0x20 DUP3 ADD MSTORE POP JUMP JUMPDEST PUSH1 0x0 PUSH2 0x3E78 PUSH1 0x31 DUP4 PUSH2 0x342E JUMP JUMPDEST SWAP2 POP PUSH2 0x3E83 DUP3 PUSH2 0x3E1C JUMP JUMPDEST PUSH1 0x40 DUP3 ADD SWAP1 POP SWAP2 SWAP1 POP JUMP JUMPDEST PUSH1 0x0 PUSH1 0x20 DUP3 ADD SWAP1 POP DUP2 DUP2 SUB PUSH1 0x0 DUP4 ADD MSTORE PUSH2 0x3EA7 DUP2 PUSH2 0x3E6B JUMP JUMPDEST SWAP1 POP SWAP2 SWAP1 POP JUMP JUMPDEST PUSH32 0x455243373231456E756D657261626C653A206F776E657220696E646578206F75 PUSH1 0x0 DUP3 ADD MSTORE PUSH32 0x74206F6620626F756E6473000000000000000000000000000000000000000000 PUSH1 0x20 DUP3 ADD MSTORE POP JUMP JUMPDEST PUSH1 0x0 PUSH2 0x3F0A PUSH1 0x2B DUP4 PUSH2 0x342E JUMP JUMPDEST SWAP2 POP PUSH2 0x3F15 DUP3 PUSH2 0x3EAE JUMP JUMPDEST PUSH1 0x40 DUP3 ADD SWAP1 POP SWAP2 SWAP1 POP JUMP JUMPDEST PUSH1 0x0 PUSH1 0x20 DUP3 ADD SWAP1 POP DUP2 DUP2 SUB PUSH1 0x0 DUP4 ADD MSTORE PUSH2 0x3F39 DUP2 PUSH2 0x3EFD JUMP JUMPDEST SWAP1 POP SWAP2 SWAP1 POP JUMP JUMPDEST PUSH1 0x0 DUP2 SWAP1 POP SWAP3 SWAP2 POP POP JUMP JUMPDEST POP JUMP JUMPDEST PUSH1 0x0 PUSH2 0x3F5B PUSH1 0x0 DUP4 PUSH2 0x3F40 JUMP JUMPDEST SWAP2 POP PUSH2 0x3F66 DUP3 PUSH2 0x3F4B JUMP JUMPDEST PUSH1 0x0 DUP3 ADD SWAP1 POP SWAP2 SWAP1 POP JUMP JUMPDEST PUSH1 0x0 PUSH2 0x3F7C DUP3 PUSH2 0x3F4E JUMP JUMPDEST SWAP2 POP DUP2 SWAP1 POP SWAP2 SWAP1 POP JUMP JUMPDEST PUSH32 0x4E487B7100000000000000000000000000000000000000000000000000000000 PUSH1 0x0 MSTORE PUSH1 0x11 PUSH1 0x4 MSTORE PUSH1 0x24 PUSH1 0x0 REVERT JUMPDEST PUSH1 0x0 PUSH2 0x3FC0 DUP3 PUSH2 0x34DE JUMP JUMPDEST SWAP2 POP PUSH2 0x3FCB DUP4 PUSH2 0x34DE JUMP JUMPDEST SWAP3 POP DUP3 PUSH32 0xFFFFFFFFFFFFFFFFFFFFFFFFFFFFFFFFFFFFFFFFFFFFFFFFFFFFFFFFFFFFFFFF SUB DUP3 GT ISZERO PUSH2 0x4000 JUMPI PUSH2 0x3FFF PUSH2 0x3F86 JUMP JUMPDEST JUMPDEST DUP3 DUP3 ADD SWAP1 POP SWAP3 SWAP2 POP POP JUMP JUMPDEST PUSH1 0x0 PUSH2 0x4016 DUP3 PUSH2 0x34DE JUMP JUMPDEST SWAP2 POP PUSH2 0x4021 DUP4 PUSH2 0x34DE JUMP JUMPDEST SWAP3 POP DUP2 PUSH32 0xFFFFFFFFFFFFFFFFFFFFFFFFFFFFFFFFFFFFFFFFFFFFFFFFFFFFFFFFFFFFFFFF DIV DUP4 GT DUP3 ISZERO ISZERO AND ISZERO PUSH2 0x405A JUMPI PUSH2 0x4059 PUSH2 0x3F86 JUMP JUMPDEST JUMPDEST DUP3 DUP3 MUL SWAP1 POP SWAP3 SWAP2 POP POP JUMP JUMPDEST PUSH1 0x0 PUSH2 0x4070 DUP3 PUSH2 0x34DE JUMP JUMPDEST SWAP2 POP PUSH32 0xFFFFFFFFFFFFFFFFFFFFFFFFFFFFFFFFFFFFFFFFFFFFFFFFFFFFFFFFFFFFFFFF DUP3 EQ ISZERO PUSH2 0x40A3 JUMPI PUSH2 0x40A2 PUSH2 0x3F86 JUMP JUMPDEST JUMPDEST PUSH1 0x1 DUP3 ADD SWAP1 POP SWAP2 SWAP1 POP JUMP JUMPDEST PUSH32 0x4E487B7100000000000000000000000000000000000000000000000000000000 PUSH1 0x0 MSTORE PUSH1 0x32 PUSH1 0x4 MSTORE PUSH1 0x24 PUSH1 0x0 REVERT JUMPDEST PUSH32 0x455243373231456E756D657261626C653A20676C6F62616C20696E646578206F PUSH1 0x0 DUP3 ADD MSTORE PUSH32 0x7574206F6620626F756E64730000000000000000000000000000000000000000 PUSH1 0x20 DUP3 ADD MSTORE POP JUMP JUMPDEST PUSH1 0x0 PUSH2 0x4139 PUSH1 0x2C DUP4 PUSH2 0x342E JUMP JUMPDEST SWAP2 POP PUSH2 0x4144 DUP3 PUSH2 0x40DD JUMP JUMPDEST PUSH1 0x40 DUP3 ADD SWAP1 POP SWAP2 SWAP1 POP JUMP JUMPDEST PUSH1 0x0 PUSH1 0x20 DUP3 ADD SWAP1 POP DUP2 DUP2 SUB PUSH1 0x0 DUP4 ADD MSTORE PUSH2 0x4168 DUP2 PUSH2 0x412C JUMP JUMPDEST SWAP1 POP SWAP2 SWAP1 POP JUMP JUMPDEST PUSH32 0x4552433732313A206F776E657220717565727920666F72206E6F6E6578697374 PUSH1 0x0 DUP3 ADD MSTORE PUSH32 0x656E7420746F6B656E0000000000000000000000000000000000000000000000 PUSH1 0x20 DUP3 ADD MSTORE POP JUMP JUMPDEST PUSH1 0x0 PUSH2 0x41CB PUSH1 0x29 DUP4 PUSH2 0x342E JUMP JUMPDEST SWAP2 POP PUSH2 0x41D6 DUP3 PUSH2 0x416F JUMP JUMPDEST PUSH1 0x40 DUP3 ADD SWAP1 POP SWAP2 SWAP1 POP JUMP JUMPDEST PUSH1 0x0 PUSH1 0x20 DUP3 ADD SWAP1 POP DUP2 DUP2 SUB PUSH1 0x0 DUP4 ADD MSTORE PUSH2 0x41FA DUP2 PUSH2 0x41BE JUMP JUMPDEST SWAP1 POP SWAP2 SWAP1 POP JUMP JUMPDEST PUSH32 0x4552433732313A2062616C616E636520717565727920666F7220746865207A65 PUSH1 0x0 DUP3 ADD MSTORE PUSH32 0x726F206164647265737300000000000000000000000000000000000000000000 PUSH1 0x20 DUP3 ADD MSTORE POP JUMP JUMPDEST PUSH1 0x0 PUSH2 0x425D PUSH1 0x2A DUP4 PUSH2 0x342E JUMP JUMPDEST SWAP2 POP PUSH2 0x4268 DUP3 PUSH2 0x4201 JUMP JUMPDEST PUSH1 0x40 DUP3 ADD SWAP1 POP SWAP2 SWAP1 POP JUMP JUMPDEST PUSH1 0x0 PUSH1 0x20 DUP3 ADD SWAP1 POP DUP2 DUP2 SUB PUSH1 0x0 DUP4 ADD MSTORE PUSH2 0x428C DUP2 PUSH2 0x4250 JUMP JUMPDEST SWAP1 POP SWAP2 SWAP1 POP JUMP JUMPDEST PUSH32 0x4552433732313A20617070726F766520746F2063616C6C657200000000000000 PUSH1 0x0 DUP3 ADD MSTORE POP JUMP JUMPDEST PUSH1 0x0 PUSH2 0x42C9 PUSH1 0x19 DUP4 PUSH2 0x342E JUMP JUMPDEST SWAP2 POP PUSH2 0x42D4 DUP3 PUSH2 0x4293 JUMP JUMPDEST PUSH1 0x20 DUP3 ADD SWAP1 POP SWAP2 SWAP1 POP JUMP JUMPDEST PUSH1 0x0 PUSH1 0x20 DUP3 ADD SWAP1 POP DUP2 DUP2 SUB PUSH1 0x0 DUP4 ADD MSTORE PUSH2 0x42F8 DUP2 PUSH2 0x42BC JUMP JUMPDEST SWAP1 POP SWAP2 SWAP1 POP JUMP JUMPDEST PUSH32 0x4552433732314D657461646174613A2055524920717565727920666F72206E6F PUSH1 0x0 DUP3 ADD MSTORE PUSH32 0x6E6578697374656E7420746F6B656E0000000000000000000000000000000000 PUSH1 0x20 DUP3 ADD MSTORE POP JUMP JUMPDEST PUSH1 0x0 PUSH2 0x435B PUSH1 0x2F DUP4 PUSH2 0x342E JUMP JUMPDEST SWAP2 POP PUSH2 0x4366 DUP3 PUSH2 0x42FF JUMP JUMPDEST PUSH1 0x40 DUP3 ADD SWAP1 POP SWAP2 SWAP1 POP JUMP JUMPDEST PUSH1 0x0 PUSH1 0x20 DUP3 ADD SWAP1 POP DUP2 DUP2 SUB PUSH1 0x0 DUP4 ADD MSTORE PUSH2 0x438A DUP2 PUSH2 0x434E JUMP JUMPDEST SWAP1 POP SWAP2 SWAP1 POP JUMP JUMPDEST PUSH1 0x0 DUP2 SWAP1 POP SWAP3 SWAP2 POP POP JUMP JUMPDEST PUSH1 0x0 PUSH2 0x43A7 DUP3 PUSH2 0x3423 JUMP JUMPDEST PUSH2 0x43B1 DUP2 DUP6 PUSH2 0x4391 JUMP JUMPDEST SWAP4 POP PUSH2 0x43C1 DUP2 DUP6 PUSH1 0x20 DUP7 ADD PUSH2 0x343F JUMP JUMPDEST DUP1 DUP5 ADD SWAP2 POP POP SWAP3 SWAP2 POP POP JUMP JUMPDEST PUSH1 0x0 DUP2 SWAP1 POP DUP2 PUSH1 0x0 MSTORE PUSH1 0x20 PUSH1 0x0 KECCAK256 SWAP1 POP SWAP2 SWAP1 POP JUMP JUMPDEST PUSH1 0x0 DUP2 SLOAD PUSH2 0x43EF DUP2 PUSH2 0x3C34 JUMP JUMPDEST PUSH2 0x43F9 DUP2 DUP7 PUSH2 0x4391 JUMP JUMPDEST SWAP5 POP PUSH1 0x1 DUP3 AND PUSH1 0x0 DUP2 EQ PUSH2 0x4414 JUMPI PUSH1 0x1 DUP2 EQ PUSH2 0x4425 JUMPI PUSH2 0x4458 JUMP JUMPDEST PUSH1 0xFF NOT DUP4 AND DUP7 MSTORE DUP2 DUP7 ADD SWAP4 POP PUSH2 0x4458 JUMP JUMPDEST PUSH2 0x442E DUP6 PUSH2 0x43CD JUMP JUMPDEST PUSH1 0x0 JUMPDEST DUP4 DUP2 LT ISZERO PUSH2 0x4450 JUMPI DUP2 SLOAD DUP2 DUP10 ADD MSTORE PUSH1 0x1 DUP3 ADD SWAP2 POP PUSH1 0x20 DUP2 ADD SWAP1 POP PUSH2 0x4431 JUMP JUMPDEST DUP4 DUP9 ADD SWAP6 POP POP POP JUMPDEST POP POP POP SWAP3 SWAP2 POP POP JUMP JUMPDEST PUSH1 0x0 PUSH2 0x446D DUP3 DUP7 PUSH2 0x439C JUMP JUMPDEST SWAP2 POP PUSH2 0x4479 DUP3 DUP6 PUSH2 0x439C JUMP JUMPDEST SWAP2 POP PUSH2 0x4485 DUP3 DUP5 PUSH2 0x43E2 JUMP JUMPDEST SWAP2 POP DUP2 SWAP1 POP SWAP5 SWAP4 POP POP POP POP JUMP JUMPDEST PUSH32 0x4F776E61626C653A206E6577206F776E657220697320746865207A65726F2061 PUSH1 0x0 DUP3 ADD MSTORE PUSH32 0x6464726573730000000000000000000000000000000000000000000000000000 PUSH1 0x20 DUP3 ADD MSTORE POP JUMP JUMPDEST PUSH1 0x0 PUSH2 0x44EE PUSH1 0x26 DUP4 PUSH2 0x342E JUMP JUMPDEST SWAP2 POP PUSH2 0x44F9 DUP3 PUSH2 0x4492 JUMP JUMPDEST PUSH1 0x40 DUP3 ADD SWAP1 POP SWAP2 SWAP1 POP JUMP JUMPDEST PUSH1 0x0 PUSH1 0x20 DUP3 ADD SWAP1 POP DUP2 DUP2 SUB PUSH1 0x0 DUP4 ADD MSTORE PUSH2 0x451D DUP2 PUSH2 0x44E1 JUMP JUMPDEST SWAP1 POP SWAP2 SWAP1 POP JUMP JUMPDEST PUSH32 0x4552433732313A206F70657261746F7220717565727920666F72206E6F6E6578 PUSH1 0x0 DUP3 ADD MSTORE PUSH32 0x697374656E7420746F6B656E0000000000000000000000000000000000000000 PUSH1 0x20 DUP3 ADD MSTORE POP JUMP JUMPDEST PUSH1 0x0 PUSH2 0x4580 PUSH1 0x2C DUP4 PUSH2 0x342E JUMP JUMPDEST SWAP2 POP PUSH2 0x458B DUP3 PUSH2 0x4524 JUMP JUMPDEST PUSH1 0x40 DUP3 ADD SWAP1 POP SWAP2 SWAP1 POP JUMP JUMPDEST PUSH1 0x0 PUSH1 0x20 DUP3 ADD SWAP1 POP DUP2 DUP2 SUB PUSH1 0x0 DUP4 ADD MSTORE PUSH2 0x45AF DUP2 PUSH2 0x4573 JUMP JUMPDEST SWAP1 POP SWAP2 SWAP1 POP JUMP JUMPDEST PUSH32 0x4552433732313A207472616E73666572206F6620746F6B656E20746861742069 PUSH1 0x0 DUP3 ADD MSTORE PUSH32 0x73206E6F74206F776E0000000000000000000000000000000000000000000000 PUSH1 0x20 DUP3 ADD MSTORE POP JUMP JUMPDEST PUSH1 0x0 PUSH2 0x4612 PUSH1 0x29 DUP4 PUSH2 0x342E JUMP JUMPDEST SWAP2 POP PUSH2 0x461D DUP3 PUSH2 0x45B6 JUMP JUMPDEST PUSH1 0x40 DUP3 ADD SWAP1 POP SWAP2 SWAP1 POP JUMP JUMPDEST PUSH1 0x0 PUSH1 0x20 DUP3 ADD SWAP1 POP DUP2 DUP2 SUB PUSH1 0x0 DUP4 ADD MSTORE PUSH2 0x4641 DUP2 PUSH2 0x4605 JUMP JUMPDEST SWAP1 POP SWAP2 SWAP1 POP JUMP JUMPDEST PUSH32 0x4552433732313A207472616E7366657220746F20746865207A65726F20616464 PUSH1 0x0 DUP3 ADD MSTORE PUSH32 0x7265737300000000000000000000000000000000000000000000000000000000 PUSH1 0x20 DUP3 ADD MSTORE POP JUMP JUMPDEST PUSH1 0x0 PUSH2 0x46A4 PUSH1 0x24 DUP4 PUSH2 0x342E JUMP JUMPDEST SWAP2 POP PUSH2 0x46AF DUP3 PUSH2 0x4648 JUMP JUMPDEST PUSH1 0x40 DUP3 ADD SWAP1 POP SWAP2 SWAP1 POP JUMP JUMPDEST PUSH1 0x0 PUSH1 0x20 DUP3 ADD SWAP1 POP DUP2 DUP2 SUB PUSH1 0x0 DUP4 ADD MSTORE PUSH2 0x46D3 DUP2 PUSH2 0x4697 JUMP JUMPDEST SWAP1 POP SWAP2 SWAP1 POP JUMP JUMPDEST PUSH1 0x0 PUSH2 0x46E5 DUP3 PUSH2 0x34DE JUMP JUMPDEST SWAP2 POP PUSH2 0x46F0 DUP4 PUSH2 0x34DE JUMP JUMPDEST SWAP3 POP DUP3 DUP3 LT ISZERO PUSH2 0x4703 JUMPI PUSH2 0x4702 PUSH2 0x3F86 JUMP JUMPDEST JUMPDEST DUP3 DUP3 SUB SWAP1 POP SWAP3 SWAP2 POP POP JUMP JUMPDEST PUSH32 0x4552433732313A207472616E7366657220746F206E6F6E204552433732315265 PUSH1 0x0 DUP3 ADD MSTORE PUSH32 0x63656976657220696D706C656D656E7465720000000000000000000000000000 PUSH1 0x20 DUP3 ADD MSTORE POP JUMP JUMPDEST PUSH1 0x0 PUSH2 0x476A PUSH1 0x32 DUP4 PUSH2 0x342E JUMP JUMPDEST SWAP2 POP PUSH2 0x4775 DUP3 PUSH2 0x470E JUMP JUMPDEST PUSH1 0x40 DUP3 ADD SWAP1 POP SWAP2 SWAP1 POP JUMP JUMPDEST PUSH1 0x0 PUSH1 0x20 DUP3 ADD SWAP1 POP DUP2 DUP2 SUB PUSH1 0x0 DUP4 ADD MSTORE PUSH2 0x4799 DUP2 PUSH2 0x475D JUMP JUMPDEST SWAP1 POP SWAP2 SWAP1 POP JUMP JUMPDEST PUSH32 0x4E487B7100000000000000000000000000000000000000000000000000000000 PUSH1 0x0 MSTORE PUSH1 0x12 PUSH1 0x4 MSTORE PUSH1 0x24 PUSH1 0x0 REVERT JUMPDEST PUSH1 0x0 PUSH2 0x47DA DUP3 PUSH2 0x34DE JUMP JUMPDEST SWAP2 POP PUSH2 0x47E5 DUP4 PUSH2 0x34DE JUMP JUMPDEST SWAP3 POP DUP3 PUSH2 0x47F5 JUMPI PUSH2 0x47F4 PUSH2 0x47A0 JUMP JUMPDEST JUMPDEST DUP3 DUP3 DIV SWAP1 POP SWAP3 SWAP2 POP POP JUMP JUMPDEST PUSH1 0x0 PUSH2 0x480B DUP3 PUSH2 0x34DE JUMP JUMPDEST SWAP2 POP PUSH2 0x4816 DUP4 PUSH2 0x34DE JUMP JUMPDEST SWAP3 POP DUP3 PUSH2 0x4826 JUMPI PUSH2 0x4825 PUSH2 0x47A0 JUMP JUMPDEST JUMPDEST DUP3 DUP3 MOD SWAP1 POP SWAP3 SWAP2 POP POP JUMP JUMPDEST PUSH1 0x0 DUP2 MLOAD SWAP1 POP SWAP2 SWAP1 POP JUMP JUMPDEST PUSH1 0x0 DUP3 DUP3 MSTORE PUSH1 0x20 DUP3 ADD SWAP1 POP SWAP3 SWAP2 POP POP JUMP JUMPDEST PUSH1 0x0 PUSH2 0x4858 DUP3 PUSH2 0x4831 JUMP JUMPDEST PUSH2 0x4862 DUP2 DUP6 PUSH2 0x483C JUMP JUMPDEST SWAP4 POP PUSH2 0x4872 DUP2 DUP6 PUSH1 0x20 DUP7 ADD PUSH2 0x343F JUMP JUMPDEST PUSH2 0x487B DUP2 PUSH2 0x3472 JUMP JUMPDEST DUP5 ADD SWAP2 POP POP SWAP3 SWAP2 POP POP JUMP JUMPDEST PUSH1 0x0 PUSH1 0x80 DUP3 ADD SWAP1 POP PUSH2 0x489B PUSH1 0x0 DUP4 ADD DUP8 PUSH2 0x3573 JUMP JUMPDEST PUSH2 0x48A8 PUSH1 0x20 DUP4 ADD DUP7 PUSH2 0x3573 JUMP JUMPDEST PUSH2 0x48B5 PUSH1 0x40 DUP4 ADD DUP6 PUSH2 0x3609 JUMP JUMPDEST DUP2 DUP2 SUB PUSH1 0x60 DUP4 ADD MSTORE PUSH2 0x48C7 DUP2 DUP5 PUSH2 0x484D JUMP JUMPDEST SWAP1 POP SWAP6 SWAP5 POP POP POP POP POP JUMP JUMPDEST PUSH1 0x0 DUP2 MLOAD SWAP1 POP PUSH2 0x48E1 DUP2 PUSH2 0x333B JUMP JUMPDEST SWAP3 SWAP2 POP POP JUMP JUMPDEST PUSH1 0x0 PUSH1 0x20 DUP3 DUP5 SUB SLT ISZERO PUSH2 0x48FD JUMPI PUSH2 0x48FC PUSH2 0x3305 JUMP JUMPDEST JUMPDEST PUSH1 0x0 PUSH2 0x490B DUP5 DUP3 DUP6 ADD PUSH2 0x48D2 JUMP JUMPDEST SWAP2 POP POP SWAP3 SWAP2 POP POP JUMP JUMPDEST PUSH32 0x4E487B7100000000000000000000000000000000000000000000000000000000 PUSH1 0x0 MSTORE PUSH1 0x31 PUSH1 0x4 MSTORE PUSH1 0x24 PUSH1 0x0 REVERT JUMPDEST PUSH32 0x4552433732313A206D696E7420746F20746865207A65726F2061646472657373 PUSH1 0x0 DUP3 ADD MSTORE POP JUMP JUMPDEST PUSH1 0x0 PUSH2 0x4979 PUSH1 0x20 DUP4 PUSH2 0x342E JUMP JUMPDEST SWAP2 POP PUSH2 0x4984 DUP3 PUSH2 0x4943 JUMP JUMPDEST PUSH1 0x20 DUP3 ADD SWAP1 POP SWAP2 SWAP1 POP JUMP JUMPDEST PUSH1 0x0 PUSH1 0x20 DUP3 ADD SWAP1 POP DUP2 DUP2 SUB PUSH1 0x0 DUP4 ADD MSTORE PUSH2 0x49A8 DUP2 PUSH2 0x496C JUMP JUMPDEST SWAP1 POP SWAP2 SWAP1 POP JUMP JUMPDEST PUSH32 0x4552433732313A20746F6B656E20616C7265616479206D696E74656400000000 PUSH1 0x0 DUP3 ADD MSTORE POP JUMP JUMPDEST PUSH1 0x0 PUSH2 0x49E5 PUSH1 0x1C DUP4 PUSH2 0x342E JUMP JUMPDEST SWAP2 POP PUSH2 0x49F0 DUP3 PUSH2 0x49AF JUMP JUMPDEST PUSH1 0x20 DUP3 ADD SWAP1 POP SWAP2 SWAP1 POP JUMP JUMPDEST PUSH1 0x0 PUSH1 0x20 DUP3 ADD SWAP1 POP DUP2 DUP2 SUB PUSH1 0x0 DUP4 ADD MSTORE PUSH2 0x4A14 DUP2 PUSH2 0x49D8 JUMP JUMPDEST SWAP1 POP SWAP2 SWAP1 POP JUMP INVALID LOG2 PUSH5 0x6970667358 0x22 SLT KECCAK256 PUSH18 0xD815F6ACE86A17992B355357706655ED363A GASLIMIT DUP5 PUSH20 0x5244A1BB292095DA8E3564736F6C634300080900 CALLER "
		},
		"gasEstimates": {
			"creation": {
				"codeDepositCost": "3805000",
				"executionCost": "infinite",
				"totalCost": "infinite"
			},
			"external": {
				"add100PresaleUsers(address[100])": "infinite",
				"addPresaleUser(address)": "27119",
				"approve(address,uint256)": "infinite",
				"balanceOf(address)": "3013",
				"baseExtension()": "infinite",
				"baseURI()": "infinite",
				"cost()": "2475",
				"getApproved(uint256)": "5273",
				"isApprovedForAll(address,address)": "infinite",
				"maxMintAmount()": "2519",
				"maxSupply()": "2473",
				"mint(address,uint256)": "infinite",
				"name()": "infinite",
				"owner()": "2611",
				"ownerOf(uint256)": "3067",
				"pause(bool)": "26988",
				"paused()": "2539",
				"presaleCost()": "2563",
				"presaleWallets(address)": "2913",
				"removePresaleUser(address)": "27184",
				"removeWhitelistUser(address)": "27142",
				"renounceOwnership()": "30419",
				"safeTransferFrom(address,address,uint256)": "infinite",
				"safeTransferFrom(address,address,uint256,bytes)": "infinite",
				"setApprovalForAll(address,bool)": "infinite",
				"setBaseExtension(string)": "infinite",
				"setBaseURI(string)": "infinite",
				"setCost(uint256)": "24849",
				"setPresaleCost(uint256)": "24871",
				"setmaxMintAmount(uint256)": "24827",
				"supportsInterface(bytes4)": "909",
				"symbol()": "infinite",
				"tokenByIndex(uint256)": "infinite",
				"tokenOfOwnerByIndex(address,uint256)": "infinite",
				"tokenURI(uint256)": "infinite",
				"totalSupply()": "2513",
				"transferFrom(address,address,uint256)": "infinite",
				"transferOwnership(address)": "30877",
				"walletOfOwner(address)": "infinite",
				"whitelistUser(address)": "27163",
				"whitelisted(address)": "2911",
				"withdraw()": "infinite"
			},
			"internal": {
				"_baseURI()": "infinite"
			}
		},
		"methodIdentifiers": {
			"add100PresaleUsers(address[100])": "546857c7",
			"addPresaleUser(address)": "b2f3e85e",
			"approve(address,uint256)": "095ea7b3",
			"balanceOf(address)": "70a08231",
			"baseExtension()": "c6682862",
			"baseURI()": "6c0360eb",
			"cost()": "13faede6",
			"getApproved(uint256)": "081812fc",
			"isApprovedForAll(address,address)": "e985e9c5",
			"maxMintAmount()": "239c70ae",
			"maxSupply()": "d5abeb01",
			"mint(address,uint256)": "40c10f19",
			"name()": "06fdde03",
			"owner()": "8da5cb5b",
			"ownerOf(uint256)": "6352211e",
			"pause(bool)": "02329a29",
			"paused()": "5c975abb",
			"presaleCost()": "2a23d07d",
			"presaleWallets(address)": "30b2264e",
			"removePresaleUser(address)": "ed931e17",
			"removeWhitelistUser(address)": "30cc7ae0",
			"renounceOwnership()": "715018a6",
			"safeTransferFrom(address,address,uint256)": "42842e0e",
			"safeTransferFrom(address,address,uint256,bytes)": "b88d4fde",
			"setApprovalForAll(address,bool)": "a22cb465",
			"setBaseExtension(string)": "da3ef23f",
			"setBaseURI(string)": "55f804b3",
			"setCost(uint256)": "44a0d68a",
			"setPresaleCost(uint256)": "8fdcf942",
			"setmaxMintAmount(uint256)": "7f00c7a6",
			"supportsInterface(bytes4)": "01ffc9a7",
			"symbol()": "95d89b41",
			"tokenByIndex(uint256)": "4f6ccce7",
			"tokenOfOwnerByIndex(address,uint256)": "2f745c59",
			"tokenURI(uint256)": "c87b56dd",
			"totalSupply()": "18160ddd",
			"transferFrom(address,address,uint256)": "23b872dd",
			"transferOwnership(address)": "f2fde38b",
			"walletOfOwner(address)": "438b6300",
			"whitelistUser(address)": "4a4c560d",
			"whitelisted(address)": "d936547e",
			"withdraw()": "3ccfd60b"
		}
	},
	"abi": [
		{
			"inputs": [
				{
					"internalType": "string",
					"name": "_name",
					"type": "string"
				},
				{
					"internalType": "string",
					"name": "_symbol",
					"type": "string"
				},
				{
					"internalType": "string",
					"name": "_initBaseURI",
					"type": "string"
				}
			],
			"stateMutability": "nonpayable",
			"type": "constructor"
		},
		{
			"anonymous": false,
			"inputs": [
				{
					"indexed": true,
					"internalType": "address",
					"name": "owner",
					"type": "address"
				},
				{
					"indexed": true,
					"internalType": "address",
					"name": "approved",
					"type": "address"
				},
				{
					"indexed": true,
					"internalType": "uint256",
					"name": "tokenId",
					"type": "uint256"
				}
			],
			"name": "Approval",
			"type": "event"
		},
		{
			"anonymous": false,
			"inputs": [
				{
					"indexed": true,
					"internalType": "address",
					"name": "owner",
					"type": "address"
				},
				{
					"indexed": true,
					"internalType": "address",
					"name": "operator",
					"type": "address"
				},
				{
					"indexed": false,
					"internalType": "bool",
					"name": "approved",
					"type": "bool"
				}
			],
			"name": "ApprovalForAll",
			"type": "event"
		},
		{
			"anonymous": false,
			"inputs": [
				{
					"indexed": true,
					"internalType": "address",
					"name": "previousOwner",
					"type": "address"
				},
				{
					"indexed": true,
					"internalType": "address",
					"name": "newOwner",
					"type": "address"
				}
			],
			"name": "OwnershipTransferred",
			"type": "event"
		},
		{
			"anonymous": false,
			"inputs": [
				{
					"indexed": true,
					"internalType": "address",
					"name": "from",
					"type": "address"
				},
				{
					"indexed": true,
					"internalType": "address",
					"name": "to",
					"type": "address"
				},
				{
					"indexed": true,
					"internalType": "uint256",
					"name": "tokenId",
					"type": "uint256"
				}
			],
			"name": "Transfer",
			"type": "event"
		},
		{
			"inputs": [
				{
					"internalType": "address[100]",
					"name": "_users",
					"type": "address[100]"
				}
			],
			"name": "add100PresaleUsers",
			"outputs": [],
			"stateMutability": "nonpayable",
			"type": "function"
		},
		{
			"inputs": [
				{
					"internalType": "address",
					"name": "_user",
					"type": "address"
				}
			],
			"name": "addPresaleUser",
			"outputs": [],
			"stateMutability": "nonpayable",
			"type": "function"
		},
		{
			"inputs": [
				{
					"internalType": "address",
					"name": "to",
					"type": "address"
				},
				{
					"internalType": "uint256",
					"name": "tokenId",
					"type": "uint256"
				}
			],
			"name": "approve",
			"outputs": [],
			"stateMutability": "nonpayable",
			"type": "function"
		},
		{
			"inputs": [
				{
					"internalType": "address",
					"name": "owner",
					"type": "address"
				}
			],
			"name": "balanceOf",
			"outputs": [
				{
					"internalType": "uint256",
					"name": "",
					"type": "uint256"
				}
			],
			"stateMutability": "view",
			"type": "function"
		},
		{
			"inputs": [],
			"name": "baseExtension",
			"outputs": [
				{
					"internalType": "string",
					"name": "",
					"type": "string"
				}
			],
			"stateMutability": "view",
			"type": "function"
		},
		{
			"inputs": [],
			"name": "baseURI",
			"outputs": [
				{
					"internalType": "string",
					"name": "",
					"type": "string"
				}
			],
			"stateMutability": "view",
			"type": "function"
		},
		{
			"inputs": [],
			"name": "cost",
			"outputs": [
				{
					"internalType": "uint256",
					"name": "",
					"type": "uint256"
				}
			],
			"stateMutability": "view",
			"type": "function"
		},
		{
			"inputs": [
				{
					"internalType": "uint256",
					"name": "tokenId",
					"type": "uint256"
				}
			],
			"name": "getApproved",
			"outputs": [
				{
					"internalType": "address",
					"name": "",
					"type": "address"
				}
			],
			"stateMutability": "view",
			"type": "function"
		},
		{
			"inputs": [
				{
					"internalType": "address",
					"name": "owner",
					"type": "address"
				},
				{
					"internalType": "address",
					"name": "operator",
					"type": "address"
				}
			],
			"name": "isApprovedForAll",
			"outputs": [
				{
					"internalType": "bool",
					"name": "",
					"type": "bool"
				}
			],
			"stateMutability": "view",
			"type": "function"
		},
		{
			"inputs": [],
			"name": "maxMintAmount",
			"outputs": [
				{
					"internalType": "uint256",
					"name": "",
					"type": "uint256"
				}
			],
			"stateMutability": "view",
			"type": "function"
		},
		{
			"inputs": [],
			"name": "maxSupply",
			"outputs": [
				{
					"internalType": "uint256",
					"name": "",
					"type": "uint256"
				}
			],
			"stateMutability": "view",
			"type": "function"
		},
		{
			"inputs": [
				{
					"internalType": "address",
					"name": "_to",
					"type": "address"
				},
				{
					"internalType": "uint256",
					"name": "_mintAmount",
					"type": "uint256"
				}
			],
			"name": "mint",
			"outputs": [],
			"stateMutability": "payable",
			"type": "function"
		},
		{
			"inputs": [],
			"name": "name",
			"outputs": [
				{
					"internalType": "string",
					"name": "",
					"type": "string"
				}
			],
			"stateMutability": "view",
			"type": "function"
		},
		{
			"inputs": [],
			"name": "owner",
			"outputs": [
				{
					"internalType": "address",
					"name": "",
					"type": "address"
				}
			],
			"stateMutability": "view",
			"type": "function"
		},
		{
			"inputs": [
				{
					"internalType": "uint256",
					"name": "tokenId",
					"type": "uint256"
				}
			],
			"name": "ownerOf",
			"outputs": [
				{
					"internalType": "address",
					"name": "",
					"type": "address"
				}
			],
			"stateMutability": "view",
			"type": "function"
		},
		{
			"inputs": [
				{
					"internalType": "bool",
					"name": "_state",
					"type": "bool"
				}
			],
			"name": "pause",
			"outputs": [],
			"stateMutability": "nonpayable",
			"type": "function"
		},
		{
			"inputs": [],
			"name": "paused",
			"outputs": [
				{
					"internalType": "bool",
					"name": "",
					"type": "bool"
				}
			],
			"stateMutability": "view",
			"type": "function"
		},
		{
			"inputs": [],
			"name": "presaleCost",
			"outputs": [
				{
					"internalType": "uint256",
					"name": "",
					"type": "uint256"
				}
			],
			"stateMutability": "view",
			"type": "function"
		},
		{
			"inputs": [
				{
					"internalType": "address",
					"name": "",
					"type": "address"
				}
			],
			"name": "presaleWallets",
			"outputs": [
				{
					"internalType": "bool",
					"name": "",
					"type": "bool"
				}
			],
			"stateMutability": "view",
			"type": "function"
		},
		{
			"inputs": [
				{
					"internalType": "address",
					"name": "_user",
					"type": "address"
				}
			],
			"name": "removePresaleUser",
			"outputs": [],
			"stateMutability": "nonpayable",
			"type": "function"
		},
		{
			"inputs": [
				{
					"internalType": "address",
					"name": "_user",
					"type": "address"
				}
			],
			"name": "removeWhitelistUser",
			"outputs": [],
			"stateMutability": "nonpayable",
			"type": "function"
		},
		{
			"inputs": [],
			"name": "renounceOwnership",
			"outputs": [],
			"stateMutability": "nonpayable",
			"type": "function"
		},
		{
			"inputs": [
				{
					"internalType": "address",
					"name": "from",
					"type": "address"
				},
				{
					"internalType": "address",
					"name": "to",
					"type": "address"
				},
				{
					"internalType": "uint256",
					"name": "tokenId",
					"type": "uint256"
				}
			],
			"name": "safeTransferFrom",
			"outputs": [],
			"stateMutability": "nonpayable",
			"type": "function"
		},
		{
			"inputs": [
				{
					"internalType": "address",
					"name": "from",
					"type": "address"
				},
				{
					"internalType": "address",
					"name": "to",
					"type": "address"
				},
				{
					"internalType": "uint256",
					"name": "tokenId",
					"type": "uint256"
				},
				{
					"internalType": "bytes",
					"name": "_data",
					"type": "bytes"
				}
			],
			"name": "safeTransferFrom",
			"outputs": [],
			"stateMutability": "nonpayable",
			"type": "function"
		},
		{
			"inputs": [
				{
					"internalType": "address",
					"name": "operator",
					"type": "address"
				},
				{
					"internalType": "bool",
					"name": "approved",
					"type": "bool"
				}
			],
			"name": "setApprovalForAll",
			"outputs": [],
			"stateMutability": "nonpayable",
			"type": "function"
		},
		{
			"inputs": [
				{
					"internalType": "string",
					"name": "_newBaseExtension",
					"type": "string"
				}
			],
			"name": "setBaseExtension",
			"outputs": [],
			"stateMutability": "nonpayable",
			"type": "function"
		},
		{
			"inputs": [
				{
					"internalType": "string",
					"name": "_newBaseURI",
					"type": "string"
				}
			],
			"name": "setBaseURI",
			"outputs": [],
			"stateMutability": "nonpayable",
			"type": "function"
		},
		{
			"inputs": [
				{
					"internalType": "uint256",
					"name": "_newCost",
					"type": "uint256"
				}
			],
			"name": "setCost",
			"outputs": [],
			"stateMutability": "nonpayable",
			"type": "function"
		},
		{
			"inputs": [
				{
					"internalType": "uint256",
					"name": "_newCost",
					"type": "uint256"
				}
			],
			"name": "setPresaleCost",
			"outputs": [],
			"stateMutability": "nonpayable",
			"type": "function"
		},
		{
			"inputs": [
				{
					"internalType": "uint256",
					"name": "_newmaxMintAmount",
					"type": "uint256"
				}
			],
			"name": "setmaxMintAmount",
			"outputs": [],
			"stateMutability": "nonpayable",
			"type": "function"
		},
		{
			"inputs": [
				{
					"internalType": "bytes4",
					"name": "interfaceId",
					"type": "bytes4"
				}
			],
			"name": "supportsInterface",
			"outputs": [
				{
					"internalType": "bool",
					"name": "",
					"type": "bool"
				}
			],
			"stateMutability": "view",
			"type": "function"
		},
		{
			"inputs": [],
			"name": "symbol",
			"outputs": [
				{
					"internalType": "string",
					"name": "",
					"type": "string"
				}
			],
			"stateMutability": "view",
			"type": "function"
		},
		{
			"inputs": [
				{
					"internalType": "uint256",
					"name": "index",
					"type": "uint256"
				}
			],
			"name": "tokenByIndex",
			"outputs": [
				{
					"internalType": "uint256",
					"name": "",
					"type": "uint256"
				}
			],
			"stateMutability": "view",
			"type": "function"
		},
		{
			"inputs": [
				{
					"internalType": "address",
					"name": "owner",
					"type": "address"
				},
				{
					"internalType": "uint256",
					"name": "index",
					"type": "uint256"
				}
			],
			"name": "tokenOfOwnerByIndex",
			"outputs": [
				{
					"internalType": "uint256",
					"name": "",
					"type": "uint256"
				}
			],
			"stateMutability": "view",
			"type": "function"
		},
		{
			"inputs": [
				{
					"internalType": "uint256",
					"name": "tokenId",
					"type": "uint256"
				}
			],
			"name": "tokenURI",
			"outputs": [
				{
					"internalType": "string",
					"name": "",
					"type": "string"
				}
			],
			"stateMutability": "view",
			"type": "function"
		},
		{
			"inputs": [],
			"name": "totalSupply",
			"outputs": [
				{
					"internalType": "uint256",
					"name": "",
					"type": "uint256"
				}
			],
			"stateMutability": "view",
			"type": "function"
		},
		{
			"inputs": [
				{
					"internalType": "address",
					"name": "from",
					"type": "address"
				},
				{
					"internalType": "address",
					"name": "to",
					"type": "address"
				},
				{
					"internalType": "uint256",
					"name": "tokenId",
					"type": "uint256"
				}
			],
			"name": "transferFrom",
			"outputs": [],
			"stateMutability": "nonpayable",
			"type": "function"
		},
		{
			"inputs": [
				{
					"internalType": "address",
					"name": "newOwner",
					"type": "address"
				}
			],
			"name": "transferOwnership",
			"outputs": [],
			"stateMutability": "nonpayable",
			"type": "function"
		},
		{
			"inputs": [
				{
					"internalType": "address",
					"name": "_owner",
					"type": "address"
				}
			],
			"name": "walletOfOwner",
			"outputs": [
				{
					"internalType": "uint256[]",
					"name": "",
					"type": "uint256[]"
				}
			],
			"stateMutability": "view",
			"type": "function"
		},
		{
			"inputs": [
				{
					"internalType": "address",
					"name": "_user",
					"type": "address"
				}
			],
			"name": "whitelistUser",
			"outputs": [],
			"stateMutability": "nonpayable",
			"type": "function"
		},
		{
			"inputs": [
				{
					"internalType": "address",
					"name": "",
					"type": "address"
				}
			],
			"name": "whitelisted",
			"outputs": [
				{
					"internalType": "bool",
					"name": "",
					"type": "bool"
				}
			],
			"stateMutability": "view",
			"type": "function"
		},
		{
			"inputs": [],
			"name": "withdraw",
			"outputs": [],
			"stateMutability": "payable",
			"type": "function"
		}
	]
}