{
	"data": {
		"bytecode": {
			"linkReferences": {},
			"object": "60a06040526000600c556000600d556103e8600e556000600f60006101000a81548160ff0219169083151502179055503480156200003c57600080fd5b5060405162005ed638038062005ed68339818101604052810190620000629190620004c8565b84848482828280620000896200007d6200010f60201b60201c565b6200011760201b60201c565b8073ffffffffffffffffffffffffffffffffffffffff1660808173ffffffffffffffffffffffffffffffffffffffff168152505050508160039080519060200190620000d7929190620001db565b508060049080519060200190620000f0929190620001db565b50505050505081600a8190555080600b819055505050505050620005f3565b600033905090565b60008060009054906101000a900473ffffffffffffffffffffffffffffffffffffffff169050816000806101000a81548173ffffffffffffffffffffffffffffffffffffffff021916908373ffffffffffffffffffffffffffffffffffffffff1602179055508173ffffffffffffffffffffffffffffffffffffffff168173ffffffffffffffffffffffffffffffffffffffff167f8be0079c531659141344cd1fd0a4f28419497f9722a3daafe3b4186f6b6457e060405160405180910390a35050565b828054620001e990620005bd565b90600052602060002090601f0160209004810192826200020d576000855562000259565b82601f106200022857805160ff191683800117855562000259565b8280016001018555821562000259579182015b82811115620002585782518255916020019190600101906200023b565b5b5090506200026891906200026c565b5090565b5b80821115620002875760008160009055506001016200026d565b5090565b6000604051905090565b600080fd5b600080fd5b600080fd5b600080fd5b6000601f19601f8301169050919050565b7f4e487b7100000000000000000000000000000000000000000000000000000000600052604160045260246000fd5b620002f482620002a9565b810181811067ffffffffffffffff82111715620003165762000315620002ba565b5b80604052505050565b60006200032b6200028b565b9050620003398282620002e9565b919050565b600067ffffffffffffffff8211156200035c576200035b620002ba565b5b6200036782620002a9565b9050602081019050919050565b60005b838110156200039457808201518184015260208101905062000377565b83811115620003a4576000848401525b50505050565b6000620003c1620003bb846200033e565b6200031f565b905082815260208101848484011115620003e057620003df620002a4565b5b620003ed84828562000374565b509392505050565b600082601f8301126200040d576200040c6200029f565b5b81516200041f848260208601620003aa565b91505092915050565b600073ffffffffffffffffffffffffffffffffffffffff82169050919050565b6000620004558262000428565b9050919050565b620004678162000448565b81146200047357600080fd5b50565b60008151905062000487816200045c565b92915050565b6000819050919050565b620004a2816200048d565b8114620004ae57600080fd5b50565b600081519050620004c28162000497565b92915050565b600080600080600060a08688031215620004e757620004e662000295565b5b600086015167ffffffffffffffff8111156200050857620005076200029a565b5b6200051688828901620003f5565b955050602086015167ffffffffffffffff8111156200053a57620005396200029a565b5b6200054888828901620003f5565b94505060406200055b8882890162000476565b93505060606200056e88828901620004b1565b92505060806200058188828901620004b1565b9150509295509295909350565b7f4e487b7100000000000000000000000000000000000000000000000000000000600052602260045260246000fd5b60006002820490506001821680620005d657607f821691505b60208210811415620005ed57620005ec6200058e565b5b50919050565b6080516158886200064e6000396000818161090901528181610c1501528181610ebc0152818161118d015281816119ca01528181611cdf01528181611fe5015281816120210152818161282f0152612f3e01526158886000f3fe60806040526004361061022f5760003560e01c80636aa99da31161012e578063d1deba1f116100ab578063e985e9c51161006f578063e985e9c51461081f578063eb8d72b71461085c578063eed33cef14610885578063f2fde38b146108a1578063f5ecbdbc146108ca5761022f565b8063d1deba1f14610745578063d547cfb714610761578063d936547e1461078c578063dacbcbe2146107c9578063e1d4c870146107f45761022f565b806395d89b41116100f257806395d89b4114610662578063a22cb4651461068d578063b88d4fde146106b6578063c87b56dd146106df578063cbed8b9c1461071c5761022f565b80636aa99da31461057b57806370a08231146105a6578063715018a6146105e35780638da5cb5b146105fa5780638ee74912146106255761022f565b80633d8b38f6116101bc57806355f804b31161018057806355f804b3146104845780635c975abb146104ad5780636352211e146104d857806366ad5c8a1461051557806369b41f951461053e5761022f565b80633d8b38f6146103b057806342842e0e146103ed57806342d65a8d146104165780634a4c560d1461043f57806351905636146104685761022f565b8063081812fc11610203578063081812fc146102ee578063095ea7b31461032b57806310ddb137146103545780631249c58b1461037d57806323b872dd146103875761022f565b80621d35671461023457806301ffc9a71461025d57806306fdde031461029a57806307e0db17146102c5575b600080fd5b34801561024057600080fd5b5061025b600480360381019061025691906137bb565b610907565b005b34801561026957600080fd5b50610284600480360381019061027f91906138b2565b610a23565b60405161029191906138fa565b60405180910390f35b3480156102a657600080fd5b506102af610b05565b6040516102bc919061399d565b60405180910390f35b3480156102d157600080fd5b506102ec60048036038101906102e791906139bf565b610b97565b005b3480156102fa57600080fd5b5061031560048036038101906103109190613a22565b610ca1565b6040516103229190613a90565b60405180910390f35b34801561033757600080fd5b50610352600480360381019061034d9190613ad7565b610d26565b005b34801561036057600080fd5b5061037b600480360381019061037691906139bf565b610e3e565b005b610385610f48565b005b34801561039357600080fd5b506103ae60048036038101906103a99190613b17565b610fbb565b005b3480156103bc57600080fd5b506103d760048036038101906103d29190613bca565b61101b565b6040516103e491906138fa565b60405180910390f35b3480156103f957600080fd5b50610414600480360381019061040f9190613b17565b6110ef565b005b34801561042257600080fd5b5061043d60048036038101906104389190613bca565b61110f565b005b34801561044b57600080fd5b5061046660048036038101906104619190613c2a565b61121f565b005b610482600480360381019061047d9190613c95565b6112f6565b005b34801561049057600080fd5b506104ab60048036038101906104a69190613e18565b611355565b005b3480156104b957600080fd5b506104c26113eb565b6040516104cf91906138fa565b60405180910390f35b3480156104e457600080fd5b506104ff60048036038101906104fa9190613a22565b6113fe565b60405161050c9190613a90565b60405180910390f35b34801561052157600080fd5b5061053c600480360381019061053791906137bb565b6114b0565b005b34801561054a57600080fd5b50610565600480360381019061056091906139bf565b611537565b6040516105729190613eb6565b60405180910390f35b34801561058757600080fd5b506105906115e4565b60405161059d9190613ee7565b60405180910390f35b3480156105b257600080fd5b506105cd60048036038101906105c89190613c2a565b6115ea565b6040516105da9190613ee7565b60405180910390f35b3480156105ef57600080fd5b506105f86116a2565b005b34801561060657600080fd5b5061060f61172a565b60405161061c9190613a90565b60405180910390f35b34801561063157600080fd5b5061064c60048036038101906106479190613f02565b611753565b6040516106599190613f8a565b60405180910390f35b34801561066e57600080fd5b5061067761179b565b604051610684919061399d565b60405180910390f35b34801561069957600080fd5b506106b460048036038101906106af9190613fd1565b61182d565b005b3480156106c257600080fd5b506106dd60048036038101906106d89190614011565b611843565b005b3480156106eb57600080fd5b5061070660048036038101906107019190613a22565b6118a5565b604051610713919061399d565b60405180910390f35b34801561072857600080fd5b50610743600480360381019061073e9190614094565b61194c565b005b61075f600480360381019061075a919061411c565b611a62565b005b34801561076d57600080fd5b50610776611c2d565b604051610783919061399d565b60405180910390f35b34801561079857600080fd5b506107b360048036038101906107ae9190613c2a565b611cbb565b6040516107c091906138fa565b60405180910390f35b3480156107d557600080fd5b506107de611cdb565b6040516107eb9190613a90565b60405180910390f35b34801561080057600080fd5b50610809611d03565b6040516108169190613ee7565b60405180910390f35b34801561082b57600080fd5b50610846600480360381019061084191906141c0565b611d09565b60405161085391906138fa565b60405180910390f35b34801561086857600080fd5b50610883600480360381019061087e9190613bca565b611d9d565b005b61089f600480360381019061089a9190614200565b611e84565b005b3480156108ad57600080fd5b506108c860048036038101906108c39190613c2a565b611ee9565b005b3480156108d657600080fd5b506108f160048036038101906108ec91906142cf565b611fe1565b6040516108fe9190613eb6565b60405180910390f35b7f000000000000000000000000000000000000000000000000000000000000000073ffffffffffffffffffffffffffffffffffffffff16610946612149565b73ffffffffffffffffffffffffffffffffffffffff161461096657600080fd5b600160008561ffff1661ffff168152602001908152602001600020805461098c90614365565b905083511480156109d25750600160008561ffff1661ffff1681526020019081526020016000206040516109c09190614436565b60405180910390208380519060200120145b610a11576040517f08c379a0000000000000000000000000000000000000000000000000000000008152600401610a08906144bf565b60405180910390fd5b610a1d84848484612151565b50505050565b60007f80ac58cd000000000000000000000000000000000000000000000000000000007bffffffffffffffffffffffffffffffffffffffffffffffffffffffff1916827bffffffffffffffffffffffffffffffffffffffffffffffffffffffff19161480610aee57507f5b5e139f000000000000000000000000000000000000000000000000000000007bffffffffffffffffffffffffffffffffffffffffffffffffffffffff1916827bffffffffffffffffffffffffffffffffffffffffffffffffffffffff1916145b80610afe5750610afd82612266565b5b9050919050565b606060038054610b1490614365565b80601f0160208091040260200160405190810160405280929190818152602001828054610b4090614365565b8015610b8d5780601f10610b6257610100808354040283529160200191610b8d565b820191906000526020600020905b815481529060010190602001808311610b7057829003601f168201915b5050505050905090565b610b9f612149565b73ffffffffffffffffffffffffffffffffffffffff16610bbd61172a565b73ffffffffffffffffffffffffffffffffffffffff1614610c13576040517f08c379a0000000000000000000000000000000000000000000000000000000008152600401610c0a9061452b565b60405180910390fd5b7f000000000000000000000000000000000000000000000000000000000000000073ffffffffffffffffffffffffffffffffffffffff166307e0db17826040518263ffffffff1660e01b8152600401610c6c919061455a565b600060405180830381600087803b158015610c8657600080fd5b505af1158015610c9a573d6000803e3d6000fd5b5050505050565b6000610cac826122d0565b610ceb576040517f08c379a0000000000000000000000000000000000000000000000000000000008152600401610ce2906145e7565b60405180910390fd5b6007600083815260200190815260200160002060009054906101000a900473ffffffffffffffffffffffffffffffffffffffff169050919050565b6000610d31826113fe565b90508073ffffffffffffffffffffffffffffffffffffffff168373ffffffffffffffffffffffffffffffffffffffff161415610da2576040517f08c379a0000000000000000000000000000000000000000000000000000000008152600401610d9990614679565b60405180910390fd5b8073ffffffffffffffffffffffffffffffffffffffff16610dc1612149565b73ffffffffffffffffffffffffffffffffffffffff161480610df05750610def81610dea612149565b611d09565b5b610e2f576040517f08c379a0000000000000000000000000000000000000000000000000000000008152600401610e269061470b565b60405180910390fd5b610e39838361233c565b505050565b610e46612149565b73ffffffffffffffffffffffffffffffffffffffff16610e6461172a565b73ffffffffffffffffffffffffffffffffffffffff1614610eba576040517f08c379a0000000000000000000000000000000000000000000000000000000008152600401610eb19061452b565b60405180910390fd5b7f000000000000000000000000000000000000000000000000000000000000000073ffffffffffffffffffffffffffffffffffffffff166310ddb137826040518263ffffffff1660e01b8152600401610f13919061455a565b600060405180830381600087803b158015610f2d57600080fd5b505af1158015610f41573d6000803e3d6000fd5b5050505050565b600b54600a541115610f8f576040517f08c379a0000000000000000000000000000000000000000000000000000000008152600401610f8690614777565b60405180910390fd5b6000600a549050600a6000815480929190610fa9906147c6565b9190505550610fb833826123f5565b50565b610fcc610fc6612149565b82612413565b61100b576040517f08c379a000000000000000000000000000000000000000000000000000000000815260040161100290614881565b60405180910390fd5b6110168383836124f1565b505050565b600080600160008661ffff1661ffff168152602001908152602001600020805461104490614365565b80601f016020809104026020016040519081016040528092919081815260200182805461107090614365565b80156110bd5780601f10611092576101008083540402835291602001916110bd565b820191906000526020600020905b8154815290600101906020018083116110a057829003601f168201915b5050505050905083836040516110d49291906148c6565b60405180910390208180519060200120149150509392505050565b61110a83838360405180602001604052806000815250611843565b505050565b611117612149565b73ffffffffffffffffffffffffffffffffffffffff1661113561172a565b73ffffffffffffffffffffffffffffffffffffffff161461118b576040517f08c379a00000000000000000000000000000000000000000000000000000000081526004016111829061452b565b60405180910390fd5b7f000000000000000000000000000000000000000000000000000000000000000073ffffffffffffffffffffffffffffffffffffffff166342d65a8d8484846040518463ffffffff1660e01b81526004016111e89392919061490c565b600060405180830381600087803b15801561120257600080fd5b505af1158015611216573d6000803e3d6000fd5b50505050505050565b611227612149565b73ffffffffffffffffffffffffffffffffffffffff1661124561172a565b73ffffffffffffffffffffffffffffffffffffffff161461129b576040517f08c379a00000000000000000000000000000000000000000000000000000000081526004016112929061452b565b60405180910390fd5b6001601060008373ffffffffffffffffffffffffffffffffffffffff1673ffffffffffffffffffffffffffffffffffffffff16815260200190815260200160002060006101000a81548160ff02191690831515021790555050565b61134a898989898080601f016020809104026020016040519081016040528093929190818152602001838380828437600081840152601f19601f820116905080830192505050505050508888888888612758565b505050505050505050565b61135d612149565b73ffffffffffffffffffffffffffffffffffffffff1661137b61172a565b73ffffffffffffffffffffffffffffffffffffffff16146113d1576040517f08c379a00000000000000000000000000000000000000000000000000000000081526004016113c89061452b565b60405180910390fd5b80600990805190602001906113e79291906134be565b5050565b600f60009054906101000a900460ff1681565b6000806005600084815260200190815260200160002060009054906101000a900473ffffffffffffffffffffffffffffffffffffffff169050600073ffffffffffffffffffffffffffffffffffffffff168173ffffffffffffffffffffffffffffffffffffffff1614156114a7576040517f08c379a000000000000000000000000000000000000000000000000000000000815260040161149e906149b0565b60405180910390fd5b80915050919050565b3073ffffffffffffffffffffffffffffffffffffffff166114cf612149565b73ffffffffffffffffffffffffffffffffffffffff1614611525576040517f08c379a000000000000000000000000000000000000000000000000000000000815260040161151c90614a42565b60405180910390fd5b6115318484848461295d565b50505050565b6060600160008361ffff1661ffff168152602001908152602001600020805461155f90614365565b80601f016020809104026020016040519081016040528092919081815260200182805461158b90614365565b80156115d85780601f106115ad576101008083540402835291602001916115d8565b820191906000526020600020905b8154815290600101906020018083116115bb57829003601f168201915b50505050509050919050565b600a5481565b60008073ffffffffffffffffffffffffffffffffffffffff168273ffffffffffffffffffffffffffffffffffffffff16141561165b576040517f08c379a000000000000000000000000000000000000000000000000000000000815260040161165290614ad4565b60405180910390fd5b600660008373ffffffffffffffffffffffffffffffffffffffff1673ffffffffffffffffffffffffffffffffffffffff168152602001908152602001600020549050919050565b6116aa612149565b73ffffffffffffffffffffffffffffffffffffffff166116c861172a565b73ffffffffffffffffffffffffffffffffffffffff161461171e576040517f08c379a00000000000000000000000000000000000000000000000000000000081526004016117159061452b565b60405180910390fd5b61172860006129dd565b565b60008060009054906101000a900473ffffffffffffffffffffffffffffffffffffffff16905090565b60026020528260005260406000208280516020810182018051848252602083016020850120818352809550505050505060205280600052604060002060009250925050505481565b6060600480546117aa90614365565b80601f01602080910402602001604051908101604052809291908181526020018280546117d690614365565b80156118235780601f106117f857610100808354040283529160200191611823565b820191906000526020600020905b81548152906001019060200180831161180657829003601f168201915b5050505050905090565b61183f611838612149565b8383612aa1565b5050565b61185461184e612149565b83612413565b611893576040517f08c379a000000000000000000000000000000000000000000000000000000000815260040161188a90614881565b60405180910390fd5b61189f84848484612c0e565b50505050565b60606118b0826122d0565b6118ef576040517f08c379a00000000000000000000000000000000000000000000000000000000081526004016118e690614b66565b60405180910390fd5b60006118f9612c6a565b905060008151116119195760405180602001604052806000815250611944565b8061192384612cfc565b604051602001611934929190614bc2565b6040516020818303038152906040525b915050919050565b611954612149565b73ffffffffffffffffffffffffffffffffffffffff1661197261172a565b73ffffffffffffffffffffffffffffffffffffffff16146119c8576040517f08c379a00000000000000000000000000000000000000000000000000000000081526004016119bf9061452b565b60405180910390fd5b7f000000000000000000000000000000000000000000000000000000000000000073ffffffffffffffffffffffffffffffffffffffff1663cbed8b9c86868686866040518663ffffffff1660e01b8152600401611a29959493929190614be6565b600060405180830381600087803b158015611a4357600080fd5b505af1158015611a57573d6000803e3d6000fd5b505050505050505050565b6000600260008761ffff1661ffff16815260200190815260200160002085604051611a8d9190614c65565b908152602001604051809103902060008567ffffffffffffffff1681526020019081526020016000205490506000801b811415611aff576040517f08c379a0000000000000000000000000000000000000000000000000000000008152600401611af690614cc8565b60405180910390fd5b808383604051611b109291906148c6565b604051809103902014611b58576040517f08c379a0000000000000000000000000000000000000000000000000000000008152600401611b4f90614d34565b60405180910390fd5b6000801b600260008861ffff1661ffff16815260200190815260200160002086604051611b859190614c65565b908152602001604051809103902060008667ffffffffffffffff168152602001908152602001600020819055503073ffffffffffffffffffffffffffffffffffffffff166366ad5c8a87878787876040518663ffffffff1660e01b8152600401611bf3959493929190614d63565b600060405180830381600087803b158015611c0d57600080fd5b505af1158015611c21573d6000803e3d6000fd5b50505050505050505050565b60098054611c3a90614365565b80601f0160208091040260200160405190810160405280929190818152602001828054611c6690614365565b8015611cb35780601f10611c8857610100808354040283529160200191611cb3565b820191906000526020600020905b815481529060010190602001808311611c9657829003601f168201915b505050505081565b60106020528060005260406000206000915054906101000a900460ff1681565b60007f0000000000000000000000000000000000000000000000000000000000000000905090565b600b5481565b6000600860008473ffffffffffffffffffffffffffffffffffffffff1673ffffffffffffffffffffffffffffffffffffffff16815260200190815260200160002060008373ffffffffffffffffffffffffffffffffffffffff1673ffffffffffffffffffffffffffffffffffffffff16815260200190815260200160002060009054906101000a900460ff16905092915050565b611da5612149565b73ffffffffffffffffffffffffffffffffffffffff16611dc361172a565b73ffffffffffffffffffffffffffffffffffffffff1614611e19576040517f08c379a0000000000000000000000000000000000000000000000000000000008152600401611e109061452b565b60405180910390fd5b8181600160008661ffff1661ffff1681526020019081526020016000209190611e43929190613544565b507ffa41487ad5d6728f0b19276fa1eddc16558578f5109fc39d2dc33c3230470dab838383604051611e779392919061490c565b60405180910390a1505050565b611edf611e8f612149565b8989898080601f016020809104026020016040519081016040528093929190818152602001838380828437600081840152601f19601f820116905080830192505050505050508888888888612758565b5050505050505050565b611ef1612149565b73ffffffffffffffffffffffffffffffffffffffff16611f0f61172a565b73ffffffffffffffffffffffffffffffffffffffff1614611f65576040517f08c379a0000000000000000000000000000000000000000000000000000000008152600401611f5c9061452b565b60405180910390fd5b600073ffffffffffffffffffffffffffffffffffffffff168173ffffffffffffffffffffffffffffffffffffffff161415611fd5576040517f08c379a0000000000000000000000000000000000000000000000000000000008152600401611fcc90614e2a565b60405180910390fd5b611fde816129dd565b50565b60607f000000000000000000000000000000000000000000000000000000000000000073ffffffffffffffffffffffffffffffffffffffff1663f5ecbdbc7f000000000000000000000000000000000000000000000000000000000000000073ffffffffffffffffffffffffffffffffffffffff1663096568f6306040518263ffffffff1660e01b81526004016120789190613a90565b60206040518083038186803b15801561209057600080fd5b505afa1580156120a4573d6000803e3d6000fd5b505050506040513d601f19601f820116820180604052508101906120c89190614e5f565b8630866040518563ffffffff1660e01b81526004016120ea9493929190614e8c565b60006040518083038186803b15801561210257600080fd5b505afa158015612116573d6000803e3d6000fd5b505050506040513d6000823e3d601f19601f8201168201806040525081019061213f9190614f41565b9050949350505050565b600033905090565b3073ffffffffffffffffffffffffffffffffffffffff166366ad5c8a858585856040518563ffffffff1660e01b81526004016121909493929190614f8a565b600060405180830381600087803b1580156121aa57600080fd5b505af19250505080156121bb575060015b61225f578080519060200120600260008661ffff1661ffff168152602001908152602001600020846040516121f09190614c65565b908152602001604051809103902060008467ffffffffffffffff168152602001908152602001600020819055507fe6f254030bcb01ffd20558175c13fcaed6d1520be7becee4c961b65f79243b0d848484846040516122529493929190614f8a565b60405180910390a1612260565b5b50505050565b60007f01ffc9a7000000000000000000000000000000000000000000000000000000007bffffffffffffffffffffffffffffffffffffffffffffffffffffffff1916827bffffffffffffffffffffffffffffffffffffffffffffffffffffffff1916149050919050565b60008073ffffffffffffffffffffffffffffffffffffffff166005600084815260200190815260200160002060009054906101000a900473ffffffffffffffffffffffffffffffffffffffff1673ffffffffffffffffffffffffffffffffffffffff1614159050919050565b816007600083815260200190815260200160002060006101000a81548173ffffffffffffffffffffffffffffffffffffffff021916908373ffffffffffffffffffffffffffffffffffffffff160217905550808273ffffffffffffffffffffffffffffffffffffffff166123af836113fe565b73ffffffffffffffffffffffffffffffffffffffff167f8c5be1e5ebec7d5bd14f71427d1e84f3dd0314c0f7b2291e5b200ac8c7c3b92560405160405180910390a45050565b61240f828260405180602001604052806000815250612e5d565b5050565b600061241e826122d0565b61245d576040517f08c379a00000000000000000000000000000000000000000000000000000000081526004016124549061504f565b60405180910390fd5b6000612468836113fe565b90508073ffffffffffffffffffffffffffffffffffffffff168473ffffffffffffffffffffffffffffffffffffffff1614806124d757508373ffffffffffffffffffffffffffffffffffffffff166124bf84610ca1565b73ffffffffffffffffffffffffffffffffffffffff16145b806124e857506124e78185611d09565b5b91505092915050565b8273ffffffffffffffffffffffffffffffffffffffff16612511826113fe565b73ffffffffffffffffffffffffffffffffffffffff1614612567576040517f08c379a000000000000000000000000000000000000000000000000000000000815260040161255e906150e1565b60405180910390fd5b600073ffffffffffffffffffffffffffffffffffffffff168273ffffffffffffffffffffffffffffffffffffffff1614156125d7576040517f08c379a00000000000000000000000000000000000000000000000000000000081526004016125ce90615173565b60405180910390fd5b6125e2838383612eb8565b6125ed60008261233c565b6001600660008573ffffffffffffffffffffffffffffffffffffffff1673ffffffffffffffffffffffffffffffffffffffff168152602001908152602001600020600082825461263d9190615193565b925050819055506001600660008473ffffffffffffffffffffffffffffffffffffffff1673ffffffffffffffffffffffffffffffffffffffff168152602001908152602001600020600082825461269491906151c7565b92505081905550816005600083815260200190815260200160002060006101000a81548173ffffffffffffffffffffffffffffffffffffffff021916908373ffffffffffffffffffffffffffffffffffffffff160217905550808273ffffffffffffffffffffffffffffffffffffffff168473ffffffffffffffffffffffffffffffffffffffff167fddf252ad1be2c89b69c2b068fc378daa952ba7f163c4a11628f55a4df523b3ef60405160405180910390a4612753838383612ebd565b505050565b612769612763612149565b86612413565b6127a8576040517f08c379a000000000000000000000000000000000000000000000000000000000815260040161279f90614881565b60405180910390fd5b6127b488888888612ec2565b600086866040516020016127c992919061521d565b604051602081830303815290604052905061282b8882878787878080601f016020809104026020016040519081016040528093929190818152602001838380828437600081840152601f19601f82011690508083019250505050505050612ed1565b60007f000000000000000000000000000000000000000000000000000000000000000073ffffffffffffffffffffffffffffffffffffffff16637a1457488a306040518363ffffffff1660e01b815260040161288892919061524d565b60206040518083038186803b1580156128a057600080fd5b505afa1580156128b4573d6000803e3d6000fd5b505050506040513d601f19601f820116820180604052508101906128d8919061528b565b9050876040516128e89190614c65565b60405180910390208961ffff168b73ffffffffffffffffffffffffffffffffffffffff167f024797cc77ce15dc717112d54fb1df125fdfd8c81344fb046c5e074427ce15438a8560405161293d9291906152b8565b60405180910390a46129518a8a8a8a612ff3565b50505050505050505050565b612968848483612ff9565b6000808280602001905181019061297f91906152f6565b91509150600060148301519050612997878284612ffe565b7fd4d39d20f72eabd06c301e516d54653dfc9116de62c1d54bf1cb48cf3b42a7db878284886040516129cc9493929190615352565b60405180910390a150505050505050565b60008060009054906101000a900473ffffffffffffffffffffffffffffffffffffffff169050816000806101000a81548173ffffffffffffffffffffffffffffffffffffffff021916908373ffffffffffffffffffffffffffffffffffffffff1602179055508173ffffffffffffffffffffffffffffffffffffffff168173ffffffffffffffffffffffffffffffffffffffff167f8be0079c531659141344cd1fd0a4f28419497f9722a3daafe3b4186f6b6457e060405160405180910390a35050565b8173ffffffffffffffffffffffffffffffffffffffff168373ffffffffffffffffffffffffffffffffffffffff161415612b10576040517f08c379a0000000000000000000000000000000000000000000000000000000008152600401612b07906153e3565b60405180910390fd5b80600860008573ffffffffffffffffffffffffffffffffffffffff1673ffffffffffffffffffffffffffffffffffffffff16815260200190815260200160002060008473ffffffffffffffffffffffffffffffffffffffff1673ffffffffffffffffffffffffffffffffffffffff16815260200190815260200160002060006101000a81548160ff0219169083151502179055508173ffffffffffffffffffffffffffffffffffffffff168373ffffffffffffffffffffffffffffffffffffffff167f17307eab39ab6107e8899845ad3d59bd9653f200f220920489ca2b5937696c3183604051612c0191906138fa565b60405180910390a3505050565b612c198484846124f1565b612c258484848461300d565b612c64576040517f08c379a0000000000000000000000000000000000000000000000000000000008152600401612c5b90615475565b60405180910390fd5b50505050565b606060098054612c7990614365565b80601f0160208091040260200160405190810160405280929190818152602001828054612ca590614365565b8015612cf25780601f10612cc757610100808354040283529160200191612cf2565b820191906000526020600020905b815481529060010190602001808311612cd557829003601f168201915b5050505050905090565b60606000821415612d44576040518060400160405280600181526020017f30000000000000000000000000000000000000000000000000000000000000008152509050612e58565b600082905060005b60008214612d76578080612d5f906147c6565b915050600a82612d6f91906154c4565b9150612d4c565b60008167ffffffffffffffff811115612d9257612d91613650565b5b6040519080825280601f01601f191660200182016040528015612dc45781602001600182028036833780820191505090505b5090505b60008514612e5157600182612ddd9190615193565b9150600a85612dec91906154f5565b6030612df891906151c7565b60f81b818381518110612e0e57612e0d615526565b5b60200101907effffffffffffffffffffffffffffffffffffffffffffffffffffffffffffff1916908160001a905350600a85612e4a91906154c4565b9450612dc8565b8093505050505b919050565b612e6783836131a4565b612e74600084848461300d565b612eb3576040517f08c379a0000000000000000000000000000000000000000000000000000000008152600401612eaa90615475565b60405180910390fd5b505050565b505050565b505050565b612ecb8161337e565b50505050565b6000600160008761ffff1661ffff1681526020019081526020016000208054612ef990614365565b90501415612f3c576040517f08c379a0000000000000000000000000000000000000000000000000000000008152600401612f33906155c7565b60405180910390fd5b7f000000000000000000000000000000000000000000000000000000000000000073ffffffffffffffffffffffffffffffffffffffff1663c58031003487600160008a61ffff1661ffff168152602001908152602001600020888888886040518863ffffffff1660e01b8152600401612fba96959493929190615676565b6000604051808303818588803b158015612fd357600080fd5b505af1158015612fe7573d6000803e3d6000fd5b50505050505050505050565b50505050565b505050565b61300882826123f5565b505050565b600061302e8473ffffffffffffffffffffffffffffffffffffffff1661349b565b15613197578373ffffffffffffffffffffffffffffffffffffffff1663150b7a02613057612149565b8786866040518563ffffffff1660e01b815260040161307994939291906156ec565b602060405180830381600087803b15801561309357600080fd5b505af19250505080156130c457506040513d601f19601f820116820180604052508101906130c1919061574d565b60015b613147573d80600081146130f4576040519150601f19603f3d011682016040523d82523d6000602084013e6130f9565b606091505b5060008151141561313f576040517f08c379a000000000000000000000000000000000000000000000000000000000815260040161313690615475565b60405180910390fd5b805181602001fd5b63150b7a0260e01b7bffffffffffffffffffffffffffffffffffffffffffffffffffffffff1916817bffffffffffffffffffffffffffffffffffffffffffffffffffffffff19161491505061319c565b600190505b949350505050565b600073ffffffffffffffffffffffffffffffffffffffff168273ffffffffffffffffffffffffffffffffffffffff161415613214576040517f08c379a000000000000000000000000000000000000000000000000000000000815260040161320b906157c6565b60405180910390fd5b61321d816122d0565b1561325d576040517f08c379a000000000000000000000000000000000000000000000000000000000815260040161325490615832565b60405180910390fd5b61326960008383612eb8565b6001600660008473ffffffffffffffffffffffffffffffffffffffff1673ffffffffffffffffffffffffffffffffffffffff16815260200190815260200160002060008282546132b991906151c7565b92505081905550816005600083815260200190815260200160002060006101000a81548173ffffffffffffffffffffffffffffffffffffffff021916908373ffffffffffffffffffffffffffffffffffffffff160217905550808273ffffffffffffffffffffffffffffffffffffffff16600073ffffffffffffffffffffffffffffffffffffffff167fddf252ad1be2c89b69c2b068fc378daa952ba7f163c4a11628f55a4df523b3ef60405160405180910390a461337a60008383612ebd565b5050565b6000613389826113fe565b905061339781600084612eb8565b6133a260008361233c565b6001600660008373ffffffffffffffffffffffffffffffffffffffff1673ffffffffffffffffffffffffffffffffffffffff16815260200190815260200160002060008282546133f29190615193565b925050819055506005600083815260200190815260200160002060006101000a81549073ffffffffffffffffffffffffffffffffffffffff021916905581600073ffffffffffffffffffffffffffffffffffffffff168273ffffffffffffffffffffffffffffffffffffffff167fddf252ad1be2c89b69c2b068fc378daa952ba7f163c4a11628f55a4df523b3ef60405160405180910390a461349781600084612ebd565b5050565b6000808273ffffffffffffffffffffffffffffffffffffffff163b119050919050565b8280546134ca90614365565b90600052602060002090601f0160209004810192826134ec5760008555613533565b82601f1061350557805160ff1916838001178555613533565b82800160010185558215613533579182015b82811115613532578251825591602001919060010190613517565b5b50905061354091906135ca565b5090565b82805461355090614365565b90600052602060002090601f01602090048101928261357257600085556135b9565b82601f1061358b57803560ff19168380011785556135b9565b828001600101855582156135b9579182015b828111156135b857823582559160200191906001019061359d565b5b5090506135c691906135ca565b5090565b5b808211156135e35760008160009055506001016135cb565b5090565b6000604051905090565b600080fd5b600080fd5b600061ffff82169050919050565b613612816135fb565b811461361d57600080fd5b50565b60008135905061362f81613609565b92915050565b600080fd5b600080fd5b6000601f19601f8301169050919050565b7f4e487b7100000000000000000000000000000000000000000000000000000000600052604160045260246000fd5b6136888261363f565b810181811067ffffffffffffffff821117156136a7576136a6613650565b5b80604052505050565b60006136ba6135e7565b90506136c6828261367f565b919050565b600067ffffffffffffffff8211156136e6576136e5613650565b5b6136ef8261363f565b9050602081019050919050565b82818337600083830152505050565b600061371e613719846136cb565b6136b0565b90508281526020810184848401111561373a5761373961363a565b5b6137458482856136fc565b509392505050565b600082601f83011261376257613761613635565b5b813561377284826020860161370b565b91505092915050565b600067ffffffffffffffff82169050919050565b6137988161377b565b81146137a357600080fd5b50565b6000813590506137b58161378f565b92915050565b600080600080608085870312156137d5576137d46135f1565b5b60006137e387828801613620565b945050602085013567ffffffffffffffff811115613804576138036135f6565b5b6138108782880161374d565b9350506040613821878288016137a6565b925050606085013567ffffffffffffffff811115613842576138416135f6565b5b61384e8782880161374d565b91505092959194509250565b60007fffffffff0000000000000000000000000000000000000000000000000000000082169050919050565b61388f8161385a565b811461389a57600080fd5b50565b6000813590506138ac81613886565b92915050565b6000602082840312156138c8576138c76135f1565b5b60006138d68482850161389d565b91505092915050565b60008115159050919050565b6138f4816138df565b82525050565b600060208201905061390f60008301846138eb565b92915050565b600081519050919050565b600082825260208201905092915050565b60005b8381101561394f578082015181840152602081019050613934565b8381111561395e576000848401525b50505050565b600061396f82613915565b6139798185613920565b9350613989818560208601613931565b6139928161363f565b840191505092915050565b600060208201905081810360008301526139b78184613964565b905092915050565b6000602082840312156139d5576139d46135f1565b5b60006139e384828501613620565b91505092915050565b6000819050919050565b6139ff816139ec565b8114613a0a57600080fd5b50565b600081359050613a1c816139f6565b92915050565b600060208284031215613a3857613a376135f1565b5b6000613a4684828501613a0d565b91505092915050565b600073ffffffffffffffffffffffffffffffffffffffff82169050919050565b6000613a7a82613a4f565b9050919050565b613a8a81613a6f565b82525050565b6000602082019050613aa56000830184613a81565b92915050565b613ab481613a6f565b8114613abf57600080fd5b50565b600081359050613ad181613aab565b92915050565b60008060408385031215613aee57613aed6135f1565b5b6000613afc85828601613ac2565b9250506020613b0d85828601613a0d565b9150509250929050565b600080600060608486031215613b3057613b2f6135f1565b5b6000613b3e86828701613ac2565b9350506020613b4f86828701613ac2565b9250506040613b6086828701613a0d565b9150509250925092565b600080fd5b600080fd5b60008083601f840112613b8a57613b89613635565b5b8235905067ffffffffffffffff811115613ba757613ba6613b6a565b5b602083019150836001820283011115613bc357613bc2613b6f565b5b9250929050565b600080600060408486031215613be357613be26135f1565b5b6000613bf186828701613620565b935050602084013567ffffffffffffffff811115613c1257613c116135f6565b5b613c1e86828701613b74565b92509250509250925092565b600060208284031215613c4057613c3f6135f1565b5b6000613c4e84828501613ac2565b91505092915050565b6000613c6282613a4f565b9050919050565b613c7281613c57565b8114613c7d57600080fd5b50565b600081359050613c8f81613c69565b92915050565b600080600080600080600080600060e08a8c031215613cb757613cb66135f1565b5b6000613cc58c828d01613ac2565b9950506020613cd68c828d01613620565b98505060408a013567ffffffffffffffff811115613cf757613cf66135f6565b5b613d038c828d01613b74565b97509750506060613d168c828d01613a0d565b9550506080613d278c828d01613c80565b94505060a0613d388c828d01613ac2565b93505060c08a013567ffffffffffffffff811115613d5957613d586135f6565b5b613d658c828d01613b74565b92509250509295985092959850929598565b600067ffffffffffffffff821115613d9257613d91613650565b5b613d9b8261363f565b9050602081019050919050565b6000613dbb613db684613d77565b6136b0565b905082815260208101848484011115613dd757613dd661363a565b5b613de28482856136fc565b509392505050565b600082601f830112613dff57613dfe613635565b5b8135613e0f848260208601613da8565b91505092915050565b600060208284031215613e2e57613e2d6135f1565b5b600082013567ffffffffffffffff811115613e4c57613e4b6135f6565b5b613e5884828501613dea565b91505092915050565b600081519050919050565b600082825260208201905092915050565b6000613e8882613e61565b613e928185613e6c565b9350613ea2818560208601613931565b613eab8161363f565b840191505092915050565b60006020820190508181036000830152613ed08184613e7d565b905092915050565b613ee1816139ec565b82525050565b6000602082019050613efc6000830184613ed8565b92915050565b600080600060608486031215613f1b57613f1a6135f1565b5b6000613f2986828701613620565b935050602084013567ffffffffffffffff811115613f4a57613f496135f6565b5b613f568682870161374d565b9250506040613f6786828701613a0d565b9150509250925092565b6000819050919050565b613f8481613f71565b82525050565b6000602082019050613f9f6000830184613f7b565b92915050565b613fae816138df565b8114613fb957600080fd5b50565b600081359050613fcb81613fa5565b92915050565b60008060408385031215613fe857613fe76135f1565b5b6000613ff685828601613ac2565b925050602061400785828601613fbc565b9150509250929050565b6000806000806080858703121561402b5761402a6135f1565b5b600061403987828801613ac2565b945050602061404a87828801613ac2565b935050604061405b87828801613a0d565b925050606085013567ffffffffffffffff81111561407c5761407b6135f6565b5b6140888782880161374d565b91505092959194509250565b6000806000806000608086880312156140b0576140af6135f1565b5b60006140be88828901613620565b95505060206140cf88828901613620565b94505060406140e088828901613a0d565b935050606086013567ffffffffffffffff811115614101576141006135f6565b5b61410d88828901613b74565b92509250509295509295909350565b600080600080600060808688031215614138576141376135f1565b5b600061414688828901613620565b955050602086013567ffffffffffffffff811115614167576141666135f6565b5b6141738882890161374d565b9450506040614184888289016137a6565b935050606086013567ffffffffffffffff8111156141a5576141a46135f6565b5b6141b188828901613b74565b92509250509295509295909350565b600080604083850312156141d7576141d66135f1565b5b60006141e585828601613ac2565b92505060206141f685828601613ac2565b9150509250929050565b60008060008060008060008060c0898b0312156142205761421f6135f1565b5b600061422e8b828c01613620565b985050602089013567ffffffffffffffff81111561424f5761424e6135f6565b5b61425b8b828c01613b74565b9750975050604061426e8b828c01613a0d565b955050606061427f8b828c01613c80565b94505060806142908b828c01613ac2565b93505060a089013567ffffffffffffffff8111156142b1576142b06135f6565b5b6142bd8b828c01613b74565b92509250509295985092959890939650565b600080600080608085870312156142e9576142e86135f1565b5b60006142f787828801613620565b945050602061430887828801613620565b935050604061431987828801613ac2565b925050606061432a87828801613a0d565b91505092959194509250565b7f4e487b7100000000000000000000000000000000000000000000000000000000600052602260045260246000fd5b6000600282049050600182168061437d57607f821691505b6020821081141561439157614390614336565b5b50919050565b600081905092915050565b60008190508160005260206000209050919050565b600081546143c481614365565b6143ce8186614397565b945060018216600081146143e957600181146143fa5761442d565b60ff1983168652818601935061442d565b614403856143a2565b60005b8381101561442557815481890152600182019150602081019050614406565b838801955050505b50505092915050565b600061444282846143b7565b915081905092915050565b7f4c7a52656365697665723a20696e76616c696420736f757263652073656e646960008201527f6e6720636f6e7472616374000000000000000000000000000000000000000000602082015250565b60006144a9602b83613920565b91506144b48261444d565b604082019050919050565b600060208201905081810360008301526144d88161449c565b9050919050565b7f4f776e61626c653a2063616c6c6572206973206e6f7420746865206f776e6572600082015250565b6000614515602083613920565b9150614520826144df565b602082019050919050565b6000602082019050818103600083015261454481614508565b9050919050565b614554816135fb565b82525050565b600060208201905061456f600083018461454b565b92915050565b7f4552433732313a20617070726f76656420717565727920666f72206e6f6e657860008201527f697374656e7420746f6b656e0000000000000000000000000000000000000000602082015250565b60006145d1602c83613920565b91506145dc82614575565b604082019050919050565b60006020820190508181036000830152614600816145c4565b9050919050565b7f4552433732313a20617070726f76616c20746f2063757272656e74206f776e6560008201527f7200000000000000000000000000000000000000000000000000000000000000602082015250565b6000614663602183613920565b915061466e82614607565b604082019050919050565b6000602082019050818103600083015261469281614656565b9050919050565b7f4552433732313a20617070726f76652063616c6c6572206973206e6f74206f7760008201527f6e6572206e6f7220617070726f76656420666f7220616c6c0000000000000000602082015250565b60006146f5603883613920565b915061470082614699565b604082019050919050565b60006020820190508181036000830152614724816146e8565b9050919050565b7f4f4e46543a204d6178204d696e74206c696d6974207265616368656400000000600082015250565b6000614761601c83613920565b915061476c8261472b565b602082019050919050565b6000602082019050818103600083015261479081614754565b9050919050565b7f4e487b7100000000000000000000000000000000000000000000000000000000600052601160045260246000fd5b60006147d1826139ec565b91507fffffffffffffffffffffffffffffffffffffffffffffffffffffffffffffffff82141561480457614803614797565b5b600182019050919050565b7f4552433732313a207472616e736665722063616c6c6572206973206e6f74206f60008201527f776e6572206e6f7220617070726f766564000000000000000000000000000000602082015250565b600061486b603183613920565b91506148768261480f565b604082019050919050565b6000602082019050818103600083015261489a8161485e565b9050919050565b60006148ad8385614397565b93506148ba8385846136fc565b82840190509392505050565b60006148d38284866148a1565b91508190509392505050565b60006148eb8385613e6c565b93506148f88385846136fc565b6149018361363f565b840190509392505050565b6000604082019050614921600083018661454b565b81810360208301526149348184866148df565b9050949350505050565b7f4552433732313a206f776e657220717565727920666f72206e6f6e657869737460008201527f656e7420746f6b656e0000000000000000000000000000000000000000000000602082015250565b600061499a602983613920565b91506149a58261493e565b604082019050919050565b600060208201905081810360008301526149c98161498d565b9050919050565b7f4c7a52656365697665723a2063616c6c6572206d75737420626520427269646760008201527f652e000000000000000000000000000000000000000000000000000000000000602082015250565b6000614a2c602283613920565b9150614a37826149d0565b604082019050919050565b60006020820190508181036000830152614a5b81614a1f565b9050919050565b7f4552433732313a2062616c616e636520717565727920666f7220746865207a6560008201527f726f206164647265737300000000000000000000000000000000000000000000602082015250565b6000614abe602a83613920565b9150614ac982614a62565b604082019050919050565b60006020820190508181036000830152614aed81614ab1565b9050919050565b7f4552433732314d657461646174613a2055524920717565727920666f72206e6f60008201527f6e6578697374656e7420746f6b656e0000000000000000000000000000000000602082015250565b6000614b50602f83613920565b9150614b5b82614af4565b604082019050919050565b60006020820190508181036000830152614b7f81614b43565b9050919050565b600081905092915050565b6000614b9c82613915565b614ba68185614b86565b9350614bb6818560208601613931565b80840191505092915050565b6000614bce8285614b91565b9150614bda8284614b91565b91508190509392505050565b6000608082019050614bfb600083018861454b565b614c08602083018761454b565b614c156040830186613ed8565b8181036060830152614c288184866148df565b90509695505050505050565b6000614c3f82613e61565b614c498185614397565b9350614c59818560208601613931565b80840191505092915050565b6000614c718284614c34565b915081905092915050565b7f4c7a52656365697665723a206e6f2073746f726564206d657373616765000000600082015250565b6000614cb2601d83613920565b9150614cbd82614c7c565b602082019050919050565b60006020820190508181036000830152614ce181614ca5565b9050919050565b7f4c7a52656365697665723a20696e76616c6964207061796c6f61640000000000600082015250565b6000614d1e601b83613920565b9150614d2982614ce8565b602082019050919050565b60006020820190508181036000830152614d4d81614d11565b9050919050565b614d5d8161377b565b82525050565b6000608082019050614d78600083018861454b565b8181036020830152614d8a8187613e7d565b9050614d996040830186614d54565b8181036060830152614dac8184866148df565b90509695505050505050565b7f4f776e61626c653a206e6577206f776e657220697320746865207a65726f206160008201527f6464726573730000000000000000000000000000000000000000000000000000602082015250565b6000614e14602683613920565b9150614e1f82614db8565b604082019050919050565b60006020820190508181036000830152614e4381614e07565b9050919050565b600081519050614e5981613609565b92915050565b600060208284031215614e7557614e746135f1565b5b6000614e8384828501614e4a565b91505092915050565b6000608082019050614ea1600083018761454b565b614eae602083018661454b565b614ebb6040830185613a81565b614ec86060830184613ed8565b95945050505050565b6000614ee4614edf846136cb565b6136b0565b905082815260208101848484011115614f0057614eff61363a565b5b614f0b848285613931565b509392505050565b600082601f830112614f2857614f27613635565b5b8151614f38848260208601614ed1565b91505092915050565b600060208284031215614f5757614f566135f1565b5b600082015167ffffffffffffffff811115614f7557614f746135f6565b5b614f8184828501614f13565b91505092915050565b6000608082019050614f9f600083018761454b565b8181036020830152614fb18186613e7d565b9050614fc06040830185614d54565b8181036060830152614fd28184613e7d565b905095945050505050565b7f4552433732313a206f70657261746f7220717565727920666f72206e6f6e657860008201527f697374656e7420746f6b656e0000000000000000000000000000000000000000602082015250565b6000615039602c83613920565b915061504482614fdd565b604082019050919050565b600060208201905081810360008301526150688161502c565b9050919050565b7f4552433732313a207472616e736665722066726f6d20696e636f72726563742060008201527f6f776e6572000000000000000000000000000000000000000000000000000000602082015250565b60006150cb602583613920565b91506150d68261506f565b604082019050919050565b600060208201905081810360008301526150fa816150be565b9050919050565b7f4552433732313a207472616e7366657220746f20746865207a65726f2061646460008201527f7265737300000000000000000000000000000000000000000000000000000000602082015250565b600061515d602483613920565b915061516882615101565b604082019050919050565b6000602082019050818103600083015261518c81615150565b9050919050565b600061519e826139ec565b91506151a9836139ec565b9250828210156151bc576151bb614797565b5b828203905092915050565b60006151d2826139ec565b91506151dd836139ec565b9250827fffffffffffffffffffffffffffffffffffffffffffffffffffffffffffffffff0382111561521257615211614797565b5b828201905092915050565b600060408201905081810360008301526152378185613e7d565b90506152466020830184613ed8565b9392505050565b6000604082019050615262600083018561454b565b61526f6020830184613a81565b9392505050565b6000815190506152858161378f565b92915050565b6000602082840312156152a1576152a06135f1565b5b60006152af84828501615276565b91505092915050565b60006040820190506152cd6000830185613ed8565b6152da6020830184614d54565b9392505050565b6000815190506152f0816139f6565b92915050565b6000806040838503121561530d5761530c6135f1565b5b600083015167ffffffffffffffff81111561532b5761532a6135f6565b5b61533785828601614f13565b9250506020615348858286016152e1565b9150509250929050565b6000608082019050615367600083018761454b565b6153746020830186613a81565b6153816040830185613ed8565b61538e6060830184614d54565b95945050505050565b7f4552433732313a20617070726f766520746f2063616c6c657200000000000000600082015250565b60006153cd601983613920565b91506153d882615397565b602082019050919050565b600060208201905081810360008301526153fc816153c0565b9050919050565b7f4552433732313a207472616e7366657220746f206e6f6e20455243373231526560008201527f63656976657220696d706c656d656e7465720000000000000000000000000000602082015250565b600061545f603283613920565b915061546a82615403565b604082019050919050565b6000602082019050818103600083015261548e81615452565b9050919050565b7f4e487b7100000000000000000000000000000000000000000000000000000000600052601260045260246000fd5b60006154cf826139ec565b91506154da836139ec565b9250826154ea576154e9615495565b5b828204905092915050565b6000615500826139ec565b915061550b836139ec565b92508261551b5761551a615495565b5b828206905092915050565b7f4e487b7100000000000000000000000000000000000000000000000000000000600052603260045260246000fd5b7f4c7a53656e643a2064657374696e6174696f6e20636861696e206973206e6f7460008201527f2061207472757374656420736f757263652e0000000000000000000000000000602082015250565b60006155b1603283613920565b91506155bc82615555565b604082019050919050565b600060208201905081810360008301526155e0816155a4565b9050919050565b600081546155f481614365565b6155fe8186613e6c565b94506001821660008114615619576001811461562b5761565e565b60ff198316865260208601935061565e565b615634856143a2565b60005b8381101561565657815481890152600182019150602081019050615637565b808801955050505b50505092915050565b61567081613c57565b82525050565b600060c08201905061568b600083018961454b565b818103602083015261569d81886155e7565b905081810360408301526156b18187613e7d565b90506156c06060830186615667565b6156cd6080830185613a81565b81810360a08301526156df8184613e7d565b9050979650505050505050565b60006080820190506157016000830187613a81565b61570e6020830186613a81565b61571b6040830185613ed8565b818103606083015261572d8184613e7d565b905095945050505050565b60008151905061574781613886565b92915050565b600060208284031215615763576157626135f1565b5b600061577184828501615738565b91505092915050565b7f4552433732313a206d696e7420746f20746865207a65726f2061646472657373600082015250565b60006157b0602083613920565b91506157bb8261577a565b602082019050919050565b600060208201905081810360008301526157df816157a3565b9050919050565b7f4552433732313a20746f6b656e20616c7265616479206d696e74656400000000600082015250565b600061581c601c83613920565b9150615827826157e6565b602082019050919050565b6000602082019050818103600083015261584b8161580f565b905091905056fea26469706673582212206a102351fa7f71f9f5c3ad6156ddc08e848af96b1cadf13f4d2ce0cd56a710ee64736f6c63430008090033",
			"opcodes": "PUSH1 0xA0 PUSH1 0x40 MSTORE PUSH1 0x0 PUSH1 0xC SSTORE PUSH1 0x0 PUSH1 0xD SSTORE PUSH2 0x3E8 PUSH1 0xE SSTORE PUSH1 0x0 PUSH1 0xF PUSH1 0x0 PUSH2 0x100 EXP DUP2 SLOAD DUP2 PUSH1 0xFF MUL NOT AND SWAP1 DUP4 ISZERO ISZERO MUL OR SWAP1 SSTORE POP CALLVALUE DUP1 ISZERO PUSH3 0x3C JUMPI PUSH1 0x0 DUP1 REVERT JUMPDEST POP PUSH1 0x40 MLOAD PUSH3 0x5ED6 CODESIZE SUB DUP1 PUSH3 0x5ED6 DUP4 CODECOPY DUP2 DUP2 ADD PUSH1 0x40 MSTORE DUP2 ADD SWAP1 PUSH3 0x62 SWAP2 SWAP1 PUSH3 0x4C8 JUMP JUMPDEST DUP5 DUP5 DUP5 DUP3 DUP3 DUP3 DUP1 PUSH3 0x89 PUSH3 0x7D PUSH3 0x10F PUSH1 0x20 SHL PUSH1 0x20 SHR JUMP JUMPDEST PUSH3 0x117 PUSH1 0x20 SHL PUSH1 0x20 SHR JUMP JUMPDEST DUP1 PUSH20 0xFFFFFFFFFFFFFFFFFFFFFFFFFFFFFFFFFFFFFFFF AND PUSH1 0x80 DUP2 PUSH20 0xFFFFFFFFFFFFFFFFFFFFFFFFFFFFFFFFFFFFFFFF AND DUP2 MSTORE POP POP POP POP DUP2 PUSH1 0x3 SWAP1 DUP1 MLOAD SWAP1 PUSH1 0x20 ADD SWAP1 PUSH3 0xD7 SWAP3 SWAP2 SWAP1 PUSH3 0x1DB JUMP JUMPDEST POP DUP1 PUSH1 0x4 SWAP1 DUP1 MLOAD SWAP1 PUSH1 0x20 ADD SWAP1 PUSH3 0xF0 SWAP3 SWAP2 SWAP1 PUSH3 0x1DB JUMP JUMPDEST POP POP POP POP POP POP DUP2 PUSH1 0xA DUP2 SWAP1 SSTORE POP DUP1 PUSH1 0xB DUP2 SWAP1 SSTORE POP POP POP POP POP POP PUSH3 0x5F3 JUMP JUMPDEST PUSH1 0x0 CALLER SWAP1 POP SWAP1 JUMP JUMPDEST PUSH1 0x0 DUP1 PUSH1 0x0 SWAP1 SLOAD SWAP1 PUSH2 0x100 EXP SWAP1 DIV PUSH20 0xFFFFFFFFFFFFFFFFFFFFFFFFFFFFFFFFFFFFFFFF AND SWAP1 POP DUP2 PUSH1 0x0 DUP1 PUSH2 0x100 EXP DUP2 SLOAD DUP2 PUSH20 0xFFFFFFFFFFFFFFFFFFFFFFFFFFFFFFFFFFFFFFFF MUL NOT AND SWAP1 DUP4 PUSH20 0xFFFFFFFFFFFFFFFFFFFFFFFFFFFFFFFFFFFFFFFF AND MUL OR SWAP1 SSTORE POP DUP2 PUSH20 0xFFFFFFFFFFFFFFFFFFFFFFFFFFFFFFFFFFFFFFFF AND DUP2 PUSH20 0xFFFFFFFFFFFFFFFFFFFFFFFFFFFFFFFFFFFFFFFF AND PUSH32 0x8BE0079C531659141344CD1FD0A4F28419497F9722A3DAAFE3B4186F6B6457E0 PUSH1 0x40 MLOAD PUSH1 0x40 MLOAD DUP1 SWAP2 SUB SWAP1 LOG3 POP POP JUMP JUMPDEST DUP3 DUP1 SLOAD PUSH3 0x1E9 SWAP1 PUSH3 0x5BD JUMP JUMPDEST SWAP1 PUSH1 0x0 MSTORE PUSH1 0x20 PUSH1 0x0 KECCAK256 SWAP1 PUSH1 0x1F ADD PUSH1 0x20 SWAP1 DIV DUP2 ADD SWAP3 DUP3 PUSH3 0x20D JUMPI PUSH1 0x0 DUP6 SSTORE PUSH3 0x259 JUMP JUMPDEST DUP3 PUSH1 0x1F LT PUSH3 0x228 JUMPI DUP1 MLOAD PUSH1 0xFF NOT AND DUP4 DUP1 ADD OR DUP6 SSTORE PUSH3 0x259 JUMP JUMPDEST DUP3 DUP1 ADD PUSH1 0x1 ADD DUP6 SSTORE DUP3 ISZERO PUSH3 0x259 JUMPI SWAP2 DUP3 ADD JUMPDEST DUP3 DUP2 GT ISZERO PUSH3 0x258 JUMPI DUP3 MLOAD DUP3 SSTORE SWAP2 PUSH1 0x20 ADD SWAP2 SWAP1 PUSH1 0x1 ADD SWAP1 PUSH3 0x23B JUMP JUMPDEST JUMPDEST POP SWAP1 POP PUSH3 0x268 SWAP2 SWAP1 PUSH3 0x26C JUMP JUMPDEST POP SWAP1 JUMP JUMPDEST JUMPDEST DUP1 DUP3 GT ISZERO PUSH3 0x287 JUMPI PUSH1 0x0 DUP2 PUSH1 0x0 SWAP1 SSTORE POP PUSH1 0x1 ADD PUSH3 0x26D JUMP JUMPDEST POP SWAP1 JUMP JUMPDEST PUSH1 0x0 PUSH1 0x40 MLOAD SWAP1 POP SWAP1 JUMP JUMPDEST PUSH1 0x0 DUP1 REVERT JUMPDEST PUSH1 0x0 DUP1 REVERT JUMPDEST PUSH1 0x0 DUP1 REVERT JUMPDEST PUSH1 0x0 DUP1 REVERT JUMPDEST PUSH1 0x0 PUSH1 0x1F NOT PUSH1 0x1F DUP4 ADD AND SWAP1 POP SWAP2 SWAP1 POP JUMP JUMPDEST PUSH32 0x4E487B7100000000000000000000000000000000000000000000000000000000 PUSH1 0x0 MSTORE PUSH1 0x41 PUSH1 0x4 MSTORE PUSH1 0x24 PUSH1 0x0 REVERT JUMPDEST PUSH3 0x2F4 DUP3 PUSH3 0x2A9 JUMP JUMPDEST DUP2 ADD DUP2 DUP2 LT PUSH8 0xFFFFFFFFFFFFFFFF DUP3 GT OR ISZERO PUSH3 0x316 JUMPI PUSH3 0x315 PUSH3 0x2BA JUMP JUMPDEST JUMPDEST DUP1 PUSH1 0x40 MSTORE POP POP POP JUMP JUMPDEST PUSH1 0x0 PUSH3 0x32B PUSH3 0x28B JUMP JUMPDEST SWAP1 POP PUSH3 0x339 DUP3 DUP3 PUSH3 0x2E9 JUMP JUMPDEST SWAP2 SWAP1 POP JUMP JUMPDEST PUSH1 0x0 PUSH8 0xFFFFFFFFFFFFFFFF DUP3 GT ISZERO PUSH3 0x35C JUMPI PUSH3 0x35B PUSH3 0x2BA JUMP JUMPDEST JUMPDEST PUSH3 0x367 DUP3 PUSH3 0x2A9 JUMP JUMPDEST SWAP1 POP PUSH1 0x20 DUP2 ADD SWAP1 POP SWAP2 SWAP1 POP JUMP JUMPDEST PUSH1 0x0 JUMPDEST DUP4 DUP2 LT ISZERO PUSH3 0x394 JUMPI DUP1 DUP3 ADD MLOAD DUP2 DUP5 ADD MSTORE PUSH1 0x20 DUP2 ADD SWAP1 POP PUSH3 0x377 JUMP JUMPDEST DUP4 DUP2 GT ISZERO PUSH3 0x3A4 JUMPI PUSH1 0x0 DUP5 DUP5 ADD MSTORE JUMPDEST POP POP POP POP JUMP JUMPDEST PUSH1 0x0 PUSH3 0x3C1 PUSH3 0x3BB DUP5 PUSH3 0x33E JUMP JUMPDEST PUSH3 0x31F JUMP JUMPDEST SWAP1 POP DUP3 DUP2 MSTORE PUSH1 0x20 DUP2 ADD DUP5 DUP5 DUP5 ADD GT ISZERO PUSH3 0x3E0 JUMPI PUSH3 0x3DF PUSH3 0x2A4 JUMP JUMPDEST JUMPDEST PUSH3 0x3ED DUP5 DUP3 DUP6 PUSH3 0x374 JUMP JUMPDEST POP SWAP4 SWAP3 POP POP POP JUMP JUMPDEST PUSH1 0x0 DUP3 PUSH1 0x1F DUP4 ADD SLT PUSH3 0x40D JUMPI PUSH3 0x40C PUSH3 0x29F JUMP JUMPDEST JUMPDEST DUP2 MLOAD PUSH3 0x41F DUP5 DUP3 PUSH1 0x20 DUP7 ADD PUSH3 0x3AA JUMP JUMPDEST SWAP2 POP POP SWAP3 SWAP2 POP POP JUMP JUMPDEST PUSH1 0x0 PUSH20 0xFFFFFFFFFFFFFFFFFFFFFFFFFFFFFFFFFFFFFFFF DUP3 AND SWAP1 POP SWAP2 SWAP1 POP JUMP JUMPDEST PUSH1 0x0 PUSH3 0x455 DUP3 PUSH3 0x428 JUMP JUMPDEST SWAP1 POP SWAP2 SWAP1 POP JUMP JUMPDEST PUSH3 0x467 DUP2 PUSH3 0x448 JUMP JUMPDEST DUP2 EQ PUSH3 0x473 JUMPI PUSH1 0x0 DUP1 REVERT JUMPDEST POP JUMP JUMPDEST PUSH1 0x0 DUP2 MLOAD SWAP1 POP PUSH3 0x487 DUP2 PUSH3 0x45C JUMP JUMPDEST SWAP3 SWAP2 POP POP JUMP JUMPDEST PUSH1 0x0 DUP2 SWAP1 POP SWAP2 SWAP1 POP JUMP JUMPDEST PUSH3 0x4A2 DUP2 PUSH3 0x48D JUMP JUMPDEST DUP2 EQ PUSH3 0x4AE JUMPI PUSH1 0x0 DUP1 REVERT JUMPDEST POP JUMP JUMPDEST PUSH1 0x0 DUP2 MLOAD SWAP1 POP PUSH3 0x4C2 DUP2 PUSH3 0x497 JUMP JUMPDEST SWAP3 SWAP2 POP POP JUMP JUMPDEST PUSH1 0x0 DUP1 PUSH1 0x0 DUP1 PUSH1 0x0 PUSH1 0xA0 DUP7 DUP9 SUB SLT ISZERO PUSH3 0x4E7 JUMPI PUSH3 0x4E6 PUSH3 0x295 JUMP JUMPDEST JUMPDEST PUSH1 0x0 DUP7 ADD MLOAD PUSH8 0xFFFFFFFFFFFFFFFF DUP2 GT ISZERO PUSH3 0x508 JUMPI PUSH3 0x507 PUSH3 0x29A JUMP JUMPDEST JUMPDEST PUSH3 0x516 DUP9 DUP3 DUP10 ADD PUSH3 0x3F5 JUMP JUMPDEST SWAP6 POP POP PUSH1 0x20 DUP7 ADD MLOAD PUSH8 0xFFFFFFFFFFFFFFFF DUP2 GT ISZERO PUSH3 0x53A JUMPI PUSH3 0x539 PUSH3 0x29A JUMP JUMPDEST JUMPDEST PUSH3 0x548 DUP9 DUP3 DUP10 ADD PUSH3 0x3F5 JUMP JUMPDEST SWAP5 POP POP PUSH1 0x40 PUSH3 0x55B DUP9 DUP3 DUP10 ADD PUSH3 0x476 JUMP JUMPDEST SWAP4 POP POP PUSH1 0x60 PUSH3 0x56E DUP9 DUP3 DUP10 ADD PUSH3 0x4B1 JUMP JUMPDEST SWAP3 POP POP PUSH1 0x80 PUSH3 0x581 DUP9 DUP3 DUP10 ADD PUSH3 0x4B1 JUMP JUMPDEST SWAP2 POP POP SWAP3 SWAP6 POP SWAP3 SWAP6 SWAP1 SWAP4 POP JUMP JUMPDEST PUSH32 0x4E487B7100000000000000000000000000000000000000000000000000000000 PUSH1 0x0 MSTORE PUSH1 0x22 PUSH1 0x4 MSTORE PUSH1 0x24 PUSH1 0x0 REVERT JUMPDEST PUSH1 0x0 PUSH1 0x2 DUP3 DIV SWAP1 POP PUSH1 0x1 DUP3 AND DUP1 PUSH3 0x5D6 JUMPI PUSH1 0x7F DUP3 AND SWAP2 POP JUMPDEST PUSH1 0x20 DUP3 LT DUP2 EQ ISZERO PUSH3 0x5ED JUMPI PUSH3 0x5EC PUSH3 0x58E JUMP JUMPDEST JUMPDEST POP SWAP2 SWAP1 POP JUMP JUMPDEST PUSH1 0x80 MLOAD PUSH2 0x5888 PUSH3 0x64E PUSH1 0x0 CODECOPY PUSH1 0x0 DUP2 DUP2 PUSH2 0x909 ADD MSTORE DUP2 DUP2 PUSH2 0xC15 ADD MSTORE DUP2 DUP2 PUSH2 0xEBC ADD MSTORE DUP2 DUP2 PUSH2 0x118D ADD MSTORE DUP2 DUP2 PUSH2 0x19CA ADD MSTORE DUP2 DUP2 PUSH2 0x1CDF ADD MSTORE DUP2 DUP2 PUSH2 0x1FE5 ADD MSTORE DUP2 DUP2 PUSH2 0x2021 ADD MSTORE DUP2 DUP2 PUSH2 0x282F ADD MSTORE PUSH2 0x2F3E ADD MSTORE PUSH2 0x5888 PUSH1 0x0 RETURN INVALID PUSH1 0x80 PUSH1 0x40 MSTORE PUSH1 0x4 CALLDATASIZE LT PUSH2 0x22F JUMPI PUSH1 0x0 CALLDATALOAD PUSH1 0xE0 SHR DUP1 PUSH4 0x6AA99DA3 GT PUSH2 0x12E JUMPI DUP1 PUSH4 0xD1DEBA1F GT PUSH2 0xAB JUMPI DUP1 PUSH4 0xE985E9C5 GT PUSH2 0x6F JUMPI DUP1 PUSH4 0xE985E9C5 EQ PUSH2 0x81F JUMPI DUP1 PUSH4 0xEB8D72B7 EQ PUSH2 0x85C JUMPI DUP1 PUSH4 0xEED33CEF EQ PUSH2 0x885 JUMPI DUP1 PUSH4 0xF2FDE38B EQ PUSH2 0x8A1 JUMPI DUP1 PUSH4 0xF5ECBDBC EQ PUSH2 0x8CA JUMPI PUSH2 0x22F JUMP JUMPDEST DUP1 PUSH4 0xD1DEBA1F EQ PUSH2 0x745 JUMPI DUP1 PUSH4 0xD547CFB7 EQ PUSH2 0x761 JUMPI DUP1 PUSH4 0xD936547E EQ PUSH2 0x78C JUMPI DUP1 PUSH4 0xDACBCBE2 EQ PUSH2 0x7C9 JUMPI DUP1 PUSH4 0xE1D4C870 EQ PUSH2 0x7F4 JUMPI PUSH2 0x22F JUMP JUMPDEST DUP1 PUSH4 0x95D89B41 GT PUSH2 0xF2 JUMPI DUP1 PUSH4 0x95D89B41 EQ PUSH2 0x662 JUMPI DUP1 PUSH4 0xA22CB465 EQ PUSH2 0x68D JUMPI DUP1 PUSH4 0xB88D4FDE EQ PUSH2 0x6B6 JUMPI DUP1 PUSH4 0xC87B56DD EQ PUSH2 0x6DF JUMPI DUP1 PUSH4 0xCBED8B9C EQ PUSH2 0x71C JUMPI PUSH2 0x22F JUMP JUMPDEST DUP1 PUSH4 0x6AA99DA3 EQ PUSH2 0x57B JUMPI DUP1 PUSH4 0x70A08231 EQ PUSH2 0x5A6 JUMPI DUP1 PUSH4 0x715018A6 EQ PUSH2 0x5E3 JUMPI DUP1 PUSH4 0x8DA5CB5B EQ PUSH2 0x5FA JUMPI DUP1 PUSH4 0x8EE74912 EQ PUSH2 0x625 JUMPI PUSH2 0x22F JUMP JUMPDEST DUP1 PUSH4 0x3D8B38F6 GT PUSH2 0x1BC JUMPI DUP1 PUSH4 0x55F804B3 GT PUSH2 0x180 JUMPI DUP1 PUSH4 0x55F804B3 EQ PUSH2 0x484 JUMPI DUP1 PUSH4 0x5C975ABB EQ PUSH2 0x4AD JUMPI DUP1 PUSH4 0x6352211E EQ PUSH2 0x4D8 JUMPI DUP1 PUSH4 0x66AD5C8A EQ PUSH2 0x515 JUMPI DUP1 PUSH4 0x69B41F95 EQ PUSH2 0x53E JUMPI PUSH2 0x22F JUMP JUMPDEST DUP1 PUSH4 0x3D8B38F6 EQ PUSH2 0x3B0 JUMPI DUP1 PUSH4 0x42842E0E EQ PUSH2 0x3ED JUMPI DUP1 PUSH4 0x42D65A8D EQ PUSH2 0x416 JUMPI DUP1 PUSH4 0x4A4C560D EQ PUSH2 0x43F JUMPI DUP1 PUSH4 0x51905636 EQ PUSH2 0x468 JUMPI PUSH2 0x22F JUMP JUMPDEST DUP1 PUSH4 0x81812FC GT PUSH2 0x203 JUMPI DUP1 PUSH4 0x81812FC EQ PUSH2 0x2EE JUMPI DUP1 PUSH4 0x95EA7B3 EQ PUSH2 0x32B JUMPI DUP1 PUSH4 0x10DDB137 EQ PUSH2 0x354 JUMPI DUP1 PUSH4 0x1249C58B EQ PUSH2 0x37D JUMPI DUP1 PUSH4 0x23B872DD EQ PUSH2 0x387 JUMPI PUSH2 0x22F JUMP JUMPDEST DUP1 PUSH3 0x1D3567 EQ PUSH2 0x234 JUMPI DUP1 PUSH4 0x1FFC9A7 EQ PUSH2 0x25D JUMPI DUP1 PUSH4 0x6FDDE03 EQ PUSH2 0x29A JUMPI DUP1 PUSH4 0x7E0DB17 EQ PUSH2 0x2C5 JUMPI JUMPDEST PUSH1 0x0 DUP1 REVERT JUMPDEST CALLVALUE DUP1 ISZERO PUSH2 0x240 JUMPI PUSH1 0x0 DUP1 REVERT JUMPDEST POP PUSH2 0x25B PUSH1 0x4 DUP1 CALLDATASIZE SUB DUP2 ADD SWAP1 PUSH2 0x256 SWAP2 SWAP1 PUSH2 0x37BB JUMP JUMPDEST PUSH2 0x907 JUMP JUMPDEST STOP JUMPDEST CALLVALUE DUP1 ISZERO PUSH2 0x269 JUMPI PUSH1 0x0 DUP1 REVERT JUMPDEST POP PUSH2 0x284 PUSH1 0x4 DUP1 CALLDATASIZE SUB DUP2 ADD SWAP1 PUSH2 0x27F SWAP2 SWAP1 PUSH2 0x38B2 JUMP JUMPDEST PUSH2 0xA23 JUMP JUMPDEST PUSH1 0x40 MLOAD PUSH2 0x291 SWAP2 SWAP1 PUSH2 0x38FA JUMP JUMPDEST PUSH1 0x40 MLOAD DUP1 SWAP2 SUB SWAP1 RETURN JUMPDEST CALLVALUE DUP1 ISZERO PUSH2 0x2A6 JUMPI PUSH1 0x0 DUP1 REVERT JUMPDEST POP PUSH2 0x2AF PUSH2 0xB05 JUMP JUMPDEST PUSH1 0x40 MLOAD PUSH2 0x2BC SWAP2 SWAP1 PUSH2 0x399D JUMP JUMPDEST PUSH1 0x40 MLOAD DUP1 SWAP2 SUB SWAP1 RETURN JUMPDEST CALLVALUE DUP1 ISZERO PUSH2 0x2D1 JUMPI PUSH1 0x0 DUP1 REVERT JUMPDEST POP PUSH2 0x2EC PUSH1 0x4 DUP1 CALLDATASIZE SUB DUP2 ADD SWAP1 PUSH2 0x2E7 SWAP2 SWAP1 PUSH2 0x39BF JUMP JUMPDEST PUSH2 0xB97 JUMP JUMPDEST STOP JUMPDEST CALLVALUE DUP1 ISZERO PUSH2 0x2FA JUMPI PUSH1 0x0 DUP1 REVERT JUMPDEST POP PUSH2 0x315 PUSH1 0x4 DUP1 CALLDATASIZE SUB DUP2 ADD SWAP1 PUSH2 0x310 SWAP2 SWAP1 PUSH2 0x3A22 JUMP JUMPDEST PUSH2 0xCA1 JUMP JUMPDEST PUSH1 0x40 MLOAD PUSH2 0x322 SWAP2 SWAP1 PUSH2 0x3A90 JUMP JUMPDEST PUSH1 0x40 MLOAD DUP1 SWAP2 SUB SWAP1 RETURN JUMPDEST CALLVALUE DUP1 ISZERO PUSH2 0x337 JUMPI PUSH1 0x0 DUP1 REVERT JUMPDEST POP PUSH2 0x352 PUSH1 0x4 DUP1 CALLDATASIZE SUB DUP2 ADD SWAP1 PUSH2 0x34D SWAP2 SWAP1 PUSH2 0x3AD7 JUMP JUMPDEST PUSH2 0xD26 JUMP JUMPDEST STOP JUMPDEST CALLVALUE DUP1 ISZERO PUSH2 0x360 JUMPI PUSH1 0x0 DUP1 REVERT JUMPDEST POP PUSH2 0x37B PUSH1 0x4 DUP1 CALLDATASIZE SUB DUP2 ADD SWAP1 PUSH2 0x376 SWAP2 SWAP1 PUSH2 0x39BF JUMP JUMPDEST PUSH2 0xE3E JUMP JUMPDEST STOP JUMPDEST PUSH2 0x385 PUSH2 0xF48 JUMP JUMPDEST STOP JUMPDEST CALLVALUE DUP1 ISZERO PUSH2 0x393 JUMPI PUSH1 0x0 DUP1 REVERT JUMPDEST POP PUSH2 0x3AE PUSH1 0x4 DUP1 CALLDATASIZE SUB DUP2 ADD SWAP1 PUSH2 0x3A9 SWAP2 SWAP1 PUSH2 0x3B17 JUMP JUMPDEST PUSH2 0xFBB JUMP JUMPDEST STOP JUMPDEST CALLVALUE DUP1 ISZERO PUSH2 0x3BC JUMPI PUSH1 0x0 DUP1 REVERT JUMPDEST POP PUSH2 0x3D7 PUSH1 0x4 DUP1 CALLDATASIZE SUB DUP2 ADD SWAP1 PUSH2 0x3D2 SWAP2 SWAP1 PUSH2 0x3BCA JUMP JUMPDEST PUSH2 0x101B JUMP JUMPDEST PUSH1 0x40 MLOAD PUSH2 0x3E4 SWAP2 SWAP1 PUSH2 0x38FA JUMP JUMPDEST PUSH1 0x40 MLOAD DUP1 SWAP2 SUB SWAP1 RETURN JUMPDEST CALLVALUE DUP1 ISZERO PUSH2 0x3F9 JUMPI PUSH1 0x0 DUP1 REVERT JUMPDEST POP PUSH2 0x414 PUSH1 0x4 DUP1 CALLDATASIZE SUB DUP2 ADD SWAP1 PUSH2 0x40F SWAP2 SWAP1 PUSH2 0x3B17 JUMP JUMPDEST PUSH2 0x10EF JUMP JUMPDEST STOP JUMPDEST CALLVALUE DUP1 ISZERO PUSH2 0x422 JUMPI PUSH1 0x0 DUP1 REVERT JUMPDEST POP PUSH2 0x43D PUSH1 0x4 DUP1 CALLDATASIZE SUB DUP2 ADD SWAP1 PUSH2 0x438 SWAP2 SWAP1 PUSH2 0x3BCA JUMP JUMPDEST PUSH2 0x110F JUMP JUMPDEST STOP JUMPDEST CALLVALUE DUP1 ISZERO PUSH2 0x44B JUMPI PUSH1 0x0 DUP1 REVERT JUMPDEST POP PUSH2 0x466 PUSH1 0x4 DUP1 CALLDATASIZE SUB DUP2 ADD SWAP1 PUSH2 0x461 SWAP2 SWAP1 PUSH2 0x3C2A JUMP JUMPDEST PUSH2 0x121F JUMP JUMPDEST STOP JUMPDEST PUSH2 0x482 PUSH1 0x4 DUP1 CALLDATASIZE SUB DUP2 ADD SWAP1 PUSH2 0x47D SWAP2 SWAP1 PUSH2 0x3C95 JUMP JUMPDEST PUSH2 0x12F6 JUMP JUMPDEST STOP JUMPDEST CALLVALUE DUP1 ISZERO PUSH2 0x490 JUMPI PUSH1 0x0 DUP1 REVERT JUMPDEST POP PUSH2 0x4AB PUSH1 0x4 DUP1 CALLDATASIZE SUB DUP2 ADD SWAP1 PUSH2 0x4A6 SWAP2 SWAP1 PUSH2 0x3E18 JUMP JUMPDEST PUSH2 0x1355 JUMP JUMPDEST STOP JUMPDEST CALLVALUE DUP1 ISZERO PUSH2 0x4B9 JUMPI PUSH1 0x0 DUP1 REVERT JUMPDEST POP PUSH2 0x4C2 PUSH2 0x13EB JUMP JUMPDEST PUSH1 0x40 MLOAD PUSH2 0x4CF SWAP2 SWAP1 PUSH2 0x38FA JUMP JUMPDEST PUSH1 0x40 MLOAD DUP1 SWAP2 SUB SWAP1 RETURN JUMPDEST CALLVALUE DUP1 ISZERO PUSH2 0x4E4 JUMPI PUSH1 0x0 DUP1 REVERT JUMPDEST POP PUSH2 0x4FF PUSH1 0x4 DUP1 CALLDATASIZE SUB DUP2 ADD SWAP1 PUSH2 0x4FA SWAP2 SWAP1 PUSH2 0x3A22 JUMP JUMPDEST PUSH2 0x13FE JUMP JUMPDEST PUSH1 0x40 MLOAD PUSH2 0x50C SWAP2 SWAP1 PUSH2 0x3A90 JUMP JUMPDEST PUSH1 0x40 MLOAD DUP1 SWAP2 SUB SWAP1 RETURN JUMPDEST CALLVALUE DUP1 ISZERO PUSH2 0x521 JUMPI PUSH1 0x0 DUP1 REVERT JUMPDEST POP PUSH2 0x53C PUSH1 0x4 DUP1 CALLDATASIZE SUB DUP2 ADD SWAP1 PUSH2 0x537 SWAP2 SWAP1 PUSH2 0x37BB JUMP JUMPDEST PUSH2 0x14B0 JUMP JUMPDEST STOP JUMPDEST CALLVALUE DUP1 ISZERO PUSH2 0x54A JUMPI PUSH1 0x0 DUP1 REVERT JUMPDEST POP PUSH2 0x565 PUSH1 0x4 DUP1 CALLDATASIZE SUB DUP2 ADD SWAP1 PUSH2 0x560 SWAP2 SWAP1 PUSH2 0x39BF JUMP JUMPDEST PUSH2 0x1537 JUMP JUMPDEST PUSH1 0x40 MLOAD PUSH2 0x572 SWAP2 SWAP1 PUSH2 0x3EB6 JUMP JUMPDEST PUSH1 0x40 MLOAD DUP1 SWAP2 SUB SWAP1 RETURN JUMPDEST CALLVALUE DUP1 ISZERO PUSH2 0x587 JUMPI PUSH1 0x0 DUP1 REVERT JUMPDEST POP PUSH2 0x590 PUSH2 0x15E4 JUMP JUMPDEST PUSH1 0x40 MLOAD PUSH2 0x59D SWAP2 SWAP1 PUSH2 0x3EE7 JUMP JUMPDEST PUSH1 0x40 MLOAD DUP1 SWAP2 SUB SWAP1 RETURN JUMPDEST CALLVALUE DUP1 ISZERO PUSH2 0x5B2 JUMPI PUSH1 0x0 DUP1 REVERT JUMPDEST POP PUSH2 0x5CD PUSH1 0x4 DUP1 CALLDATASIZE SUB DUP2 ADD SWAP1 PUSH2 0x5C8 SWAP2 SWAP1 PUSH2 0x3C2A JUMP JUMPDEST PUSH2 0x15EA JUMP JUMPDEST PUSH1 0x40 MLOAD PUSH2 0x5DA SWAP2 SWAP1 PUSH2 0x3EE7 JUMP JUMPDEST PUSH1 0x40 MLOAD DUP1 SWAP2 SUB SWAP1 RETURN JUMPDEST CALLVALUE DUP1 ISZERO PUSH2 0x5EF JUMPI PUSH1 0x0 DUP1 REVERT JUMPDEST POP PUSH2 0x5F8 PUSH2 0x16A2 JUMP JUMPDEST STOP JUMPDEST CALLVALUE DUP1 ISZERO PUSH2 0x606 JUMPI PUSH1 0x0 DUP1 REVERT JUMPDEST POP PUSH2 0x60F PUSH2 0x172A JUMP JUMPDEST PUSH1 0x40 MLOAD PUSH2 0x61C SWAP2 SWAP1 PUSH2 0x3A90 JUMP JUMPDEST PUSH1 0x40 MLOAD DUP1 SWAP2 SUB SWAP1 RETURN JUMPDEST CALLVALUE DUP1 ISZERO PUSH2 0x631 JUMPI PUSH1 0x0 DUP1 REVERT JUMPDEST POP PUSH2 0x64C PUSH1 0x4 DUP1 CALLDATASIZE SUB DUP2 ADD SWAP1 PUSH2 0x647 SWAP2 SWAP1 PUSH2 0x3F02 JUMP JUMPDEST PUSH2 0x1753 JUMP JUMPDEST PUSH1 0x40 MLOAD PUSH2 0x659 SWAP2 SWAP1 PUSH2 0x3F8A JUMP JUMPDEST PUSH1 0x40 MLOAD DUP1 SWAP2 SUB SWAP1 RETURN JUMPDEST CALLVALUE DUP1 ISZERO PUSH2 0x66E JUMPI PUSH1 0x0 DUP1 REVERT JUMPDEST POP PUSH2 0x677 PUSH2 0x179B JUMP JUMPDEST PUSH1 0x40 MLOAD PUSH2 0x684 SWAP2 SWAP1 PUSH2 0x399D JUMP JUMPDEST PUSH1 0x40 MLOAD DUP1 SWAP2 SUB SWAP1 RETURN JUMPDEST CALLVALUE DUP1 ISZERO PUSH2 0x699 JUMPI PUSH1 0x0 DUP1 REVERT JUMPDEST POP PUSH2 0x6B4 PUSH1 0x4 DUP1 CALLDATASIZE SUB DUP2 ADD SWAP1 PUSH2 0x6AF SWAP2 SWAP1 PUSH2 0x3FD1 JUMP JUMPDEST PUSH2 0x182D JUMP JUMPDEST STOP JUMPDEST CALLVALUE DUP1 ISZERO PUSH2 0x6C2 JUMPI PUSH1 0x0 DUP1 REVERT JUMPDEST POP PUSH2 0x6DD PUSH1 0x4 DUP1 CALLDATASIZE SUB DUP2 ADD SWAP1 PUSH2 0x6D8 SWAP2 SWAP1 PUSH2 0x4011 JUMP JUMPDEST PUSH2 0x1843 JUMP JUMPDEST STOP JUMPDEST CALLVALUE DUP1 ISZERO PUSH2 0x6EB JUMPI PUSH1 0x0 DUP1 REVERT JUMPDEST POP PUSH2 0x706 PUSH1 0x4 DUP1 CALLDATASIZE SUB DUP2 ADD SWAP1 PUSH2 0x701 SWAP2 SWAP1 PUSH2 0x3A22 JUMP JUMPDEST PUSH2 0x18A5 JUMP JUMPDEST PUSH1 0x40 MLOAD PUSH2 0x713 SWAP2 SWAP1 PUSH2 0x399D JUMP JUMPDEST PUSH1 0x40 MLOAD DUP1 SWAP2 SUB SWAP1 RETURN JUMPDEST CALLVALUE DUP1 ISZERO PUSH2 0x728 JUMPI PUSH1 0x0 DUP1 REVERT JUMPDEST POP PUSH2 0x743 PUSH1 0x4 DUP1 CALLDATASIZE SUB DUP2 ADD SWAP1 PUSH2 0x73E SWAP2 SWAP1 PUSH2 0x4094 JUMP JUMPDEST PUSH2 0x194C JUMP JUMPDEST STOP JUMPDEST PUSH2 0x75F PUSH1 0x4 DUP1 CALLDATASIZE SUB DUP2 ADD SWAP1 PUSH2 0x75A SWAP2 SWAP1 PUSH2 0x411C JUMP JUMPDEST PUSH2 0x1A62 JUMP JUMPDEST STOP JUMPDEST CALLVALUE DUP1 ISZERO PUSH2 0x76D JUMPI PUSH1 0x0 DUP1 REVERT JUMPDEST POP PUSH2 0x776 PUSH2 0x1C2D JUMP JUMPDEST PUSH1 0x40 MLOAD PUSH2 0x783 SWAP2 SWAP1 PUSH2 0x399D JUMP JUMPDEST PUSH1 0x40 MLOAD DUP1 SWAP2 SUB SWAP1 RETURN JUMPDEST CALLVALUE DUP1 ISZERO PUSH2 0x798 JUMPI PUSH1 0x0 DUP1 REVERT JUMPDEST POP PUSH2 0x7B3 PUSH1 0x4 DUP1 CALLDATASIZE SUB DUP2 ADD SWAP1 PUSH2 0x7AE SWAP2 SWAP1 PUSH2 0x3C2A JUMP JUMPDEST PUSH2 0x1CBB JUMP JUMPDEST PUSH1 0x40 MLOAD PUSH2 0x7C0 SWAP2 SWAP1 PUSH2 0x38FA JUMP JUMPDEST PUSH1 0x40 MLOAD DUP1 SWAP2 SUB SWAP1 RETURN JUMPDEST CALLVALUE DUP1 ISZERO PUSH2 0x7D5 JUMPI PUSH1 0x0 DUP1 REVERT JUMPDEST POP PUSH2 0x7DE PUSH2 0x1CDB JUMP JUMPDEST PUSH1 0x40 MLOAD PUSH2 0x7EB SWAP2 SWAP1 PUSH2 0x3A90 JUMP JUMPDEST PUSH1 0x40 MLOAD DUP1 SWAP2 SUB SWAP1 RETURN JUMPDEST CALLVALUE DUP1 ISZERO PUSH2 0x800 JUMPI PUSH1 0x0 DUP1 REVERT JUMPDEST POP PUSH2 0x809 PUSH2 0x1D03 JUMP JUMPDEST PUSH1 0x40 MLOAD PUSH2 0x816 SWAP2 SWAP1 PUSH2 0x3EE7 JUMP JUMPDEST PUSH1 0x40 MLOAD DUP1 SWAP2 SUB SWAP1 RETURN JUMPDEST CALLVALUE DUP1 ISZERO PUSH2 0x82B JUMPI PUSH1 0x0 DUP1 REVERT JUMPDEST POP PUSH2 0x846 PUSH1 0x4 DUP1 CALLDATASIZE SUB DUP2 ADD SWAP1 PUSH2 0x841 SWAP2 SWAP1 PUSH2 0x41C0 JUMP JUMPDEST PUSH2 0x1D09 JUMP JUMPDEST PUSH1 0x40 MLOAD PUSH2 0x853 SWAP2 SWAP1 PUSH2 0x38FA JUMP JUMPDEST PUSH1 0x40 MLOAD DUP1 SWAP2 SUB SWAP1 RETURN JUMPDEST CALLVALUE DUP1 ISZERO PUSH2 0x868 JUMPI PUSH1 0x0 DUP1 REVERT JUMPDEST POP PUSH2 0x883 PUSH1 0x4 DUP1 CALLDATASIZE SUB DUP2 ADD SWAP1 PUSH2 0x87E SWAP2 SWAP1 PUSH2 0x3BCA JUMP JUMPDEST PUSH2 0x1D9D JUMP JUMPDEST STOP JUMPDEST PUSH2 0x89F PUSH1 0x4 DUP1 CALLDATASIZE SUB DUP2 ADD SWAP1 PUSH2 0x89A SWAP2 SWAP1 PUSH2 0x4200 JUMP JUMPDEST PUSH2 0x1E84 JUMP JUMPDEST STOP JUMPDEST CALLVALUE DUP1 ISZERO PUSH2 0x8AD JUMPI PUSH1 0x0 DUP1 REVERT JUMPDEST POP PUSH2 0x8C8 PUSH1 0x4 DUP1 CALLDATASIZE SUB DUP2 ADD SWAP1 PUSH2 0x8C3 SWAP2 SWAP1 PUSH2 0x3C2A JUMP JUMPDEST PUSH2 0x1EE9 JUMP JUMPDEST STOP JUMPDEST CALLVALUE DUP1 ISZERO PUSH2 0x8D6 JUMPI PUSH1 0x0 DUP1 REVERT JUMPDEST POP PUSH2 0x8F1 PUSH1 0x4 DUP1 CALLDATASIZE SUB DUP2 ADD SWAP1 PUSH2 0x8EC SWAP2 SWAP1 PUSH2 0x42CF JUMP JUMPDEST PUSH2 0x1FE1 JUMP JUMPDEST PUSH1 0x40 MLOAD PUSH2 0x8FE SWAP2 SWAP1 PUSH2 0x3EB6 JUMP JUMPDEST PUSH1 0x40 MLOAD DUP1 SWAP2 SUB SWAP1 RETURN JUMPDEST PUSH32 0x0 PUSH20 0xFFFFFFFFFFFFFFFFFFFFFFFFFFFFFFFFFFFFFFFF AND PUSH2 0x946 PUSH2 0x2149 JUMP JUMPDEST PUSH20 0xFFFFFFFFFFFFFFFFFFFFFFFFFFFFFFFFFFFFFFFF AND EQ PUSH2 0x966 JUMPI PUSH1 0x0 DUP1 REVERT JUMPDEST PUSH1 0x1 PUSH1 0x0 DUP6 PUSH2 0xFFFF AND PUSH2 0xFFFF AND DUP2 MSTORE PUSH1 0x20 ADD SWAP1 DUP2 MSTORE PUSH1 0x20 ADD PUSH1 0x0 KECCAK256 DUP1 SLOAD PUSH2 0x98C SWAP1 PUSH2 0x4365 JUMP JUMPDEST SWAP1 POP DUP4 MLOAD EQ DUP1 ISZERO PUSH2 0x9D2 JUMPI POP PUSH1 0x1 PUSH1 0x0 DUP6 PUSH2 0xFFFF AND PUSH2 0xFFFF AND DUP2 MSTORE PUSH1 0x20 ADD SWAP1 DUP2 MSTORE PUSH1 0x20 ADD PUSH1 0x0 KECCAK256 PUSH1 0x40 MLOAD PUSH2 0x9C0 SWAP2 SWAP1 PUSH2 0x4436 JUMP JUMPDEST PUSH1 0x40 MLOAD DUP1 SWAP2 SUB SWAP1 KECCAK256 DUP4 DUP1 MLOAD SWAP1 PUSH1 0x20 ADD KECCAK256 EQ JUMPDEST PUSH2 0xA11 JUMPI PUSH1 0x40 MLOAD PUSH32 0x8C379A000000000000000000000000000000000000000000000000000000000 DUP2 MSTORE PUSH1 0x4 ADD PUSH2 0xA08 SWAP1 PUSH2 0x44BF JUMP JUMPDEST PUSH1 0x40 MLOAD DUP1 SWAP2 SUB SWAP1 REVERT JUMPDEST PUSH2 0xA1D DUP5 DUP5 DUP5 DUP5 PUSH2 0x2151 JUMP JUMPDEST POP POP POP POP JUMP JUMPDEST PUSH1 0x0 PUSH32 0x80AC58CD00000000000000000000000000000000000000000000000000000000 PUSH28 0xFFFFFFFFFFFFFFFFFFFFFFFFFFFFFFFFFFFFFFFFFFFFFFFFFFFFFFFF NOT AND DUP3 PUSH28 0xFFFFFFFFFFFFFFFFFFFFFFFFFFFFFFFFFFFFFFFFFFFFFFFFFFFFFFFF NOT AND EQ DUP1 PUSH2 0xAEE JUMPI POP PUSH32 0x5B5E139F00000000000000000000000000000000000000000000000000000000 PUSH28 0xFFFFFFFFFFFFFFFFFFFFFFFFFFFFFFFFFFFFFFFFFFFFFFFFFFFFFFFF NOT AND DUP3 PUSH28 0xFFFFFFFFFFFFFFFFFFFFFFFFFFFFFFFFFFFFFFFFFFFFFFFFFFFFFFFF NOT AND EQ JUMPDEST DUP1 PUSH2 0xAFE JUMPI POP PUSH2 0xAFD DUP3 PUSH2 0x2266 JUMP JUMPDEST JUMPDEST SWAP1 POP SWAP2 SWAP1 POP JUMP JUMPDEST PUSH1 0x60 PUSH1 0x3 DUP1 SLOAD PUSH2 0xB14 SWAP1 PUSH2 0x4365 JUMP JUMPDEST DUP1 PUSH1 0x1F ADD PUSH1 0x20 DUP1 SWAP2 DIV MUL PUSH1 0x20 ADD PUSH1 0x40 MLOAD SWAP1 DUP2 ADD PUSH1 0x40 MSTORE DUP1 SWAP3 SWAP2 SWAP1 DUP2 DUP2 MSTORE PUSH1 0x20 ADD DUP3 DUP1 SLOAD PUSH2 0xB40 SWAP1 PUSH2 0x4365 JUMP JUMPDEST DUP1 ISZERO PUSH2 0xB8D JUMPI DUP1 PUSH1 0x1F LT PUSH2 0xB62 JUMPI PUSH2 0x100 DUP1 DUP4 SLOAD DIV MUL DUP4 MSTORE SWAP2 PUSH1 0x20 ADD SWAP2 PUSH2 0xB8D JUMP JUMPDEST DUP3 ADD SWAP2 SWAP1 PUSH1 0x0 MSTORE PUSH1 0x20 PUSH1 0x0 KECCAK256 SWAP1 JUMPDEST DUP2 SLOAD DUP2 MSTORE SWAP1 PUSH1 0x1 ADD SWAP1 PUSH1 0x20 ADD DUP1 DUP4 GT PUSH2 0xB70 JUMPI DUP3 SWAP1 SUB PUSH1 0x1F AND DUP3 ADD SWAP2 JUMPDEST POP POP POP POP POP SWAP1 POP SWAP1 JUMP JUMPDEST PUSH2 0xB9F PUSH2 0x2149 JUMP JUMPDEST PUSH20 0xFFFFFFFFFFFFFFFFFFFFFFFFFFFFFFFFFFFFFFFF AND PUSH2 0xBBD PUSH2 0x172A JUMP JUMPDEST PUSH20 0xFFFFFFFFFFFFFFFFFFFFFFFFFFFFFFFFFFFFFFFF AND EQ PUSH2 0xC13 JUMPI PUSH1 0x40 MLOAD PUSH32 0x8C379A000000000000000000000000000000000000000000000000000000000 DUP2 MSTORE PUSH1 0x4 ADD PUSH2 0xC0A SWAP1 PUSH2 0x452B JUMP JUMPDEST PUSH1 0x40 MLOAD DUP1 SWAP2 SUB SWAP1 REVERT JUMPDEST PUSH32 0x0 PUSH20 0xFFFFFFFFFFFFFFFFFFFFFFFFFFFFFFFFFFFFFFFF AND PUSH4 0x7E0DB17 DUP3 PUSH1 0x40 MLOAD DUP3 PUSH4 0xFFFFFFFF AND PUSH1 0xE0 SHL DUP2 MSTORE PUSH1 0x4 ADD PUSH2 0xC6C SWAP2 SWAP1 PUSH2 0x455A JUMP JUMPDEST PUSH1 0x0 PUSH1 0x40 MLOAD DUP1 DUP4 SUB DUP2 PUSH1 0x0 DUP8 DUP1 EXTCODESIZE ISZERO DUP1 ISZERO PUSH2 0xC86 JUMPI PUSH1 0x0 DUP1 REVERT JUMPDEST POP GAS CALL ISZERO DUP1 ISZERO PUSH2 0xC9A JUMPI RETURNDATASIZE PUSH1 0x0 DUP1 RETURNDATACOPY RETURNDATASIZE PUSH1 0x0 REVERT JUMPDEST POP POP POP POP POP JUMP JUMPDEST PUSH1 0x0 PUSH2 0xCAC DUP3 PUSH2 0x22D0 JUMP JUMPDEST PUSH2 0xCEB JUMPI PUSH1 0x40 MLOAD PUSH32 0x8C379A000000000000000000000000000000000000000000000000000000000 DUP2 MSTORE PUSH1 0x4 ADD PUSH2 0xCE2 SWAP1 PUSH2 0x45E7 JUMP JUMPDEST PUSH1 0x40 MLOAD DUP1 SWAP2 SUB SWAP1 REVERT JUMPDEST PUSH1 0x7 PUSH1 0x0 DUP4 DUP2 MSTORE PUSH1 0x20 ADD SWAP1 DUP2 MSTORE PUSH1 0x20 ADD PUSH1 0x0 KECCAK256 PUSH1 0x0 SWAP1 SLOAD SWAP1 PUSH2 0x100 EXP SWAP1 DIV PUSH20 0xFFFFFFFFFFFFFFFFFFFFFFFFFFFFFFFFFFFFFFFF AND SWAP1 POP SWAP2 SWAP1 POP JUMP JUMPDEST PUSH1 0x0 PUSH2 0xD31 DUP3 PUSH2 0x13FE JUMP JUMPDEST SWAP1 POP DUP1 PUSH20 0xFFFFFFFFFFFFFFFFFFFFFFFFFFFFFFFFFFFFFFFF AND DUP4 PUSH20 0xFFFFFFFFFFFFFFFFFFFFFFFFFFFFFFFFFFFFFFFF AND EQ ISZERO PUSH2 0xDA2 JUMPI PUSH1 0x40 MLOAD PUSH32 0x8C379A000000000000000000000000000000000000000000000000000000000 DUP2 MSTORE PUSH1 0x4 ADD PUSH2 0xD99 SWAP1 PUSH2 0x4679 JUMP JUMPDEST PUSH1 0x40 MLOAD DUP1 SWAP2 SUB SWAP1 REVERT JUMPDEST DUP1 PUSH20 0xFFFFFFFFFFFFFFFFFFFFFFFFFFFFFFFFFFFFFFFF AND PUSH2 0xDC1 PUSH2 0x2149 JUMP JUMPDEST PUSH20 0xFFFFFFFFFFFFFFFFFFFFFFFFFFFFFFFFFFFFFFFF AND EQ DUP1 PUSH2 0xDF0 JUMPI POP PUSH2 0xDEF DUP2 PUSH2 0xDEA PUSH2 0x2149 JUMP JUMPDEST PUSH2 0x1D09 JUMP JUMPDEST JUMPDEST PUSH2 0xE2F JUMPI PUSH1 0x40 MLOAD PUSH32 0x8C379A000000000000000000000000000000000000000000000000000000000 DUP2 MSTORE PUSH1 0x4 ADD PUSH2 0xE26 SWAP1 PUSH2 0x470B JUMP JUMPDEST PUSH1 0x40 MLOAD DUP1 SWAP2 SUB SWAP1 REVERT JUMPDEST PUSH2 0xE39 DUP4 DUP4 PUSH2 0x233C JUMP JUMPDEST POP POP POP JUMP JUMPDEST PUSH2 0xE46 PUSH2 0x2149 JUMP JUMPDEST PUSH20 0xFFFFFFFFFFFFFFFFFFFFFFFFFFFFFFFFFFFFFFFF AND PUSH2 0xE64 PUSH2 0x172A JUMP JUMPDEST PUSH20 0xFFFFFFFFFFFFFFFFFFFFFFFFFFFFFFFFFFFFFFFF AND EQ PUSH2 0xEBA JUMPI PUSH1 0x40 MLOAD PUSH32 0x8C379A000000000000000000000000000000000000000000000000000000000 DUP2 MSTORE PUSH1 0x4 ADD PUSH2 0xEB1 SWAP1 PUSH2 0x452B JUMP JUMPDEST PUSH1 0x40 MLOAD DUP1 SWAP2 SUB SWAP1 REVERT JUMPDEST PUSH32 0x0 PUSH20 0xFFFFFFFFFFFFFFFFFFFFFFFFFFFFFFFFFFFFFFFF AND PUSH4 0x10DDB137 DUP3 PUSH1 0x40 MLOAD DUP3 PUSH4 0xFFFFFFFF AND PUSH1 0xE0 SHL DUP2 MSTORE PUSH1 0x4 ADD PUSH2 0xF13 SWAP2 SWAP1 PUSH2 0x455A JUMP JUMPDEST PUSH1 0x0 PUSH1 0x40 MLOAD DUP1 DUP4 SUB DUP2 PUSH1 0x0 DUP8 DUP1 EXTCODESIZE ISZERO DUP1 ISZERO PUSH2 0xF2D JUMPI PUSH1 0x0 DUP1 REVERT JUMPDEST POP GAS CALL ISZERO DUP1 ISZERO PUSH2 0xF41 JUMPI RETURNDATASIZE PUSH1 0x0 DUP1 RETURNDATACOPY RETURNDATASIZE PUSH1 0x0 REVERT JUMPDEST POP POP POP POP POP JUMP JUMPDEST PUSH1 0xB SLOAD PUSH1 0xA SLOAD GT ISZERO PUSH2 0xF8F JUMPI PUSH1 0x40 MLOAD PUSH32 0x8C379A000000000000000000000000000000000000000000000000000000000 DUP2 MSTORE PUSH1 0x4 ADD PUSH2 0xF86 SWAP1 PUSH2 0x4777 JUMP JUMPDEST PUSH1 0x40 MLOAD DUP1 SWAP2 SUB SWAP1 REVERT JUMPDEST PUSH1 0x0 PUSH1 0xA SLOAD SWAP1 POP PUSH1 0xA PUSH1 0x0 DUP2 SLOAD DUP1 SWAP3 SWAP2 SWAP1 PUSH2 0xFA9 SWAP1 PUSH2 0x47C6 JUMP JUMPDEST SWAP2 SWAP1 POP SSTORE POP PUSH2 0xFB8 CALLER DUP3 PUSH2 0x23F5 JUMP JUMPDEST POP JUMP JUMPDEST PUSH2 0xFCC PUSH2 0xFC6 PUSH2 0x2149 JUMP JUMPDEST DUP3 PUSH2 0x2413 JUMP JUMPDEST PUSH2 0x100B JUMPI PUSH1 0x40 MLOAD PUSH32 0x8C379A000000000000000000000000000000000000000000000000000000000 DUP2 MSTORE PUSH1 0x4 ADD PUSH2 0x1002 SWAP1 PUSH2 0x4881 JUMP JUMPDEST PUSH1 0x40 MLOAD DUP1 SWAP2 SUB SWAP1 REVERT JUMPDEST PUSH2 0x1016 DUP4 DUP4 DUP4 PUSH2 0x24F1 JUMP JUMPDEST POP POP POP JUMP JUMPDEST PUSH1 0x0 DUP1 PUSH1 0x1 PUSH1 0x0 DUP7 PUSH2 0xFFFF AND PUSH2 0xFFFF AND DUP2 MSTORE PUSH1 0x20 ADD SWAP1 DUP2 MSTORE PUSH1 0x20 ADD PUSH1 0x0 KECCAK256 DUP1 SLOAD PUSH2 0x1044 SWAP1 PUSH2 0x4365 JUMP JUMPDEST DUP1 PUSH1 0x1F ADD PUSH1 0x20 DUP1 SWAP2 DIV MUL PUSH1 0x20 ADD PUSH1 0x40 MLOAD SWAP1 DUP2 ADD PUSH1 0x40 MSTORE DUP1 SWAP3 SWAP2 SWAP1 DUP2 DUP2 MSTORE PUSH1 0x20 ADD DUP3 DUP1 SLOAD PUSH2 0x1070 SWAP1 PUSH2 0x4365 JUMP JUMPDEST DUP1 ISZERO PUSH2 0x10BD JUMPI DUP1 PUSH1 0x1F LT PUSH2 0x1092 JUMPI PUSH2 0x100 DUP1 DUP4 SLOAD DIV MUL DUP4 MSTORE SWAP2 PUSH1 0x20 ADD SWAP2 PUSH2 0x10BD JUMP JUMPDEST DUP3 ADD SWAP2 SWAP1 PUSH1 0x0 MSTORE PUSH1 0x20 PUSH1 0x0 KECCAK256 SWAP1 JUMPDEST DUP2 SLOAD DUP2 MSTORE SWAP1 PUSH1 0x1 ADD SWAP1 PUSH1 0x20 ADD DUP1 DUP4 GT PUSH2 0x10A0 JUMPI DUP3 SWAP1 SUB PUSH1 0x1F AND DUP3 ADD SWAP2 JUMPDEST POP POP POP POP POP SWAP1 POP DUP4 DUP4 PUSH1 0x40 MLOAD PUSH2 0x10D4 SWAP3 SWAP2 SWAP1 PUSH2 0x48C6 JUMP JUMPDEST PUSH1 0x40 MLOAD DUP1 SWAP2 SUB SWAP1 KECCAK256 DUP2 DUP1 MLOAD SWAP1 PUSH1 0x20 ADD KECCAK256 EQ SWAP2 POP POP SWAP4 SWAP3 POP POP POP JUMP JUMPDEST PUSH2 0x110A DUP4 DUP4 DUP4 PUSH1 0x40 MLOAD DUP1 PUSH1 0x20 ADD PUSH1 0x40 MSTORE DUP1 PUSH1 0x0 DUP2 MSTORE POP PUSH2 0x1843 JUMP JUMPDEST POP POP POP JUMP JUMPDEST PUSH2 0x1117 PUSH2 0x2149 JUMP JUMPDEST PUSH20 0xFFFFFFFFFFFFFFFFFFFFFFFFFFFFFFFFFFFFFFFF AND PUSH2 0x1135 PUSH2 0x172A JUMP JUMPDEST PUSH20 0xFFFFFFFFFFFFFFFFFFFFFFFFFFFFFFFFFFFFFFFF AND EQ PUSH2 0x118B JUMPI PUSH1 0x40 MLOAD PUSH32 0x8C379A000000000000000000000000000000000000000000000000000000000 DUP2 MSTORE PUSH1 0x4 ADD PUSH2 0x1182 SWAP1 PUSH2 0x452B JUMP JUMPDEST PUSH1 0x40 MLOAD DUP1 SWAP2 SUB SWAP1 REVERT JUMPDEST PUSH32 0x0 PUSH20 0xFFFFFFFFFFFFFFFFFFFFFFFFFFFFFFFFFFFFFFFF AND PUSH4 0x42D65A8D DUP5 DUP5 DUP5 PUSH1 0x40 MLOAD DUP5 PUSH4 0xFFFFFFFF AND PUSH1 0xE0 SHL DUP2 MSTORE PUSH1 0x4 ADD PUSH2 0x11E8 SWAP4 SWAP3 SWAP2 SWAP1 PUSH2 0x490C JUMP JUMPDEST PUSH1 0x0 PUSH1 0x40 MLOAD DUP1 DUP4 SUB DUP2 PUSH1 0x0 DUP8 DUP1 EXTCODESIZE ISZERO DUP1 ISZERO PUSH2 0x1202 JUMPI PUSH1 0x0 DUP1 REVERT JUMPDEST POP GAS CALL ISZERO DUP1 ISZERO PUSH2 0x1216 JUMPI RETURNDATASIZE PUSH1 0x0 DUP1 RETURNDATACOPY RETURNDATASIZE PUSH1 0x0 REVERT JUMPDEST POP POP POP POP POP POP POP JUMP JUMPDEST PUSH2 0x1227 PUSH2 0x2149 JUMP JUMPDEST PUSH20 0xFFFFFFFFFFFFFFFFFFFFFFFFFFFFFFFFFFFFFFFF AND PUSH2 0x1245 PUSH2 0x172A JUMP JUMPDEST PUSH20 0xFFFFFFFFFFFFFFFFFFFFFFFFFFFFFFFFFFFFFFFF AND EQ PUSH2 0x129B JUMPI PUSH1 0x40 MLOAD PUSH32 0x8C379A000000000000000000000000000000000000000000000000000000000 DUP2 MSTORE PUSH1 0x4 ADD PUSH2 0x1292 SWAP1 PUSH2 0x452B JUMP JUMPDEST PUSH1 0x40 MLOAD DUP1 SWAP2 SUB SWAP1 REVERT JUMPDEST PUSH1 0x1 PUSH1 0x10 PUSH1 0x0 DUP4 PUSH20 0xFFFFFFFFFFFFFFFFFFFFFFFFFFFFFFFFFFFFFFFF AND PUSH20 0xFFFFFFFFFFFFFFFFFFFFFFFFFFFFFFFFFFFFFFFF AND DUP2 MSTORE PUSH1 0x20 ADD SWAP1 DUP2 MSTORE PUSH1 0x20 ADD PUSH1 0x0 KECCAK256 PUSH1 0x0 PUSH2 0x100 EXP DUP2 SLOAD DUP2 PUSH1 0xFF MUL NOT AND SWAP1 DUP4 ISZERO ISZERO MUL OR SWAP1 SSTORE POP POP JUMP JUMPDEST PUSH2 0x134A DUP10 DUP10 DUP10 DUP10 DUP1 DUP1 PUSH1 0x1F ADD PUSH1 0x20 DUP1 SWAP2 DIV MUL PUSH1 0x20 ADD PUSH1 0x40 MLOAD SWAP1 DUP2 ADD PUSH1 0x40 MSTORE DUP1 SWAP4 SWAP3 SWAP2 SWAP1 DUP2 DUP2 MSTORE PUSH1 0x20 ADD DUP4 DUP4 DUP1 DUP3 DUP5 CALLDATACOPY PUSH1 0x0 DUP2 DUP5 ADD MSTORE PUSH1 0x1F NOT PUSH1 0x1F DUP3 ADD AND SWAP1 POP DUP1 DUP4 ADD SWAP3 POP POP POP POP POP POP POP DUP9 DUP9 DUP9 DUP9 DUP9 PUSH2 0x2758 JUMP JUMPDEST POP POP POP POP POP POP POP POP POP JUMP JUMPDEST PUSH2 0x135D PUSH2 0x2149 JUMP JUMPDEST PUSH20 0xFFFFFFFFFFFFFFFFFFFFFFFFFFFFFFFFFFFFFFFF AND PUSH2 0x137B PUSH2 0x172A JUMP JUMPDEST PUSH20 0xFFFFFFFFFFFFFFFFFFFFFFFFFFFFFFFFFFFFFFFF AND EQ PUSH2 0x13D1 JUMPI PUSH1 0x40 MLOAD PUSH32 0x8C379A000000000000000000000000000000000000000000000000000000000 DUP2 MSTORE PUSH1 0x4 ADD PUSH2 0x13C8 SWAP1 PUSH2 0x452B JUMP JUMPDEST PUSH1 0x40 MLOAD DUP1 SWAP2 SUB SWAP1 REVERT JUMPDEST DUP1 PUSH1 0x9 SWAP1 DUP1 MLOAD SWAP1 PUSH1 0x20 ADD SWAP1 PUSH2 0x13E7 SWAP3 SWAP2 SWAP1 PUSH2 0x34BE JUMP JUMPDEST POP POP JUMP JUMPDEST PUSH1 0xF PUSH1 0x0 SWAP1 SLOAD SWAP1 PUSH2 0x100 EXP SWAP1 DIV PUSH1 0xFF AND DUP2 JUMP JUMPDEST PUSH1 0x0 DUP1 PUSH1 0x5 PUSH1 0x0 DUP5 DUP2 MSTORE PUSH1 0x20 ADD SWAP1 DUP2 MSTORE PUSH1 0x20 ADD PUSH1 0x0 KECCAK256 PUSH1 0x0 SWAP1 SLOAD SWAP1 PUSH2 0x100 EXP SWAP1 DIV PUSH20 0xFFFFFFFFFFFFFFFFFFFFFFFFFFFFFFFFFFFFFFFF AND SWAP1 POP PUSH1 0x0 PUSH20 0xFFFFFFFFFFFFFFFFFFFFFFFFFFFFFFFFFFFFFFFF AND DUP2 PUSH20 0xFFFFFFFFFFFFFFFFFFFFFFFFFFFFFFFFFFFFFFFF AND EQ ISZERO PUSH2 0x14A7 JUMPI PUSH1 0x40 MLOAD PUSH32 0x8C379A000000000000000000000000000000000000000000000000000000000 DUP2 MSTORE PUSH1 0x4 ADD PUSH2 0x149E SWAP1 PUSH2 0x49B0 JUMP JUMPDEST PUSH1 0x40 MLOAD DUP1 SWAP2 SUB SWAP1 REVERT JUMPDEST DUP1 SWAP2 POP POP SWAP2 SWAP1 POP JUMP JUMPDEST ADDRESS PUSH20 0xFFFFFFFFFFFFFFFFFFFFFFFFFFFFFFFFFFFFFFFF AND PUSH2 0x14CF PUSH2 0x2149 JUMP JUMPDEST PUSH20 0xFFFFFFFFFFFFFFFFFFFFFFFFFFFFFFFFFFFFFFFF AND EQ PUSH2 0x1525 JUMPI PUSH1 0x40 MLOAD PUSH32 0x8C379A000000000000000000000000000000000000000000000000000000000 DUP2 MSTORE PUSH1 0x4 ADD PUSH2 0x151C SWAP1 PUSH2 0x4A42 JUMP JUMPDEST PUSH1 0x40 MLOAD DUP1 SWAP2 SUB SWAP1 REVERT JUMPDEST PUSH2 0x1531 DUP5 DUP5 DUP5 DUP5 PUSH2 0x295D JUMP JUMPDEST POP POP POP POP JUMP JUMPDEST PUSH1 0x60 PUSH1 0x1 PUSH1 0x0 DUP4 PUSH2 0xFFFF AND PUSH2 0xFFFF AND DUP2 MSTORE PUSH1 0x20 ADD SWAP1 DUP2 MSTORE PUSH1 0x20 ADD PUSH1 0x0 KECCAK256 DUP1 SLOAD PUSH2 0x155F SWAP1 PUSH2 0x4365 JUMP JUMPDEST DUP1 PUSH1 0x1F ADD PUSH1 0x20 DUP1 SWAP2 DIV MUL PUSH1 0x20 ADD PUSH1 0x40 MLOAD SWAP1 DUP2 ADD PUSH1 0x40 MSTORE DUP1 SWAP3 SWAP2 SWAP1 DUP2 DUP2 MSTORE PUSH1 0x20 ADD DUP3 DUP1 SLOAD PUSH2 0x158B SWAP1 PUSH2 0x4365 JUMP JUMPDEST DUP1 ISZERO PUSH2 0x15D8 JUMPI DUP1 PUSH1 0x1F LT PUSH2 0x15AD JUMPI PUSH2 0x100 DUP1 DUP4 SLOAD DIV MUL DUP4 MSTORE SWAP2 PUSH1 0x20 ADD SWAP2 PUSH2 0x15D8 JUMP JUMPDEST DUP3 ADD SWAP2 SWAP1 PUSH1 0x0 MSTORE PUSH1 0x20 PUSH1 0x0 KECCAK256 SWAP1 JUMPDEST DUP2 SLOAD DUP2 MSTORE SWAP1 PUSH1 0x1 ADD SWAP1 PUSH1 0x20 ADD DUP1 DUP4 GT PUSH2 0x15BB JUMPI DUP3 SWAP1 SUB PUSH1 0x1F AND DUP3 ADD SWAP2 JUMPDEST POP POP POP POP POP SWAP1 POP SWAP2 SWAP1 POP JUMP JUMPDEST PUSH1 0xA SLOAD DUP2 JUMP JUMPDEST PUSH1 0x0 DUP1 PUSH20 0xFFFFFFFFFFFFFFFFFFFFFFFFFFFFFFFFFFFFFFFF AND DUP3 PUSH20 0xFFFFFFFFFFFFFFFFFFFFFFFFFFFFFFFFFFFFFFFF AND EQ ISZERO PUSH2 0x165B JUMPI PUSH1 0x40 MLOAD PUSH32 0x8C379A000000000000000000000000000000000000000000000000000000000 DUP2 MSTORE PUSH1 0x4 ADD PUSH2 0x1652 SWAP1 PUSH2 0x4AD4 JUMP JUMPDEST PUSH1 0x40 MLOAD DUP1 SWAP2 SUB SWAP1 REVERT JUMPDEST PUSH1 0x6 PUSH1 0x0 DUP4 PUSH20 0xFFFFFFFFFFFFFFFFFFFFFFFFFFFFFFFFFFFFFFFF AND PUSH20 0xFFFFFFFFFFFFFFFFFFFFFFFFFFFFFFFFFFFFFFFF AND DUP2 MSTORE PUSH1 0x20 ADD SWAP1 DUP2 MSTORE PUSH1 0x20 ADD PUSH1 0x0 KECCAK256 SLOAD SWAP1 POP SWAP2 SWAP1 POP JUMP JUMPDEST PUSH2 0x16AA PUSH2 0x2149 JUMP JUMPDEST PUSH20 0xFFFFFFFFFFFFFFFFFFFFFFFFFFFFFFFFFFFFFFFF AND PUSH2 0x16C8 PUSH2 0x172A JUMP JUMPDEST PUSH20 0xFFFFFFFFFFFFFFFFFFFFFFFFFFFFFFFFFFFFFFFF AND EQ PUSH2 0x171E JUMPI PUSH1 0x40 MLOAD PUSH32 0x8C379A000000000000000000000000000000000000000000000000000000000 DUP2 MSTORE PUSH1 0x4 ADD PUSH2 0x1715 SWAP1 PUSH2 0x452B JUMP JUMPDEST PUSH1 0x40 MLOAD DUP1 SWAP2 SUB SWAP1 REVERT JUMPDEST PUSH2 0x1728 PUSH1 0x0 PUSH2 0x29DD JUMP JUMPDEST JUMP JUMPDEST PUSH1 0x0 DUP1 PUSH1 0x0 SWAP1 SLOAD SWAP1 PUSH2 0x100 EXP SWAP1 DIV PUSH20 0xFFFFFFFFFFFFFFFFFFFFFFFFFFFFFFFFFFFFFFFF AND SWAP1 POP SWAP1 JUMP JUMPDEST PUSH1 0x2 PUSH1 0x20 MSTORE DUP3 PUSH1 0x0 MSTORE PUSH1 0x40 PUSH1 0x0 KECCAK256 DUP3 DUP1 MLOAD PUSH1 0x20 DUP2 ADD DUP3 ADD DUP1 MLOAD DUP5 DUP3 MSTORE PUSH1 0x20 DUP4 ADD PUSH1 0x20 DUP6 ADD KECCAK256 DUP2 DUP4 MSTORE DUP1 SWAP6 POP POP POP POP POP POP PUSH1 0x20 MSTORE DUP1 PUSH1 0x0 MSTORE PUSH1 0x40 PUSH1 0x0 KECCAK256 PUSH1 0x0 SWAP3 POP SWAP3 POP POP POP SLOAD DUP2 JUMP JUMPDEST PUSH1 0x60 PUSH1 0x4 DUP1 SLOAD PUSH2 0x17AA SWAP1 PUSH2 0x4365 JUMP JUMPDEST DUP1 PUSH1 0x1F ADD PUSH1 0x20 DUP1 SWAP2 DIV MUL PUSH1 0x20 ADD PUSH1 0x40 MLOAD SWAP1 DUP2 ADD PUSH1 0x40 MSTORE DUP1 SWAP3 SWAP2 SWAP1 DUP2 DUP2 MSTORE PUSH1 0x20 ADD DUP3 DUP1 SLOAD PUSH2 0x17D6 SWAP1 PUSH2 0x4365 JUMP JUMPDEST DUP1 ISZERO PUSH2 0x1823 JUMPI DUP1 PUSH1 0x1F LT PUSH2 0x17F8 JUMPI PUSH2 0x100 DUP1 DUP4 SLOAD DIV MUL DUP4 MSTORE SWAP2 PUSH1 0x20 ADD SWAP2 PUSH2 0x1823 JUMP JUMPDEST DUP3 ADD SWAP2 SWAP1 PUSH1 0x0 MSTORE PUSH1 0x20 PUSH1 0x0 KECCAK256 SWAP1 JUMPDEST DUP2 SLOAD DUP2 MSTORE SWAP1 PUSH1 0x1 ADD SWAP1 PUSH1 0x20 ADD DUP1 DUP4 GT PUSH2 0x1806 JUMPI DUP3 SWAP1 SUB PUSH1 0x1F AND DUP3 ADD SWAP2 JUMPDEST POP POP POP POP POP SWAP1 POP SWAP1 JUMP JUMPDEST PUSH2 0x183F PUSH2 0x1838 PUSH2 0x2149 JUMP JUMPDEST DUP4 DUP4 PUSH2 0x2AA1 JUMP JUMPDEST POP POP JUMP JUMPDEST PUSH2 0x1854 PUSH2 0x184E PUSH2 0x2149 JUMP JUMPDEST DUP4 PUSH2 0x2413 JUMP JUMPDEST PUSH2 0x1893 JUMPI PUSH1 0x40 MLOAD PUSH32 0x8C379A000000000000000000000000000000000000000000000000000000000 DUP2 MSTORE PUSH1 0x4 ADD PUSH2 0x188A SWAP1 PUSH2 0x4881 JUMP JUMPDEST PUSH1 0x40 MLOAD DUP1 SWAP2 SUB SWAP1 REVERT JUMPDEST PUSH2 0x189F DUP5 DUP5 DUP5 DUP5 PUSH2 0x2C0E JUMP JUMPDEST POP POP POP POP JUMP JUMPDEST PUSH1 0x60 PUSH2 0x18B0 DUP3 PUSH2 0x22D0 JUMP JUMPDEST PUSH2 0x18EF JUMPI PUSH1 0x40 MLOAD PUSH32 0x8C379A000000000000000000000000000000000000000000000000000000000 DUP2 MSTORE PUSH1 0x4 ADD PUSH2 0x18E6 SWAP1 PUSH2 0x4B66 JUMP JUMPDEST PUSH1 0x40 MLOAD DUP1 SWAP2 SUB SWAP1 REVERT JUMPDEST PUSH1 0x0 PUSH2 0x18F9 PUSH2 0x2C6A JUMP JUMPDEST SWAP1 POP PUSH1 0x0 DUP2 MLOAD GT PUSH2 0x1919 JUMPI PUSH1 0x40 MLOAD DUP1 PUSH1 0x20 ADD PUSH1 0x40 MSTORE DUP1 PUSH1 0x0 DUP2 MSTORE POP PUSH2 0x1944 JUMP JUMPDEST DUP1 PUSH2 0x1923 DUP5 PUSH2 0x2CFC JUMP JUMPDEST PUSH1 0x40 MLOAD PUSH1 0x20 ADD PUSH2 0x1934 SWAP3 SWAP2 SWAP1 PUSH2 0x4BC2 JUMP JUMPDEST PUSH1 0x40 MLOAD PUSH1 0x20 DUP2 DUP4 SUB SUB DUP2 MSTORE SWAP1 PUSH1 0x40 MSTORE JUMPDEST SWAP2 POP POP SWAP2 SWAP1 POP JUMP JUMPDEST PUSH2 0x1954 PUSH2 0x2149 JUMP JUMPDEST PUSH20 0xFFFFFFFFFFFFFFFFFFFFFFFFFFFFFFFFFFFFFFFF AND PUSH2 0x1972 PUSH2 0x172A JUMP JUMPDEST PUSH20 0xFFFFFFFFFFFFFFFFFFFFFFFFFFFFFFFFFFFFFFFF AND EQ PUSH2 0x19C8 JUMPI PUSH1 0x40 MLOAD PUSH32 0x8C379A000000000000000000000000000000000000000000000000000000000 DUP2 MSTORE PUSH1 0x4 ADD PUSH2 0x19BF SWAP1 PUSH2 0x452B JUMP JUMPDEST PUSH1 0x40 MLOAD DUP1 SWAP2 SUB SWAP1 REVERT JUMPDEST PUSH32 0x0 PUSH20 0xFFFFFFFFFFFFFFFFFFFFFFFFFFFFFFFFFFFFFFFF AND PUSH4 0xCBED8B9C DUP7 DUP7 DUP7 DUP7 DUP7 PUSH1 0x40 MLOAD DUP7 PUSH4 0xFFFFFFFF AND PUSH1 0xE0 SHL DUP2 MSTORE PUSH1 0x4 ADD PUSH2 0x1A29 SWAP6 SWAP5 SWAP4 SWAP3 SWAP2 SWAP1 PUSH2 0x4BE6 JUMP JUMPDEST PUSH1 0x0 PUSH1 0x40 MLOAD DUP1 DUP4 SUB DUP2 PUSH1 0x0 DUP8 DUP1 EXTCODESIZE ISZERO DUP1 ISZERO PUSH2 0x1A43 JUMPI PUSH1 0x0 DUP1 REVERT JUMPDEST POP GAS CALL ISZERO DUP1 ISZERO PUSH2 0x1A57 JUMPI RETURNDATASIZE PUSH1 0x0 DUP1 RETURNDATACOPY RETURNDATASIZE PUSH1 0x0 REVERT JUMPDEST POP POP POP POP POP POP POP POP POP JUMP JUMPDEST PUSH1 0x0 PUSH1 0x2 PUSH1 0x0 DUP8 PUSH2 0xFFFF AND PUSH2 0xFFFF AND DUP2 MSTORE PUSH1 0x20 ADD SWAP1 DUP2 MSTORE PUSH1 0x20 ADD PUSH1 0x0 KECCAK256 DUP6 PUSH1 0x40 MLOAD PUSH2 0x1A8D SWAP2 SWAP1 PUSH2 0x4C65 JUMP JUMPDEST SWAP1 DUP2 MSTORE PUSH1 0x20 ADD PUSH1 0x40 MLOAD DUP1 SWAP2 SUB SWAP1 KECCAK256 PUSH1 0x0 DUP6 PUSH8 0xFFFFFFFFFFFFFFFF AND DUP2 MSTORE PUSH1 0x20 ADD SWAP1 DUP2 MSTORE PUSH1 0x20 ADD PUSH1 0x0 KECCAK256 SLOAD SWAP1 POP PUSH1 0x0 DUP1 SHL DUP2 EQ ISZERO PUSH2 0x1AFF JUMPI PUSH1 0x40 MLOAD PUSH32 0x8C379A000000000000000000000000000000000000000000000000000000000 DUP2 MSTORE PUSH1 0x4 ADD PUSH2 0x1AF6 SWAP1 PUSH2 0x4CC8 JUMP JUMPDEST PUSH1 0x40 MLOAD DUP1 SWAP2 SUB SWAP1 REVERT JUMPDEST DUP1 DUP4 DUP4 PUSH1 0x40 MLOAD PUSH2 0x1B10 SWAP3 SWAP2 SWAP1 PUSH2 0x48C6 JUMP JUMPDEST PUSH1 0x40 MLOAD DUP1 SWAP2 SUB SWAP1 KECCAK256 EQ PUSH2 0x1B58 JUMPI PUSH1 0x40 MLOAD PUSH32 0x8C379A000000000000000000000000000000000000000000000000000000000 DUP2 MSTORE PUSH1 0x4 ADD PUSH2 0x1B4F SWAP1 PUSH2 0x4D34 JUMP JUMPDEST PUSH1 0x40 MLOAD DUP1 SWAP2 SUB SWAP1 REVERT JUMPDEST PUSH1 0x0 DUP1 SHL PUSH1 0x2 PUSH1 0x0 DUP9 PUSH2 0xFFFF AND PUSH2 0xFFFF AND DUP2 MSTORE PUSH1 0x20 ADD SWAP1 DUP2 MSTORE PUSH1 0x20 ADD PUSH1 0x0 KECCAK256 DUP7 PUSH1 0x40 MLOAD PUSH2 0x1B85 SWAP2 SWAP1 PUSH2 0x4C65 JUMP JUMPDEST SWAP1 DUP2 MSTORE PUSH1 0x20 ADD PUSH1 0x40 MLOAD DUP1 SWAP2 SUB SWAP1 KECCAK256 PUSH1 0x0 DUP7 PUSH8 0xFFFFFFFFFFFFFFFF AND DUP2 MSTORE PUSH1 0x20 ADD SWAP1 DUP2 MSTORE PUSH1 0x20 ADD PUSH1 0x0 KECCAK256 DUP2 SWAP1 SSTORE POP ADDRESS PUSH20 0xFFFFFFFFFFFFFFFFFFFFFFFFFFFFFFFFFFFFFFFF AND PUSH4 0x66AD5C8A DUP8 DUP8 DUP8 DUP8 DUP8 PUSH1 0x40 MLOAD DUP7 PUSH4 0xFFFFFFFF AND PUSH1 0xE0 SHL DUP2 MSTORE PUSH1 0x4 ADD PUSH2 0x1BF3 SWAP6 SWAP5 SWAP4 SWAP3 SWAP2 SWAP1 PUSH2 0x4D63 JUMP JUMPDEST PUSH1 0x0 PUSH1 0x40 MLOAD DUP1 DUP4 SUB DUP2 PUSH1 0x0 DUP8 DUP1 EXTCODESIZE ISZERO DUP1 ISZERO PUSH2 0x1C0D JUMPI PUSH1 0x0 DUP1 REVERT JUMPDEST POP GAS CALL ISZERO DUP1 ISZERO PUSH2 0x1C21 JUMPI RETURNDATASIZE PUSH1 0x0 DUP1 RETURNDATACOPY RETURNDATASIZE PUSH1 0x0 REVERT JUMPDEST POP POP POP POP POP POP POP POP POP POP JUMP JUMPDEST PUSH1 0x9 DUP1 SLOAD PUSH2 0x1C3A SWAP1 PUSH2 0x4365 JUMP JUMPDEST DUP1 PUSH1 0x1F ADD PUSH1 0x20 DUP1 SWAP2 DIV MUL PUSH1 0x20 ADD PUSH1 0x40 MLOAD SWAP1 DUP2 ADD PUSH1 0x40 MSTORE DUP1 SWAP3 SWAP2 SWAP1 DUP2 DUP2 MSTORE PUSH1 0x20 ADD DUP3 DUP1 SLOAD PUSH2 0x1C66 SWAP1 PUSH2 0x4365 JUMP JUMPDEST DUP1 ISZERO PUSH2 0x1CB3 JUMPI DUP1 PUSH1 0x1F LT PUSH2 0x1C88 JUMPI PUSH2 0x100 DUP1 DUP4 SLOAD DIV MUL DUP4 MSTORE SWAP2 PUSH1 0x20 ADD SWAP2 PUSH2 0x1CB3 JUMP JUMPDEST DUP3 ADD SWAP2 SWAP1 PUSH1 0x0 MSTORE PUSH1 0x20 PUSH1 0x0 KECCAK256 SWAP1 JUMPDEST DUP2 SLOAD DUP2 MSTORE SWAP1 PUSH1 0x1 ADD SWAP1 PUSH1 0x20 ADD DUP1 DUP4 GT PUSH2 0x1C96 JUMPI DUP3 SWAP1 SUB PUSH1 0x1F AND DUP3 ADD SWAP2 JUMPDEST POP POP POP POP POP DUP2 JUMP JUMPDEST PUSH1 0x10 PUSH1 0x20 MSTORE DUP1 PUSH1 0x0 MSTORE PUSH1 0x40 PUSH1 0x0 KECCAK256 PUSH1 0x0 SWAP2 POP SLOAD SWAP1 PUSH2 0x100 EXP SWAP1 DIV PUSH1 0xFF AND DUP2 JUMP JUMPDEST PUSH1 0x0 PUSH32 0x0 SWAP1 POP SWAP1 JUMP JUMPDEST PUSH1 0xB SLOAD DUP2 JUMP JUMPDEST PUSH1 0x0 PUSH1 0x8 PUSH1 0x0 DUP5 PUSH20 0xFFFFFFFFFFFFFFFFFFFFFFFFFFFFFFFFFFFFFFFF AND PUSH20 0xFFFFFFFFFFFFFFFFFFFFFFFFFFFFFFFFFFFFFFFF AND DUP2 MSTORE PUSH1 0x20 ADD SWAP1 DUP2 MSTORE PUSH1 0x20 ADD PUSH1 0x0 KECCAK256 PUSH1 0x0 DUP4 PUSH20 0xFFFFFFFFFFFFFFFFFFFFFFFFFFFFFFFFFFFFFFFF AND PUSH20 0xFFFFFFFFFFFFFFFFFFFFFFFFFFFFFFFFFFFFFFFF AND DUP2 MSTORE PUSH1 0x20 ADD SWAP1 DUP2 MSTORE PUSH1 0x20 ADD PUSH1 0x0 KECCAK256 PUSH1 0x0 SWAP1 SLOAD SWAP1 PUSH2 0x100 EXP SWAP1 DIV PUSH1 0xFF AND SWAP1 POP SWAP3 SWAP2 POP POP JUMP JUMPDEST PUSH2 0x1DA5 PUSH2 0x2149 JUMP JUMPDEST PUSH20 0xFFFFFFFFFFFFFFFFFFFFFFFFFFFFFFFFFFFFFFFF AND PUSH2 0x1DC3 PUSH2 0x172A JUMP JUMPDEST PUSH20 0xFFFFFFFFFFFFFFFFFFFFFFFFFFFFFFFFFFFFFFFF AND EQ PUSH2 0x1E19 JUMPI PUSH1 0x40 MLOAD PUSH32 0x8C379A000000000000000000000000000000000000000000000000000000000 DUP2 MSTORE PUSH1 0x4 ADD PUSH2 0x1E10 SWAP1 PUSH2 0x452B JUMP JUMPDEST PUSH1 0x40 MLOAD DUP1 SWAP2 SUB SWAP1 REVERT JUMPDEST DUP2 DUP2 PUSH1 0x1 PUSH1 0x0 DUP7 PUSH2 0xFFFF AND PUSH2 0xFFFF AND DUP2 MSTORE PUSH1 0x20 ADD SWAP1 DUP2 MSTORE PUSH1 0x20 ADD PUSH1 0x0 KECCAK256 SWAP2 SWAP1 PUSH2 0x1E43 SWAP3 SWAP2 SWAP1 PUSH2 0x3544 JUMP JUMPDEST POP PUSH32 0xFA41487AD5D6728F0B19276FA1EDDC16558578F5109FC39D2DC33C3230470DAB DUP4 DUP4 DUP4 PUSH1 0x40 MLOAD PUSH2 0x1E77 SWAP4 SWAP3 SWAP2 SWAP1 PUSH2 0x490C JUMP JUMPDEST PUSH1 0x40 MLOAD DUP1 SWAP2 SUB SWAP1 LOG1 POP POP POP JUMP JUMPDEST PUSH2 0x1EDF PUSH2 0x1E8F PUSH2 0x2149 JUMP JUMPDEST DUP10 DUP10 DUP10 DUP1 DUP1 PUSH1 0x1F ADD PUSH1 0x20 DUP1 SWAP2 DIV MUL PUSH1 0x20 ADD PUSH1 0x40 MLOAD SWAP1 DUP2 ADD PUSH1 0x40 MSTORE DUP1 SWAP4 SWAP3 SWAP2 SWAP1 DUP2 DUP2 MSTORE PUSH1 0x20 ADD DUP4 DUP4 DUP1 DUP3 DUP5 CALLDATACOPY PUSH1 0x0 DUP2 DUP5 ADD MSTORE PUSH1 0x1F NOT PUSH1 0x1F DUP3 ADD AND SWAP1 POP DUP1 DUP4 ADD SWAP3 POP POP POP POP POP POP POP DUP9 DUP9 DUP9 DUP9 DUP9 PUSH2 0x2758 JUMP JUMPDEST POP POP POP POP POP POP POP POP JUMP JUMPDEST PUSH2 0x1EF1 PUSH2 0x2149 JUMP JUMPDEST PUSH20 0xFFFFFFFFFFFFFFFFFFFFFFFFFFFFFFFFFFFFFFFF AND PUSH2 0x1F0F PUSH2 0x172A JUMP JUMPDEST PUSH20 0xFFFFFFFFFFFFFFFFFFFFFFFFFFFFFFFFFFFFFFFF AND EQ PUSH2 0x1F65 JUMPI PUSH1 0x40 MLOAD PUSH32 0x8C379A000000000000000000000000000000000000000000000000000000000 DUP2 MSTORE PUSH1 0x4 ADD PUSH2 0x1F5C SWAP1 PUSH2 0x452B JUMP JUMPDEST PUSH1 0x40 MLOAD DUP1 SWAP2 SUB SWAP1 REVERT JUMPDEST PUSH1 0x0 PUSH20 0xFFFFFFFFFFFFFFFFFFFFFFFFFFFFFFFFFFFFFFFF AND DUP2 PUSH20 0xFFFFFFFFFFFFFFFFFFFFFFFFFFFFFFFFFFFFFFFF AND EQ ISZERO PUSH2 0x1FD5 JUMPI PUSH1 0x40 MLOAD PUSH32 0x8C379A000000000000000000000000000000000000000000000000000000000 DUP2 MSTORE PUSH1 0x4 ADD PUSH2 0x1FCC SWAP1 PUSH2 0x4E2A JUMP JUMPDEST PUSH1 0x40 MLOAD DUP1 SWAP2 SUB SWAP1 REVERT JUMPDEST PUSH2 0x1FDE DUP2 PUSH2 0x29DD JUMP JUMPDEST POP JUMP JUMPDEST PUSH1 0x60 PUSH32 0x0 PUSH20 0xFFFFFFFFFFFFFFFFFFFFFFFFFFFFFFFFFFFFFFFF AND PUSH4 0xF5ECBDBC PUSH32 0x0 PUSH20 0xFFFFFFFFFFFFFFFFFFFFFFFFFFFFFFFFFFFFFFFF AND PUSH4 0x96568F6 ADDRESS PUSH1 0x40 MLOAD DUP3 PUSH4 0xFFFFFFFF AND PUSH1 0xE0 SHL DUP2 MSTORE PUSH1 0x4 ADD PUSH2 0x2078 SWAP2 SWAP1 PUSH2 0x3A90 JUMP JUMPDEST PUSH1 0x20 PUSH1 0x40 MLOAD DUP1 DUP4 SUB DUP2 DUP7 DUP1 EXTCODESIZE ISZERO DUP1 ISZERO PUSH2 0x2090 JUMPI PUSH1 0x0 DUP1 REVERT JUMPDEST POP GAS STATICCALL ISZERO DUP1 ISZERO PUSH2 0x20A4 JUMPI RETURNDATASIZE PUSH1 0x0 DUP1 RETURNDATACOPY RETURNDATASIZE PUSH1 0x0 REVERT JUMPDEST POP POP POP POP PUSH1 0x40 MLOAD RETURNDATASIZE PUSH1 0x1F NOT PUSH1 0x1F DUP3 ADD AND DUP3 ADD DUP1 PUSH1 0x40 MSTORE POP DUP2 ADD SWAP1 PUSH2 0x20C8 SWAP2 SWAP1 PUSH2 0x4E5F JUMP JUMPDEST DUP7 ADDRESS DUP7 PUSH1 0x40 MLOAD DUP6 PUSH4 0xFFFFFFFF AND PUSH1 0xE0 SHL DUP2 MSTORE PUSH1 0x4 ADD PUSH2 0x20EA SWAP5 SWAP4 SWAP3 SWAP2 SWAP1 PUSH2 0x4E8C JUMP JUMPDEST PUSH1 0x0 PUSH1 0x40 MLOAD DUP1 DUP4 SUB DUP2 DUP7 DUP1 EXTCODESIZE ISZERO DUP1 ISZERO PUSH2 0x2102 JUMPI PUSH1 0x0 DUP1 REVERT JUMPDEST POP GAS STATICCALL ISZERO DUP1 ISZERO PUSH2 0x2116 JUMPI RETURNDATASIZE PUSH1 0x0 DUP1 RETURNDATACOPY RETURNDATASIZE PUSH1 0x0 REVERT JUMPDEST POP POP POP POP PUSH1 0x40 MLOAD RETURNDATASIZE PUSH1 0x0 DUP3 RETURNDATACOPY RETURNDATASIZE PUSH1 0x1F NOT PUSH1 0x1F DUP3 ADD AND DUP3 ADD DUP1 PUSH1 0x40 MSTORE POP DUP2 ADD SWAP1 PUSH2 0x213F SWAP2 SWAP1 PUSH2 0x4F41 JUMP JUMPDEST SWAP1 POP SWAP5 SWAP4 POP POP POP POP JUMP JUMPDEST PUSH1 0x0 CALLER SWAP1 POP SWAP1 JUMP JUMPDEST ADDRESS PUSH20 0xFFFFFFFFFFFFFFFFFFFFFFFFFFFFFFFFFFFFFFFF AND PUSH4 0x66AD5C8A DUP6 DUP6 DUP6 DUP6 PUSH1 0x40 MLOAD DUP6 PUSH4 0xFFFFFFFF AND PUSH1 0xE0 SHL DUP2 MSTORE PUSH1 0x4 ADD PUSH2 0x2190 SWAP5 SWAP4 SWAP3 SWAP2 SWAP1 PUSH2 0x4F8A JUMP JUMPDEST PUSH1 0x0 PUSH1 0x40 MLOAD DUP1 DUP4 SUB DUP2 PUSH1 0x0 DUP8 DUP1 EXTCODESIZE ISZERO DUP1 ISZERO PUSH2 0x21AA JUMPI PUSH1 0x0 DUP1 REVERT JUMPDEST POP GAS CALL SWAP3 POP POP POP DUP1 ISZERO PUSH2 0x21BB JUMPI POP PUSH1 0x1 JUMPDEST PUSH2 0x225F JUMPI DUP1 DUP1 MLOAD SWAP1 PUSH1 0x20 ADD KECCAK256 PUSH1 0x2 PUSH1 0x0 DUP7 PUSH2 0xFFFF AND PUSH2 0xFFFF AND DUP2 MSTORE PUSH1 0x20 ADD SWAP1 DUP2 MSTORE PUSH1 0x20 ADD PUSH1 0x0 KECCAK256 DUP5 PUSH1 0x40 MLOAD PUSH2 0x21F0 SWAP2 SWAP1 PUSH2 0x4C65 JUMP JUMPDEST SWAP1 DUP2 MSTORE PUSH1 0x20 ADD PUSH1 0x40 MLOAD DUP1 SWAP2 SUB SWAP1 KECCAK256 PUSH1 0x0 DUP5 PUSH8 0xFFFFFFFFFFFFFFFF AND DUP2 MSTORE PUSH1 0x20 ADD SWAP1 DUP2 MSTORE PUSH1 0x20 ADD PUSH1 0x0 KECCAK256 DUP2 SWAP1 SSTORE POP PUSH32 0xE6F254030BCB01FFD20558175C13FCAED6D1520BE7BECEE4C961B65F79243B0D DUP5 DUP5 DUP5 DUP5 PUSH1 0x40 MLOAD PUSH2 0x2252 SWAP5 SWAP4 SWAP3 SWAP2 SWAP1 PUSH2 0x4F8A JUMP JUMPDEST PUSH1 0x40 MLOAD DUP1 SWAP2 SUB SWAP1 LOG1 PUSH2 0x2260 JUMP JUMPDEST JUMPDEST POP POP POP POP JUMP JUMPDEST PUSH1 0x0 PUSH32 0x1FFC9A700000000000000000000000000000000000000000000000000000000 PUSH28 0xFFFFFFFFFFFFFFFFFFFFFFFFFFFFFFFFFFFFFFFFFFFFFFFFFFFFFFFF NOT AND DUP3 PUSH28 0xFFFFFFFFFFFFFFFFFFFFFFFFFFFFFFFFFFFFFFFFFFFFFFFFFFFFFFFF NOT AND EQ SWAP1 POP SWAP2 SWAP1 POP JUMP JUMPDEST PUSH1 0x0 DUP1 PUSH20 0xFFFFFFFFFFFFFFFFFFFFFFFFFFFFFFFFFFFFFFFF AND PUSH1 0x5 PUSH1 0x0 DUP5 DUP2 MSTORE PUSH1 0x20 ADD SWAP1 DUP2 MSTORE PUSH1 0x20 ADD PUSH1 0x0 KECCAK256 PUSH1 0x0 SWAP1 SLOAD SWAP1 PUSH2 0x100 EXP SWAP1 DIV PUSH20 0xFFFFFFFFFFFFFFFFFFFFFFFFFFFFFFFFFFFFFFFF AND PUSH20 0xFFFFFFFFFFFFFFFFFFFFFFFFFFFFFFFFFFFFFFFF AND EQ ISZERO SWAP1 POP SWAP2 SWAP1 POP JUMP JUMPDEST DUP2 PUSH1 0x7 PUSH1 0x0 DUP4 DUP2 MSTORE PUSH1 0x20 ADD SWAP1 DUP2 MSTORE PUSH1 0x20 ADD PUSH1 0x0 KECCAK256 PUSH1 0x0 PUSH2 0x100 EXP DUP2 SLOAD DUP2 PUSH20 0xFFFFFFFFFFFFFFFFFFFFFFFFFFFFFFFFFFFFFFFF MUL NOT AND SWAP1 DUP4 PUSH20 0xFFFFFFFFFFFFFFFFFFFFFFFFFFFFFFFFFFFFFFFF AND MUL OR SWAP1 SSTORE POP DUP1 DUP3 PUSH20 0xFFFFFFFFFFFFFFFFFFFFFFFFFFFFFFFFFFFFFFFF AND PUSH2 0x23AF DUP4 PUSH2 0x13FE JUMP JUMPDEST PUSH20 0xFFFFFFFFFFFFFFFFFFFFFFFFFFFFFFFFFFFFFFFF AND PUSH32 0x8C5BE1E5EBEC7D5BD14F71427D1E84F3DD0314C0F7B2291E5B200AC8C7C3B925 PUSH1 0x40 MLOAD PUSH1 0x40 MLOAD DUP1 SWAP2 SUB SWAP1 LOG4 POP POP JUMP JUMPDEST PUSH2 0x240F DUP3 DUP3 PUSH1 0x40 MLOAD DUP1 PUSH1 0x20 ADD PUSH1 0x40 MSTORE DUP1 PUSH1 0x0 DUP2 MSTORE POP PUSH2 0x2E5D JUMP JUMPDEST POP POP JUMP JUMPDEST PUSH1 0x0 PUSH2 0x241E DUP3 PUSH2 0x22D0 JUMP JUMPDEST PUSH2 0x245D JUMPI PUSH1 0x40 MLOAD PUSH32 0x8C379A000000000000000000000000000000000000000000000000000000000 DUP2 MSTORE PUSH1 0x4 ADD PUSH2 0x2454 SWAP1 PUSH2 0x504F JUMP JUMPDEST PUSH1 0x40 MLOAD DUP1 SWAP2 SUB SWAP1 REVERT JUMPDEST PUSH1 0x0 PUSH2 0x2468 DUP4 PUSH2 0x13FE JUMP JUMPDEST SWAP1 POP DUP1 PUSH20 0xFFFFFFFFFFFFFFFFFFFFFFFFFFFFFFFFFFFFFFFF AND DUP5 PUSH20 0xFFFFFFFFFFFFFFFFFFFFFFFFFFFFFFFFFFFFFFFF AND EQ DUP1 PUSH2 0x24D7 JUMPI POP DUP4 PUSH20 0xFFFFFFFFFFFFFFFFFFFFFFFFFFFFFFFFFFFFFFFF AND PUSH2 0x24BF DUP5 PUSH2 0xCA1 JUMP JUMPDEST PUSH20 0xFFFFFFFFFFFFFFFFFFFFFFFFFFFFFFFFFFFFFFFF AND EQ JUMPDEST DUP1 PUSH2 0x24E8 JUMPI POP PUSH2 0x24E7 DUP2 DUP6 PUSH2 0x1D09 JUMP JUMPDEST JUMPDEST SWAP2 POP POP SWAP3 SWAP2 POP POP JUMP JUMPDEST DUP3 PUSH20 0xFFFFFFFFFFFFFFFFFFFFFFFFFFFFFFFFFFFFFFFF AND PUSH2 0x2511 DUP3 PUSH2 0x13FE JUMP JUMPDEST PUSH20 0xFFFFFFFFFFFFFFFFFFFFFFFFFFFFFFFFFFFFFFFF AND EQ PUSH2 0x2567 JUMPI PUSH1 0x40 MLOAD PUSH32 0x8C379A000000000000000000000000000000000000000000000000000000000 DUP2 MSTORE PUSH1 0x4 ADD PUSH2 0x255E SWAP1 PUSH2 0x50E1 JUMP JUMPDEST PUSH1 0x40 MLOAD DUP1 SWAP2 SUB SWAP1 REVERT JUMPDEST PUSH1 0x0 PUSH20 0xFFFFFFFFFFFFFFFFFFFFFFFFFFFFFFFFFFFFFFFF AND DUP3 PUSH20 0xFFFFFFFFFFFFFFFFFFFFFFFFFFFFFFFFFFFFFFFF AND EQ ISZERO PUSH2 0x25D7 JUMPI PUSH1 0x40 MLOAD PUSH32 0x8C379A000000000000000000000000000000000000000000000000000000000 DUP2 MSTORE PUSH1 0x4 ADD PUSH2 0x25CE SWAP1 PUSH2 0x5173 JUMP JUMPDEST PUSH1 0x40 MLOAD DUP1 SWAP2 SUB SWAP1 REVERT JUMPDEST PUSH2 0x25E2 DUP4 DUP4 DUP4 PUSH2 0x2EB8 JUMP JUMPDEST PUSH2 0x25ED PUSH1 0x0 DUP3 PUSH2 0x233C JUMP JUMPDEST PUSH1 0x1 PUSH1 0x6 PUSH1 0x0 DUP6 PUSH20 0xFFFFFFFFFFFFFFFFFFFFFFFFFFFFFFFFFFFFFFFF AND PUSH20 0xFFFFFFFFFFFFFFFFFFFFFFFFFFFFFFFFFFFFFFFF AND DUP2 MSTORE PUSH1 0x20 ADD SWAP1 DUP2 MSTORE PUSH1 0x20 ADD PUSH1 0x0 KECCAK256 PUSH1 0x0 DUP3 DUP3 SLOAD PUSH2 0x263D SWAP2 SWAP1 PUSH2 0x5193 JUMP JUMPDEST SWAP3 POP POP DUP2 SWAP1 SSTORE POP PUSH1 0x1 PUSH1 0x6 PUSH1 0x0 DUP5 PUSH20 0xFFFFFFFFFFFFFFFFFFFFFFFFFFFFFFFFFFFFFFFF AND PUSH20 0xFFFFFFFFFFFFFFFFFFFFFFFFFFFFFFFFFFFFFFFF AND DUP2 MSTORE PUSH1 0x20 ADD SWAP1 DUP2 MSTORE PUSH1 0x20 ADD PUSH1 0x0 KECCAK256 PUSH1 0x0 DUP3 DUP3 SLOAD PUSH2 0x2694 SWAP2 SWAP1 PUSH2 0x51C7 JUMP JUMPDEST SWAP3 POP POP DUP2 SWAP1 SSTORE POP DUP2 PUSH1 0x5 PUSH1 0x0 DUP4 DUP2 MSTORE PUSH1 0x20 ADD SWAP1 DUP2 MSTORE PUSH1 0x20 ADD PUSH1 0x0 KECCAK256 PUSH1 0x0 PUSH2 0x100 EXP DUP2 SLOAD DUP2 PUSH20 0xFFFFFFFFFFFFFFFFFFFFFFFFFFFFFFFFFFFFFFFF MUL NOT AND SWAP1 DUP4 PUSH20 0xFFFFFFFFFFFFFFFFFFFFFFFFFFFFFFFFFFFFFFFF AND MUL OR SWAP1 SSTORE POP DUP1 DUP3 PUSH20 0xFFFFFFFFFFFFFFFFFFFFFFFFFFFFFFFFFFFFFFFF AND DUP5 PUSH20 0xFFFFFFFFFFFFFFFFFFFFFFFFFFFFFFFFFFFFFFFF AND PUSH32 0xDDF252AD1BE2C89B69C2B068FC378DAA952BA7F163C4A11628F55A4DF523B3EF PUSH1 0x40 MLOAD PUSH1 0x40 MLOAD DUP1 SWAP2 SUB SWAP1 LOG4 PUSH2 0x2753 DUP4 DUP4 DUP4 PUSH2 0x2EBD JUMP JUMPDEST POP POP POP JUMP JUMPDEST PUSH2 0x2769 PUSH2 0x2763 PUSH2 0x2149 JUMP JUMPDEST DUP7 PUSH2 0x2413 JUMP JUMPDEST PUSH2 0x27A8 JUMPI PUSH1 0x40 MLOAD PUSH32 0x8C379A000000000000000000000000000000000000000000000000000000000 DUP2 MSTORE PUSH1 0x4 ADD PUSH2 0x279F SWAP1 PUSH2 0x4881 JUMP JUMPDEST PUSH1 0x40 MLOAD DUP1 SWAP2 SUB SWAP1 REVERT JUMPDEST PUSH2 0x27B4 DUP9 DUP9 DUP9 DUP9 PUSH2 0x2EC2 JUMP JUMPDEST PUSH1 0x0 DUP7 DUP7 PUSH1 0x40 MLOAD PUSH1 0x20 ADD PUSH2 0x27C9 SWAP3 SWAP2 SWAP1 PUSH2 0x521D JUMP JUMPDEST PUSH1 0x40 MLOAD PUSH1 0x20 DUP2 DUP4 SUB SUB DUP2 MSTORE SWAP1 PUSH1 0x40 MSTORE SWAP1 POP PUSH2 0x282B DUP9 DUP3 DUP8 DUP8 DUP8 DUP8 DUP1 DUP1 PUSH1 0x1F ADD PUSH1 0x20 DUP1 SWAP2 DIV MUL PUSH1 0x20 ADD PUSH1 0x40 MLOAD SWAP1 DUP2 ADD PUSH1 0x40 MSTORE DUP1 SWAP4 SWAP3 SWAP2 SWAP1 DUP2 DUP2 MSTORE PUSH1 0x20 ADD DUP4 DUP4 DUP1 DUP3 DUP5 CALLDATACOPY PUSH1 0x0 DUP2 DUP5 ADD MSTORE PUSH1 0x1F NOT PUSH1 0x1F DUP3 ADD AND SWAP1 POP DUP1 DUP4 ADD SWAP3 POP POP POP POP POP POP POP PUSH2 0x2ED1 JUMP JUMPDEST PUSH1 0x0 PUSH32 0x0 PUSH20 0xFFFFFFFFFFFFFFFFFFFFFFFFFFFFFFFFFFFFFFFF AND PUSH4 0x7A145748 DUP11 ADDRESS PUSH1 0x40 MLOAD DUP4 PUSH4 0xFFFFFFFF AND PUSH1 0xE0 SHL DUP2 MSTORE PUSH1 0x4 ADD PUSH2 0x2888 SWAP3 SWAP2 SWAP1 PUSH2 0x524D JUMP JUMPDEST PUSH1 0x20 PUSH1 0x40 MLOAD DUP1 DUP4 SUB DUP2 DUP7 DUP1 EXTCODESIZE ISZERO DUP1 ISZERO PUSH2 0x28A0 JUMPI PUSH1 0x0 DUP1 REVERT JUMPDEST POP GAS STATICCALL ISZERO DUP1 ISZERO PUSH2 0x28B4 JUMPI RETURNDATASIZE PUSH1 0x0 DUP1 RETURNDATACOPY RETURNDATASIZE PUSH1 0x0 REVERT JUMPDEST POP POP POP POP PUSH1 0x40 MLOAD RETURNDATASIZE PUSH1 0x1F NOT PUSH1 0x1F DUP3 ADD AND DUP3 ADD DUP1 PUSH1 0x40 MSTORE POP DUP2 ADD SWAP1 PUSH2 0x28D8 SWAP2 SWAP1 PUSH2 0x528B JUMP JUMPDEST SWAP1 POP DUP8 PUSH1 0x40 MLOAD PUSH2 0x28E8 SWAP2 SWAP1 PUSH2 0x4C65 JUMP JUMPDEST PUSH1 0x40 MLOAD DUP1 SWAP2 SUB SWAP1 KECCAK256 DUP10 PUSH2 0xFFFF AND DUP12 PUSH20 0xFFFFFFFFFFFFFFFFFFFFFFFFFFFFFFFFFFFFFFFF AND PUSH32 0x24797CC77CE15DC717112D54FB1DF125FDFD8C81344FB046C5E074427CE1543 DUP11 DUP6 PUSH1 0x40 MLOAD PUSH2 0x293D SWAP3 SWAP2 SWAP1 PUSH2 0x52B8 JUMP JUMPDEST PUSH1 0x40 MLOAD DUP1 SWAP2 SUB SWAP1 LOG4 PUSH2 0x2951 DUP11 DUP11 DUP11 DUP11 PUSH2 0x2FF3 JUMP JUMPDEST POP POP POP POP POP POP POP POP POP POP JUMP JUMPDEST PUSH2 0x2968 DUP5 DUP5 DUP4 PUSH2 0x2FF9 JUMP JUMPDEST PUSH1 0x0 DUP1 DUP3 DUP1 PUSH1 0x20 ADD SWAP1 MLOAD DUP2 ADD SWAP1 PUSH2 0x297F SWAP2 SWAP1 PUSH2 0x52F6 JUMP JUMPDEST SWAP2 POP SWAP2 POP PUSH1 0x0 PUSH1 0x14 DUP4 ADD MLOAD SWAP1 POP PUSH2 0x2997 DUP8 DUP3 DUP5 PUSH2 0x2FFE JUMP JUMPDEST PUSH32 0xD4D39D20F72EABD06C301E516D54653DFC9116DE62C1D54BF1CB48CF3B42A7DB DUP8 DUP3 DUP5 DUP9 PUSH1 0x40 MLOAD PUSH2 0x29CC SWAP5 SWAP4 SWAP3 SWAP2 SWAP1 PUSH2 0x5352 JUMP JUMPDEST PUSH1 0x40 MLOAD DUP1 SWAP2 SUB SWAP1 LOG1 POP POP POP POP POP POP POP JUMP JUMPDEST PUSH1 0x0 DUP1 PUSH1 0x0 SWAP1 SLOAD SWAP1 PUSH2 0x100 EXP SWAP1 DIV PUSH20 0xFFFFFFFFFFFFFFFFFFFFFFFFFFFFFFFFFFFFFFFF AND SWAP1 POP DUP2 PUSH1 0x0 DUP1 PUSH2 0x100 EXP DUP2 SLOAD DUP2 PUSH20 0xFFFFFFFFFFFFFFFFFFFFFFFFFFFFFFFFFFFFFFFF MUL NOT AND SWAP1 DUP4 PUSH20 0xFFFFFFFFFFFFFFFFFFFFFFFFFFFFFFFFFFFFFFFF AND MUL OR SWAP1 SSTORE POP DUP2 PUSH20 0xFFFFFFFFFFFFFFFFFFFFFFFFFFFFFFFFFFFFFFFF AND DUP2 PUSH20 0xFFFFFFFFFFFFFFFFFFFFFFFFFFFFFFFFFFFFFFFF AND PUSH32 0x8BE0079C531659141344CD1FD0A4F28419497F9722A3DAAFE3B4186F6B6457E0 PUSH1 0x40 MLOAD PUSH1 0x40 MLOAD DUP1 SWAP2 SUB SWAP1 LOG3 POP POP JUMP JUMPDEST DUP2 PUSH20 0xFFFFFFFFFFFFFFFFFFFFFFFFFFFFFFFFFFFFFFFF AND DUP4 PUSH20 0xFFFFFFFFFFFFFFFFFFFFFFFFFFFFFFFFFFFFFFFF AND EQ ISZERO PUSH2 0x2B10 JUMPI PUSH1 0x40 MLOAD PUSH32 0x8C379A000000000000000000000000000000000000000000000000000000000 DUP2 MSTORE PUSH1 0x4 ADD PUSH2 0x2B07 SWAP1 PUSH2 0x53E3 JUMP JUMPDEST PUSH1 0x40 MLOAD DUP1 SWAP2 SUB SWAP1 REVERT JUMPDEST DUP1 PUSH1 0x8 PUSH1 0x0 DUP6 PUSH20 0xFFFFFFFFFFFFFFFFFFFFFFFFFFFFFFFFFFFFFFFF AND PUSH20 0xFFFFFFFFFFFFFFFFFFFFFFFFFFFFFFFFFFFFFFFF AND DUP2 MSTORE PUSH1 0x20 ADD SWAP1 DUP2 MSTORE PUSH1 0x20 ADD PUSH1 0x0 KECCAK256 PUSH1 0x0 DUP5 PUSH20 0xFFFFFFFFFFFFFFFFFFFFFFFFFFFFFFFFFFFFFFFF AND PUSH20 0xFFFFFFFFFFFFFFFFFFFFFFFFFFFFFFFFFFFFFFFF AND DUP2 MSTORE PUSH1 0x20 ADD SWAP1 DUP2 MSTORE PUSH1 0x20 ADD PUSH1 0x0 KECCAK256 PUSH1 0x0 PUSH2 0x100 EXP DUP2 SLOAD DUP2 PUSH1 0xFF MUL NOT AND SWAP1 DUP4 ISZERO ISZERO MUL OR SWAP1 SSTORE POP DUP2 PUSH20 0xFFFFFFFFFFFFFFFFFFFFFFFFFFFFFFFFFFFFFFFF AND DUP4 PUSH20 0xFFFFFFFFFFFFFFFFFFFFFFFFFFFFFFFFFFFFFFFF AND PUSH32 0x17307EAB39AB6107E8899845AD3D59BD9653F200F220920489CA2B5937696C31 DUP4 PUSH1 0x40 MLOAD PUSH2 0x2C01 SWAP2 SWAP1 PUSH2 0x38FA JUMP JUMPDEST PUSH1 0x40 MLOAD DUP1 SWAP2 SUB SWAP1 LOG3 POP POP POP JUMP JUMPDEST PUSH2 0x2C19 DUP5 DUP5 DUP5 PUSH2 0x24F1 JUMP JUMPDEST PUSH2 0x2C25 DUP5 DUP5 DUP5 DUP5 PUSH2 0x300D JUMP JUMPDEST PUSH2 0x2C64 JUMPI PUSH1 0x40 MLOAD PUSH32 0x8C379A000000000000000000000000000000000000000000000000000000000 DUP2 MSTORE PUSH1 0x4 ADD PUSH2 0x2C5B SWAP1 PUSH2 0x5475 JUMP JUMPDEST PUSH1 0x40 MLOAD DUP1 SWAP2 SUB SWAP1 REVERT JUMPDEST POP POP POP POP JUMP JUMPDEST PUSH1 0x60 PUSH1 0x9 DUP1 SLOAD PUSH2 0x2C79 SWAP1 PUSH2 0x4365 JUMP JUMPDEST DUP1 PUSH1 0x1F ADD PUSH1 0x20 DUP1 SWAP2 DIV MUL PUSH1 0x20 ADD PUSH1 0x40 MLOAD SWAP1 DUP2 ADD PUSH1 0x40 MSTORE DUP1 SWAP3 SWAP2 SWAP1 DUP2 DUP2 MSTORE PUSH1 0x20 ADD DUP3 DUP1 SLOAD PUSH2 0x2CA5 SWAP1 PUSH2 0x4365 JUMP JUMPDEST DUP1 ISZERO PUSH2 0x2CF2 JUMPI DUP1 PUSH1 0x1F LT PUSH2 0x2CC7 JUMPI PUSH2 0x100 DUP1 DUP4 SLOAD DIV MUL DUP4 MSTORE SWAP2 PUSH1 0x20 ADD SWAP2 PUSH2 0x2CF2 JUMP JUMPDEST DUP3 ADD SWAP2 SWAP1 PUSH1 0x0 MSTORE PUSH1 0x20 PUSH1 0x0 KECCAK256 SWAP1 JUMPDEST DUP2 SLOAD DUP2 MSTORE SWAP1 PUSH1 0x1 ADD SWAP1 PUSH1 0x20 ADD DUP1 DUP4 GT PUSH2 0x2CD5 JUMPI DUP3 SWAP1 SUB PUSH1 0x1F AND DUP3 ADD SWAP2 JUMPDEST POP POP POP POP POP SWAP1 POP SWAP1 JUMP JUMPDEST PUSH1 0x60 PUSH1 0x0 DUP3 EQ ISZERO PUSH2 0x2D44 JUMPI PUSH1 0x40 MLOAD DUP1 PUSH1 0x40 ADD PUSH1 0x40 MSTORE DUP1 PUSH1 0x1 DUP2 MSTORE PUSH1 0x20 ADD PUSH32 0x3000000000000000000000000000000000000000000000000000000000000000 DUP2 MSTORE POP SWAP1 POP PUSH2 0x2E58 JUMP JUMPDEST PUSH1 0x0 DUP3 SWAP1 POP PUSH1 0x0 JUMPDEST PUSH1 0x0 DUP3 EQ PUSH2 0x2D76 JUMPI DUP1 DUP1 PUSH2 0x2D5F SWAP1 PUSH2 0x47C6 JUMP JUMPDEST SWAP2 POP POP PUSH1 0xA DUP3 PUSH2 0x2D6F SWAP2 SWAP1 PUSH2 0x54C4 JUMP JUMPDEST SWAP2 POP PUSH2 0x2D4C JUMP JUMPDEST PUSH1 0x0 DUP2 PUSH8 0xFFFFFFFFFFFFFFFF DUP2 GT ISZERO PUSH2 0x2D92 JUMPI PUSH2 0x2D91 PUSH2 0x3650 JUMP JUMPDEST JUMPDEST PUSH1 0x40 MLOAD SWAP1 DUP1 DUP3 MSTORE DUP1 PUSH1 0x1F ADD PUSH1 0x1F NOT AND PUSH1 0x20 ADD DUP3 ADD PUSH1 0x40 MSTORE DUP1 ISZERO PUSH2 0x2DC4 JUMPI DUP2 PUSH1 0x20 ADD PUSH1 0x1 DUP3 MUL DUP1 CALLDATASIZE DUP4 CALLDATACOPY DUP1 DUP3 ADD SWAP2 POP POP SWAP1 POP JUMPDEST POP SWAP1 POP JUMPDEST PUSH1 0x0 DUP6 EQ PUSH2 0x2E51 JUMPI PUSH1 0x1 DUP3 PUSH2 0x2DDD SWAP2 SWAP1 PUSH2 0x5193 JUMP JUMPDEST SWAP2 POP PUSH1 0xA DUP6 PUSH2 0x2DEC SWAP2 SWAP1 PUSH2 0x54F5 JUMP JUMPDEST PUSH1 0x30 PUSH2 0x2DF8 SWAP2 SWAP1 PUSH2 0x51C7 JUMP JUMPDEST PUSH1 0xF8 SHL DUP2 DUP4 DUP2 MLOAD DUP2 LT PUSH2 0x2E0E JUMPI PUSH2 0x2E0D PUSH2 0x5526 JUMP JUMPDEST JUMPDEST PUSH1 0x20 ADD ADD SWAP1 PUSH31 0xFFFFFFFFFFFFFFFFFFFFFFFFFFFFFFFFFFFFFFFFFFFFFFFFFFFFFFFFFFFFFF NOT AND SWAP1 DUP2 PUSH1 0x0 BYTE SWAP1 MSTORE8 POP PUSH1 0xA DUP6 PUSH2 0x2E4A SWAP2 SWAP1 PUSH2 0x54C4 JUMP JUMPDEST SWAP5 POP PUSH2 0x2DC8 JUMP JUMPDEST DUP1 SWAP4 POP POP POP POP JUMPDEST SWAP2 SWAP1 POP JUMP JUMPDEST PUSH2 0x2E67 DUP4 DUP4 PUSH2 0x31A4 JUMP JUMPDEST PUSH2 0x2E74 PUSH1 0x0 DUP5 DUP5 DUP5 PUSH2 0x300D JUMP JUMPDEST PUSH2 0x2EB3 JUMPI PUSH1 0x40 MLOAD PUSH32 0x8C379A000000000000000000000000000000000000000000000000000000000 DUP2 MSTORE PUSH1 0x4 ADD PUSH2 0x2EAA SWAP1 PUSH2 0x5475 JUMP JUMPDEST PUSH1 0x40 MLOAD DUP1 SWAP2 SUB SWAP1 REVERT JUMPDEST POP POP POP JUMP JUMPDEST POP POP POP JUMP JUMPDEST POP POP POP JUMP JUMPDEST PUSH2 0x2ECB DUP2 PUSH2 0x337E JUMP JUMPDEST POP POP POP POP JUMP JUMPDEST PUSH1 0x0 PUSH1 0x1 PUSH1 0x0 DUP8 PUSH2 0xFFFF AND PUSH2 0xFFFF AND DUP2 MSTORE PUSH1 0x20 ADD SWAP1 DUP2 MSTORE PUSH1 0x20 ADD PUSH1 0x0 KECCAK256 DUP1 SLOAD PUSH2 0x2EF9 SWAP1 PUSH2 0x4365 JUMP JUMPDEST SWAP1 POP EQ ISZERO PUSH2 0x2F3C JUMPI PUSH1 0x40 MLOAD PUSH32 0x8C379A000000000000000000000000000000000000000000000000000000000 DUP2 MSTORE PUSH1 0x4 ADD PUSH2 0x2F33 SWAP1 PUSH2 0x55C7 JUMP JUMPDEST PUSH1 0x40 MLOAD DUP1 SWAP2 SUB SWAP1 REVERT JUMPDEST PUSH32 0x0 PUSH20 0xFFFFFFFFFFFFFFFFFFFFFFFFFFFFFFFFFFFFFFFF AND PUSH4 0xC5803100 CALLVALUE DUP8 PUSH1 0x1 PUSH1 0x0 DUP11 PUSH2 0xFFFF AND PUSH2 0xFFFF AND DUP2 MSTORE PUSH1 0x20 ADD SWAP1 DUP2 MSTORE PUSH1 0x20 ADD PUSH1 0x0 KECCAK256 DUP9 DUP9 DUP9 DUP9 PUSH1 0x40 MLOAD DUP9 PUSH4 0xFFFFFFFF AND PUSH1 0xE0 SHL DUP2 MSTORE PUSH1 0x4 ADD PUSH2 0x2FBA SWAP7 SWAP6 SWAP5 SWAP4 SWAP3 SWAP2 SWAP1 PUSH2 0x5676 JUMP JUMPDEST PUSH1 0x0 PUSH1 0x40 MLOAD DUP1 DUP4 SUB DUP2 DUP6 DUP9 DUP1 EXTCODESIZE ISZERO DUP1 ISZERO PUSH2 0x2FD3 JUMPI PUSH1 0x0 DUP1 REVERT JUMPDEST POP GAS CALL ISZERO DUP1 ISZERO PUSH2 0x2FE7 JUMPI RETURNDATASIZE PUSH1 0x0 DUP1 RETURNDATACOPY RETURNDATASIZE PUSH1 0x0 REVERT JUMPDEST POP POP POP POP POP POP POP POP POP POP JUMP JUMPDEST POP POP POP POP JUMP JUMPDEST POP POP POP JUMP JUMPDEST PUSH2 0x3008 DUP3 DUP3 PUSH2 0x23F5 JUMP JUMPDEST POP POP POP JUMP JUMPDEST PUSH1 0x0 PUSH2 0x302E DUP5 PUSH20 0xFFFFFFFFFFFFFFFFFFFFFFFFFFFFFFFFFFFFFFFF AND PUSH2 0x349B JUMP JUMPDEST ISZERO PUSH2 0x3197 JUMPI DUP4 PUSH20 0xFFFFFFFFFFFFFFFFFFFFFFFFFFFFFFFFFFFFFFFF AND PUSH4 0x150B7A02 PUSH2 0x3057 PUSH2 0x2149 JUMP JUMPDEST DUP8 DUP7 DUP7 PUSH1 0x40 MLOAD DUP6 PUSH4 0xFFFFFFFF AND PUSH1 0xE0 SHL DUP2 MSTORE PUSH1 0x4 ADD PUSH2 0x3079 SWAP5 SWAP4 SWAP3 SWAP2 SWAP1 PUSH2 0x56EC JUMP JUMPDEST PUSH1 0x20 PUSH1 0x40 MLOAD DUP1 DUP4 SUB DUP2 PUSH1 0x0 DUP8 DUP1 EXTCODESIZE ISZERO DUP1 ISZERO PUSH2 0x3093 JUMPI PUSH1 0x0 DUP1 REVERT JUMPDEST POP GAS CALL SWAP3 POP POP POP DUP1 ISZERO PUSH2 0x30C4 JUMPI POP PUSH1 0x40 MLOAD RETURNDATASIZE PUSH1 0x1F NOT PUSH1 0x1F DUP3 ADD AND DUP3 ADD DUP1 PUSH1 0x40 MSTORE POP DUP2 ADD SWAP1 PUSH2 0x30C1 SWAP2 SWAP1 PUSH2 0x574D JUMP JUMPDEST PUSH1 0x1 JUMPDEST PUSH2 0x3147 JUMPI RETURNDATASIZE DUP1 PUSH1 0x0 DUP2 EQ PUSH2 0x30F4 JUMPI PUSH1 0x40 MLOAD SWAP2 POP PUSH1 0x1F NOT PUSH1 0x3F RETURNDATASIZE ADD AND DUP3 ADD PUSH1 0x40 MSTORE RETURNDATASIZE DUP3 MSTORE RETURNDATASIZE PUSH1 0x0 PUSH1 0x20 DUP5 ADD RETURNDATACOPY PUSH2 0x30F9 JUMP JUMPDEST PUSH1 0x60 SWAP2 POP JUMPDEST POP PUSH1 0x0 DUP2 MLOAD EQ ISZERO PUSH2 0x313F JUMPI PUSH1 0x40 MLOAD PUSH32 0x8C379A000000000000000000000000000000000000000000000000000000000 DUP2 MSTORE PUSH1 0x4 ADD PUSH2 0x3136 SWAP1 PUSH2 0x5475 JUMP JUMPDEST PUSH1 0x40 MLOAD DUP1 SWAP2 SUB SWAP1 REVERT JUMPDEST DUP1 MLOAD DUP2 PUSH1 0x20 ADD REVERT JUMPDEST PUSH4 0x150B7A02 PUSH1 0xE0 SHL PUSH28 0xFFFFFFFFFFFFFFFFFFFFFFFFFFFFFFFFFFFFFFFFFFFFFFFFFFFFFFFF NOT AND DUP2 PUSH28 0xFFFFFFFFFFFFFFFFFFFFFFFFFFFFFFFFFFFFFFFFFFFFFFFFFFFFFFFF NOT AND EQ SWAP2 POP POP PUSH2 0x319C JUMP JUMPDEST PUSH1 0x1 SWAP1 POP JUMPDEST SWAP5 SWAP4 POP POP POP POP JUMP JUMPDEST PUSH1 0x0 PUSH20 0xFFFFFFFFFFFFFFFFFFFFFFFFFFFFFFFFFFFFFFFF AND DUP3 PUSH20 0xFFFFFFFFFFFFFFFFFFFFFFFFFFFFFFFFFFFFFFFF AND EQ ISZERO PUSH2 0x3214 JUMPI PUSH1 0x40 MLOAD PUSH32 0x8C379A000000000000000000000000000000000000000000000000000000000 DUP2 MSTORE PUSH1 0x4 ADD PUSH2 0x320B SWAP1 PUSH2 0x57C6 JUMP JUMPDEST PUSH1 0x40 MLOAD DUP1 SWAP2 SUB SWAP1 REVERT JUMPDEST PUSH2 0x321D DUP2 PUSH2 0x22D0 JUMP JUMPDEST ISZERO PUSH2 0x325D JUMPI PUSH1 0x40 MLOAD PUSH32 0x8C379A000000000000000000000000000000000000000000000000000000000 DUP2 MSTORE PUSH1 0x4 ADD PUSH2 0x3254 SWAP1 PUSH2 0x5832 JUMP JUMPDEST PUSH1 0x40 MLOAD DUP1 SWAP2 SUB SWAP1 REVERT JUMPDEST PUSH2 0x3269 PUSH1 0x0 DUP4 DUP4 PUSH2 0x2EB8 JUMP JUMPDEST PUSH1 0x1 PUSH1 0x6 PUSH1 0x0 DUP5 PUSH20 0xFFFFFFFFFFFFFFFFFFFFFFFFFFFFFFFFFFFFFFFF AND PUSH20 0xFFFFFFFFFFFFFFFFFFFFFFFFFFFFFFFFFFFFFFFF AND DUP2 MSTORE PUSH1 0x20 ADD SWAP1 DUP2 MSTORE PUSH1 0x20 ADD PUSH1 0x0 KECCAK256 PUSH1 0x0 DUP3 DUP3 SLOAD PUSH2 0x32B9 SWAP2 SWAP1 PUSH2 0x51C7 JUMP JUMPDEST SWAP3 POP POP DUP2 SWAP1 SSTORE POP DUP2 PUSH1 0x5 PUSH1 0x0 DUP4 DUP2 MSTORE PUSH1 0x20 ADD SWAP1 DUP2 MSTORE PUSH1 0x20 ADD PUSH1 0x0 KECCAK256 PUSH1 0x0 PUSH2 0x100 EXP DUP2 SLOAD DUP2 PUSH20 0xFFFFFFFFFFFFFFFFFFFFFFFFFFFFFFFFFFFFFFFF MUL NOT AND SWAP1 DUP4 PUSH20 0xFFFFFFFFFFFFFFFFFFFFFFFFFFFFFFFFFFFFFFFF AND MUL OR SWAP1 SSTORE POP DUP1 DUP3 PUSH20 0xFFFFFFFFFFFFFFFFFFFFFFFFFFFFFFFFFFFFFFFF AND PUSH1 0x0 PUSH20 0xFFFFFFFFFFFFFFFFFFFFFFFFFFFFFFFFFFFFFFFF AND PUSH32 0xDDF252AD1BE2C89B69C2B068FC378DAA952BA7F163C4A11628F55A4DF523B3EF PUSH1 0x40 MLOAD PUSH1 0x40 MLOAD DUP1 SWAP2 SUB SWAP1 LOG4 PUSH2 0x337A PUSH1 0x0 DUP4 DUP4 PUSH2 0x2EBD JUMP JUMPDEST POP POP JUMP JUMPDEST PUSH1 0x0 PUSH2 0x3389 DUP3 PUSH2 0x13FE JUMP JUMPDEST SWAP1 POP PUSH2 0x3397 DUP2 PUSH1 0x0 DUP5 PUSH2 0x2EB8 JUMP JUMPDEST PUSH2 0x33A2 PUSH1 0x0 DUP4 PUSH2 0x233C JUMP JUMPDEST PUSH1 0x1 PUSH1 0x6 PUSH1 0x0 DUP4 PUSH20 0xFFFFFFFFFFFFFFFFFFFFFFFFFFFFFFFFFFFFFFFF AND PUSH20 0xFFFFFFFFFFFFFFFFFFFFFFFFFFFFFFFFFFFFFFFF AND DUP2 MSTORE PUSH1 0x20 ADD SWAP1 DUP2 MSTORE PUSH1 0x20 ADD PUSH1 0x0 KECCAK256 PUSH1 0x0 DUP3 DUP3 SLOAD PUSH2 0x33F2 SWAP2 SWAP1 PUSH2 0x5193 JUMP JUMPDEST SWAP3 POP POP DUP2 SWAP1 SSTORE POP PUSH1 0x5 PUSH1 0x0 DUP4 DUP2 MSTORE PUSH1 0x20 ADD SWAP1 DUP2 MSTORE PUSH1 0x20 ADD PUSH1 0x0 KECCAK256 PUSH1 0x0 PUSH2 0x100 EXP DUP2 SLOAD SWAP1 PUSH20 0xFFFFFFFFFFFFFFFFFFFFFFFFFFFFFFFFFFFFFFFF MUL NOT AND SWAP1 SSTORE DUP2 PUSH1 0x0 PUSH20 0xFFFFFFFFFFFFFFFFFFFFFFFFFFFFFFFFFFFFFFFF AND DUP3 PUSH20 0xFFFFFFFFFFFFFFFFFFFFFFFFFFFFFFFFFFFFFFFF AND PUSH32 0xDDF252AD1BE2C89B69C2B068FC378DAA952BA7F163C4A11628F55A4DF523B3EF PUSH1 0x40 MLOAD PUSH1 0x40 MLOAD DUP1 SWAP2 SUB SWAP1 LOG4 PUSH2 0x3497 DUP2 PUSH1 0x0 DUP5 PUSH2 0x2EBD JUMP JUMPDEST POP POP JUMP JUMPDEST PUSH1 0x0 DUP1 DUP3 PUSH20 0xFFFFFFFFFFFFFFFFFFFFFFFFFFFFFFFFFFFFFFFF AND EXTCODESIZE GT SWAP1 POP SWAP2 SWAP1 POP JUMP JUMPDEST DUP3 DUP1 SLOAD PUSH2 0x34CA SWAP1 PUSH2 0x4365 JUMP JUMPDEST SWAP1 PUSH1 0x0 MSTORE PUSH1 0x20 PUSH1 0x0 KECCAK256 SWAP1 PUSH1 0x1F ADD PUSH1 0x20 SWAP1 DIV DUP2 ADD SWAP3 DUP3 PUSH2 0x34EC JUMPI PUSH1 0x0 DUP6 SSTORE PUSH2 0x3533 JUMP JUMPDEST DUP3 PUSH1 0x1F LT PUSH2 0x3505 JUMPI DUP1 MLOAD PUSH1 0xFF NOT AND DUP4 DUP1 ADD OR DUP6 SSTORE PUSH2 0x3533 JUMP JUMPDEST DUP3 DUP1 ADD PUSH1 0x1 ADD DUP6 SSTORE DUP3 ISZERO PUSH2 0x3533 JUMPI SWAP2 DUP3 ADD JUMPDEST DUP3 DUP2 GT ISZERO PUSH2 0x3532 JUMPI DUP3 MLOAD DUP3 SSTORE SWAP2 PUSH1 0x20 ADD SWAP2 SWAP1 PUSH1 0x1 ADD SWAP1 PUSH2 0x3517 JUMP JUMPDEST JUMPDEST POP SWAP1 POP PUSH2 0x3540 SWAP2 SWAP1 PUSH2 0x35CA JUMP JUMPDEST POP SWAP1 JUMP JUMPDEST DUP3 DUP1 SLOAD PUSH2 0x3550 SWAP1 PUSH2 0x4365 JUMP JUMPDEST SWAP1 PUSH1 0x0 MSTORE PUSH1 0x20 PUSH1 0x0 KECCAK256 SWAP1 PUSH1 0x1F ADD PUSH1 0x20 SWAP1 DIV DUP2 ADD SWAP3 DUP3 PUSH2 0x3572 JUMPI PUSH1 0x0 DUP6 SSTORE PUSH2 0x35B9 JUMP JUMPDEST DUP3 PUSH1 0x1F LT PUSH2 0x358B JUMPI DUP1 CALLDATALOAD PUSH1 0xFF NOT AND DUP4 DUP1 ADD OR DUP6 SSTORE PUSH2 0x35B9 JUMP JUMPDEST DUP3 DUP1 ADD PUSH1 0x1 ADD DUP6 SSTORE DUP3 ISZERO PUSH2 0x35B9 JUMPI SWAP2 DUP3 ADD JUMPDEST DUP3 DUP2 GT ISZERO PUSH2 0x35B8 JUMPI DUP3 CALLDATALOAD DUP3 SSTORE SWAP2 PUSH1 0x20 ADD SWAP2 SWAP1 PUSH1 0x1 ADD SWAP1 PUSH2 0x359D JUMP JUMPDEST JUMPDEST POP SWAP1 POP PUSH2 0x35C6 SWAP2 SWAP1 PUSH2 0x35CA JUMP JUMPDEST POP SWAP1 JUMP JUMPDEST JUMPDEST DUP1 DUP3 GT ISZERO PUSH2 0x35E3 JUMPI PUSH1 0x0 DUP2 PUSH1 0x0 SWAP1 SSTORE POP PUSH1 0x1 ADD PUSH2 0x35CB JUMP JUMPDEST POP SWAP1 JUMP JUMPDEST PUSH1 0x0 PUSH1 0x40 MLOAD SWAP1 POP SWAP1 JUMP JUMPDEST PUSH1 0x0 DUP1 REVERT JUMPDEST PUSH1 0x0 DUP1 REVERT JUMPDEST PUSH1 0x0 PUSH2 0xFFFF DUP3 AND SWAP1 POP SWAP2 SWAP1 POP JUMP JUMPDEST PUSH2 0x3612 DUP2 PUSH2 0x35FB JUMP JUMPDEST DUP2 EQ PUSH2 0x361D JUMPI PUSH1 0x0 DUP1 REVERT JUMPDEST POP JUMP JUMPDEST PUSH1 0x0 DUP2 CALLDATALOAD SWAP1 POP PUSH2 0x362F DUP2 PUSH2 0x3609 JUMP JUMPDEST SWAP3 SWAP2 POP POP JUMP JUMPDEST PUSH1 0x0 DUP1 REVERT JUMPDEST PUSH1 0x0 DUP1 REVERT JUMPDEST PUSH1 0x0 PUSH1 0x1F NOT PUSH1 0x1F DUP4 ADD AND SWAP1 POP SWAP2 SWAP1 POP JUMP JUMPDEST PUSH32 0x4E487B7100000000000000000000000000000000000000000000000000000000 PUSH1 0x0 MSTORE PUSH1 0x41 PUSH1 0x4 MSTORE PUSH1 0x24 PUSH1 0x0 REVERT JUMPDEST PUSH2 0x3688 DUP3 PUSH2 0x363F JUMP JUMPDEST DUP2 ADD DUP2 DUP2 LT PUSH8 0xFFFFFFFFFFFFFFFF DUP3 GT OR ISZERO PUSH2 0x36A7 JUMPI PUSH2 0x36A6 PUSH2 0x3650 JUMP JUMPDEST JUMPDEST DUP1 PUSH1 0x40 MSTORE POP POP POP JUMP JUMPDEST PUSH1 0x0 PUSH2 0x36BA PUSH2 0x35E7 JUMP JUMPDEST SWAP1 POP PUSH2 0x36C6 DUP3 DUP3 PUSH2 0x367F JUMP JUMPDEST SWAP2 SWAP1 POP JUMP JUMPDEST PUSH1 0x0 PUSH8 0xFFFFFFFFFFFFFFFF DUP3 GT ISZERO PUSH2 0x36E6 JUMPI PUSH2 0x36E5 PUSH2 0x3650 JUMP JUMPDEST JUMPDEST PUSH2 0x36EF DUP3 PUSH2 0x363F JUMP JUMPDEST SWAP1 POP PUSH1 0x20 DUP2 ADD SWAP1 POP SWAP2 SWAP1 POP JUMP JUMPDEST DUP3 DUP2 DUP4 CALLDATACOPY PUSH1 0x0 DUP4 DUP4 ADD MSTORE POP POP POP JUMP JUMPDEST PUSH1 0x0 PUSH2 0x371E PUSH2 0x3719 DUP5 PUSH2 0x36CB JUMP JUMPDEST PUSH2 0x36B0 JUMP JUMPDEST SWAP1 POP DUP3 DUP2 MSTORE PUSH1 0x20 DUP2 ADD DUP5 DUP5 DUP5 ADD GT ISZERO PUSH2 0x373A JUMPI PUSH2 0x3739 PUSH2 0x363A JUMP JUMPDEST JUMPDEST PUSH2 0x3745 DUP5 DUP3 DUP6 PUSH2 0x36FC JUMP JUMPDEST POP SWAP4 SWAP3 POP POP POP JUMP JUMPDEST PUSH1 0x0 DUP3 PUSH1 0x1F DUP4 ADD SLT PUSH2 0x3762 JUMPI PUSH2 0x3761 PUSH2 0x3635 JUMP JUMPDEST JUMPDEST DUP2 CALLDATALOAD PUSH2 0x3772 DUP5 DUP3 PUSH1 0x20 DUP7 ADD PUSH2 0x370B JUMP JUMPDEST SWAP2 POP POP SWAP3 SWAP2 POP POP JUMP JUMPDEST PUSH1 0x0 PUSH8 0xFFFFFFFFFFFFFFFF DUP3 AND SWAP1 POP SWAP2 SWAP1 POP JUMP JUMPDEST PUSH2 0x3798 DUP2 PUSH2 0x377B JUMP JUMPDEST DUP2 EQ PUSH2 0x37A3 JUMPI PUSH1 0x0 DUP1 REVERT JUMPDEST POP JUMP JUMPDEST PUSH1 0x0 DUP2 CALLDATALOAD SWAP1 POP PUSH2 0x37B5 DUP2 PUSH2 0x378F JUMP JUMPDEST SWAP3 SWAP2 POP POP JUMP JUMPDEST PUSH1 0x0 DUP1 PUSH1 0x0 DUP1 PUSH1 0x80 DUP6 DUP8 SUB SLT ISZERO PUSH2 0x37D5 JUMPI PUSH2 0x37D4 PUSH2 0x35F1 JUMP JUMPDEST JUMPDEST PUSH1 0x0 PUSH2 0x37E3 DUP8 DUP3 DUP9 ADD PUSH2 0x3620 JUMP JUMPDEST SWAP5 POP POP PUSH1 0x20 DUP6 ADD CALLDATALOAD PUSH8 0xFFFFFFFFFFFFFFFF DUP2 GT ISZERO PUSH2 0x3804 JUMPI PUSH2 0x3803 PUSH2 0x35F6 JUMP JUMPDEST JUMPDEST PUSH2 0x3810 DUP8 DUP3 DUP9 ADD PUSH2 0x374D JUMP JUMPDEST SWAP4 POP POP PUSH1 0x40 PUSH2 0x3821 DUP8 DUP3 DUP9 ADD PUSH2 0x37A6 JUMP JUMPDEST SWAP3 POP POP PUSH1 0x60 DUP6 ADD CALLDATALOAD PUSH8 0xFFFFFFFFFFFFFFFF DUP2 GT ISZERO PUSH2 0x3842 JUMPI PUSH2 0x3841 PUSH2 0x35F6 JUMP JUMPDEST JUMPDEST PUSH2 0x384E DUP8 DUP3 DUP9 ADD PUSH2 0x374D JUMP JUMPDEST SWAP2 POP POP SWAP3 SWAP6 SWAP2 SWAP5 POP SWAP3 POP JUMP JUMPDEST PUSH1 0x0 PUSH32 0xFFFFFFFF00000000000000000000000000000000000000000000000000000000 DUP3 AND SWAP1 POP SWAP2 SWAP1 POP JUMP JUMPDEST PUSH2 0x388F DUP2 PUSH2 0x385A JUMP JUMPDEST DUP2 EQ PUSH2 0x389A JUMPI PUSH1 0x0 DUP1 REVERT JUMPDEST POP JUMP JUMPDEST PUSH1 0x0 DUP2 CALLDATALOAD SWAP1 POP PUSH2 0x38AC DUP2 PUSH2 0x3886 JUMP JUMPDEST SWAP3 SWAP2 POP POP JUMP JUMPDEST PUSH1 0x0 PUSH1 0x20 DUP3 DUP5 SUB SLT ISZERO PUSH2 0x38C8 JUMPI PUSH2 0x38C7 PUSH2 0x35F1 JUMP JUMPDEST JUMPDEST PUSH1 0x0 PUSH2 0x38D6 DUP5 DUP3 DUP6 ADD PUSH2 0x389D JUMP JUMPDEST SWAP2 POP POP SWAP3 SWAP2 POP POP JUMP JUMPDEST PUSH1 0x0 DUP2 ISZERO ISZERO SWAP1 POP SWAP2 SWAP1 POP JUMP JUMPDEST PUSH2 0x38F4 DUP2 PUSH2 0x38DF JUMP JUMPDEST DUP3 MSTORE POP POP JUMP JUMPDEST PUSH1 0x0 PUSH1 0x20 DUP3 ADD SWAP1 POP PUSH2 0x390F PUSH1 0x0 DUP4 ADD DUP5 PUSH2 0x38EB JUMP JUMPDEST SWAP3 SWAP2 POP POP JUMP JUMPDEST PUSH1 0x0 DUP2 MLOAD SWAP1 POP SWAP2 SWAP1 POP JUMP JUMPDEST PUSH1 0x0 DUP3 DUP3 MSTORE PUSH1 0x20 DUP3 ADD SWAP1 POP SWAP3 SWAP2 POP POP JUMP JUMPDEST PUSH1 0x0 JUMPDEST DUP4 DUP2 LT ISZERO PUSH2 0x394F JUMPI DUP1 DUP3 ADD MLOAD DUP2 DUP5 ADD MSTORE PUSH1 0x20 DUP2 ADD SWAP1 POP PUSH2 0x3934 JUMP JUMPDEST DUP4 DUP2 GT ISZERO PUSH2 0x395E JUMPI PUSH1 0x0 DUP5 DUP5 ADD MSTORE JUMPDEST POP POP POP POP JUMP JUMPDEST PUSH1 0x0 PUSH2 0x396F DUP3 PUSH2 0x3915 JUMP JUMPDEST PUSH2 0x3979 DUP2 DUP6 PUSH2 0x3920 JUMP JUMPDEST SWAP4 POP PUSH2 0x3989 DUP2 DUP6 PUSH1 0x20 DUP7 ADD PUSH2 0x3931 JUMP JUMPDEST PUSH2 0x3992 DUP2 PUSH2 0x363F JUMP JUMPDEST DUP5 ADD SWAP2 POP POP SWAP3 SWAP2 POP POP JUMP JUMPDEST PUSH1 0x0 PUSH1 0x20 DUP3 ADD SWAP1 POP DUP2 DUP2 SUB PUSH1 0x0 DUP4 ADD MSTORE PUSH2 0x39B7 DUP2 DUP5 PUSH2 0x3964 JUMP JUMPDEST SWAP1 POP SWAP3 SWAP2 POP POP JUMP JUMPDEST PUSH1 0x0 PUSH1 0x20 DUP3 DUP5 SUB SLT ISZERO PUSH2 0x39D5 JUMPI PUSH2 0x39D4 PUSH2 0x35F1 JUMP JUMPDEST JUMPDEST PUSH1 0x0 PUSH2 0x39E3 DUP5 DUP3 DUP6 ADD PUSH2 0x3620 JUMP JUMPDEST SWAP2 POP POP SWAP3 SWAP2 POP POP JUMP JUMPDEST PUSH1 0x0 DUP2 SWAP1 POP SWAP2 SWAP1 POP JUMP JUMPDEST PUSH2 0x39FF DUP2 PUSH2 0x39EC JUMP JUMPDEST DUP2 EQ PUSH2 0x3A0A JUMPI PUSH1 0x0 DUP1 REVERT JUMPDEST POP JUMP JUMPDEST PUSH1 0x0 DUP2 CALLDATALOAD SWAP1 POP PUSH2 0x3A1C DUP2 PUSH2 0x39F6 JUMP JUMPDEST SWAP3 SWAP2 POP POP JUMP JUMPDEST PUSH1 0x0 PUSH1 0x20 DUP3 DUP5 SUB SLT ISZERO PUSH2 0x3A38 JUMPI PUSH2 0x3A37 PUSH2 0x35F1 JUMP JUMPDEST JUMPDEST PUSH1 0x0 PUSH2 0x3A46 DUP5 DUP3 DUP6 ADD PUSH2 0x3A0D JUMP JUMPDEST SWAP2 POP POP SWAP3 SWAP2 POP POP JUMP JUMPDEST PUSH1 0x0 PUSH20 0xFFFFFFFFFFFFFFFFFFFFFFFFFFFFFFFFFFFFFFFF DUP3 AND SWAP1 POP SWAP2 SWAP1 POP JUMP JUMPDEST PUSH1 0x0 PUSH2 0x3A7A DUP3 PUSH2 0x3A4F JUMP JUMPDEST SWAP1 POP SWAP2 SWAP1 POP JUMP JUMPDEST PUSH2 0x3A8A DUP2 PUSH2 0x3A6F JUMP JUMPDEST DUP3 MSTORE POP POP JUMP JUMPDEST PUSH1 0x0 PUSH1 0x20 DUP3 ADD SWAP1 POP PUSH2 0x3AA5 PUSH1 0x0 DUP4 ADD DUP5 PUSH2 0x3A81 JUMP JUMPDEST SWAP3 SWAP2 POP POP JUMP JUMPDEST PUSH2 0x3AB4 DUP2 PUSH2 0x3A6F JUMP JUMPDEST DUP2 EQ PUSH2 0x3ABF JUMPI PUSH1 0x0 DUP1 REVERT JUMPDEST POP JUMP JUMPDEST PUSH1 0x0 DUP2 CALLDATALOAD SWAP1 POP PUSH2 0x3AD1 DUP2 PUSH2 0x3AAB JUMP JUMPDEST SWAP3 SWAP2 POP POP JUMP JUMPDEST PUSH1 0x0 DUP1 PUSH1 0x40 DUP4 DUP6 SUB SLT ISZERO PUSH2 0x3AEE JUMPI PUSH2 0x3AED PUSH2 0x35F1 JUMP JUMPDEST JUMPDEST PUSH1 0x0 PUSH2 0x3AFC DUP6 DUP3 DUP7 ADD PUSH2 0x3AC2 JUMP JUMPDEST SWAP3 POP POP PUSH1 0x20 PUSH2 0x3B0D DUP6 DUP3 DUP7 ADD PUSH2 0x3A0D JUMP JUMPDEST SWAP2 POP POP SWAP3 POP SWAP3 SWAP1 POP JUMP JUMPDEST PUSH1 0x0 DUP1 PUSH1 0x0 PUSH1 0x60 DUP5 DUP7 SUB SLT ISZERO PUSH2 0x3B30 JUMPI PUSH2 0x3B2F PUSH2 0x35F1 JUMP JUMPDEST JUMPDEST PUSH1 0x0 PUSH2 0x3B3E DUP7 DUP3 DUP8 ADD PUSH2 0x3AC2 JUMP JUMPDEST SWAP4 POP POP PUSH1 0x20 PUSH2 0x3B4F DUP7 DUP3 DUP8 ADD PUSH2 0x3AC2 JUMP JUMPDEST SWAP3 POP POP PUSH1 0x40 PUSH2 0x3B60 DUP7 DUP3 DUP8 ADD PUSH2 0x3A0D JUMP JUMPDEST SWAP2 POP POP SWAP3 POP SWAP3 POP SWAP3 JUMP JUMPDEST PUSH1 0x0 DUP1 REVERT JUMPDEST PUSH1 0x0 DUP1 REVERT JUMPDEST PUSH1 0x0 DUP1 DUP4 PUSH1 0x1F DUP5 ADD SLT PUSH2 0x3B8A JUMPI PUSH2 0x3B89 PUSH2 0x3635 JUMP JUMPDEST JUMPDEST DUP3 CALLDATALOAD SWAP1 POP PUSH8 0xFFFFFFFFFFFFFFFF DUP2 GT ISZERO PUSH2 0x3BA7 JUMPI PUSH2 0x3BA6 PUSH2 0x3B6A JUMP JUMPDEST JUMPDEST PUSH1 0x20 DUP4 ADD SWAP2 POP DUP4 PUSH1 0x1 DUP3 MUL DUP4 ADD GT ISZERO PUSH2 0x3BC3 JUMPI PUSH2 0x3BC2 PUSH2 0x3B6F JUMP JUMPDEST JUMPDEST SWAP3 POP SWAP3 SWAP1 POP JUMP JUMPDEST PUSH1 0x0 DUP1 PUSH1 0x0 PUSH1 0x40 DUP5 DUP7 SUB SLT ISZERO PUSH2 0x3BE3 JUMPI PUSH2 0x3BE2 PUSH2 0x35F1 JUMP JUMPDEST JUMPDEST PUSH1 0x0 PUSH2 0x3BF1 DUP7 DUP3 DUP8 ADD PUSH2 0x3620 JUMP JUMPDEST SWAP4 POP POP PUSH1 0x20 DUP5 ADD CALLDATALOAD PUSH8 0xFFFFFFFFFFFFFFFF DUP2 GT ISZERO PUSH2 0x3C12 JUMPI PUSH2 0x3C11 PUSH2 0x35F6 JUMP JUMPDEST JUMPDEST PUSH2 0x3C1E DUP7 DUP3 DUP8 ADD PUSH2 0x3B74 JUMP JUMPDEST SWAP3 POP SWAP3 POP POP SWAP3 POP SWAP3 POP SWAP3 JUMP JUMPDEST PUSH1 0x0 PUSH1 0x20 DUP3 DUP5 SUB SLT ISZERO PUSH2 0x3C40 JUMPI PUSH2 0x3C3F PUSH2 0x35F1 JUMP JUMPDEST JUMPDEST PUSH1 0x0 PUSH2 0x3C4E DUP5 DUP3 DUP6 ADD PUSH2 0x3AC2 JUMP JUMPDEST SWAP2 POP POP SWAP3 SWAP2 POP POP JUMP JUMPDEST PUSH1 0x0 PUSH2 0x3C62 DUP3 PUSH2 0x3A4F JUMP JUMPDEST SWAP1 POP SWAP2 SWAP1 POP JUMP JUMPDEST PUSH2 0x3C72 DUP2 PUSH2 0x3C57 JUMP JUMPDEST DUP2 EQ PUSH2 0x3C7D JUMPI PUSH1 0x0 DUP1 REVERT JUMPDEST POP JUMP JUMPDEST PUSH1 0x0 DUP2 CALLDATALOAD SWAP1 POP PUSH2 0x3C8F DUP2 PUSH2 0x3C69 JUMP JUMPDEST SWAP3 SWAP2 POP POP JUMP JUMPDEST PUSH1 0x0 DUP1 PUSH1 0x0 DUP1 PUSH1 0x0 DUP1 PUSH1 0x0 DUP1 PUSH1 0x0 PUSH1 0xE0 DUP11 DUP13 SUB SLT ISZERO PUSH2 0x3CB7 JUMPI PUSH2 0x3CB6 PUSH2 0x35F1 JUMP JUMPDEST JUMPDEST PUSH1 0x0 PUSH2 0x3CC5 DUP13 DUP3 DUP14 ADD PUSH2 0x3AC2 JUMP JUMPDEST SWAP10 POP POP PUSH1 0x20 PUSH2 0x3CD6 DUP13 DUP3 DUP14 ADD PUSH2 0x3620 JUMP JUMPDEST SWAP9 POP POP PUSH1 0x40 DUP11 ADD CALLDATALOAD PUSH8 0xFFFFFFFFFFFFFFFF DUP2 GT ISZERO PUSH2 0x3CF7 JUMPI PUSH2 0x3CF6 PUSH2 0x35F6 JUMP JUMPDEST JUMPDEST PUSH2 0x3D03 DUP13 DUP3 DUP14 ADD PUSH2 0x3B74 JUMP JUMPDEST SWAP8 POP SWAP8 POP POP PUSH1 0x60 PUSH2 0x3D16 DUP13 DUP3 DUP14 ADD PUSH2 0x3A0D JUMP JUMPDEST SWAP6 POP POP PUSH1 0x80 PUSH2 0x3D27 DUP13 DUP3 DUP14 ADD PUSH2 0x3C80 JUMP JUMPDEST SWAP5 POP POP PUSH1 0xA0 PUSH2 0x3D38 DUP13 DUP3 DUP14 ADD PUSH2 0x3AC2 JUMP JUMPDEST SWAP4 POP POP PUSH1 0xC0 DUP11 ADD CALLDATALOAD PUSH8 0xFFFFFFFFFFFFFFFF DUP2 GT ISZERO PUSH2 0x3D59 JUMPI PUSH2 0x3D58 PUSH2 0x35F6 JUMP JUMPDEST JUMPDEST PUSH2 0x3D65 DUP13 DUP3 DUP14 ADD PUSH2 0x3B74 JUMP JUMPDEST SWAP3 POP SWAP3 POP POP SWAP3 SWAP6 SWAP9 POP SWAP3 SWAP6 SWAP9 POP SWAP3 SWAP6 SWAP9 JUMP JUMPDEST PUSH1 0x0 PUSH8 0xFFFFFFFFFFFFFFFF DUP3 GT ISZERO PUSH2 0x3D92 JUMPI PUSH2 0x3D91 PUSH2 0x3650 JUMP JUMPDEST JUMPDEST PUSH2 0x3D9B DUP3 PUSH2 0x363F JUMP JUMPDEST SWAP1 POP PUSH1 0x20 DUP2 ADD SWAP1 POP SWAP2 SWAP1 POP JUMP JUMPDEST PUSH1 0x0 PUSH2 0x3DBB PUSH2 0x3DB6 DUP5 PUSH2 0x3D77 JUMP JUMPDEST PUSH2 0x36B0 JUMP JUMPDEST SWAP1 POP DUP3 DUP2 MSTORE PUSH1 0x20 DUP2 ADD DUP5 DUP5 DUP5 ADD GT ISZERO PUSH2 0x3DD7 JUMPI PUSH2 0x3DD6 PUSH2 0x363A JUMP JUMPDEST JUMPDEST PUSH2 0x3DE2 DUP5 DUP3 DUP6 PUSH2 0x36FC JUMP JUMPDEST POP SWAP4 SWAP3 POP POP POP JUMP JUMPDEST PUSH1 0x0 DUP3 PUSH1 0x1F DUP4 ADD SLT PUSH2 0x3DFF JUMPI PUSH2 0x3DFE PUSH2 0x3635 JUMP JUMPDEST JUMPDEST DUP2 CALLDATALOAD PUSH2 0x3E0F DUP5 DUP3 PUSH1 0x20 DUP7 ADD PUSH2 0x3DA8 JUMP JUMPDEST SWAP2 POP POP SWAP3 SWAP2 POP POP JUMP JUMPDEST PUSH1 0x0 PUSH1 0x20 DUP3 DUP5 SUB SLT ISZERO PUSH2 0x3E2E JUMPI PUSH2 0x3E2D PUSH2 0x35F1 JUMP JUMPDEST JUMPDEST PUSH1 0x0 DUP3 ADD CALLDATALOAD PUSH8 0xFFFFFFFFFFFFFFFF DUP2 GT ISZERO PUSH2 0x3E4C JUMPI PUSH2 0x3E4B PUSH2 0x35F6 JUMP JUMPDEST JUMPDEST PUSH2 0x3E58 DUP5 DUP3 DUP6 ADD PUSH2 0x3DEA JUMP JUMPDEST SWAP2 POP POP SWAP3 SWAP2 POP POP JUMP JUMPDEST PUSH1 0x0 DUP2 MLOAD SWAP1 POP SWAP2 SWAP1 POP JUMP JUMPDEST PUSH1 0x0 DUP3 DUP3 MSTORE PUSH1 0x20 DUP3 ADD SWAP1 POP SWAP3 SWAP2 POP POP JUMP JUMPDEST PUSH1 0x0 PUSH2 0x3E88 DUP3 PUSH2 0x3E61 JUMP JUMPDEST PUSH2 0x3E92 DUP2 DUP6 PUSH2 0x3E6C JUMP JUMPDEST SWAP4 POP PUSH2 0x3EA2 DUP2 DUP6 PUSH1 0x20 DUP7 ADD PUSH2 0x3931 JUMP JUMPDEST PUSH2 0x3EAB DUP2 PUSH2 0x363F JUMP JUMPDEST DUP5 ADD SWAP2 POP POP SWAP3 SWAP2 POP POP JUMP JUMPDEST PUSH1 0x0 PUSH1 0x20 DUP3 ADD SWAP1 POP DUP2 DUP2 SUB PUSH1 0x0 DUP4 ADD MSTORE PUSH2 0x3ED0 DUP2 DUP5 PUSH2 0x3E7D JUMP JUMPDEST SWAP1 POP SWAP3 SWAP2 POP POP JUMP JUMPDEST PUSH2 0x3EE1 DUP2 PUSH2 0x39EC JUMP JUMPDEST DUP3 MSTORE POP POP JUMP JUMPDEST PUSH1 0x0 PUSH1 0x20 DUP3 ADD SWAP1 POP PUSH2 0x3EFC PUSH1 0x0 DUP4 ADD DUP5 PUSH2 0x3ED8 JUMP JUMPDEST SWAP3 SWAP2 POP POP JUMP JUMPDEST PUSH1 0x0 DUP1 PUSH1 0x0 PUSH1 0x60 DUP5 DUP7 SUB SLT ISZERO PUSH2 0x3F1B JUMPI PUSH2 0x3F1A PUSH2 0x35F1 JUMP JUMPDEST JUMPDEST PUSH1 0x0 PUSH2 0x3F29 DUP7 DUP3 DUP8 ADD PUSH2 0x3620 JUMP JUMPDEST SWAP4 POP POP PUSH1 0x20 DUP5 ADD CALLDATALOAD PUSH8 0xFFFFFFFFFFFFFFFF DUP2 GT ISZERO PUSH2 0x3F4A JUMPI PUSH2 0x3F49 PUSH2 0x35F6 JUMP JUMPDEST JUMPDEST PUSH2 0x3F56 DUP7 DUP3 DUP8 ADD PUSH2 0x374D JUMP JUMPDEST SWAP3 POP POP PUSH1 0x40 PUSH2 0x3F67 DUP7 DUP3 DUP8 ADD PUSH2 0x3A0D JUMP JUMPDEST SWAP2 POP POP SWAP3 POP SWAP3 POP SWAP3 JUMP JUMPDEST PUSH1 0x0 DUP2 SWAP1 POP SWAP2 SWAP1 POP JUMP JUMPDEST PUSH2 0x3F84 DUP2 PUSH2 0x3F71 JUMP JUMPDEST DUP3 MSTORE POP POP JUMP JUMPDEST PUSH1 0x0 PUSH1 0x20 DUP3 ADD SWAP1 POP PUSH2 0x3F9F PUSH1 0x0 DUP4 ADD DUP5 PUSH2 0x3F7B JUMP JUMPDEST SWAP3 SWAP2 POP POP JUMP JUMPDEST PUSH2 0x3FAE DUP2 PUSH2 0x38DF JUMP JUMPDEST DUP2 EQ PUSH2 0x3FB9 JUMPI PUSH1 0x0 DUP1 REVERT JUMPDEST POP JUMP JUMPDEST PUSH1 0x0 DUP2 CALLDATALOAD SWAP1 POP PUSH2 0x3FCB DUP2 PUSH2 0x3FA5 JUMP JUMPDEST SWAP3 SWAP2 POP POP JUMP JUMPDEST PUSH1 0x0 DUP1 PUSH1 0x40 DUP4 DUP6 SUB SLT ISZERO PUSH2 0x3FE8 JUMPI PUSH2 0x3FE7 PUSH2 0x35F1 JUMP JUMPDEST JUMPDEST PUSH1 0x0 PUSH2 0x3FF6 DUP6 DUP3 DUP7 ADD PUSH2 0x3AC2 JUMP JUMPDEST SWAP3 POP POP PUSH1 0x20 PUSH2 0x4007 DUP6 DUP3 DUP7 ADD PUSH2 0x3FBC JUMP JUMPDEST SWAP2 POP POP SWAP3 POP SWAP3 SWAP1 POP JUMP JUMPDEST PUSH1 0x0 DUP1 PUSH1 0x0 DUP1 PUSH1 0x80 DUP6 DUP8 SUB SLT ISZERO PUSH2 0x402B JUMPI PUSH2 0x402A PUSH2 0x35F1 JUMP JUMPDEST JUMPDEST PUSH1 0x0 PUSH2 0x4039 DUP8 DUP3 DUP9 ADD PUSH2 0x3AC2 JUMP JUMPDEST SWAP5 POP POP PUSH1 0x20 PUSH2 0x404A DUP8 DUP3 DUP9 ADD PUSH2 0x3AC2 JUMP JUMPDEST SWAP4 POP POP PUSH1 0x40 PUSH2 0x405B DUP8 DUP3 DUP9 ADD PUSH2 0x3A0D JUMP JUMPDEST SWAP3 POP POP PUSH1 0x60 DUP6 ADD CALLDATALOAD PUSH8 0xFFFFFFFFFFFFFFFF DUP2 GT ISZERO PUSH2 0x407C JUMPI PUSH2 0x407B PUSH2 0x35F6 JUMP JUMPDEST JUMPDEST PUSH2 0x4088 DUP8 DUP3 DUP9 ADD PUSH2 0x374D JUMP JUMPDEST SWAP2 POP POP SWAP3 SWAP6 SWAP2 SWAP5 POP SWAP3 POP JUMP JUMPDEST PUSH1 0x0 DUP1 PUSH1 0x0 DUP1 PUSH1 0x0 PUSH1 0x80 DUP7 DUP9 SUB SLT ISZERO PUSH2 0x40B0 JUMPI PUSH2 0x40AF PUSH2 0x35F1 JUMP JUMPDEST JUMPDEST PUSH1 0x0 PUSH2 0x40BE DUP9 DUP3 DUP10 ADD PUSH2 0x3620 JUMP JUMPDEST SWAP6 POP POP PUSH1 0x20 PUSH2 0x40CF DUP9 DUP3 DUP10 ADD PUSH2 0x3620 JUMP JUMPDEST SWAP5 POP POP PUSH1 0x40 PUSH2 0x40E0 DUP9 DUP3 DUP10 ADD PUSH2 0x3A0D JUMP JUMPDEST SWAP4 POP POP PUSH1 0x60 DUP7 ADD CALLDATALOAD PUSH8 0xFFFFFFFFFFFFFFFF DUP2 GT ISZERO PUSH2 0x4101 JUMPI PUSH2 0x4100 PUSH2 0x35F6 JUMP JUMPDEST JUMPDEST PUSH2 0x410D DUP9 DUP3 DUP10 ADD PUSH2 0x3B74 JUMP JUMPDEST SWAP3 POP SWAP3 POP POP SWAP3 SWAP6 POP SWAP3 SWAP6 SWAP1 SWAP4 POP JUMP JUMPDEST PUSH1 0x0 DUP1 PUSH1 0x0 DUP1 PUSH1 0x0 PUSH1 0x80 DUP7 DUP9 SUB SLT ISZERO PUSH2 0x4138 JUMPI PUSH2 0x4137 PUSH2 0x35F1 JUMP JUMPDEST JUMPDEST PUSH1 0x0 PUSH2 0x4146 DUP9 DUP3 DUP10 ADD PUSH2 0x3620 JUMP JUMPDEST SWAP6 POP POP PUSH1 0x20 DUP7 ADD CALLDATALOAD PUSH8 0xFFFFFFFFFFFFFFFF DUP2 GT ISZERO PUSH2 0x4167 JUMPI PUSH2 0x4166 PUSH2 0x35F6 JUMP JUMPDEST JUMPDEST PUSH2 0x4173 DUP9 DUP3 DUP10 ADD PUSH2 0x374D JUMP JUMPDEST SWAP5 POP POP PUSH1 0x40 PUSH2 0x4184 DUP9 DUP3 DUP10 ADD PUSH2 0x37A6 JUMP JUMPDEST SWAP4 POP POP PUSH1 0x60 DUP7 ADD CALLDATALOAD PUSH8 0xFFFFFFFFFFFFFFFF DUP2 GT ISZERO PUSH2 0x41A5 JUMPI PUSH2 0x41A4 PUSH2 0x35F6 JUMP JUMPDEST JUMPDEST PUSH2 0x41B1 DUP9 DUP3 DUP10 ADD PUSH2 0x3B74 JUMP JUMPDEST SWAP3 POP SWAP3 POP POP SWAP3 SWAP6 POP SWAP3 SWAP6 SWAP1 SWAP4 POP JUMP JUMPDEST PUSH1 0x0 DUP1 PUSH1 0x40 DUP4 DUP6 SUB SLT ISZERO PUSH2 0x41D7 JUMPI PUSH2 0x41D6 PUSH2 0x35F1 JUMP JUMPDEST JUMPDEST PUSH1 0x0 PUSH2 0x41E5 DUP6 DUP3 DUP7 ADD PUSH2 0x3AC2 JUMP JUMPDEST SWAP3 POP POP PUSH1 0x20 PUSH2 0x41F6 DUP6 DUP3 DUP7 ADD PUSH2 0x3AC2 JUMP JUMPDEST SWAP2 POP POP SWAP3 POP SWAP3 SWAP1 POP JUMP JUMPDEST PUSH1 0x0 DUP1 PUSH1 0x0 DUP1 PUSH1 0x0 DUP1 PUSH1 0x0 DUP1 PUSH1 0xC0 DUP10 DUP12 SUB SLT ISZERO PUSH2 0x4220 JUMPI PUSH2 0x421F PUSH2 0x35F1 JUMP JUMPDEST JUMPDEST PUSH1 0x0 PUSH2 0x422E DUP12 DUP3 DUP13 ADD PUSH2 0x3620 JUMP JUMPDEST SWAP9 POP POP PUSH1 0x20 DUP10 ADD CALLDATALOAD PUSH8 0xFFFFFFFFFFFFFFFF DUP2 GT ISZERO PUSH2 0x424F JUMPI PUSH2 0x424E PUSH2 0x35F6 JUMP JUMPDEST JUMPDEST PUSH2 0x425B DUP12 DUP3 DUP13 ADD PUSH2 0x3B74 JUMP JUMPDEST SWAP8 POP SWAP8 POP POP PUSH1 0x40 PUSH2 0x426E DUP12 DUP3 DUP13 ADD PUSH2 0x3A0D JUMP JUMPDEST SWAP6 POP POP PUSH1 0x60 PUSH2 0x427F DUP12 DUP3 DUP13 ADD PUSH2 0x3C80 JUMP JUMPDEST SWAP5 POP POP PUSH1 0x80 PUSH2 0x4290 DUP12 DUP3 DUP13 ADD PUSH2 0x3AC2 JUMP JUMPDEST SWAP4 POP POP PUSH1 0xA0 DUP10 ADD CALLDATALOAD PUSH8 0xFFFFFFFFFFFFFFFF DUP2 GT ISZERO PUSH2 0x42B1 JUMPI PUSH2 0x42B0 PUSH2 0x35F6 JUMP JUMPDEST JUMPDEST PUSH2 0x42BD DUP12 DUP3 DUP13 ADD PUSH2 0x3B74 JUMP JUMPDEST SWAP3 POP SWAP3 POP POP SWAP3 SWAP6 SWAP9 POP SWAP3 SWAP6 SWAP9 SWAP1 SWAP4 SWAP7 POP JUMP JUMPDEST PUSH1 0x0 DUP1 PUSH1 0x0 DUP1 PUSH1 0x80 DUP6 DUP8 SUB SLT ISZERO PUSH2 0x42E9 JUMPI PUSH2 0x42E8 PUSH2 0x35F1 JUMP JUMPDEST JUMPDEST PUSH1 0x0 PUSH2 0x42F7 DUP8 DUP3 DUP9 ADD PUSH2 0x3620 JUMP JUMPDEST SWAP5 POP POP PUSH1 0x20 PUSH2 0x4308 DUP8 DUP3 DUP9 ADD PUSH2 0x3620 JUMP JUMPDEST SWAP4 POP POP PUSH1 0x40 PUSH2 0x4319 DUP8 DUP3 DUP9 ADD PUSH2 0x3AC2 JUMP JUMPDEST SWAP3 POP POP PUSH1 0x60 PUSH2 0x432A DUP8 DUP3 DUP9 ADD PUSH2 0x3A0D JUMP JUMPDEST SWAP2 POP POP SWAP3 SWAP6 SWAP2 SWAP5 POP SWAP3 POP JUMP JUMPDEST PUSH32 0x4E487B7100000000000000000000000000000000000000000000000000000000 PUSH1 0x0 MSTORE PUSH1 0x22 PUSH1 0x4 MSTORE PUSH1 0x24 PUSH1 0x0 REVERT JUMPDEST PUSH1 0x0 PUSH1 0x2 DUP3 DIV SWAP1 POP PUSH1 0x1 DUP3 AND DUP1 PUSH2 0x437D JUMPI PUSH1 0x7F DUP3 AND SWAP2 POP JUMPDEST PUSH1 0x20 DUP3 LT DUP2 EQ ISZERO PUSH2 0x4391 JUMPI PUSH2 0x4390 PUSH2 0x4336 JUMP JUMPDEST JUMPDEST POP SWAP2 SWAP1 POP JUMP JUMPDEST PUSH1 0x0 DUP2 SWAP1 POP SWAP3 SWAP2 POP POP JUMP JUMPDEST PUSH1 0x0 DUP2 SWAP1 POP DUP2 PUSH1 0x0 MSTORE PUSH1 0x20 PUSH1 0x0 KECCAK256 SWAP1 POP SWAP2 SWAP1 POP JUMP JUMPDEST PUSH1 0x0 DUP2 SLOAD PUSH2 0x43C4 DUP2 PUSH2 0x4365 JUMP JUMPDEST PUSH2 0x43CE DUP2 DUP7 PUSH2 0x4397 JUMP JUMPDEST SWAP5 POP PUSH1 0x1 DUP3 AND PUSH1 0x0 DUP2 EQ PUSH2 0x43E9 JUMPI PUSH1 0x1 DUP2 EQ PUSH2 0x43FA JUMPI PUSH2 0x442D JUMP JUMPDEST PUSH1 0xFF NOT DUP4 AND DUP7 MSTORE DUP2 DUP7 ADD SWAP4 POP PUSH2 0x442D JUMP JUMPDEST PUSH2 0x4403 DUP6 PUSH2 0x43A2 JUMP JUMPDEST PUSH1 0x0 JUMPDEST DUP4 DUP2 LT ISZERO PUSH2 0x4425 JUMPI DUP2 SLOAD DUP2 DUP10 ADD MSTORE PUSH1 0x1 DUP3 ADD SWAP2 POP PUSH1 0x20 DUP2 ADD SWAP1 POP PUSH2 0x4406 JUMP JUMPDEST DUP4 DUP9 ADD SWAP6 POP POP POP JUMPDEST POP POP POP SWAP3 SWAP2 POP POP JUMP JUMPDEST PUSH1 0x0 PUSH2 0x4442 DUP3 DUP5 PUSH2 0x43B7 JUMP JUMPDEST SWAP2 POP DUP2 SWAP1 POP SWAP3 SWAP2 POP POP JUMP JUMPDEST PUSH32 0x4C7A52656365697665723A20696E76616C696420736F757263652073656E6469 PUSH1 0x0 DUP3 ADD MSTORE PUSH32 0x6E6720636F6E7472616374000000000000000000000000000000000000000000 PUSH1 0x20 DUP3 ADD MSTORE POP JUMP JUMPDEST PUSH1 0x0 PUSH2 0x44A9 PUSH1 0x2B DUP4 PUSH2 0x3920 JUMP JUMPDEST SWAP2 POP PUSH2 0x44B4 DUP3 PUSH2 0x444D JUMP JUMPDEST PUSH1 0x40 DUP3 ADD SWAP1 POP SWAP2 SWAP1 POP JUMP JUMPDEST PUSH1 0x0 PUSH1 0x20 DUP3 ADD SWAP1 POP DUP2 DUP2 SUB PUSH1 0x0 DUP4 ADD MSTORE PUSH2 0x44D8 DUP2 PUSH2 0x449C JUMP JUMPDEST SWAP1 POP SWAP2 SWAP1 POP JUMP JUMPDEST PUSH32 0x4F776E61626C653A2063616C6C6572206973206E6F7420746865206F776E6572 PUSH1 0x0 DUP3 ADD MSTORE POP JUMP JUMPDEST PUSH1 0x0 PUSH2 0x4515 PUSH1 0x20 DUP4 PUSH2 0x3920 JUMP JUMPDEST SWAP2 POP PUSH2 0x4520 DUP3 PUSH2 0x44DF JUMP JUMPDEST PUSH1 0x20 DUP3 ADD SWAP1 POP SWAP2 SWAP1 POP JUMP JUMPDEST PUSH1 0x0 PUSH1 0x20 DUP3 ADD SWAP1 POP DUP2 DUP2 SUB PUSH1 0x0 DUP4 ADD MSTORE PUSH2 0x4544 DUP2 PUSH2 0x4508 JUMP JUMPDEST SWAP1 POP SWAP2 SWAP1 POP JUMP JUMPDEST PUSH2 0x4554 DUP2 PUSH2 0x35FB JUMP JUMPDEST DUP3 MSTORE POP POP JUMP JUMPDEST PUSH1 0x0 PUSH1 0x20 DUP3 ADD SWAP1 POP PUSH2 0x456F PUSH1 0x0 DUP4 ADD DUP5 PUSH2 0x454B JUMP JUMPDEST SWAP3 SWAP2 POP POP JUMP JUMPDEST PUSH32 0x4552433732313A20617070726F76656420717565727920666F72206E6F6E6578 PUSH1 0x0 DUP3 ADD MSTORE PUSH32 0x697374656E7420746F6B656E0000000000000000000000000000000000000000 PUSH1 0x20 DUP3 ADD MSTORE POP JUMP JUMPDEST PUSH1 0x0 PUSH2 0x45D1 PUSH1 0x2C DUP4 PUSH2 0x3920 JUMP JUMPDEST SWAP2 POP PUSH2 0x45DC DUP3 PUSH2 0x4575 JUMP JUMPDEST PUSH1 0x40 DUP3 ADD SWAP1 POP SWAP2 SWAP1 POP JUMP JUMPDEST PUSH1 0x0 PUSH1 0x20 DUP3 ADD SWAP1 POP DUP2 DUP2 SUB PUSH1 0x0 DUP4 ADD MSTORE PUSH2 0x4600 DUP2 PUSH2 0x45C4 JUMP JUMPDEST SWAP1 POP SWAP2 SWAP1 POP JUMP JUMPDEST PUSH32 0x4552433732313A20617070726F76616C20746F2063757272656E74206F776E65 PUSH1 0x0 DUP3 ADD MSTORE PUSH32 0x7200000000000000000000000000000000000000000000000000000000000000 PUSH1 0x20 DUP3 ADD MSTORE POP JUMP JUMPDEST PUSH1 0x0 PUSH2 0x4663 PUSH1 0x21 DUP4 PUSH2 0x3920 JUMP JUMPDEST SWAP2 POP PUSH2 0x466E DUP3 PUSH2 0x4607 JUMP JUMPDEST PUSH1 0x40 DUP3 ADD SWAP1 POP SWAP2 SWAP1 POP JUMP JUMPDEST PUSH1 0x0 PUSH1 0x20 DUP3 ADD SWAP1 POP DUP2 DUP2 SUB PUSH1 0x0 DUP4 ADD MSTORE PUSH2 0x4692 DUP2 PUSH2 0x4656 JUMP JUMPDEST SWAP1 POP SWAP2 SWAP1 POP JUMP JUMPDEST PUSH32 0x4552433732313A20617070726F76652063616C6C6572206973206E6F74206F77 PUSH1 0x0 DUP3 ADD MSTORE PUSH32 0x6E6572206E6F7220617070726F76656420666F7220616C6C0000000000000000 PUSH1 0x20 DUP3 ADD MSTORE POP JUMP JUMPDEST PUSH1 0x0 PUSH2 0x46F5 PUSH1 0x38 DUP4 PUSH2 0x3920 JUMP JUMPDEST SWAP2 POP PUSH2 0x4700 DUP3 PUSH2 0x4699 JUMP JUMPDEST PUSH1 0x40 DUP3 ADD SWAP1 POP SWAP2 SWAP1 POP JUMP JUMPDEST PUSH1 0x0 PUSH1 0x20 DUP3 ADD SWAP1 POP DUP2 DUP2 SUB PUSH1 0x0 DUP4 ADD MSTORE PUSH2 0x4724 DUP2 PUSH2 0x46E8 JUMP JUMPDEST SWAP1 POP SWAP2 SWAP1 POP JUMP JUMPDEST PUSH32 0x4F4E46543A204D6178204D696E74206C696D6974207265616368656400000000 PUSH1 0x0 DUP3 ADD MSTORE POP JUMP JUMPDEST PUSH1 0x0 PUSH2 0x4761 PUSH1 0x1C DUP4 PUSH2 0x3920 JUMP JUMPDEST SWAP2 POP PUSH2 0x476C DUP3 PUSH2 0x472B JUMP JUMPDEST PUSH1 0x20 DUP3 ADD SWAP1 POP SWAP2 SWAP1 POP JUMP JUMPDEST PUSH1 0x0 PUSH1 0x20 DUP3 ADD SWAP1 POP DUP2 DUP2 SUB PUSH1 0x0 DUP4 ADD MSTORE PUSH2 0x4790 DUP2 PUSH2 0x4754 JUMP JUMPDEST SWAP1 POP SWAP2 SWAP1 POP JUMP JUMPDEST PUSH32 0x4E487B7100000000000000000000000000000000000000000000000000000000 PUSH1 0x0 MSTORE PUSH1 0x11 PUSH1 0x4 MSTORE PUSH1 0x24 PUSH1 0x0 REVERT JUMPDEST PUSH1 0x0 PUSH2 0x47D1 DUP3 PUSH2 0x39EC JUMP JUMPDEST SWAP2 POP PUSH32 0xFFFFFFFFFFFFFFFFFFFFFFFFFFFFFFFFFFFFFFFFFFFFFFFFFFFFFFFFFFFFFFFF DUP3 EQ ISZERO PUSH2 0x4804 JUMPI PUSH2 0x4803 PUSH2 0x4797 JUMP JUMPDEST JUMPDEST PUSH1 0x1 DUP3 ADD SWAP1 POP SWAP2 SWAP1 POP JUMP JUMPDEST PUSH32 0x4552433732313A207472616E736665722063616C6C6572206973206E6F74206F PUSH1 0x0 DUP3 ADD MSTORE PUSH32 0x776E6572206E6F7220617070726F766564000000000000000000000000000000 PUSH1 0x20 DUP3 ADD MSTORE POP JUMP JUMPDEST PUSH1 0x0 PUSH2 0x486B PUSH1 0x31 DUP4 PUSH2 0x3920 JUMP JUMPDEST SWAP2 POP PUSH2 0x4876 DUP3 PUSH2 0x480F JUMP JUMPDEST PUSH1 0x40 DUP3 ADD SWAP1 POP SWAP2 SWAP1 POP JUMP JUMPDEST PUSH1 0x0 PUSH1 0x20 DUP3 ADD SWAP1 POP DUP2 DUP2 SUB PUSH1 0x0 DUP4 ADD MSTORE PUSH2 0x489A DUP2 PUSH2 0x485E JUMP JUMPDEST SWAP1 POP SWAP2 SWAP1 POP JUMP JUMPDEST PUSH1 0x0 PUSH2 0x48AD DUP4 DUP6 PUSH2 0x4397 JUMP JUMPDEST SWAP4 POP PUSH2 0x48BA DUP4 DUP6 DUP5 PUSH2 0x36FC JUMP JUMPDEST DUP3 DUP5 ADD SWAP1 POP SWAP4 SWAP3 POP POP POP JUMP JUMPDEST PUSH1 0x0 PUSH2 0x48D3 DUP3 DUP5 DUP7 PUSH2 0x48A1 JUMP JUMPDEST SWAP2 POP DUP2 SWAP1 POP SWAP4 SWAP3 POP POP POP JUMP JUMPDEST PUSH1 0x0 PUSH2 0x48EB DUP4 DUP6 PUSH2 0x3E6C JUMP JUMPDEST SWAP4 POP PUSH2 0x48F8 DUP4 DUP6 DUP5 PUSH2 0x36FC JUMP JUMPDEST PUSH2 0x4901 DUP4 PUSH2 0x363F JUMP JUMPDEST DUP5 ADD SWAP1 POP SWAP4 SWAP3 POP POP POP JUMP JUMPDEST PUSH1 0x0 PUSH1 0x40 DUP3 ADD SWAP1 POP PUSH2 0x4921 PUSH1 0x0 DUP4 ADD DUP7 PUSH2 0x454B JUMP JUMPDEST DUP2 DUP2 SUB PUSH1 0x20 DUP4 ADD MSTORE PUSH2 0x4934 DUP2 DUP5 DUP7 PUSH2 0x48DF JUMP JUMPDEST SWAP1 POP SWAP5 SWAP4 POP POP POP POP JUMP JUMPDEST PUSH32 0x4552433732313A206F776E657220717565727920666F72206E6F6E6578697374 PUSH1 0x0 DUP3 ADD MSTORE PUSH32 0x656E7420746F6B656E0000000000000000000000000000000000000000000000 PUSH1 0x20 DUP3 ADD MSTORE POP JUMP JUMPDEST PUSH1 0x0 PUSH2 0x499A PUSH1 0x29 DUP4 PUSH2 0x3920 JUMP JUMPDEST SWAP2 POP PUSH2 0x49A5 DUP3 PUSH2 0x493E JUMP JUMPDEST PUSH1 0x40 DUP3 ADD SWAP1 POP SWAP2 SWAP1 POP JUMP JUMPDEST PUSH1 0x0 PUSH1 0x20 DUP3 ADD SWAP1 POP DUP2 DUP2 SUB PUSH1 0x0 DUP4 ADD MSTORE PUSH2 0x49C9 DUP2 PUSH2 0x498D JUMP JUMPDEST SWAP1 POP SWAP2 SWAP1 POP JUMP JUMPDEST PUSH32 0x4C7A52656365697665723A2063616C6C6572206D757374206265204272696467 PUSH1 0x0 DUP3 ADD MSTORE PUSH32 0x652E000000000000000000000000000000000000000000000000000000000000 PUSH1 0x20 DUP3 ADD MSTORE POP JUMP JUMPDEST PUSH1 0x0 PUSH2 0x4A2C PUSH1 0x22 DUP4 PUSH2 0x3920 JUMP JUMPDEST SWAP2 POP PUSH2 0x4A37 DUP3 PUSH2 0x49D0 JUMP JUMPDEST PUSH1 0x40 DUP3 ADD SWAP1 POP SWAP2 SWAP1 POP JUMP JUMPDEST PUSH1 0x0 PUSH1 0x20 DUP3 ADD SWAP1 POP DUP2 DUP2 SUB PUSH1 0x0 DUP4 ADD MSTORE PUSH2 0x4A5B DUP2 PUSH2 0x4A1F JUMP JUMPDEST SWAP1 POP SWAP2 SWAP1 POP JUMP JUMPDEST PUSH32 0x4552433732313A2062616C616E636520717565727920666F7220746865207A65 PUSH1 0x0 DUP3 ADD MSTORE PUSH32 0x726F206164647265737300000000000000000000000000000000000000000000 PUSH1 0x20 DUP3 ADD MSTORE POP JUMP JUMPDEST PUSH1 0x0 PUSH2 0x4ABE PUSH1 0x2A DUP4 PUSH2 0x3920 JUMP JUMPDEST SWAP2 POP PUSH2 0x4AC9 DUP3 PUSH2 0x4A62 JUMP JUMPDEST PUSH1 0x40 DUP3 ADD SWAP1 POP SWAP2 SWAP1 POP JUMP JUMPDEST PUSH1 0x0 PUSH1 0x20 DUP3 ADD SWAP1 POP DUP2 DUP2 SUB PUSH1 0x0 DUP4 ADD MSTORE PUSH2 0x4AED DUP2 PUSH2 0x4AB1 JUMP JUMPDEST SWAP1 POP SWAP2 SWAP1 POP JUMP JUMPDEST PUSH32 0x4552433732314D657461646174613A2055524920717565727920666F72206E6F PUSH1 0x0 DUP3 ADD MSTORE PUSH32 0x6E6578697374656E7420746F6B656E0000000000000000000000000000000000 PUSH1 0x20 DUP3 ADD MSTORE POP JUMP JUMPDEST PUSH1 0x0 PUSH2 0x4B50 PUSH1 0x2F DUP4 PUSH2 0x3920 JUMP JUMPDEST SWAP2 POP PUSH2 0x4B5B DUP3 PUSH2 0x4AF4 JUMP JUMPDEST PUSH1 0x40 DUP3 ADD SWAP1 POP SWAP2 SWAP1 POP JUMP JUMPDEST PUSH1 0x0 PUSH1 0x20 DUP3 ADD SWAP1 POP DUP2 DUP2 SUB PUSH1 0x0 DUP4 ADD MSTORE PUSH2 0x4B7F DUP2 PUSH2 0x4B43 JUMP JUMPDEST SWAP1 POP SWAP2 SWAP1 POP JUMP JUMPDEST PUSH1 0x0 DUP2 SWAP1 POP SWAP3 SWAP2 POP POP JUMP JUMPDEST PUSH1 0x0 PUSH2 0x4B9C DUP3 PUSH2 0x3915 JUMP JUMPDEST PUSH2 0x4BA6 DUP2 DUP6 PUSH2 0x4B86 JUMP JUMPDEST SWAP4 POP PUSH2 0x4BB6 DUP2 DUP6 PUSH1 0x20 DUP7 ADD PUSH2 0x3931 JUMP JUMPDEST DUP1 DUP5 ADD SWAP2 POP POP SWAP3 SWAP2 POP POP JUMP JUMPDEST PUSH1 0x0 PUSH2 0x4BCE DUP3 DUP6 PUSH2 0x4B91 JUMP JUMPDEST SWAP2 POP PUSH2 0x4BDA DUP3 DUP5 PUSH2 0x4B91 JUMP JUMPDEST SWAP2 POP DUP2 SWAP1 POP SWAP4 SWAP3 POP POP POP JUMP JUMPDEST PUSH1 0x0 PUSH1 0x80 DUP3 ADD SWAP1 POP PUSH2 0x4BFB PUSH1 0x0 DUP4 ADD DUP9 PUSH2 0x454B JUMP JUMPDEST PUSH2 0x4C08 PUSH1 0x20 DUP4 ADD DUP8 PUSH2 0x454B JUMP JUMPDEST PUSH2 0x4C15 PUSH1 0x40 DUP4 ADD DUP7 PUSH2 0x3ED8 JUMP JUMPDEST DUP2 DUP2 SUB PUSH1 0x60 DUP4 ADD MSTORE PUSH2 0x4C28 DUP2 DUP5 DUP7 PUSH2 0x48DF JUMP JUMPDEST SWAP1 POP SWAP7 SWAP6 POP POP POP POP POP POP JUMP JUMPDEST PUSH1 0x0 PUSH2 0x4C3F DUP3 PUSH2 0x3E61 JUMP JUMPDEST PUSH2 0x4C49 DUP2 DUP6 PUSH2 0x4397 JUMP JUMPDEST SWAP4 POP PUSH2 0x4C59 DUP2 DUP6 PUSH1 0x20 DUP7 ADD PUSH2 0x3931 JUMP JUMPDEST DUP1 DUP5 ADD SWAP2 POP POP SWAP3 SWAP2 POP POP JUMP JUMPDEST PUSH1 0x0 PUSH2 0x4C71 DUP3 DUP5 PUSH2 0x4C34 JUMP JUMPDEST SWAP2 POP DUP2 SWAP1 POP SWAP3 SWAP2 POP POP JUMP JUMPDEST PUSH32 0x4C7A52656365697665723A206E6F2073746F726564206D657373616765000000 PUSH1 0x0 DUP3 ADD MSTORE POP JUMP JUMPDEST PUSH1 0x0 PUSH2 0x4CB2 PUSH1 0x1D DUP4 PUSH2 0x3920 JUMP JUMPDEST SWAP2 POP PUSH2 0x4CBD DUP3 PUSH2 0x4C7C JUMP JUMPDEST PUSH1 0x20 DUP3 ADD SWAP1 POP SWAP2 SWAP1 POP JUMP JUMPDEST PUSH1 0x0 PUSH1 0x20 DUP3 ADD SWAP1 POP DUP2 DUP2 SUB PUSH1 0x0 DUP4 ADD MSTORE PUSH2 0x4CE1 DUP2 PUSH2 0x4CA5 JUMP JUMPDEST SWAP1 POP SWAP2 SWAP1 POP JUMP JUMPDEST PUSH32 0x4C7A52656365697665723A20696E76616C6964207061796C6F61640000000000 PUSH1 0x0 DUP3 ADD MSTORE POP JUMP JUMPDEST PUSH1 0x0 PUSH2 0x4D1E PUSH1 0x1B DUP4 PUSH2 0x3920 JUMP JUMPDEST SWAP2 POP PUSH2 0x4D29 DUP3 PUSH2 0x4CE8 JUMP JUMPDEST PUSH1 0x20 DUP3 ADD SWAP1 POP SWAP2 SWAP1 POP JUMP JUMPDEST PUSH1 0x0 PUSH1 0x20 DUP3 ADD SWAP1 POP DUP2 DUP2 SUB PUSH1 0x0 DUP4 ADD MSTORE PUSH2 0x4D4D DUP2 PUSH2 0x4D11 JUMP JUMPDEST SWAP1 POP SWAP2 SWAP1 POP JUMP JUMPDEST PUSH2 0x4D5D DUP2 PUSH2 0x377B JUMP JUMPDEST DUP3 MSTORE POP POP JUMP JUMPDEST PUSH1 0x0 PUSH1 0x80 DUP3 ADD SWAP1 POP PUSH2 0x4D78 PUSH1 0x0 DUP4 ADD DUP9 PUSH2 0x454B JUMP JUMPDEST DUP2 DUP2 SUB PUSH1 0x20 DUP4 ADD MSTORE PUSH2 0x4D8A DUP2 DUP8 PUSH2 0x3E7D JUMP JUMPDEST SWAP1 POP PUSH2 0x4D99 PUSH1 0x40 DUP4 ADD DUP7 PUSH2 0x4D54 JUMP JUMPDEST DUP2 DUP2 SUB PUSH1 0x60 DUP4 ADD MSTORE PUSH2 0x4DAC DUP2 DUP5 DUP7 PUSH2 0x48DF JUMP JUMPDEST SWAP1 POP SWAP7 SWAP6 POP POP POP POP POP POP JUMP JUMPDEST PUSH32 0x4F776E61626C653A206E6577206F776E657220697320746865207A65726F2061 PUSH1 0x0 DUP3 ADD MSTORE PUSH32 0x6464726573730000000000000000000000000000000000000000000000000000 PUSH1 0x20 DUP3 ADD MSTORE POP JUMP JUMPDEST PUSH1 0x0 PUSH2 0x4E14 PUSH1 0x26 DUP4 PUSH2 0x3920 JUMP JUMPDEST SWAP2 POP PUSH2 0x4E1F DUP3 PUSH2 0x4DB8 JUMP JUMPDEST PUSH1 0x40 DUP3 ADD SWAP1 POP SWAP2 SWAP1 POP JUMP JUMPDEST PUSH1 0x0 PUSH1 0x20 DUP3 ADD SWAP1 POP DUP2 DUP2 SUB PUSH1 0x0 DUP4 ADD MSTORE PUSH2 0x4E43 DUP2 PUSH2 0x4E07 JUMP JUMPDEST SWAP1 POP SWAP2 SWAP1 POP JUMP JUMPDEST PUSH1 0x0 DUP2 MLOAD SWAP1 POP PUSH2 0x4E59 DUP2 PUSH2 0x3609 JUMP JUMPDEST SWAP3 SWAP2 POP POP JUMP JUMPDEST PUSH1 0x0 PUSH1 0x20 DUP3 DUP5 SUB SLT ISZERO PUSH2 0x4E75 JUMPI PUSH2 0x4E74 PUSH2 0x35F1 JUMP JUMPDEST JUMPDEST PUSH1 0x0 PUSH2 0x4E83 DUP5 DUP3 DUP6 ADD PUSH2 0x4E4A JUMP JUMPDEST SWAP2 POP POP SWAP3 SWAP2 POP POP JUMP JUMPDEST PUSH1 0x0 PUSH1 0x80 DUP3 ADD SWAP1 POP PUSH2 0x4EA1 PUSH1 0x0 DUP4 ADD DUP8 PUSH2 0x454B JUMP JUMPDEST PUSH2 0x4EAE PUSH1 0x20 DUP4 ADD DUP7 PUSH2 0x454B JUMP JUMPDEST PUSH2 0x4EBB PUSH1 0x40 DUP4 ADD DUP6 PUSH2 0x3A81 JUMP JUMPDEST PUSH2 0x4EC8 PUSH1 0x60 DUP4 ADD DUP5 PUSH2 0x3ED8 JUMP JUMPDEST SWAP6 SWAP5 POP POP POP POP POP JUMP JUMPDEST PUSH1 0x0 PUSH2 0x4EE4 PUSH2 0x4EDF DUP5 PUSH2 0x36CB JUMP JUMPDEST PUSH2 0x36B0 JUMP JUMPDEST SWAP1 POP DUP3 DUP2 MSTORE PUSH1 0x20 DUP2 ADD DUP5 DUP5 DUP5 ADD GT ISZERO PUSH2 0x4F00 JUMPI PUSH2 0x4EFF PUSH2 0x363A JUMP JUMPDEST JUMPDEST PUSH2 0x4F0B DUP5 DUP3 DUP6 PUSH2 0x3931 JUMP JUMPDEST POP SWAP4 SWAP3 POP POP POP JUMP JUMPDEST PUSH1 0x0 DUP3 PUSH1 0x1F DUP4 ADD SLT PUSH2 0x4F28 JUMPI PUSH2 0x4F27 PUSH2 0x3635 JUMP JUMPDEST JUMPDEST DUP2 MLOAD PUSH2 0x4F38 DUP5 DUP3 PUSH1 0x20 DUP7 ADD PUSH2 0x4ED1 JUMP JUMPDEST SWAP2 POP POP SWAP3 SWAP2 POP POP JUMP JUMPDEST PUSH1 0x0 PUSH1 0x20 DUP3 DUP5 SUB SLT ISZERO PUSH2 0x4F57 JUMPI PUSH2 0x4F56 PUSH2 0x35F1 JUMP JUMPDEST JUMPDEST PUSH1 0x0 DUP3 ADD MLOAD PUSH8 0xFFFFFFFFFFFFFFFF DUP2 GT ISZERO PUSH2 0x4F75 JUMPI PUSH2 0x4F74 PUSH2 0x35F6 JUMP JUMPDEST JUMPDEST PUSH2 0x4F81 DUP5 DUP3 DUP6 ADD PUSH2 0x4F13 JUMP JUMPDEST SWAP2 POP POP SWAP3 SWAP2 POP POP JUMP JUMPDEST PUSH1 0x0 PUSH1 0x80 DUP3 ADD SWAP1 POP PUSH2 0x4F9F PUSH1 0x0 DUP4 ADD DUP8 PUSH2 0x454B JUMP JUMPDEST DUP2 DUP2 SUB PUSH1 0x20 DUP4 ADD MSTORE PUSH2 0x4FB1 DUP2 DUP7 PUSH2 0x3E7D JUMP JUMPDEST SWAP1 POP PUSH2 0x4FC0 PUSH1 0x40 DUP4 ADD DUP6 PUSH2 0x4D54 JUMP JUMPDEST DUP2 DUP2 SUB PUSH1 0x60 DUP4 ADD MSTORE PUSH2 0x4FD2 DUP2 DUP5 PUSH2 0x3E7D JUMP JUMPDEST SWAP1 POP SWAP6 SWAP5 POP POP POP POP POP JUMP JUMPDEST PUSH32 0x4552433732313A206F70657261746F7220717565727920666F72206E6F6E6578 PUSH1 0x0 DUP3 ADD MSTORE PUSH32 0x697374656E7420746F6B656E0000000000000000000000000000000000000000 PUSH1 0x20 DUP3 ADD MSTORE POP JUMP JUMPDEST PUSH1 0x0 PUSH2 0x5039 PUSH1 0x2C DUP4 PUSH2 0x3920 JUMP JUMPDEST SWAP2 POP PUSH2 0x5044 DUP3 PUSH2 0x4FDD JUMP JUMPDEST PUSH1 0x40 DUP3 ADD SWAP1 POP SWAP2 SWAP1 POP JUMP JUMPDEST PUSH1 0x0 PUSH1 0x20 DUP3 ADD SWAP1 POP DUP2 DUP2 SUB PUSH1 0x0 DUP4 ADD MSTORE PUSH2 0x5068 DUP2 PUSH2 0x502C JUMP JUMPDEST SWAP1 POP SWAP2 SWAP1 POP JUMP JUMPDEST PUSH32 0x4552433732313A207472616E736665722066726F6D20696E636F727265637420 PUSH1 0x0 DUP3 ADD MSTORE PUSH32 0x6F776E6572000000000000000000000000000000000000000000000000000000 PUSH1 0x20 DUP3 ADD MSTORE POP JUMP JUMPDEST PUSH1 0x0 PUSH2 0x50CB PUSH1 0x25 DUP4 PUSH2 0x3920 JUMP JUMPDEST SWAP2 POP PUSH2 0x50D6 DUP3 PUSH2 0x506F JUMP JUMPDEST PUSH1 0x40 DUP3 ADD SWAP1 POP SWAP2 SWAP1 POP JUMP JUMPDEST PUSH1 0x0 PUSH1 0x20 DUP3 ADD SWAP1 POP DUP2 DUP2 SUB PUSH1 0x0 DUP4 ADD MSTORE PUSH2 0x50FA DUP2 PUSH2 0x50BE JUMP JUMPDEST SWAP1 POP SWAP2 SWAP1 POP JUMP JUMPDEST PUSH32 0x4552433732313A207472616E7366657220746F20746865207A65726F20616464 PUSH1 0x0 DUP3 ADD MSTORE PUSH32 0x7265737300000000000000000000000000000000000000000000000000000000 PUSH1 0x20 DUP3 ADD MSTORE POP JUMP JUMPDEST PUSH1 0x0 PUSH2 0x515D PUSH1 0x24 DUP4 PUSH2 0x3920 JUMP JUMPDEST SWAP2 POP PUSH2 0x5168 DUP3 PUSH2 0x5101 JUMP JUMPDEST PUSH1 0x40 DUP3 ADD SWAP1 POP SWAP2 SWAP1 POP JUMP JUMPDEST PUSH1 0x0 PUSH1 0x20 DUP3 ADD SWAP1 POP DUP2 DUP2 SUB PUSH1 0x0 DUP4 ADD MSTORE PUSH2 0x518C DUP2 PUSH2 0x5150 JUMP JUMPDEST SWAP1 POP SWAP2 SWAP1 POP JUMP JUMPDEST PUSH1 0x0 PUSH2 0x519E DUP3 PUSH2 0x39EC JUMP JUMPDEST SWAP2 POP PUSH2 0x51A9 DUP4 PUSH2 0x39EC JUMP JUMPDEST SWAP3 POP DUP3 DUP3 LT ISZERO PUSH2 0x51BC JUMPI PUSH2 0x51BB PUSH2 0x4797 JUMP JUMPDEST JUMPDEST DUP3 DUP3 SUB SWAP1 POP SWAP3 SWAP2 POP POP JUMP JUMPDEST PUSH1 0x0 PUSH2 0x51D2 DUP3 PUSH2 0x39EC JUMP JUMPDEST SWAP2 POP PUSH2 0x51DD DUP4 PUSH2 0x39EC JUMP JUMPDEST SWAP3 POP DUP3 PUSH32 0xFFFFFFFFFFFFFFFFFFFFFFFFFFFFFFFFFFFFFFFFFFFFFFFFFFFFFFFFFFFFFFFF SUB DUP3 GT ISZERO PUSH2 0x5212 JUMPI PUSH2 0x5211 PUSH2 0x4797 JUMP JUMPDEST JUMPDEST DUP3 DUP3 ADD SWAP1 POP SWAP3 SWAP2 POP POP JUMP JUMPDEST PUSH1 0x0 PUSH1 0x40 DUP3 ADD SWAP1 POP DUP2 DUP2 SUB PUSH1 0x0 DUP4 ADD MSTORE PUSH2 0x5237 DUP2 DUP6 PUSH2 0x3E7D JUMP JUMPDEST SWAP1 POP PUSH2 0x5246 PUSH1 0x20 DUP4 ADD DUP5 PUSH2 0x3ED8 JUMP JUMPDEST SWAP4 SWAP3 POP POP POP JUMP JUMPDEST PUSH1 0x0 PUSH1 0x40 DUP3 ADD SWAP1 POP PUSH2 0x5262 PUSH1 0x0 DUP4 ADD DUP6 PUSH2 0x454B JUMP JUMPDEST PUSH2 0x526F PUSH1 0x20 DUP4 ADD DUP5 PUSH2 0x3A81 JUMP JUMPDEST SWAP4 SWAP3 POP POP POP JUMP JUMPDEST PUSH1 0x0 DUP2 MLOAD SWAP1 POP PUSH2 0x5285 DUP2 PUSH2 0x378F JUMP JUMPDEST SWAP3 SWAP2 POP POP JUMP JUMPDEST PUSH1 0x0 PUSH1 0x20 DUP3 DUP5 SUB SLT ISZERO PUSH2 0x52A1 JUMPI PUSH2 0x52A0 PUSH2 0x35F1 JUMP JUMPDEST JUMPDEST PUSH1 0x0 PUSH2 0x52AF DUP5 DUP3 DUP6 ADD PUSH2 0x5276 JUMP JUMPDEST SWAP2 POP POP SWAP3 SWAP2 POP POP JUMP JUMPDEST PUSH1 0x0 PUSH1 0x40 DUP3 ADD SWAP1 POP PUSH2 0x52CD PUSH1 0x0 DUP4 ADD DUP6 PUSH2 0x3ED8 JUMP JUMPDEST PUSH2 0x52DA PUSH1 0x20 DUP4 ADD DUP5 PUSH2 0x4D54 JUMP JUMPDEST SWAP4 SWAP3 POP POP POP JUMP JUMPDEST PUSH1 0x0 DUP2 MLOAD SWAP1 POP PUSH2 0x52F0 DUP2 PUSH2 0x39F6 JUMP JUMPDEST SWAP3 SWAP2 POP POP JUMP JUMPDEST PUSH1 0x0 DUP1 PUSH1 0x40 DUP4 DUP6 SUB SLT ISZERO PUSH2 0x530D JUMPI PUSH2 0x530C PUSH2 0x35F1 JUMP JUMPDEST JUMPDEST PUSH1 0x0 DUP4 ADD MLOAD PUSH8 0xFFFFFFFFFFFFFFFF DUP2 GT ISZERO PUSH2 0x532B JUMPI PUSH2 0x532A PUSH2 0x35F6 JUMP JUMPDEST JUMPDEST PUSH2 0x5337 DUP6 DUP3 DUP7 ADD PUSH2 0x4F13 JUMP JUMPDEST SWAP3 POP POP PUSH1 0x20 PUSH2 0x5348 DUP6 DUP3 DUP7 ADD PUSH2 0x52E1 JUMP JUMPDEST SWAP2 POP POP SWAP3 POP SWAP3 SWAP1 POP JUMP JUMPDEST PUSH1 0x0 PUSH1 0x80 DUP3 ADD SWAP1 POP PUSH2 0x5367 PUSH1 0x0 DUP4 ADD DUP8 PUSH2 0x454B JUMP JUMPDEST PUSH2 0x5374 PUSH1 0x20 DUP4 ADD DUP7 PUSH2 0x3A81 JUMP JUMPDEST PUSH2 0x5381 PUSH1 0x40 DUP4 ADD DUP6 PUSH2 0x3ED8 JUMP JUMPDEST PUSH2 0x538E PUSH1 0x60 DUP4 ADD DUP5 PUSH2 0x4D54 JUMP JUMPDEST SWAP6 SWAP5 POP POP POP POP POP JUMP JUMPDEST PUSH32 0x4552433732313A20617070726F766520746F2063616C6C657200000000000000 PUSH1 0x0 DUP3 ADD MSTORE POP JUMP JUMPDEST PUSH1 0x0 PUSH2 0x53CD PUSH1 0x19 DUP4 PUSH2 0x3920 JUMP JUMPDEST SWAP2 POP PUSH2 0x53D8 DUP3 PUSH2 0x5397 JUMP JUMPDEST PUSH1 0x20 DUP3 ADD SWAP1 POP SWAP2 SWAP1 POP JUMP JUMPDEST PUSH1 0x0 PUSH1 0x20 DUP3 ADD SWAP1 POP DUP2 DUP2 SUB PUSH1 0x0 DUP4 ADD MSTORE PUSH2 0x53FC DUP2 PUSH2 0x53C0 JUMP JUMPDEST SWAP1 POP SWAP2 SWAP1 POP JUMP JUMPDEST PUSH32 0x4552433732313A207472616E7366657220746F206E6F6E204552433732315265 PUSH1 0x0 DUP3 ADD MSTORE PUSH32 0x63656976657220696D706C656D656E7465720000000000000000000000000000 PUSH1 0x20 DUP3 ADD MSTORE POP JUMP JUMPDEST PUSH1 0x0 PUSH2 0x545F PUSH1 0x32 DUP4 PUSH2 0x3920 JUMP JUMPDEST SWAP2 POP PUSH2 0x546A DUP3 PUSH2 0x5403 JUMP JUMPDEST PUSH1 0x40 DUP3 ADD SWAP1 POP SWAP2 SWAP1 POP JUMP JUMPDEST PUSH1 0x0 PUSH1 0x20 DUP3 ADD SWAP1 POP DUP2 DUP2 SUB PUSH1 0x0 DUP4 ADD MSTORE PUSH2 0x548E DUP2 PUSH2 0x5452 JUMP JUMPDEST SWAP1 POP SWAP2 SWAP1 POP JUMP JUMPDEST PUSH32 0x4E487B7100000000000000000000000000000000000000000000000000000000 PUSH1 0x0 MSTORE PUSH1 0x12 PUSH1 0x4 MSTORE PUSH1 0x24 PUSH1 0x0 REVERT JUMPDEST PUSH1 0x0 PUSH2 0x54CF DUP3 PUSH2 0x39EC JUMP JUMPDEST SWAP2 POP PUSH2 0x54DA DUP4 PUSH2 0x39EC JUMP JUMPDEST SWAP3 POP DUP3 PUSH2 0x54EA JUMPI PUSH2 0x54E9 PUSH2 0x5495 JUMP JUMPDEST JUMPDEST DUP3 DUP3 DIV SWAP1 POP SWAP3 SWAP2 POP POP JUMP JUMPDEST PUSH1 0x0 PUSH2 0x5500 DUP3 PUSH2 0x39EC JUMP JUMPDEST SWAP2 POP PUSH2 0x550B DUP4 PUSH2 0x39EC JUMP JUMPDEST SWAP3 POP DUP3 PUSH2 0x551B JUMPI PUSH2 0x551A PUSH2 0x5495 JUMP JUMPDEST JUMPDEST DUP3 DUP3 MOD SWAP1 POP SWAP3 SWAP2 POP POP JUMP JUMPDEST PUSH32 0x4E487B7100000000000000000000000000000000000000000000000000000000 PUSH1 0x0 MSTORE PUSH1 0x32 PUSH1 0x4 MSTORE PUSH1 0x24 PUSH1 0x0 REVERT JUMPDEST PUSH32 0x4C7A53656E643A2064657374696E6174696F6E20636861696E206973206E6F74 PUSH1 0x0 DUP3 ADD MSTORE PUSH32 0x2061207472757374656420736F757263652E0000000000000000000000000000 PUSH1 0x20 DUP3 ADD MSTORE POP JUMP JUMPDEST PUSH1 0x0 PUSH2 0x55B1 PUSH1 0x32 DUP4 PUSH2 0x3920 JUMP JUMPDEST SWAP2 POP PUSH2 0x55BC DUP3 PUSH2 0x5555 JUMP JUMPDEST PUSH1 0x40 DUP3 ADD SWAP1 POP SWAP2 SWAP1 POP JUMP JUMPDEST PUSH1 0x0 PUSH1 0x20 DUP3 ADD SWAP1 POP DUP2 DUP2 SUB PUSH1 0x0 DUP4 ADD MSTORE PUSH2 0x55E0 DUP2 PUSH2 0x55A4 JUMP JUMPDEST SWAP1 POP SWAP2 SWAP1 POP JUMP JUMPDEST PUSH1 0x0 DUP2 SLOAD PUSH2 0x55F4 DUP2 PUSH2 0x4365 JUMP JUMPDEST PUSH2 0x55FE DUP2 DUP7 PUSH2 0x3E6C JUMP JUMPDEST SWAP5 POP PUSH1 0x1 DUP3 AND PUSH1 0x0 DUP2 EQ PUSH2 0x5619 JUMPI PUSH1 0x1 DUP2 EQ PUSH2 0x562B JUMPI PUSH2 0x565E JUMP JUMPDEST PUSH1 0xFF NOT DUP4 AND DUP7 MSTORE PUSH1 0x20 DUP7 ADD SWAP4 POP PUSH2 0x565E JUMP JUMPDEST PUSH2 0x5634 DUP6 PUSH2 0x43A2 JUMP JUMPDEST PUSH1 0x0 JUMPDEST DUP4 DUP2 LT ISZERO PUSH2 0x5656 JUMPI DUP2 SLOAD DUP2 DUP10 ADD MSTORE PUSH1 0x1 DUP3 ADD SWAP2 POP PUSH1 0x20 DUP2 ADD SWAP1 POP PUSH2 0x5637 JUMP JUMPDEST DUP1 DUP9 ADD SWAP6 POP POP POP JUMPDEST POP POP POP SWAP3 SWAP2 POP POP JUMP JUMPDEST PUSH2 0x5670 DUP2 PUSH2 0x3C57 JUMP JUMPDEST DUP3 MSTORE POP POP JUMP JUMPDEST PUSH1 0x0 PUSH1 0xC0 DUP3 ADD SWAP1 POP PUSH2 0x568B PUSH1 0x0 DUP4 ADD DUP10 PUSH2 0x454B JUMP JUMPDEST DUP2 DUP2 SUB PUSH1 0x20 DUP4 ADD MSTORE PUSH2 0x569D DUP2 DUP9 PUSH2 0x55E7 JUMP JUMPDEST SWAP1 POP DUP2 DUP2 SUB PUSH1 0x40 DUP4 ADD MSTORE PUSH2 0x56B1 DUP2 DUP8 PUSH2 0x3E7D JUMP JUMPDEST SWAP1 POP PUSH2 0x56C0 PUSH1 0x60 DUP4 ADD DUP7 PUSH2 0x5667 JUMP JUMPDEST PUSH2 0x56CD PUSH1 0x80 DUP4 ADD DUP6 PUSH2 0x3A81 JUMP JUMPDEST DUP2 DUP2 SUB PUSH1 0xA0 DUP4 ADD MSTORE PUSH2 0x56DF DUP2 DUP5 PUSH2 0x3E7D JUMP JUMPDEST SWAP1 POP SWAP8 SWAP7 POP POP POP POP POP POP POP JUMP JUMPDEST PUSH1 0x0 PUSH1 0x80 DUP3 ADD SWAP1 POP PUSH2 0x5701 PUSH1 0x0 DUP4 ADD DUP8 PUSH2 0x3A81 JUMP JUMPDEST PUSH2 0x570E PUSH1 0x20 DUP4 ADD DUP7 PUSH2 0x3A81 JUMP JUMPDEST PUSH2 0x571B PUSH1 0x40 DUP4 ADD DUP6 PUSH2 0x3ED8 JUMP JUMPDEST DUP2 DUP2 SUB PUSH1 0x60 DUP4 ADD MSTORE PUSH2 0x572D DUP2 DUP5 PUSH2 0x3E7D JUMP JUMPDEST SWAP1 POP SWAP6 SWAP5 POP POP POP POP POP JUMP JUMPDEST PUSH1 0x0 DUP2 MLOAD SWAP1 POP PUSH2 0x5747 DUP2 PUSH2 0x3886 JUMP JUMPDEST SWAP3 SWAP2 POP POP JUMP JUMPDEST PUSH1 0x0 PUSH1 0x20 DUP3 DUP5 SUB SLT ISZERO PUSH2 0x5763 JUMPI PUSH2 0x5762 PUSH2 0x35F1 JUMP JUMPDEST JUMPDEST PUSH1 0x0 PUSH2 0x5771 DUP5 DUP3 DUP6 ADD PUSH2 0x5738 JUMP JUMPDEST SWAP2 POP POP SWAP3 SWAP2 POP POP JUMP JUMPDEST PUSH32 0x4552433732313A206D696E7420746F20746865207A65726F2061646472657373 PUSH1 0x0 DUP3 ADD MSTORE POP JUMP JUMPDEST PUSH1 0x0 PUSH2 0x57B0 PUSH1 0x20 DUP4 PUSH2 0x3920 JUMP JUMPDEST SWAP2 POP PUSH2 0x57BB DUP3 PUSH2 0x577A JUMP JUMPDEST PUSH1 0x20 DUP3 ADD SWAP1 POP SWAP2 SWAP1 POP JUMP JUMPDEST PUSH1 0x0 PUSH1 0x20 DUP3 ADD SWAP1 POP DUP2 DUP2 SUB PUSH1 0x0 DUP4 ADD MSTORE PUSH2 0x57DF DUP2 PUSH2 0x57A3 JUMP JUMPDEST SWAP1 POP SWAP2 SWAP1 POP JUMP JUMPDEST PUSH32 0x4552433732313A20746F6B656E20616C7265616479206D696E74656400000000 PUSH1 0x0 DUP3 ADD MSTORE POP JUMP JUMPDEST PUSH1 0x0 PUSH2 0x581C PUSH1 0x1C DUP4 PUSH2 0x3920 JUMP JUMPDEST SWAP2 POP PUSH2 0x5827 DUP3 PUSH2 0x57E6 JUMP JUMPDEST PUSH1 0x20 DUP3 ADD SWAP1 POP SWAP2 SWAP1 POP JUMP JUMPDEST PUSH1 0x0 PUSH1 0x20 DUP3 ADD SWAP1 POP DUP2 DUP2 SUB PUSH1 0x0 DUP4 ADD MSTORE PUSH2 0x584B DUP2 PUSH2 0x580F JUMP JUMPDEST SWAP1 POP SWAP2 SWAP1 POP JUMP INVALID LOG2 PUSH5 0x6970667358 0x22 SLT KECCAK256 PUSH11 0x102351FA7F71F9F5C3AD61 JUMP 0xDD 0xC0 DUP15 DUP5 DUP11 0xF9 PUSH12 0x1CADF13F4D2CE0CD56A710EE PUSH5 0x736F6C6343 STOP ADDMOD MULMOD STOP CALLER "
		},
		"gasEstimates": {
			"creation": {
				"codeDepositCost": "4532800",
				"executionCost": "infinite",
				"totalCost": "infinite"
			},
			"external": {
				"approve(address,uint256)": "infinite",
				"balanceOf(address)": "2947",
				"baseTokenURI()": "infinite",
				"failedMessages(uint16,bytes,uint256)": "infinite",
				"forceResumeReceive(uint16,bytes)": "infinite",
				"getApproved(uint256)": "5206",
				"getConfig(uint16,uint16,address,uint256)": "infinite",
				"getLzEndpoint()": "infinite",
				"getTrustedRemote(uint16)": "infinite",
				"isApprovedForAll(address,address)": "infinite",
				"isTrustedRemote(uint16,bytes)": "infinite",
				"lzReceive(uint16,bytes,uint64,bytes)": "infinite",
				"maxMintId()": "2562",
				"mint()": "infinite",
				"name()": "infinite",
				"nextMintId()": "2475",
				"nonblockingLzReceive(uint16,bytes,uint64,bytes)": "infinite",
				"owner()": "2634",
				"ownerOf(uint256)": "3066",
				"paused()": "2538",
				"renounceOwnership()": "30464",
				"retryMessage(uint16,bytes,uint64,bytes)": "infinite",
				"safeTransferFrom(address,address,uint256)": "infinite",
				"safeTransferFrom(address,address,uint256,bytes)": "infinite",
				"send(uint16,bytes,uint256,address,address,bytes)": "infinite",
				"sendFrom(address,uint16,bytes,uint256,address,address,bytes)": "infinite",
				"setApprovalForAll(address,bool)": "infinite",
				"setBaseURI(string)": "infinite",
				"setConfig(uint16,uint16,uint256,bytes)": "infinite",
				"setReceiveVersion(uint16)": "infinite",
				"setSendVersion(uint16)": "infinite",
				"setTrustedRemote(uint16,bytes)": "infinite",
				"supportsInterface(bytes4)": "842",
				"symbol()": "infinite",
				"tokenURI(uint256)": "infinite",
				"transferFrom(address,address,uint256)": "infinite",
				"transferOwnership(address)": "30833",
				"whitelistUser(address)": "27164",
				"whitelisted(address)": "2934"
			}
		},
		"methodIdentifiers": {
			"approve(address,uint256)": "095ea7b3",
			"balanceOf(address)": "70a08231",
			"baseTokenURI()": "d547cfb7",
			"failedMessages(uint16,bytes,uint256)": "8ee74912",
			"forceResumeReceive(uint16,bytes)": "42d65a8d",
			"getApproved(uint256)": "081812fc",
			"getConfig(uint16,uint16,address,uint256)": "f5ecbdbc",
			"getLzEndpoint()": "dacbcbe2",
			"getTrustedRemote(uint16)": "69b41f95",
			"isApprovedForAll(address,address)": "e985e9c5",
			"isTrustedRemote(uint16,bytes)": "3d8b38f6",
			"lzReceive(uint16,bytes,uint64,bytes)": "001d3567",
			"maxMintId()": "e1d4c870",
			"mint()": "1249c58b",
			"name()": "06fdde03",
			"nextMintId()": "6aa99da3",
			"nonblockingLzReceive(uint16,bytes,uint64,bytes)": "66ad5c8a",
			"owner()": "8da5cb5b",
			"ownerOf(uint256)": "6352211e",
			"paused()": "5c975abb",
			"renounceOwnership()": "715018a6",
			"retryMessage(uint16,bytes,uint64,bytes)": "d1deba1f",
			"safeTransferFrom(address,address,uint256)": "42842e0e",
			"safeTransferFrom(address,address,uint256,bytes)": "b88d4fde",
			"send(uint16,bytes,uint256,address,address,bytes)": "eed33cef",
			"sendFrom(address,uint16,bytes,uint256,address,address,bytes)": "51905636",
			"setApprovalForAll(address,bool)": "a22cb465",
			"setBaseURI(string)": "55f804b3",
			"setConfig(uint16,uint16,uint256,bytes)": "cbed8b9c",
			"setReceiveVersion(uint16)": "10ddb137",
			"setSendVersion(uint16)": "07e0db17",
			"setTrustedRemote(uint16,bytes)": "eb8d72b7",
			"supportsInterface(bytes4)": "01ffc9a7",
			"symbol()": "95d89b41",
			"tokenURI(uint256)": "c87b56dd",
			"transferFrom(address,address,uint256)": "23b872dd",
			"transferOwnership(address)": "f2fde38b",
			"whitelistUser(address)": "4a4c560d",
			"whitelisted(address)": "d936547e"
		}
	},
	"abi": [
		{
			"inputs": [
				{
					"internalType": "string",
					"name": "_name",
					"type": "string"
				},
				{
					"internalType": "string",
					"name": "_symbol",
					"type": "string"
				},
				{
					"internalType": "address",
					"name": "_layerZeroEndpoint",
					"type": "address"
				},
				{
					"internalType": "uint256",
					"name": "_startMintId",
					"type": "uint256"
				},
				{
					"internalType": "uint256",
					"name": "_endMintId",
					"type": "uint256"
				}
			],
			"stateMutability": "nonpayable",
			"type": "constructor"
		},
		{
			"anonymous": false,
			"inputs": [
				{
					"indexed": true,
					"internalType": "address",
					"name": "owner",
					"type": "address"
				},
				{
					"indexed": true,
					"internalType": "address",
					"name": "approved",
					"type": "address"
				},
				{
					"indexed": true,
					"internalType": "uint256",
					"name": "tokenId",
					"type": "uint256"
				}
			],
			"name": "Approval",
			"type": "event"
		},
		{
			"anonymous": false,
			"inputs": [
				{
					"indexed": true,
					"internalType": "address",
					"name": "owner",
					"type": "address"
				},
				{
					"indexed": true,
					"internalType": "address",
					"name": "operator",
					"type": "address"
				},
				{
					"indexed": false,
					"internalType": "bool",
					"name": "approved",
					"type": "bool"
				}
			],
			"name": "ApprovalForAll",
			"type": "event"
		},
		{
			"anonymous": false,
			"inputs": [
				{
					"indexed": false,
					"internalType": "uint16",
					"name": "_srcChainId",
					"type": "uint16"
				},
				{
					"indexed": false,
					"internalType": "bytes",
					"name": "_srcAddress",
					"type": "bytes"
				},
				{
					"indexed": false,
					"internalType": "uint64",
					"name": "_nonce",
					"type": "uint64"
				},
				{
					"indexed": false,
					"internalType": "bytes",
					"name": "_payload",
					"type": "bytes"
				}
			],
			"name": "MessageFailed",
			"type": "event"
		},
		{
			"anonymous": false,
			"inputs": [
				{
					"indexed": true,
					"internalType": "address",
					"name": "previousOwner",
					"type": "address"
				},
				{
					"indexed": true,
					"internalType": "address",
					"name": "newOwner",
					"type": "address"
				}
			],
			"name": "OwnershipTransferred",
			"type": "event"
		},
		{
			"anonymous": false,
			"inputs": [
				{
					"indexed": false,
					"internalType": "uint16",
					"name": "_srcChainId",
					"type": "uint16"
				},
				{
					"indexed": false,
					"internalType": "address",
					"name": "_toAddress",
					"type": "address"
				},
				{
					"indexed": false,
					"internalType": "uint256",
					"name": "_tokenId",
					"type": "uint256"
				},
				{
					"indexed": false,
					"internalType": "uint64",
					"name": "_nonce",
					"type": "uint64"
				}
			],
			"name": "ReceiveFromChain",
			"type": "event"
		},
		{
			"anonymous": false,
			"inputs": [
				{
					"indexed": true,
					"internalType": "address",
					"name": "_sender",
					"type": "address"
				},
				{
					"indexed": true,
					"internalType": "uint16",
					"name": "_dstChainId",
					"type": "uint16"
				},
				{
					"indexed": true,
					"internalType": "bytes",
					"name": "_toAddress",
					"type": "bytes"
				},
				{
					"indexed": false,
					"internalType": "uint256",
					"name": "_tokenId",
					"type": "uint256"
				},
				{
					"indexed": false,
					"internalType": "uint64",
					"name": "_nonce",
					"type": "uint64"
				}
			],
			"name": "SendToChain",
			"type": "event"
		},
		{
			"anonymous": false,
			"inputs": [
				{
					"indexed": false,
					"internalType": "uint16",
					"name": "_srcChainId",
					"type": "uint16"
				},
				{
					"indexed": false,
					"internalType": "bytes",
					"name": "_srcAddress",
					"type": "bytes"
				}
			],
			"name": "SetTrustedRemote",
			"type": "event"
		},
		{
			"anonymous": false,
			"inputs": [
				{
					"indexed": true,
					"internalType": "address",
					"name": "from",
					"type": "address"
				},
				{
					"indexed": true,
					"internalType": "address",
					"name": "to",
					"type": "address"
				},
				{
					"indexed": true,
					"internalType": "uint256",
					"name": "tokenId",
					"type": "uint256"
				}
			],
			"name": "Transfer",
			"type": "event"
		},
		{
			"inputs": [
				{
					"internalType": "address",
					"name": "to",
					"type": "address"
				},
				{
					"internalType": "uint256",
					"name": "tokenId",
					"type": "uint256"
				}
			],
			"name": "approve",
			"outputs": [],
			"stateMutability": "nonpayable",
			"type": "function"
		},
		{
			"inputs": [
				{
					"internalType": "address",
					"name": "owner",
					"type": "address"
				}
			],
			"name": "balanceOf",
			"outputs": [
				{
					"internalType": "uint256",
					"name": "",
					"type": "uint256"
				}
			],
			"stateMutability": "view",
			"type": "function"
		},
		{
			"inputs": [],
			"name": "baseTokenURI",
			"outputs": [
				{
					"internalType": "string",
					"name": "",
					"type": "string"
				}
			],
			"stateMutability": "view",
			"type": "function"
		},
		{
			"inputs": [
				{
					"internalType": "uint16",
					"name": "",
					"type": "uint16"
				},
				{
					"internalType": "bytes",
					"name": "",
					"type": "bytes"
				},
				{
					"internalType": "uint256",
					"name": "",
					"type": "uint256"
				}
			],
			"name": "failedMessages",
			"outputs": [
				{
					"internalType": "bytes32",
					"name": "",
					"type": "bytes32"
				}
			],
			"stateMutability": "view",
			"type": "function"
		},
		{
			"inputs": [
				{
					"internalType": "uint16",
					"name": "_srcChainId",
					"type": "uint16"
				},
				{
					"internalType": "bytes",
					"name": "_srcAddress",
					"type": "bytes"
				}
			],
			"name": "forceResumeReceive",
			"outputs": [],
			"stateMutability": "nonpayable",
			"type": "function"
		},
		{
			"inputs": [
				{
					"internalType": "uint256",
					"name": "tokenId",
					"type": "uint256"
				}
			],
			"name": "getApproved",
			"outputs": [
				{
					"internalType": "address",
					"name": "",
					"type": "address"
				}
			],
			"stateMutability": "view",
			"type": "function"
		},
		{
			"inputs": [
				{
					"internalType": "uint16",
					"name": "",
					"type": "uint16"
				},
				{
					"internalType": "uint16",
					"name": "_chainId",
					"type": "uint16"
				},
				{
					"internalType": "address",
					"name": "",
					"type": "address"
				},
				{
					"internalType": "uint256",
					"name": "_configType",
					"type": "uint256"
				}
			],
			"name": "getConfig",
			"outputs": [
				{
					"internalType": "bytes",
					"name": "",
					"type": "bytes"
				}
			],
			"stateMutability": "view",
			"type": "function"
		},
		{
			"inputs": [],
			"name": "getLzEndpoint",
			"outputs": [
				{
					"internalType": "address",
					"name": "",
					"type": "address"
				}
			],
			"stateMutability": "view",
			"type": "function"
		},
		{
			"inputs": [
				{
					"internalType": "uint16",
					"name": "_chainId",
					"type": "uint16"
				}
			],
			"name": "getTrustedRemote",
			"outputs": [
				{
					"internalType": "bytes",
					"name": "",
					"type": "bytes"
				}
			],
			"stateMutability": "view",
			"type": "function"
		},
		{
			"inputs": [
				{
					"internalType": "address",
					"name": "owner",
					"type": "address"
				},
				{
					"internalType": "address",
					"name": "operator",
					"type": "address"
				}
			],
			"name": "isApprovedForAll",
			"outputs": [
				{
					"internalType": "bool",
					"name": "",
					"type": "bool"
				}
			],
			"stateMutability": "view",
			"type": "function"
		},
		{
			"inputs": [
				{
					"internalType": "uint16",
					"name": "_srcChainId",
					"type": "uint16"
				},
				{
					"internalType": "bytes",
					"name": "_srcAddress",
					"type": "bytes"
				}
			],
			"name": "isTrustedRemote",
			"outputs": [
				{
					"internalType": "bool",
					"name": "",
					"type": "bool"
				}
			],
			"stateMutability": "view",
			"type": "function"
		},
		{
			"inputs": [
				{
					"internalType": "uint16",
					"name": "_srcChainId",
					"type": "uint16"
				},
				{
					"internalType": "bytes",
					"name": "_srcAddress",
					"type": "bytes"
				},
				{
					"internalType": "uint64",
					"name": "_nonce",
					"type": "uint64"
				},
				{
					"internalType": "bytes",
					"name": "_payload",
					"type": "bytes"
				}
			],
			"name": "lzReceive",
			"outputs": [],
			"stateMutability": "nonpayable",
			"type": "function"
		},
		{
			"inputs": [],
			"name": "maxMintId",
			"outputs": [
				{
					"internalType": "uint256",
					"name": "",
					"type": "uint256"
				}
			],
			"stateMutability": "view",
			"type": "function"
		},
		{
			"inputs": [],
			"name": "mint",
			"outputs": [],
			"stateMutability": "payable",
			"type": "function"
		},
		{
			"inputs": [],
			"name": "name",
			"outputs": [
				{
					"internalType": "string",
					"name": "",
					"type": "string"
				}
			],
			"stateMutability": "view",
			"type": "function"
		},
		{
			"inputs": [],
			"name": "nextMintId",
			"outputs": [
				{
					"internalType": "uint256",
					"name": "",
					"type": "uint256"
				}
			],
			"stateMutability": "view",
			"type": "function"
		},
		{
			"inputs": [
				{
					"internalType": "uint16",
					"name": "_srcChainId",
					"type": "uint16"
				},
				{
					"internalType": "bytes",
					"name": "_srcAddress",
					"type": "bytes"
				},
				{
					"internalType": "uint64",
					"name": "_nonce",
					"type": "uint64"
				},
				{
					"internalType": "bytes",
					"name": "_payload",
					"type": "bytes"
				}
			],
			"name": "nonblockingLzReceive",
			"outputs": [],
			"stateMutability": "nonpayable",
			"type": "function"
		},
		{
			"inputs": [],
			"name": "owner",
			"outputs": [
				{
					"internalType": "address",
					"name": "",
					"type": "address"
				}
			],
			"stateMutability": "view",
			"type": "function"
		},
		{
			"inputs": [
				{
					"internalType": "uint256",
					"name": "tokenId",
					"type": "uint256"
				}
			],
			"name": "ownerOf",
			"outputs": [
				{
					"internalType": "address",
					"name": "",
					"type": "address"
				}
			],
			"stateMutability": "view",
			"type": "function"
		},
		{
			"inputs": [],
			"name": "paused",
			"outputs": [
				{
					"internalType": "bool",
					"name": "",
					"type": "bool"
				}
			],
			"stateMutability": "view",
			"type": "function"
		},
		{
			"inputs": [],
			"name": "renounceOwnership",
			"outputs": [],
			"stateMutability": "nonpayable",
			"type": "function"
		},
		{
			"inputs": [
				{
					"internalType": "uint16",
					"name": "_srcChainId",
					"type": "uint16"
				},
				{
					"internalType": "bytes",
					"name": "_srcAddress",
					"type": "bytes"
				},
				{
					"internalType": "uint64",
					"name": "_nonce",
					"type": "uint64"
				},
				{
					"internalType": "bytes",
					"name": "_payload",
					"type": "bytes"
				}
			],
			"name": "retryMessage",
			"outputs": [],
			"stateMutability": "payable",
			"type": "function"
		},
		{
			"inputs": [
				{
					"internalType": "address",
					"name": "from",
					"type": "address"
				},
				{
					"internalType": "address",
					"name": "to",
					"type": "address"
				},
				{
					"internalType": "uint256",
					"name": "tokenId",
					"type": "uint256"
				}
			],
			"name": "safeTransferFrom",
			"outputs": [],
			"stateMutability": "nonpayable",
			"type": "function"
		},
		{
			"inputs": [
				{
					"internalType": "address",
					"name": "from",
					"type": "address"
				},
				{
					"internalType": "address",
					"name": "to",
					"type": "address"
				},
				{
					"internalType": "uint256",
					"name": "tokenId",
					"type": "uint256"
				},
				{
					"internalType": "bytes",
					"name": "_data",
					"type": "bytes"
				}
			],
			"name": "safeTransferFrom",
			"outputs": [],
			"stateMutability": "nonpayable",
			"type": "function"
		},
		{
			"inputs": [
				{
					"internalType": "uint16",
					"name": "_dstChainId",
					"type": "uint16"
				},
				{
					"internalType": "bytes",
					"name": "_toAddress",
					"type": "bytes"
				},
				{
					"internalType": "uint256",
					"name": "_tokenId",
					"type": "uint256"
				},
				{
					"internalType": "address payable",
					"name": "_refundAddress",
					"type": "address"
				},
				{
					"internalType": "address",
					"name": "_zroPaymentAddress",
					"type": "address"
				},
				{
					"internalType": "bytes",
					"name": "_adapterParam",
					"type": "bytes"
				}
			],
			"name": "send",
			"outputs": [],
			"stateMutability": "payable",
			"type": "function"
		},
		{
			"inputs": [
				{
					"internalType": "address",
					"name": "_from",
					"type": "address"
				},
				{
					"internalType": "uint16",
					"name": "_dstChainId",
					"type": "uint16"
				},
				{
					"internalType": "bytes",
					"name": "_toAddress",
					"type": "bytes"
				},
				{
					"internalType": "uint256",
					"name": "_tokenId",
					"type": "uint256"
				},
				{
					"internalType": "address payable",
					"name": "_refundAddress",
					"type": "address"
				},
				{
					"internalType": "address",
					"name": "_zroPaymentAddress",
					"type": "address"
				},
				{
					"internalType": "bytes",
					"name": "_adapterParam",
					"type": "bytes"
				}
			],
			"name": "sendFrom",
			"outputs": [],
			"stateMutability": "payable",
			"type": "function"
		},
		{
			"inputs": [
				{
					"internalType": "address",
					"name": "operator",
					"type": "address"
				},
				{
					"internalType": "bool",
					"name": "approved",
					"type": "bool"
				}
			],
			"name": "setApprovalForAll",
			"outputs": [],
			"stateMutability": "nonpayable",
			"type": "function"
		},
		{
			"inputs": [
				{
					"internalType": "string",
					"name": "_baseTokenURI",
					"type": "string"
				}
			],
			"name": "setBaseURI",
			"outputs": [],
			"stateMutability": "nonpayable",
			"type": "function"
		},
		{
			"inputs": [
				{
					"internalType": "uint16",
					"name": "_version",
					"type": "uint16"
				},
				{
					"internalType": "uint16",
					"name": "_chainId",
					"type": "uint16"
				},
				{
					"internalType": "uint256",
					"name": "_configType",
					"type": "uint256"
				},
				{
					"internalType": "bytes",
					"name": "_config",
					"type": "bytes"
				}
			],
			"name": "setConfig",
			"outputs": [],
			"stateMutability": "nonpayable",
			"type": "function"
		},
		{
			"inputs": [
				{
					"internalType": "uint16",
					"name": "_version",
					"type": "uint16"
				}
			],
			"name": "setReceiveVersion",
			"outputs": [],
			"stateMutability": "nonpayable",
			"type": "function"
		},
		{
			"inputs": [
				{
					"internalType": "uint16",
					"name": "_version",
					"type": "uint16"
				}
			],
			"name": "setSendVersion",
			"outputs": [],
			"stateMutability": "nonpayable",
			"type": "function"
		},
		{
			"inputs": [
				{
					"internalType": "uint16",
					"name": "_srcChainId",
					"type": "uint16"
				},
				{
					"internalType": "bytes",
					"name": "_srcAddress",
					"type": "bytes"
				}
			],
			"name": "setTrustedRemote",
			"outputs": [],
			"stateMutability": "nonpayable",
			"type": "function"
		},
		{
			"inputs": [
				{
					"internalType": "bytes4",
					"name": "interfaceId",
					"type": "bytes4"
				}
			],
			"name": "supportsInterface",
			"outputs": [
				{
					"internalType": "bool",
					"name": "",
					"type": "bool"
				}
			],
			"stateMutability": "view",
			"type": "function"
		},
		{
			"inputs": [],
			"name": "symbol",
			"outputs": [
				{
					"internalType": "string",
					"name": "",
					"type": "string"
				}
			],
			"stateMutability": "view",
			"type": "function"
		},
		{
			"inputs": [
				{
					"internalType": "uint256",
					"name": "tokenId",
					"type": "uint256"
				}
			],
			"name": "tokenURI",
			"outputs": [
				{
					"internalType": "string",
					"name": "",
					"type": "string"
				}
			],
			"stateMutability": "view",
			"type": "function"
		},
		{
			"inputs": [
				{
					"internalType": "address",
					"name": "from",
					"type": "address"
				},
				{
					"internalType": "address",
					"name": "to",
					"type": "address"
				},
				{
					"internalType": "uint256",
					"name": "tokenId",
					"type": "uint256"
				}
			],
			"name": "transferFrom",
			"outputs": [],
			"stateMutability": "nonpayable",
			"type": "function"
		},
		{
			"inputs": [
				{
					"internalType": "address",
					"name": "newOwner",
					"type": "address"
				}
			],
			"name": "transferOwnership",
			"outputs": [],
			"stateMutability": "nonpayable",
			"type": "function"
		},
		{
			"inputs": [
				{
					"internalType": "address",
					"name": "_user",
					"type": "address"
				}
			],
			"name": "whitelistUser",
			"outputs": [],
			"stateMutability": "nonpayable",
			"type": "function"
		},
		{
			"inputs": [
				{
					"internalType": "address",
					"name": "",
					"type": "address"
				}
			],
			"name": "whitelisted",
			"outputs": [
				{
					"internalType": "bool",
					"name": "",
					"type": "bool"
				}
			],
			"stateMutability": "view",
			"type": "function"
		}
	]
}