{
	"data": {
		"bytecode": {
			"linkReferences": {},
			"object": "60a06040523480156200001157600080fd5b5060405162005b0638038062005b0683398181016040528101906200003791906200044c565b828282806200005b6200004f620000ce60201b60201c565b620000d660201b60201c565b8073ffffffffffffffffffffffffffffffffffffffff1660808173ffffffffffffffffffffffffffffffffffffffff168152505050508160039080519060200190620000a99291906200019a565b508060049080519060200190620000c29291906200019a565b5050505050506200054b565b600033905090565b60008060009054906101000a900473ffffffffffffffffffffffffffffffffffffffff169050816000806101000a81548173ffffffffffffffffffffffffffffffffffffffff021916908373ffffffffffffffffffffffffffffffffffffffff1602179055508173ffffffffffffffffffffffffffffffffffffffff168173ffffffffffffffffffffffffffffffffffffffff167f8be0079c531659141344cd1fd0a4f28419497f9722a3daafe3b4186f6b6457e060405160405180910390a35050565b828054620001a89062000515565b90600052602060002090601f016020900481019282620001cc576000855562000218565b82601f10620001e757805160ff191683800117855562000218565b8280016001018555821562000218579182015b8281111562000217578251825591602001919060010190620001fa565b5b5090506200022791906200022b565b5090565b5b80821115620002465760008160009055506001016200022c565b5090565b6000604051905090565b600080fd5b600080fd5b600080fd5b600080fd5b6000601f19601f8301169050919050565b7f4e487b7100000000000000000000000000000000000000000000000000000000600052604160045260246000fd5b620002b38262000268565b810181811067ffffffffffffffff82111715620002d557620002d462000279565b5b80604052505050565b6000620002ea6200024a565b9050620002f88282620002a8565b919050565b600067ffffffffffffffff8211156200031b576200031a62000279565b5b620003268262000268565b9050602081019050919050565b60005b838110156200035357808201518184015260208101905062000336565b8381111562000363576000848401525b50505050565b6000620003806200037a84620002fd565b620002de565b9050828152602081018484840111156200039f576200039e62000263565b5b620003ac84828562000333565b509392505050565b600082601f830112620003cc57620003cb6200025e565b5b8151620003de84826020860162000369565b91505092915050565b600073ffffffffffffffffffffffffffffffffffffffff82169050919050565b60006200041482620003e7565b9050919050565b620004268162000407565b81146200043257600080fd5b50565b60008151905062000446816200041b565b92915050565b60008060006060848603121562000468576200046762000254565b5b600084015167ffffffffffffffff81111562000489576200048862000259565b5b6200049786828701620003b4565b935050602084015167ffffffffffffffff811115620004bb57620004ba62000259565b5b620004c986828701620003b4565b9250506040620004dc8682870162000435565b9150509250925092565b7f4e487b7100000000000000000000000000000000000000000000000000000000600052602260045260246000fd5b600060028204905060018216806200052e57607f821691505b60208210811415620005455762000544620004e6565b5b50919050565b608051615560620005a6600039600081816107d601528181610ae201528181610d8901528181610fe70152818161173401528181611a2901528181611d2901528181611d65015281816125550152612c0901526155606000f3fe6080604052600436106101ed5760003560e01c806370a082311161010d578063cbed8b9c116100a0578063e985e9c51161006f578063e985e9c5146106ec578063eb8d72b714610729578063eed33cef14610752578063f2fde38b1461076e578063f5ecbdbc14610797576101ed565b8063cbed8b9c14610651578063d1deba1f1461067a578063d547cfb714610696578063dacbcbe2146106c1576101ed565b806395d89b41116100dc57806395d89b4114610597578063a22cb465146105c2578063b88d4fde146105eb578063c87b56dd14610614576101ed565b806370a08231146104db578063715018a6146105185780638da5cb5b1461052f5780638ee749121461055a576101ed565b80633d8b38f61161018557806355f804b31161015457806355f804b31461040f5780636352211e1461043857806366ad5c8a1461047557806369b41f951461049e576101ed565b80633d8b38f61461036457806342842e0e146103a157806342d65a8d146103ca57806351905636146103f3576101ed565b8063081812fc116101c1578063081812fc146102ac578063095ea7b3146102e957806310ddb1371461031257806323b872dd1461033b576101ed565b80621d3567146101f257806301ffc9a71461021b57806306fdde031461025857806307e0db1714610283575b600080fd5b3480156101fe57600080fd5b50610219600480360381019061021491906134ff565b6107d4565b005b34801561022757600080fd5b50610242600480360381019061023d91906135f6565b6108f0565b60405161024f919061363e565b60405180910390f35b34801561026457600080fd5b5061026d6109d2565b60405161027a91906136e1565b60405180910390f35b34801561028f57600080fd5b506102aa60048036038101906102a59190613703565b610a64565b005b3480156102b857600080fd5b506102d360048036038101906102ce9190613766565b610b6e565b6040516102e091906137d4565b60405180910390f35b3480156102f557600080fd5b50610310600480360381019061030b919061381b565b610bf3565b005b34801561031e57600080fd5b5061033960048036038101906103349190613703565b610d0b565b005b34801561034757600080fd5b50610362600480360381019061035d919061385b565b610e15565b005b34801561037057600080fd5b5061038b6004803603810190610386919061390e565b610e75565b604051610398919061363e565b60405180910390f35b3480156103ad57600080fd5b506103c860048036038101906103c3919061385b565b610f49565b005b3480156103d657600080fd5b506103f160048036038101906103ec919061390e565b610f69565b005b61040d600480360381019061040891906139ac565b611079565b005b34801561041b57600080fd5b5061043660048036038101906104319190613b2f565b6110d8565b005b34801561044457600080fd5b5061045f600480360381019061045a9190613766565b61116e565b60405161046c91906137d4565b60405180910390f35b34801561048157600080fd5b5061049c600480360381019061049791906134ff565b611220565b005b3480156104aa57600080fd5b506104c560048036038101906104c09190613703565b6112a7565b6040516104d29190613bcd565b60405180910390f35b3480156104e757600080fd5b5061050260048036038101906104fd9190613bef565b611354565b60405161050f9190613c2b565b60405180910390f35b34801561052457600080fd5b5061052d61140c565b005b34801561053b57600080fd5b50610544611494565b60405161055191906137d4565b60405180910390f35b34801561056657600080fd5b50610581600480360381019061057c9190613c46565b6114bd565b60405161058e9190613cce565b60405180910390f35b3480156105a357600080fd5b506105ac611505565b6040516105b991906136e1565b60405180910390f35b3480156105ce57600080fd5b506105e960048036038101906105e49190613d15565b611597565b005b3480156105f757600080fd5b50610612600480360381019061060d9190613d55565b6115ad565b005b34801561062057600080fd5b5061063b60048036038101906106369190613766565b61160f565b60405161064891906136e1565b60405180910390f35b34801561065d57600080fd5b5061067860048036038101906106739190613dd8565b6116b6565b005b610694600480360381019061068f9190613e60565b6117cc565b005b3480156106a257600080fd5b506106ab611997565b6040516106b891906136e1565b60405180910390f35b3480156106cd57600080fd5b506106d6611a25565b6040516106e391906137d4565b60405180910390f35b3480156106f857600080fd5b50610713600480360381019061070e9190613f04565b611a4d565b604051610720919061363e565b60405180910390f35b34801561073557600080fd5b50610750600480360381019061074b919061390e565b611ae1565b005b61076c60048036038101906107679190613f44565b611bc8565b005b34801561077a57600080fd5b5061079560048036038101906107909190613bef565b611c2d565b005b3480156107a357600080fd5b506107be60048036038101906107b99190614013565b611d25565b6040516107cb9190613bcd565b60405180910390f35b7f000000000000000000000000000000000000000000000000000000000000000073ffffffffffffffffffffffffffffffffffffffff16610813611e8d565b73ffffffffffffffffffffffffffffffffffffffff161461083357600080fd5b600160008561ffff1661ffff1681526020019081526020016000208054610859906140a9565b9050835114801561089f5750600160008561ffff1661ffff16815260200190815260200160002060405161088d919061417a565b60405180910390208380519060200120145b6108de576040517f08c379a00000000000000000000000000000000000000000000000000000000081526004016108d590614203565b60405180910390fd5b6108ea84848484611e95565b50505050565b60007f80ac58cd000000000000000000000000000000000000000000000000000000007bffffffffffffffffffffffffffffffffffffffffffffffffffffffff1916827bffffffffffffffffffffffffffffffffffffffffffffffffffffffff191614806109bb57507f5b5e139f000000000000000000000000000000000000000000000000000000007bffffffffffffffffffffffffffffffffffffffffffffffffffffffff1916827bffffffffffffffffffffffffffffffffffffffffffffffffffffffff1916145b806109cb57506109ca82611faa565b5b9050919050565b6060600380546109e1906140a9565b80601f0160208091040260200160405190810160405280929190818152602001828054610a0d906140a9565b8015610a5a5780601f10610a2f57610100808354040283529160200191610a5a565b820191906000526020600020905b815481529060010190602001808311610a3d57829003601f168201915b5050505050905090565b610a6c611e8d565b73ffffffffffffffffffffffffffffffffffffffff16610a8a611494565b73ffffffffffffffffffffffffffffffffffffffff1614610ae0576040517f08c379a0000000000000000000000000000000000000000000000000000000008152600401610ad79061426f565b60405180910390fd5b7f000000000000000000000000000000000000000000000000000000000000000073ffffffffffffffffffffffffffffffffffffffff166307e0db17826040518263ffffffff1660e01b8152600401610b39919061429e565b600060405180830381600087803b158015610b5357600080fd5b505af1158015610b67573d6000803e3d6000fd5b5050505050565b6000610b7982612014565b610bb8576040517f08c379a0000000000000000000000000000000000000000000000000000000008152600401610baf9061432b565b60405180910390fd5b6007600083815260200190815260200160002060009054906101000a900473ffffffffffffffffffffffffffffffffffffffff169050919050565b6000610bfe8261116e565b90508073ffffffffffffffffffffffffffffffffffffffff168373ffffffffffffffffffffffffffffffffffffffff161415610c6f576040517f08c379a0000000000000000000000000000000000000000000000000000000008152600401610c66906143bd565b60405180910390fd5b8073ffffffffffffffffffffffffffffffffffffffff16610c8e611e8d565b73ffffffffffffffffffffffffffffffffffffffff161480610cbd5750610cbc81610cb7611e8d565b611a4d565b5b610cfc576040517f08c379a0000000000000000000000000000000000000000000000000000000008152600401610cf39061444f565b60405180910390fd5b610d068383612080565b505050565b610d13611e8d565b73ffffffffffffffffffffffffffffffffffffffff16610d31611494565b73ffffffffffffffffffffffffffffffffffffffff1614610d87576040517f08c379a0000000000000000000000000000000000000000000000000000000008152600401610d7e9061426f565b60405180910390fd5b7f000000000000000000000000000000000000000000000000000000000000000073ffffffffffffffffffffffffffffffffffffffff166310ddb137826040518263ffffffff1660e01b8152600401610de0919061429e565b600060405180830381600087803b158015610dfa57600080fd5b505af1158015610e0e573d6000803e3d6000fd5b5050505050565b610e26610e20611e8d565b82612139565b610e65576040517f08c379a0000000000000000000000000000000000000000000000000000000008152600401610e5c906144e1565b60405180910390fd5b610e70838383612217565b505050565b600080600160008661ffff1661ffff1681526020019081526020016000208054610e9e906140a9565b80601f0160208091040260200160405190810160405280929190818152602001828054610eca906140a9565b8015610f175780601f10610eec57610100808354040283529160200191610f17565b820191906000526020600020905b815481529060010190602001808311610efa57829003601f168201915b505050505090508383604051610f2e929190614526565b60405180910390208180519060200120149150509392505050565b610f64838383604051806020016040528060008152506115ad565b505050565b610f71611e8d565b73ffffffffffffffffffffffffffffffffffffffff16610f8f611494565b73ffffffffffffffffffffffffffffffffffffffff1614610fe5576040517f08c379a0000000000000000000000000000000000000000000000000000000008152600401610fdc9061426f565b60405180910390fd5b7f000000000000000000000000000000000000000000000000000000000000000073ffffffffffffffffffffffffffffffffffffffff166342d65a8d8484846040518463ffffffff1660e01b81526004016110429392919061456c565b600060405180830381600087803b15801561105c57600080fd5b505af1158015611070573d6000803e3d6000fd5b50505050505050565b6110cd898989898080601f016020809104026020016040519081016040528093929190818152602001838380828437600081840152601f19601f82011690508083019250505050505050888888888861247e565b505050505050505050565b6110e0611e8d565b73ffffffffffffffffffffffffffffffffffffffff166110fe611494565b73ffffffffffffffffffffffffffffffffffffffff1614611154576040517f08c379a000000000000000000000000000000000000000000000000000000000815260040161114b9061426f565b60405180910390fd5b806009908051906020019061116a929190613202565b5050565b6000806005600084815260200190815260200160002060009054906101000a900473ffffffffffffffffffffffffffffffffffffffff169050600073ffffffffffffffffffffffffffffffffffffffff168173ffffffffffffffffffffffffffffffffffffffff161415611217576040517f08c379a000000000000000000000000000000000000000000000000000000000815260040161120e90614610565b60405180910390fd5b80915050919050565b3073ffffffffffffffffffffffffffffffffffffffff1661123f611e8d565b73ffffffffffffffffffffffffffffffffffffffff1614611295576040517f08c379a000000000000000000000000000000000000000000000000000000000815260040161128c906146a2565b60405180910390fd5b6112a184848484612683565b50505050565b6060600160008361ffff1661ffff16815260200190815260200160002080546112cf906140a9565b80601f01602080910402602001604051908101604052809291908181526020018280546112fb906140a9565b80156113485780601f1061131d57610100808354040283529160200191611348565b820191906000526020600020905b81548152906001019060200180831161132b57829003601f168201915b50505050509050919050565b60008073ffffffffffffffffffffffffffffffffffffffff168273ffffffffffffffffffffffffffffffffffffffff1614156113c5576040517f08c379a00000000000000000000000000000000000000000000000000000000081526004016113bc90614734565b60405180910390fd5b600660008373ffffffffffffffffffffffffffffffffffffffff1673ffffffffffffffffffffffffffffffffffffffff168152602001908152602001600020549050919050565b611414611e8d565b73ffffffffffffffffffffffffffffffffffffffff16611432611494565b73ffffffffffffffffffffffffffffffffffffffff1614611488576040517f08c379a000000000000000000000000000000000000000000000000000000000815260040161147f9061426f565b60405180910390fd5b6114926000612703565b565b60008060009054906101000a900473ffffffffffffffffffffffffffffffffffffffff16905090565b60026020528260005260406000208280516020810182018051848252602083016020850120818352809550505050505060205280600052604060002060009250925050505481565b606060048054611514906140a9565b80601f0160208091040260200160405190810160405280929190818152602001828054611540906140a9565b801561158d5780601f106115625761010080835404028352916020019161158d565b820191906000526020600020905b81548152906001019060200180831161157057829003601f168201915b5050505050905090565b6115a96115a2611e8d565b83836127c7565b5050565b6115be6115b8611e8d565b83612139565b6115fd576040517f08c379a00000000000000000000000000000000000000000000000000000000081526004016115f4906144e1565b60405180910390fd5b61160984848484612934565b50505050565b606061161a82612014565b611659576040517f08c379a0000000000000000000000000000000000000000000000000000000008152600401611650906147c6565b60405180910390fd5b6000611663612990565b9050600081511161168357604051806020016040528060008152506116ae565b8061168d84612a22565b60405160200161169e929190614822565b6040516020818303038152906040525b915050919050565b6116be611e8d565b73ffffffffffffffffffffffffffffffffffffffff166116dc611494565b73ffffffffffffffffffffffffffffffffffffffff1614611732576040517f08c379a00000000000000000000000000000000000000000000000000000000081526004016117299061426f565b60405180910390fd5b7f000000000000000000000000000000000000000000000000000000000000000073ffffffffffffffffffffffffffffffffffffffff1663cbed8b9c86868686866040518663ffffffff1660e01b8152600401611793959493929190614846565b600060405180830381600087803b1580156117ad57600080fd5b505af11580156117c1573d6000803e3d6000fd5b505050505050505050565b6000600260008761ffff1661ffff168152602001908152602001600020856040516117f791906148c5565b908152602001604051809103902060008567ffffffffffffffff1681526020019081526020016000205490506000801b811415611869576040517f08c379a000000000000000000000000000000000000000000000000000000000815260040161186090614928565b60405180910390fd5b80838360405161187a929190614526565b6040518091039020146118c2576040517f08c379a00000000000000000000000000000000000000000000000000000000081526004016118b990614994565b60405180910390fd5b6000801b600260008861ffff1661ffff168152602001908152602001600020866040516118ef91906148c5565b908152602001604051809103902060008667ffffffffffffffff168152602001908152602001600020819055503073ffffffffffffffffffffffffffffffffffffffff166366ad5c8a87878787876040518663ffffffff1660e01b815260040161195d9594939291906149c3565b600060405180830381600087803b15801561197757600080fd5b505af115801561198b573d6000803e3d6000fd5b50505050505050505050565b600980546119a4906140a9565b80601f01602080910402602001604051908101604052809291908181526020018280546119d0906140a9565b8015611a1d5780601f106119f257610100808354040283529160200191611a1d565b820191906000526020600020905b815481529060010190602001808311611a0057829003601f168201915b505050505081565b60007f0000000000000000000000000000000000000000000000000000000000000000905090565b6000600860008473ffffffffffffffffffffffffffffffffffffffff1673ffffffffffffffffffffffffffffffffffffffff16815260200190815260200160002060008373ffffffffffffffffffffffffffffffffffffffff1673ffffffffffffffffffffffffffffffffffffffff16815260200190815260200160002060009054906101000a900460ff16905092915050565b611ae9611e8d565b73ffffffffffffffffffffffffffffffffffffffff16611b07611494565b73ffffffffffffffffffffffffffffffffffffffff1614611b5d576040517f08c379a0000000000000000000000000000000000000000000000000000000008152600401611b549061426f565b60405180910390fd5b8181600160008661ffff1661ffff1681526020019081526020016000209190611b87929190613288565b507ffa41487ad5d6728f0b19276fa1eddc16558578f5109fc39d2dc33c3230470dab838383604051611bbb9392919061456c565b60405180910390a1505050565b611c23611bd3611e8d565b8989898080601f016020809104026020016040519081016040528093929190818152602001838380828437600081840152601f19601f82011690508083019250505050505050888888888861247e565b5050505050505050565b611c35611e8d565b73ffffffffffffffffffffffffffffffffffffffff16611c53611494565b73ffffffffffffffffffffffffffffffffffffffff1614611ca9576040517f08c379a0000000000000000000000000000000000000000000000000000000008152600401611ca09061426f565b60405180910390fd5b600073ffffffffffffffffffffffffffffffffffffffff168173ffffffffffffffffffffffffffffffffffffffff161415611d19576040517f08c379a0000000000000000000000000000000000000000000000000000000008152600401611d1090614a8a565b60405180910390fd5b611d2281612703565b50565b60607f000000000000000000000000000000000000000000000000000000000000000073ffffffffffffffffffffffffffffffffffffffff1663f5ecbdbc7f000000000000000000000000000000000000000000000000000000000000000073ffffffffffffffffffffffffffffffffffffffff1663096568f6306040518263ffffffff1660e01b8152600401611dbc91906137d4565b60206040518083038186803b158015611dd457600080fd5b505afa158015611de8573d6000803e3d6000fd5b505050506040513d601f19601f82011682018060405250810190611e0c9190614abf565b8630866040518563ffffffff1660e01b8152600401611e2e9493929190614aec565b60006040518083038186803b158015611e4657600080fd5b505afa158015611e5a573d6000803e3d6000fd5b505050506040513d6000823e3d601f19601f82011682018060405250810190611e839190614ba1565b9050949350505050565b600033905090565b3073ffffffffffffffffffffffffffffffffffffffff166366ad5c8a858585856040518563ffffffff1660e01b8152600401611ed49493929190614bea565b600060405180830381600087803b158015611eee57600080fd5b505af1925050508015611eff575060015b611fa3578080519060200120600260008661ffff1661ffff16815260200190815260200160002084604051611f3491906148c5565b908152602001604051809103902060008467ffffffffffffffff168152602001908152602001600020819055507fe6f254030bcb01ffd20558175c13fcaed6d1520be7becee4c961b65f79243b0d84848484604051611f969493929190614bea565b60405180910390a1611fa4565b5b50505050565b60007f01ffc9a7000000000000000000000000000000000000000000000000000000007bffffffffffffffffffffffffffffffffffffffffffffffffffffffff1916827bffffffffffffffffffffffffffffffffffffffffffffffffffffffff1916149050919050565b60008073ffffffffffffffffffffffffffffffffffffffff166005600084815260200190815260200160002060009054906101000a900473ffffffffffffffffffffffffffffffffffffffff1673ffffffffffffffffffffffffffffffffffffffff1614159050919050565b816007600083815260200190815260200160002060006101000a81548173ffffffffffffffffffffffffffffffffffffffff021916908373ffffffffffffffffffffffffffffffffffffffff160217905550808273ffffffffffffffffffffffffffffffffffffffff166120f38361116e565b73ffffffffffffffffffffffffffffffffffffffff167f8c5be1e5ebec7d5bd14f71427d1e84f3dd0314c0f7b2291e5b200ac8c7c3b92560405160405180910390a45050565b600061214482612014565b612183576040517f08c379a000000000000000000000000000000000000000000000000000000000815260040161217a90614caf565b60405180910390fd5b600061218e8361116e565b90508073ffffffffffffffffffffffffffffffffffffffff168473ffffffffffffffffffffffffffffffffffffffff1614806121fd57508373ffffffffffffffffffffffffffffffffffffffff166121e584610b6e565b73ffffffffffffffffffffffffffffffffffffffff16145b8061220e575061220d8185611a4d565b5b91505092915050565b8273ffffffffffffffffffffffffffffffffffffffff166122378261116e565b73ffffffffffffffffffffffffffffffffffffffff161461228d576040517f08c379a000000000000000000000000000000000000000000000000000000000815260040161228490614d41565b60405180910390fd5b600073ffffffffffffffffffffffffffffffffffffffff168273ffffffffffffffffffffffffffffffffffffffff1614156122fd576040517f08c379a00000000000000000000000000000000000000000000000000000000081526004016122f490614dd3565b60405180910390fd5b612308838383612b83565b612313600082612080565b6001600660008573ffffffffffffffffffffffffffffffffffffffff1673ffffffffffffffffffffffffffffffffffffffff16815260200190815260200160002060008282546123639190614e22565b925050819055506001600660008473ffffffffffffffffffffffffffffffffffffffff1673ffffffffffffffffffffffffffffffffffffffff16815260200190815260200160002060008282546123ba9190614e56565b92505081905550816005600083815260200190815260200160002060006101000a81548173ffffffffffffffffffffffffffffffffffffffff021916908373ffffffffffffffffffffffffffffffffffffffff160217905550808273ffffffffffffffffffffffffffffffffffffffff168473ffffffffffffffffffffffffffffffffffffffff167fddf252ad1be2c89b69c2b068fc378daa952ba7f163c4a11628f55a4df523b3ef60405160405180910390a4612479838383612b88565b505050565b61248f612489611e8d565b86612139565b6124ce576040517f08c379a00000000000000000000000000000000000000000000000000000000081526004016124c5906144e1565b60405180910390fd5b6124da88888888612b8d565b600086866040516020016124ef929190614eac565b60405160208183030381529060405290506125518882878787878080601f016020809104026020016040519081016040528093929190818152602001838380828437600081840152601f19601f82011690508083019250505050505050612b9c565b60007f000000000000000000000000000000000000000000000000000000000000000073ffffffffffffffffffffffffffffffffffffffff16637a1457488a306040518363ffffffff1660e01b81526004016125ae929190614edc565b60206040518083038186803b1580156125c657600080fd5b505afa1580156125da573d6000803e3d6000fd5b505050506040513d601f19601f820116820180604052508101906125fe9190614f1a565b90508760405161260e91906148c5565b60405180910390208961ffff168b73ffffffffffffffffffffffffffffffffffffffff167f024797cc77ce15dc717112d54fb1df125fdfd8c81344fb046c5e074427ce15438a85604051612663929190614f47565b60405180910390a46126778a8a8a8a612cbe565b50505050505050505050565b61268e848483612cc4565b600080828060200190518101906126a59190614f85565b915091506000601483015190506126bd878284612cc9565b7fd4d39d20f72eabd06c301e516d54653dfc9116de62c1d54bf1cb48cf3b42a7db878284886040516126f29493929190614fe1565b60405180910390a150505050505050565b60008060009054906101000a900473ffffffffffffffffffffffffffffffffffffffff169050816000806101000a81548173ffffffffffffffffffffffffffffffffffffffff021916908373ffffffffffffffffffffffffffffffffffffffff1602179055508173ffffffffffffffffffffffffffffffffffffffff168173ffffffffffffffffffffffffffffffffffffffff167f8be0079c531659141344cd1fd0a4f28419497f9722a3daafe3b4186f6b6457e060405160405180910390a35050565b8173ffffffffffffffffffffffffffffffffffffffff168373ffffffffffffffffffffffffffffffffffffffff161415612836576040517f08c379a000000000000000000000000000000000000000000000000000000000815260040161282d90615072565b60405180910390fd5b80600860008573ffffffffffffffffffffffffffffffffffffffff1673ffffffffffffffffffffffffffffffffffffffff16815260200190815260200160002060008473ffffffffffffffffffffffffffffffffffffffff1673ffffffffffffffffffffffffffffffffffffffff16815260200190815260200160002060006101000a81548160ff0219169083151502179055508173ffffffffffffffffffffffffffffffffffffffff168373ffffffffffffffffffffffffffffffffffffffff167f17307eab39ab6107e8899845ad3d59bd9653f200f220920489ca2b5937696c3183604051612927919061363e565b60405180910390a3505050565b61293f848484612217565b61294b84848484612cd8565b61298a576040517f08c379a000000000000000000000000000000000000000000000000000000000815260040161298190615104565b60405180910390fd5b50505050565b60606009805461299f906140a9565b80601f01602080910402602001604051908101604052809291908181526020018280546129cb906140a9565b8015612a185780601f106129ed57610100808354040283529160200191612a18565b820191906000526020600020905b8154815290600101906020018083116129fb57829003601f168201915b5050505050905090565b60606000821415612a6a576040518060400160405280600181526020017f30000000000000000000000000000000000000000000000000000000000000008152509050612b7e565b600082905060005b60008214612a9c578080612a8590615124565b915050600a82612a95919061519c565b9150612a72565b60008167ffffffffffffffff811115612ab857612ab7613394565b5b6040519080825280601f01601f191660200182016040528015612aea5781602001600182028036833780820191505090505b5090505b60008514612b7757600182612b039190614e22565b9150600a85612b1291906151cd565b6030612b1e9190614e56565b60f81b818381518110612b3457612b336151fe565b5b60200101907effffffffffffffffffffffffffffffffffffffffffffffffffffffffffffff1916908160001a905350600a85612b70919061519c565b9450612aee565b8093505050505b919050565b505050565b505050565b612b9681612e6f565b50505050565b6000600160008761ffff1661ffff1681526020019081526020016000208054612bc4906140a9565b90501415612c07576040517f08c379a0000000000000000000000000000000000000000000000000000000008152600401612bfe9061529f565b60405180910390fd5b7f000000000000000000000000000000000000000000000000000000000000000073ffffffffffffffffffffffffffffffffffffffff1663c58031003487600160008a61ffff1661ffff168152602001908152602001600020888888886040518863ffffffff1660e01b8152600401612c859695949392919061534e565b6000604051808303818588803b158015612c9e57600080fd5b505af1158015612cb2573d6000803e3d6000fd5b50505050505050505050565b50505050565b505050565b612cd38282612f8c565b505050565b6000612cf98473ffffffffffffffffffffffffffffffffffffffff16612faa565b15612e62578373ffffffffffffffffffffffffffffffffffffffff1663150b7a02612d22611e8d565b8786866040518563ffffffff1660e01b8152600401612d4494939291906153c4565b602060405180830381600087803b158015612d5e57600080fd5b505af1925050508015612d8f57506040513d601f19601f82011682018060405250810190612d8c9190615425565b60015b612e12573d8060008114612dbf576040519150601f19603f3d011682016040523d82523d6000602084013e612dc4565b606091505b50600081511415612e0a576040517f08c379a0000000000000000000000000000000000000000000000000000000008152600401612e0190615104565b60405180910390fd5b805181602001fd5b63150b7a0260e01b7bffffffffffffffffffffffffffffffffffffffffffffffffffffffff1916817bffffffffffffffffffffffffffffffffffffffffffffffffffffffff191614915050612e67565b600190505b949350505050565b6000612e7a8261116e565b9050612e8881600084612b83565b612e93600083612080565b6001600660008373ffffffffffffffffffffffffffffffffffffffff1673ffffffffffffffffffffffffffffffffffffffff1681526020019081526020016000206000828254612ee39190614e22565b925050819055506005600083815260200190815260200160002060006101000a81549073ffffffffffffffffffffffffffffffffffffffff021916905581600073ffffffffffffffffffffffffffffffffffffffff168273ffffffffffffffffffffffffffffffffffffffff167fddf252ad1be2c89b69c2b068fc378daa952ba7f163c4a11628f55a4df523b3ef60405160405180910390a4612f8881600084612b88565b5050565b612fa6828260405180602001604052806000815250612fcd565b5050565b6000808273ffffffffffffffffffffffffffffffffffffffff163b119050919050565b612fd78383613028565b612fe46000848484612cd8565b613023576040517f08c379a000000000000000000000000000000000000000000000000000000000815260040161301a90615104565b60405180910390fd5b505050565b600073ffffffffffffffffffffffffffffffffffffffff168273ffffffffffffffffffffffffffffffffffffffff161415613098576040517f08c379a000000000000000000000000000000000000000000000000000000000815260040161308f9061549e565b60405180910390fd5b6130a181612014565b156130e1576040517f08c379a00000000000000000000000000000000000000000000000000000000081526004016130d89061550a565b60405180910390fd5b6130ed60008383612b83565b6001600660008473ffffffffffffffffffffffffffffffffffffffff1673ffffffffffffffffffffffffffffffffffffffff168152602001908152602001600020600082825461313d9190614e56565b92505081905550816005600083815260200190815260200160002060006101000a81548173ffffffffffffffffffffffffffffffffffffffff021916908373ffffffffffffffffffffffffffffffffffffffff160217905550808273ffffffffffffffffffffffffffffffffffffffff16600073ffffffffffffffffffffffffffffffffffffffff167fddf252ad1be2c89b69c2b068fc378daa952ba7f163c4a11628f55a4df523b3ef60405160405180910390a46131fe60008383612b88565b5050565b82805461320e906140a9565b90600052602060002090601f0160209004810192826132305760008555613277565b82601f1061324957805160ff1916838001178555613277565b82800160010185558215613277579182015b8281111561327657825182559160200191906001019061325b565b5b509050613284919061330e565b5090565b828054613294906140a9565b90600052602060002090601f0160209004810192826132b657600085556132fd565b82601f106132cf57803560ff19168380011785556132fd565b828001600101855582156132fd579182015b828111156132fc5782358255916020019190600101906132e1565b5b50905061330a919061330e565b5090565b5b8082111561332757600081600090555060010161330f565b5090565b6000604051905090565b600080fd5b600080fd5b600061ffff82169050919050565b6133568161333f565b811461336157600080fd5b50565b6000813590506133738161334d565b92915050565b600080fd5b600080fd5b6000601f19601f8301169050919050565b7f4e487b7100000000000000000000000000000000000000000000000000000000600052604160045260246000fd5b6133cc82613383565b810181811067ffffffffffffffff821117156133eb576133ea613394565b5b80604052505050565b60006133fe61332b565b905061340a82826133c3565b919050565b600067ffffffffffffffff82111561342a57613429613394565b5b61343382613383565b9050602081019050919050565b82818337600083830152505050565b600061346261345d8461340f565b6133f4565b90508281526020810184848401111561347e5761347d61337e565b5b613489848285613440565b509392505050565b600082601f8301126134a6576134a5613379565b5b81356134b684826020860161344f565b91505092915050565b600067ffffffffffffffff82169050919050565b6134dc816134bf565b81146134e757600080fd5b50565b6000813590506134f9816134d3565b92915050565b6000806000806080858703121561351957613518613335565b5b600061352787828801613364565b945050602085013567ffffffffffffffff8111156135485761354761333a565b5b61355487828801613491565b9350506040613565878288016134ea565b925050606085013567ffffffffffffffff8111156135865761358561333a565b5b61359287828801613491565b91505092959194509250565b60007fffffffff0000000000000000000000000000000000000000000000000000000082169050919050565b6135d38161359e565b81146135de57600080fd5b50565b6000813590506135f0816135ca565b92915050565b60006020828403121561360c5761360b613335565b5b600061361a848285016135e1565b91505092915050565b60008115159050919050565b61363881613623565b82525050565b6000602082019050613653600083018461362f565b92915050565b600081519050919050565b600082825260208201905092915050565b60005b83811015613693578082015181840152602081019050613678565b838111156136a2576000848401525b50505050565b60006136b382613659565b6136bd8185613664565b93506136cd818560208601613675565b6136d681613383565b840191505092915050565b600060208201905081810360008301526136fb81846136a8565b905092915050565b60006020828403121561371957613718613335565b5b600061372784828501613364565b91505092915050565b6000819050919050565b61374381613730565b811461374e57600080fd5b50565b6000813590506137608161373a565b92915050565b60006020828403121561377c5761377b613335565b5b600061378a84828501613751565b91505092915050565b600073ffffffffffffffffffffffffffffffffffffffff82169050919050565b60006137be82613793565b9050919050565b6137ce816137b3565b82525050565b60006020820190506137e960008301846137c5565b92915050565b6137f8816137b3565b811461380357600080fd5b50565b600081359050613815816137ef565b92915050565b6000806040838503121561383257613831613335565b5b600061384085828601613806565b925050602061385185828601613751565b9150509250929050565b60008060006060848603121561387457613873613335565b5b600061388286828701613806565b935050602061389386828701613806565b92505060406138a486828701613751565b9150509250925092565b600080fd5b600080fd5b60008083601f8401126138ce576138cd613379565b5b8235905067ffffffffffffffff8111156138eb576138ea6138ae565b5b602083019150836001820283011115613907576139066138b3565b5b9250929050565b60008060006040848603121561392757613926613335565b5b600061393586828701613364565b935050602084013567ffffffffffffffff8111156139565761395561333a565b5b613962868287016138b8565b92509250509250925092565b600061397982613793565b9050919050565b6139898161396e565b811461399457600080fd5b50565b6000813590506139a681613980565b92915050565b600080600080600080600080600060e08a8c0312156139ce576139cd613335565b5b60006139dc8c828d01613806565b99505060206139ed8c828d01613364565b98505060408a013567ffffffffffffffff811115613a0e57613a0d61333a565b5b613a1a8c828d016138b8565b97509750506060613a2d8c828d01613751565b9550506080613a3e8c828d01613997565b94505060a0613a4f8c828d01613806565b93505060c08a013567ffffffffffffffff811115613a7057613a6f61333a565b5b613a7c8c828d016138b8565b92509250509295985092959850929598565b600067ffffffffffffffff821115613aa957613aa8613394565b5b613ab282613383565b9050602081019050919050565b6000613ad2613acd84613a8e565b6133f4565b905082815260208101848484011115613aee57613aed61337e565b5b613af9848285613440565b509392505050565b600082601f830112613b1657613b15613379565b5b8135613b26848260208601613abf565b91505092915050565b600060208284031215613b4557613b44613335565b5b600082013567ffffffffffffffff811115613b6357613b6261333a565b5b613b6f84828501613b01565b91505092915050565b600081519050919050565b600082825260208201905092915050565b6000613b9f82613b78565b613ba98185613b83565b9350613bb9818560208601613675565b613bc281613383565b840191505092915050565b60006020820190508181036000830152613be78184613b94565b905092915050565b600060208284031215613c0557613c04613335565b5b6000613c1384828501613806565b91505092915050565b613c2581613730565b82525050565b6000602082019050613c406000830184613c1c565b92915050565b600080600060608486031215613c5f57613c5e613335565b5b6000613c6d86828701613364565b935050602084013567ffffffffffffffff811115613c8e57613c8d61333a565b5b613c9a86828701613491565b9250506040613cab86828701613751565b9150509250925092565b6000819050919050565b613cc881613cb5565b82525050565b6000602082019050613ce36000830184613cbf565b92915050565b613cf281613623565b8114613cfd57600080fd5b50565b600081359050613d0f81613ce9565b92915050565b60008060408385031215613d2c57613d2b613335565b5b6000613d3a85828601613806565b9250506020613d4b85828601613d00565b9150509250929050565b60008060008060808587031215613d6f57613d6e613335565b5b6000613d7d87828801613806565b9450506020613d8e87828801613806565b9350506040613d9f87828801613751565b925050606085013567ffffffffffffffff811115613dc057613dbf61333a565b5b613dcc87828801613491565b91505092959194509250565b600080600080600060808688031215613df457613df3613335565b5b6000613e0288828901613364565b9550506020613e1388828901613364565b9450506040613e2488828901613751565b935050606086013567ffffffffffffffff811115613e4557613e4461333a565b5b613e51888289016138b8565b92509250509295509295909350565b600080600080600060808688031215613e7c57613e7b613335565b5b6000613e8a88828901613364565b955050602086013567ffffffffffffffff811115613eab57613eaa61333a565b5b613eb788828901613491565b9450506040613ec8888289016134ea565b935050606086013567ffffffffffffffff811115613ee957613ee861333a565b5b613ef5888289016138b8565b92509250509295509295909350565b60008060408385031215613f1b57613f1a613335565b5b6000613f2985828601613806565b9250506020613f3a85828601613806565b9150509250929050565b60008060008060008060008060c0898b031215613f6457613f63613335565b5b6000613f728b828c01613364565b985050602089013567ffffffffffffffff811115613f9357613f9261333a565b5b613f9f8b828c016138b8565b97509750506040613fb28b828c01613751565b9550506060613fc38b828c01613997565b9450506080613fd48b828c01613806565b93505060a089013567ffffffffffffffff811115613ff557613ff461333a565b5b6140018b828c016138b8565b92509250509295985092959890939650565b6000806000806080858703121561402d5761402c613335565b5b600061403b87828801613364565b945050602061404c87828801613364565b935050604061405d87828801613806565b925050606061406e87828801613751565b91505092959194509250565b7f4e487b7100000000000000000000000000000000000000000000000000000000600052602260045260246000fd5b600060028204905060018216806140c157607f821691505b602082108114156140d5576140d461407a565b5b50919050565b600081905092915050565b60008190508160005260206000209050919050565b60008154614108816140a9565b61411281866140db565b9450600182166000811461412d576001811461413e57614171565b60ff19831686528186019350614171565b614147856140e6565b60005b838110156141695781548189015260018201915060208101905061414a565b838801955050505b50505092915050565b600061418682846140fb565b915081905092915050565b7f4c7a52656365697665723a20696e76616c696420736f757263652073656e646960008201527f6e6720636f6e7472616374000000000000000000000000000000000000000000602082015250565b60006141ed602b83613664565b91506141f882614191565b604082019050919050565b6000602082019050818103600083015261421c816141e0565b9050919050565b7f4f776e61626c653a2063616c6c6572206973206e6f7420746865206f776e6572600082015250565b6000614259602083613664565b915061426482614223565b602082019050919050565b600060208201905081810360008301526142888161424c565b9050919050565b6142988161333f565b82525050565b60006020820190506142b3600083018461428f565b92915050565b7f4552433732313a20617070726f76656420717565727920666f72206e6f6e657860008201527f697374656e7420746f6b656e0000000000000000000000000000000000000000602082015250565b6000614315602c83613664565b9150614320826142b9565b604082019050919050565b6000602082019050818103600083015261434481614308565b9050919050565b7f4552433732313a20617070726f76616c20746f2063757272656e74206f776e6560008201527f7200000000000000000000000000000000000000000000000000000000000000602082015250565b60006143a7602183613664565b91506143b28261434b565b604082019050919050565b600060208201905081810360008301526143d68161439a565b9050919050565b7f4552433732313a20617070726f76652063616c6c6572206973206e6f74206f7760008201527f6e6572206e6f7220617070726f76656420666f7220616c6c0000000000000000602082015250565b6000614439603883613664565b9150614444826143dd565b604082019050919050565b600060208201905081810360008301526144688161442c565b9050919050565b7f4552433732313a207472616e736665722063616c6c6572206973206e6f74206f60008201527f776e6572206e6f7220617070726f766564000000000000000000000000000000602082015250565b60006144cb603183613664565b91506144d68261446f565b604082019050919050565b600060208201905081810360008301526144fa816144be565b9050919050565b600061450d83856140db565b935061451a838584613440565b82840190509392505050565b6000614533828486614501565b91508190509392505050565b600061454b8385613b83565b9350614558838584613440565b61456183613383565b840190509392505050565b6000604082019050614581600083018661428f565b818103602083015261459481848661453f565b9050949350505050565b7f4552433732313a206f776e657220717565727920666f72206e6f6e657869737460008201527f656e7420746f6b656e0000000000000000000000000000000000000000000000602082015250565b60006145fa602983613664565b91506146058261459e565b604082019050919050565b60006020820190508181036000830152614629816145ed565b9050919050565b7f4c7a52656365697665723a2063616c6c6572206d75737420626520427269646760008201527f652e000000000000000000000000000000000000000000000000000000000000602082015250565b600061468c602283613664565b915061469782614630565b604082019050919050565b600060208201905081810360008301526146bb8161467f565b9050919050565b7f4552433732313a2062616c616e636520717565727920666f7220746865207a6560008201527f726f206164647265737300000000000000000000000000000000000000000000602082015250565b600061471e602a83613664565b9150614729826146c2565b604082019050919050565b6000602082019050818103600083015261474d81614711565b9050919050565b7f4552433732314d657461646174613a2055524920717565727920666f72206e6f60008201527f6e6578697374656e7420746f6b656e0000000000000000000000000000000000602082015250565b60006147b0602f83613664565b91506147bb82614754565b604082019050919050565b600060208201905081810360008301526147df816147a3565b9050919050565b600081905092915050565b60006147fc82613659565b61480681856147e6565b9350614816818560208601613675565b80840191505092915050565b600061482e82856147f1565b915061483a82846147f1565b91508190509392505050565b600060808201905061485b600083018861428f565b614868602083018761428f565b6148756040830186613c1c565b818103606083015261488881848661453f565b90509695505050505050565b600061489f82613b78565b6148a981856140db565b93506148b9818560208601613675565b80840191505092915050565b60006148d18284614894565b915081905092915050565b7f4c7a52656365697665723a206e6f2073746f726564206d657373616765000000600082015250565b6000614912601d83613664565b915061491d826148dc565b602082019050919050565b6000602082019050818103600083015261494181614905565b9050919050565b7f4c7a52656365697665723a20696e76616c6964207061796c6f61640000000000600082015250565b600061497e601b83613664565b915061498982614948565b602082019050919050565b600060208201905081810360008301526149ad81614971565b9050919050565b6149bd816134bf565b82525050565b60006080820190506149d8600083018861428f565b81810360208301526149ea8187613b94565b90506149f960408301866149b4565b8181036060830152614a0c81848661453f565b90509695505050505050565b7f4f776e61626c653a206e6577206f776e657220697320746865207a65726f206160008201527f6464726573730000000000000000000000000000000000000000000000000000602082015250565b6000614a74602683613664565b9150614a7f82614a18565b604082019050919050565b60006020820190508181036000830152614aa381614a67565b9050919050565b600081519050614ab98161334d565b92915050565b600060208284031215614ad557614ad4613335565b5b6000614ae384828501614aaa565b91505092915050565b6000608082019050614b01600083018761428f565b614b0e602083018661428f565b614b1b60408301856137c5565b614b286060830184613c1c565b95945050505050565b6000614b44614b3f8461340f565b6133f4565b905082815260208101848484011115614b6057614b5f61337e565b5b614b6b848285613675565b509392505050565b600082601f830112614b8857614b87613379565b5b8151614b98848260208601614b31565b91505092915050565b600060208284031215614bb757614bb6613335565b5b600082015167ffffffffffffffff811115614bd557614bd461333a565b5b614be184828501614b73565b91505092915050565b6000608082019050614bff600083018761428f565b8181036020830152614c118186613b94565b9050614c2060408301856149b4565b8181036060830152614c328184613b94565b905095945050505050565b7f4552433732313a206f70657261746f7220717565727920666f72206e6f6e657860008201527f697374656e7420746f6b656e0000000000000000000000000000000000000000602082015250565b6000614c99602c83613664565b9150614ca482614c3d565b604082019050919050565b60006020820190508181036000830152614cc881614c8c565b9050919050565b7f4552433732313a207472616e736665722066726f6d20696e636f72726563742060008201527f6f776e6572000000000000000000000000000000000000000000000000000000602082015250565b6000614d2b602583613664565b9150614d3682614ccf565b604082019050919050565b60006020820190508181036000830152614d5a81614d1e565b9050919050565b7f4552433732313a207472616e7366657220746f20746865207a65726f2061646460008201527f7265737300000000000000000000000000000000000000000000000000000000602082015250565b6000614dbd602483613664565b9150614dc882614d61565b604082019050919050565b60006020820190508181036000830152614dec81614db0565b9050919050565b7f4e487b7100000000000000000000000000000000000000000000000000000000600052601160045260246000fd5b6000614e2d82613730565b9150614e3883613730565b925082821015614e4b57614e4a614df3565b5b828203905092915050565b6000614e6182613730565b9150614e6c83613730565b9250827fffffffffffffffffffffffffffffffffffffffffffffffffffffffffffffffff03821115614ea157614ea0614df3565b5b828201905092915050565b60006040820190508181036000830152614ec68185613b94565b9050614ed56020830184613c1c565b9392505050565b6000604082019050614ef1600083018561428f565b614efe60208301846137c5565b9392505050565b600081519050614f14816134d3565b92915050565b600060208284031215614f3057614f2f613335565b5b6000614f3e84828501614f05565b91505092915050565b6000604082019050614f5c6000830185613c1c565b614f6960208301846149b4565b9392505050565b600081519050614f7f8161373a565b92915050565b60008060408385031215614f9c57614f9b613335565b5b600083015167ffffffffffffffff811115614fba57614fb961333a565b5b614fc685828601614b73565b9250506020614fd785828601614f70565b9150509250929050565b6000608082019050614ff6600083018761428f565b61500360208301866137c5565b6150106040830185613c1c565b61501d60608301846149b4565b95945050505050565b7f4552433732313a20617070726f766520746f2063616c6c657200000000000000600082015250565b600061505c601983613664565b915061506782615026565b602082019050919050565b6000602082019050818103600083015261508b8161504f565b9050919050565b7f4552433732313a207472616e7366657220746f206e6f6e20455243373231526560008201527f63656976657220696d706c656d656e7465720000000000000000000000000000602082015250565b60006150ee603283613664565b91506150f982615092565b604082019050919050565b6000602082019050818103600083015261511d816150e1565b9050919050565b600061512f82613730565b91507fffffffffffffffffffffffffffffffffffffffffffffffffffffffffffffffff82141561516257615161614df3565b5b600182019050919050565b7f4e487b7100000000000000000000000000000000000000000000000000000000600052601260045260246000fd5b60006151a782613730565b91506151b283613730565b9250826151c2576151c161516d565b5b828204905092915050565b60006151d882613730565b91506151e383613730565b9250826151f3576151f261516d565b5b828206905092915050565b7f4e487b7100000000000000000000000000000000000000000000000000000000600052603260045260246000fd5b7f4c7a53656e643a2064657374696e6174696f6e20636861696e206973206e6f7460008201527f2061207472757374656420736f757263652e0000000000000000000000000000602082015250565b6000615289603283613664565b91506152948261522d565b604082019050919050565b600060208201905081810360008301526152b88161527c565b9050919050565b600081546152cc816140a9565b6152d68186613b83565b945060018216600081146152f1576001811461530357615336565b60ff1983168652602086019350615336565b61530c856140e6565b60005b8381101561532e5781548189015260018201915060208101905061530f565b808801955050505b50505092915050565b6153488161396e565b82525050565b600060c082019050615363600083018961428f565b818103602083015261537581886152bf565b905081810360408301526153898187613b94565b9050615398606083018661533f565b6153a560808301856137c5565b81810360a08301526153b78184613b94565b9050979650505050505050565b60006080820190506153d960008301876137c5565b6153e660208301866137c5565b6153f36040830185613c1c565b81810360608301526154058184613b94565b905095945050505050565b60008151905061541f816135ca565b92915050565b60006020828403121561543b5761543a613335565b5b600061544984828501615410565b91505092915050565b7f4552433732313a206d696e7420746f20746865207a65726f2061646472657373600082015250565b6000615488602083613664565b915061549382615452565b602082019050919050565b600060208201905081810360008301526154b78161547b565b9050919050565b7f4552433732313a20746f6b656e20616c7265616479206d696e74656400000000600082015250565b60006154f4601c83613664565b91506154ff826154be565b602082019050919050565b60006020820190508181036000830152615523816154e7565b905091905056fea264697066735822122051c4c685681dd1d385f09656f8e7ec14a64df8227e4c7ee8ec6d357a2cdc1c0964736f6c63430008090033",
			"opcodes": "PUSH1 0xA0 PUSH1 0x40 MSTORE CALLVALUE DUP1 ISZERO PUSH3 0x11 JUMPI PUSH1 0x0 DUP1 REVERT JUMPDEST POP PUSH1 0x40 MLOAD PUSH3 0x5B06 CODESIZE SUB DUP1 PUSH3 0x5B06 DUP4 CODECOPY DUP2 DUP2 ADD PUSH1 0x40 MSTORE DUP2 ADD SWAP1 PUSH3 0x37 SWAP2 SWAP1 PUSH3 0x44C JUMP JUMPDEST DUP3 DUP3 DUP3 DUP1 PUSH3 0x5B PUSH3 0x4F PUSH3 0xCE PUSH1 0x20 SHL PUSH1 0x20 SHR JUMP JUMPDEST PUSH3 0xD6 PUSH1 0x20 SHL PUSH1 0x20 SHR JUMP JUMPDEST DUP1 PUSH20 0xFFFFFFFFFFFFFFFFFFFFFFFFFFFFFFFFFFFFFFFF AND PUSH1 0x80 DUP2 PUSH20 0xFFFFFFFFFFFFFFFFFFFFFFFFFFFFFFFFFFFFFFFF AND DUP2 MSTORE POP POP POP POP DUP2 PUSH1 0x3 SWAP1 DUP1 MLOAD SWAP1 PUSH1 0x20 ADD SWAP1 PUSH3 0xA9 SWAP3 SWAP2 SWAP1 PUSH3 0x19A JUMP JUMPDEST POP DUP1 PUSH1 0x4 SWAP1 DUP1 MLOAD SWAP1 PUSH1 0x20 ADD SWAP1 PUSH3 0xC2 SWAP3 SWAP2 SWAP1 PUSH3 0x19A JUMP JUMPDEST POP POP POP POP POP POP PUSH3 0x54B JUMP JUMPDEST PUSH1 0x0 CALLER SWAP1 POP SWAP1 JUMP JUMPDEST PUSH1 0x0 DUP1 PUSH1 0x0 SWAP1 SLOAD SWAP1 PUSH2 0x100 EXP SWAP1 DIV PUSH20 0xFFFFFFFFFFFFFFFFFFFFFFFFFFFFFFFFFFFFFFFF AND SWAP1 POP DUP2 PUSH1 0x0 DUP1 PUSH2 0x100 EXP DUP2 SLOAD DUP2 PUSH20 0xFFFFFFFFFFFFFFFFFFFFFFFFFFFFFFFFFFFFFFFF MUL NOT AND SWAP1 DUP4 PUSH20 0xFFFFFFFFFFFFFFFFFFFFFFFFFFFFFFFFFFFFFFFF AND MUL OR SWAP1 SSTORE POP DUP2 PUSH20 0xFFFFFFFFFFFFFFFFFFFFFFFFFFFFFFFFFFFFFFFF AND DUP2 PUSH20 0xFFFFFFFFFFFFFFFFFFFFFFFFFFFFFFFFFFFFFFFF AND PUSH32 0x8BE0079C531659141344CD1FD0A4F28419497F9722A3DAAFE3B4186F6B6457E0 PUSH1 0x40 MLOAD PUSH1 0x40 MLOAD DUP1 SWAP2 SUB SWAP1 LOG3 POP POP JUMP JUMPDEST DUP3 DUP1 SLOAD PUSH3 0x1A8 SWAP1 PUSH3 0x515 JUMP JUMPDEST SWAP1 PUSH1 0x0 MSTORE PUSH1 0x20 PUSH1 0x0 KECCAK256 SWAP1 PUSH1 0x1F ADD PUSH1 0x20 SWAP1 DIV DUP2 ADD SWAP3 DUP3 PUSH3 0x1CC JUMPI PUSH1 0x0 DUP6 SSTORE PUSH3 0x218 JUMP JUMPDEST DUP3 PUSH1 0x1F LT PUSH3 0x1E7 JUMPI DUP1 MLOAD PUSH1 0xFF NOT AND DUP4 DUP1 ADD OR DUP6 SSTORE PUSH3 0x218 JUMP JUMPDEST DUP3 DUP1 ADD PUSH1 0x1 ADD DUP6 SSTORE DUP3 ISZERO PUSH3 0x218 JUMPI SWAP2 DUP3 ADD JUMPDEST DUP3 DUP2 GT ISZERO PUSH3 0x217 JUMPI DUP3 MLOAD DUP3 SSTORE SWAP2 PUSH1 0x20 ADD SWAP2 SWAP1 PUSH1 0x1 ADD SWAP1 PUSH3 0x1FA JUMP JUMPDEST JUMPDEST POP SWAP1 POP PUSH3 0x227 SWAP2 SWAP1 PUSH3 0x22B JUMP JUMPDEST POP SWAP1 JUMP JUMPDEST JUMPDEST DUP1 DUP3 GT ISZERO PUSH3 0x246 JUMPI PUSH1 0x0 DUP2 PUSH1 0x0 SWAP1 SSTORE POP PUSH1 0x1 ADD PUSH3 0x22C JUMP JUMPDEST POP SWAP1 JUMP JUMPDEST PUSH1 0x0 PUSH1 0x40 MLOAD SWAP1 POP SWAP1 JUMP JUMPDEST PUSH1 0x0 DUP1 REVERT JUMPDEST PUSH1 0x0 DUP1 REVERT JUMPDEST PUSH1 0x0 DUP1 REVERT JUMPDEST PUSH1 0x0 DUP1 REVERT JUMPDEST PUSH1 0x0 PUSH1 0x1F NOT PUSH1 0x1F DUP4 ADD AND SWAP1 POP SWAP2 SWAP1 POP JUMP JUMPDEST PUSH32 0x4E487B7100000000000000000000000000000000000000000000000000000000 PUSH1 0x0 MSTORE PUSH1 0x41 PUSH1 0x4 MSTORE PUSH1 0x24 PUSH1 0x0 REVERT JUMPDEST PUSH3 0x2B3 DUP3 PUSH3 0x268 JUMP JUMPDEST DUP2 ADD DUP2 DUP2 LT PUSH8 0xFFFFFFFFFFFFFFFF DUP3 GT OR ISZERO PUSH3 0x2D5 JUMPI PUSH3 0x2D4 PUSH3 0x279 JUMP JUMPDEST JUMPDEST DUP1 PUSH1 0x40 MSTORE POP POP POP JUMP JUMPDEST PUSH1 0x0 PUSH3 0x2EA PUSH3 0x24A JUMP JUMPDEST SWAP1 POP PUSH3 0x2F8 DUP3 DUP3 PUSH3 0x2A8 JUMP JUMPDEST SWAP2 SWAP1 POP JUMP JUMPDEST PUSH1 0x0 PUSH8 0xFFFFFFFFFFFFFFFF DUP3 GT ISZERO PUSH3 0x31B JUMPI PUSH3 0x31A PUSH3 0x279 JUMP JUMPDEST JUMPDEST PUSH3 0x326 DUP3 PUSH3 0x268 JUMP JUMPDEST SWAP1 POP PUSH1 0x20 DUP2 ADD SWAP1 POP SWAP2 SWAP1 POP JUMP JUMPDEST PUSH1 0x0 JUMPDEST DUP4 DUP2 LT ISZERO PUSH3 0x353 JUMPI DUP1 DUP3 ADD MLOAD DUP2 DUP5 ADD MSTORE PUSH1 0x20 DUP2 ADD SWAP1 POP PUSH3 0x336 JUMP JUMPDEST DUP4 DUP2 GT ISZERO PUSH3 0x363 JUMPI PUSH1 0x0 DUP5 DUP5 ADD MSTORE JUMPDEST POP POP POP POP JUMP JUMPDEST PUSH1 0x0 PUSH3 0x380 PUSH3 0x37A DUP5 PUSH3 0x2FD JUMP JUMPDEST PUSH3 0x2DE JUMP JUMPDEST SWAP1 POP DUP3 DUP2 MSTORE PUSH1 0x20 DUP2 ADD DUP5 DUP5 DUP5 ADD GT ISZERO PUSH3 0x39F JUMPI PUSH3 0x39E PUSH3 0x263 JUMP JUMPDEST JUMPDEST PUSH3 0x3AC DUP5 DUP3 DUP6 PUSH3 0x333 JUMP JUMPDEST POP SWAP4 SWAP3 POP POP POP JUMP JUMPDEST PUSH1 0x0 DUP3 PUSH1 0x1F DUP4 ADD SLT PUSH3 0x3CC JUMPI PUSH3 0x3CB PUSH3 0x25E JUMP JUMPDEST JUMPDEST DUP2 MLOAD PUSH3 0x3DE DUP5 DUP3 PUSH1 0x20 DUP7 ADD PUSH3 0x369 JUMP JUMPDEST SWAP2 POP POP SWAP3 SWAP2 POP POP JUMP JUMPDEST PUSH1 0x0 PUSH20 0xFFFFFFFFFFFFFFFFFFFFFFFFFFFFFFFFFFFFFFFF DUP3 AND SWAP1 POP SWAP2 SWAP1 POP JUMP JUMPDEST PUSH1 0x0 PUSH3 0x414 DUP3 PUSH3 0x3E7 JUMP JUMPDEST SWAP1 POP SWAP2 SWAP1 POP JUMP JUMPDEST PUSH3 0x426 DUP2 PUSH3 0x407 JUMP JUMPDEST DUP2 EQ PUSH3 0x432 JUMPI PUSH1 0x0 DUP1 REVERT JUMPDEST POP JUMP JUMPDEST PUSH1 0x0 DUP2 MLOAD SWAP1 POP PUSH3 0x446 DUP2 PUSH3 0x41B JUMP JUMPDEST SWAP3 SWAP2 POP POP JUMP JUMPDEST PUSH1 0x0 DUP1 PUSH1 0x0 PUSH1 0x60 DUP5 DUP7 SUB SLT ISZERO PUSH3 0x468 JUMPI PUSH3 0x467 PUSH3 0x254 JUMP JUMPDEST JUMPDEST PUSH1 0x0 DUP5 ADD MLOAD PUSH8 0xFFFFFFFFFFFFFFFF DUP2 GT ISZERO PUSH3 0x489 JUMPI PUSH3 0x488 PUSH3 0x259 JUMP JUMPDEST JUMPDEST PUSH3 0x497 DUP7 DUP3 DUP8 ADD PUSH3 0x3B4 JUMP JUMPDEST SWAP4 POP POP PUSH1 0x20 DUP5 ADD MLOAD PUSH8 0xFFFFFFFFFFFFFFFF DUP2 GT ISZERO PUSH3 0x4BB JUMPI PUSH3 0x4BA PUSH3 0x259 JUMP JUMPDEST JUMPDEST PUSH3 0x4C9 DUP7 DUP3 DUP8 ADD PUSH3 0x3B4 JUMP JUMPDEST SWAP3 POP POP PUSH1 0x40 PUSH3 0x4DC DUP7 DUP3 DUP8 ADD PUSH3 0x435 JUMP JUMPDEST SWAP2 POP POP SWAP3 POP SWAP3 POP SWAP3 JUMP JUMPDEST PUSH32 0x4E487B7100000000000000000000000000000000000000000000000000000000 PUSH1 0x0 MSTORE PUSH1 0x22 PUSH1 0x4 MSTORE PUSH1 0x24 PUSH1 0x0 REVERT JUMPDEST PUSH1 0x0 PUSH1 0x2 DUP3 DIV SWAP1 POP PUSH1 0x1 DUP3 AND DUP1 PUSH3 0x52E JUMPI PUSH1 0x7F DUP3 AND SWAP2 POP JUMPDEST PUSH1 0x20 DUP3 LT DUP2 EQ ISZERO PUSH3 0x545 JUMPI PUSH3 0x544 PUSH3 0x4E6 JUMP JUMPDEST JUMPDEST POP SWAP2 SWAP1 POP JUMP JUMPDEST PUSH1 0x80 MLOAD PUSH2 0x5560 PUSH3 0x5A6 PUSH1 0x0 CODECOPY PUSH1 0x0 DUP2 DUP2 PUSH2 0x7D6 ADD MSTORE DUP2 DUP2 PUSH2 0xAE2 ADD MSTORE DUP2 DUP2 PUSH2 0xD89 ADD MSTORE DUP2 DUP2 PUSH2 0xFE7 ADD MSTORE DUP2 DUP2 PUSH2 0x1734 ADD MSTORE DUP2 DUP2 PUSH2 0x1A29 ADD MSTORE DUP2 DUP2 PUSH2 0x1D29 ADD MSTORE DUP2 DUP2 PUSH2 0x1D65 ADD MSTORE DUP2 DUP2 PUSH2 0x2555 ADD MSTORE PUSH2 0x2C09 ADD MSTORE PUSH2 0x5560 PUSH1 0x0 RETURN INVALID PUSH1 0x80 PUSH1 0x40 MSTORE PUSH1 0x4 CALLDATASIZE LT PUSH2 0x1ED JUMPI PUSH1 0x0 CALLDATALOAD PUSH1 0xE0 SHR DUP1 PUSH4 0x70A08231 GT PUSH2 0x10D JUMPI DUP1 PUSH4 0xCBED8B9C GT PUSH2 0xA0 JUMPI DUP1 PUSH4 0xE985E9C5 GT PUSH2 0x6F JUMPI DUP1 PUSH4 0xE985E9C5 EQ PUSH2 0x6EC JUMPI DUP1 PUSH4 0xEB8D72B7 EQ PUSH2 0x729 JUMPI DUP1 PUSH4 0xEED33CEF EQ PUSH2 0x752 JUMPI DUP1 PUSH4 0xF2FDE38B EQ PUSH2 0x76E JUMPI DUP1 PUSH4 0xF5ECBDBC EQ PUSH2 0x797 JUMPI PUSH2 0x1ED JUMP JUMPDEST DUP1 PUSH4 0xCBED8B9C EQ PUSH2 0x651 JUMPI DUP1 PUSH4 0xD1DEBA1F EQ PUSH2 0x67A JUMPI DUP1 PUSH4 0xD547CFB7 EQ PUSH2 0x696 JUMPI DUP1 PUSH4 0xDACBCBE2 EQ PUSH2 0x6C1 JUMPI PUSH2 0x1ED JUMP JUMPDEST DUP1 PUSH4 0x95D89B41 GT PUSH2 0xDC JUMPI DUP1 PUSH4 0x95D89B41 EQ PUSH2 0x597 JUMPI DUP1 PUSH4 0xA22CB465 EQ PUSH2 0x5C2 JUMPI DUP1 PUSH4 0xB88D4FDE EQ PUSH2 0x5EB JUMPI DUP1 PUSH4 0xC87B56DD EQ PUSH2 0x614 JUMPI PUSH2 0x1ED JUMP JUMPDEST DUP1 PUSH4 0x70A08231 EQ PUSH2 0x4DB JUMPI DUP1 PUSH4 0x715018A6 EQ PUSH2 0x518 JUMPI DUP1 PUSH4 0x8DA5CB5B EQ PUSH2 0x52F JUMPI DUP1 PUSH4 0x8EE74912 EQ PUSH2 0x55A JUMPI PUSH2 0x1ED JUMP JUMPDEST DUP1 PUSH4 0x3D8B38F6 GT PUSH2 0x185 JUMPI DUP1 PUSH4 0x55F804B3 GT PUSH2 0x154 JUMPI DUP1 PUSH4 0x55F804B3 EQ PUSH2 0x40F JUMPI DUP1 PUSH4 0x6352211E EQ PUSH2 0x438 JUMPI DUP1 PUSH4 0x66AD5C8A EQ PUSH2 0x475 JUMPI DUP1 PUSH4 0x69B41F95 EQ PUSH2 0x49E JUMPI PUSH2 0x1ED JUMP JUMPDEST DUP1 PUSH4 0x3D8B38F6 EQ PUSH2 0x364 JUMPI DUP1 PUSH4 0x42842E0E EQ PUSH2 0x3A1 JUMPI DUP1 PUSH4 0x42D65A8D EQ PUSH2 0x3CA JUMPI DUP1 PUSH4 0x51905636 EQ PUSH2 0x3F3 JUMPI PUSH2 0x1ED JUMP JUMPDEST DUP1 PUSH4 0x81812FC GT PUSH2 0x1C1 JUMPI DUP1 PUSH4 0x81812FC EQ PUSH2 0x2AC JUMPI DUP1 PUSH4 0x95EA7B3 EQ PUSH2 0x2E9 JUMPI DUP1 PUSH4 0x10DDB137 EQ PUSH2 0x312 JUMPI DUP1 PUSH4 0x23B872DD EQ PUSH2 0x33B JUMPI PUSH2 0x1ED JUMP JUMPDEST DUP1 PUSH3 0x1D3567 EQ PUSH2 0x1F2 JUMPI DUP1 PUSH4 0x1FFC9A7 EQ PUSH2 0x21B JUMPI DUP1 PUSH4 0x6FDDE03 EQ PUSH2 0x258 JUMPI DUP1 PUSH4 0x7E0DB17 EQ PUSH2 0x283 JUMPI JUMPDEST PUSH1 0x0 DUP1 REVERT JUMPDEST CALLVALUE DUP1 ISZERO PUSH2 0x1FE JUMPI PUSH1 0x0 DUP1 REVERT JUMPDEST POP PUSH2 0x219 PUSH1 0x4 DUP1 CALLDATASIZE SUB DUP2 ADD SWAP1 PUSH2 0x214 SWAP2 SWAP1 PUSH2 0x34FF JUMP JUMPDEST PUSH2 0x7D4 JUMP JUMPDEST STOP JUMPDEST CALLVALUE DUP1 ISZERO PUSH2 0x227 JUMPI PUSH1 0x0 DUP1 REVERT JUMPDEST POP PUSH2 0x242 PUSH1 0x4 DUP1 CALLDATASIZE SUB DUP2 ADD SWAP1 PUSH2 0x23D SWAP2 SWAP1 PUSH2 0x35F6 JUMP JUMPDEST PUSH2 0x8F0 JUMP JUMPDEST PUSH1 0x40 MLOAD PUSH2 0x24F SWAP2 SWAP1 PUSH2 0x363E JUMP JUMPDEST PUSH1 0x40 MLOAD DUP1 SWAP2 SUB SWAP1 RETURN JUMPDEST CALLVALUE DUP1 ISZERO PUSH2 0x264 JUMPI PUSH1 0x0 DUP1 REVERT JUMPDEST POP PUSH2 0x26D PUSH2 0x9D2 JUMP JUMPDEST PUSH1 0x40 MLOAD PUSH2 0x27A SWAP2 SWAP1 PUSH2 0x36E1 JUMP JUMPDEST PUSH1 0x40 MLOAD DUP1 SWAP2 SUB SWAP1 RETURN JUMPDEST CALLVALUE DUP1 ISZERO PUSH2 0x28F JUMPI PUSH1 0x0 DUP1 REVERT JUMPDEST POP PUSH2 0x2AA PUSH1 0x4 DUP1 CALLDATASIZE SUB DUP2 ADD SWAP1 PUSH2 0x2A5 SWAP2 SWAP1 PUSH2 0x3703 JUMP JUMPDEST PUSH2 0xA64 JUMP JUMPDEST STOP JUMPDEST CALLVALUE DUP1 ISZERO PUSH2 0x2B8 JUMPI PUSH1 0x0 DUP1 REVERT JUMPDEST POP PUSH2 0x2D3 PUSH1 0x4 DUP1 CALLDATASIZE SUB DUP2 ADD SWAP1 PUSH2 0x2CE SWAP2 SWAP1 PUSH2 0x3766 JUMP JUMPDEST PUSH2 0xB6E JUMP JUMPDEST PUSH1 0x40 MLOAD PUSH2 0x2E0 SWAP2 SWAP1 PUSH2 0x37D4 JUMP JUMPDEST PUSH1 0x40 MLOAD DUP1 SWAP2 SUB SWAP1 RETURN JUMPDEST CALLVALUE DUP1 ISZERO PUSH2 0x2F5 JUMPI PUSH1 0x0 DUP1 REVERT JUMPDEST POP PUSH2 0x310 PUSH1 0x4 DUP1 CALLDATASIZE SUB DUP2 ADD SWAP1 PUSH2 0x30B SWAP2 SWAP1 PUSH2 0x381B JUMP JUMPDEST PUSH2 0xBF3 JUMP JUMPDEST STOP JUMPDEST CALLVALUE DUP1 ISZERO PUSH2 0x31E JUMPI PUSH1 0x0 DUP1 REVERT JUMPDEST POP PUSH2 0x339 PUSH1 0x4 DUP1 CALLDATASIZE SUB DUP2 ADD SWAP1 PUSH2 0x334 SWAP2 SWAP1 PUSH2 0x3703 JUMP JUMPDEST PUSH2 0xD0B JUMP JUMPDEST STOP JUMPDEST CALLVALUE DUP1 ISZERO PUSH2 0x347 JUMPI PUSH1 0x0 DUP1 REVERT JUMPDEST POP PUSH2 0x362 PUSH1 0x4 DUP1 CALLDATASIZE SUB DUP2 ADD SWAP1 PUSH2 0x35D SWAP2 SWAP1 PUSH2 0x385B JUMP JUMPDEST PUSH2 0xE15 JUMP JUMPDEST STOP JUMPDEST CALLVALUE DUP1 ISZERO PUSH2 0x370 JUMPI PUSH1 0x0 DUP1 REVERT JUMPDEST POP PUSH2 0x38B PUSH1 0x4 DUP1 CALLDATASIZE SUB DUP2 ADD SWAP1 PUSH2 0x386 SWAP2 SWAP1 PUSH2 0x390E JUMP JUMPDEST PUSH2 0xE75 JUMP JUMPDEST PUSH1 0x40 MLOAD PUSH2 0x398 SWAP2 SWAP1 PUSH2 0x363E JUMP JUMPDEST PUSH1 0x40 MLOAD DUP1 SWAP2 SUB SWAP1 RETURN JUMPDEST CALLVALUE DUP1 ISZERO PUSH2 0x3AD JUMPI PUSH1 0x0 DUP1 REVERT JUMPDEST POP PUSH2 0x3C8 PUSH1 0x4 DUP1 CALLDATASIZE SUB DUP2 ADD SWAP1 PUSH2 0x3C3 SWAP2 SWAP1 PUSH2 0x385B JUMP JUMPDEST PUSH2 0xF49 JUMP JUMPDEST STOP JUMPDEST CALLVALUE DUP1 ISZERO PUSH2 0x3D6 JUMPI PUSH1 0x0 DUP1 REVERT JUMPDEST POP PUSH2 0x3F1 PUSH1 0x4 DUP1 CALLDATASIZE SUB DUP2 ADD SWAP1 PUSH2 0x3EC SWAP2 SWAP1 PUSH2 0x390E JUMP JUMPDEST PUSH2 0xF69 JUMP JUMPDEST STOP JUMPDEST PUSH2 0x40D PUSH1 0x4 DUP1 CALLDATASIZE SUB DUP2 ADD SWAP1 PUSH2 0x408 SWAP2 SWAP1 PUSH2 0x39AC JUMP JUMPDEST PUSH2 0x1079 JUMP JUMPDEST STOP JUMPDEST CALLVALUE DUP1 ISZERO PUSH2 0x41B JUMPI PUSH1 0x0 DUP1 REVERT JUMPDEST POP PUSH2 0x436 PUSH1 0x4 DUP1 CALLDATASIZE SUB DUP2 ADD SWAP1 PUSH2 0x431 SWAP2 SWAP1 PUSH2 0x3B2F JUMP JUMPDEST PUSH2 0x10D8 JUMP JUMPDEST STOP JUMPDEST CALLVALUE DUP1 ISZERO PUSH2 0x444 JUMPI PUSH1 0x0 DUP1 REVERT JUMPDEST POP PUSH2 0x45F PUSH1 0x4 DUP1 CALLDATASIZE SUB DUP2 ADD SWAP1 PUSH2 0x45A SWAP2 SWAP1 PUSH2 0x3766 JUMP JUMPDEST PUSH2 0x116E JUMP JUMPDEST PUSH1 0x40 MLOAD PUSH2 0x46C SWAP2 SWAP1 PUSH2 0x37D4 JUMP JUMPDEST PUSH1 0x40 MLOAD DUP1 SWAP2 SUB SWAP1 RETURN JUMPDEST CALLVALUE DUP1 ISZERO PUSH2 0x481 JUMPI PUSH1 0x0 DUP1 REVERT JUMPDEST POP PUSH2 0x49C PUSH1 0x4 DUP1 CALLDATASIZE SUB DUP2 ADD SWAP1 PUSH2 0x497 SWAP2 SWAP1 PUSH2 0x34FF JUMP JUMPDEST PUSH2 0x1220 JUMP JUMPDEST STOP JUMPDEST CALLVALUE DUP1 ISZERO PUSH2 0x4AA JUMPI PUSH1 0x0 DUP1 REVERT JUMPDEST POP PUSH2 0x4C5 PUSH1 0x4 DUP1 CALLDATASIZE SUB DUP2 ADD SWAP1 PUSH2 0x4C0 SWAP2 SWAP1 PUSH2 0x3703 JUMP JUMPDEST PUSH2 0x12A7 JUMP JUMPDEST PUSH1 0x40 MLOAD PUSH2 0x4D2 SWAP2 SWAP1 PUSH2 0x3BCD JUMP JUMPDEST PUSH1 0x40 MLOAD DUP1 SWAP2 SUB SWAP1 RETURN JUMPDEST CALLVALUE DUP1 ISZERO PUSH2 0x4E7 JUMPI PUSH1 0x0 DUP1 REVERT JUMPDEST POP PUSH2 0x502 PUSH1 0x4 DUP1 CALLDATASIZE SUB DUP2 ADD SWAP1 PUSH2 0x4FD SWAP2 SWAP1 PUSH2 0x3BEF JUMP JUMPDEST PUSH2 0x1354 JUMP JUMPDEST PUSH1 0x40 MLOAD PUSH2 0x50F SWAP2 SWAP1 PUSH2 0x3C2B JUMP JUMPDEST PUSH1 0x40 MLOAD DUP1 SWAP2 SUB SWAP1 RETURN JUMPDEST CALLVALUE DUP1 ISZERO PUSH2 0x524 JUMPI PUSH1 0x0 DUP1 REVERT JUMPDEST POP PUSH2 0x52D PUSH2 0x140C JUMP JUMPDEST STOP JUMPDEST CALLVALUE DUP1 ISZERO PUSH2 0x53B JUMPI PUSH1 0x0 DUP1 REVERT JUMPDEST POP PUSH2 0x544 PUSH2 0x1494 JUMP JUMPDEST PUSH1 0x40 MLOAD PUSH2 0x551 SWAP2 SWAP1 PUSH2 0x37D4 JUMP JUMPDEST PUSH1 0x40 MLOAD DUP1 SWAP2 SUB SWAP1 RETURN JUMPDEST CALLVALUE DUP1 ISZERO PUSH2 0x566 JUMPI PUSH1 0x0 DUP1 REVERT JUMPDEST POP PUSH2 0x581 PUSH1 0x4 DUP1 CALLDATASIZE SUB DUP2 ADD SWAP1 PUSH2 0x57C SWAP2 SWAP1 PUSH2 0x3C46 JUMP JUMPDEST PUSH2 0x14BD JUMP JUMPDEST PUSH1 0x40 MLOAD PUSH2 0x58E SWAP2 SWAP1 PUSH2 0x3CCE JUMP JUMPDEST PUSH1 0x40 MLOAD DUP1 SWAP2 SUB SWAP1 RETURN JUMPDEST CALLVALUE DUP1 ISZERO PUSH2 0x5A3 JUMPI PUSH1 0x0 DUP1 REVERT JUMPDEST POP PUSH2 0x5AC PUSH2 0x1505 JUMP JUMPDEST PUSH1 0x40 MLOAD PUSH2 0x5B9 SWAP2 SWAP1 PUSH2 0x36E1 JUMP JUMPDEST PUSH1 0x40 MLOAD DUP1 SWAP2 SUB SWAP1 RETURN JUMPDEST CALLVALUE DUP1 ISZERO PUSH2 0x5CE JUMPI PUSH1 0x0 DUP1 REVERT JUMPDEST POP PUSH2 0x5E9 PUSH1 0x4 DUP1 CALLDATASIZE SUB DUP2 ADD SWAP1 PUSH2 0x5E4 SWAP2 SWAP1 PUSH2 0x3D15 JUMP JUMPDEST PUSH2 0x1597 JUMP JUMPDEST STOP JUMPDEST CALLVALUE DUP1 ISZERO PUSH2 0x5F7 JUMPI PUSH1 0x0 DUP1 REVERT JUMPDEST POP PUSH2 0x612 PUSH1 0x4 DUP1 CALLDATASIZE SUB DUP2 ADD SWAP1 PUSH2 0x60D SWAP2 SWAP1 PUSH2 0x3D55 JUMP JUMPDEST PUSH2 0x15AD JUMP JUMPDEST STOP JUMPDEST CALLVALUE DUP1 ISZERO PUSH2 0x620 JUMPI PUSH1 0x0 DUP1 REVERT JUMPDEST POP PUSH2 0x63B PUSH1 0x4 DUP1 CALLDATASIZE SUB DUP2 ADD SWAP1 PUSH2 0x636 SWAP2 SWAP1 PUSH2 0x3766 JUMP JUMPDEST PUSH2 0x160F JUMP JUMPDEST PUSH1 0x40 MLOAD PUSH2 0x648 SWAP2 SWAP1 PUSH2 0x36E1 JUMP JUMPDEST PUSH1 0x40 MLOAD DUP1 SWAP2 SUB SWAP1 RETURN JUMPDEST CALLVALUE DUP1 ISZERO PUSH2 0x65D JUMPI PUSH1 0x0 DUP1 REVERT JUMPDEST POP PUSH2 0x678 PUSH1 0x4 DUP1 CALLDATASIZE SUB DUP2 ADD SWAP1 PUSH2 0x673 SWAP2 SWAP1 PUSH2 0x3DD8 JUMP JUMPDEST PUSH2 0x16B6 JUMP JUMPDEST STOP JUMPDEST PUSH2 0x694 PUSH1 0x4 DUP1 CALLDATASIZE SUB DUP2 ADD SWAP1 PUSH2 0x68F SWAP2 SWAP1 PUSH2 0x3E60 JUMP JUMPDEST PUSH2 0x17CC JUMP JUMPDEST STOP JUMPDEST CALLVALUE DUP1 ISZERO PUSH2 0x6A2 JUMPI PUSH1 0x0 DUP1 REVERT JUMPDEST POP PUSH2 0x6AB PUSH2 0x1997 JUMP JUMPDEST PUSH1 0x40 MLOAD PUSH2 0x6B8 SWAP2 SWAP1 PUSH2 0x36E1 JUMP JUMPDEST PUSH1 0x40 MLOAD DUP1 SWAP2 SUB SWAP1 RETURN JUMPDEST CALLVALUE DUP1 ISZERO PUSH2 0x6CD JUMPI PUSH1 0x0 DUP1 REVERT JUMPDEST POP PUSH2 0x6D6 PUSH2 0x1A25 JUMP JUMPDEST PUSH1 0x40 MLOAD PUSH2 0x6E3 SWAP2 SWAP1 PUSH2 0x37D4 JUMP JUMPDEST PUSH1 0x40 MLOAD DUP1 SWAP2 SUB SWAP1 RETURN JUMPDEST CALLVALUE DUP1 ISZERO PUSH2 0x6F8 JUMPI PUSH1 0x0 DUP1 REVERT JUMPDEST POP PUSH2 0x713 PUSH1 0x4 DUP1 CALLDATASIZE SUB DUP2 ADD SWAP1 PUSH2 0x70E SWAP2 SWAP1 PUSH2 0x3F04 JUMP JUMPDEST PUSH2 0x1A4D JUMP JUMPDEST PUSH1 0x40 MLOAD PUSH2 0x720 SWAP2 SWAP1 PUSH2 0x363E JUMP JUMPDEST PUSH1 0x40 MLOAD DUP1 SWAP2 SUB SWAP1 RETURN JUMPDEST CALLVALUE DUP1 ISZERO PUSH2 0x735 JUMPI PUSH1 0x0 DUP1 REVERT JUMPDEST POP PUSH2 0x750 PUSH1 0x4 DUP1 CALLDATASIZE SUB DUP2 ADD SWAP1 PUSH2 0x74B SWAP2 SWAP1 PUSH2 0x390E JUMP JUMPDEST PUSH2 0x1AE1 JUMP JUMPDEST STOP JUMPDEST PUSH2 0x76C PUSH1 0x4 DUP1 CALLDATASIZE SUB DUP2 ADD SWAP1 PUSH2 0x767 SWAP2 SWAP1 PUSH2 0x3F44 JUMP JUMPDEST PUSH2 0x1BC8 JUMP JUMPDEST STOP JUMPDEST CALLVALUE DUP1 ISZERO PUSH2 0x77A JUMPI PUSH1 0x0 DUP1 REVERT JUMPDEST POP PUSH2 0x795 PUSH1 0x4 DUP1 CALLDATASIZE SUB DUP2 ADD SWAP1 PUSH2 0x790 SWAP2 SWAP1 PUSH2 0x3BEF JUMP JUMPDEST PUSH2 0x1C2D JUMP JUMPDEST STOP JUMPDEST CALLVALUE DUP1 ISZERO PUSH2 0x7A3 JUMPI PUSH1 0x0 DUP1 REVERT JUMPDEST POP PUSH2 0x7BE PUSH1 0x4 DUP1 CALLDATASIZE SUB DUP2 ADD SWAP1 PUSH2 0x7B9 SWAP2 SWAP1 PUSH2 0x4013 JUMP JUMPDEST PUSH2 0x1D25 JUMP JUMPDEST PUSH1 0x40 MLOAD PUSH2 0x7CB SWAP2 SWAP1 PUSH2 0x3BCD JUMP JUMPDEST PUSH1 0x40 MLOAD DUP1 SWAP2 SUB SWAP1 RETURN JUMPDEST PUSH32 0x0 PUSH20 0xFFFFFFFFFFFFFFFFFFFFFFFFFFFFFFFFFFFFFFFF AND PUSH2 0x813 PUSH2 0x1E8D JUMP JUMPDEST PUSH20 0xFFFFFFFFFFFFFFFFFFFFFFFFFFFFFFFFFFFFFFFF AND EQ PUSH2 0x833 JUMPI PUSH1 0x0 DUP1 REVERT JUMPDEST PUSH1 0x1 PUSH1 0x0 DUP6 PUSH2 0xFFFF AND PUSH2 0xFFFF AND DUP2 MSTORE PUSH1 0x20 ADD SWAP1 DUP2 MSTORE PUSH1 0x20 ADD PUSH1 0x0 KECCAK256 DUP1 SLOAD PUSH2 0x859 SWAP1 PUSH2 0x40A9 JUMP JUMPDEST SWAP1 POP DUP4 MLOAD EQ DUP1 ISZERO PUSH2 0x89F JUMPI POP PUSH1 0x1 PUSH1 0x0 DUP6 PUSH2 0xFFFF AND PUSH2 0xFFFF AND DUP2 MSTORE PUSH1 0x20 ADD SWAP1 DUP2 MSTORE PUSH1 0x20 ADD PUSH1 0x0 KECCAK256 PUSH1 0x40 MLOAD PUSH2 0x88D SWAP2 SWAP1 PUSH2 0x417A JUMP JUMPDEST PUSH1 0x40 MLOAD DUP1 SWAP2 SUB SWAP1 KECCAK256 DUP4 DUP1 MLOAD SWAP1 PUSH1 0x20 ADD KECCAK256 EQ JUMPDEST PUSH2 0x8DE JUMPI PUSH1 0x40 MLOAD PUSH32 0x8C379A000000000000000000000000000000000000000000000000000000000 DUP2 MSTORE PUSH1 0x4 ADD PUSH2 0x8D5 SWAP1 PUSH2 0x4203 JUMP JUMPDEST PUSH1 0x40 MLOAD DUP1 SWAP2 SUB SWAP1 REVERT JUMPDEST PUSH2 0x8EA DUP5 DUP5 DUP5 DUP5 PUSH2 0x1E95 JUMP JUMPDEST POP POP POP POP JUMP JUMPDEST PUSH1 0x0 PUSH32 0x80AC58CD00000000000000000000000000000000000000000000000000000000 PUSH28 0xFFFFFFFFFFFFFFFFFFFFFFFFFFFFFFFFFFFFFFFFFFFFFFFFFFFFFFFF NOT AND DUP3 PUSH28 0xFFFFFFFFFFFFFFFFFFFFFFFFFFFFFFFFFFFFFFFFFFFFFFFFFFFFFFFF NOT AND EQ DUP1 PUSH2 0x9BB JUMPI POP PUSH32 0x5B5E139F00000000000000000000000000000000000000000000000000000000 PUSH28 0xFFFFFFFFFFFFFFFFFFFFFFFFFFFFFFFFFFFFFFFFFFFFFFFFFFFFFFFF NOT AND DUP3 PUSH28 0xFFFFFFFFFFFFFFFFFFFFFFFFFFFFFFFFFFFFFFFFFFFFFFFFFFFFFFFF NOT AND EQ JUMPDEST DUP1 PUSH2 0x9CB JUMPI POP PUSH2 0x9CA DUP3 PUSH2 0x1FAA JUMP JUMPDEST JUMPDEST SWAP1 POP SWAP2 SWAP1 POP JUMP JUMPDEST PUSH1 0x60 PUSH1 0x3 DUP1 SLOAD PUSH2 0x9E1 SWAP1 PUSH2 0x40A9 JUMP JUMPDEST DUP1 PUSH1 0x1F ADD PUSH1 0x20 DUP1 SWAP2 DIV MUL PUSH1 0x20 ADD PUSH1 0x40 MLOAD SWAP1 DUP2 ADD PUSH1 0x40 MSTORE DUP1 SWAP3 SWAP2 SWAP1 DUP2 DUP2 MSTORE PUSH1 0x20 ADD DUP3 DUP1 SLOAD PUSH2 0xA0D SWAP1 PUSH2 0x40A9 JUMP JUMPDEST DUP1 ISZERO PUSH2 0xA5A JUMPI DUP1 PUSH1 0x1F LT PUSH2 0xA2F JUMPI PUSH2 0x100 DUP1 DUP4 SLOAD DIV MUL DUP4 MSTORE SWAP2 PUSH1 0x20 ADD SWAP2 PUSH2 0xA5A JUMP JUMPDEST DUP3 ADD SWAP2 SWAP1 PUSH1 0x0 MSTORE PUSH1 0x20 PUSH1 0x0 KECCAK256 SWAP1 JUMPDEST DUP2 SLOAD DUP2 MSTORE SWAP1 PUSH1 0x1 ADD SWAP1 PUSH1 0x20 ADD DUP1 DUP4 GT PUSH2 0xA3D JUMPI DUP3 SWAP1 SUB PUSH1 0x1F AND DUP3 ADD SWAP2 JUMPDEST POP POP POP POP POP SWAP1 POP SWAP1 JUMP JUMPDEST PUSH2 0xA6C PUSH2 0x1E8D JUMP JUMPDEST PUSH20 0xFFFFFFFFFFFFFFFFFFFFFFFFFFFFFFFFFFFFFFFF AND PUSH2 0xA8A PUSH2 0x1494 JUMP JUMPDEST PUSH20 0xFFFFFFFFFFFFFFFFFFFFFFFFFFFFFFFFFFFFFFFF AND EQ PUSH2 0xAE0 JUMPI PUSH1 0x40 MLOAD PUSH32 0x8C379A000000000000000000000000000000000000000000000000000000000 DUP2 MSTORE PUSH1 0x4 ADD PUSH2 0xAD7 SWAP1 PUSH2 0x426F JUMP JUMPDEST PUSH1 0x40 MLOAD DUP1 SWAP2 SUB SWAP1 REVERT JUMPDEST PUSH32 0x0 PUSH20 0xFFFFFFFFFFFFFFFFFFFFFFFFFFFFFFFFFFFFFFFF AND PUSH4 0x7E0DB17 DUP3 PUSH1 0x40 MLOAD DUP3 PUSH4 0xFFFFFFFF AND PUSH1 0xE0 SHL DUP2 MSTORE PUSH1 0x4 ADD PUSH2 0xB39 SWAP2 SWAP1 PUSH2 0x429E JUMP JUMPDEST PUSH1 0x0 PUSH1 0x40 MLOAD DUP1 DUP4 SUB DUP2 PUSH1 0x0 DUP8 DUP1 EXTCODESIZE ISZERO DUP1 ISZERO PUSH2 0xB53 JUMPI PUSH1 0x0 DUP1 REVERT JUMPDEST POP GAS CALL ISZERO DUP1 ISZERO PUSH2 0xB67 JUMPI RETURNDATASIZE PUSH1 0x0 DUP1 RETURNDATACOPY RETURNDATASIZE PUSH1 0x0 REVERT JUMPDEST POP POP POP POP POP JUMP JUMPDEST PUSH1 0x0 PUSH2 0xB79 DUP3 PUSH2 0x2014 JUMP JUMPDEST PUSH2 0xBB8 JUMPI PUSH1 0x40 MLOAD PUSH32 0x8C379A000000000000000000000000000000000000000000000000000000000 DUP2 MSTORE PUSH1 0x4 ADD PUSH2 0xBAF SWAP1 PUSH2 0x432B JUMP JUMPDEST PUSH1 0x40 MLOAD DUP1 SWAP2 SUB SWAP1 REVERT JUMPDEST PUSH1 0x7 PUSH1 0x0 DUP4 DUP2 MSTORE PUSH1 0x20 ADD SWAP1 DUP2 MSTORE PUSH1 0x20 ADD PUSH1 0x0 KECCAK256 PUSH1 0x0 SWAP1 SLOAD SWAP1 PUSH2 0x100 EXP SWAP1 DIV PUSH20 0xFFFFFFFFFFFFFFFFFFFFFFFFFFFFFFFFFFFFFFFF AND SWAP1 POP SWAP2 SWAP1 POP JUMP JUMPDEST PUSH1 0x0 PUSH2 0xBFE DUP3 PUSH2 0x116E JUMP JUMPDEST SWAP1 POP DUP1 PUSH20 0xFFFFFFFFFFFFFFFFFFFFFFFFFFFFFFFFFFFFFFFF AND DUP4 PUSH20 0xFFFFFFFFFFFFFFFFFFFFFFFFFFFFFFFFFFFFFFFF AND EQ ISZERO PUSH2 0xC6F JUMPI PUSH1 0x40 MLOAD PUSH32 0x8C379A000000000000000000000000000000000000000000000000000000000 DUP2 MSTORE PUSH1 0x4 ADD PUSH2 0xC66 SWAP1 PUSH2 0x43BD JUMP JUMPDEST PUSH1 0x40 MLOAD DUP1 SWAP2 SUB SWAP1 REVERT JUMPDEST DUP1 PUSH20 0xFFFFFFFFFFFFFFFFFFFFFFFFFFFFFFFFFFFFFFFF AND PUSH2 0xC8E PUSH2 0x1E8D JUMP JUMPDEST PUSH20 0xFFFFFFFFFFFFFFFFFFFFFFFFFFFFFFFFFFFFFFFF AND EQ DUP1 PUSH2 0xCBD JUMPI POP PUSH2 0xCBC DUP2 PUSH2 0xCB7 PUSH2 0x1E8D JUMP JUMPDEST PUSH2 0x1A4D JUMP JUMPDEST JUMPDEST PUSH2 0xCFC JUMPI PUSH1 0x40 MLOAD PUSH32 0x8C379A000000000000000000000000000000000000000000000000000000000 DUP2 MSTORE PUSH1 0x4 ADD PUSH2 0xCF3 SWAP1 PUSH2 0x444F JUMP JUMPDEST PUSH1 0x40 MLOAD DUP1 SWAP2 SUB SWAP1 REVERT JUMPDEST PUSH2 0xD06 DUP4 DUP4 PUSH2 0x2080 JUMP JUMPDEST POP POP POP JUMP JUMPDEST PUSH2 0xD13 PUSH2 0x1E8D JUMP JUMPDEST PUSH20 0xFFFFFFFFFFFFFFFFFFFFFFFFFFFFFFFFFFFFFFFF AND PUSH2 0xD31 PUSH2 0x1494 JUMP JUMPDEST PUSH20 0xFFFFFFFFFFFFFFFFFFFFFFFFFFFFFFFFFFFFFFFF AND EQ PUSH2 0xD87 JUMPI PUSH1 0x40 MLOAD PUSH32 0x8C379A000000000000000000000000000000000000000000000000000000000 DUP2 MSTORE PUSH1 0x4 ADD PUSH2 0xD7E SWAP1 PUSH2 0x426F JUMP JUMPDEST PUSH1 0x40 MLOAD DUP1 SWAP2 SUB SWAP1 REVERT JUMPDEST PUSH32 0x0 PUSH20 0xFFFFFFFFFFFFFFFFFFFFFFFFFFFFFFFFFFFFFFFF AND PUSH4 0x10DDB137 DUP3 PUSH1 0x40 MLOAD DUP3 PUSH4 0xFFFFFFFF AND PUSH1 0xE0 SHL DUP2 MSTORE PUSH1 0x4 ADD PUSH2 0xDE0 SWAP2 SWAP1 PUSH2 0x429E JUMP JUMPDEST PUSH1 0x0 PUSH1 0x40 MLOAD DUP1 DUP4 SUB DUP2 PUSH1 0x0 DUP8 DUP1 EXTCODESIZE ISZERO DUP1 ISZERO PUSH2 0xDFA JUMPI PUSH1 0x0 DUP1 REVERT JUMPDEST POP GAS CALL ISZERO DUP1 ISZERO PUSH2 0xE0E JUMPI RETURNDATASIZE PUSH1 0x0 DUP1 RETURNDATACOPY RETURNDATASIZE PUSH1 0x0 REVERT JUMPDEST POP POP POP POP POP JUMP JUMPDEST PUSH2 0xE26 PUSH2 0xE20 PUSH2 0x1E8D JUMP JUMPDEST DUP3 PUSH2 0x2139 JUMP JUMPDEST PUSH2 0xE65 JUMPI PUSH1 0x40 MLOAD PUSH32 0x8C379A000000000000000000000000000000000000000000000000000000000 DUP2 MSTORE PUSH1 0x4 ADD PUSH2 0xE5C SWAP1 PUSH2 0x44E1 JUMP JUMPDEST PUSH1 0x40 MLOAD DUP1 SWAP2 SUB SWAP1 REVERT JUMPDEST PUSH2 0xE70 DUP4 DUP4 DUP4 PUSH2 0x2217 JUMP JUMPDEST POP POP POP JUMP JUMPDEST PUSH1 0x0 DUP1 PUSH1 0x1 PUSH1 0x0 DUP7 PUSH2 0xFFFF AND PUSH2 0xFFFF AND DUP2 MSTORE PUSH1 0x20 ADD SWAP1 DUP2 MSTORE PUSH1 0x20 ADD PUSH1 0x0 KECCAK256 DUP1 SLOAD PUSH2 0xE9E SWAP1 PUSH2 0x40A9 JUMP JUMPDEST DUP1 PUSH1 0x1F ADD PUSH1 0x20 DUP1 SWAP2 DIV MUL PUSH1 0x20 ADD PUSH1 0x40 MLOAD SWAP1 DUP2 ADD PUSH1 0x40 MSTORE DUP1 SWAP3 SWAP2 SWAP1 DUP2 DUP2 MSTORE PUSH1 0x20 ADD DUP3 DUP1 SLOAD PUSH2 0xECA SWAP1 PUSH2 0x40A9 JUMP JUMPDEST DUP1 ISZERO PUSH2 0xF17 JUMPI DUP1 PUSH1 0x1F LT PUSH2 0xEEC JUMPI PUSH2 0x100 DUP1 DUP4 SLOAD DIV MUL DUP4 MSTORE SWAP2 PUSH1 0x20 ADD SWAP2 PUSH2 0xF17 JUMP JUMPDEST DUP3 ADD SWAP2 SWAP1 PUSH1 0x0 MSTORE PUSH1 0x20 PUSH1 0x0 KECCAK256 SWAP1 JUMPDEST DUP2 SLOAD DUP2 MSTORE SWAP1 PUSH1 0x1 ADD SWAP1 PUSH1 0x20 ADD DUP1 DUP4 GT PUSH2 0xEFA JUMPI DUP3 SWAP1 SUB PUSH1 0x1F AND DUP3 ADD SWAP2 JUMPDEST POP POP POP POP POP SWAP1 POP DUP4 DUP4 PUSH1 0x40 MLOAD PUSH2 0xF2E SWAP3 SWAP2 SWAP1 PUSH2 0x4526 JUMP JUMPDEST PUSH1 0x40 MLOAD DUP1 SWAP2 SUB SWAP1 KECCAK256 DUP2 DUP1 MLOAD SWAP1 PUSH1 0x20 ADD KECCAK256 EQ SWAP2 POP POP SWAP4 SWAP3 POP POP POP JUMP JUMPDEST PUSH2 0xF64 DUP4 DUP4 DUP4 PUSH1 0x40 MLOAD DUP1 PUSH1 0x20 ADD PUSH1 0x40 MSTORE DUP1 PUSH1 0x0 DUP2 MSTORE POP PUSH2 0x15AD JUMP JUMPDEST POP POP POP JUMP JUMPDEST PUSH2 0xF71 PUSH2 0x1E8D JUMP JUMPDEST PUSH20 0xFFFFFFFFFFFFFFFFFFFFFFFFFFFFFFFFFFFFFFFF AND PUSH2 0xF8F PUSH2 0x1494 JUMP JUMPDEST PUSH20 0xFFFFFFFFFFFFFFFFFFFFFFFFFFFFFFFFFFFFFFFF AND EQ PUSH2 0xFE5 JUMPI PUSH1 0x40 MLOAD PUSH32 0x8C379A000000000000000000000000000000000000000000000000000000000 DUP2 MSTORE PUSH1 0x4 ADD PUSH2 0xFDC SWAP1 PUSH2 0x426F JUMP JUMPDEST PUSH1 0x40 MLOAD DUP1 SWAP2 SUB SWAP1 REVERT JUMPDEST PUSH32 0x0 PUSH20 0xFFFFFFFFFFFFFFFFFFFFFFFFFFFFFFFFFFFFFFFF AND PUSH4 0x42D65A8D DUP5 DUP5 DUP5 PUSH1 0x40 MLOAD DUP5 PUSH4 0xFFFFFFFF AND PUSH1 0xE0 SHL DUP2 MSTORE PUSH1 0x4 ADD PUSH2 0x1042 SWAP4 SWAP3 SWAP2 SWAP1 PUSH2 0x456C JUMP JUMPDEST PUSH1 0x0 PUSH1 0x40 MLOAD DUP1 DUP4 SUB DUP2 PUSH1 0x0 DUP8 DUP1 EXTCODESIZE ISZERO DUP1 ISZERO PUSH2 0x105C JUMPI PUSH1 0x0 DUP1 REVERT JUMPDEST POP GAS CALL ISZERO DUP1 ISZERO PUSH2 0x1070 JUMPI RETURNDATASIZE PUSH1 0x0 DUP1 RETURNDATACOPY RETURNDATASIZE PUSH1 0x0 REVERT JUMPDEST POP POP POP POP POP POP POP JUMP JUMPDEST PUSH2 0x10CD DUP10 DUP10 DUP10 DUP10 DUP1 DUP1 PUSH1 0x1F ADD PUSH1 0x20 DUP1 SWAP2 DIV MUL PUSH1 0x20 ADD PUSH1 0x40 MLOAD SWAP1 DUP2 ADD PUSH1 0x40 MSTORE DUP1 SWAP4 SWAP3 SWAP2 SWAP1 DUP2 DUP2 MSTORE PUSH1 0x20 ADD DUP4 DUP4 DUP1 DUP3 DUP5 CALLDATACOPY PUSH1 0x0 DUP2 DUP5 ADD MSTORE PUSH1 0x1F NOT PUSH1 0x1F DUP3 ADD AND SWAP1 POP DUP1 DUP4 ADD SWAP3 POP POP POP POP POP POP POP DUP9 DUP9 DUP9 DUP9 DUP9 PUSH2 0x247E JUMP JUMPDEST POP POP POP POP POP POP POP POP POP JUMP JUMPDEST PUSH2 0x10E0 PUSH2 0x1E8D JUMP JUMPDEST PUSH20 0xFFFFFFFFFFFFFFFFFFFFFFFFFFFFFFFFFFFFFFFF AND PUSH2 0x10FE PUSH2 0x1494 JUMP JUMPDEST PUSH20 0xFFFFFFFFFFFFFFFFFFFFFFFFFFFFFFFFFFFFFFFF AND EQ PUSH2 0x1154 JUMPI PUSH1 0x40 MLOAD PUSH32 0x8C379A000000000000000000000000000000000000000000000000000000000 DUP2 MSTORE PUSH1 0x4 ADD PUSH2 0x114B SWAP1 PUSH2 0x426F JUMP JUMPDEST PUSH1 0x40 MLOAD DUP1 SWAP2 SUB SWAP1 REVERT JUMPDEST DUP1 PUSH1 0x9 SWAP1 DUP1 MLOAD SWAP1 PUSH1 0x20 ADD SWAP1 PUSH2 0x116A SWAP3 SWAP2 SWAP1 PUSH2 0x3202 JUMP JUMPDEST POP POP JUMP JUMPDEST PUSH1 0x0 DUP1 PUSH1 0x5 PUSH1 0x0 DUP5 DUP2 MSTORE PUSH1 0x20 ADD SWAP1 DUP2 MSTORE PUSH1 0x20 ADD PUSH1 0x0 KECCAK256 PUSH1 0x0 SWAP1 SLOAD SWAP1 PUSH2 0x100 EXP SWAP1 DIV PUSH20 0xFFFFFFFFFFFFFFFFFFFFFFFFFFFFFFFFFFFFFFFF AND SWAP1 POP PUSH1 0x0 PUSH20 0xFFFFFFFFFFFFFFFFFFFFFFFFFFFFFFFFFFFFFFFF AND DUP2 PUSH20 0xFFFFFFFFFFFFFFFFFFFFFFFFFFFFFFFFFFFFFFFF AND EQ ISZERO PUSH2 0x1217 JUMPI PUSH1 0x40 MLOAD PUSH32 0x8C379A000000000000000000000000000000000000000000000000000000000 DUP2 MSTORE PUSH1 0x4 ADD PUSH2 0x120E SWAP1 PUSH2 0x4610 JUMP JUMPDEST PUSH1 0x40 MLOAD DUP1 SWAP2 SUB SWAP1 REVERT JUMPDEST DUP1 SWAP2 POP POP SWAP2 SWAP1 POP JUMP JUMPDEST ADDRESS PUSH20 0xFFFFFFFFFFFFFFFFFFFFFFFFFFFFFFFFFFFFFFFF AND PUSH2 0x123F PUSH2 0x1E8D JUMP JUMPDEST PUSH20 0xFFFFFFFFFFFFFFFFFFFFFFFFFFFFFFFFFFFFFFFF AND EQ PUSH2 0x1295 JUMPI PUSH1 0x40 MLOAD PUSH32 0x8C379A000000000000000000000000000000000000000000000000000000000 DUP2 MSTORE PUSH1 0x4 ADD PUSH2 0x128C SWAP1 PUSH2 0x46A2 JUMP JUMPDEST PUSH1 0x40 MLOAD DUP1 SWAP2 SUB SWAP1 REVERT JUMPDEST PUSH2 0x12A1 DUP5 DUP5 DUP5 DUP5 PUSH2 0x2683 JUMP JUMPDEST POP POP POP POP JUMP JUMPDEST PUSH1 0x60 PUSH1 0x1 PUSH1 0x0 DUP4 PUSH2 0xFFFF AND PUSH2 0xFFFF AND DUP2 MSTORE PUSH1 0x20 ADD SWAP1 DUP2 MSTORE PUSH1 0x20 ADD PUSH1 0x0 KECCAK256 DUP1 SLOAD PUSH2 0x12CF SWAP1 PUSH2 0x40A9 JUMP JUMPDEST DUP1 PUSH1 0x1F ADD PUSH1 0x20 DUP1 SWAP2 DIV MUL PUSH1 0x20 ADD PUSH1 0x40 MLOAD SWAP1 DUP2 ADD PUSH1 0x40 MSTORE DUP1 SWAP3 SWAP2 SWAP1 DUP2 DUP2 MSTORE PUSH1 0x20 ADD DUP3 DUP1 SLOAD PUSH2 0x12FB SWAP1 PUSH2 0x40A9 JUMP JUMPDEST DUP1 ISZERO PUSH2 0x1348 JUMPI DUP1 PUSH1 0x1F LT PUSH2 0x131D JUMPI PUSH2 0x100 DUP1 DUP4 SLOAD DIV MUL DUP4 MSTORE SWAP2 PUSH1 0x20 ADD SWAP2 PUSH2 0x1348 JUMP JUMPDEST DUP3 ADD SWAP2 SWAP1 PUSH1 0x0 MSTORE PUSH1 0x20 PUSH1 0x0 KECCAK256 SWAP1 JUMPDEST DUP2 SLOAD DUP2 MSTORE SWAP1 PUSH1 0x1 ADD SWAP1 PUSH1 0x20 ADD DUP1 DUP4 GT PUSH2 0x132B JUMPI DUP3 SWAP1 SUB PUSH1 0x1F AND DUP3 ADD SWAP2 JUMPDEST POP POP POP POP POP SWAP1 POP SWAP2 SWAP1 POP JUMP JUMPDEST PUSH1 0x0 DUP1 PUSH20 0xFFFFFFFFFFFFFFFFFFFFFFFFFFFFFFFFFFFFFFFF AND DUP3 PUSH20 0xFFFFFFFFFFFFFFFFFFFFFFFFFFFFFFFFFFFFFFFF AND EQ ISZERO PUSH2 0x13C5 JUMPI PUSH1 0x40 MLOAD PUSH32 0x8C379A000000000000000000000000000000000000000000000000000000000 DUP2 MSTORE PUSH1 0x4 ADD PUSH2 0x13BC SWAP1 PUSH2 0x4734 JUMP JUMPDEST PUSH1 0x40 MLOAD DUP1 SWAP2 SUB SWAP1 REVERT JUMPDEST PUSH1 0x6 PUSH1 0x0 DUP4 PUSH20 0xFFFFFFFFFFFFFFFFFFFFFFFFFFFFFFFFFFFFFFFF AND PUSH20 0xFFFFFFFFFFFFFFFFFFFFFFFFFFFFFFFFFFFFFFFF AND DUP2 MSTORE PUSH1 0x20 ADD SWAP1 DUP2 MSTORE PUSH1 0x20 ADD PUSH1 0x0 KECCAK256 SLOAD SWAP1 POP SWAP2 SWAP1 POP JUMP JUMPDEST PUSH2 0x1414 PUSH2 0x1E8D JUMP JUMPDEST PUSH20 0xFFFFFFFFFFFFFFFFFFFFFFFFFFFFFFFFFFFFFFFF AND PUSH2 0x1432 PUSH2 0x1494 JUMP JUMPDEST PUSH20 0xFFFFFFFFFFFFFFFFFFFFFFFFFFFFFFFFFFFFFFFF AND EQ PUSH2 0x1488 JUMPI PUSH1 0x40 MLOAD PUSH32 0x8C379A000000000000000000000000000000000000000000000000000000000 DUP2 MSTORE PUSH1 0x4 ADD PUSH2 0x147F SWAP1 PUSH2 0x426F JUMP JUMPDEST PUSH1 0x40 MLOAD DUP1 SWAP2 SUB SWAP1 REVERT JUMPDEST PUSH2 0x1492 PUSH1 0x0 PUSH2 0x2703 JUMP JUMPDEST JUMP JUMPDEST PUSH1 0x0 DUP1 PUSH1 0x0 SWAP1 SLOAD SWAP1 PUSH2 0x100 EXP SWAP1 DIV PUSH20 0xFFFFFFFFFFFFFFFFFFFFFFFFFFFFFFFFFFFFFFFF AND SWAP1 POP SWAP1 JUMP JUMPDEST PUSH1 0x2 PUSH1 0x20 MSTORE DUP3 PUSH1 0x0 MSTORE PUSH1 0x40 PUSH1 0x0 KECCAK256 DUP3 DUP1 MLOAD PUSH1 0x20 DUP2 ADD DUP3 ADD DUP1 MLOAD DUP5 DUP3 MSTORE PUSH1 0x20 DUP4 ADD PUSH1 0x20 DUP6 ADD KECCAK256 DUP2 DUP4 MSTORE DUP1 SWAP6 POP POP POP POP POP POP PUSH1 0x20 MSTORE DUP1 PUSH1 0x0 MSTORE PUSH1 0x40 PUSH1 0x0 KECCAK256 PUSH1 0x0 SWAP3 POP SWAP3 POP POP POP SLOAD DUP2 JUMP JUMPDEST PUSH1 0x60 PUSH1 0x4 DUP1 SLOAD PUSH2 0x1514 SWAP1 PUSH2 0x40A9 JUMP JUMPDEST DUP1 PUSH1 0x1F ADD PUSH1 0x20 DUP1 SWAP2 DIV MUL PUSH1 0x20 ADD PUSH1 0x40 MLOAD SWAP1 DUP2 ADD PUSH1 0x40 MSTORE DUP1 SWAP3 SWAP2 SWAP1 DUP2 DUP2 MSTORE PUSH1 0x20 ADD DUP3 DUP1 SLOAD PUSH2 0x1540 SWAP1 PUSH2 0x40A9 JUMP JUMPDEST DUP1 ISZERO PUSH2 0x158D JUMPI DUP1 PUSH1 0x1F LT PUSH2 0x1562 JUMPI PUSH2 0x100 DUP1 DUP4 SLOAD DIV MUL DUP4 MSTORE SWAP2 PUSH1 0x20 ADD SWAP2 PUSH2 0x158D JUMP JUMPDEST DUP3 ADD SWAP2 SWAP1 PUSH1 0x0 MSTORE PUSH1 0x20 PUSH1 0x0 KECCAK256 SWAP1 JUMPDEST DUP2 SLOAD DUP2 MSTORE SWAP1 PUSH1 0x1 ADD SWAP1 PUSH1 0x20 ADD DUP1 DUP4 GT PUSH2 0x1570 JUMPI DUP3 SWAP1 SUB PUSH1 0x1F AND DUP3 ADD SWAP2 JUMPDEST POP POP POP POP POP SWAP1 POP SWAP1 JUMP JUMPDEST PUSH2 0x15A9 PUSH2 0x15A2 PUSH2 0x1E8D JUMP JUMPDEST DUP4 DUP4 PUSH2 0x27C7 JUMP JUMPDEST POP POP JUMP JUMPDEST PUSH2 0x15BE PUSH2 0x15B8 PUSH2 0x1E8D JUMP JUMPDEST DUP4 PUSH2 0x2139 JUMP JUMPDEST PUSH2 0x15FD JUMPI PUSH1 0x40 MLOAD PUSH32 0x8C379A000000000000000000000000000000000000000000000000000000000 DUP2 MSTORE PUSH1 0x4 ADD PUSH2 0x15F4 SWAP1 PUSH2 0x44E1 JUMP JUMPDEST PUSH1 0x40 MLOAD DUP1 SWAP2 SUB SWAP1 REVERT JUMPDEST PUSH2 0x1609 DUP5 DUP5 DUP5 DUP5 PUSH2 0x2934 JUMP JUMPDEST POP POP POP POP JUMP JUMPDEST PUSH1 0x60 PUSH2 0x161A DUP3 PUSH2 0x2014 JUMP JUMPDEST PUSH2 0x1659 JUMPI PUSH1 0x40 MLOAD PUSH32 0x8C379A000000000000000000000000000000000000000000000000000000000 DUP2 MSTORE PUSH1 0x4 ADD PUSH2 0x1650 SWAP1 PUSH2 0x47C6 JUMP JUMPDEST PUSH1 0x40 MLOAD DUP1 SWAP2 SUB SWAP1 REVERT JUMPDEST PUSH1 0x0 PUSH2 0x1663 PUSH2 0x2990 JUMP JUMPDEST SWAP1 POP PUSH1 0x0 DUP2 MLOAD GT PUSH2 0x1683 JUMPI PUSH1 0x40 MLOAD DUP1 PUSH1 0x20 ADD PUSH1 0x40 MSTORE DUP1 PUSH1 0x0 DUP2 MSTORE POP PUSH2 0x16AE JUMP JUMPDEST DUP1 PUSH2 0x168D DUP5 PUSH2 0x2A22 JUMP JUMPDEST PUSH1 0x40 MLOAD PUSH1 0x20 ADD PUSH2 0x169E SWAP3 SWAP2 SWAP1 PUSH2 0x4822 JUMP JUMPDEST PUSH1 0x40 MLOAD PUSH1 0x20 DUP2 DUP4 SUB SUB DUP2 MSTORE SWAP1 PUSH1 0x40 MSTORE JUMPDEST SWAP2 POP POP SWAP2 SWAP1 POP JUMP JUMPDEST PUSH2 0x16BE PUSH2 0x1E8D JUMP JUMPDEST PUSH20 0xFFFFFFFFFFFFFFFFFFFFFFFFFFFFFFFFFFFFFFFF AND PUSH2 0x16DC PUSH2 0x1494 JUMP JUMPDEST PUSH20 0xFFFFFFFFFFFFFFFFFFFFFFFFFFFFFFFFFFFFFFFF AND EQ PUSH2 0x1732 JUMPI PUSH1 0x40 MLOAD PUSH32 0x8C379A000000000000000000000000000000000000000000000000000000000 DUP2 MSTORE PUSH1 0x4 ADD PUSH2 0x1729 SWAP1 PUSH2 0x426F JUMP JUMPDEST PUSH1 0x40 MLOAD DUP1 SWAP2 SUB SWAP1 REVERT JUMPDEST PUSH32 0x0 PUSH20 0xFFFFFFFFFFFFFFFFFFFFFFFFFFFFFFFFFFFFFFFF AND PUSH4 0xCBED8B9C DUP7 DUP7 DUP7 DUP7 DUP7 PUSH1 0x40 MLOAD DUP7 PUSH4 0xFFFFFFFF AND PUSH1 0xE0 SHL DUP2 MSTORE PUSH1 0x4 ADD PUSH2 0x1793 SWAP6 SWAP5 SWAP4 SWAP3 SWAP2 SWAP1 PUSH2 0x4846 JUMP JUMPDEST PUSH1 0x0 PUSH1 0x40 MLOAD DUP1 DUP4 SUB DUP2 PUSH1 0x0 DUP8 DUP1 EXTCODESIZE ISZERO DUP1 ISZERO PUSH2 0x17AD JUMPI PUSH1 0x0 DUP1 REVERT JUMPDEST POP GAS CALL ISZERO DUP1 ISZERO PUSH2 0x17C1 JUMPI RETURNDATASIZE PUSH1 0x0 DUP1 RETURNDATACOPY RETURNDATASIZE PUSH1 0x0 REVERT JUMPDEST POP POP POP POP POP POP POP POP POP JUMP JUMPDEST PUSH1 0x0 PUSH1 0x2 PUSH1 0x0 DUP8 PUSH2 0xFFFF AND PUSH2 0xFFFF AND DUP2 MSTORE PUSH1 0x20 ADD SWAP1 DUP2 MSTORE PUSH1 0x20 ADD PUSH1 0x0 KECCAK256 DUP6 PUSH1 0x40 MLOAD PUSH2 0x17F7 SWAP2 SWAP1 PUSH2 0x48C5 JUMP JUMPDEST SWAP1 DUP2 MSTORE PUSH1 0x20 ADD PUSH1 0x40 MLOAD DUP1 SWAP2 SUB SWAP1 KECCAK256 PUSH1 0x0 DUP6 PUSH8 0xFFFFFFFFFFFFFFFF AND DUP2 MSTORE PUSH1 0x20 ADD SWAP1 DUP2 MSTORE PUSH1 0x20 ADD PUSH1 0x0 KECCAK256 SLOAD SWAP1 POP PUSH1 0x0 DUP1 SHL DUP2 EQ ISZERO PUSH2 0x1869 JUMPI PUSH1 0x40 MLOAD PUSH32 0x8C379A000000000000000000000000000000000000000000000000000000000 DUP2 MSTORE PUSH1 0x4 ADD PUSH2 0x1860 SWAP1 PUSH2 0x4928 JUMP JUMPDEST PUSH1 0x40 MLOAD DUP1 SWAP2 SUB SWAP1 REVERT JUMPDEST DUP1 DUP4 DUP4 PUSH1 0x40 MLOAD PUSH2 0x187A SWAP3 SWAP2 SWAP1 PUSH2 0x4526 JUMP JUMPDEST PUSH1 0x40 MLOAD DUP1 SWAP2 SUB SWAP1 KECCAK256 EQ PUSH2 0x18C2 JUMPI PUSH1 0x40 MLOAD PUSH32 0x8C379A000000000000000000000000000000000000000000000000000000000 DUP2 MSTORE PUSH1 0x4 ADD PUSH2 0x18B9 SWAP1 PUSH2 0x4994 JUMP JUMPDEST PUSH1 0x40 MLOAD DUP1 SWAP2 SUB SWAP1 REVERT JUMPDEST PUSH1 0x0 DUP1 SHL PUSH1 0x2 PUSH1 0x0 DUP9 PUSH2 0xFFFF AND PUSH2 0xFFFF AND DUP2 MSTORE PUSH1 0x20 ADD SWAP1 DUP2 MSTORE PUSH1 0x20 ADD PUSH1 0x0 KECCAK256 DUP7 PUSH1 0x40 MLOAD PUSH2 0x18EF SWAP2 SWAP1 PUSH2 0x48C5 JUMP JUMPDEST SWAP1 DUP2 MSTORE PUSH1 0x20 ADD PUSH1 0x40 MLOAD DUP1 SWAP2 SUB SWAP1 KECCAK256 PUSH1 0x0 DUP7 PUSH8 0xFFFFFFFFFFFFFFFF AND DUP2 MSTORE PUSH1 0x20 ADD SWAP1 DUP2 MSTORE PUSH1 0x20 ADD PUSH1 0x0 KECCAK256 DUP2 SWAP1 SSTORE POP ADDRESS PUSH20 0xFFFFFFFFFFFFFFFFFFFFFFFFFFFFFFFFFFFFFFFF AND PUSH4 0x66AD5C8A DUP8 DUP8 DUP8 DUP8 DUP8 PUSH1 0x40 MLOAD DUP7 PUSH4 0xFFFFFFFF AND PUSH1 0xE0 SHL DUP2 MSTORE PUSH1 0x4 ADD PUSH2 0x195D SWAP6 SWAP5 SWAP4 SWAP3 SWAP2 SWAP1 PUSH2 0x49C3 JUMP JUMPDEST PUSH1 0x0 PUSH1 0x40 MLOAD DUP1 DUP4 SUB DUP2 PUSH1 0x0 DUP8 DUP1 EXTCODESIZE ISZERO DUP1 ISZERO PUSH2 0x1977 JUMPI PUSH1 0x0 DUP1 REVERT JUMPDEST POP GAS CALL ISZERO DUP1 ISZERO PUSH2 0x198B JUMPI RETURNDATASIZE PUSH1 0x0 DUP1 RETURNDATACOPY RETURNDATASIZE PUSH1 0x0 REVERT JUMPDEST POP POP POP POP POP POP POP POP POP POP JUMP JUMPDEST PUSH1 0x9 DUP1 SLOAD PUSH2 0x19A4 SWAP1 PUSH2 0x40A9 JUMP JUMPDEST DUP1 PUSH1 0x1F ADD PUSH1 0x20 DUP1 SWAP2 DIV MUL PUSH1 0x20 ADD PUSH1 0x40 MLOAD SWAP1 DUP2 ADD PUSH1 0x40 MSTORE DUP1 SWAP3 SWAP2 SWAP1 DUP2 DUP2 MSTORE PUSH1 0x20 ADD DUP3 DUP1 SLOAD PUSH2 0x19D0 SWAP1 PUSH2 0x40A9 JUMP JUMPDEST DUP1 ISZERO PUSH2 0x1A1D JUMPI DUP1 PUSH1 0x1F LT PUSH2 0x19F2 JUMPI PUSH2 0x100 DUP1 DUP4 SLOAD DIV MUL DUP4 MSTORE SWAP2 PUSH1 0x20 ADD SWAP2 PUSH2 0x1A1D JUMP JUMPDEST DUP3 ADD SWAP2 SWAP1 PUSH1 0x0 MSTORE PUSH1 0x20 PUSH1 0x0 KECCAK256 SWAP1 JUMPDEST DUP2 SLOAD DUP2 MSTORE SWAP1 PUSH1 0x1 ADD SWAP1 PUSH1 0x20 ADD DUP1 DUP4 GT PUSH2 0x1A00 JUMPI DUP3 SWAP1 SUB PUSH1 0x1F AND DUP3 ADD SWAP2 JUMPDEST POP POP POP POP POP DUP2 JUMP JUMPDEST PUSH1 0x0 PUSH32 0x0 SWAP1 POP SWAP1 JUMP JUMPDEST PUSH1 0x0 PUSH1 0x8 PUSH1 0x0 DUP5 PUSH20 0xFFFFFFFFFFFFFFFFFFFFFFFFFFFFFFFFFFFFFFFF AND PUSH20 0xFFFFFFFFFFFFFFFFFFFFFFFFFFFFFFFFFFFFFFFF AND DUP2 MSTORE PUSH1 0x20 ADD SWAP1 DUP2 MSTORE PUSH1 0x20 ADD PUSH1 0x0 KECCAK256 PUSH1 0x0 DUP4 PUSH20 0xFFFFFFFFFFFFFFFFFFFFFFFFFFFFFFFFFFFFFFFF AND PUSH20 0xFFFFFFFFFFFFFFFFFFFFFFFFFFFFFFFFFFFFFFFF AND DUP2 MSTORE PUSH1 0x20 ADD SWAP1 DUP2 MSTORE PUSH1 0x20 ADD PUSH1 0x0 KECCAK256 PUSH1 0x0 SWAP1 SLOAD SWAP1 PUSH2 0x100 EXP SWAP1 DIV PUSH1 0xFF AND SWAP1 POP SWAP3 SWAP2 POP POP JUMP JUMPDEST PUSH2 0x1AE9 PUSH2 0x1E8D JUMP JUMPDEST PUSH20 0xFFFFFFFFFFFFFFFFFFFFFFFFFFFFFFFFFFFFFFFF AND PUSH2 0x1B07 PUSH2 0x1494 JUMP JUMPDEST PUSH20 0xFFFFFFFFFFFFFFFFFFFFFFFFFFFFFFFFFFFFFFFF AND EQ PUSH2 0x1B5D JUMPI PUSH1 0x40 MLOAD PUSH32 0x8C379A000000000000000000000000000000000000000000000000000000000 DUP2 MSTORE PUSH1 0x4 ADD PUSH2 0x1B54 SWAP1 PUSH2 0x426F JUMP JUMPDEST PUSH1 0x40 MLOAD DUP1 SWAP2 SUB SWAP1 REVERT JUMPDEST DUP2 DUP2 PUSH1 0x1 PUSH1 0x0 DUP7 PUSH2 0xFFFF AND PUSH2 0xFFFF AND DUP2 MSTORE PUSH1 0x20 ADD SWAP1 DUP2 MSTORE PUSH1 0x20 ADD PUSH1 0x0 KECCAK256 SWAP2 SWAP1 PUSH2 0x1B87 SWAP3 SWAP2 SWAP1 PUSH2 0x3288 JUMP JUMPDEST POP PUSH32 0xFA41487AD5D6728F0B19276FA1EDDC16558578F5109FC39D2DC33C3230470DAB DUP4 DUP4 DUP4 PUSH1 0x40 MLOAD PUSH2 0x1BBB SWAP4 SWAP3 SWAP2 SWAP1 PUSH2 0x456C JUMP JUMPDEST PUSH1 0x40 MLOAD DUP1 SWAP2 SUB SWAP1 LOG1 POP POP POP JUMP JUMPDEST PUSH2 0x1C23 PUSH2 0x1BD3 PUSH2 0x1E8D JUMP JUMPDEST DUP10 DUP10 DUP10 DUP1 DUP1 PUSH1 0x1F ADD PUSH1 0x20 DUP1 SWAP2 DIV MUL PUSH1 0x20 ADD PUSH1 0x40 MLOAD SWAP1 DUP2 ADD PUSH1 0x40 MSTORE DUP1 SWAP4 SWAP3 SWAP2 SWAP1 DUP2 DUP2 MSTORE PUSH1 0x20 ADD DUP4 DUP4 DUP1 DUP3 DUP5 CALLDATACOPY PUSH1 0x0 DUP2 DUP5 ADD MSTORE PUSH1 0x1F NOT PUSH1 0x1F DUP3 ADD AND SWAP1 POP DUP1 DUP4 ADD SWAP3 POP POP POP POP POP POP POP DUP9 DUP9 DUP9 DUP9 DUP9 PUSH2 0x247E JUMP JUMPDEST POP POP POP POP POP POP POP POP JUMP JUMPDEST PUSH2 0x1C35 PUSH2 0x1E8D JUMP JUMPDEST PUSH20 0xFFFFFFFFFFFFFFFFFFFFFFFFFFFFFFFFFFFFFFFF AND PUSH2 0x1C53 PUSH2 0x1494 JUMP JUMPDEST PUSH20 0xFFFFFFFFFFFFFFFFFFFFFFFFFFFFFFFFFFFFFFFF AND EQ PUSH2 0x1CA9 JUMPI PUSH1 0x40 MLOAD PUSH32 0x8C379A000000000000000000000000000000000000000000000000000000000 DUP2 MSTORE PUSH1 0x4 ADD PUSH2 0x1CA0 SWAP1 PUSH2 0x426F JUMP JUMPDEST PUSH1 0x40 MLOAD DUP1 SWAP2 SUB SWAP1 REVERT JUMPDEST PUSH1 0x0 PUSH20 0xFFFFFFFFFFFFFFFFFFFFFFFFFFFFFFFFFFFFFFFF AND DUP2 PUSH20 0xFFFFFFFFFFFFFFFFFFFFFFFFFFFFFFFFFFFFFFFF AND EQ ISZERO PUSH2 0x1D19 JUMPI PUSH1 0x40 MLOAD PUSH32 0x8C379A000000000000000000000000000000000000000000000000000000000 DUP2 MSTORE PUSH1 0x4 ADD PUSH2 0x1D10 SWAP1 PUSH2 0x4A8A JUMP JUMPDEST PUSH1 0x40 MLOAD DUP1 SWAP2 SUB SWAP1 REVERT JUMPDEST PUSH2 0x1D22 DUP2 PUSH2 0x2703 JUMP JUMPDEST POP JUMP JUMPDEST PUSH1 0x60 PUSH32 0x0 PUSH20 0xFFFFFFFFFFFFFFFFFFFFFFFFFFFFFFFFFFFFFFFF AND PUSH4 0xF5ECBDBC PUSH32 0x0 PUSH20 0xFFFFFFFFFFFFFFFFFFFFFFFFFFFFFFFFFFFFFFFF AND PUSH4 0x96568F6 ADDRESS PUSH1 0x40 MLOAD DUP3 PUSH4 0xFFFFFFFF AND PUSH1 0xE0 SHL DUP2 MSTORE PUSH1 0x4 ADD PUSH2 0x1DBC SWAP2 SWAP1 PUSH2 0x37D4 JUMP JUMPDEST PUSH1 0x20 PUSH1 0x40 MLOAD DUP1 DUP4 SUB DUP2 DUP7 DUP1 EXTCODESIZE ISZERO DUP1 ISZERO PUSH2 0x1DD4 JUMPI PUSH1 0x0 DUP1 REVERT JUMPDEST POP GAS STATICCALL ISZERO DUP1 ISZERO PUSH2 0x1DE8 JUMPI RETURNDATASIZE PUSH1 0x0 DUP1 RETURNDATACOPY RETURNDATASIZE PUSH1 0x0 REVERT JUMPDEST POP POP POP POP PUSH1 0x40 MLOAD RETURNDATASIZE PUSH1 0x1F NOT PUSH1 0x1F DUP3 ADD AND DUP3 ADD DUP1 PUSH1 0x40 MSTORE POP DUP2 ADD SWAP1 PUSH2 0x1E0C SWAP2 SWAP1 PUSH2 0x4ABF JUMP JUMPDEST DUP7 ADDRESS DUP7 PUSH1 0x40 MLOAD DUP6 PUSH4 0xFFFFFFFF AND PUSH1 0xE0 SHL DUP2 MSTORE PUSH1 0x4 ADD PUSH2 0x1E2E SWAP5 SWAP4 SWAP3 SWAP2 SWAP1 PUSH2 0x4AEC JUMP JUMPDEST PUSH1 0x0 PUSH1 0x40 MLOAD DUP1 DUP4 SUB DUP2 DUP7 DUP1 EXTCODESIZE ISZERO DUP1 ISZERO PUSH2 0x1E46 JUMPI PUSH1 0x0 DUP1 REVERT JUMPDEST POP GAS STATICCALL ISZERO DUP1 ISZERO PUSH2 0x1E5A JUMPI RETURNDATASIZE PUSH1 0x0 DUP1 RETURNDATACOPY RETURNDATASIZE PUSH1 0x0 REVERT JUMPDEST POP POP POP POP PUSH1 0x40 MLOAD RETURNDATASIZE PUSH1 0x0 DUP3 RETURNDATACOPY RETURNDATASIZE PUSH1 0x1F NOT PUSH1 0x1F DUP3 ADD AND DUP3 ADD DUP1 PUSH1 0x40 MSTORE POP DUP2 ADD SWAP1 PUSH2 0x1E83 SWAP2 SWAP1 PUSH2 0x4BA1 JUMP JUMPDEST SWAP1 POP SWAP5 SWAP4 POP POP POP POP JUMP JUMPDEST PUSH1 0x0 CALLER SWAP1 POP SWAP1 JUMP JUMPDEST ADDRESS PUSH20 0xFFFFFFFFFFFFFFFFFFFFFFFFFFFFFFFFFFFFFFFF AND PUSH4 0x66AD5C8A DUP6 DUP6 DUP6 DUP6 PUSH1 0x40 MLOAD DUP6 PUSH4 0xFFFFFFFF AND PUSH1 0xE0 SHL DUP2 MSTORE PUSH1 0x4 ADD PUSH2 0x1ED4 SWAP5 SWAP4 SWAP3 SWAP2 SWAP1 PUSH2 0x4BEA JUMP JUMPDEST PUSH1 0x0 PUSH1 0x40 MLOAD DUP1 DUP4 SUB DUP2 PUSH1 0x0 DUP8 DUP1 EXTCODESIZE ISZERO DUP1 ISZERO PUSH2 0x1EEE JUMPI PUSH1 0x0 DUP1 REVERT JUMPDEST POP GAS CALL SWAP3 POP POP POP DUP1 ISZERO PUSH2 0x1EFF JUMPI POP PUSH1 0x1 JUMPDEST PUSH2 0x1FA3 JUMPI DUP1 DUP1 MLOAD SWAP1 PUSH1 0x20 ADD KECCAK256 PUSH1 0x2 PUSH1 0x0 DUP7 PUSH2 0xFFFF AND PUSH2 0xFFFF AND DUP2 MSTORE PUSH1 0x20 ADD SWAP1 DUP2 MSTORE PUSH1 0x20 ADD PUSH1 0x0 KECCAK256 DUP5 PUSH1 0x40 MLOAD PUSH2 0x1F34 SWAP2 SWAP1 PUSH2 0x48C5 JUMP JUMPDEST SWAP1 DUP2 MSTORE PUSH1 0x20 ADD PUSH1 0x40 MLOAD DUP1 SWAP2 SUB SWAP1 KECCAK256 PUSH1 0x0 DUP5 PUSH8 0xFFFFFFFFFFFFFFFF AND DUP2 MSTORE PUSH1 0x20 ADD SWAP1 DUP2 MSTORE PUSH1 0x20 ADD PUSH1 0x0 KECCAK256 DUP2 SWAP1 SSTORE POP PUSH32 0xE6F254030BCB01FFD20558175C13FCAED6D1520BE7BECEE4C961B65F79243B0D DUP5 DUP5 DUP5 DUP5 PUSH1 0x40 MLOAD PUSH2 0x1F96 SWAP5 SWAP4 SWAP3 SWAP2 SWAP1 PUSH2 0x4BEA JUMP JUMPDEST PUSH1 0x40 MLOAD DUP1 SWAP2 SUB SWAP1 LOG1 PUSH2 0x1FA4 JUMP JUMPDEST JUMPDEST POP POP POP POP JUMP JUMPDEST PUSH1 0x0 PUSH32 0x1FFC9A700000000000000000000000000000000000000000000000000000000 PUSH28 0xFFFFFFFFFFFFFFFFFFFFFFFFFFFFFFFFFFFFFFFFFFFFFFFFFFFFFFFF NOT AND DUP3 PUSH28 0xFFFFFFFFFFFFFFFFFFFFFFFFFFFFFFFFFFFFFFFFFFFFFFFFFFFFFFFF NOT AND EQ SWAP1 POP SWAP2 SWAP1 POP JUMP JUMPDEST PUSH1 0x0 DUP1 PUSH20 0xFFFFFFFFFFFFFFFFFFFFFFFFFFFFFFFFFFFFFFFF AND PUSH1 0x5 PUSH1 0x0 DUP5 DUP2 MSTORE PUSH1 0x20 ADD SWAP1 DUP2 MSTORE PUSH1 0x20 ADD PUSH1 0x0 KECCAK256 PUSH1 0x0 SWAP1 SLOAD SWAP1 PUSH2 0x100 EXP SWAP1 DIV PUSH20 0xFFFFFFFFFFFFFFFFFFFFFFFFFFFFFFFFFFFFFFFF AND PUSH20 0xFFFFFFFFFFFFFFFFFFFFFFFFFFFFFFFFFFFFFFFF AND EQ ISZERO SWAP1 POP SWAP2 SWAP1 POP JUMP JUMPDEST DUP2 PUSH1 0x7 PUSH1 0x0 DUP4 DUP2 MSTORE PUSH1 0x20 ADD SWAP1 DUP2 MSTORE PUSH1 0x20 ADD PUSH1 0x0 KECCAK256 PUSH1 0x0 PUSH2 0x100 EXP DUP2 SLOAD DUP2 PUSH20 0xFFFFFFFFFFFFFFFFFFFFFFFFFFFFFFFFFFFFFFFF MUL NOT AND SWAP1 DUP4 PUSH20 0xFFFFFFFFFFFFFFFFFFFFFFFFFFFFFFFFFFFFFFFF AND MUL OR SWAP1 SSTORE POP DUP1 DUP3 PUSH20 0xFFFFFFFFFFFFFFFFFFFFFFFFFFFFFFFFFFFFFFFF AND PUSH2 0x20F3 DUP4 PUSH2 0x116E JUMP JUMPDEST PUSH20 0xFFFFFFFFFFFFFFFFFFFFFFFFFFFFFFFFFFFFFFFF AND PUSH32 0x8C5BE1E5EBEC7D5BD14F71427D1E84F3DD0314C0F7B2291E5B200AC8C7C3B925 PUSH1 0x40 MLOAD PUSH1 0x40 MLOAD DUP1 SWAP2 SUB SWAP1 LOG4 POP POP JUMP JUMPDEST PUSH1 0x0 PUSH2 0x2144 DUP3 PUSH2 0x2014 JUMP JUMPDEST PUSH2 0x2183 JUMPI PUSH1 0x40 MLOAD PUSH32 0x8C379A000000000000000000000000000000000000000000000000000000000 DUP2 MSTORE PUSH1 0x4 ADD PUSH2 0x217A SWAP1 PUSH2 0x4CAF JUMP JUMPDEST PUSH1 0x40 MLOAD DUP1 SWAP2 SUB SWAP1 REVERT JUMPDEST PUSH1 0x0 PUSH2 0x218E DUP4 PUSH2 0x116E JUMP JUMPDEST SWAP1 POP DUP1 PUSH20 0xFFFFFFFFFFFFFFFFFFFFFFFFFFFFFFFFFFFFFFFF AND DUP5 PUSH20 0xFFFFFFFFFFFFFFFFFFFFFFFFFFFFFFFFFFFFFFFF AND EQ DUP1 PUSH2 0x21FD JUMPI POP DUP4 PUSH20 0xFFFFFFFFFFFFFFFFFFFFFFFFFFFFFFFFFFFFFFFF AND PUSH2 0x21E5 DUP5 PUSH2 0xB6E JUMP JUMPDEST PUSH20 0xFFFFFFFFFFFFFFFFFFFFFFFFFFFFFFFFFFFFFFFF AND EQ JUMPDEST DUP1 PUSH2 0x220E JUMPI POP PUSH2 0x220D DUP2 DUP6 PUSH2 0x1A4D JUMP JUMPDEST JUMPDEST SWAP2 POP POP SWAP3 SWAP2 POP POP JUMP JUMPDEST DUP3 PUSH20 0xFFFFFFFFFFFFFFFFFFFFFFFFFFFFFFFFFFFFFFFF AND PUSH2 0x2237 DUP3 PUSH2 0x116E JUMP JUMPDEST PUSH20 0xFFFFFFFFFFFFFFFFFFFFFFFFFFFFFFFFFFFFFFFF AND EQ PUSH2 0x228D JUMPI PUSH1 0x40 MLOAD PUSH32 0x8C379A000000000000000000000000000000000000000000000000000000000 DUP2 MSTORE PUSH1 0x4 ADD PUSH2 0x2284 SWAP1 PUSH2 0x4D41 JUMP JUMPDEST PUSH1 0x40 MLOAD DUP1 SWAP2 SUB SWAP1 REVERT JUMPDEST PUSH1 0x0 PUSH20 0xFFFFFFFFFFFFFFFFFFFFFFFFFFFFFFFFFFFFFFFF AND DUP3 PUSH20 0xFFFFFFFFFFFFFFFFFFFFFFFFFFFFFFFFFFFFFFFF AND EQ ISZERO PUSH2 0x22FD JUMPI PUSH1 0x40 MLOAD PUSH32 0x8C379A000000000000000000000000000000000000000000000000000000000 DUP2 MSTORE PUSH1 0x4 ADD PUSH2 0x22F4 SWAP1 PUSH2 0x4DD3 JUMP JUMPDEST PUSH1 0x40 MLOAD DUP1 SWAP2 SUB SWAP1 REVERT JUMPDEST PUSH2 0x2308 DUP4 DUP4 DUP4 PUSH2 0x2B83 JUMP JUMPDEST PUSH2 0x2313 PUSH1 0x0 DUP3 PUSH2 0x2080 JUMP JUMPDEST PUSH1 0x1 PUSH1 0x6 PUSH1 0x0 DUP6 PUSH20 0xFFFFFFFFFFFFFFFFFFFFFFFFFFFFFFFFFFFFFFFF AND PUSH20 0xFFFFFFFFFFFFFFFFFFFFFFFFFFFFFFFFFFFFFFFF AND DUP2 MSTORE PUSH1 0x20 ADD SWAP1 DUP2 MSTORE PUSH1 0x20 ADD PUSH1 0x0 KECCAK256 PUSH1 0x0 DUP3 DUP3 SLOAD PUSH2 0x2363 SWAP2 SWAP1 PUSH2 0x4E22 JUMP JUMPDEST SWAP3 POP POP DUP2 SWAP1 SSTORE POP PUSH1 0x1 PUSH1 0x6 PUSH1 0x0 DUP5 PUSH20 0xFFFFFFFFFFFFFFFFFFFFFFFFFFFFFFFFFFFFFFFF AND PUSH20 0xFFFFFFFFFFFFFFFFFFFFFFFFFFFFFFFFFFFFFFFF AND DUP2 MSTORE PUSH1 0x20 ADD SWAP1 DUP2 MSTORE PUSH1 0x20 ADD PUSH1 0x0 KECCAK256 PUSH1 0x0 DUP3 DUP3 SLOAD PUSH2 0x23BA SWAP2 SWAP1 PUSH2 0x4E56 JUMP JUMPDEST SWAP3 POP POP DUP2 SWAP1 SSTORE POP DUP2 PUSH1 0x5 PUSH1 0x0 DUP4 DUP2 MSTORE PUSH1 0x20 ADD SWAP1 DUP2 MSTORE PUSH1 0x20 ADD PUSH1 0x0 KECCAK256 PUSH1 0x0 PUSH2 0x100 EXP DUP2 SLOAD DUP2 PUSH20 0xFFFFFFFFFFFFFFFFFFFFFFFFFFFFFFFFFFFFFFFF MUL NOT AND SWAP1 DUP4 PUSH20 0xFFFFFFFFFFFFFFFFFFFFFFFFFFFFFFFFFFFFFFFF AND MUL OR SWAP1 SSTORE POP DUP1 DUP3 PUSH20 0xFFFFFFFFFFFFFFFFFFFFFFFFFFFFFFFFFFFFFFFF AND DUP5 PUSH20 0xFFFFFFFFFFFFFFFFFFFFFFFFFFFFFFFFFFFFFFFF AND PUSH32 0xDDF252AD1BE2C89B69C2B068FC378DAA952BA7F163C4A11628F55A4DF523B3EF PUSH1 0x40 MLOAD PUSH1 0x40 MLOAD DUP1 SWAP2 SUB SWAP1 LOG4 PUSH2 0x2479 DUP4 DUP4 DUP4 PUSH2 0x2B88 JUMP JUMPDEST POP POP POP JUMP JUMPDEST PUSH2 0x248F PUSH2 0x2489 PUSH2 0x1E8D JUMP JUMPDEST DUP7 PUSH2 0x2139 JUMP JUMPDEST PUSH2 0x24CE JUMPI PUSH1 0x40 MLOAD PUSH32 0x8C379A000000000000000000000000000000000000000000000000000000000 DUP2 MSTORE PUSH1 0x4 ADD PUSH2 0x24C5 SWAP1 PUSH2 0x44E1 JUMP JUMPDEST PUSH1 0x40 MLOAD DUP1 SWAP2 SUB SWAP1 REVERT JUMPDEST PUSH2 0x24DA DUP9 DUP9 DUP9 DUP9 PUSH2 0x2B8D JUMP JUMPDEST PUSH1 0x0 DUP7 DUP7 PUSH1 0x40 MLOAD PUSH1 0x20 ADD PUSH2 0x24EF SWAP3 SWAP2 SWAP1 PUSH2 0x4EAC JUMP JUMPDEST PUSH1 0x40 MLOAD PUSH1 0x20 DUP2 DUP4 SUB SUB DUP2 MSTORE SWAP1 PUSH1 0x40 MSTORE SWAP1 POP PUSH2 0x2551 DUP9 DUP3 DUP8 DUP8 DUP8 DUP8 DUP1 DUP1 PUSH1 0x1F ADD PUSH1 0x20 DUP1 SWAP2 DIV MUL PUSH1 0x20 ADD PUSH1 0x40 MLOAD SWAP1 DUP2 ADD PUSH1 0x40 MSTORE DUP1 SWAP4 SWAP3 SWAP2 SWAP1 DUP2 DUP2 MSTORE PUSH1 0x20 ADD DUP4 DUP4 DUP1 DUP3 DUP5 CALLDATACOPY PUSH1 0x0 DUP2 DUP5 ADD MSTORE PUSH1 0x1F NOT PUSH1 0x1F DUP3 ADD AND SWAP1 POP DUP1 DUP4 ADD SWAP3 POP POP POP POP POP POP POP PUSH2 0x2B9C JUMP JUMPDEST PUSH1 0x0 PUSH32 0x0 PUSH20 0xFFFFFFFFFFFFFFFFFFFFFFFFFFFFFFFFFFFFFFFF AND PUSH4 0x7A145748 DUP11 ADDRESS PUSH1 0x40 MLOAD DUP4 PUSH4 0xFFFFFFFF AND PUSH1 0xE0 SHL DUP2 MSTORE PUSH1 0x4 ADD PUSH2 0x25AE SWAP3 SWAP2 SWAP1 PUSH2 0x4EDC JUMP JUMPDEST PUSH1 0x20 PUSH1 0x40 MLOAD DUP1 DUP4 SUB DUP2 DUP7 DUP1 EXTCODESIZE ISZERO DUP1 ISZERO PUSH2 0x25C6 JUMPI PUSH1 0x0 DUP1 REVERT JUMPDEST POP GAS STATICCALL ISZERO DUP1 ISZERO PUSH2 0x25DA JUMPI RETURNDATASIZE PUSH1 0x0 DUP1 RETURNDATACOPY RETURNDATASIZE PUSH1 0x0 REVERT JUMPDEST POP POP POP POP PUSH1 0x40 MLOAD RETURNDATASIZE PUSH1 0x1F NOT PUSH1 0x1F DUP3 ADD AND DUP3 ADD DUP1 PUSH1 0x40 MSTORE POP DUP2 ADD SWAP1 PUSH2 0x25FE SWAP2 SWAP1 PUSH2 0x4F1A JUMP JUMPDEST SWAP1 POP DUP8 PUSH1 0x40 MLOAD PUSH2 0x260E SWAP2 SWAP1 PUSH2 0x48C5 JUMP JUMPDEST PUSH1 0x40 MLOAD DUP1 SWAP2 SUB SWAP1 KECCAK256 DUP10 PUSH2 0xFFFF AND DUP12 PUSH20 0xFFFFFFFFFFFFFFFFFFFFFFFFFFFFFFFFFFFFFFFF AND PUSH32 0x24797CC77CE15DC717112D54FB1DF125FDFD8C81344FB046C5E074427CE1543 DUP11 DUP6 PUSH1 0x40 MLOAD PUSH2 0x2663 SWAP3 SWAP2 SWAP1 PUSH2 0x4F47 JUMP JUMPDEST PUSH1 0x40 MLOAD DUP1 SWAP2 SUB SWAP1 LOG4 PUSH2 0x2677 DUP11 DUP11 DUP11 DUP11 PUSH2 0x2CBE JUMP JUMPDEST POP POP POP POP POP POP POP POP POP POP JUMP JUMPDEST PUSH2 0x268E DUP5 DUP5 DUP4 PUSH2 0x2CC4 JUMP JUMPDEST PUSH1 0x0 DUP1 DUP3 DUP1 PUSH1 0x20 ADD SWAP1 MLOAD DUP2 ADD SWAP1 PUSH2 0x26A5 SWAP2 SWAP1 PUSH2 0x4F85 JUMP JUMPDEST SWAP2 POP SWAP2 POP PUSH1 0x0 PUSH1 0x14 DUP4 ADD MLOAD SWAP1 POP PUSH2 0x26BD DUP8 DUP3 DUP5 PUSH2 0x2CC9 JUMP JUMPDEST PUSH32 0xD4D39D20F72EABD06C301E516D54653DFC9116DE62C1D54BF1CB48CF3B42A7DB DUP8 DUP3 DUP5 DUP9 PUSH1 0x40 MLOAD PUSH2 0x26F2 SWAP5 SWAP4 SWAP3 SWAP2 SWAP1 PUSH2 0x4FE1 JUMP JUMPDEST PUSH1 0x40 MLOAD DUP1 SWAP2 SUB SWAP1 LOG1 POP POP POP POP POP POP POP JUMP JUMPDEST PUSH1 0x0 DUP1 PUSH1 0x0 SWAP1 SLOAD SWAP1 PUSH2 0x100 EXP SWAP1 DIV PUSH20 0xFFFFFFFFFFFFFFFFFFFFFFFFFFFFFFFFFFFFFFFF AND SWAP1 POP DUP2 PUSH1 0x0 DUP1 PUSH2 0x100 EXP DUP2 SLOAD DUP2 PUSH20 0xFFFFFFFFFFFFFFFFFFFFFFFFFFFFFFFFFFFFFFFF MUL NOT AND SWAP1 DUP4 PUSH20 0xFFFFFFFFFFFFFFFFFFFFFFFFFFFFFFFFFFFFFFFF AND MUL OR SWAP1 SSTORE POP DUP2 PUSH20 0xFFFFFFFFFFFFFFFFFFFFFFFFFFFFFFFFFFFFFFFF AND DUP2 PUSH20 0xFFFFFFFFFFFFFFFFFFFFFFFFFFFFFFFFFFFFFFFF AND PUSH32 0x8BE0079C531659141344CD1FD0A4F28419497F9722A3DAAFE3B4186F6B6457E0 PUSH1 0x40 MLOAD PUSH1 0x40 MLOAD DUP1 SWAP2 SUB SWAP1 LOG3 POP POP JUMP JUMPDEST DUP2 PUSH20 0xFFFFFFFFFFFFFFFFFFFFFFFFFFFFFFFFFFFFFFFF AND DUP4 PUSH20 0xFFFFFFFFFFFFFFFFFFFFFFFFFFFFFFFFFFFFFFFF AND EQ ISZERO PUSH2 0x2836 JUMPI PUSH1 0x40 MLOAD PUSH32 0x8C379A000000000000000000000000000000000000000000000000000000000 DUP2 MSTORE PUSH1 0x4 ADD PUSH2 0x282D SWAP1 PUSH2 0x5072 JUMP JUMPDEST PUSH1 0x40 MLOAD DUP1 SWAP2 SUB SWAP1 REVERT JUMPDEST DUP1 PUSH1 0x8 PUSH1 0x0 DUP6 PUSH20 0xFFFFFFFFFFFFFFFFFFFFFFFFFFFFFFFFFFFFFFFF AND PUSH20 0xFFFFFFFFFFFFFFFFFFFFFFFFFFFFFFFFFFFFFFFF AND DUP2 MSTORE PUSH1 0x20 ADD SWAP1 DUP2 MSTORE PUSH1 0x20 ADD PUSH1 0x0 KECCAK256 PUSH1 0x0 DUP5 PUSH20 0xFFFFFFFFFFFFFFFFFFFFFFFFFFFFFFFFFFFFFFFF AND PUSH20 0xFFFFFFFFFFFFFFFFFFFFFFFFFFFFFFFFFFFFFFFF AND DUP2 MSTORE PUSH1 0x20 ADD SWAP1 DUP2 MSTORE PUSH1 0x20 ADD PUSH1 0x0 KECCAK256 PUSH1 0x0 PUSH2 0x100 EXP DUP2 SLOAD DUP2 PUSH1 0xFF MUL NOT AND SWAP1 DUP4 ISZERO ISZERO MUL OR SWAP1 SSTORE POP DUP2 PUSH20 0xFFFFFFFFFFFFFFFFFFFFFFFFFFFFFFFFFFFFFFFF AND DUP4 PUSH20 0xFFFFFFFFFFFFFFFFFFFFFFFFFFFFFFFFFFFFFFFF AND PUSH32 0x17307EAB39AB6107E8899845AD3D59BD9653F200F220920489CA2B5937696C31 DUP4 PUSH1 0x40 MLOAD PUSH2 0x2927 SWAP2 SWAP1 PUSH2 0x363E JUMP JUMPDEST PUSH1 0x40 MLOAD DUP1 SWAP2 SUB SWAP1 LOG3 POP POP POP JUMP JUMPDEST PUSH2 0x293F DUP5 DUP5 DUP5 PUSH2 0x2217 JUMP JUMPDEST PUSH2 0x294B DUP5 DUP5 DUP5 DUP5 PUSH2 0x2CD8 JUMP JUMPDEST PUSH2 0x298A JUMPI PUSH1 0x40 MLOAD PUSH32 0x8C379A000000000000000000000000000000000000000000000000000000000 DUP2 MSTORE PUSH1 0x4 ADD PUSH2 0x2981 SWAP1 PUSH2 0x5104 JUMP JUMPDEST PUSH1 0x40 MLOAD DUP1 SWAP2 SUB SWAP1 REVERT JUMPDEST POP POP POP POP JUMP JUMPDEST PUSH1 0x60 PUSH1 0x9 DUP1 SLOAD PUSH2 0x299F SWAP1 PUSH2 0x40A9 JUMP JUMPDEST DUP1 PUSH1 0x1F ADD PUSH1 0x20 DUP1 SWAP2 DIV MUL PUSH1 0x20 ADD PUSH1 0x40 MLOAD SWAP1 DUP2 ADD PUSH1 0x40 MSTORE DUP1 SWAP3 SWAP2 SWAP1 DUP2 DUP2 MSTORE PUSH1 0x20 ADD DUP3 DUP1 SLOAD PUSH2 0x29CB SWAP1 PUSH2 0x40A9 JUMP JUMPDEST DUP1 ISZERO PUSH2 0x2A18 JUMPI DUP1 PUSH1 0x1F LT PUSH2 0x29ED JUMPI PUSH2 0x100 DUP1 DUP4 SLOAD DIV MUL DUP4 MSTORE SWAP2 PUSH1 0x20 ADD SWAP2 PUSH2 0x2A18 JUMP JUMPDEST DUP3 ADD SWAP2 SWAP1 PUSH1 0x0 MSTORE PUSH1 0x20 PUSH1 0x0 KECCAK256 SWAP1 JUMPDEST DUP2 SLOAD DUP2 MSTORE SWAP1 PUSH1 0x1 ADD SWAP1 PUSH1 0x20 ADD DUP1 DUP4 GT PUSH2 0x29FB JUMPI DUP3 SWAP1 SUB PUSH1 0x1F AND DUP3 ADD SWAP2 JUMPDEST POP POP POP POP POP SWAP1 POP SWAP1 JUMP JUMPDEST PUSH1 0x60 PUSH1 0x0 DUP3 EQ ISZERO PUSH2 0x2A6A JUMPI PUSH1 0x40 MLOAD DUP1 PUSH1 0x40 ADD PUSH1 0x40 MSTORE DUP1 PUSH1 0x1 DUP2 MSTORE PUSH1 0x20 ADD PUSH32 0x3000000000000000000000000000000000000000000000000000000000000000 DUP2 MSTORE POP SWAP1 POP PUSH2 0x2B7E JUMP JUMPDEST PUSH1 0x0 DUP3 SWAP1 POP PUSH1 0x0 JUMPDEST PUSH1 0x0 DUP3 EQ PUSH2 0x2A9C JUMPI DUP1 DUP1 PUSH2 0x2A85 SWAP1 PUSH2 0x5124 JUMP JUMPDEST SWAP2 POP POP PUSH1 0xA DUP3 PUSH2 0x2A95 SWAP2 SWAP1 PUSH2 0x519C JUMP JUMPDEST SWAP2 POP PUSH2 0x2A72 JUMP JUMPDEST PUSH1 0x0 DUP2 PUSH8 0xFFFFFFFFFFFFFFFF DUP2 GT ISZERO PUSH2 0x2AB8 JUMPI PUSH2 0x2AB7 PUSH2 0x3394 JUMP JUMPDEST JUMPDEST PUSH1 0x40 MLOAD SWAP1 DUP1 DUP3 MSTORE DUP1 PUSH1 0x1F ADD PUSH1 0x1F NOT AND PUSH1 0x20 ADD DUP3 ADD PUSH1 0x40 MSTORE DUP1 ISZERO PUSH2 0x2AEA JUMPI DUP2 PUSH1 0x20 ADD PUSH1 0x1 DUP3 MUL DUP1 CALLDATASIZE DUP4 CALLDATACOPY DUP1 DUP3 ADD SWAP2 POP POP SWAP1 POP JUMPDEST POP SWAP1 POP JUMPDEST PUSH1 0x0 DUP6 EQ PUSH2 0x2B77 JUMPI PUSH1 0x1 DUP3 PUSH2 0x2B03 SWAP2 SWAP1 PUSH2 0x4E22 JUMP JUMPDEST SWAP2 POP PUSH1 0xA DUP6 PUSH2 0x2B12 SWAP2 SWAP1 PUSH2 0x51CD JUMP JUMPDEST PUSH1 0x30 PUSH2 0x2B1E SWAP2 SWAP1 PUSH2 0x4E56 JUMP JUMPDEST PUSH1 0xF8 SHL DUP2 DUP4 DUP2 MLOAD DUP2 LT PUSH2 0x2B34 JUMPI PUSH2 0x2B33 PUSH2 0x51FE JUMP JUMPDEST JUMPDEST PUSH1 0x20 ADD ADD SWAP1 PUSH31 0xFFFFFFFFFFFFFFFFFFFFFFFFFFFFFFFFFFFFFFFFFFFFFFFFFFFFFFFFFFFFFF NOT AND SWAP1 DUP2 PUSH1 0x0 BYTE SWAP1 MSTORE8 POP PUSH1 0xA DUP6 PUSH2 0x2B70 SWAP2 SWAP1 PUSH2 0x519C JUMP JUMPDEST SWAP5 POP PUSH2 0x2AEE JUMP JUMPDEST DUP1 SWAP4 POP POP POP POP JUMPDEST SWAP2 SWAP1 POP JUMP JUMPDEST POP POP POP JUMP JUMPDEST POP POP POP JUMP JUMPDEST PUSH2 0x2B96 DUP2 PUSH2 0x2E6F JUMP JUMPDEST POP POP POP POP JUMP JUMPDEST PUSH1 0x0 PUSH1 0x1 PUSH1 0x0 DUP8 PUSH2 0xFFFF AND PUSH2 0xFFFF AND DUP2 MSTORE PUSH1 0x20 ADD SWAP1 DUP2 MSTORE PUSH1 0x20 ADD PUSH1 0x0 KECCAK256 DUP1 SLOAD PUSH2 0x2BC4 SWAP1 PUSH2 0x40A9 JUMP JUMPDEST SWAP1 POP EQ ISZERO PUSH2 0x2C07 JUMPI PUSH1 0x40 MLOAD PUSH32 0x8C379A000000000000000000000000000000000000000000000000000000000 DUP2 MSTORE PUSH1 0x4 ADD PUSH2 0x2BFE SWAP1 PUSH2 0x529F JUMP JUMPDEST PUSH1 0x40 MLOAD DUP1 SWAP2 SUB SWAP1 REVERT JUMPDEST PUSH32 0x0 PUSH20 0xFFFFFFFFFFFFFFFFFFFFFFFFFFFFFFFFFFFFFFFF AND PUSH4 0xC5803100 CALLVALUE DUP8 PUSH1 0x1 PUSH1 0x0 DUP11 PUSH2 0xFFFF AND PUSH2 0xFFFF AND DUP2 MSTORE PUSH1 0x20 ADD SWAP1 DUP2 MSTORE PUSH1 0x20 ADD PUSH1 0x0 KECCAK256 DUP9 DUP9 DUP9 DUP9 PUSH1 0x40 MLOAD DUP9 PUSH4 0xFFFFFFFF AND PUSH1 0xE0 SHL DUP2 MSTORE PUSH1 0x4 ADD PUSH2 0x2C85 SWAP7 SWAP6 SWAP5 SWAP4 SWAP3 SWAP2 SWAP1 PUSH2 0x534E JUMP JUMPDEST PUSH1 0x0 PUSH1 0x40 MLOAD DUP1 DUP4 SUB DUP2 DUP6 DUP9 DUP1 EXTCODESIZE ISZERO DUP1 ISZERO PUSH2 0x2C9E JUMPI PUSH1 0x0 DUP1 REVERT JUMPDEST POP GAS CALL ISZERO DUP1 ISZERO PUSH2 0x2CB2 JUMPI RETURNDATASIZE PUSH1 0x0 DUP1 RETURNDATACOPY RETURNDATASIZE PUSH1 0x0 REVERT JUMPDEST POP POP POP POP POP POP POP POP POP POP JUMP JUMPDEST POP POP POP POP JUMP JUMPDEST POP POP POP JUMP JUMPDEST PUSH2 0x2CD3 DUP3 DUP3 PUSH2 0x2F8C JUMP JUMPDEST POP POP POP JUMP JUMPDEST PUSH1 0x0 PUSH2 0x2CF9 DUP5 PUSH20 0xFFFFFFFFFFFFFFFFFFFFFFFFFFFFFFFFFFFFFFFF AND PUSH2 0x2FAA JUMP JUMPDEST ISZERO PUSH2 0x2E62 JUMPI DUP4 PUSH20 0xFFFFFFFFFFFFFFFFFFFFFFFFFFFFFFFFFFFFFFFF AND PUSH4 0x150B7A02 PUSH2 0x2D22 PUSH2 0x1E8D JUMP JUMPDEST DUP8 DUP7 DUP7 PUSH1 0x40 MLOAD DUP6 PUSH4 0xFFFFFFFF AND PUSH1 0xE0 SHL DUP2 MSTORE PUSH1 0x4 ADD PUSH2 0x2D44 SWAP5 SWAP4 SWAP3 SWAP2 SWAP1 PUSH2 0x53C4 JUMP JUMPDEST PUSH1 0x20 PUSH1 0x40 MLOAD DUP1 DUP4 SUB DUP2 PUSH1 0x0 DUP8 DUP1 EXTCODESIZE ISZERO DUP1 ISZERO PUSH2 0x2D5E JUMPI PUSH1 0x0 DUP1 REVERT JUMPDEST POP GAS CALL SWAP3 POP POP POP DUP1 ISZERO PUSH2 0x2D8F JUMPI POP PUSH1 0x40 MLOAD RETURNDATASIZE PUSH1 0x1F NOT PUSH1 0x1F DUP3 ADD AND DUP3 ADD DUP1 PUSH1 0x40 MSTORE POP DUP2 ADD SWAP1 PUSH2 0x2D8C SWAP2 SWAP1 PUSH2 0x5425 JUMP JUMPDEST PUSH1 0x1 JUMPDEST PUSH2 0x2E12 JUMPI RETURNDATASIZE DUP1 PUSH1 0x0 DUP2 EQ PUSH2 0x2DBF JUMPI PUSH1 0x40 MLOAD SWAP2 POP PUSH1 0x1F NOT PUSH1 0x3F RETURNDATASIZE ADD AND DUP3 ADD PUSH1 0x40 MSTORE RETURNDATASIZE DUP3 MSTORE RETURNDATASIZE PUSH1 0x0 PUSH1 0x20 DUP5 ADD RETURNDATACOPY PUSH2 0x2DC4 JUMP JUMPDEST PUSH1 0x60 SWAP2 POP JUMPDEST POP PUSH1 0x0 DUP2 MLOAD EQ ISZERO PUSH2 0x2E0A JUMPI PUSH1 0x40 MLOAD PUSH32 0x8C379A000000000000000000000000000000000000000000000000000000000 DUP2 MSTORE PUSH1 0x4 ADD PUSH2 0x2E01 SWAP1 PUSH2 0x5104 JUMP JUMPDEST PUSH1 0x40 MLOAD DUP1 SWAP2 SUB SWAP1 REVERT JUMPDEST DUP1 MLOAD DUP2 PUSH1 0x20 ADD REVERT JUMPDEST PUSH4 0x150B7A02 PUSH1 0xE0 SHL PUSH28 0xFFFFFFFFFFFFFFFFFFFFFFFFFFFFFFFFFFFFFFFFFFFFFFFFFFFFFFFF NOT AND DUP2 PUSH28 0xFFFFFFFFFFFFFFFFFFFFFFFFFFFFFFFFFFFFFFFFFFFFFFFFFFFFFFFF NOT AND EQ SWAP2 POP POP PUSH2 0x2E67 JUMP JUMPDEST PUSH1 0x1 SWAP1 POP JUMPDEST SWAP5 SWAP4 POP POP POP POP JUMP JUMPDEST PUSH1 0x0 PUSH2 0x2E7A DUP3 PUSH2 0x116E JUMP JUMPDEST SWAP1 POP PUSH2 0x2E88 DUP2 PUSH1 0x0 DUP5 PUSH2 0x2B83 JUMP JUMPDEST PUSH2 0x2E93 PUSH1 0x0 DUP4 PUSH2 0x2080 JUMP JUMPDEST PUSH1 0x1 PUSH1 0x6 PUSH1 0x0 DUP4 PUSH20 0xFFFFFFFFFFFFFFFFFFFFFFFFFFFFFFFFFFFFFFFF AND PUSH20 0xFFFFFFFFFFFFFFFFFFFFFFFFFFFFFFFFFFFFFFFF AND DUP2 MSTORE PUSH1 0x20 ADD SWAP1 DUP2 MSTORE PUSH1 0x20 ADD PUSH1 0x0 KECCAK256 PUSH1 0x0 DUP3 DUP3 SLOAD PUSH2 0x2EE3 SWAP2 SWAP1 PUSH2 0x4E22 JUMP JUMPDEST SWAP3 POP POP DUP2 SWAP1 SSTORE POP PUSH1 0x5 PUSH1 0x0 DUP4 DUP2 MSTORE PUSH1 0x20 ADD SWAP1 DUP2 MSTORE PUSH1 0x20 ADD PUSH1 0x0 KECCAK256 PUSH1 0x0 PUSH2 0x100 EXP DUP2 SLOAD SWAP1 PUSH20 0xFFFFFFFFFFFFFFFFFFFFFFFFFFFFFFFFFFFFFFFF MUL NOT AND SWAP1 SSTORE DUP2 PUSH1 0x0 PUSH20 0xFFFFFFFFFFFFFFFFFFFFFFFFFFFFFFFFFFFFFFFF AND DUP3 PUSH20 0xFFFFFFFFFFFFFFFFFFFFFFFFFFFFFFFFFFFFFFFF AND PUSH32 0xDDF252AD1BE2C89B69C2B068FC378DAA952BA7F163C4A11628F55A4DF523B3EF PUSH1 0x40 MLOAD PUSH1 0x40 MLOAD DUP1 SWAP2 SUB SWAP1 LOG4 PUSH2 0x2F88 DUP2 PUSH1 0x0 DUP5 PUSH2 0x2B88 JUMP JUMPDEST POP POP JUMP JUMPDEST PUSH2 0x2FA6 DUP3 DUP3 PUSH1 0x40 MLOAD DUP1 PUSH1 0x20 ADD PUSH1 0x40 MSTORE DUP1 PUSH1 0x0 DUP2 MSTORE POP PUSH2 0x2FCD JUMP JUMPDEST POP POP JUMP JUMPDEST PUSH1 0x0 DUP1 DUP3 PUSH20 0xFFFFFFFFFFFFFFFFFFFFFFFFFFFFFFFFFFFFFFFF AND EXTCODESIZE GT SWAP1 POP SWAP2 SWAP1 POP JUMP JUMPDEST PUSH2 0x2FD7 DUP4 DUP4 PUSH2 0x3028 JUMP JUMPDEST PUSH2 0x2FE4 PUSH1 0x0 DUP5 DUP5 DUP5 PUSH2 0x2CD8 JUMP JUMPDEST PUSH2 0x3023 JUMPI PUSH1 0x40 MLOAD PUSH32 0x8C379A000000000000000000000000000000000000000000000000000000000 DUP2 MSTORE PUSH1 0x4 ADD PUSH2 0x301A SWAP1 PUSH2 0x5104 JUMP JUMPDEST PUSH1 0x40 MLOAD DUP1 SWAP2 SUB SWAP1 REVERT JUMPDEST POP POP POP JUMP JUMPDEST PUSH1 0x0 PUSH20 0xFFFFFFFFFFFFFFFFFFFFFFFFFFFFFFFFFFFFFFFF AND DUP3 PUSH20 0xFFFFFFFFFFFFFFFFFFFFFFFFFFFFFFFFFFFFFFFF AND EQ ISZERO PUSH2 0x3098 JUMPI PUSH1 0x40 MLOAD PUSH32 0x8C379A000000000000000000000000000000000000000000000000000000000 DUP2 MSTORE PUSH1 0x4 ADD PUSH2 0x308F SWAP1 PUSH2 0x549E JUMP JUMPDEST PUSH1 0x40 MLOAD DUP1 SWAP2 SUB SWAP1 REVERT JUMPDEST PUSH2 0x30A1 DUP2 PUSH2 0x2014 JUMP JUMPDEST ISZERO PUSH2 0x30E1 JUMPI PUSH1 0x40 MLOAD PUSH32 0x8C379A000000000000000000000000000000000000000000000000000000000 DUP2 MSTORE PUSH1 0x4 ADD PUSH2 0x30D8 SWAP1 PUSH2 0x550A JUMP JUMPDEST PUSH1 0x40 MLOAD DUP1 SWAP2 SUB SWAP1 REVERT JUMPDEST PUSH2 0x30ED PUSH1 0x0 DUP4 DUP4 PUSH2 0x2B83 JUMP JUMPDEST PUSH1 0x1 PUSH1 0x6 PUSH1 0x0 DUP5 PUSH20 0xFFFFFFFFFFFFFFFFFFFFFFFFFFFFFFFFFFFFFFFF AND PUSH20 0xFFFFFFFFFFFFFFFFFFFFFFFFFFFFFFFFFFFFFFFF AND DUP2 MSTORE PUSH1 0x20 ADD SWAP1 DUP2 MSTORE PUSH1 0x20 ADD PUSH1 0x0 KECCAK256 PUSH1 0x0 DUP3 DUP3 SLOAD PUSH2 0x313D SWAP2 SWAP1 PUSH2 0x4E56 JUMP JUMPDEST SWAP3 POP POP DUP2 SWAP1 SSTORE POP DUP2 PUSH1 0x5 PUSH1 0x0 DUP4 DUP2 MSTORE PUSH1 0x20 ADD SWAP1 DUP2 MSTORE PUSH1 0x20 ADD PUSH1 0x0 KECCAK256 PUSH1 0x0 PUSH2 0x100 EXP DUP2 SLOAD DUP2 PUSH20 0xFFFFFFFFFFFFFFFFFFFFFFFFFFFFFFFFFFFFFFFF MUL NOT AND SWAP1 DUP4 PUSH20 0xFFFFFFFFFFFFFFFFFFFFFFFFFFFFFFFFFFFFFFFF AND MUL OR SWAP1 SSTORE POP DUP1 DUP3 PUSH20 0xFFFFFFFFFFFFFFFFFFFFFFFFFFFFFFFFFFFFFFFF AND PUSH1 0x0 PUSH20 0xFFFFFFFFFFFFFFFFFFFFFFFFFFFFFFFFFFFFFFFF AND PUSH32 0xDDF252AD1BE2C89B69C2B068FC378DAA952BA7F163C4A11628F55A4DF523B3EF PUSH1 0x40 MLOAD PUSH1 0x40 MLOAD DUP1 SWAP2 SUB SWAP1 LOG4 PUSH2 0x31FE PUSH1 0x0 DUP4 DUP4 PUSH2 0x2B88 JUMP JUMPDEST POP POP JUMP JUMPDEST DUP3 DUP1 SLOAD PUSH2 0x320E SWAP1 PUSH2 0x40A9 JUMP JUMPDEST SWAP1 PUSH1 0x0 MSTORE PUSH1 0x20 PUSH1 0x0 KECCAK256 SWAP1 PUSH1 0x1F ADD PUSH1 0x20 SWAP1 DIV DUP2 ADD SWAP3 DUP3 PUSH2 0x3230 JUMPI PUSH1 0x0 DUP6 SSTORE PUSH2 0x3277 JUMP JUMPDEST DUP3 PUSH1 0x1F LT PUSH2 0x3249 JUMPI DUP1 MLOAD PUSH1 0xFF NOT AND DUP4 DUP1 ADD OR DUP6 SSTORE PUSH2 0x3277 JUMP JUMPDEST DUP3 DUP1 ADD PUSH1 0x1 ADD DUP6 SSTORE DUP3 ISZERO PUSH2 0x3277 JUMPI SWAP2 DUP3 ADD JUMPDEST DUP3 DUP2 GT ISZERO PUSH2 0x3276 JUMPI DUP3 MLOAD DUP3 SSTORE SWAP2 PUSH1 0x20 ADD SWAP2 SWAP1 PUSH1 0x1 ADD SWAP1 PUSH2 0x325B JUMP JUMPDEST JUMPDEST POP SWAP1 POP PUSH2 0x3284 SWAP2 SWAP1 PUSH2 0x330E JUMP JUMPDEST POP SWAP1 JUMP JUMPDEST DUP3 DUP1 SLOAD PUSH2 0x3294 SWAP1 PUSH2 0x40A9 JUMP JUMPDEST SWAP1 PUSH1 0x0 MSTORE PUSH1 0x20 PUSH1 0x0 KECCAK256 SWAP1 PUSH1 0x1F ADD PUSH1 0x20 SWAP1 DIV DUP2 ADD SWAP3 DUP3 PUSH2 0x32B6 JUMPI PUSH1 0x0 DUP6 SSTORE PUSH2 0x32FD JUMP JUMPDEST DUP3 PUSH1 0x1F LT PUSH2 0x32CF JUMPI DUP1 CALLDATALOAD PUSH1 0xFF NOT AND DUP4 DUP1 ADD OR DUP6 SSTORE PUSH2 0x32FD JUMP JUMPDEST DUP3 DUP1 ADD PUSH1 0x1 ADD DUP6 SSTORE DUP3 ISZERO PUSH2 0x32FD JUMPI SWAP2 DUP3 ADD JUMPDEST DUP3 DUP2 GT ISZERO PUSH2 0x32FC JUMPI DUP3 CALLDATALOAD DUP3 SSTORE SWAP2 PUSH1 0x20 ADD SWAP2 SWAP1 PUSH1 0x1 ADD SWAP1 PUSH2 0x32E1 JUMP JUMPDEST JUMPDEST POP SWAP1 POP PUSH2 0x330A SWAP2 SWAP1 PUSH2 0x330E JUMP JUMPDEST POP SWAP1 JUMP JUMPDEST JUMPDEST DUP1 DUP3 GT ISZERO PUSH2 0x3327 JUMPI PUSH1 0x0 DUP2 PUSH1 0x0 SWAP1 SSTORE POP PUSH1 0x1 ADD PUSH2 0x330F JUMP JUMPDEST POP SWAP1 JUMP JUMPDEST PUSH1 0x0 PUSH1 0x40 MLOAD SWAP1 POP SWAP1 JUMP JUMPDEST PUSH1 0x0 DUP1 REVERT JUMPDEST PUSH1 0x0 DUP1 REVERT JUMPDEST PUSH1 0x0 PUSH2 0xFFFF DUP3 AND SWAP1 POP SWAP2 SWAP1 POP JUMP JUMPDEST PUSH2 0x3356 DUP2 PUSH2 0x333F JUMP JUMPDEST DUP2 EQ PUSH2 0x3361 JUMPI PUSH1 0x0 DUP1 REVERT JUMPDEST POP JUMP JUMPDEST PUSH1 0x0 DUP2 CALLDATALOAD SWAP1 POP PUSH2 0x3373 DUP2 PUSH2 0x334D JUMP JUMPDEST SWAP3 SWAP2 POP POP JUMP JUMPDEST PUSH1 0x0 DUP1 REVERT JUMPDEST PUSH1 0x0 DUP1 REVERT JUMPDEST PUSH1 0x0 PUSH1 0x1F NOT PUSH1 0x1F DUP4 ADD AND SWAP1 POP SWAP2 SWAP1 POP JUMP JUMPDEST PUSH32 0x4E487B7100000000000000000000000000000000000000000000000000000000 PUSH1 0x0 MSTORE PUSH1 0x41 PUSH1 0x4 MSTORE PUSH1 0x24 PUSH1 0x0 REVERT JUMPDEST PUSH2 0x33CC DUP3 PUSH2 0x3383 JUMP JUMPDEST DUP2 ADD DUP2 DUP2 LT PUSH8 0xFFFFFFFFFFFFFFFF DUP3 GT OR ISZERO PUSH2 0x33EB JUMPI PUSH2 0x33EA PUSH2 0x3394 JUMP JUMPDEST JUMPDEST DUP1 PUSH1 0x40 MSTORE POP POP POP JUMP JUMPDEST PUSH1 0x0 PUSH2 0x33FE PUSH2 0x332B JUMP JUMPDEST SWAP1 POP PUSH2 0x340A DUP3 DUP3 PUSH2 0x33C3 JUMP JUMPDEST SWAP2 SWAP1 POP JUMP JUMPDEST PUSH1 0x0 PUSH8 0xFFFFFFFFFFFFFFFF DUP3 GT ISZERO PUSH2 0x342A JUMPI PUSH2 0x3429 PUSH2 0x3394 JUMP JUMPDEST JUMPDEST PUSH2 0x3433 DUP3 PUSH2 0x3383 JUMP JUMPDEST SWAP1 POP PUSH1 0x20 DUP2 ADD SWAP1 POP SWAP2 SWAP1 POP JUMP JUMPDEST DUP3 DUP2 DUP4 CALLDATACOPY PUSH1 0x0 DUP4 DUP4 ADD MSTORE POP POP POP JUMP JUMPDEST PUSH1 0x0 PUSH2 0x3462 PUSH2 0x345D DUP5 PUSH2 0x340F JUMP JUMPDEST PUSH2 0x33F4 JUMP JUMPDEST SWAP1 POP DUP3 DUP2 MSTORE PUSH1 0x20 DUP2 ADD DUP5 DUP5 DUP5 ADD GT ISZERO PUSH2 0x347E JUMPI PUSH2 0x347D PUSH2 0x337E JUMP JUMPDEST JUMPDEST PUSH2 0x3489 DUP5 DUP3 DUP6 PUSH2 0x3440 JUMP JUMPDEST POP SWAP4 SWAP3 POP POP POP JUMP JUMPDEST PUSH1 0x0 DUP3 PUSH1 0x1F DUP4 ADD SLT PUSH2 0x34A6 JUMPI PUSH2 0x34A5 PUSH2 0x3379 JUMP JUMPDEST JUMPDEST DUP2 CALLDATALOAD PUSH2 0x34B6 DUP5 DUP3 PUSH1 0x20 DUP7 ADD PUSH2 0x344F JUMP JUMPDEST SWAP2 POP POP SWAP3 SWAP2 POP POP JUMP JUMPDEST PUSH1 0x0 PUSH8 0xFFFFFFFFFFFFFFFF DUP3 AND SWAP1 POP SWAP2 SWAP1 POP JUMP JUMPDEST PUSH2 0x34DC DUP2 PUSH2 0x34BF JUMP JUMPDEST DUP2 EQ PUSH2 0x34E7 JUMPI PUSH1 0x0 DUP1 REVERT JUMPDEST POP JUMP JUMPDEST PUSH1 0x0 DUP2 CALLDATALOAD SWAP1 POP PUSH2 0x34F9 DUP2 PUSH2 0x34D3 JUMP JUMPDEST SWAP3 SWAP2 POP POP JUMP JUMPDEST PUSH1 0x0 DUP1 PUSH1 0x0 DUP1 PUSH1 0x80 DUP6 DUP8 SUB SLT ISZERO PUSH2 0x3519 JUMPI PUSH2 0x3518 PUSH2 0x3335 JUMP JUMPDEST JUMPDEST PUSH1 0x0 PUSH2 0x3527 DUP8 DUP3 DUP9 ADD PUSH2 0x3364 JUMP JUMPDEST SWAP5 POP POP PUSH1 0x20 DUP6 ADD CALLDATALOAD PUSH8 0xFFFFFFFFFFFFFFFF DUP2 GT ISZERO PUSH2 0x3548 JUMPI PUSH2 0x3547 PUSH2 0x333A JUMP JUMPDEST JUMPDEST PUSH2 0x3554 DUP8 DUP3 DUP9 ADD PUSH2 0x3491 JUMP JUMPDEST SWAP4 POP POP PUSH1 0x40 PUSH2 0x3565 DUP8 DUP3 DUP9 ADD PUSH2 0x34EA JUMP JUMPDEST SWAP3 POP POP PUSH1 0x60 DUP6 ADD CALLDATALOAD PUSH8 0xFFFFFFFFFFFFFFFF DUP2 GT ISZERO PUSH2 0x3586 JUMPI PUSH2 0x3585 PUSH2 0x333A JUMP JUMPDEST JUMPDEST PUSH2 0x3592 DUP8 DUP3 DUP9 ADD PUSH2 0x3491 JUMP JUMPDEST SWAP2 POP POP SWAP3 SWAP6 SWAP2 SWAP5 POP SWAP3 POP JUMP JUMPDEST PUSH1 0x0 PUSH32 0xFFFFFFFF00000000000000000000000000000000000000000000000000000000 DUP3 AND SWAP1 POP SWAP2 SWAP1 POP JUMP JUMPDEST PUSH2 0x35D3 DUP2 PUSH2 0x359E JUMP JUMPDEST DUP2 EQ PUSH2 0x35DE JUMPI PUSH1 0x0 DUP1 REVERT JUMPDEST POP JUMP JUMPDEST PUSH1 0x0 DUP2 CALLDATALOAD SWAP1 POP PUSH2 0x35F0 DUP2 PUSH2 0x35CA JUMP JUMPDEST SWAP3 SWAP2 POP POP JUMP JUMPDEST PUSH1 0x0 PUSH1 0x20 DUP3 DUP5 SUB SLT ISZERO PUSH2 0x360C JUMPI PUSH2 0x360B PUSH2 0x3335 JUMP JUMPDEST JUMPDEST PUSH1 0x0 PUSH2 0x361A DUP5 DUP3 DUP6 ADD PUSH2 0x35E1 JUMP JUMPDEST SWAP2 POP POP SWAP3 SWAP2 POP POP JUMP JUMPDEST PUSH1 0x0 DUP2 ISZERO ISZERO SWAP1 POP SWAP2 SWAP1 POP JUMP JUMPDEST PUSH2 0x3638 DUP2 PUSH2 0x3623 JUMP JUMPDEST DUP3 MSTORE POP POP JUMP JUMPDEST PUSH1 0x0 PUSH1 0x20 DUP3 ADD SWAP1 POP PUSH2 0x3653 PUSH1 0x0 DUP4 ADD DUP5 PUSH2 0x362F JUMP JUMPDEST SWAP3 SWAP2 POP POP JUMP JUMPDEST PUSH1 0x0 DUP2 MLOAD SWAP1 POP SWAP2 SWAP1 POP JUMP JUMPDEST PUSH1 0x0 DUP3 DUP3 MSTORE PUSH1 0x20 DUP3 ADD SWAP1 POP SWAP3 SWAP2 POP POP JUMP JUMPDEST PUSH1 0x0 JUMPDEST DUP4 DUP2 LT ISZERO PUSH2 0x3693 JUMPI DUP1 DUP3 ADD MLOAD DUP2 DUP5 ADD MSTORE PUSH1 0x20 DUP2 ADD SWAP1 POP PUSH2 0x3678 JUMP JUMPDEST DUP4 DUP2 GT ISZERO PUSH2 0x36A2 JUMPI PUSH1 0x0 DUP5 DUP5 ADD MSTORE JUMPDEST POP POP POP POP JUMP JUMPDEST PUSH1 0x0 PUSH2 0x36B3 DUP3 PUSH2 0x3659 JUMP JUMPDEST PUSH2 0x36BD DUP2 DUP6 PUSH2 0x3664 JUMP JUMPDEST SWAP4 POP PUSH2 0x36CD DUP2 DUP6 PUSH1 0x20 DUP7 ADD PUSH2 0x3675 JUMP JUMPDEST PUSH2 0x36D6 DUP2 PUSH2 0x3383 JUMP JUMPDEST DUP5 ADD SWAP2 POP POP SWAP3 SWAP2 POP POP JUMP JUMPDEST PUSH1 0x0 PUSH1 0x20 DUP3 ADD SWAP1 POP DUP2 DUP2 SUB PUSH1 0x0 DUP4 ADD MSTORE PUSH2 0x36FB DUP2 DUP5 PUSH2 0x36A8 JUMP JUMPDEST SWAP1 POP SWAP3 SWAP2 POP POP JUMP JUMPDEST PUSH1 0x0 PUSH1 0x20 DUP3 DUP5 SUB SLT ISZERO PUSH2 0x3719 JUMPI PUSH2 0x3718 PUSH2 0x3335 JUMP JUMPDEST JUMPDEST PUSH1 0x0 PUSH2 0x3727 DUP5 DUP3 DUP6 ADD PUSH2 0x3364 JUMP JUMPDEST SWAP2 POP POP SWAP3 SWAP2 POP POP JUMP JUMPDEST PUSH1 0x0 DUP2 SWAP1 POP SWAP2 SWAP1 POP JUMP JUMPDEST PUSH2 0x3743 DUP2 PUSH2 0x3730 JUMP JUMPDEST DUP2 EQ PUSH2 0x374E JUMPI PUSH1 0x0 DUP1 REVERT JUMPDEST POP JUMP JUMPDEST PUSH1 0x0 DUP2 CALLDATALOAD SWAP1 POP PUSH2 0x3760 DUP2 PUSH2 0x373A JUMP JUMPDEST SWAP3 SWAP2 POP POP JUMP JUMPDEST PUSH1 0x0 PUSH1 0x20 DUP3 DUP5 SUB SLT ISZERO PUSH2 0x377C JUMPI PUSH2 0x377B PUSH2 0x3335 JUMP JUMPDEST JUMPDEST PUSH1 0x0 PUSH2 0x378A DUP5 DUP3 DUP6 ADD PUSH2 0x3751 JUMP JUMPDEST SWAP2 POP POP SWAP3 SWAP2 POP POP JUMP JUMPDEST PUSH1 0x0 PUSH20 0xFFFFFFFFFFFFFFFFFFFFFFFFFFFFFFFFFFFFFFFF DUP3 AND SWAP1 POP SWAP2 SWAP1 POP JUMP JUMPDEST PUSH1 0x0 PUSH2 0x37BE DUP3 PUSH2 0x3793 JUMP JUMPDEST SWAP1 POP SWAP2 SWAP1 POP JUMP JUMPDEST PUSH2 0x37CE DUP2 PUSH2 0x37B3 JUMP JUMPDEST DUP3 MSTORE POP POP JUMP JUMPDEST PUSH1 0x0 PUSH1 0x20 DUP3 ADD SWAP1 POP PUSH2 0x37E9 PUSH1 0x0 DUP4 ADD DUP5 PUSH2 0x37C5 JUMP JUMPDEST SWAP3 SWAP2 POP POP JUMP JUMPDEST PUSH2 0x37F8 DUP2 PUSH2 0x37B3 JUMP JUMPDEST DUP2 EQ PUSH2 0x3803 JUMPI PUSH1 0x0 DUP1 REVERT JUMPDEST POP JUMP JUMPDEST PUSH1 0x0 DUP2 CALLDATALOAD SWAP1 POP PUSH2 0x3815 DUP2 PUSH2 0x37EF JUMP JUMPDEST SWAP3 SWAP2 POP POP JUMP JUMPDEST PUSH1 0x0 DUP1 PUSH1 0x40 DUP4 DUP6 SUB SLT ISZERO PUSH2 0x3832 JUMPI PUSH2 0x3831 PUSH2 0x3335 JUMP JUMPDEST JUMPDEST PUSH1 0x0 PUSH2 0x3840 DUP6 DUP3 DUP7 ADD PUSH2 0x3806 JUMP JUMPDEST SWAP3 POP POP PUSH1 0x20 PUSH2 0x3851 DUP6 DUP3 DUP7 ADD PUSH2 0x3751 JUMP JUMPDEST SWAP2 POP POP SWAP3 POP SWAP3 SWAP1 POP JUMP JUMPDEST PUSH1 0x0 DUP1 PUSH1 0x0 PUSH1 0x60 DUP5 DUP7 SUB SLT ISZERO PUSH2 0x3874 JUMPI PUSH2 0x3873 PUSH2 0x3335 JUMP JUMPDEST JUMPDEST PUSH1 0x0 PUSH2 0x3882 DUP7 DUP3 DUP8 ADD PUSH2 0x3806 JUMP JUMPDEST SWAP4 POP POP PUSH1 0x20 PUSH2 0x3893 DUP7 DUP3 DUP8 ADD PUSH2 0x3806 JUMP JUMPDEST SWAP3 POP POP PUSH1 0x40 PUSH2 0x38A4 DUP7 DUP3 DUP8 ADD PUSH2 0x3751 JUMP JUMPDEST SWAP2 POP POP SWAP3 POP SWAP3 POP SWAP3 JUMP JUMPDEST PUSH1 0x0 DUP1 REVERT JUMPDEST PUSH1 0x0 DUP1 REVERT JUMPDEST PUSH1 0x0 DUP1 DUP4 PUSH1 0x1F DUP5 ADD SLT PUSH2 0x38CE JUMPI PUSH2 0x38CD PUSH2 0x3379 JUMP JUMPDEST JUMPDEST DUP3 CALLDATALOAD SWAP1 POP PUSH8 0xFFFFFFFFFFFFFFFF DUP2 GT ISZERO PUSH2 0x38EB JUMPI PUSH2 0x38EA PUSH2 0x38AE JUMP JUMPDEST JUMPDEST PUSH1 0x20 DUP4 ADD SWAP2 POP DUP4 PUSH1 0x1 DUP3 MUL DUP4 ADD GT ISZERO PUSH2 0x3907 JUMPI PUSH2 0x3906 PUSH2 0x38B3 JUMP JUMPDEST JUMPDEST SWAP3 POP SWAP3 SWAP1 POP JUMP JUMPDEST PUSH1 0x0 DUP1 PUSH1 0x0 PUSH1 0x40 DUP5 DUP7 SUB SLT ISZERO PUSH2 0x3927 JUMPI PUSH2 0x3926 PUSH2 0x3335 JUMP JUMPDEST JUMPDEST PUSH1 0x0 PUSH2 0x3935 DUP7 DUP3 DUP8 ADD PUSH2 0x3364 JUMP JUMPDEST SWAP4 POP POP PUSH1 0x20 DUP5 ADD CALLDATALOAD PUSH8 0xFFFFFFFFFFFFFFFF DUP2 GT ISZERO PUSH2 0x3956 JUMPI PUSH2 0x3955 PUSH2 0x333A JUMP JUMPDEST JUMPDEST PUSH2 0x3962 DUP7 DUP3 DUP8 ADD PUSH2 0x38B8 JUMP JUMPDEST SWAP3 POP SWAP3 POP POP SWAP3 POP SWAP3 POP SWAP3 JUMP JUMPDEST PUSH1 0x0 PUSH2 0x3979 DUP3 PUSH2 0x3793 JUMP JUMPDEST SWAP1 POP SWAP2 SWAP1 POP JUMP JUMPDEST PUSH2 0x3989 DUP2 PUSH2 0x396E JUMP JUMPDEST DUP2 EQ PUSH2 0x3994 JUMPI PUSH1 0x0 DUP1 REVERT JUMPDEST POP JUMP JUMPDEST PUSH1 0x0 DUP2 CALLDATALOAD SWAP1 POP PUSH2 0x39A6 DUP2 PUSH2 0x3980 JUMP JUMPDEST SWAP3 SWAP2 POP POP JUMP JUMPDEST PUSH1 0x0 DUP1 PUSH1 0x0 DUP1 PUSH1 0x0 DUP1 PUSH1 0x0 DUP1 PUSH1 0x0 PUSH1 0xE0 DUP11 DUP13 SUB SLT ISZERO PUSH2 0x39CE JUMPI PUSH2 0x39CD PUSH2 0x3335 JUMP JUMPDEST JUMPDEST PUSH1 0x0 PUSH2 0x39DC DUP13 DUP3 DUP14 ADD PUSH2 0x3806 JUMP JUMPDEST SWAP10 POP POP PUSH1 0x20 PUSH2 0x39ED DUP13 DUP3 DUP14 ADD PUSH2 0x3364 JUMP JUMPDEST SWAP9 POP POP PUSH1 0x40 DUP11 ADD CALLDATALOAD PUSH8 0xFFFFFFFFFFFFFFFF DUP2 GT ISZERO PUSH2 0x3A0E JUMPI PUSH2 0x3A0D PUSH2 0x333A JUMP JUMPDEST JUMPDEST PUSH2 0x3A1A DUP13 DUP3 DUP14 ADD PUSH2 0x38B8 JUMP JUMPDEST SWAP8 POP SWAP8 POP POP PUSH1 0x60 PUSH2 0x3A2D DUP13 DUP3 DUP14 ADD PUSH2 0x3751 JUMP JUMPDEST SWAP6 POP POP PUSH1 0x80 PUSH2 0x3A3E DUP13 DUP3 DUP14 ADD PUSH2 0x3997 JUMP JUMPDEST SWAP5 POP POP PUSH1 0xA0 PUSH2 0x3A4F DUP13 DUP3 DUP14 ADD PUSH2 0x3806 JUMP JUMPDEST SWAP4 POP POP PUSH1 0xC0 DUP11 ADD CALLDATALOAD PUSH8 0xFFFFFFFFFFFFFFFF DUP2 GT ISZERO PUSH2 0x3A70 JUMPI PUSH2 0x3A6F PUSH2 0x333A JUMP JUMPDEST JUMPDEST PUSH2 0x3A7C DUP13 DUP3 DUP14 ADD PUSH2 0x38B8 JUMP JUMPDEST SWAP3 POP SWAP3 POP POP SWAP3 SWAP6 SWAP9 POP SWAP3 SWAP6 SWAP9 POP SWAP3 SWAP6 SWAP9 JUMP JUMPDEST PUSH1 0x0 PUSH8 0xFFFFFFFFFFFFFFFF DUP3 GT ISZERO PUSH2 0x3AA9 JUMPI PUSH2 0x3AA8 PUSH2 0x3394 JUMP JUMPDEST JUMPDEST PUSH2 0x3AB2 DUP3 PUSH2 0x3383 JUMP JUMPDEST SWAP1 POP PUSH1 0x20 DUP2 ADD SWAP1 POP SWAP2 SWAP1 POP JUMP JUMPDEST PUSH1 0x0 PUSH2 0x3AD2 PUSH2 0x3ACD DUP5 PUSH2 0x3A8E JUMP JUMPDEST PUSH2 0x33F4 JUMP JUMPDEST SWAP1 POP DUP3 DUP2 MSTORE PUSH1 0x20 DUP2 ADD DUP5 DUP5 DUP5 ADD GT ISZERO PUSH2 0x3AEE JUMPI PUSH2 0x3AED PUSH2 0x337E JUMP JUMPDEST JUMPDEST PUSH2 0x3AF9 DUP5 DUP3 DUP6 PUSH2 0x3440 JUMP JUMPDEST POP SWAP4 SWAP3 POP POP POP JUMP JUMPDEST PUSH1 0x0 DUP3 PUSH1 0x1F DUP4 ADD SLT PUSH2 0x3B16 JUMPI PUSH2 0x3B15 PUSH2 0x3379 JUMP JUMPDEST JUMPDEST DUP2 CALLDATALOAD PUSH2 0x3B26 DUP5 DUP3 PUSH1 0x20 DUP7 ADD PUSH2 0x3ABF JUMP JUMPDEST SWAP2 POP POP SWAP3 SWAP2 POP POP JUMP JUMPDEST PUSH1 0x0 PUSH1 0x20 DUP3 DUP5 SUB SLT ISZERO PUSH2 0x3B45 JUMPI PUSH2 0x3B44 PUSH2 0x3335 JUMP JUMPDEST JUMPDEST PUSH1 0x0 DUP3 ADD CALLDATALOAD PUSH8 0xFFFFFFFFFFFFFFFF DUP2 GT ISZERO PUSH2 0x3B63 JUMPI PUSH2 0x3B62 PUSH2 0x333A JUMP JUMPDEST JUMPDEST PUSH2 0x3B6F DUP5 DUP3 DUP6 ADD PUSH2 0x3B01 JUMP JUMPDEST SWAP2 POP POP SWAP3 SWAP2 POP POP JUMP JUMPDEST PUSH1 0x0 DUP2 MLOAD SWAP1 POP SWAP2 SWAP1 POP JUMP JUMPDEST PUSH1 0x0 DUP3 DUP3 MSTORE PUSH1 0x20 DUP3 ADD SWAP1 POP SWAP3 SWAP2 POP POP JUMP JUMPDEST PUSH1 0x0 PUSH2 0x3B9F DUP3 PUSH2 0x3B78 JUMP JUMPDEST PUSH2 0x3BA9 DUP2 DUP6 PUSH2 0x3B83 JUMP JUMPDEST SWAP4 POP PUSH2 0x3BB9 DUP2 DUP6 PUSH1 0x20 DUP7 ADD PUSH2 0x3675 JUMP JUMPDEST PUSH2 0x3BC2 DUP2 PUSH2 0x3383 JUMP JUMPDEST DUP5 ADD SWAP2 POP POP SWAP3 SWAP2 POP POP JUMP JUMPDEST PUSH1 0x0 PUSH1 0x20 DUP3 ADD SWAP1 POP DUP2 DUP2 SUB PUSH1 0x0 DUP4 ADD MSTORE PUSH2 0x3BE7 DUP2 DUP5 PUSH2 0x3B94 JUMP JUMPDEST SWAP1 POP SWAP3 SWAP2 POP POP JUMP JUMPDEST PUSH1 0x0 PUSH1 0x20 DUP3 DUP5 SUB SLT ISZERO PUSH2 0x3C05 JUMPI PUSH2 0x3C04 PUSH2 0x3335 JUMP JUMPDEST JUMPDEST PUSH1 0x0 PUSH2 0x3C13 DUP5 DUP3 DUP6 ADD PUSH2 0x3806 JUMP JUMPDEST SWAP2 POP POP SWAP3 SWAP2 POP POP JUMP JUMPDEST PUSH2 0x3C25 DUP2 PUSH2 0x3730 JUMP JUMPDEST DUP3 MSTORE POP POP JUMP JUMPDEST PUSH1 0x0 PUSH1 0x20 DUP3 ADD SWAP1 POP PUSH2 0x3C40 PUSH1 0x0 DUP4 ADD DUP5 PUSH2 0x3C1C JUMP JUMPDEST SWAP3 SWAP2 POP POP JUMP JUMPDEST PUSH1 0x0 DUP1 PUSH1 0x0 PUSH1 0x60 DUP5 DUP7 SUB SLT ISZERO PUSH2 0x3C5F JUMPI PUSH2 0x3C5E PUSH2 0x3335 JUMP JUMPDEST JUMPDEST PUSH1 0x0 PUSH2 0x3C6D DUP7 DUP3 DUP8 ADD PUSH2 0x3364 JUMP JUMPDEST SWAP4 POP POP PUSH1 0x20 DUP5 ADD CALLDATALOAD PUSH8 0xFFFFFFFFFFFFFFFF DUP2 GT ISZERO PUSH2 0x3C8E JUMPI PUSH2 0x3C8D PUSH2 0x333A JUMP JUMPDEST JUMPDEST PUSH2 0x3C9A DUP7 DUP3 DUP8 ADD PUSH2 0x3491 JUMP JUMPDEST SWAP3 POP POP PUSH1 0x40 PUSH2 0x3CAB DUP7 DUP3 DUP8 ADD PUSH2 0x3751 JUMP JUMPDEST SWAP2 POP POP SWAP3 POP SWAP3 POP SWAP3 JUMP JUMPDEST PUSH1 0x0 DUP2 SWAP1 POP SWAP2 SWAP1 POP JUMP JUMPDEST PUSH2 0x3CC8 DUP2 PUSH2 0x3CB5 JUMP JUMPDEST DUP3 MSTORE POP POP JUMP JUMPDEST PUSH1 0x0 PUSH1 0x20 DUP3 ADD SWAP1 POP PUSH2 0x3CE3 PUSH1 0x0 DUP4 ADD DUP5 PUSH2 0x3CBF JUMP JUMPDEST SWAP3 SWAP2 POP POP JUMP JUMPDEST PUSH2 0x3CF2 DUP2 PUSH2 0x3623 JUMP JUMPDEST DUP2 EQ PUSH2 0x3CFD JUMPI PUSH1 0x0 DUP1 REVERT JUMPDEST POP JUMP JUMPDEST PUSH1 0x0 DUP2 CALLDATALOAD SWAP1 POP PUSH2 0x3D0F DUP2 PUSH2 0x3CE9 JUMP JUMPDEST SWAP3 SWAP2 POP POP JUMP JUMPDEST PUSH1 0x0 DUP1 PUSH1 0x40 DUP4 DUP6 SUB SLT ISZERO PUSH2 0x3D2C JUMPI PUSH2 0x3D2B PUSH2 0x3335 JUMP JUMPDEST JUMPDEST PUSH1 0x0 PUSH2 0x3D3A DUP6 DUP3 DUP7 ADD PUSH2 0x3806 JUMP JUMPDEST SWAP3 POP POP PUSH1 0x20 PUSH2 0x3D4B DUP6 DUP3 DUP7 ADD PUSH2 0x3D00 JUMP JUMPDEST SWAP2 POP POP SWAP3 POP SWAP3 SWAP1 POP JUMP JUMPDEST PUSH1 0x0 DUP1 PUSH1 0x0 DUP1 PUSH1 0x80 DUP6 DUP8 SUB SLT ISZERO PUSH2 0x3D6F JUMPI PUSH2 0x3D6E PUSH2 0x3335 JUMP JUMPDEST JUMPDEST PUSH1 0x0 PUSH2 0x3D7D DUP8 DUP3 DUP9 ADD PUSH2 0x3806 JUMP JUMPDEST SWAP5 POP POP PUSH1 0x20 PUSH2 0x3D8E DUP8 DUP3 DUP9 ADD PUSH2 0x3806 JUMP JUMPDEST SWAP4 POP POP PUSH1 0x40 PUSH2 0x3D9F DUP8 DUP3 DUP9 ADD PUSH2 0x3751 JUMP JUMPDEST SWAP3 POP POP PUSH1 0x60 DUP6 ADD CALLDATALOAD PUSH8 0xFFFFFFFFFFFFFFFF DUP2 GT ISZERO PUSH2 0x3DC0 JUMPI PUSH2 0x3DBF PUSH2 0x333A JUMP JUMPDEST JUMPDEST PUSH2 0x3DCC DUP8 DUP3 DUP9 ADD PUSH2 0x3491 JUMP JUMPDEST SWAP2 POP POP SWAP3 SWAP6 SWAP2 SWAP5 POP SWAP3 POP JUMP JUMPDEST PUSH1 0x0 DUP1 PUSH1 0x0 DUP1 PUSH1 0x0 PUSH1 0x80 DUP7 DUP9 SUB SLT ISZERO PUSH2 0x3DF4 JUMPI PUSH2 0x3DF3 PUSH2 0x3335 JUMP JUMPDEST JUMPDEST PUSH1 0x0 PUSH2 0x3E02 DUP9 DUP3 DUP10 ADD PUSH2 0x3364 JUMP JUMPDEST SWAP6 POP POP PUSH1 0x20 PUSH2 0x3E13 DUP9 DUP3 DUP10 ADD PUSH2 0x3364 JUMP JUMPDEST SWAP5 POP POP PUSH1 0x40 PUSH2 0x3E24 DUP9 DUP3 DUP10 ADD PUSH2 0x3751 JUMP JUMPDEST SWAP4 POP POP PUSH1 0x60 DUP7 ADD CALLDATALOAD PUSH8 0xFFFFFFFFFFFFFFFF DUP2 GT ISZERO PUSH2 0x3E45 JUMPI PUSH2 0x3E44 PUSH2 0x333A JUMP JUMPDEST JUMPDEST PUSH2 0x3E51 DUP9 DUP3 DUP10 ADD PUSH2 0x38B8 JUMP JUMPDEST SWAP3 POP SWAP3 POP POP SWAP3 SWAP6 POP SWAP3 SWAP6 SWAP1 SWAP4 POP JUMP JUMPDEST PUSH1 0x0 DUP1 PUSH1 0x0 DUP1 PUSH1 0x0 PUSH1 0x80 DUP7 DUP9 SUB SLT ISZERO PUSH2 0x3E7C JUMPI PUSH2 0x3E7B PUSH2 0x3335 JUMP JUMPDEST JUMPDEST PUSH1 0x0 PUSH2 0x3E8A DUP9 DUP3 DUP10 ADD PUSH2 0x3364 JUMP JUMPDEST SWAP6 POP POP PUSH1 0x20 DUP7 ADD CALLDATALOAD PUSH8 0xFFFFFFFFFFFFFFFF DUP2 GT ISZERO PUSH2 0x3EAB JUMPI PUSH2 0x3EAA PUSH2 0x333A JUMP JUMPDEST JUMPDEST PUSH2 0x3EB7 DUP9 DUP3 DUP10 ADD PUSH2 0x3491 JUMP JUMPDEST SWAP5 POP POP PUSH1 0x40 PUSH2 0x3EC8 DUP9 DUP3 DUP10 ADD PUSH2 0x34EA JUMP JUMPDEST SWAP4 POP POP PUSH1 0x60 DUP7 ADD CALLDATALOAD PUSH8 0xFFFFFFFFFFFFFFFF DUP2 GT ISZERO PUSH2 0x3EE9 JUMPI PUSH2 0x3EE8 PUSH2 0x333A JUMP JUMPDEST JUMPDEST PUSH2 0x3EF5 DUP9 DUP3 DUP10 ADD PUSH2 0x38B8 JUMP JUMPDEST SWAP3 POP SWAP3 POP POP SWAP3 SWAP6 POP SWAP3 SWAP6 SWAP1 SWAP4 POP JUMP JUMPDEST PUSH1 0x0 DUP1 PUSH1 0x40 DUP4 DUP6 SUB SLT ISZERO PUSH2 0x3F1B JUMPI PUSH2 0x3F1A PUSH2 0x3335 JUMP JUMPDEST JUMPDEST PUSH1 0x0 PUSH2 0x3F29 DUP6 DUP3 DUP7 ADD PUSH2 0x3806 JUMP JUMPDEST SWAP3 POP POP PUSH1 0x20 PUSH2 0x3F3A DUP6 DUP3 DUP7 ADD PUSH2 0x3806 JUMP JUMPDEST SWAP2 POP POP SWAP3 POP SWAP3 SWAP1 POP JUMP JUMPDEST PUSH1 0x0 DUP1 PUSH1 0x0 DUP1 PUSH1 0x0 DUP1 PUSH1 0x0 DUP1 PUSH1 0xC0 DUP10 DUP12 SUB SLT ISZERO PUSH2 0x3F64 JUMPI PUSH2 0x3F63 PUSH2 0x3335 JUMP JUMPDEST JUMPDEST PUSH1 0x0 PUSH2 0x3F72 DUP12 DUP3 DUP13 ADD PUSH2 0x3364 JUMP JUMPDEST SWAP9 POP POP PUSH1 0x20 DUP10 ADD CALLDATALOAD PUSH8 0xFFFFFFFFFFFFFFFF DUP2 GT ISZERO PUSH2 0x3F93 JUMPI PUSH2 0x3F92 PUSH2 0x333A JUMP JUMPDEST JUMPDEST PUSH2 0x3F9F DUP12 DUP3 DUP13 ADD PUSH2 0x38B8 JUMP JUMPDEST SWAP8 POP SWAP8 POP POP PUSH1 0x40 PUSH2 0x3FB2 DUP12 DUP3 DUP13 ADD PUSH2 0x3751 JUMP JUMPDEST SWAP6 POP POP PUSH1 0x60 PUSH2 0x3FC3 DUP12 DUP3 DUP13 ADD PUSH2 0x3997 JUMP JUMPDEST SWAP5 POP POP PUSH1 0x80 PUSH2 0x3FD4 DUP12 DUP3 DUP13 ADD PUSH2 0x3806 JUMP JUMPDEST SWAP4 POP POP PUSH1 0xA0 DUP10 ADD CALLDATALOAD PUSH8 0xFFFFFFFFFFFFFFFF DUP2 GT ISZERO PUSH2 0x3FF5 JUMPI PUSH2 0x3FF4 PUSH2 0x333A JUMP JUMPDEST JUMPDEST PUSH2 0x4001 DUP12 DUP3 DUP13 ADD PUSH2 0x38B8 JUMP JUMPDEST SWAP3 POP SWAP3 POP POP SWAP3 SWAP6 SWAP9 POP SWAP3 SWAP6 SWAP9 SWAP1 SWAP4 SWAP7 POP JUMP JUMPDEST PUSH1 0x0 DUP1 PUSH1 0x0 DUP1 PUSH1 0x80 DUP6 DUP8 SUB SLT ISZERO PUSH2 0x402D JUMPI PUSH2 0x402C PUSH2 0x3335 JUMP JUMPDEST JUMPDEST PUSH1 0x0 PUSH2 0x403B DUP8 DUP3 DUP9 ADD PUSH2 0x3364 JUMP JUMPDEST SWAP5 POP POP PUSH1 0x20 PUSH2 0x404C DUP8 DUP3 DUP9 ADD PUSH2 0x3364 JUMP JUMPDEST SWAP4 POP POP PUSH1 0x40 PUSH2 0x405D DUP8 DUP3 DUP9 ADD PUSH2 0x3806 JUMP JUMPDEST SWAP3 POP POP PUSH1 0x60 PUSH2 0x406E DUP8 DUP3 DUP9 ADD PUSH2 0x3751 JUMP JUMPDEST SWAP2 POP POP SWAP3 SWAP6 SWAP2 SWAP5 POP SWAP3 POP JUMP JUMPDEST PUSH32 0x4E487B7100000000000000000000000000000000000000000000000000000000 PUSH1 0x0 MSTORE PUSH1 0x22 PUSH1 0x4 MSTORE PUSH1 0x24 PUSH1 0x0 REVERT JUMPDEST PUSH1 0x0 PUSH1 0x2 DUP3 DIV SWAP1 POP PUSH1 0x1 DUP3 AND DUP1 PUSH2 0x40C1 JUMPI PUSH1 0x7F DUP3 AND SWAP2 POP JUMPDEST PUSH1 0x20 DUP3 LT DUP2 EQ ISZERO PUSH2 0x40D5 JUMPI PUSH2 0x40D4 PUSH2 0x407A JUMP JUMPDEST JUMPDEST POP SWAP2 SWAP1 POP JUMP JUMPDEST PUSH1 0x0 DUP2 SWAP1 POP SWAP3 SWAP2 POP POP JUMP JUMPDEST PUSH1 0x0 DUP2 SWAP1 POP DUP2 PUSH1 0x0 MSTORE PUSH1 0x20 PUSH1 0x0 KECCAK256 SWAP1 POP SWAP2 SWAP1 POP JUMP JUMPDEST PUSH1 0x0 DUP2 SLOAD PUSH2 0x4108 DUP2 PUSH2 0x40A9 JUMP JUMPDEST PUSH2 0x4112 DUP2 DUP7 PUSH2 0x40DB JUMP JUMPDEST SWAP5 POP PUSH1 0x1 DUP3 AND PUSH1 0x0 DUP2 EQ PUSH2 0x412D JUMPI PUSH1 0x1 DUP2 EQ PUSH2 0x413E JUMPI PUSH2 0x4171 JUMP JUMPDEST PUSH1 0xFF NOT DUP4 AND DUP7 MSTORE DUP2 DUP7 ADD SWAP4 POP PUSH2 0x4171 JUMP JUMPDEST PUSH2 0x4147 DUP6 PUSH2 0x40E6 JUMP JUMPDEST PUSH1 0x0 JUMPDEST DUP4 DUP2 LT ISZERO PUSH2 0x4169 JUMPI DUP2 SLOAD DUP2 DUP10 ADD MSTORE PUSH1 0x1 DUP3 ADD SWAP2 POP PUSH1 0x20 DUP2 ADD SWAP1 POP PUSH2 0x414A JUMP JUMPDEST DUP4 DUP9 ADD SWAP6 POP POP POP JUMPDEST POP POP POP SWAP3 SWAP2 POP POP JUMP JUMPDEST PUSH1 0x0 PUSH2 0x4186 DUP3 DUP5 PUSH2 0x40FB JUMP JUMPDEST SWAP2 POP DUP2 SWAP1 POP SWAP3 SWAP2 POP POP JUMP JUMPDEST PUSH32 0x4C7A52656365697665723A20696E76616C696420736F757263652073656E6469 PUSH1 0x0 DUP3 ADD MSTORE PUSH32 0x6E6720636F6E7472616374000000000000000000000000000000000000000000 PUSH1 0x20 DUP3 ADD MSTORE POP JUMP JUMPDEST PUSH1 0x0 PUSH2 0x41ED PUSH1 0x2B DUP4 PUSH2 0x3664 JUMP JUMPDEST SWAP2 POP PUSH2 0x41F8 DUP3 PUSH2 0x4191 JUMP JUMPDEST PUSH1 0x40 DUP3 ADD SWAP1 POP SWAP2 SWAP1 POP JUMP JUMPDEST PUSH1 0x0 PUSH1 0x20 DUP3 ADD SWAP1 POP DUP2 DUP2 SUB PUSH1 0x0 DUP4 ADD MSTORE PUSH2 0x421C DUP2 PUSH2 0x41E0 JUMP JUMPDEST SWAP1 POP SWAP2 SWAP1 POP JUMP JUMPDEST PUSH32 0x4F776E61626C653A2063616C6C6572206973206E6F7420746865206F776E6572 PUSH1 0x0 DUP3 ADD MSTORE POP JUMP JUMPDEST PUSH1 0x0 PUSH2 0x4259 PUSH1 0x20 DUP4 PUSH2 0x3664 JUMP JUMPDEST SWAP2 POP PUSH2 0x4264 DUP3 PUSH2 0x4223 JUMP JUMPDEST PUSH1 0x20 DUP3 ADD SWAP1 POP SWAP2 SWAP1 POP JUMP JUMPDEST PUSH1 0x0 PUSH1 0x20 DUP3 ADD SWAP1 POP DUP2 DUP2 SUB PUSH1 0x0 DUP4 ADD MSTORE PUSH2 0x4288 DUP2 PUSH2 0x424C JUMP JUMPDEST SWAP1 POP SWAP2 SWAP1 POP JUMP JUMPDEST PUSH2 0x4298 DUP2 PUSH2 0x333F JUMP JUMPDEST DUP3 MSTORE POP POP JUMP JUMPDEST PUSH1 0x0 PUSH1 0x20 DUP3 ADD SWAP1 POP PUSH2 0x42B3 PUSH1 0x0 DUP4 ADD DUP5 PUSH2 0x428F JUMP JUMPDEST SWAP3 SWAP2 POP POP JUMP JUMPDEST PUSH32 0x4552433732313A20617070726F76656420717565727920666F72206E6F6E6578 PUSH1 0x0 DUP3 ADD MSTORE PUSH32 0x697374656E7420746F6B656E0000000000000000000000000000000000000000 PUSH1 0x20 DUP3 ADD MSTORE POP JUMP JUMPDEST PUSH1 0x0 PUSH2 0x4315 PUSH1 0x2C DUP4 PUSH2 0x3664 JUMP JUMPDEST SWAP2 POP PUSH2 0x4320 DUP3 PUSH2 0x42B9 JUMP JUMPDEST PUSH1 0x40 DUP3 ADD SWAP1 POP SWAP2 SWAP1 POP JUMP JUMPDEST PUSH1 0x0 PUSH1 0x20 DUP3 ADD SWAP1 POP DUP2 DUP2 SUB PUSH1 0x0 DUP4 ADD MSTORE PUSH2 0x4344 DUP2 PUSH2 0x4308 JUMP JUMPDEST SWAP1 POP SWAP2 SWAP1 POP JUMP JUMPDEST PUSH32 0x4552433732313A20617070726F76616C20746F2063757272656E74206F776E65 PUSH1 0x0 DUP3 ADD MSTORE PUSH32 0x7200000000000000000000000000000000000000000000000000000000000000 PUSH1 0x20 DUP3 ADD MSTORE POP JUMP JUMPDEST PUSH1 0x0 PUSH2 0x43A7 PUSH1 0x21 DUP4 PUSH2 0x3664 JUMP JUMPDEST SWAP2 POP PUSH2 0x43B2 DUP3 PUSH2 0x434B JUMP JUMPDEST PUSH1 0x40 DUP3 ADD SWAP1 POP SWAP2 SWAP1 POP JUMP JUMPDEST PUSH1 0x0 PUSH1 0x20 DUP3 ADD SWAP1 POP DUP2 DUP2 SUB PUSH1 0x0 DUP4 ADD MSTORE PUSH2 0x43D6 DUP2 PUSH2 0x439A JUMP JUMPDEST SWAP1 POP SWAP2 SWAP1 POP JUMP JUMPDEST PUSH32 0x4552433732313A20617070726F76652063616C6C6572206973206E6F74206F77 PUSH1 0x0 DUP3 ADD MSTORE PUSH32 0x6E6572206E6F7220617070726F76656420666F7220616C6C0000000000000000 PUSH1 0x20 DUP3 ADD MSTORE POP JUMP JUMPDEST PUSH1 0x0 PUSH2 0x4439 PUSH1 0x38 DUP4 PUSH2 0x3664 JUMP JUMPDEST SWAP2 POP PUSH2 0x4444 DUP3 PUSH2 0x43DD JUMP JUMPDEST PUSH1 0x40 DUP3 ADD SWAP1 POP SWAP2 SWAP1 POP JUMP JUMPDEST PUSH1 0x0 PUSH1 0x20 DUP3 ADD SWAP1 POP DUP2 DUP2 SUB PUSH1 0x0 DUP4 ADD MSTORE PUSH2 0x4468 DUP2 PUSH2 0x442C JUMP JUMPDEST SWAP1 POP SWAP2 SWAP1 POP JUMP JUMPDEST PUSH32 0x4552433732313A207472616E736665722063616C6C6572206973206E6F74206F PUSH1 0x0 DUP3 ADD MSTORE PUSH32 0x776E6572206E6F7220617070726F766564000000000000000000000000000000 PUSH1 0x20 DUP3 ADD MSTORE POP JUMP JUMPDEST PUSH1 0x0 PUSH2 0x44CB PUSH1 0x31 DUP4 PUSH2 0x3664 JUMP JUMPDEST SWAP2 POP PUSH2 0x44D6 DUP3 PUSH2 0x446F JUMP JUMPDEST PUSH1 0x40 DUP3 ADD SWAP1 POP SWAP2 SWAP1 POP JUMP JUMPDEST PUSH1 0x0 PUSH1 0x20 DUP3 ADD SWAP1 POP DUP2 DUP2 SUB PUSH1 0x0 DUP4 ADD MSTORE PUSH2 0x44FA DUP2 PUSH2 0x44BE JUMP JUMPDEST SWAP1 POP SWAP2 SWAP1 POP JUMP JUMPDEST PUSH1 0x0 PUSH2 0x450D DUP4 DUP6 PUSH2 0x40DB JUMP JUMPDEST SWAP4 POP PUSH2 0x451A DUP4 DUP6 DUP5 PUSH2 0x3440 JUMP JUMPDEST DUP3 DUP5 ADD SWAP1 POP SWAP4 SWAP3 POP POP POP JUMP JUMPDEST PUSH1 0x0 PUSH2 0x4533 DUP3 DUP5 DUP7 PUSH2 0x4501 JUMP JUMPDEST SWAP2 POP DUP2 SWAP1 POP SWAP4 SWAP3 POP POP POP JUMP JUMPDEST PUSH1 0x0 PUSH2 0x454B DUP4 DUP6 PUSH2 0x3B83 JUMP JUMPDEST SWAP4 POP PUSH2 0x4558 DUP4 DUP6 DUP5 PUSH2 0x3440 JUMP JUMPDEST PUSH2 0x4561 DUP4 PUSH2 0x3383 JUMP JUMPDEST DUP5 ADD SWAP1 POP SWAP4 SWAP3 POP POP POP JUMP JUMPDEST PUSH1 0x0 PUSH1 0x40 DUP3 ADD SWAP1 POP PUSH2 0x4581 PUSH1 0x0 DUP4 ADD DUP7 PUSH2 0x428F JUMP JUMPDEST DUP2 DUP2 SUB PUSH1 0x20 DUP4 ADD MSTORE PUSH2 0x4594 DUP2 DUP5 DUP7 PUSH2 0x453F JUMP JUMPDEST SWAP1 POP SWAP5 SWAP4 POP POP POP POP JUMP JUMPDEST PUSH32 0x4552433732313A206F776E657220717565727920666F72206E6F6E6578697374 PUSH1 0x0 DUP3 ADD MSTORE PUSH32 0x656E7420746F6B656E0000000000000000000000000000000000000000000000 PUSH1 0x20 DUP3 ADD MSTORE POP JUMP JUMPDEST PUSH1 0x0 PUSH2 0x45FA PUSH1 0x29 DUP4 PUSH2 0x3664 JUMP JUMPDEST SWAP2 POP PUSH2 0x4605 DUP3 PUSH2 0x459E JUMP JUMPDEST PUSH1 0x40 DUP3 ADD SWAP1 POP SWAP2 SWAP1 POP JUMP JUMPDEST PUSH1 0x0 PUSH1 0x20 DUP3 ADD SWAP1 POP DUP2 DUP2 SUB PUSH1 0x0 DUP4 ADD MSTORE PUSH2 0x4629 DUP2 PUSH2 0x45ED JUMP JUMPDEST SWAP1 POP SWAP2 SWAP1 POP JUMP JUMPDEST PUSH32 0x4C7A52656365697665723A2063616C6C6572206D757374206265204272696467 PUSH1 0x0 DUP3 ADD MSTORE PUSH32 0x652E000000000000000000000000000000000000000000000000000000000000 PUSH1 0x20 DUP3 ADD MSTORE POP JUMP JUMPDEST PUSH1 0x0 PUSH2 0x468C PUSH1 0x22 DUP4 PUSH2 0x3664 JUMP JUMPDEST SWAP2 POP PUSH2 0x4697 DUP3 PUSH2 0x4630 JUMP JUMPDEST PUSH1 0x40 DUP3 ADD SWAP1 POP SWAP2 SWAP1 POP JUMP JUMPDEST PUSH1 0x0 PUSH1 0x20 DUP3 ADD SWAP1 POP DUP2 DUP2 SUB PUSH1 0x0 DUP4 ADD MSTORE PUSH2 0x46BB DUP2 PUSH2 0x467F JUMP JUMPDEST SWAP1 POP SWAP2 SWAP1 POP JUMP JUMPDEST PUSH32 0x4552433732313A2062616C616E636520717565727920666F7220746865207A65 PUSH1 0x0 DUP3 ADD MSTORE PUSH32 0x726F206164647265737300000000000000000000000000000000000000000000 PUSH1 0x20 DUP3 ADD MSTORE POP JUMP JUMPDEST PUSH1 0x0 PUSH2 0x471E PUSH1 0x2A DUP4 PUSH2 0x3664 JUMP JUMPDEST SWAP2 POP PUSH2 0x4729 DUP3 PUSH2 0x46C2 JUMP JUMPDEST PUSH1 0x40 DUP3 ADD SWAP1 POP SWAP2 SWAP1 POP JUMP JUMPDEST PUSH1 0x0 PUSH1 0x20 DUP3 ADD SWAP1 POP DUP2 DUP2 SUB PUSH1 0x0 DUP4 ADD MSTORE PUSH2 0x474D DUP2 PUSH2 0x4711 JUMP JUMPDEST SWAP1 POP SWAP2 SWAP1 POP JUMP JUMPDEST PUSH32 0x4552433732314D657461646174613A2055524920717565727920666F72206E6F PUSH1 0x0 DUP3 ADD MSTORE PUSH32 0x6E6578697374656E7420746F6B656E0000000000000000000000000000000000 PUSH1 0x20 DUP3 ADD MSTORE POP JUMP JUMPDEST PUSH1 0x0 PUSH2 0x47B0 PUSH1 0x2F DUP4 PUSH2 0x3664 JUMP JUMPDEST SWAP2 POP PUSH2 0x47BB DUP3 PUSH2 0x4754 JUMP JUMPDEST PUSH1 0x40 DUP3 ADD SWAP1 POP SWAP2 SWAP1 POP JUMP JUMPDEST PUSH1 0x0 PUSH1 0x20 DUP3 ADD SWAP1 POP DUP2 DUP2 SUB PUSH1 0x0 DUP4 ADD MSTORE PUSH2 0x47DF DUP2 PUSH2 0x47A3 JUMP JUMPDEST SWAP1 POP SWAP2 SWAP1 POP JUMP JUMPDEST PUSH1 0x0 DUP2 SWAP1 POP SWAP3 SWAP2 POP POP JUMP JUMPDEST PUSH1 0x0 PUSH2 0x47FC DUP3 PUSH2 0x3659 JUMP JUMPDEST PUSH2 0x4806 DUP2 DUP6 PUSH2 0x47E6 JUMP JUMPDEST SWAP4 POP PUSH2 0x4816 DUP2 DUP6 PUSH1 0x20 DUP7 ADD PUSH2 0x3675 JUMP JUMPDEST DUP1 DUP5 ADD SWAP2 POP POP SWAP3 SWAP2 POP POP JUMP JUMPDEST PUSH1 0x0 PUSH2 0x482E DUP3 DUP6 PUSH2 0x47F1 JUMP JUMPDEST SWAP2 POP PUSH2 0x483A DUP3 DUP5 PUSH2 0x47F1 JUMP JUMPDEST SWAP2 POP DUP2 SWAP1 POP SWAP4 SWAP3 POP POP POP JUMP JUMPDEST PUSH1 0x0 PUSH1 0x80 DUP3 ADD SWAP1 POP PUSH2 0x485B PUSH1 0x0 DUP4 ADD DUP9 PUSH2 0x428F JUMP JUMPDEST PUSH2 0x4868 PUSH1 0x20 DUP4 ADD DUP8 PUSH2 0x428F JUMP JUMPDEST PUSH2 0x4875 PUSH1 0x40 DUP4 ADD DUP7 PUSH2 0x3C1C JUMP JUMPDEST DUP2 DUP2 SUB PUSH1 0x60 DUP4 ADD MSTORE PUSH2 0x4888 DUP2 DUP5 DUP7 PUSH2 0x453F JUMP JUMPDEST SWAP1 POP SWAP7 SWAP6 POP POP POP POP POP POP JUMP JUMPDEST PUSH1 0x0 PUSH2 0x489F DUP3 PUSH2 0x3B78 JUMP JUMPDEST PUSH2 0x48A9 DUP2 DUP6 PUSH2 0x40DB JUMP JUMPDEST SWAP4 POP PUSH2 0x48B9 DUP2 DUP6 PUSH1 0x20 DUP7 ADD PUSH2 0x3675 JUMP JUMPDEST DUP1 DUP5 ADD SWAP2 POP POP SWAP3 SWAP2 POP POP JUMP JUMPDEST PUSH1 0x0 PUSH2 0x48D1 DUP3 DUP5 PUSH2 0x4894 JUMP JUMPDEST SWAP2 POP DUP2 SWAP1 POP SWAP3 SWAP2 POP POP JUMP JUMPDEST PUSH32 0x4C7A52656365697665723A206E6F2073746F726564206D657373616765000000 PUSH1 0x0 DUP3 ADD MSTORE POP JUMP JUMPDEST PUSH1 0x0 PUSH2 0x4912 PUSH1 0x1D DUP4 PUSH2 0x3664 JUMP JUMPDEST SWAP2 POP PUSH2 0x491D DUP3 PUSH2 0x48DC JUMP JUMPDEST PUSH1 0x20 DUP3 ADD SWAP1 POP SWAP2 SWAP1 POP JUMP JUMPDEST PUSH1 0x0 PUSH1 0x20 DUP3 ADD SWAP1 POP DUP2 DUP2 SUB PUSH1 0x0 DUP4 ADD MSTORE PUSH2 0x4941 DUP2 PUSH2 0x4905 JUMP JUMPDEST SWAP1 POP SWAP2 SWAP1 POP JUMP JUMPDEST PUSH32 0x4C7A52656365697665723A20696E76616C6964207061796C6F61640000000000 PUSH1 0x0 DUP3 ADD MSTORE POP JUMP JUMPDEST PUSH1 0x0 PUSH2 0x497E PUSH1 0x1B DUP4 PUSH2 0x3664 JUMP JUMPDEST SWAP2 POP PUSH2 0x4989 DUP3 PUSH2 0x4948 JUMP JUMPDEST PUSH1 0x20 DUP3 ADD SWAP1 POP SWAP2 SWAP1 POP JUMP JUMPDEST PUSH1 0x0 PUSH1 0x20 DUP3 ADD SWAP1 POP DUP2 DUP2 SUB PUSH1 0x0 DUP4 ADD MSTORE PUSH2 0x49AD DUP2 PUSH2 0x4971 JUMP JUMPDEST SWAP1 POP SWAP2 SWAP1 POP JUMP JUMPDEST PUSH2 0x49BD DUP2 PUSH2 0x34BF JUMP JUMPDEST DUP3 MSTORE POP POP JUMP JUMPDEST PUSH1 0x0 PUSH1 0x80 DUP3 ADD SWAP1 POP PUSH2 0x49D8 PUSH1 0x0 DUP4 ADD DUP9 PUSH2 0x428F JUMP JUMPDEST DUP2 DUP2 SUB PUSH1 0x20 DUP4 ADD MSTORE PUSH2 0x49EA DUP2 DUP8 PUSH2 0x3B94 JUMP JUMPDEST SWAP1 POP PUSH2 0x49F9 PUSH1 0x40 DUP4 ADD DUP7 PUSH2 0x49B4 JUMP JUMPDEST DUP2 DUP2 SUB PUSH1 0x60 DUP4 ADD MSTORE PUSH2 0x4A0C DUP2 DUP5 DUP7 PUSH2 0x453F JUMP JUMPDEST SWAP1 POP SWAP7 SWAP6 POP POP POP POP POP POP JUMP JUMPDEST PUSH32 0x4F776E61626C653A206E6577206F776E657220697320746865207A65726F2061 PUSH1 0x0 DUP3 ADD MSTORE PUSH32 0x6464726573730000000000000000000000000000000000000000000000000000 PUSH1 0x20 DUP3 ADD MSTORE POP JUMP JUMPDEST PUSH1 0x0 PUSH2 0x4A74 PUSH1 0x26 DUP4 PUSH2 0x3664 JUMP JUMPDEST SWAP2 POP PUSH2 0x4A7F DUP3 PUSH2 0x4A18 JUMP JUMPDEST PUSH1 0x40 DUP3 ADD SWAP1 POP SWAP2 SWAP1 POP JUMP JUMPDEST PUSH1 0x0 PUSH1 0x20 DUP3 ADD SWAP1 POP DUP2 DUP2 SUB PUSH1 0x0 DUP4 ADD MSTORE PUSH2 0x4AA3 DUP2 PUSH2 0x4A67 JUMP JUMPDEST SWAP1 POP SWAP2 SWAP1 POP JUMP JUMPDEST PUSH1 0x0 DUP2 MLOAD SWAP1 POP PUSH2 0x4AB9 DUP2 PUSH2 0x334D JUMP JUMPDEST SWAP3 SWAP2 POP POP JUMP JUMPDEST PUSH1 0x0 PUSH1 0x20 DUP3 DUP5 SUB SLT ISZERO PUSH2 0x4AD5 JUMPI PUSH2 0x4AD4 PUSH2 0x3335 JUMP JUMPDEST JUMPDEST PUSH1 0x0 PUSH2 0x4AE3 DUP5 DUP3 DUP6 ADD PUSH2 0x4AAA JUMP JUMPDEST SWAP2 POP POP SWAP3 SWAP2 POP POP JUMP JUMPDEST PUSH1 0x0 PUSH1 0x80 DUP3 ADD SWAP1 POP PUSH2 0x4B01 PUSH1 0x0 DUP4 ADD DUP8 PUSH2 0x428F JUMP JUMPDEST PUSH2 0x4B0E PUSH1 0x20 DUP4 ADD DUP7 PUSH2 0x428F JUMP JUMPDEST PUSH2 0x4B1B PUSH1 0x40 DUP4 ADD DUP6 PUSH2 0x37C5 JUMP JUMPDEST PUSH2 0x4B28 PUSH1 0x60 DUP4 ADD DUP5 PUSH2 0x3C1C JUMP JUMPDEST SWAP6 SWAP5 POP POP POP POP POP JUMP JUMPDEST PUSH1 0x0 PUSH2 0x4B44 PUSH2 0x4B3F DUP5 PUSH2 0x340F JUMP JUMPDEST PUSH2 0x33F4 JUMP JUMPDEST SWAP1 POP DUP3 DUP2 MSTORE PUSH1 0x20 DUP2 ADD DUP5 DUP5 DUP5 ADD GT ISZERO PUSH2 0x4B60 JUMPI PUSH2 0x4B5F PUSH2 0x337E JUMP JUMPDEST JUMPDEST PUSH2 0x4B6B DUP5 DUP3 DUP6 PUSH2 0x3675 JUMP JUMPDEST POP SWAP4 SWAP3 POP POP POP JUMP JUMPDEST PUSH1 0x0 DUP3 PUSH1 0x1F DUP4 ADD SLT PUSH2 0x4B88 JUMPI PUSH2 0x4B87 PUSH2 0x3379 JUMP JUMPDEST JUMPDEST DUP2 MLOAD PUSH2 0x4B98 DUP5 DUP3 PUSH1 0x20 DUP7 ADD PUSH2 0x4B31 JUMP JUMPDEST SWAP2 POP POP SWAP3 SWAP2 POP POP JUMP JUMPDEST PUSH1 0x0 PUSH1 0x20 DUP3 DUP5 SUB SLT ISZERO PUSH2 0x4BB7 JUMPI PUSH2 0x4BB6 PUSH2 0x3335 JUMP JUMPDEST JUMPDEST PUSH1 0x0 DUP3 ADD MLOAD PUSH8 0xFFFFFFFFFFFFFFFF DUP2 GT ISZERO PUSH2 0x4BD5 JUMPI PUSH2 0x4BD4 PUSH2 0x333A JUMP JUMPDEST JUMPDEST PUSH2 0x4BE1 DUP5 DUP3 DUP6 ADD PUSH2 0x4B73 JUMP JUMPDEST SWAP2 POP POP SWAP3 SWAP2 POP POP JUMP JUMPDEST PUSH1 0x0 PUSH1 0x80 DUP3 ADD SWAP1 POP PUSH2 0x4BFF PUSH1 0x0 DUP4 ADD DUP8 PUSH2 0x428F JUMP JUMPDEST DUP2 DUP2 SUB PUSH1 0x20 DUP4 ADD MSTORE PUSH2 0x4C11 DUP2 DUP7 PUSH2 0x3B94 JUMP JUMPDEST SWAP1 POP PUSH2 0x4C20 PUSH1 0x40 DUP4 ADD DUP6 PUSH2 0x49B4 JUMP JUMPDEST DUP2 DUP2 SUB PUSH1 0x60 DUP4 ADD MSTORE PUSH2 0x4C32 DUP2 DUP5 PUSH2 0x3B94 JUMP JUMPDEST SWAP1 POP SWAP6 SWAP5 POP POP POP POP POP JUMP JUMPDEST PUSH32 0x4552433732313A206F70657261746F7220717565727920666F72206E6F6E6578 PUSH1 0x0 DUP3 ADD MSTORE PUSH32 0x697374656E7420746F6B656E0000000000000000000000000000000000000000 PUSH1 0x20 DUP3 ADD MSTORE POP JUMP JUMPDEST PUSH1 0x0 PUSH2 0x4C99 PUSH1 0x2C DUP4 PUSH2 0x3664 JUMP JUMPDEST SWAP2 POP PUSH2 0x4CA4 DUP3 PUSH2 0x4C3D JUMP JUMPDEST PUSH1 0x40 DUP3 ADD SWAP1 POP SWAP2 SWAP1 POP JUMP JUMPDEST PUSH1 0x0 PUSH1 0x20 DUP3 ADD SWAP1 POP DUP2 DUP2 SUB PUSH1 0x0 DUP4 ADD MSTORE PUSH2 0x4CC8 DUP2 PUSH2 0x4C8C JUMP JUMPDEST SWAP1 POP SWAP2 SWAP1 POP JUMP JUMPDEST PUSH32 0x4552433732313A207472616E736665722066726F6D20696E636F727265637420 PUSH1 0x0 DUP3 ADD MSTORE PUSH32 0x6F776E6572000000000000000000000000000000000000000000000000000000 PUSH1 0x20 DUP3 ADD MSTORE POP JUMP JUMPDEST PUSH1 0x0 PUSH2 0x4D2B PUSH1 0x25 DUP4 PUSH2 0x3664 JUMP JUMPDEST SWAP2 POP PUSH2 0x4D36 DUP3 PUSH2 0x4CCF JUMP JUMPDEST PUSH1 0x40 DUP3 ADD SWAP1 POP SWAP2 SWAP1 POP JUMP JUMPDEST PUSH1 0x0 PUSH1 0x20 DUP3 ADD SWAP1 POP DUP2 DUP2 SUB PUSH1 0x0 DUP4 ADD MSTORE PUSH2 0x4D5A DUP2 PUSH2 0x4D1E JUMP JUMPDEST SWAP1 POP SWAP2 SWAP1 POP JUMP JUMPDEST PUSH32 0x4552433732313A207472616E7366657220746F20746865207A65726F20616464 PUSH1 0x0 DUP3 ADD MSTORE PUSH32 0x7265737300000000000000000000000000000000000000000000000000000000 PUSH1 0x20 DUP3 ADD MSTORE POP JUMP JUMPDEST PUSH1 0x0 PUSH2 0x4DBD PUSH1 0x24 DUP4 PUSH2 0x3664 JUMP JUMPDEST SWAP2 POP PUSH2 0x4DC8 DUP3 PUSH2 0x4D61 JUMP JUMPDEST PUSH1 0x40 DUP3 ADD SWAP1 POP SWAP2 SWAP1 POP JUMP JUMPDEST PUSH1 0x0 PUSH1 0x20 DUP3 ADD SWAP1 POP DUP2 DUP2 SUB PUSH1 0x0 DUP4 ADD MSTORE PUSH2 0x4DEC DUP2 PUSH2 0x4DB0 JUMP JUMPDEST SWAP1 POP SWAP2 SWAP1 POP JUMP JUMPDEST PUSH32 0x4E487B7100000000000000000000000000000000000000000000000000000000 PUSH1 0x0 MSTORE PUSH1 0x11 PUSH1 0x4 MSTORE PUSH1 0x24 PUSH1 0x0 REVERT JUMPDEST PUSH1 0x0 PUSH2 0x4E2D DUP3 PUSH2 0x3730 JUMP JUMPDEST SWAP2 POP PUSH2 0x4E38 DUP4 PUSH2 0x3730 JUMP JUMPDEST SWAP3 POP DUP3 DUP3 LT ISZERO PUSH2 0x4E4B JUMPI PUSH2 0x4E4A PUSH2 0x4DF3 JUMP JUMPDEST JUMPDEST DUP3 DUP3 SUB SWAP1 POP SWAP3 SWAP2 POP POP JUMP JUMPDEST PUSH1 0x0 PUSH2 0x4E61 DUP3 PUSH2 0x3730 JUMP JUMPDEST SWAP2 POP PUSH2 0x4E6C DUP4 PUSH2 0x3730 JUMP JUMPDEST SWAP3 POP DUP3 PUSH32 0xFFFFFFFFFFFFFFFFFFFFFFFFFFFFFFFFFFFFFFFFFFFFFFFFFFFFFFFFFFFFFFFF SUB DUP3 GT ISZERO PUSH2 0x4EA1 JUMPI PUSH2 0x4EA0 PUSH2 0x4DF3 JUMP JUMPDEST JUMPDEST DUP3 DUP3 ADD SWAP1 POP SWAP3 SWAP2 POP POP JUMP JUMPDEST PUSH1 0x0 PUSH1 0x40 DUP3 ADD SWAP1 POP DUP2 DUP2 SUB PUSH1 0x0 DUP4 ADD MSTORE PUSH2 0x4EC6 DUP2 DUP6 PUSH2 0x3B94 JUMP JUMPDEST SWAP1 POP PUSH2 0x4ED5 PUSH1 0x20 DUP4 ADD DUP5 PUSH2 0x3C1C JUMP JUMPDEST SWAP4 SWAP3 POP POP POP JUMP JUMPDEST PUSH1 0x0 PUSH1 0x40 DUP3 ADD SWAP1 POP PUSH2 0x4EF1 PUSH1 0x0 DUP4 ADD DUP6 PUSH2 0x428F JUMP JUMPDEST PUSH2 0x4EFE PUSH1 0x20 DUP4 ADD DUP5 PUSH2 0x37C5 JUMP JUMPDEST SWAP4 SWAP3 POP POP POP JUMP JUMPDEST PUSH1 0x0 DUP2 MLOAD SWAP1 POP PUSH2 0x4F14 DUP2 PUSH2 0x34D3 JUMP JUMPDEST SWAP3 SWAP2 POP POP JUMP JUMPDEST PUSH1 0x0 PUSH1 0x20 DUP3 DUP5 SUB SLT ISZERO PUSH2 0x4F30 JUMPI PUSH2 0x4F2F PUSH2 0x3335 JUMP JUMPDEST JUMPDEST PUSH1 0x0 PUSH2 0x4F3E DUP5 DUP3 DUP6 ADD PUSH2 0x4F05 JUMP JUMPDEST SWAP2 POP POP SWAP3 SWAP2 POP POP JUMP JUMPDEST PUSH1 0x0 PUSH1 0x40 DUP3 ADD SWAP1 POP PUSH2 0x4F5C PUSH1 0x0 DUP4 ADD DUP6 PUSH2 0x3C1C JUMP JUMPDEST PUSH2 0x4F69 PUSH1 0x20 DUP4 ADD DUP5 PUSH2 0x49B4 JUMP JUMPDEST SWAP4 SWAP3 POP POP POP JUMP JUMPDEST PUSH1 0x0 DUP2 MLOAD SWAP1 POP PUSH2 0x4F7F DUP2 PUSH2 0x373A JUMP JUMPDEST SWAP3 SWAP2 POP POP JUMP JUMPDEST PUSH1 0x0 DUP1 PUSH1 0x40 DUP4 DUP6 SUB SLT ISZERO PUSH2 0x4F9C JUMPI PUSH2 0x4F9B PUSH2 0x3335 JUMP JUMPDEST JUMPDEST PUSH1 0x0 DUP4 ADD MLOAD PUSH8 0xFFFFFFFFFFFFFFFF DUP2 GT ISZERO PUSH2 0x4FBA JUMPI PUSH2 0x4FB9 PUSH2 0x333A JUMP JUMPDEST JUMPDEST PUSH2 0x4FC6 DUP6 DUP3 DUP7 ADD PUSH2 0x4B73 JUMP JUMPDEST SWAP3 POP POP PUSH1 0x20 PUSH2 0x4FD7 DUP6 DUP3 DUP7 ADD PUSH2 0x4F70 JUMP JUMPDEST SWAP2 POP POP SWAP3 POP SWAP3 SWAP1 POP JUMP JUMPDEST PUSH1 0x0 PUSH1 0x80 DUP3 ADD SWAP1 POP PUSH2 0x4FF6 PUSH1 0x0 DUP4 ADD DUP8 PUSH2 0x428F JUMP JUMPDEST PUSH2 0x5003 PUSH1 0x20 DUP4 ADD DUP7 PUSH2 0x37C5 JUMP JUMPDEST PUSH2 0x5010 PUSH1 0x40 DUP4 ADD DUP6 PUSH2 0x3C1C JUMP JUMPDEST PUSH2 0x501D PUSH1 0x60 DUP4 ADD DUP5 PUSH2 0x49B4 JUMP JUMPDEST SWAP6 SWAP5 POP POP POP POP POP JUMP JUMPDEST PUSH32 0x4552433732313A20617070726F766520746F2063616C6C657200000000000000 PUSH1 0x0 DUP3 ADD MSTORE POP JUMP JUMPDEST PUSH1 0x0 PUSH2 0x505C PUSH1 0x19 DUP4 PUSH2 0x3664 JUMP JUMPDEST SWAP2 POP PUSH2 0x5067 DUP3 PUSH2 0x5026 JUMP JUMPDEST PUSH1 0x20 DUP3 ADD SWAP1 POP SWAP2 SWAP1 POP JUMP JUMPDEST PUSH1 0x0 PUSH1 0x20 DUP3 ADD SWAP1 POP DUP2 DUP2 SUB PUSH1 0x0 DUP4 ADD MSTORE PUSH2 0x508B DUP2 PUSH2 0x504F JUMP JUMPDEST SWAP1 POP SWAP2 SWAP1 POP JUMP JUMPDEST PUSH32 0x4552433732313A207472616E7366657220746F206E6F6E204552433732315265 PUSH1 0x0 DUP3 ADD MSTORE PUSH32 0x63656976657220696D706C656D656E7465720000000000000000000000000000 PUSH1 0x20 DUP3 ADD MSTORE POP JUMP JUMPDEST PUSH1 0x0 PUSH2 0x50EE PUSH1 0x32 DUP4 PUSH2 0x3664 JUMP JUMPDEST SWAP2 POP PUSH2 0x50F9 DUP3 PUSH2 0x5092 JUMP JUMPDEST PUSH1 0x40 DUP3 ADD SWAP1 POP SWAP2 SWAP1 POP JUMP JUMPDEST PUSH1 0x0 PUSH1 0x20 DUP3 ADD SWAP1 POP DUP2 DUP2 SUB PUSH1 0x0 DUP4 ADD MSTORE PUSH2 0x511D DUP2 PUSH2 0x50E1 JUMP JUMPDEST SWAP1 POP SWAP2 SWAP1 POP JUMP JUMPDEST PUSH1 0x0 PUSH2 0x512F DUP3 PUSH2 0x3730 JUMP JUMPDEST SWAP2 POP PUSH32 0xFFFFFFFFFFFFFFFFFFFFFFFFFFFFFFFFFFFFFFFFFFFFFFFFFFFFFFFFFFFFFFFF DUP3 EQ ISZERO PUSH2 0x5162 JUMPI PUSH2 0x5161 PUSH2 0x4DF3 JUMP JUMPDEST JUMPDEST PUSH1 0x1 DUP3 ADD SWAP1 POP SWAP2 SWAP1 POP JUMP JUMPDEST PUSH32 0x4E487B7100000000000000000000000000000000000000000000000000000000 PUSH1 0x0 MSTORE PUSH1 0x12 PUSH1 0x4 MSTORE PUSH1 0x24 PUSH1 0x0 REVERT JUMPDEST PUSH1 0x0 PUSH2 0x51A7 DUP3 PUSH2 0x3730 JUMP JUMPDEST SWAP2 POP PUSH2 0x51B2 DUP4 PUSH2 0x3730 JUMP JUMPDEST SWAP3 POP DUP3 PUSH2 0x51C2 JUMPI PUSH2 0x51C1 PUSH2 0x516D JUMP JUMPDEST JUMPDEST DUP3 DUP3 DIV SWAP1 POP SWAP3 SWAP2 POP POP JUMP JUMPDEST PUSH1 0x0 PUSH2 0x51D8 DUP3 PUSH2 0x3730 JUMP JUMPDEST SWAP2 POP PUSH2 0x51E3 DUP4 PUSH2 0x3730 JUMP JUMPDEST SWAP3 POP DUP3 PUSH2 0x51F3 JUMPI PUSH2 0x51F2 PUSH2 0x516D JUMP JUMPDEST JUMPDEST DUP3 DUP3 MOD SWAP1 POP SWAP3 SWAP2 POP POP JUMP JUMPDEST PUSH32 0x4E487B7100000000000000000000000000000000000000000000000000000000 PUSH1 0x0 MSTORE PUSH1 0x32 PUSH1 0x4 MSTORE PUSH1 0x24 PUSH1 0x0 REVERT JUMPDEST PUSH32 0x4C7A53656E643A2064657374696E6174696F6E20636861696E206973206E6F74 PUSH1 0x0 DUP3 ADD MSTORE PUSH32 0x2061207472757374656420736F757263652E0000000000000000000000000000 PUSH1 0x20 DUP3 ADD MSTORE POP JUMP JUMPDEST PUSH1 0x0 PUSH2 0x5289 PUSH1 0x32 DUP4 PUSH2 0x3664 JUMP JUMPDEST SWAP2 POP PUSH2 0x5294 DUP3 PUSH2 0x522D JUMP JUMPDEST PUSH1 0x40 DUP3 ADD SWAP1 POP SWAP2 SWAP1 POP JUMP JUMPDEST PUSH1 0x0 PUSH1 0x20 DUP3 ADD SWAP1 POP DUP2 DUP2 SUB PUSH1 0x0 DUP4 ADD MSTORE PUSH2 0x52B8 DUP2 PUSH2 0x527C JUMP JUMPDEST SWAP1 POP SWAP2 SWAP1 POP JUMP JUMPDEST PUSH1 0x0 DUP2 SLOAD PUSH2 0x52CC DUP2 PUSH2 0x40A9 JUMP JUMPDEST PUSH2 0x52D6 DUP2 DUP7 PUSH2 0x3B83 JUMP JUMPDEST SWAP5 POP PUSH1 0x1 DUP3 AND PUSH1 0x0 DUP2 EQ PUSH2 0x52F1 JUMPI PUSH1 0x1 DUP2 EQ PUSH2 0x5303 JUMPI PUSH2 0x5336 JUMP JUMPDEST PUSH1 0xFF NOT DUP4 AND DUP7 MSTORE PUSH1 0x20 DUP7 ADD SWAP4 POP PUSH2 0x5336 JUMP JUMPDEST PUSH2 0x530C DUP6 PUSH2 0x40E6 JUMP JUMPDEST PUSH1 0x0 JUMPDEST DUP4 DUP2 LT ISZERO PUSH2 0x532E JUMPI DUP2 SLOAD DUP2 DUP10 ADD MSTORE PUSH1 0x1 DUP3 ADD SWAP2 POP PUSH1 0x20 DUP2 ADD SWAP1 POP PUSH2 0x530F JUMP JUMPDEST DUP1 DUP9 ADD SWAP6 POP POP POP JUMPDEST POP POP POP SWAP3 SWAP2 POP POP JUMP JUMPDEST PUSH2 0x5348 DUP2 PUSH2 0x396E JUMP JUMPDEST DUP3 MSTORE POP POP JUMP JUMPDEST PUSH1 0x0 PUSH1 0xC0 DUP3 ADD SWAP1 POP PUSH2 0x5363 PUSH1 0x0 DUP4 ADD DUP10 PUSH2 0x428F JUMP JUMPDEST DUP2 DUP2 SUB PUSH1 0x20 DUP4 ADD MSTORE PUSH2 0x5375 DUP2 DUP9 PUSH2 0x52BF JUMP JUMPDEST SWAP1 POP DUP2 DUP2 SUB PUSH1 0x40 DUP4 ADD MSTORE PUSH2 0x5389 DUP2 DUP8 PUSH2 0x3B94 JUMP JUMPDEST SWAP1 POP PUSH2 0x5398 PUSH1 0x60 DUP4 ADD DUP7 PUSH2 0x533F JUMP JUMPDEST PUSH2 0x53A5 PUSH1 0x80 DUP4 ADD DUP6 PUSH2 0x37C5 JUMP JUMPDEST DUP2 DUP2 SUB PUSH1 0xA0 DUP4 ADD MSTORE PUSH2 0x53B7 DUP2 DUP5 PUSH2 0x3B94 JUMP JUMPDEST SWAP1 POP SWAP8 SWAP7 POP POP POP POP POP POP POP JUMP JUMPDEST PUSH1 0x0 PUSH1 0x80 DUP3 ADD SWAP1 POP PUSH2 0x53D9 PUSH1 0x0 DUP4 ADD DUP8 PUSH2 0x37C5 JUMP JUMPDEST PUSH2 0x53E6 PUSH1 0x20 DUP4 ADD DUP7 PUSH2 0x37C5 JUMP JUMPDEST PUSH2 0x53F3 PUSH1 0x40 DUP4 ADD DUP6 PUSH2 0x3C1C JUMP JUMPDEST DUP2 DUP2 SUB PUSH1 0x60 DUP4 ADD MSTORE PUSH2 0x5405 DUP2 DUP5 PUSH2 0x3B94 JUMP JUMPDEST SWAP1 POP SWAP6 SWAP5 POP POP POP POP POP JUMP JUMPDEST PUSH1 0x0 DUP2 MLOAD SWAP1 POP PUSH2 0x541F DUP2 PUSH2 0x35CA JUMP JUMPDEST SWAP3 SWAP2 POP POP JUMP JUMPDEST PUSH1 0x0 PUSH1 0x20 DUP3 DUP5 SUB SLT ISZERO PUSH2 0x543B JUMPI PUSH2 0x543A PUSH2 0x3335 JUMP JUMPDEST JUMPDEST PUSH1 0x0 PUSH2 0x5449 DUP5 DUP3 DUP6 ADD PUSH2 0x5410 JUMP JUMPDEST SWAP2 POP POP SWAP3 SWAP2 POP POP JUMP JUMPDEST PUSH32 0x4552433732313A206D696E7420746F20746865207A65726F2061646472657373 PUSH1 0x0 DUP3 ADD MSTORE POP JUMP JUMPDEST PUSH1 0x0 PUSH2 0x5488 PUSH1 0x20 DUP4 PUSH2 0x3664 JUMP JUMPDEST SWAP2 POP PUSH2 0x5493 DUP3 PUSH2 0x5452 JUMP JUMPDEST PUSH1 0x20 DUP3 ADD SWAP1 POP SWAP2 SWAP1 POP JUMP JUMPDEST PUSH1 0x0 PUSH1 0x20 DUP3 ADD SWAP1 POP DUP2 DUP2 SUB PUSH1 0x0 DUP4 ADD MSTORE PUSH2 0x54B7 DUP2 PUSH2 0x547B JUMP JUMPDEST SWAP1 POP SWAP2 SWAP1 POP JUMP JUMPDEST PUSH32 0x4552433732313A20746F6B656E20616C7265616479206D696E74656400000000 PUSH1 0x0 DUP3 ADD MSTORE POP JUMP JUMPDEST PUSH1 0x0 PUSH2 0x54F4 PUSH1 0x1C DUP4 PUSH2 0x3664 JUMP JUMPDEST SWAP2 POP PUSH2 0x54FF DUP3 PUSH2 0x54BE JUMP JUMPDEST PUSH1 0x20 DUP3 ADD SWAP1 POP SWAP2 SWAP1 POP JUMP JUMPDEST PUSH1 0x0 PUSH1 0x20 DUP3 ADD SWAP1 POP DUP2 DUP2 SUB PUSH1 0x0 DUP4 ADD MSTORE PUSH2 0x5523 DUP2 PUSH2 0x54E7 JUMP JUMPDEST SWAP1 POP SWAP2 SWAP1 POP JUMP INVALID LOG2 PUSH5 0x6970667358 0x22 SLT KECCAK256 MLOAD 0xC4 0xC6 DUP6 PUSH9 0x1DD1D385F09656F8E7 0xEC EQ 0xA6 0x4D 0xF8 0x22 PUSH31 0x4C7EE8EC6D357A2CDC1C0964736F6C63430008090033000000000000000000 "
		},
		"gasEstimates": {
			"creation": {
				"codeDepositCost": "4371200",
				"executionCost": "infinite",
				"totalCost": "infinite"
			},
			"external": {
				"approve(address,uint256)": "infinite",
				"balanceOf(address)": "2925",
				"baseTokenURI()": "infinite",
				"failedMessages(uint16,bytes,uint256)": "infinite",
				"forceResumeReceive(uint16,bytes)": "infinite",
				"getApproved(uint256)": "5206",
				"getConfig(uint16,uint16,address,uint256)": "infinite",
				"getLzEndpoint()": "infinite",
				"getTrustedRemote(uint16)": "infinite",
				"isApprovedForAll(address,address)": "infinite",
				"isTrustedRemote(uint16,bytes)": "infinite",
				"lzReceive(uint16,bytes,uint64,bytes)": "infinite",
				"name()": "infinite",
				"nonblockingLzReceive(uint16,bytes,uint64,bytes)": "infinite",
				"owner()": "2612",
				"ownerOf(uint256)": "3044",
				"renounceOwnership()": "30442",
				"retryMessage(uint16,bytes,uint64,bytes)": "infinite",
				"safeTransferFrom(address,address,uint256)": "infinite",
				"safeTransferFrom(address,address,uint256,bytes)": "infinite",
				"send(uint16,bytes,uint256,address,address,bytes)": "infinite",
				"sendFrom(address,uint16,bytes,uint256,address,address,bytes)": "infinite",
				"setApprovalForAll(address,bool)": "infinite",
				"setBaseURI(string)": "infinite",
				"setConfig(uint16,uint16,uint256,bytes)": "infinite",
				"setReceiveVersion(uint16)": "infinite",
				"setSendVersion(uint16)": "infinite",
				"setTrustedRemote(uint16,bytes)": "infinite",
				"supportsInterface(bytes4)": "842",
				"symbol()": "infinite",
				"tokenURI(uint256)": "infinite",
				"transferFrom(address,address,uint256)": "infinite",
				"transferOwnership(address)": "30833"
			},
			"internal": {
				"_afterReceive(uint16,address,uint256)": "infinite",
				"_afterSend(address,uint16,bytes memory,uint256)": "17",
				"_baseURI()": "infinite",
				"_beforeReceive(uint16,bytes memory,bytes memory)": "15",
				"_beforeSend(address,uint16,bytes memory,uint256)": "infinite",
				"_nonblockingLzReceive(uint16,bytes memory,uint64,bytes memory)": "infinite",
				"_send(address,uint16,bytes memory,uint256,address payable,address,bytes calldata)": "infinite"
			}
		},
		"methodIdentifiers": {
			"approve(address,uint256)": "095ea7b3",
			"balanceOf(address)": "70a08231",
			"baseTokenURI()": "d547cfb7",
			"failedMessages(uint16,bytes,uint256)": "8ee74912",
			"forceResumeReceive(uint16,bytes)": "42d65a8d",
			"getApproved(uint256)": "081812fc",
			"getConfig(uint16,uint16,address,uint256)": "f5ecbdbc",
			"getLzEndpoint()": "dacbcbe2",
			"getTrustedRemote(uint16)": "69b41f95",
			"isApprovedForAll(address,address)": "e985e9c5",
			"isTrustedRemote(uint16,bytes)": "3d8b38f6",
			"lzReceive(uint16,bytes,uint64,bytes)": "001d3567",
			"name()": "06fdde03",
			"nonblockingLzReceive(uint16,bytes,uint64,bytes)": "66ad5c8a",
			"owner()": "8da5cb5b",
			"ownerOf(uint256)": "6352211e",
			"renounceOwnership()": "715018a6",
			"retryMessage(uint16,bytes,uint64,bytes)": "d1deba1f",
			"safeTransferFrom(address,address,uint256)": "42842e0e",
			"safeTransferFrom(address,address,uint256,bytes)": "b88d4fde",
			"send(uint16,bytes,uint256,address,address,bytes)": "eed33cef",
			"sendFrom(address,uint16,bytes,uint256,address,address,bytes)": "51905636",
			"setApprovalForAll(address,bool)": "a22cb465",
			"setBaseURI(string)": "55f804b3",
			"setConfig(uint16,uint16,uint256,bytes)": "cbed8b9c",
			"setReceiveVersion(uint16)": "10ddb137",
			"setSendVersion(uint16)": "07e0db17",
			"setTrustedRemote(uint16,bytes)": "eb8d72b7",
			"supportsInterface(bytes4)": "01ffc9a7",
			"symbol()": "95d89b41",
			"tokenURI(uint256)": "c87b56dd",
			"transferFrom(address,address,uint256)": "23b872dd",
			"transferOwnership(address)": "f2fde38b"
		}
	},
	"abi": [
		{
			"inputs": [
				{
					"internalType": "string",
					"name": "_name",
					"type": "string"
				},
				{
					"internalType": "string",
					"name": "_symbol",
					"type": "string"
				},
				{
					"internalType": "address",
					"name": "_lzEndpoint",
					"type": "address"
				}
			],
			"stateMutability": "nonpayable",
			"type": "constructor"
		},
		{
			"anonymous": false,
			"inputs": [
				{
					"indexed": true,
					"internalType": "address",
					"name": "owner",
					"type": "address"
				},
				{
					"indexed": true,
					"internalType": "address",
					"name": "approved",
					"type": "address"
				},
				{
					"indexed": true,
					"internalType": "uint256",
					"name": "tokenId",
					"type": "uint256"
				}
			],
			"name": "Approval",
			"type": "event"
		},
		{
			"anonymous": false,
			"inputs": [
				{
					"indexed": true,
					"internalType": "address",
					"name": "owner",
					"type": "address"
				},
				{
					"indexed": true,
					"internalType": "address",
					"name": "operator",
					"type": "address"
				},
				{
					"indexed": false,
					"internalType": "bool",
					"name": "approved",
					"type": "bool"
				}
			],
			"name": "ApprovalForAll",
			"type": "event"
		},
		{
			"anonymous": false,
			"inputs": [
				{
					"indexed": false,
					"internalType": "uint16",
					"name": "_srcChainId",
					"type": "uint16"
				},
				{
					"indexed": false,
					"internalType": "bytes",
					"name": "_srcAddress",
					"type": "bytes"
				},
				{
					"indexed": false,
					"internalType": "uint64",
					"name": "_nonce",
					"type": "uint64"
				},
				{
					"indexed": false,
					"internalType": "bytes",
					"name": "_payload",
					"type": "bytes"
				}
			],
			"name": "MessageFailed",
			"type": "event"
		},
		{
			"anonymous": false,
			"inputs": [
				{
					"indexed": true,
					"internalType": "address",
					"name": "previousOwner",
					"type": "address"
				},
				{
					"indexed": true,
					"internalType": "address",
					"name": "newOwner",
					"type": "address"
				}
			],
			"name": "OwnershipTransferred",
			"type": "event"
		},
		{
			"anonymous": false,
			"inputs": [
				{
					"indexed": false,
					"internalType": "uint16",
					"name": "_srcChainId",
					"type": "uint16"
				},
				{
					"indexed": false,
					"internalType": "address",
					"name": "_toAddress",
					"type": "address"
				},
				{
					"indexed": false,
					"internalType": "uint256",
					"name": "_tokenId",
					"type": "uint256"
				},
				{
					"indexed": false,
					"internalType": "uint64",
					"name": "_nonce",
					"type": "uint64"
				}
			],
			"name": "ReceiveFromChain",
			"type": "event"
		},
		{
			"anonymous": false,
			"inputs": [
				{
					"indexed": true,
					"internalType": "address",
					"name": "_sender",
					"type": "address"
				},
				{
					"indexed": true,
					"internalType": "uint16",
					"name": "_dstChainId",
					"type": "uint16"
				},
				{
					"indexed": true,
					"internalType": "bytes",
					"name": "_toAddress",
					"type": "bytes"
				},
				{
					"indexed": false,
					"internalType": "uint256",
					"name": "_tokenId",
					"type": "uint256"
				},
				{
					"indexed": false,
					"internalType": "uint64",
					"name": "_nonce",
					"type": "uint64"
				}
			],
			"name": "SendToChain",
			"type": "event"
		},
		{
			"anonymous": false,
			"inputs": [
				{
					"indexed": false,
					"internalType": "uint16",
					"name": "_srcChainId",
					"type": "uint16"
				},
				{
					"indexed": false,
					"internalType": "bytes",
					"name": "_srcAddress",
					"type": "bytes"
				}
			],
			"name": "SetTrustedRemote",
			"type": "event"
		},
		{
			"anonymous": false,
			"inputs": [
				{
					"indexed": true,
					"internalType": "address",
					"name": "from",
					"type": "address"
				},
				{
					"indexed": true,
					"internalType": "address",
					"name": "to",
					"type": "address"
				},
				{
					"indexed": true,
					"internalType": "uint256",
					"name": "tokenId",
					"type": "uint256"
				}
			],
			"name": "Transfer",
			"type": "event"
		},
		{
			"inputs": [
				{
					"internalType": "address",
					"name": "to",
					"type": "address"
				},
				{
					"internalType": "uint256",
					"name": "tokenId",
					"type": "uint256"
				}
			],
			"name": "approve",
			"outputs": [],
			"stateMutability": "nonpayable",
			"type": "function"
		},
		{
			"inputs": [
				{
					"internalType": "address",
					"name": "owner",
					"type": "address"
				}
			],
			"name": "balanceOf",
			"outputs": [
				{
					"internalType": "uint256",
					"name": "",
					"type": "uint256"
				}
			],
			"stateMutability": "view",
			"type": "function"
		},
		{
			"inputs": [],
			"name": "baseTokenURI",
			"outputs": [
				{
					"internalType": "string",
					"name": "",
					"type": "string"
				}
			],
			"stateMutability": "view",
			"type": "function"
		},
		{
			"inputs": [
				{
					"internalType": "uint16",
					"name": "",
					"type": "uint16"
				},
				{
					"internalType": "bytes",
					"name": "",
					"type": "bytes"
				},
				{
					"internalType": "uint256",
					"name": "",
					"type": "uint256"
				}
			],
			"name": "failedMessages",
			"outputs": [
				{
					"internalType": "bytes32",
					"name": "",
					"type": "bytes32"
				}
			],
			"stateMutability": "view",
			"type": "function"
		},
		{
			"inputs": [
				{
					"internalType": "uint16",
					"name": "_srcChainId",
					"type": "uint16"
				},
				{
					"internalType": "bytes",
					"name": "_srcAddress",
					"type": "bytes"
				}
			],
			"name": "forceResumeReceive",
			"outputs": [],
			"stateMutability": "nonpayable",
			"type": "function"
		},
		{
			"inputs": [
				{
					"internalType": "uint256",
					"name": "tokenId",
					"type": "uint256"
				}
			],
			"name": "getApproved",
			"outputs": [
				{
					"internalType": "address",
					"name": "",
					"type": "address"
				}
			],
			"stateMutability": "view",
			"type": "function"
		},
		{
			"inputs": [
				{
					"internalType": "uint16",
					"name": "",
					"type": "uint16"
				},
				{
					"internalType": "uint16",
					"name": "_chainId",
					"type": "uint16"
				},
				{
					"internalType": "address",
					"name": "",
					"type": "address"
				},
				{
					"internalType": "uint256",
					"name": "_configType",
					"type": "uint256"
				}
			],
			"name": "getConfig",
			"outputs": [
				{
					"internalType": "bytes",
					"name": "",
					"type": "bytes"
				}
			],
			"stateMutability": "view",
			"type": "function"
		},
		{
			"inputs": [],
			"name": "getLzEndpoint",
			"outputs": [
				{
					"internalType": "address",
					"name": "",
					"type": "address"
				}
			],
			"stateMutability": "view",
			"type": "function"
		},
		{
			"inputs": [
				{
					"internalType": "uint16",
					"name": "_chainId",
					"type": "uint16"
				}
			],
			"name": "getTrustedRemote",
			"outputs": [
				{
					"internalType": "bytes",
					"name": "",
					"type": "bytes"
				}
			],
			"stateMutability": "view",
			"type": "function"
		},
		{
			"inputs": [
				{
					"internalType": "address",
					"name": "owner",
					"type": "address"
				},
				{
					"internalType": "address",
					"name": "operator",
					"type": "address"
				}
			],
			"name": "isApprovedForAll",
			"outputs": [
				{
					"internalType": "bool",
					"name": "",
					"type": "bool"
				}
			],
			"stateMutability": "view",
			"type": "function"
		},
		{
			"inputs": [
				{
					"internalType": "uint16",
					"name": "_srcChainId",
					"type": "uint16"
				},
				{
					"internalType": "bytes",
					"name": "_srcAddress",
					"type": "bytes"
				}
			],
			"name": "isTrustedRemote",
			"outputs": [
				{
					"internalType": "bool",
					"name": "",
					"type": "bool"
				}
			],
			"stateMutability": "view",
			"type": "function"
		},
		{
			"inputs": [
				{
					"internalType": "uint16",
					"name": "_srcChainId",
					"type": "uint16"
				},
				{
					"internalType": "bytes",
					"name": "_srcAddress",
					"type": "bytes"
				},
				{
					"internalType": "uint64",
					"name": "_nonce",
					"type": "uint64"
				},
				{
					"internalType": "bytes",
					"name": "_payload",
					"type": "bytes"
				}
			],
			"name": "lzReceive",
			"outputs": [],
			"stateMutability": "nonpayable",
			"type": "function"
		},
		{
			"inputs": [],
			"name": "name",
			"outputs": [
				{
					"internalType": "string",
					"name": "",
					"type": "string"
				}
			],
			"stateMutability": "view",
			"type": "function"
		},
		{
			"inputs": [
				{
					"internalType": "uint16",
					"name": "_srcChainId",
					"type": "uint16"
				},
				{
					"internalType": "bytes",
					"name": "_srcAddress",
					"type": "bytes"
				},
				{
					"internalType": "uint64",
					"name": "_nonce",
					"type": "uint64"
				},
				{
					"internalType": "bytes",
					"name": "_payload",
					"type": "bytes"
				}
			],
			"name": "nonblockingLzReceive",
			"outputs": [],
			"stateMutability": "nonpayable",
			"type": "function"
		},
		{
			"inputs": [],
			"name": "owner",
			"outputs": [
				{
					"internalType": "address",
					"name": "",
					"type": "address"
				}
			],
			"stateMutability": "view",
			"type": "function"
		},
		{
			"inputs": [
				{
					"internalType": "uint256",
					"name": "tokenId",
					"type": "uint256"
				}
			],
			"name": "ownerOf",
			"outputs": [
				{
					"internalType": "address",
					"name": "",
					"type": "address"
				}
			],
			"stateMutability": "view",
			"type": "function"
		},
		{
			"inputs": [],
			"name": "renounceOwnership",
			"outputs": [],
			"stateMutability": "nonpayable",
			"type": "function"
		},
		{
			"inputs": [
				{
					"internalType": "uint16",
					"name": "_srcChainId",
					"type": "uint16"
				},
				{
					"internalType": "bytes",
					"name": "_srcAddress",
					"type": "bytes"
				},
				{
					"internalType": "uint64",
					"name": "_nonce",
					"type": "uint64"
				},
				{
					"internalType": "bytes",
					"name": "_payload",
					"type": "bytes"
				}
			],
			"name": "retryMessage",
			"outputs": [],
			"stateMutability": "payable",
			"type": "function"
		},
		{
			"inputs": [
				{
					"internalType": "address",
					"name": "from",
					"type": "address"
				},
				{
					"internalType": "address",
					"name": "to",
					"type": "address"
				},
				{
					"internalType": "uint256",
					"name": "tokenId",
					"type": "uint256"
				}
			],
			"name": "safeTransferFrom",
			"outputs": [],
			"stateMutability": "nonpayable",
			"type": "function"
		},
		{
			"inputs": [
				{
					"internalType": "address",
					"name": "from",
					"type": "address"
				},
				{
					"internalType": "address",
					"name": "to",
					"type": "address"
				},
				{
					"internalType": "uint256",
					"name": "tokenId",
					"type": "uint256"
				},
				{
					"internalType": "bytes",
					"name": "_data",
					"type": "bytes"
				}
			],
			"name": "safeTransferFrom",
			"outputs": [],
			"stateMutability": "nonpayable",
			"type": "function"
		},
		{
			"inputs": [
				{
					"internalType": "uint16",
					"name": "_dstChainId",
					"type": "uint16"
				},
				{
					"internalType": "bytes",
					"name": "_toAddress",
					"type": "bytes"
				},
				{
					"internalType": "uint256",
					"name": "_tokenId",
					"type": "uint256"
				},
				{
					"internalType": "address payable",
					"name": "_refundAddress",
					"type": "address"
				},
				{
					"internalType": "address",
					"name": "_zroPaymentAddress",
					"type": "address"
				},
				{
					"internalType": "bytes",
					"name": "_adapterParam",
					"type": "bytes"
				}
			],
			"name": "send",
			"outputs": [],
			"stateMutability": "payable",
			"type": "function"
		},
		{
			"inputs": [
				{
					"internalType": "address",
					"name": "_from",
					"type": "address"
				},
				{
					"internalType": "uint16",
					"name": "_dstChainId",
					"type": "uint16"
				},
				{
					"internalType": "bytes",
					"name": "_toAddress",
					"type": "bytes"
				},
				{
					"internalType": "uint256",
					"name": "_tokenId",
					"type": "uint256"
				},
				{
					"internalType": "address payable",
					"name": "_refundAddress",
					"type": "address"
				},
				{
					"internalType": "address",
					"name": "_zroPaymentAddress",
					"type": "address"
				},
				{
					"internalType": "bytes",
					"name": "_adapterParam",
					"type": "bytes"
				}
			],
			"name": "sendFrom",
			"outputs": [],
			"stateMutability": "payable",
			"type": "function"
		},
		{
			"inputs": [
				{
					"internalType": "address",
					"name": "operator",
					"type": "address"
				},
				{
					"internalType": "bool",
					"name": "approved",
					"type": "bool"
				}
			],
			"name": "setApprovalForAll",
			"outputs": [],
			"stateMutability": "nonpayable",
			"type": "function"
		},
		{
			"inputs": [
				{
					"internalType": "string",
					"name": "_baseTokenURI",
					"type": "string"
				}
			],
			"name": "setBaseURI",
			"outputs": [],
			"stateMutability": "nonpayable",
			"type": "function"
		},
		{
			"inputs": [
				{
					"internalType": "uint16",
					"name": "_version",
					"type": "uint16"
				},
				{
					"internalType": "uint16",
					"name": "_chainId",
					"type": "uint16"
				},
				{
					"internalType": "uint256",
					"name": "_configType",
					"type": "uint256"
				},
				{
					"internalType": "bytes",
					"name": "_config",
					"type": "bytes"
				}
			],
			"name": "setConfig",
			"outputs": [],
			"stateMutability": "nonpayable",
			"type": "function"
		},
		{
			"inputs": [
				{
					"internalType": "uint16",
					"name": "_version",
					"type": "uint16"
				}
			],
			"name": "setReceiveVersion",
			"outputs": [],
			"stateMutability": "nonpayable",
			"type": "function"
		},
		{
			"inputs": [
				{
					"internalType": "uint16",
					"name": "_version",
					"type": "uint16"
				}
			],
			"name": "setSendVersion",
			"outputs": [],
			"stateMutability": "nonpayable",
			"type": "function"
		},
		{
			"inputs": [
				{
					"internalType": "uint16",
					"name": "_srcChainId",
					"type": "uint16"
				},
				{
					"internalType": "bytes",
					"name": "_srcAddress",
					"type": "bytes"
				}
			],
			"name": "setTrustedRemote",
			"outputs": [],
			"stateMutability": "nonpayable",
			"type": "function"
		},
		{
			"inputs": [
				{
					"internalType": "bytes4",
					"name": "interfaceId",
					"type": "bytes4"
				}
			],
			"name": "supportsInterface",
			"outputs": [
				{
					"internalType": "bool",
					"name": "",
					"type": "bool"
				}
			],
			"stateMutability": "view",
			"type": "function"
		},
		{
			"inputs": [],
			"name": "symbol",
			"outputs": [
				{
					"internalType": "string",
					"name": "",
					"type": "string"
				}
			],
			"stateMutability": "view",
			"type": "function"
		},
		{
			"inputs": [
				{
					"internalType": "uint256",
					"name": "tokenId",
					"type": "uint256"
				}
			],
			"name": "tokenURI",
			"outputs": [
				{
					"internalType": "string",
					"name": "",
					"type": "string"
				}
			],
			"stateMutability": "view",
			"type": "function"
		},
		{
			"inputs": [
				{
					"internalType": "address",
					"name": "from",
					"type": "address"
				},
				{
					"internalType": "address",
					"name": "to",
					"type": "address"
				},
				{
					"internalType": "uint256",
					"name": "tokenId",
					"type": "uint256"
				}
			],
			"name": "transferFrom",
			"outputs": [],
			"stateMutability": "nonpayable",
			"type": "function"
		},
		{
			"inputs": [
				{
					"internalType": "address",
					"name": "newOwner",
					"type": "address"
				}
			],
			"name": "transferOwnership",
			"outputs": [],
			"stateMutability": "nonpayable",
			"type": "function"
		}
	]
}